:100000006FC0C001130000001300000013000000C7
:100010001300000013000000130000001300000094
:100020001300000013000000130000001300000084
:08003000130000007300100032
:1000380000000000000000003CBB000040BB0000C6
:100048000000000062BF0000000000000000000087
:1000580064BF000066BF0000000000000000000050
:1000680068BF0000000000006ABF00000000000038
:100078006CBF00006EBF000070BF000072BF0000C0
:1000880074BF000076BF0000D0B70000E8B70000DA
:1000980002B800001CB8000036B8000082BF00009B
:1000A80084BF000086BF000088BF00008ABF000030
:1000B8008CBF00008EBF000090BF000092BF000000
:1000C80094BF000096BF000098BF000050B8000021
:1000D8009CBF000098B90000A0BF0000A2BF0000AC
:1000E800C6B90000E4B9000012BA0000AABF0000B7
:1000F800ACBF0000AEBF0000B0BF0000B2BF000040
:10010800B4BF000018B600004AB600008CB6000064
:10011800CEB80000BEBF0000C0BF0000C2BF0000D4
:10012800C2BA0000C6BF0000C8BF0000CABF0000B6
:10013800CCBF0000CEBF000040BA0000D2BF000014
:10014800BEB60000F0B600006EBA000090BA00001B
:10015800DCBF0000DEBF0000E0BF0000E2BF00001F
:10016800E4BF0000E6BF0000E8BF0000EABF0000EF
:10017800ECBF0000EEBF0000F0BF0000C8D00000D8
:10018800F4BF0000F6BF0000A0B7000016B70000DB
:1001980048B700007EB7000000C00000F0BA0000B9
:1001A80004C0000006C0000008C000001EBB00001C
:1001B8000CC000000EC0000010C0000012C00000FB
:1001C80014C0000016C0000018C000001AC00000CB
:1001D8000000000000000000000000000000000017
:1001E8000000000000000000000000000000000007
:0801F8000000000000000000FF
:10020000737504308280B76200009382820873A005
:10021000023082803D432A876373C3029377F700DD
:10022000BDEFADE5937606FF3D8ABA960CC34CC38D
:100230000CC74CC74107E36BD7FE11E28280B306BF
:10024000C3408A069702000096966780A60023079F
:10025000B700A306B7002306B700A305B700230520
:10026000B700A304B7002304B700A303B700230318
:10027000B700A302B7002302B700A301B700230110
:10028000B700A300B7002300B700828093F5F50FF5
:1002900093968500D58D93960501D58D61B793967C
:1002A00027009702000096968682E78086FA96805D
:1002B000C1171D8F3E96E374C3F8A5B7B7F700E0EA
:1002C00023A007008146014794C7D8C7054798C3B4
:1002D00037F700E01047544763E6D500E39CB6FECD
:1002E000E37AC5FE828079715EC662C466C2328CD2
:1002F000AE8CB68B014693068004814506D622D487
:1003000026D24AD04ECE52CC56CA5AC8BE8A3A8B52
:10031000428AC6898344010303494103034481039C
:100320003D26668593068004014681450D2662853B
:100330009306800401468145192E5E85930680044C
:100340000146814529265A85930680040146814548
:10035000FD2C56859306800401468145CD2C52859F
:100360009306800401468145DD244E859306800472
:1003700001468145E92C4A85930680040146814562
:10038000F92426859306800401468145C9242285E7
:100390002254B25092540259F249624AD24A424B14
:1003A000B24B224C924C9306800401468145456134
:1003B00079AC011122CC26CA2E84AA848545096510
:1003C00006CE4AC84EC63289B689EFC06048B70724
:1003D000055003C70700130560058D451377F70C1B
:1003E0002380E70003C70700136727042380E70083
:1003F00003C717001377970FA380E70023923701F5
:100400002393270184C7C0C703C717001377F703D7
:10041000A380E70003C717001377F70FA380E70057
:1004200003C72700136747002381E70003C71700AE
:1004300013671700A380E70003C7070013671700BF
:100440002380E700EF30501E6244F240D24442491C
:10045000B2491305600505616F30D019D9679387DC
:1004600047B80A053E951C4103D7470203D547020A
:10047000420541858280D967938747B80A053E9532
:100480001C41239207028280011122CC2E849145C7
:1004900006CE26CA4AC8AA843289EF00706EB765B4
:1004A00001001306D00793850599EF30401026858B
:1004B000EF00F06E93068004014681451375F40F3A
:1004C000792281459306800401461375F90F412274
:1004D0009355840085476388F504C5476381F50C0F
:1004E000930710026385F50C93072002638AF508D1
:1004F00093071003638CF50C930710076381F50CC9
:10050000930710086386F508930710096385F50CB7
:10051000930720096390F502370701405C4F93E78A
:1005200007025CCF01A83705160085451305050CA9
:10053000EFC0201685450545EFC060334800EFC089
:100540009004D967938747B88A04BE948040C167F6
:10055000FD174C0022853EC402C223060100EFC0F5
:10056000A046228593050006EFC0B0082285854588
:10057000EFC0F002F2406244D244424905618280F9
:1005800037151A00854513050580EFC080105DB74B
:10059000370701405C4F93E707015CCF61BF370528
:1005A0001800854513050530EFC0A00E61B737155B
:1005B0001A008545130505C0EFC0A00DA5BF37077C
:1005C00001405C4F93E747005CCFADB785450565BB
:1005D000EFC0200C85B7370701405C4F93E7070455
:1005E0005CCF89BF9357550013972700D96793872E
:1005F00087A0BA973D89984385473395A70099C14D
:1006000008CB828048CB8280135735009376C70190
:100610005967130787A03697184385473395A70076
:100620001C477D8D3335A00082809357350013F72A
:10063000C701D967938787A0BA9798439377F50046
:10064000054554473315F500358D48C782807971CB
:1006500006D622D426D24AD04ECE52CC02C202C4F2
:1006600002C69307F00F630DF506135455001D885D
:100670009374F5003689B2892E8A0DC885476304C4
:10068000F40A89476306F40A8D476308F40A914720
:10069000630BF40A9547630EF40A9947631CF40050
:1006A000854513050010EFC0801C29A08545114524
:1006B000EFC0E01B0547B3149700C204D9679387C6
:1006C00087A0C1800A043E94231291009377F90F0A
:1006D0000040630FEA004C0022853EC6EFB0B03206
:1006E000B250225492540259F249624A45618280C2
:1006F00042091359090113598900631309000D496F
:100700004C0022854AC43EC6EFB0F02F4E86A68527
:100710002285EFB07077B250225492540259F249B8
:10072000624A4561828085452145EFC0401459B732
:1007300085454145EFC0A013B5BF854513050002AF
:10074000EFC0E01285BF854513050004EFC02012FD
:1007500095B7854513050008EFC06011A1BFD967A3
:100760009387879603AF070083AE470003AE8700E9
:1007700003A3C70083A8070103A84701D44F9853D8
:10078000904FDC531D71A6CAAE84854586CE7ACCC7
:1007900076CE72D01AD246D442D636DA3ADCA2CC21
:1007A000CAC8CEC6D2C43EDE2A843769010032D818
:1007B000EF00103D9305C9A113065002EF20305FF2
:1007C000130660029305C9A133359000EF20305E17
:1007D0002285EF00D03C13DAF40093170A01C1839D
:1007E0008507B3D4F402D96793192400938747B8D7
:1007F000CE9703A907006C00231641014A852319EF
:10080000010023170100230A01001374F40F0A04E6
:1008100023189100EFC0401B05464A858545EFC06F
:10082000A05B4A858545EFC0806B9C003E94032504
:1008300084FD8D45EF30405F9C00BE9903A589FD86
:10084000EF30405B4A858545EFC06055F640664411
:10085000D6444649B649264A25618280630305206D
:100860008547630CF52089476303F5208D47630CAA
:10087000F520C147630FF520C5476303F522C9473B
:100880006307F522CD476301F52493070010630445
:10089000F524930710106306F524930720106308CE
:1008A000F52493073010630AF524930700116307BA
:1008B000F520930710116308F52493072011630BAB
:1008C000F52493073011630EF5249307002063018C
:1008D000F526930710206303F52693072020630570
:1008E000F526930730206308F52693070021630B54
:1008F000F52693071021630EF52693072021630147
:10090000F528930730216304F52893070022630735
:10091000F52893071022630AF52893070030630D2A
:10092000F528930710306300F52A930720306303FE
:10093000F52A930730306304F52C930700316309DF
:10094000F52A93071031630EF52893072031630FC2
:10095000F52A930730316302F52C93070040630CAE
:10096000F51693071040630EF516930720406300B9
:10097000F518930730406302F5189307007063037E
:10098000F51E930710706306F51E93072070630928
:10099000F51E93073070630CF51E93070071630D0D
:1009A000F520930710716300F5229307207163030C
:1009B000F522930730716300F5289307058063885B
:1009C00007128567138717806309E512138727804D
:1009D0006301E528938737806306F52685671387CB
:1009E0000781630FE52C138717816304E52C1387B8
:1009F00027816308E51E138737816300E52213878B
:100A000007906309E51C13871790630AE51E138797
:100A100027906309E52813873790630EE52613872F
:100A200007916303E526938717916308F52485678B
:100A300013872791630CE522138737916301E52221
:100A4000138707926301E50C138717926308E51477
:100A500013872792630BE514938737926306F51C7F
:100A6000828093068031014685452145CDB69306A7
:100A70008031014685452945D9BE9306803101461E
:100A800085452545E9B693068031014685452D45C6
:100A90007DBE93068031014685451305900845BE0D
:100AA00093068031014685451305B0084DB693067F
:100AB0008031014685451305D00851BE930680312B
:100AC000014685453D4561B6930680310146854521
:100AD0001305E008ADBE930680310146854501450A
:100AE000BDB6930680310146854505458DB6930612
:100AF000803101468545094599BE930680310146FE
:100B000085450D45A9B693068031014685451305F7
:100B1000300235BE93068031014685451305A0029B
:100B20003DB693068031014685451305B00205B6F2
:100B30009306803101468545194511BE93068031E3
:100B4000014685451D4521B6930680310146854500
:100B500013050002EDBC930680310146854513055F
:100B60001002F5B4930680310146854513056004F3
:100B7000F9BC930680310146854513057004C1BC5C
:100B8000930680310146854513058004C9B4930658
:100B90008031014685451305900455BC930680318C
:100BA00001468545130540025DB493068031014638
:100BB00085451305500261BC930680310146854589
:100BC0001305600269B4930680310146854513051B
:100BD0007002B5BC9306803101468545130580023D
:100BE000BDB493068031014685451305D00685B412
:100BF00093068031014685451305C00689BC9306DE
:100C00008031014685451305900291B493068031E9
:100C1000014685451305E0061DBC9306803101465B
:100C200085451305F00625B49306803101468545B8
:100C30001305F00429BC9306803101468545130550
:100C4000D00431B493068031014685451305400434
:100C5000FDBA93068031014685451145CDBA93060C
:100C600080310146854513057006D5B29306803163
:100C70000146854513055006D9BA930680310146D1
:100C8000854513053006E1B293068031014685455E
:100C9000130510066DBA930680310146854513058C
:100CA000B00475B2930680310146854513053004C2
:100CB00079BA93068031014685451305B00641BADD
:100CC00093068031014685451305900649B2935736
:100CD00085005967130747B88A07BA979443454771
:100CE00083D7C602B385F5026302E5046364E502B7
:100CF000FD779387076FAA970D47636DF7009307FA
:100D0000803E0D89B3D5F5020A053695C205C1812D
:100D10004CD98280896793870771B3D5F5020D8915
:100D20000A053695C205C1814CD98280E167938757
:100D3000076AB3D5F5020D890A053695C205C1814A
:100D40004CD98280397126DA9354850022DC4ED644
:100D50002A84AE8926858D4506DE4AD832890D253E
:100D6000B76501001306900B938505A9EF203004A9
:100D7000268535252285DD3485450545EFB0302FA4
:100D80009357440005476388E70445476386E7189F
:100D9000130710026388E71A130720026384E7141D
:100DA00013071003638FE71A130710076384E71A0A
:100DB000130710086380E714130710096388E71A04
:100DC000130720096390E702370701405C4F93E760
:100DD00007025CCF01A83705160085451305050CF1
:100DE000EFB0300B83A581844545B3D73503C1836C
:100DF00093861700B3863603139707014183B3D553
:100E0000D502139605014182B28533092603630A90
:100E1000A40A6364A40AFD779387076FA2978D469F
:100E20009309803E63EBF608D967938747B88A0435
:100E3000BE9484409387F5FF4C0026852314F1006F
:100E40002312E100231501002313010023060100F2
:100E5000EFB0903733563903C167938707073EC811
:100E6000B70702008907231A01003ECC02CE0D8885
:100E7000231BC10039C885476308F40A89470C0859
:100E800026856300F408EFB03066A1452685EFB0F3
:100E9000307C930500402685EFC0000126858545FE
:100EA000EFB0F07126858545EFB0706FF250625457
:100EB000D2544259B2592161828009669309067160
:100EC000A5B761669309066A85B70C082685EFB059
:100ED000103D2685A145EFB0D07391452685EFB032
:100EE000D0786DBF37151A00854513050580EFB022
:100EF000407ACDBD370701405C4F93E707015CCFD7
:100F0000D5B5EFB070512685A145EFB0507391452E
:100F10002685EFB0507859B7370518008545130579
:100F20000530EFB000777DBD0C082685EFB0B041ED
:100F30002685A145EFB0106F930500402685EFB0E0
:100F4000F073A9BF37151A008545130505C0EFB02A
:100F5000407449BD370701405C4F93E747005CCFC1
:100F600051B585450565EFB0C072ADBD370701408D
:100F70005C4F93E707045CCFB5B5411122C426C28C
:100F80004AC006C6AE843284368955C5C14763025D
:100F9000F510930700026301F51293070003630A3B
:100FA000F50E93070004630DF514B76501001306F1
:100FB0009002938545B00145EF20605F89476386C5
:100FC000F408C9476385F40A930720026388F41084
:100FD00093072003638DF408930720046387F40EBE
:100FE000B765010013060003938545B00145EF2066
:100FF000005C85476305F406C5476303F40893075F
:1010000010026306F40E930710046304F4109307B0
:1010100010036307F4069307F00F6315F4082244E6
:10102000B24092444A850249930600310146854503
:1010300041016FF0CFE193068031054685451545A6
:10104000EFF0EFE08947E39EF4F693068031054622
:1010500085451D45EFF0AFDF8547E31FF4F89306A4
:101060004030054681451945EFF06FDE4DBF9306D0
:1010700080310546854513055002EFF04FDD95BFE1
:10108000930640300546814513054002EFF02FDC02
:1010900079B7930680310546854513053002EFF098
:1010A0000FDB29BFB765010013068003938545B0A8
:1010B0000145EF20C04FA5B7930680310546854511
:1010C0001305D002EFF0AFD8D5BD930680310546A9
:1010D00085451305C004EFF08FD721BF93068031FB
:1010E000054685451305F002EFF06FD619B7930654
:1010F0004030054681451305E002EFF04FD505B7B6
:1011000093068031054685451305A004EFF02FD4E2
:1011100075B593064030054681451305B004EFF0E0
:101120000FD3F5BD5D7193182500CAC02A89596592
:10113000130585B746954EDE8329050086C6A2C4F1
:101140004E85A6C252DC56DA5AD85ED63E8BAE84A5
:10115000B28B368ABA8A4284EFB0E078854505457D
:10116000EFB0E070C1476309FA0E930700046316FD
:10117000FA00930720046385FA16630B090E85476E
:101180006301F91889476309F916A2865A86D6853C
:101190005285E533B70704013EC623180100854791
:1011A0006380F40E638C04100947638AE40E8D4655
:1011B0006385D40803A441939307F00F3354740359
:1011C0004204418063F287041304800393070020E4
:1011D0006C004E85231BF1009D47231C8100231EBC
:1011E000F100231D0100EFB020764E858545EFB05C
:1011F000807BB640264496440649F259625AD25A38
:10120000425BB25B616182809307F00763E7870608
:101210009307F00363E3870CFD4763E9870EBD473F
:1012200063E9870E9D4763E8870E8D4763E7870E66
:10123000854763F6870E014451BF231AF10003A4CA
:1012400041932319E1009307F00F335474034204D0
:101250004180E3EB87F64DBFC947E390FAF2C547FB
:10126000E31DFBF085450545EFB0A042E31909F009
:1012700085450565EFB0A05F09BF13040003B9B74A
:1012800003A4419323190100231A910033547403DA
:101290009307F00F42044180E3E887F2B5B703A457
:1012A000419323199100231A0100335474039307C7
:1012B000F00F42044180E3E987F0B9B703A44193FA
:1012C00023190100231A0100335474039307F00F0C
:1012D00042044180E3EA87EE05BF13048002FDB5B6
:1012E00093071004E31BFBE8371520008545130521
:1012F0000510EFB0003A51B585452165EFB00059B2
:1013000069B585451165EFB0605841B51304000219
:1013100075BD614465BD414455BD214445BDB765BA
:1013200001001306D008938545B00145EF20202821
:1013300071BDD9670A05938787B7AA979843231683
:10134000B7008357870093F70708E5FF8280D967C6
:101350000A05938787B7AA97984393D785002316E2
:10136000F7008357870093F70708E5FF93F5F50F1C
:101370002316B7008357870093F70708E5FF82809D
:1013800093172500138541A53E951C4181E70CC1AB
:10139000054582803385B74013351500828021C111
:1013A0000547630BE50209476308E5020D47630E35
:1013B000E5021147630FE50215476300E50419478D
:1013C0006301E5041D476303E50421476304E50465
:1013D00025476306E504828085456FB0204B05658F
:1013E0008545130505806FB08048854511456FB070
:1013F000E049854521456FB06049854541456FB05D
:10140000E0488545130500026FB0404885450965F1
:101410006FB0E0458545370508006FB0404585450C
:10142000370510006FB0A044411122C406C62E84B7
:1014300041C98947630BF516C147630BF512C947CC
:10144000630AF51A930700026305F51C930720024F
:10145000630AF51893074002630CF51C9307000418
:101460006302F518930720046302F5209307000533
:101470006305F522930720056300F5249377D5FFD4
:10148000130700066383E720930700076301F51C39
:1014900093072007630EF524930740076308F5269A
:1014A000930700086303F528930720086310F502EB
:1014B000E146014685451305E008EFF04F9939A054
:1014C000E146014685452545EFF06F98854763075E
:1014D000F4088D476300F40CC5476300F40ECD4754
:1014E0006307F40E93071002630EF41093073002A3
:1014F0006307F408930750026305F412930710047E
:10150000630FF40693073004630BF414930710057C
:101510006306F416930730056309F4189307100661
:101520006304F41A930730066307F41A930710074D
:101530006308F410930730076306F41A9307500703
:10154000630FF41A93071008630AF41C930730081A
:101550006305F41EB2402244410182809306800458
:101560000146814529452244B24041016FF02F8E4A
:10157000E146014685450945EFF06F8D81BF224464
:10158000B24093068004014681451305B004410131
:101590006FF0EF8B2244B2409306800401468145F0
:1015A0001305700241016FF08F8AE14601468545BF
:1015B00013056002EFF0AF8911BF2244B2409306D9
:1015C0008004014681450D4541016FF04F8822445A
:1015D000B24093068004014681451305600641012F
:1015E0006FF0EF86E146014685451305A004EFF054
:1015F0000F86E9BDE1460146854513055006EFF02B
:101600000F85E9B593068004014681451305B002B4
:1016100099BFE146014685451305A002EFF02F83EF
:1016200075B593068004014681451305900625BFD4
:10163000E1460146854513058006EFF04F8179B5F7
:1016400093068004014681451305300429BFE14615
:101650000146854513052004EFE07FFF85BD930615
:1016600080040146814513051002F5BDE14601469F
:10167000854513050002EFE09FFD89BD93068004B8
:101680000146814513052006F9BDE1460146854521
:1016900013050004EFE0BFFB15BDE146014685459B
:1016A0001305C004EFE0BFFA15B5930680040146A8
:1016B00081451305900845BDE14601468545130562
:1016C0008008EFE0DFF819B59306800401468145F4
:1016D0001305100449BD9306800401468145130596
:1016E000B00851B593068004014681451D45A5BD4E
:1016F000E146014685451945EFE07FF5C1BB9306FC
:101700008004014681451305D008B1BDE14601467C
:1017100085451305C008EFE09FF34DBB9306800499
:1017200001468145130550043DBDE146014685450E
:1017300013054004EFE0BFF151BB9306800401465E
:1017400081451305F00805B51DC6D9670A059387BD
:10175000C7BAAA9798432E96850583C6F5FF835787
:10176000070093F70708E5DF93970601C18323126B
:10177000F700E393C5FE8280D9671317250093878E
:10178000C7BA4111BA9726C2AA84884322C42E86BA
:101790002E849305505206C6EFB010081385C185FC
:1017A000269503450500B7E700E0AA972380074088
:1017B00019C42244B240924441016F20A0632244E4
:1017C000B240924441016F208064D9670A05938733
:1017D000C7BAAA9798438357070093F7070299E37C
:1017E000014582808357470005452380F5008280AC
:1017F000797122D44ECE2A84AE890545854506D618
:1018000026D24AD0B2843689EFB06006CA852685D2
:1018100021398947638DF414C9476382F40693071D
:1018200020026386F40A93074002638DF40A93074B
:1018300020046385F40C93072005639AF40C930746
:101840003005630CF91821C48547630AF4148947ED
:10185000630DF4148D476300F41691476303F41687
:1018600095476306F41699476300F4189D4763147F
:10187000F402854513050010EFB0400129A8CD47BB
:10188000E313F9FC85452145EFA0B06055FC854583
:101890001165EFA0D07DD9679387C7BA0A043E943B
:1018A00000408A85B7070C0022854EC03EC423162F
:1018B000010002C2EFB0806322858545EFB0C0739E
:1018C000B250225492540259F249456182809307E2
:1018D0003002E31AF9F63705140085454105EFA0FB
:1018E000505B95B793075002E31FF9F437051400D6
:1018F000854513050503EFA0D059B1B79307300410
:10190000E313F9F485450565EFA0B0582DBF9307A3
:101910002006639EF40093073006E316F9F23715AC
:101920000080854513050580EFA0B05629BF9307B9
:101930002007639EF40093073007E316F9F037079A
:1019400001405C4FB7064000D58F5CCFEDBD9307DB
:1019500040076396F40293075007E316F9EE370742
:1019600001405C4FB7068000D58F5CCFE9BD8D4745
:10197000E31BF9EC85451145EFA0B051E9B593079C
:101980002008E392F4EC93073008E31EF9EA3707E6
:1019900001405C4FB7060002D58F5CCF6DB5854521
:1019A00037050200EFA0906EFDB5854537050400B0
:1019B000EFA0D06DCDB5854537050800EFA0106DBF
:1019C000D9BD854537051000EFA0506CE9B58545B8
:1019D00013050004EFA0906B7DBD37052000854501
:1019E0000505EFA0104B85B5854513050008EFA050
:1019F000F06955B5011122CC93855190154506CE5D
:101A000026CA4AC84EC6D1330546938551901385E0
:101A1000C1A9EF1050411384019018408547630914
:101A2000F700F2406244D2444249B24905618280E3
:101A300013894190834509009389C1A793F5F50F58
:101A40009387150093F7F70F814613860190CE9583
:101A50001385C1A92300F900EF10904883470900BE
:101A60000D47E370F7FC8345090037650100114617
:101A7000F115CE951305C5BCEF1051135DF18947E3
:101A80001CC045B7011122CC9385D190194506CED3
:101A900026CA4AC84EC6153B05469385D190138584
:101AA00001ADEF10503813848190184085476309C9
:101AB000F700F2406244D2444249B2490561828053
:101AC0001389C19083450900938901AB93F5F50F04
:101AD0009387150093F7F70F814613868190CE9573
:101AE000138501AD2300F900EF10903F83470900F3
:101AF0000D47E370F7FC8345090037650100114687
:101B0000F115CE951305C5BCEF10510A5DF189475B
:101B10001CC045B783A7819209476388E7000D473A
:101B20006388E70011476383E70082806F10A07C21
:101B30006F10805483A7819211476386E7000D4799
:101B40006385E70082806F1050016F1020590111EA
:101B50005AC006CE22CC26CA4AC84EC652C456C265
:101B6000138BA18083470B00376401002E8AB28457
:101B7000930544BD130620052A893335F500B6893F
:101B8000938AB180EF10B02203C50A00930544BDCB
:101B9000130630053335AA00EF10702103450B0002
:101BA000930544BD1306400533B5A400EF10302063
:101BB00003C50A00930544BD1306500533B5A900BB
:101BC000EF10F01E83A741805967032447A1E1CBA2
:101BD00005476380E71A930A004023285401056BE8
:101BE0001309890293848402130B0B80232A540166
:101BF0004209C2040947232A640113590901C1801B
:101C00009305A0020545638BE710EFF08FF22328C0
:101C10006401232854010545CA85232A5401EFF0A5
:101C20000FF3A6850545EFF08FF223285401232AF0
:101C300054019305B0020545232A6401EFF06FEFCC
:101C400093054A032328640123285401C205C18156
:101C50000545232A5401EFF08FEF93854903C20510
:101C6000C1810545EFF0AFEE23285401232A54012A
:101C7000232A64019305C0020545EFF08FEB23286A
:101C8000640123285401232A5401F2406244D244BF
:101C90004249B249224A924A024B05618280930A24
:101CA000004023285401056B130B0B80232A540199
:101CB0009305A0020545232A6401EFF08FE7930501
:101CC00049032328640123285401C205C181054525
:101CD000232A5401EFF0AFE793854403C205C18185
:101CE0000545EFF0CFE623285401232A540193053C
:101CF000B0020545232A6401EFF0AFE393058A02A1
:101D00002328640123285401C205C1810545232AE3
:101D10005401EFF0CFE39385890291B7EFF06FE1C3
:101D200023286401232854010545CA85232A540128
:101D3000EFF0EFE1A6850545EFF06FE123285401B0
:101D4000232A54019305B0020545232A6401EFF0CC
:101D50004FDE93055A032328640123285401C2054A
:101D6000C1810545232A5401EFF06FDE93855903A5
:101D7000FDB5930A004023285401056B130B0B801B
:101D8000232A54019305A0020545232A6401EFF09C
:101D90004FDA930559032328640123285401C2050F
:101DA000C1810545232A5401EFF06FDA938554036E
:101DB00035B7797122D4376401001306B008930552
:101DC00044BD054506D64AD04ECE26D252CC56CA80
:101DD0005AC85EC662C466C2EF10607D1306C008B2
:101DE000930544BD0545EF10807C03A641939307FE
:101DF000F00F130720021308F00F9306000205826C
:101E000081450545EFF00FB2C146014685451305F2
:101E1000B006EFE0DF83C146014685451305C006E5
:101E2000EFE0FF82C146014685451305A006EFE0BD
:101E30001F82C1460546854513056004EFE03F81DA
:101E40001389418003270900854763FEE742930613
:101E500070081307000F83A741938964938404F4E7
:101E6000B3D797021305800C5966032446A1856CED
:101E70008145138AB180938AA180232A940123008B
:101E8000DA002380EA00930B4006130B0040138C0A
:101E90000C803385A702EFE06FC203A54193814513
:101EA000232894013355950233057503EFE00FC1E4
:101EB00023286401232A6401930560030545232A2E
:101EC0008401EFF00FC703A5419323288401232841
:101ED000640133559502232A640181453305750356
:101EE000EFE0CFBD832709006384073A0547638C81
:101EF000E73A09476383E73A9305000A0545EFF09F
:101F00004FC39304004004C805691309098044C8FD
:101F1000232A24019305A0030545EFF08FC1232850
:101F2000240104C89545054544C8EFF08FC004C896
:101F300044C8232A24019305200B0545EFF06FBF09
:101F40002328240104C8B145054544C8EFF06FBEFD
:101F5000B1450545EFF0EFBD81450545EFF06FBD9B
:101F6000930530030545EFF0CFBC930530030545DD
:101F7000EFF02FBC04C844C8232A24019305700B3A
:101F80000545EFF00FBB2328240104C89305500337
:101F9000054544C8EFF0EFB904C844C8232A24011A
:101FA0009305B00B0545EFF0CFB82328240104C8F2
:101FB00093057003054544C8EFF0AFB704C844C8A3
:101FC000232A24019305000C0545EFF08FB6232842
:101FD000240104C89305C002054544C8EFF06FB55D
:101FE00004C844C8232A24019305200C0545EFF0BA
:101FF0004FB42328240104C88545054544C8EFF0A3
:102000004FB304C844C8232A24019305300C054566
:10201000EFF02FB22328240104C8C945054544C860
:10202000EFF02FB104C844C8232A24019305400CC3
:102030000545EFF00FB02328240104C893050002E2
:10204000054544C8EFF0EFAE04C844C8232A240174
:102050009305600C0545EFF0CFAD2328240104C89B
:10206000BD45054544C8EFF0CFAC04C844C8232A99
:1020700024019305000D0545EFF0AFAB23282401A3
:1020800004C89305400A054544C8EFF08FAA93059C
:10209000100A0545EFF0EFA904C844C8232A24011B
:1020A0009305000E0545EFF0CFA82328240104C8AE
:1020B0009305000D054544C8EFF0AFA791450545D0
:1020C000EFF02FA7B5450545EFF0AFA6C54505458F
:1020D000EFF02FA6CD450545EFF0AFA59305B00273
:1020E0000545EFF00FA59305F0030545EFF06FA44C
:1020F000930540050545EFF0CFA39305C0040545C2
:10210000EFF02FA3E1450545EFF0AFA2B54505453A
:10211000EFF02FA2AD450545EFF0AFA1FD45054518
:10212000EFF02FA1930530020545EFF08FA004C812
:1021300044C8232A24019305100E0545EFF06F9F34
:102140002328240104C89305000D054544C8EFF079
:102150004F9E91450545EFF0CF9DB1450545EFF008
:102160004F9DC5450545EFF0CF9CCD450545EFF0AA
:102170004F9C9305C0020545EFF0AF9B9305F0031C
:102180000545EFF00F9B930540040545EFF06F9A6E
:10219000930510050545EFF0CF999305F00205452D
:1021A000EFF02F99FD450545EFF0AF98FD4505454A
:1021B000EFF02F98930500020545EFF08F979305F8
:1021C00030020545EFF0EF9604C844C8232A2401E5
:1021D000930510020545EFF0CF952328240104C88C
:1021E00044C804C844C8232A2401C5450545EFF066
:1021F0004F9403A541938967938707F43355F502FC
:102200002328240104C8814544C893174500338519
:10221000A7400E05EFE08F8A04C844C8232A240192
:10222000930590020545EFF0CF9003C60A00834660
:102230000A002328240104C83309D602FD167D169E
:10224000C206420644C8B7070020C18241828145C8
:10225000014503D48766EFF09F8F630909007D195C
:10226000A2850545EFF0AF8EE31B09FEB250225464
:1022700092540259F249624AD24A424BB24B224C22
:10228000924C456182809306000F13077008E1B6F7
:1022900081450545EFF0EF89ADB193050007054590
:1022A000EFF02F89B9B99305000C0545EFF06F8861
:1022B00089B9411122C403C4A18083C6B180130629
:1022C000F4FF42063304D402FD16C20626C2C182C0
:1022D000AA8441828145014506C6EFF05F8719C493
:1022E0007D14A6850545EFF08F867DF8B240224427
:1022F00092444101828083C7A18001114AC8376995
:10230000010022CC26CA4EC6AE842A84B289930527
:1023100049BD3335F5001306F01206CEEF10202923
:1023200003C5B180930549BD1306001333B5A4005E
:10233000EF10E027A6852285A6862286EFF03F8152
:102340006244F240D2444249CE85B2490545056116
:102350006FE0FFFF83C7A18079714AD03769010020
:1023600026D256CA62C4AE8A2A8C930549BD33353B
:10237000F500B2841306001406D64ECE52CC5AC8CD
:102380005EC622D4EF10A02203C5B180930549BDDB
:102390001306101433B5AA00EF106021938704FED2
:1023A00059679207130707CF3389E700920A930B07
:1023B0007C00B38A2A414107C20BC20A93DB0B019E
:1023C000330BF70093DA0A01370A0020B3862A019B
:1023D000C206C1825E86B6856285EFF04FF7214462
:1023E0008344090011A883D581807D141374F40FF0
:1023F000EFE0FFF5858019CC93F714000545E5F76C
:1024000083558A667D1405451374F40FEFE03FF49D
:1024100085807DF00509E31B69FBB250225492547C
:102420000259F249624AD24A424BB24B224C4561B0
:10243000828083C7A180011126CAB764010022CC23
:102440004AC84EC62E89B289938544BD1306F0153D
:102450002A843335F50006CEEF10601503C5B18030
:1024600013060016938544BD3335A900EF102014E0
:102470000386090005C2814485042285CA85C204F9
:10248000D13DC180B387990003860700210442042F
:1024900041807DF2F2406244D2444249B249056132
:1024A000828083C7A180797122D4376401004AD029
:1024B0004ECE52CC32892E8A13064017930544BD66
:1024C000AA893335F50006D626D2EF10400E03C593
:1024D000B18013065017930544BD3335AA00EF10A1
:1024E000000D634A090613060002D2854E859D350C
:1024F0002947B347E902930640061384890093896C
:1025000009024204C2096400418093D90901B3461B
:10251000D902B3E7E7022306D1003369E902A30633
:10252000F1002307210103C60400228521041306BC
:10253000060362064204D28561864180EFF09FE186
:102540008504E39289FEB250225492540259F24912
:10255000624A45618280330920411306D002D28548
:102560004E856209EFF01FDF1359894151B783C7C8
:10257000A180797126D2B764010022D44AD052CC0E
:1025800032892A842E8A3335F500938544BD13069B
:10259000601906D64ECEEF10800103C5B180938539
:1025A00044BD130670193335AA00EF1040002947C7
:1025B000B357E9029306400693098401C2096400F7
:1025C00093D90901B356D902B3F7E7022306D10024
:1025D0003379E902A306F1002307210103C60400B1
:1025E000228521041306060362064204D285618611
:1025F0004180EFF03FD68504E39289FEB250225429
:1026000092540259F249624A4561828083C7A1808F
:10261000797126D2B764010022D44AD04ECE3289D5
:10262000AE891306201B938544BD2A843335F500FB
:1026300006D652CCEF00B07703C5B1801306301B2D
:10264000938544BD33B5A900EF007076634809084F
:1026500013060002CE852285EFF0DFCF9306803E81
:10266000B346D902A9471307400609661306067147
:102670002104420424004180130AD1003347E902B7
:10268000B345F902B3E6F6023346C902A304D1000A
:102690003367F7022304C100B3E6F5022305E10026
:1026A0003369F902A305D1002306210103C6040002
:1026B00022852104130606036206CE856186420444
:1026C0008504EFF03FC94180E3129AFEB2502254D4
:1026D00092540259F249624A45618280330920418D
:1026E0001306D002CE8522854209EFF0BFC61359EA
:1026F0000941ADB783C7A180797126D2B7640100C3
:1027000022D44AD04ECE3289AE891306701D9385ED
:1027100044BD2A843335F50006D652CCEF0030692B
:1027200003C5B180938544BD1306801D33B5A90050
:10273000EF00F0679306803EB356D902A94713070E
:1027400040060966130606712400130AD1003357A8
:10275000E902B355F902B3F6F6023356C902A304EF
:10276000D1003377F7022304C100B3F6F502230545
:10277000E1003379F902A305D1002306210103C644
:10278000040022852104130606036206CE856186B5
:1027900042048504EFF01FBC4180E39244FFB25035
:1027A000225492540259F249624A456182801D7155
:1027B000D6C2938AA18083C70A00D2C4376A0100B7
:1027C000A2CCCAC8DAC05EDE2E892A8493054ABD2F
:1027D0003335F500B28B1306701F86CEA6CACEC65F
:1027E000138BB180B689EF00905C03450B00130694
:1027F000801F93054ABD3335A900EF00505BA94700
:10280000A94463E4370193F4F90F93891400B76581
:10281000010093F9F90F5E86938505C563C00B0A25
:10282000930700021305D1002306F100EF00107991
:1028300005051375F50F637D35013386A4401376C6
:10284000F60F7C000506930500023E95EFD09F9C95
:1028500003C50A001C18BE991306F01593054ABD5E
:102860003335A400238E09FCEF00705403450B00A0
:102870001306001693054ABD3335A900EF00305307
:102880000306C100814405C22285CA858504EFF094
:102890007FACC204C1801C18A6970386C7FD210423
:1028A0004204418075F2F6406644D6444649B64932
:1028B000264A964A064BF25B256182806800EF004B
:1028C000F06F1375F50F85BF1D71DAC0138BA180F2
:1028D00003480B00A6CAB7640100A2CCCAC8D2C480
:1028E000D6C22E8A2A84938544BD333505013289A8
:1028F0001306102286CECEC65EDE62DCBE8B66DAA2
:10290000B689BA8C938AB180EF00704A03C50A0079
:1029100013062022938544BD3335AA00EF003049C9
:102920009947194C63E4770113FCFB0FA94793FB0C
:10293000FC0F63F39701A94B01468146CE854A857A
:10294000EFD09076B76501004A86CE869385C5C4E0
:10295000634D050E1305D100EF0050661307A5FF68
:102960001377F70F93CBFBFFBA9B050C629793FB92
:10297000FB0F1377F70F139C8B01931C8701135CDC
:102980008C4193DC8C41635C0C0233077741620716
:102990006187E687130600021418BE968507E207D2
:1029A000238EC6FCE187E399E7FEB38C7C41330CB0
:1029B0007C41E20C620C93DC8C41135C8C4101463F
:1029C00081464A85CE85EFD0306E634A050A1C18D1
:1029D0003E9C93070002230EFCFC03450B001C18D1
:1029E000938544BDBE9C1306F0153335A400238E99
:1029F0000CFCEF00D03B03C50A00130600169385BC
:102A000044BD3335AA00EF00903A0306C10081446B
:102A100005C22285D2858504EFF0DF93C204C18010
:102A20001C18A6970386C7FD21044204418075F255
:102A3000F6406644D6444649B649264A964A064B6D
:102A4000F25B625CD25C256182806800EF00105707
:102A5000130795FF1377F70F93CBFBFFBA9B050C7A
:102A6000629793FBFB0F1377F70F139C8B01931C5B
:102A70008701135C8C4193DC8C41E3480CF01C18FB
:102A80003E9C9307D002230EFCFC81BF03C3A180B0
:102A9000397152D4376A010022DC4ED662CCAE893D
:102AA0002A8493054ABD33356500328C130680278E
:102AB00006DE26DA4AD85AD05ECE428B66CAB68483
:102AC000BE8C56D26AC86EC6BA8B4689EF00302ECD
:102AD00003C5B1801306902793054ABD33B5A900FD
:102AE000EF00F02C9306FBFF1386FCFFCE96229698
:102AF000C2064206C1824182CE852285EFF02F8533
:102B000063060B04C169814A014AFD1933D46A0383
:102B1000638A0C02814D014D338484026294630602
:102B2000090433D79D03CE850545229783470700C7
:102B300063F4270181450545050DEFE05F81A69D02
:102B4000E3119DFF050ADE9AE3126AFDF25062541A
:102B5000D2544259B259225A925A025BF24B624CF9
:102B6000D24C424DB24D21618280B3D79D03050DF9
:102B70000545A69DA29703C7070093553700098313
:102B80009397B50016075D8FD98DEFE04FFCE31EDC
:102B90009DFD4DBF797152CC56CA5AC85EC6930A84
:102BA000F5FF930BE5FF130A1500130B2500C20B6D
:102BB000C20A420A420B26D24AD04ECE06D622D4B0
:102BC00062C466C26AC02A89AE89B284814793DB37
:102BD0000B0193DA0A01135A0A01135B0B010DA0D2
:102BE0008D47638DF4089547638BF4140504420404
:102BF00041809317040113077008C1876302E4063C
:102C00001394070105474180E39CE4FC03C5A180C0
:102C1000376C010093054CBD3335A9001306F01243
:102C2000EF00F01803C5B18093054CBD13060013E7
:102C30003335A400EF00B017A286A2854A864A85E4
:102C4000EFE0FFF00504CE8505454204EFE02FF0EC
:102C500041809317040113077008C187E312E4FA57
:102C6000B250225492540259F249624AD24A424B1B
:102C7000B24B224C924C024D45618280138DA18053
:102C800003450D00376C010093054CBD33B5AA0018
:102C90001306F012EF00B011938CB18003C50C0045
:102CA00093054CBD130600133335A400EF0030101C
:102CB000A2865686A2855685EFE07FE9CE8505453A
:102CC000EFE0EFE803450D0093054CBD1306F0124D
:102CD0003335A900EF00B00D03C50C0093054CBDC2
:102CE000130600133335A400EF00700CA2864A8649
:102CF000A2854A85EFE0BFE5CE850545EFE02FE5EB
:102D000003450D0093054CBD1306F0123335AA00A0
:102D1000EF00F00903C50C0093054CBD130600132A
:102D20003335A400EF00B008A2855285A2865286F2
:102D3000EFE0FFE1CE850545EFE06FE145BD138D86
:102D4000A18003450D00376C010093054CBD33B5E0
:102D5000AB001306F012EF009005938CB18003C511
:102D60000C0093054CBD130600133335A400EF008F
:102D70001004A2865E86A2855E85EFE05FDDCE85CB
:102D80000545EFE0CFDC03450D0093054CBD130670
:102D9000F01233B5AA00EF00900103C50C009305B3
:102DA0004CBD130600133335A400EF005000A2867B
:102DB0005686A2855685EFE09FD9CE850545EFE082
:102DC0000FD903450D0093054CBD1306F0123335A2
:102DD000A900EF00C07D03C50C0093054CBD130690
:102DE00000133335A400EF00807CA2864A86A285BA
:102DF0004A85EFE0DFD5CE850545EFE04FD50345A9
:102E00000D0093054CBD1306F0123335AA00EF00F8
:102E1000007A03C50C0093054CBD1306001333352F
:102E2000A400EF00C078A2865286A2855285EFE00A
:102E30001FD2CE850545EFE08FD103450D009305E8
:102E40004CBD1306F0123335AB00EF00407603C5DE
:102E50000C0093054CBD130600133335A400EF009E
:102E60000075A2855A85A2865A86EFE05FCECE8590
:102E70000545EFE0CFCD9DBB03C3A180397152D48E
:102E8000376A010022DC4ED666CAAE892A849305D1
:102E90004ABD33356500B28C1306403606DE26DAAD
:102EA0004AD85AD05ECE428B6AC8B6843E8D56D27E
:102EB00062CC6EC6BA8B4689DD2D03C5B180130680
:102EC000503693054ABD33B5A900D5259306FBFFBF
:102ED0001306FDFFCE962296C2064206C1824182AB
:102EE000CE852285EFE0BFC6630A0B04C169814A23
:102EF000014AFD1933D46A03630E0D029307801C47
:102F0000014C814D3304F40266946308090433577D
:102F1000AC03CE8505450A072297184303470700EF
:102F20006374270181450545850DEFE04FC2269C5E
:102F3000E39FADFD050ADE9AE31E6AFBF250625480
:102F4000D2544259B259225A925A025BF24B624C05
:102F5000D24C424DB24D21618280B357AC03850DF6
:102F60000545269C8A07A2979C4303C707009355F3
:102F7000370009839397B50016075D8FD98DEFE071
:102F80000FBDE39CADFD7DB7397122DC26DA4ED64C
:102F900056D25AD093070008B70900207D7B896478
:102FA0004AD852D45ECE62CC06DE2315F100938956
:102FB0000900014A1384C191130B5B1A930B00089B
:102FC000938404F4938A8191254C83D70900114698
:102FD0006C0013978700A183D98F11452317F10047
:102FE00023166101EFE04FF62315710183470400BA
:102FF00093F7F70F91CF0DA803A541938145335562
:103000009502EFD0AFAB8347040093F7F70F89EF3A
:103010008357A1001387F7FF42074187C207C18783
:103020002315E100E34AF0FC8357A100C207C187E2
:103030006355F00283C71A0003C72A00050AA207D6
:10304000D98F420A2391F90023000400135A0A0180
:103050009109E31C8AF7014521A0E31D0AFC0545FF
:10306000F2506254D2544259B259225A925A025BD7
:10307000F24B624C21618280411122C41384B191D0
:103080008345040026C293848191A695114506C606
:10309000EFE0AFF38347040011C5850793F7F70FFF
:1030A0002300F4000547638EE7008D466396D70042
:1030B00023000400238EE190B24022449244410157
:1030C000828003C704009307500AE307F7FE23003A
:1030D0000400B24022449244410182800547238A81
:1030E000E190828039710D4506DE22DC4ED626DA6B
:1030F0004AD852D456D28969412413060005930652
:103100001005938509581145EFE08FEE854511456F
:10311000EFE08FE60145EF0050521384C191230088
:103120000400EFF07FE61306E0146312051A230093
:10313000040093070008B7040020231DF1009384C6
:10314000440223000400938A8402130A50FA9389EC
:1031500009F483D7240083D604006C0813978700F2
:10316000A183D98F11451146230E4101A30ED10031
:10317000231FF100EFE04FDD03A54193910481454A
:10318000335535030605EFD06F93E3949AFC8347DC
:10319000040093F7F70FA9EB8357A1011387F7FFFB
:1031A00042074187C207C187231DE100635EF00229
:1031B0008964938404F429A88357A1011387F7FF36
:1031C00042074187C207C187231DE100635EF0000B
:1031D00003A54193814533559502EFD02F8E834748
:1031E000040093F7F70FE9DB9384819103C7140080
:1031F00083C7240093060008231DD100F98F230004
:1032000004001307F00F638EE7048357A1011387AF
:10321000F7FF42074187C207C187231DE1006352C0
:10322000F0048969938909F4130AF00F29A88357D8
:10323000A1011387F7FF42074187C207C187231DFA
:10324000E1006350F00203A54193814533553503F6
:10325000EFD0CF8683C7140003C72400F98FE3980B
:1032600047FD8357A101C207C1876350F0062300C1
:103270000400EFF07FD12A8425EDEF00903C9147C8
:103280003EC495473EC299473EC09306900413063C
:103290008004A945254593089002130880029307EE
:1032A00060021307B004EFD00F84371500201966B1
:1032B0001307C59485461306068281451305C594F8
:1032C00023A8E190EFD0EF8E11A813065015B76533
:1032D0000100938545C50145D92C05442285F2504E
:1032E0006254D2544259B259225A925A2161828070
:1032F0001306D015E9BF411122C4138441928345BE
:10330000040026C293840192A695114506C6EFE0FB
:10331000CFCB8347040011C5850793F7F70F230030
:10332000F4000547638EE7008D466396D7002300BF
:103330000400A381E192B240224492444101828080
:1033400003C704009307500AE307F7FE23000400B5
:10335000B240224492444101828083A60191B70782
:10336000055094C78546A38ED19003C70700136705
:1033700017002380E700828023A4A192828041115C
:1033800022C493850193154506C6EFE00FC49385CB
:1033900001932244B2403765002005461305C51647
:1033A000410151A423AAA192B71702409843B7063E
:1033B000FFF841111367170098C3D843371802402C
:1033C000B7050200758FD8C39843B706F7FEFD1600
:1033D000758F98C39843B706FCFFFD16758F98C389
:1033E000D843B70681FFFD16758FD8C337079F00F6
:1033F00098C702C402C69843C16613060050558F91
:1034000098C321A0A247638BC70083270800ED8FD4
:103410003EC6A24785073EC4B247EDD7B717024064
:103420009C431397E7006359070085473EC6324720
:1034300085476308F70001A002C632478547E31CB1
:10344000F7FE37366E011307F5FF13060660335794
:10345000C702B72602408C42B717024093E5050128
:103460008CC203A80600B7157A009385052013784F
:10347000C8FF23A0060103A806001D8B33670701C0
:1034800098C2D843D8C3D843D8C3D843D8C363015C
:10349000B50AD843B706C1FFFD16758FD8C33747A5
:1034A0009508130707406302E5043717270713073A
:1034B00007E06300E50A37E7B805130707806306EE
:1034C000E50A37A74A0413070720630AE508377798
:1034D000DC02130707C06300E50A631CC500D8437C
:1034E000B7060500558FD8C329A0D843C166558FAC
:1034F000D8C3B7160240984237060001B7170240FA
:10350000518F98C2984393166700E3DD06FED043BF
:10351000B71602402147719AD0C3D04313662600E4
:10352000D0C3DC42B18BE39EE7FE41016F009010F7
:10353000D043B71602401147719AD0C3D0431366E7
:103540001600D0C3DC42B18BE39EE7FE41016F0061
:10355000700ED843B7063900558FD8C359BFD8432A
:10356000B7061D00558FD8C369B7D843B7062900E1
:10357000558FD8C3BDBFD843B7061100558FD8C3E8
:103580008DBFF16541119306100613060006938561
:103590000520154506C6EFE0AFA585451545EFE0CA
:1035A000AF9DB2400547238CE1924101828019E929
:1035B00083C78193411106C699E7EF009008010087
:1035C0000100F5BF828037650100130505CDEFF0DE
:1035D000B058EF001007E5B701114EC606CE22CC59
:1035E00026CA4AC8B2896358C002D96703A407BC77
:1035F000AE843389C500930500042285EF90302600
:103600007DD985048385F4FF2285C205C181EF90B1
:103610007024E39224FFF24062444E85D244424932
:10362000B249056182805C45637AF60A011126CAB7
:10363000AA8422CC4AC84EC652C456C206CE2E8A8E
:103640003289EF00100083AA0401C0408840B3898A
:103650008A4063F629074E86D2852295EFF0002531
:10366000D84094484E97D8C06366D700158FE37F43
:10367000D7FED8C088404A94330454413A952286F4
:10368000B3053A01EFF08022DC409848A297DCC0F5
:1036900063E6E700998FE3FFE7FEDCC0D044014515
:1036A0003309264123A62401492FF2406244D24423
:1036B0004249B249224A924A0145056182804A86BE
:1036C000D2852295EFF0801EDC409848CA97DCC076
:1036D000E3E6E7FC998FE3FFE7FEC1B70945828087
:1036E00001114AC85C45032905014EC6B289104242
:1036F00022CC26CA5AC006CE52C456C2B307F940DD
:103700002A842E87368B814463F8C70023A0F900F2
:10371000032905013E868544032A8400B30A4941F2
:1037200063E7CA0211C70C403A85D295EFF0001842
:1037300063010B04F2406244330590404249D24495
:10374000B249224A924A024B0D89056182806DD3AB
:103750000C4056863A85D295EFF0401503A6090035
:103760000C405695529633062641EFF02014E31391
:103770000BFCC12D83A7090014441848B6971CC43C
:1037800063E6E700998FE3FFE7FE1CC45C4403A7F0
:1037900009000145BA975CC44D2569BF01112AC6CD
:1037A000B247116713070765B387E7023ECEF247BA
:1037B0001387F7FF3ACEE5FF0561828035713AC97C
:1037C00086DEA2DCA6DACAD8CED6D2D4D6D2DAD059
:1037D000DECEE2CCE6CAEAC8EEC632C536C73ECB7C
:1037E00042CD46CF8387050038013ACCB5C3376751
:1037F0000100130DC101D964054AAE8A2A84032948
:10380000074383294743814C930D50029384042E30
:10381000330AAA4119A862872300F400568C0504D4
:10382000850CBA8A83071C008DC7138C1A00E39499
:10383000B7FF83871A0013073005890A9387B7FDFE
:1038400093F7F70FE360F7FE8A07A6979C438287FA
:10385000814CF65066546685D6544659B659265A58
:10386000965A065BF64B664CD64C464DB64D0D61EE
:103870008280E247984391073ECC83070700DDD35F
:10388000B3868C402300F400050783070700050476
:10389000B30CD400E5FB79B76247EA8625481C43A0
:1038A00011073ACC3D4519A08506BA8713F7F700F2
:1038B0009375F70F138605036374E8001386750389
:1038C0002380C60013D74700E360F5FE03083102EA
:1038D0008348C101830521020345D10183061102FA
:1038E0000346E101830701020347F10123000401BC
:1038F000A300B4002301D400A301F4002302E400D8
:10390000A302C4002303A400A3031401A301110311
:10391000230E01012301A102A30EB100A300C102E5
:10392000230FD1002300E102A30FF1002104A10C19
:10393000D5BDE2471D46984391073ECC937777006B
:1039400093870703230EF10093563700637EE64208
:103950006A879D4511A0B286050713F67600130607
:103960000603B307A74185072300C70093F7F70FA6
:1039700013D63600E3E1D5FE93D517003E8B95C1F3
:103980001387F7FF6A97EA87EA950386070083069D
:10399000070085072300C700A38FD7FE7D17E39696
:1039A000F5FE22855A86EA85EFE050705A94DA9C3B
:1039B00095BD6247A9460328070011073ACC135763
:1039C000F841B3470701998F33E7D702B3C7D7024E
:1039D00013070703230EE100638A073C85456A86C7
:1039E000294511A0BA85B3E6A7020506138715007D
:1039F0001377F70FB3C7A702938606032300D600F9
:103A0000F5F3634908283A8B93551700D9D9130762
:103A1000FBFF6A97EA87EA9503860700830607009B
:103A200085072300C700A38FD7FE7D17E396F5FE19
:103A300022855A86EA85EFE070675A94DA9CDDB3F6
:103A4000E2470504850C984391073ECCA30FE4FEA2
:103A5000D1BBE2466A8725489C42910636CC3D455B
:103A600019A00507B68793F6F70013F6F60F93052E
:103A700006036374D80093057603330647012300D9
:103A8000B70093D64700137BF60FE36CF5FC935514
:103A90001B0081D91307FBFF6A97EA87EA95038623
:103AA00007008306070085072300C700A38FD7FE02
:103AB0007D17E396F5FE22855A86EA85EFE0105FD2
:103AC0005A94DA9C85B3E2479D07E19B03AB07005C
:103AD00083AB4700A1075A85DE853ECCEFD0902707
:103AE0001357F541B347A700998FA94633E7D7028B
:103AF0002A88B3C7D70213070703230EE1006381A7
:103B0000072C85486A86A94511A0BA88B3E6B70292
:103B10000506138718001377F70FB3C7B70293860C
:103B200006032300D600F5F3014681465A85DE855B
:103B300046C63AC442C2EFC0305712482247B24884
:103B400063460516BA889355170095C11387F8FF89
:103B50006A97EA87EA9503860700830607008507C8
:103B60002300C700A38FD7FE7D17E396F5FE468698
:103B7000EA85228546C242C4EFE05053224842857E
:103B8000EFD0D0232A86AE865A85DE85EFD0A028D6
:103B90004A86CE86EFC0B05C9248014681462A8BA9
:103BA000AE8B4694C69CEFC0B03E631D0510B73780
:103BB0003030938707033ECE8D679387070323102A
:103BC000F1029307E0022301F10299450D451D4BD7
:103BD000EA95AE876A870306070083860700FD170C
:103BE0000507A380C700A30FD7FEB386F540E3E423
:103BF000A6FE5A86EA852285EFE0504BDA9C1DB17D
:103C0000E24729472546944391073ECCB3F7E602A5
:103C100093870703230EF10033D7E6026376D616A7
:103C2000EA86A945254511A032873376B702850675
:103C3000B387A641850793F7F70F13060603238082
:103C4000C6003356B702E361E5FE93D517003E8BFD
:103C5000E38905D41387F7FF6A97EA87EA95038615
:103C600007008306070085072300C700A38FD7FE40
:103C70007D17E396F5FE22855A86EA85EFE010432C
:103C80005A94DA9C45B6930750022300F400850C41
:103C9000050449BE89059C003E9713FBF50F930769
:103CA000D00293551B00230EF7FC8DB39C008908AE
:103CB0003E9793F8F80F9307D00293D51800230E80
:103CC000F7FC61B55A85DE85EFD0D0081357F54172
:103CD000B347A700998FA94633E7D702B3C7D702E6
:103CE00013070703230EE100638E070E8546EA855E
:103CF000294511A0BA8633E6A70285051387160069
:103D00001377F70FB3C7A702130606032380C50076
:103D1000F5F3954763ECE7069C003E979305000397
:103D200093872600230EB7FC93F7F70F1946E38A13
:103D3000C7E898003E9793873600230EB7FC93F7A9
:103D4000F70FE380C7E894001306000313871700FA
:103D5000BE96238EC6FC1377F70F9945E303B7E6AB
:103D60009400369793862700230EC7FC13F7F60FAF
:103D7000E309B7E494003697230EC7FC0947E392A2
:103D8000E7E4A300C10235BD054B21B99C008906BB
:103D90003E9713FBF60F9307E002230EF7FC135533
:103DA0001B00E30805E49305FBFF1DB5054BE35A33
:103DB00008BE9307D002A30EF1008545094B81B9D7
:103DC0002AC2014681465A85DE85EFC0F02D124891
:103DD0008548E35E05D89307D002A30EF100854520
:103DE0008948ADB393070003A30EF100230FF10040
:103DF0008D4791BF935755000547938707043315A7
:103E0000A7008A0737E700E0BA9788C382809357F4
:103E100055000547938707063315A7008A0737E73C
:103E200000E0BA9788C38280B7E700E03E952300A0
:103E3000B540828005456F80D00F11C182806FC070
:103E40008FBC411106C6EFC0AFBBB24041016F90BD
:103E50007025B765002099689385051C930E400571
:103E600011689388383613086864239515012386F2
:103E7000D501238CD501B775002037670020239C1E
:103E800005E713078725B7620100239E0193930579
:103E900000002322B70E83A5824313066004130E8D
:103EA00020050543B76F01002310C7002300C70F8B
:103EB00023220700231F670C232CB70C03A7CF4333
:103EC000B767002093870718376500201305C51FC3
:103ED0002380C7002386C70323A207002396070079
:103EE0002397670298D7A947376F01005CC1B7775E
:103EF0000020238EC7E283270F44B76600209386F5
:103F0000C6232300C500A380C60023A206009CCEC2
:103F1000828039716ACA376D0020130D0D1C83260B
:103F20000D028325CD0183278D0203274D020396C1
:103F3000019A839E219A130860046EC823060D011E
:103F40002328DD021308F00FB76D002085662314C7
:103F50000D012326BD02232CFD0222DE26DC4ADAD7
:103F60004ED852D656D45AD25ED062CE66CC2320DA
:103F70000D0023220D00232AED02232E0D00232005
:103F80000D02137FF60F8147014E93086004938D55
:103F9000CD349386469C13085002130360049305A6
:103FA00040063387D7006E970307070085076344F1
:103FB000E800638B6812E396B7FEA306ED01239138
:103FC000F19463040E0023061D01B2876353D601EA
:103FD000F687377700201307C7EB8346270093F750
:103FE000F70F3AC636C4A305FD002305FD0081E6A0
:103FF00083477700F9CB83A9018413091007B76FB2
:104000000020930720078D6B377B0020B70A004004
:1040100033093941938F0F54B302A040138CCD2B39
:10402000014481443EC2014A8143894C938B6BC158
:10403000130B4BED0548938AEAF803970F0063537F
:1040400037014E8783958F3E6353B900CA85B30607
:104050005040635BB712B3077401BA978A07DA97C7
:104060003697B3855540014E0145938E2200944307
:10407000D04383C6060003460600638DC606630967
:10408000050D05079107E314B7FE6399930B6317BA
:104090007A0A8327CD0103270D02D98F9DE7A24716
:1040A00089E7B24783C777008DC303972D6A83974B
:1040B000AD2B930630062917D907232EDD002320C8
:1040C000DD022322ED022324FD027254E2545259F0
:1040D000C259325AA25A125B825B724CE24C524D68
:1040E000C24D054521618280054E93084005E39A43
:1040F000B7EAE1B503A3870083A8C700338FEE00BA
:104100000343030083C80800E39B68F6A9CA638BD6
:10411000160521CD9247094563D2F4027D1E9357BF
:10412000FE010247F2978587BA97232E9D0023222E
:10413000FD0223209D022324FD0226C2890F85044F
:104140009382E2F856941E8AE305FCF5AA83F5B53E
:1041500081E6050E054535B7E395C6F265BFE31266
:1041600005F3C5BFE31F05F175B78346070091EA64
:104170008346170099E68346270081E68346370089
:1041800089D27AC00545F5BD0145E39993FB01B796
:104190003787012013074791B7770020938747E8B7
:1041A000232C071A2326071A2328071A130760044B
:1041B0002384E70013070000D8C398C30947D8C772
:1041C0000D4798CB116713076764239AE70013071D
:1041D00060F9238BE70005458280411106C6EF4058
:1041E000807FB777002083C797EC99EBEF50102BB7
:1041F000EF40403DEF40F025B24041016F401004D8
:10420000EF601009EF40003CEF40B024B2404101A4
:104210006F40D00279714AD00399C1A352CC4A852C
:1042200003DAC18006D622D426D24ECE56CA5AC848
:1042300062C666C483DAE180EFE04025AA8903A55F
:10424000C195B7640100EFD06037B767010003A6DE
:10425000074E83A6474EEFC080702A8C03A50196B7
:10426000AE8CEFD0A035B767010003A6874E83A6BA
:10427000C74EEFC0C06E2A86AE866285E685EFB077
:10428000F0022A8C03A54196AE8CEFD02033B7679D
:10429000010003A6074F83A6474FEFC0406C2A8654
:1042A000AE866285E685EFB07000EFD0A02A935706
:1042B000F5413D8D1D8DEFD06030B767010003A63D
:1042C000874F83A6C74FEFB0707103A6045083A633
:1042D0004450EFC0C068EFD0E0270397219A83973E
:1042E000019A2A8463D3E700BA87130540061D8D1F
:1042F000EFD0C02CB767010003A6875083A6C75034
:10430000EFB0D06D03A6045083A64450EFC02065E3
:10431000EFD04024B767010083A5074DAA844E85DE
:10432000EFD08067B767010083A5474DEFD0D02855
:10433000EFE0400AA68763D3A400AA8722856353CF
:10434000F4003E8503D42181B7770020938747E8A6
:10435000098C4204944B4184239881800D476385E6
:10436000E60283C7419C89C7239401942395019455
:10437000B250225492540259F249624AD24A424BF4
:10438000324CA24C4561828003C7870093076004CA
:10439000E319F7FC930770F0635AF90823948194AA
:1043A0004E85EFE0E027B767010003A6075183A61B
:1043B0004751EFC0C05AB767010003A6875183A6D3
:1043C000C751EFB0B061EFA0602A2A895285AE894B
:1043D000EFE02018B767010083A5874DEFD0C05BE1
:1043E000EFE000244A86CE86EFC06057B767010031
:1043F00003A6075283A64752EFB0505EB76701008D
:1044000003A6875283A6C752EFB0406A2A89228545
:10441000AE89EFD0A01A2A86AE864A85CE85EFC037
:104420000054EFD020132395A19425BF9307A00F2C
:1044300063DC27094E85EFE0A01EB767010003A6E5
:10444000075183A64751EFC08051B767010003A60B
:10445000875183A6C751EFB07058EFA020212A8959
:104460005685AE89EFE0E00EB767010083A5874D62
:10447000EFD08052EFE0C01A4A86CE86EFC0204EC1
:10448000B767010003A6075283A64752EFB0105545
:10449000B76701002A86AE8603A5875283A5C75257
:1044A000EFC070172A892285AE89EFD020112A86A5
:1044B000AE864A85CE85EFC0804AEFD0A00923940E
:1044C000A1942395819471BD239481942395819423
:1044D00049BD411106C622C426C2EF90B01AB77773
:1044E0000020938747E8984B0DCB83C7870093063E
:1044F00060046389D702130740056385E70A0397C1
:10450000E1940395019522442390E1A4B2409244A2
:104510002391A1A441016F907059B240224492446A
:10452000410182809377D7FF8546638CD7009147FE
:104530006309F700239701942398019401450147EB
:10454000D9B7B797012003A5C7F4B7040020EFD06F
:1045500070680396819493160501B7950120C18672
:10456000938505E91385C441EF70007AB797012060
:104570001384E1942310A40003A5C7F5EFD0906540
:104580000396A19493160501B7950120C1869385E2
:1045900085EB1385C441EF7020772398A19403170E
:1045A000040095B7B797012003A5C7F41384E194DD
:1045B000EFD0506293160501B79501203705002012
:1045C000C1860146938505E91305C53AEF70C073AE
:1045D000B79701202310A40003A5C7F5EFD0905F83
:1045E00093160501B795012037050020C1860146C5
:1045F000938585EB1305053CEF70007103170400EC
:104600002398A19409B7938781959843411106C6D1
:1046100022C426C24AC0634407007D1798C313848E
:10462000219583570400B7740020376701009384F5
:1046300044E888408325075385072310F400EFC022
:10464000107F88C0EF90A04C83C7D1999DE78397D6
:1046500021812394F1942395F194EFF0BFBBEFF007
:104660005FE7031704009307703E63C3E706B24099
:10467000224492440249410182809C480947FD1727
:10468000636FF70283C68400930760046399F602A0
:10469000DC44638DE70405476393E7020395619467
:1046A000130735014207239EA1A2418393066002AE
:1046B00063F9E600EF90905EA38E019849BF2393C3
:1046C0000194239E01A2EF90705DA38E019841B7E3
:1046D0001305C002EFB07FF5B2402310040022445E
:1046E0002392019492440249410182808396C195AC
:1046F000B79501203705002001469385C5E31305D2
:10470000453DEF7020722393A19459BF8280397187
:104710005AD003A781A106DE22DC26DA4AD84ED67B
:1047200052D456D25ECE62CC66CA6AC86EC685477F
:104730006309F71237740020D96C596CD96B1304D4
:1047400044E893044005B76A0100376D0100B76D76
:104750000100A1A81386CA47814513050008EFD0C0
:104760005FCD1C480D47638FE70805476387E71255
:104770000947638EE7126388071083475401638EED
:1047800097081386CA47894513050008EFD07FCAEA
:1047900083A701A20547638EE7082945EFF00F8044
:1047A00003A781A18547630EF70A89451385C19444
:1047B000EF00100F9307008013864C44814541455C
:1047C0002394F180EFD0FFC613068C458545414503
:1047D000EFD03FC613868B4689454145EFD07FC554
:1047E000834744017D472394E180E39597F61306C0
:1047F0008D47814513050008EFD0BFC31C480D4706
:10480000E395E7F613860D48854513050008EFD0BC
:104810005FC283475401E39697F613068D47894597
:1048200013050008EFD0FFC083A701A20547E39658
:10483000E7F603C7C19423A001A2630BF70851C395
:104840008947E31CF7F40946930500081305540152
:1048500009292945EFE09FF403A781A18547E316C5
:10486000F7F4F250625423AC01A0D2544259B25929
:10487000225A925A025BF24B624CD24C424DB24DDC
:10488000054521618280B76701001386074A854587
:1048900013050008EFD0FFB9CDB5B7670100138647
:1048A0008748854513050008EFD0BFB8F9B5B7674D
:1048B000010013864749854513050008EFD07FB7EF
:1048C0006DBD01469305000813054401592EF1B54D
:1048D000D96705479306000811469385874A130553
:1048E0000401852D5DBD397122DC4AD85AD006DE1F
:1048F00026DA4ED652D456D25ECE62CC66CA6AC88A
:104900006EC6130730062E842A8B32899307300631
:104910006363B700AE87930530069D8DC20593078C
:104920001007C1815A8563F4670113051007930DC1
:10493000FBFF130CABFF931B1B0042054A86418112
:10494000C20D420CC20BB30C6441EFD0DF9A93DD71
:104950000D01135C0C0193DB0B01229B930A1007E2
:10496000130A30069309300633849D01931704011E
:104970004A86C1836E8D63F4BA01130D1007420D90
:10498000135D0D016A856374FA00130430063384E5
:10499000894042044180A285EFD0FF95B384BB419A
:1049A00093970401C1834A86A28563F4FA009304B5
:1049B0001007C204C1802685EFD0FF933304BB41AA
:1049C00093170401C1834A866A856374FA0013044D
:1049D00030063384894042044180A285FD1DEFD01A
:1049E0009F91C20D4A86A285268593DD0D01EFD0E9
:1049F0009F90E31BBCF7F2506254D2544259B25913
:104A0000225A925A025BF24B624CD24C424DB24D4A
:104A10002161828083A641A1411126C206C622C41B
:104A20004AC00547AA8403440500638EE60C83A6AA
:104A3000C1A205476384E60A03A981A285476305ED
:104A4000F90483A6C1A16381F606FD472380840093
:104A50002394F180931504019D47C18163F8870673
:104A6000E11537660100C2051306C679C18101450B
:104A7000EFD03F9CB2402244930700802394F18002
:104A800092440249410182804165011523A401A29B
:104A9000EFD03F821D469D451305000DEFD07FA04E
:104AA00083A7C1A1639B27094165011523AE01A01E
:104AB000EFD03F809D4501461305000DEFD07F9E4E
:104AC00023800400FD472394F1808145376601006F
:104AD0001306C6790145EFD0DF9569BF23A601A271
:104AE00031C87D141374F40F1319840113598941CB
:104AF00041650115EFD0EFFB4A869D451305000D7A
:104B0000EFD03F9A15BF23AA01A09D476306F40486
:104B100005041374F40F1319840113598941416575
:104B20000115EFD00FF94A869D451305000DEFD012
:104B30005F97F5BD1D491D4465BF9D473766010060
:104B40002380F400FD479D451306C6790145239453
:104B5000F180EFD01F8E39BF01490144C9B75D71A3
:104B60006AD003A701A2A2C4A6C2031405002AC6E4
:104B70001305F08186C6CAC04EDE52DC56DA5AD81A
:104B80005ED662D466D26ECE85472394A18063033D
:104B9000F706939B060193DB0B01139C2B005E9C95
:104BA000060CB30C8041C20C420C2E89B289135CF6
:104BB0000C0193DC0C01854403A6C1A1CE854A8576
:104BC00083A681A203A7C1A283A741A1630396067E
:104BD000638B9604631797005E944204418423A676
:104BE00001A22286638F9704EFD05FA283A701A260
:104BF000E39497FC930700802394F180B24723A0AD
:104C000001A2B64023908700264496440649F259F3
:104C1000625AD25A425BB25B225C925C025DF24DF8
:104C200005456161828066944204418423A401A207
:104C300055B76294420423AE01A04184E39C96F8E8
:104C4000DDB733047441420441842286CE854A850F
:104C500023AA01A0EFD09F9B83A701A2E39E97F414
:104C600051BF5D716AD086C6A2C4A6C2CAC04EDE5C
:104C700052DC56DA5AD85ED662D466D26ECE03A71C
:104C800001A2834C05002AC69306F0818547239430
:104C9000D1806307F7082E8AB28A0544376C010079
:104CA000130B4005B76B010003A6C1A183A781A226
:104CB00003A7C1A283A641A16306860C638B870864
:104CC000630E870E6393861023AA01A0638E6C0384
:104CD00013068C47D6855285EFD0AFF583A701A286
:104CE000638F870803A6C1A183A781A203A7C1A2DE
:104CF00083A641A1630B860A638C8708630187063C
:104D0000E39886FC23AA01A0930C60041386CB478A
:104D1000D6855285EFD0EFF183A701A2E39687F8FD
:104D2000930700802394F180B24723A001A2054598
:104D300023809701B640264496440649F259625AA8
:104D4000D25A425BB25B225C925C025DF24D6161C1
:104D5000828023A401A2638F6C036311870423A6BE
:104D600001A2E39386FA13068C47D685528523AABF
:104D700001A0EFD00FEC83A701A2E39587F6930C77
:104D8000400579BF23AE01A063836C03E39787FCE2
:104D900023A401A2E31787FC23A601A2E39A86F2CB
:104DA00023AA01A0930C600495B723AE01A0E3935E
:104DB00087FE23A401A2E31387FE55B723A601A211
:104DC000E3816CFBE39686F0E1BFE3916CF509B7F4
:104DD0005D716AD066D286C6A2C4A6C2CAC04EDEC3
:104DE00052DC56DA5AD85ED662D46ECE03A701A240
:104DF000834D05002AC61305F08185472394A180C1
:104E0000630AF70A2E8AB28A0544930BC004377BE3
:104E100001001DA06385850E6388870E63038710DC
:104E200063807D0513068BB6D6855285EFD06FE083
:104E300083A701A26380870803A6C1A183A581A2DD
:104E400083A7C1A203A741A1E31686FC23AE01A05C
:104E500063827D0F638E850263878708630E870AEE
:104E6000B7770100138607B6D6855285EFD06FDC81
:104E700083A701A2638C870C03A6C1A183A681A28C
:104E800083A7C1A203A741A1630B860AE39686FC10
:104E900023A401A2638987046300870813068BB6E5
:104EA000D6855285EFD0EFD883A701A2930D2005B8
:104EB000E39487F8930700802394F180B24723A0FE
:104EC00001A205452380B701B64026449644064911
:104ED000F259625AD25A425BB25B225C925C025D2A
:104EE000F24D6161828023A601A263058700930DC4
:104EF00040050DBF23AA01A0930D600425B723A48C
:104F000001A2E39B7DF579B723A601A29307400593
:104F1000E39DFDFCE31287FE23AA01A0930D40054B
:104F200011B723AA01A093074005E387FDFC930D69
:104F30004005CDBDE39085F623A401A231BF23AE89
:104F400001A0E39986F423A401A239B7930DC0040C
:104F500095B7397162CC5AD05ECE06DE22DC26DAF5
:104F60004AD84ED652D456D266CA6AC803A801A2FD
:104F7000834405002A8B1305F08185472394A18083
:104F80006308F80C2E84B289368ABA8A854C03A746
:104F9000C1A283A741A125436303970F639797019C
:104FA000FD1423AA01A093F4F40F93972400A6976D
:104FB000860763FC340D9388170013882700138538
:104FC0003700938547001386570093866700138741
:104FD0007700138E870013839700A297229822955B
:104FE000A2952296A2962297229E2293A29883CEE1
:104FF0000700034F0800834F050083C20500834369
:10500000060003C80600834703008346070083C8E1
:10501000080003470E005000D6855285A306F10014
:105020002302D101A30211012303E101A303F10132
:1050300023045100A304710023050101A305D1003D
:105040002306E100EFD0EFBE83A701A2E39197F51D
:105050009307008023A001A22394F18023009B00EA
:10506000F2506254D2544259B259225A925A025BB7
:10507000F24B624CD24C424D054521618280850441
:1050800023A601A293F4F40F11BF214E1D479946A8
:10509000154691450D45094885488147814435BFEE
:1050A00083A641A1011126CA4AC806CE22CC4EC60B
:1050B0000547AA842E89034405006382E60E83A671
:1050C000C1A205476386E60883A681A205476388D7
:1050D000E60A83A6C1A105476382E604FD47238053
:1050E00084002394F180931504019D47C18163F9E5
:1050F0008704E11537660100C2051306C679C18130
:105100000145EFD00FB3F24062449307008023942F
:10511000F180D2444249B24905618280416501155E
:1051200023AE01A0EFD0EF989D4501461305000D79
:10513000EFD02FB723800400FD472394F1808145F1
:10514000376601001306C6790145EFD08FAE65BF03
:1051500023A601A23DC87D141374F40F4165011507
:10516000EFD02F951316840161869D451305000D20
:10517000EFD02FB383A681A20547E39CE6F44165F7
:10518000011523A401A2EFD0CF92131689016186E5
:105190009D451305000DEFD0CFB04A841DBF23AA53
:1051A00001A06306B40205041374F40F931984017B
:1051B00093D9894141650115EFD0AF8F4E869D454A
:1051C0001305000DEFD0EFADDDBD4A8441BF81492D
:1051D0000144CDB7411126C2C16422C44AC006C6EB
:1051E0000144938494E113092007420441802285FD
:1051F00026869305F0040504EFD0EF8F9317040182
:10520000C183139407014184E39127FFC1640144E2
:10521000938494E113092007420441802285268665
:105220009305B0030504EFD00F8D93170401C183DC
:10523000139407014184E39127FFC16401449384DF
:1052400094E11309200742044180228526869305B4
:1052500070020504EFD02F8A93170401C1831394C1
:1052600007014184E39127FFC1640144938494E1E1
:10527000130920074204418022852686CD45050476
:10528000EFD06F8793170401C18313940701418402
:10529000E39227FFC16413043006FD14A2857D1438
:1052A00042047D46130530024180EFD0CF84E317DE
:1052B00094FEC16413043006FD14A2851306007E1B
:1052C00013058003EFD02F83A2851306007E1305FC
:1052D0009003EFD04F82A2857D1442041306007E16
:1052E0001305A0034180EFD00F81E31894FCC16443
:1052F00013043006FD14A2857D1442047D46130577
:10530000F0044180EFC03FFFE31794FE9304008058
:10531000130630029D45294523949180EFD02FA597
:10532000376601007D49130646779D451305100336
:1053300023942181EFD0EF8F1306F0049D451305D0
:10534000800523949180EFD08FA237660100130669
:10535000867795451305800723942181EFD06F8DC3
:10536000376601001306C677914513058007EFD015
:105370004F8C37660100130606788D4513058007AC
:10538000EFD02F8B37660100130646788945130549
:105390008007EFD00F8A37660100130686788545AF
:1053A00013058007EFD0EF88376601001306C67833
:1053B000814513058007EFD0CF87B24023949180B9
:1053C00022449244024941018280797122D44AD018
:1053D00052CC416A3769002026D24ECE56CA5AC8EE
:1053E0005EC662C406D62391019481471309C9346D
:1053F000130B40059304300693093006930AFA8193
:1054000021A80347C776630767038507C207C187DB
:105410002391F19463CDF4260397819BE307F7FE74
:105420000397A19BE303F7FE3307F9008346473850
:10543000E39966FD139707014183BE8563F4E40099
:10544000930530069387870F8607CA9703D54700D1
:10545000B385B940C2057D151317050193071007E1
:105460004183C18163F4E7001305100742055686A6
:105470004181EFC05FE8839721941397070141832F
:10548000BE8563F4E400930530069387870F860793
:10549000CA9703D54700B385B940C20593071007E3
:1054A000C18163F4A700130510075686EFC0BFE45F
:1054B00083972194139707014183BE8563F4E40029
:1054C000930530069387870F8607CA9703D5470051
:1054D000B385B940C20505051317050193071007E9
:1054E0004183C18163F4E700130510074205568626
:1054F0004181EFC05FE083972194139707014183B7
:10550000BE8563F4E400930530069387872E8607F3
:10551000CA9703D5C700B385B940C2057D151317D7
:105520000501930710074183C18163F4E700130568
:10553000100742057D464181EFC0FFDB8397219430
:10554000139707014183BE8563F4E4009305300699
:105550009387872E8607CA9703D5C700B385B940BE
:10556000C20593071007C18163F4A7001305100754
:105570007D46EFC05FD8839721941397070141833D
:10558000BE8563F4E400930530069387872E860773
:10559000CA9703D5C700B385B940C20505051317DF
:1055A0000501930710074183C18163F4E7001305E8
:1055B000100742057D464181EFC0FFD383972194B8
:1055C000139707014183BE8563F4E4009305300619
:1055D0008607CA9703D50700B385B940C20593076C
:1055E0001007C18163F4A7001305100713060A8092
:1055F000EFC07FD083972194139707014183BE8525
:1056000063F4E400930530068607CA9703D50700C4
:10561000B385B940C2057D1513170501930710071F
:105620004183C18163F4E7001305100742051306A7
:105630000A804181EFC03FCC8397219413970701E3
:105640004183BE8563F4E400930530068607CA975C
:1056500003D50700B385B940C20505051317050139
:10566000930710074183C18163F4E7001305100716
:10567000420513060A804181EFC0FFC7839721943A
:105680008507C207C1872391F194E3D7F4D8B250BC
:10569000225492540259F249624AD24A424BB24BC6
:1056A000224C45618280397162CC03A781A15ECE14
:1056B00006DE22DC26DA4AD84ED652D456D25AD04A
:1056C00066CA6AC86EC68547938B3197630EF71C0E
:1056D000416A378D01209304300613043006130A03
:1056E0000A80B78C012085472380FB00EFE0FFAEE6
:1056F00083A781836358F00C930D4DAE8149130944
:10570000100783A74D0003A74D00C207C183BA85C8
:1057100063F4F4009305300603A50D00B305B4400F
:10572000C2057D1593170501C183C1816374F9001A
:1057300013051007420552864181EFC0DFBB83A7E6
:105740004D0003A74D00C207C183BA8563F4F4007E
:105750009305300683A70D0003A70D00B305B440E1
:10576000C207C205C183C1813A856374F90013057C
:105770001007420552864181EFC0FFB783A74D0055
:1057800003A74D00C207C183BA8563F4F4009305F3
:10579000300603A50D00B305B440C20505059317F7
:1057A0000501C183C1816374F90013051007420527
:1057B00052864181EFC03FB483A781838509A10D43
:1057C000E3C1F9F483A7C1836358F00C938D4CE0D7
:1057D00081491309100783A74D0003A74D00C20795
:1057E000C183BA8563F4F4009305300603A50D0068
:1057F000B305B440C2057D1593170501C183C1816E
:105800006374F9001305100742057D464181EFC01E
:105810009FAE83A74D0003A74D00C207C183BA8581
:1058200063F4F4009305300683A70D0003A70D0071
:10583000B305B440C207C205C183C1813A85637410
:10584000F9001305100742057D464181EFC0BFAA4C
:1058500083A74D0003A74D00C207C183BA8563F437
:10586000F4009305300603A50D00B305B440C2054E
:10587000050593170501C183C1816374F900130500
:10588000100742057D464181EFC0FFA683A7C18373
:105890008509A10DE3C1F9F42945EFD03FF003A735
:1058A00081A18547E311F7E441650115EFC07FA0B1
:1058B000F250625423800B0023AC01A0D254425911
:1058C000B259225A925A025BF24B624CD24C424D70
:1058D000B24D01452161828079716AC003A781A11F
:1058E00006D622D426D24AD04ECE52CC56CA5AC858
:1058F0005EC662C466C285476304F714B7690020B8
:10590000376400204169B77C00201304C4239384CA
:10591000091C376C0100376B0100B76A01001309DD
:105920000980EFE09F8B930720071307400681480B
:1059300013084006930620078145014513864CED68
:10594000EFD08FD3EFF01F89EFF03FA8834594008D
:10595000034584004A86EFE01FF98345D4000345E0
:10596000C4007D46EFE03FF883C5140003C5091C61
:105970001306007EEFE03FF78345B4000345A40023
:105980004A86EFE05FF68345F4000345E4007D4678
:10599000EFE07FF583C5340003C524001306007EC5
:1059A000EFE07FF413068C66814513056009EFC0B4
:1059B0005FA80396C195854513056009EFC01FC513
:1059C00013060B67894513056009EFC09FA6038680
:1059D000A4008D4513056009EFC0BFAC1386CA67EC
:1059E000914513056009EFC0DFA40396C1A3954557
:1059F00013056009EFC09FC1030604019945130513
:105A00006009EFC01FAA030624019D451305600924
:105A1000EFC03FA90306140199451305E00BEFC041
:105A20005FA8030634019D451305E00BEFC07FA777
:105A30007945EFD0BFD603A781A18547E313F7EEE1
:105A400041650115EFC0FF86B250225423AC01A07E
:105A500092540259F249624AD24A424BB24B224C0A
:105A6000924C024D0145456182805D71A2C44EDEBB
:105A700037040020B769002052DC5AD85ED686C6AB
:105A8000A6C2CAC056DA62D466D26AD06ECE9389F4
:105A900009181304C404FD4B83A781A185446380C6
:105AA000971A95451385C196EFF08FDF13864186CF
:105AB00081454145EFC0FF971386C1868545414525
:105AC000EFC03F9759661306065E89454145EFC012
:105AD0005F9659661306C65E8D454145EFC07F95BA
