:100000006FF0A00D130000001300000013000000AB
:100010001300000013000000130000001300000094
:100020001300000013000000130000001300000084
:08003000130000007300100032
:10003800000000000000000046E8000056E800004C
:100048000000000020F00000000000000000000098
:1000580022F0000024F00000000000000000000072
:1000680026F000000000000028F00000000000005A
:100078002AF000002CF000002EF0000030F0000004
:1000880032F0000034F00000A6E40000CAE40000EA
:10009800EEE4000012E5000036E5000040F0000044
:1000A80042F0000044F0000046F0000048F0000074
:1000B8004AF000004CF000004EF0000050F0000044
:1000C80052F0000054F0000056F000005AE500001D
:1000D8005AF0000076E600005EF0000060F00000D4
:1000E800A6E60000CEE60000FEE6000068F000008C
:1000F8006AF000006CF000006EF0000070F0000084
:1001080072F000009EE20000D2E2000024E300004A
:10011800E2E500007CF000007EF0000080F00000C6
:10012800BEE7000084F0000086F0000088F00000C0
:100138008AF000008CF000002EE7000090F000002C
:1001480058E300008CE300005EE700008AE7000047
:100158009AF000009CF000009EF00000A0F0000063
:10016800A2F00000A4F00000A6F00000A8F0000033
:10017800AAF00000ACF00000AEF00000E4160100A8
:10018800B2F00000B4F0000068E40000BCE3000036
:10019800F0E300003CE40000BEF00000EEE70000E1
:1001A800C2F00000C4F00000C6F000001EE8000025
:1001B800CAF00000CCF00000CEF00000D0F0000043
:1001C800D2F00000D4F00000D6F00000D8F0000013
:1001D8000000000000000000000000000000000017
:1001E8000000000000000000000000000000000007
:0801F8000000000000000000FF
:10020000737504308280B76200009382820873A005
:10021000023082803D432A876373C3029377F700DD
:10022000BDEFADE5937606FF3D8ABA960CC34CC38D
:100230000CC74CC74107E36BD7FE11E28280B306BF
:10024000C3408A069702000096966780A60023079F
:10025000B700A306B7002306B700A305B700230520
:10026000B700A304B7002304B700A303B700230318
:10027000B700A302B7002302B700A301B700230110
:10028000B700A300B7002300B700828093F5F50FF5
:1002900093968500D58D93960501D58D61B793967C
:1002A00027009702000096968682E78086FA96805D
:1002B000C1171D8F3E96E374C3F8A5B7011106CE92
:1002C00022CC00102326A4FE8327C4FE81EB8146A6
:1002D000014681450145EF009019A5AA0327C4FEF8
:1002E00085476319F7008146014681450545EF00C2
:1002F000101885A20327C4FE89476319F7008146B9
:10030000014681450945EF009016A1A20327C4FECE
:100310008D476319F7008146014681450D45EF0081
:10032000101505AA0327C4FE91476319F7008146FB
:10033000014681451145EF00901321AA0327C4FE11
:1003400095476319F7008146014681451545EF0041
:10035000101201A20327C4FE99476319F7008146D2
:10036000014681451945EF009010E5A00327C4FE22
:100370009D476319F7008146014681451D45EF0001
:10038000100FC1A80327C4FEA147631AF7008146D6
:100390000146814513050002EF00700D5DA803279B
:1003A000C4FEA547631AF70081460146814513053F
:1003B0001002EF00D00B71A80327C4FEA947631AEF
:1003C000F70081460146814513050004EF00300A1D
:1003D00049A00327C4FEAD47631AF70081460146D2
:1003E000814513051004EF009008A5A00327C4FE63
:1003F000B147631AF7008146014681451305200481
:10040000EF00F006B9A00327C4FEB547631AF70052
:1004100081460146814513053004EF00500515A8BB
:100420000327C4FEB947631AF70081460146814598
:1004300013054004EF00B00329A80327C4FEBD47FD
:100440006319F70081460146814513055004EF000A
:1004500010020100F240624405618280011106CE63
:1004600022CC00102326A4FE2324B4FE8327C4FE3E
:1004700093F7F70F91460546BE85B72701401385D0
:100480000740EFF040168545B72701401385074028
:10049000EFF0201101008945B7270140138507407F
:1004A000EFF0E038AA87E5DBB727014093870740E4
:1004B000F847832784FEB357F700C207C1833E8500
:1004C000F240624405618280397106DE22DC8000E0
:1004D0002326A4FC0325C4FCD53385451305002041
:1004E000EFF0D0340145EFF0407FB727014013858E
:1004F0000740EFE0D066232804FC232A04FC232CC9
:1005000004FCB7070E00232EF4FC232004FE8547CD
:100510002302F4FE930704FDBE85B727014013852F
:100520000740EFE0D0698545B727014013850740B4
:10053000EFE010798145B727014013850740EFF0C0
:10054000A032B727014013850740EFE0507B010040
:10055000B727014013850740EFE0907CAA87EDFBA9
:10056000B727014013850740EFE0907E0100B727D1
:10057000014013850740EFE0D07FAA87EDFB010023
:10058000F250625421618280011122CE0010232496
:10059000A4FE2326B4FEB7F700E023A00700B7F7B8
:1005A00000E08146014794C7D8C7B7F700E0054788
:1005B00098C30100B7F700E003A8C7009C470327D2
:1005C000C4FEC286636CD7000327C4FEC286E31351
:1005D000D7FE032784FE6363F700E9BF010072447E
:1005E00005618280011106CE22CC0010AA8E2E8ECB
:1005F00032833685BA853E86C2864687F687A3074C
:10060000F4FEF2872307F4FE9A87A306F4FEAA8776
:100610002306F4FEAE87A305F4FEB2872305F4FE9D
:10062000B687A304F4FEBA872304F4FE8347F4FEDE
:1006300093068004014681453E85152D8347E4FEDF
:1006400093068004014681453E8515258347D4FEE7
:1006500093068004014681453E85112D8347C4FEE3
:1006600093068004014681453E8511258347B4FEEB
:1006700093068004014681453E85D52B8347A4FE21
:1006800093068004014681453E85D523834794FE29
:1006900093068004014681453E85D12B834784FE25
:1006A00093068004014681453E85D123834744005B
:1006B00093068004014681453E85552B83470400FF
:1006C00093068004014681453E8555238347840077
:1006D00093068004014681453E85512B0100F2407E
:1006E000624405618280011106CE22CC00102326CF
:1006F000A4FE2324B4FEB28736872313F4FEBA8700
:100700002312F4FE85450965EFF0F00DB70705509B
:1007100083C7070013F7F70FB70705501377F7FCE8
:100720001377F70F2380E700B707055083C707004B
:1007300013F7F70FB7070550136727041377F70F61
:100740002380E700B707055083C7170013F7F70F9B
:10075000B7070550659B1377F70FA380E700B7072E
:100760000550035744FE2392E700B707055003578F
:1007700064FE2393E700B70705500327C4FE98C71C
:10078000B7070550032784FED8C7B707055083C7AE
:10079000170013F7F70FB70705501377F703137711
:1007A000F70FA380E70037070550B7070550034749
:1007B00017001377F70FA380E700B707055083C72B
:1007C000170013F7F70FB7070550136707011377E3
:1007D000F70FA380E700B707055083C7270013F77B
:1007E000F70FB7070550136747001377F70F2381FB
:1007F000E700B707055083C7170013F7F70FB707D0
:100800000550136717001377F70FA380E700B707AA
:10081000055083C7070013F7F70FB7070550136795
:1008200017001377F70F2380E7008D451305600548
:10083000EF50202813056005EF50E0230100F2403F
:10084000624405618280011106CE22CC001023266D
:10085000A4FE2324B4FE93068004014681450325AB
:10086000C4FE31219306800401468145032584FEA0
:10087000FD2E0100F240624405618280011106CE26
:1008800022CC00102326A4FEB70700201387070000
:100890008327C4FEBA9703C707009307F00F6311BD
:1008A000F702ED670327C4FE0A0793870742BA974A
:1008B0009C4383D74702C207C183C207C187B9A837
:1008C000B7070020138707008327C4FEBA9783C7A2
:1008D00007003E85D52CAA8785C3ED670327C4FE94
:1008E0000A0793870742BA979C4383D74702C207F8
:1008F000C183C207C1871DA0ED670327C4FE0A0795
:1009000093870742BA979C4383D74702C207C183A4
:10091000B307F040C207C183C207C1873E85F240DA
:10092000624405618280011122CE00102326A4FEBC
:10093000ED670327C4FE0A0793870742BA979C43D3
:10094000239207020100724405618280797106D604
:1009500022D40018232EA4FC232CB4FC232AC4FC8C
:1009600091450325C4FDEF101003AA873E871306A7
:100970003008E9679385C77C3A85EF4040500325EE
:10098000C4FDEF10D006832784FD13F7F70F8327EC
:1009900044FD93F7F70FBE853A857535832784FDAF
:1009A00013F7F70FB7070020938607008327C4FDCE
:1009B000B6972380E700832784FD13D787008547F8
:1009C000631AF7008545B70716001385070CEFF08B
:1009D000601B01A2832784FD13D78700C547631AD4
:1009E000F7008545B707180013850730EFF0801929
:1009F000CDA0832784FD13D7870093071002631AC5
:100A0000F7008545B7171A00138507C0EFF0801768
:100A1000C9A0832784FD13D7870093072002631A98
:100A2000F7008545B7171A0013850780EFF080158A
:100A30004DA0832784FD13D7870093071003631706
:100A4000F70085450565EFF0E01361A0832784FD7D
:100A500013D7870093071007631BF700B707014000
:100A6000D84FB707014013674700D8CF9DA0832711
:100A700084FD13D7870093071008631BF700B7079F
:100A80000140D84FB707014013670701D8CF91A0A5
:100A9000832784FD13D7870093071009631BF70092
:100AA000B7070140D84FB707014013670704D8CFF5
:100AB0000DA0832784FD13D7870093072009631AAD
:100AC000F700B7070140D84FB70701401367070287
:100AD000D8CF85450545EFF06055930744FE3E8528
:100AE000EF00A107231204FEFD572314F4FE231583
:100AF00004FE231304FE230604FEED670327C4FD52
:100B00000A0793870742BA979C433E87930744FEA0
:100B1000BE853A85EFF0807FED670327C4FD0A07A5
:100B200093870742BA979C43930500063E85EF00E2
:100B30000119ED670327C4FD0A0793870742BA9797
:100B40009C4385453E85EF0001050100B2502254CB
:100B500045618280011122CE00102326A4FEAE87BB
:100B6000A305F4FE8347B4FE9DC78327C4FEBD8B57
:100B70000547B317F70093960701C1828327C4FE88
:100B800013D75700ED670A0793870740BA979C432E
:100B9000368798CB35A08327C4FEBD8B0547B31796
:100BA000F70093960701C1828327C4FE13D757002D
:100BB000ED670A0793870740BA979C433687D8CBDF
:100BC0000100724405618280011122CE00102326AB
:100BD000A4FE8327C4FE958313F77700ED670A0709
:100BE00093870740BA979C439C470327C4FE7D8B9D
:100BF00085463397E600F98F99C3854711A0814751
:100C00003E85724405618280797122D60018232EB8
:100C1000A4FC8327C4FD958393F7F70F9D8BA3074F
:100C2000F4FE8327C4FD93F7F70FBD8B2307F4FE73
:100C30000347F4FEED670A0793870740BA979C4382
:100C4000DC470347E4FE85463397E60042074183CD
:100C50003A868346F4FE6D678A0613070740369787
:100C60001843B18F5CC701003254456182807971AD
:100C700006D622D40018232EA4FC232CB4FC232A4D
:100C8000C4FC2328D4FC8327C4FD958393F7F70F76
:100C90009D8BA307F4FE8327C4FD93F7F70FBD8B4D
:100CA0002307F4FE0327C4FD9307F00F6305F71431
:100CB0000327C4FD9307F00F6301F7148347F4FE85
:100CC00091E785451145EFF0603641A00347F4FEFA
:100CD00085476317F70085452145EFF02035B5A01E
:100CE0000347F4FE89476317F70085454145EFF058
:100CF000E033A1A80347F4FE8D476318F70085454C
:100D000013050002EFF0803289A00347F4FE9147FB
:100D10006318F700854513050004EFF0203135A076
:100D20000347F4FE95476318F7008545130500084F
:100D3000EFF0C02F19A80347F4FE99476317F70097
:100D4000854513050010EFF0602E8347E4FE05474C
:100D5000B317F700C207C1832310F4FE032784FDF5
:100D600085476317F702832704FDC207C183A18368
:100D7000C207C18389E78D472322F4FE11A8832788
:100D800004FDC207C183A183C207C1832322F4FEED
:100D9000832704FDC207C18393F7F70F2324F4FED2
:100DA0000347F4FEED670A0793870740BA979C4311
:100DB0003E87930704FEBE853A85EFE09036032711
:100DC00084FD8547631CF7020347F4FEED670A07BD
:100DD00093870740BA979C43BE868347E4FE054746
:100DE000B317F700C207C183032644FDBE853685CD
:100DF000EFE0D05521A0010011A00100B250225413
:100E0000456182801D7186CEA2CC80102326A4FA73
:100E10002324B4FAED6703AE878B1387878B0323F4
:100E200047001387878B832887001387878B0328C6
:100E3000C7001387878B084B1387878B4C4B13870F
:100E4000878B104F1387878B544F1387878B1853CB
:100E50009387878BDC532322C4FD232464FC232641
:100E600014FD232804FD232AA4FC232CB4FC232EE8
:100E7000C4FC2320D4FE2322E4FE2324F4FE854573
:100E80000325C4FAEF102031AA873E8713065002CB
:100E9000ED67938547843A85EF30707E832784FA27
:100EA000B337F00093F7F70F3E8713066002ED6744
:100EB000938547843A85EF30907C832784FABD83FD
:100EC0002317F4FE8357E4FE85073E87832784FAC1
:100ED000B3D7E7022316F4FE0325C4FAEF1020313E
:100EE0008357C4FE231EF4FA8357E4FE231CF4FA4E
:100EF000231F04FA231D04FA230004FCED670327D3
:100F0000C4FA0A0793870742BA979C433E87930720
:100F100084FBBE853A85EFF0603FED670327C4FA96
:100F20000A0793870742BA979C43054685453E8545
:100F3000EFF0F051ED670327C4FA0A0793870742E1
:100F4000BA979C4385453E85EF00A1108327C4FADC
:100F500093F7F70F8A07130704FFBA9783A747FD94
:100F60008D453E85EF40F0348327C4FA8A07130786
:100F700004FFBA9783A747FD3E85EF40D02FED676A
:100F80000327C4FA0A0793870742BA979C4385450B
:100F90003E85EFF050400100F640664425618280B6
:100FA000011106CE22CC00102326A4FE8327C4FE06
:100FB00089EB930680310146854521454D396F0007
:100FC00020760327C4FE8547631AF7009306803115
:100FD00001468545254561396F0080740327C4FEAD
:100FE0008947631AF70093068031014685452945F4
:100FF000BD396F00E0720327C4FE8D47631AF70006
:1010000093068031014685452D4595316F0040712D
:101010000327C4FEC147631BF700930680310146D6
:10102000854513059008A1316F00806F0327C4FE2A
:10103000C547631AF70093068031014685451305BD
:10104000B0083531F1AD0327C4FEC947631AF70074
:1010500093068031014685451305D0080939C9A595
:101060000327C4FECD47631AF7009306803101467B
:1010700085451305E008E53E65A50327C4FE9307F3
:1010800000106319F700930680310146854501453C
:10109000F93E79A50327C4FE930710106319F700E2
:1010A00093068031014685450545D13695AD032728
:1010B000C4FE930720106319F700930680310146A0
:1010C000854509456D36A9AD0327C4FE9307301049
:1010D0006319F70093068031014685450D45413E71
:1010E00081A50327C4FE930700116319F700930637
:1010F0008031014685453D459D3E1DA50327C4FE23
:1011000093071011631AF700930680310146854555
:1011100013053002A93E29A50327C4FE9307201119
:10112000631AF70093068031014685451305A00236
:101130003D3EFDA30327C4FE93073011631AF70059
:1011400093068031014685451305B0020D36C9ABC3
:101150000327C4FE930700206319F700930680312C
:10116000014685451945213665AB0327C4FE930723
:1011700010206319F70093068031014685451D450F
:10118000FD3479AB0327C4FE93072020631AF700D0
:10119000930680310146854513050002C93C49A3E9
:1011A0000327C4FE93073020631AF70093068031AB
:1011B00001468545130510025D3C9DA30327C4FE2F
:1011C00093070021631AF700930680310146854595
:1011D00013056004693CA9A30327C4FE93071021EB
:1011E000631AF700930680310146854513057004A4
:1011F000BD3C3DA30327C4FE93072021631AF700DB
:101200009306803101468545130580048D3409AB72
:101210000327C4FE93073021631AF7009306803139
:1012200001468545130590049934DDA90327C4FEC2
:1012300093070022631AF700930680310146854523
:10124000130540022D34E9A90327C4FE9307102299
:10125000631AF70093068031014685451305500255
:1012600039347DA90327C4FE93070030631AF700C1
:10127000930680310146854513056002CD3A4DA1A4
:101280000327C4FE93071030631AF70093068031DA
:101290000146854513057002D93A59A10327C4FEBA
:1012A00093072030631AF700930680310146854585
:1012B000130580026D3AADA10327C4FE93073030B9
:1012C000631AF700930680310146854513059002A5
:1012D000793AB9A10327C4FE93070031631BF700D5
:1012E00093068031014685451305C006EFF03F980F
:1012F00005A90327C4FE93071031631BF70093066B
:101300008031014685451305D006EFF05F9609A9A7
:101310000327C4FE93072031631BF7009306803137
:10132000014685451305E006EFF07F94D5AE03270F
:10133000C4FE93073031631BF700930680310146EA
:1013400085451305F006EFF09F92D9AE0327C4FE42
:1013500093070040631AF7009306803101468545E4
:101360000145EFF0DF906DAE0327C4FE93071040F8
:10137000631AF70093068031014685450545EFF075
:101380001F8F79AE0327C4FE93072040631AF7002E
:1013900093068031014685450945EFF05F8D49A6EA
:1013A0000327C4FE93073040631AF7009306803189
:1013B000014685450D45EFF09F8B9DA60327C4FE92
:1013C00093070070631BF700930680310146854543
:1013D00013056004EFF0BF89A1A60327C4FE93079D
:1013E0001070631BF7009306803101468545130595
:1013F0007004EFF0DF872DA60327C4FE930720704B
:10140000631BF70093068031014685451305800470
:10141000EFF0FF8531A60327C4FE93073070631BEE
:10142000F700930680310146854513059004EFF0DF
:101430001F84FDA40327C4FE93070071631BF700FC
:10144000930680310146854513056002EFF03F8227
:10145000C1AC0327C4FE93071071631BF70093060A
:1014600080310146854513057002EFF05F804DAC79
:101470000327C4FE93072071631BF7009306803196
:101480000146854513058002EFF06FFE51AC03273E
:10149000C4FE93073071631BF70093068031014649
:1014A00085451305D004EFF08FFC9DAC8327C4FE67
:1014B0009387078089EB930680310146854509456E
:1014C000EFF0EFFAB1AC0327C4FE8567938717806E
:1014D000631AF70093068031014685450D45EFF00C
:1014E0000FF93DAC0327C4FE856793872780631AF5
:1014F000F70093068031014685451145EFF02FF73F
:1015000005A40327C4FE856793873780631BF70014
:10151000930680310146854513054004EFF02FF511
:1015200001A40327C4FE856793870781631BF70027
:10153000930680310146854513059006EFF02FF3A1
:10154000C5A20327C4FE856793871781631BF70035
:1015500093068031014685451305B006EFF02FF163
:10156000C1A20327C4FE856793872781631BF70009
:1015700093068031014685451305D006EFF02FEF25
:1015800045A20327C4FE856793873781631BF70055
:1015900093068031014685451305F006EFF02FEDE7
:1015A00041A20327C4FE856793870790631BF7005A
:1015B000930680310146854513058002EFF02FEB3D
:1015C00085A20327C4FE856793871790631BF700E6
:1015D000930680310146854513059002EFF02FE90F
:1015E00081A20327C4FE856793872790631BF700BA
:1015F000930680310146854513053004EFF02FE74F
:1016000005A20327C4FE856793873790631BF70005
:1016100093068031014685451305B004EFF02FE5B0
:1016200001A20327C4FE856793870791631BF70018
:10163000930680310146854513051006EFF02FE330
:10164000C5A00327C4FE856793871791631BF70026
:10165000930680310146854513053006EFF02FE1F2
:10166000C1A00327C4FE856793872791631BF700FA
:10167000930680310146854513055006EFF02FDFB4
:1016800045A00327C4FE856793873791631BF70046
:10169000930680310146854513057006EFF02FDD76
:1016A00041A00327C4FE856793870792631BF70059
:1016B000930680310146854513053002EFF02FDB9C
:1016C00085A00327C4FE856793871792631BF700E5
:1016D000930680310146854513054002EFF02FD96E
:1016E00081A00327C4FE856793872792631BF700B9
:1016F000930680310146854513055002EFF02FD740
:1017000005A00327C4FE856793873792631AF70005
:1017100093068031014685451305F004EFF02FD57F
:101720000100F240624405618280797106D622D4BC
:1017300026D20018232EA4FC232CB4FC8327C4FD3E
:1017400013D78700ED670A0793870742BA979C4330
:1017500083D7C7022317F4FE0357E4FE832784FDD3
:10176000B304F7020325C4FDA929AA87B3D7F4025D
:101770002316F4FE8327C4FD13D78700ED670A07FD
:1017800093870742BA9798438327C4FD8D8B8A07B6
:10179000BA97938747033E878357C4FE1CC3010053
:1017A000B2502254925445618280397106DE22DCA7
:1017B00026DA80002326A4FC2324B4FC2322C4FCC4
:1017C000231704FE8327C4FCA1838D453E85EF00CB
:1017D000901CAA873E871306900BED679385078EB2
:1017E0003A85EF30C0698327C4FCA1833E85EF00B2
:1017F00010200325C4FCEFF0AFFA85450545EFE066
:10180000F0028327C4FC13D747008547631AF7000B
:101810008545B70716001385070CEFE0A03601A237
:101820008327C4FC13D74700C547631AF7008545D3
:10183000B707180013850730EFE0C034CDA0832729
:10184000C4FC13D7470093071002631AF7008545BD
:10185000B7171A00138507C0EFE0C032C9A083276D
:10186000C4FC13D7470093072002631AF70085458D
:10187000B7171A0013850780EFE0C0304DA083270B
:10188000C4FC13D74700930710036317F70085457F
:101890000565EFE0202F61A08327C4FC13D7470024
:1018A00093071007631BF700B7070140D84FB7072E
:1018B000014013674700D8CF9DA08327C4FC13D7EE
:1018C000470093071008631BF700B7070140D84F84
:1018D000B707014013670701D8CF91A08327C4FC45
:1018E00013D7470093071009631BF700B7070140A0
:1018F000D84FB707014013670704D8CF0DA083273F
:10190000C4FC13D7470093072009631AF700B707F1
:101910000140D84FB707014013670702D8CF03A78C
:101920000182832784FCB357F702C1832317F4FE97
:1019300003A701828357E4FE8507BE86832784FCC4
:10194000B387F602B357F7022316F4FE0357C4FE1B
:10195000832744FCB304F7020325C4FC9D24AA8713
:10196000B3D7F4022315F4FE8357C4FEFD17C20754
:10197000C1832312F4FE8357E4FE2310F4FE2313E5
:1019800004FE231104FE230404FE8327C4FC13D7A2
:101990008700ED670A0793870742BA979C433E8703
:1019A000930704FEBE853A85EFE0501693070007C3
:1019B0002318F4FC85472319F4FC231A04FC8357ED
:1019C000A4FE231BF4FC8947231CF4FC8947231D38
:1019D000F4FC231E04FC231F04FC8327C4FC8D8B12
:1019E000B9EF8327C4FC13D78700ED670A079387F5
:1019F0000742BA979C433E87930704FDBE853A850C
:101A0000EFE0B0288327C4FC13D78700ED670A07EF
:101A100093870742BA979C43A1453E85EFF0603318
:101A20008327C4FC13D78700ED670A079387074213
:101A3000BA979C4391453E85EFF0604689A2832783
:101A4000C4FC13F7370085476311F7068327C4FCEE
:101A500013D78700ED670A0793870742BA979C431D
:101A60003E87930704FDBE853A85EFE0D03B832790
:101A7000C4FC13D78700ED670A0793870742BA971C
:101A80009C43A1453E85EFF080318327C4FC13D7EA
:101A90008700ED670A0793870742BA979C4393052F
:101AA00000403E85EFF06044D9A88327C4FC13F7BB
:101AB000370089476310F7068327C4FC13D78700D4
:101AC000ED670A0793870742BA979C433E879307BF
:101AD00004FDBE853A85EFE030538327C4FC13D75D
:101AE0008700ED670A0793870742BA979C43A14591
:101AF0003E85EFF060308327C4FC13D78700ED6785
:101B00000A0793870742BA979C4391453E85EFF0B9
:101B10002043B5A08327C4FC13F737008D4763101B
:101B2000F7068327C4FC13D78700ED670A0793875E
:101B30000742BA979C433E87930704FDBE853A85CA
:101B4000EFE0506A8327C4FC13D78700ED670A07CC
:101B500093870742BA979C43A1453E85EFF0802EBC
:101B60008327C4FC13D78700ED670A0793870742D2
:101B7000BA979C43930500403E85EFF020418327B0
:101B8000C4FC13D78700ED670A0793870742BA970B
:101B90009C4385453E85EFF080058327C4FC13D721
:101BA0008700ED670A0793870742BA979C438545EC
:101BB0003E85EFE0507E0100F2506254D254216124
:101BC0008280011122CE00102326A4FE0327C4FE2A
:101BD000930700116301F7020327C4FE9307001166
:101BE0006362F7028327C4FE938707CF3E878D4742
:101BF00063EAE70029A0E1679387076A39A09307A2
:101C0000803E21A08967938707713E8572440561F4
:101C10008280011106CE22CC00102326A4FE2324AC
:101C2000B4FE2322C4FE2320D4FE8327C4FE89EB06
:101C300093068031054685451545EFF04F8361A039
:101C40000327C4FEC147631BF70093068031054696
:101C5000854513053002EFF08F81B5A00327C4FE40
:101C600093070002631BF700930680310546854504
:101C70001305D002EFE0BFFFB9A00327C4FE93070E
:101C80000003631BF7009306803105468545130565
:101C90003002EFE0DFFD05A80327C4FE9307000430
:101CA000631BF70093068031054685451305A004A4
:101CB000EFE0FFFB09A813069002ED6793854795B7
:101CC0000145EF30C01B032784FE8947631AF700E4
:101CD00093068031054685451D45EFE05FF961A01B
:101CE000032784FEC947631BF7009306803105462E
:101CF000854513055002EFE09FF7B5A0032784FE4A
:101D000093072002631BF700930680310546854543
:101D10001305F002EFE0BFF5B9A0032784FE930797
:101D20002003631BF70093068031054685451305A4
:101D30005002EFE0DFF305A8032784FE9307200499
:101D4000631BF70093068031054685451305C004E3
:101D5000EFE0FFF109A813060003ED6793854795AF
:101D60000145EF30C011032744FE8547631AF70091
:101D700093064030054681451945EFE05FEF79A8AD
:101D8000032744FEC547631BF70093064030054612
:101D9000814513054002EFE09FED49A0032744FE73
:101DA00093071002631BF7009306403005468145F8
:101DB0001305E002EFE0BFEB95A0032744FE930775
:101DC0001004631BF7009306403005468145130558
:101DD000B004EFE0DFE999A0032744FE9307100366
:101DE000631BF7009306403005468145130540020A
:101DF000EFE0FFE725A0032744FE9307F00F6317EA
:101E0000F7009307F00F2322F4FE09A813068003BE
:101E1000ED67938547950145EF30600693060031E5
:101E200001468545032504FEEFE07FE40100F24012
:101E30006244056182805D7186C6A2C48008232643
:101E4000A4FC2324B4FC2322C4FC2320D4FC232E92
:101E5000E4FA232CF4FA232A04FB231704FEED678B
:101E60000327C4FC0A0793874741BA979C433E85E2
:101E7000EFE0402D85450545EFE0401B032704FCBE
:101E8000C1476311F7020327C4FBC947631CF7006E
:101E9000032784FBC5476317F70085450545EFD049
:101EA000704E15A8032704FC930700046315F7027E
:101EB0000327C4FB93072004631FF700032784FB59
:101EC000930710046319F7008545B71720001385A1
:101ED0000710EFD0304B8327C4FC91E7854505659B
:101EE000EFE0C01425A00327C4FC85476317F70063
:101EF00085451165EFE0E01711A80327C4FC894769
:101F00006316F70085452165EFE0A016832644FBA4
:101F1000032684FB8325C4FB032504FCDD39231E33
:101F200004FC93074010231FF4FC231004FE032736
:101F300084FC85476305F702832784FC81CF032750
:101F400084FC89476303F702032784FC8D476304FD
:101F5000F7020DA8231104FE231204FE25A023116D
:101F600004FE85472312F4FE31A889472311F4FEAD
:101F7000231204FE01A889472311F4FE854723128A
:101F8000F4FE010003A74190832744FCB357F702F6
:101F90002317F4FE0357E4FE9307F00F63F7E700FF
:101FA000930780032317F4FE61A80357E4FE930709
:101FB000F00763F7E700930700032317F4FE49A037
:101FC0000357E4FE9307F00363F7E70093078002EB
:101FD0002317F4FEB5A00357E4FEFD4763F7E700BF
:101FE000930700022317F4FEA1A80357E4FEBD47A0
:101FF00063F6E700E1472317F4FE99A00357E4FED8
:102000009D4763F6E700C1472317F4FE15A8035761
:10201000E4FE8D4763F6E700A1472317F4FE0DA009
:102020000357E4FE854763F5E700231704FE09A87C
:102030001306D008ED67938547950145EF2030647E
:102040008357E4FE2314F4FE930700202313F4FEC9
:10205000231504FE9D472316F4FEED670327C4FCF9
:102060000A0793874741BA979C433E879307C4FD6D
:10207000BE853A85EFE06014ED670327C4FC0A07CC
:1020800093874741BA979C4385453E85EFE06022A0
:102090000100B640264461618280011122CE001009
:1020A0002326A4FEAE87A305F4FEED670327C4FE36
:1020B0000A0793874741BA979C433E878347B4FEFC
:1020C000C207C1832316F7000100ED670327C4FE92
:1020D0000A0793874741BA979C4383D78700C20773
:1020E000C18393F70708F5F301007244056182800C
:1020F000011122CE00102326A4FEAE872315F4FE84
:102100008357A4FEA183C207C18393F6F70FED673F
:102110000327C4FE0A0793874741BA979C433E872B
:1021200093970601C1832316F7000100ED6703278B
:10213000C4FE0A0793874741BA979C4383D7870019
:10214000C207C18393F70708F5F38357A4FE93F6FC
:10215000F70FED670327C4FE0A0793874741BA9735
:102160009C433E8793970601C1832316F700010025
:10217000ED670327C4FE0A0793874741BA979C433C
:1021800083D78700C207C18393F70708F5F30100DF
:10219000724405618280011122CE00102326A4FE24
:1021A0002324B4FE0327C4FE0A079387C19DBA9770
:1021B0009C4381EF0327C4FE0A079387C19DBA970A
:1021C000032784FE98C3854739A80327C4FE0A075E
:1021D0009387C19DBA979C43032784FE6314F7003D
:1021E000854711A081473E857244056182800111B7
:1021F00006CE22CC00102326A4FE8327C4FE81EB4A
:102200008545856713850780EFD050626DA8032749
:10221000C4FE85476317F70085450545EFD0706517
:102220005DA00327C4FE89476317F700854509456C
:10223000EFD0306449A80327C4FE8D476317F70029
:1022400085451145EFD0F062BDA80327C4FE914734
:102250006317F70085452145EFD0B061ADA0032796
:10226000C4FE95476317F70085454145EFD0706080
:1022700099A80327C4FE99476318F70085451305FD
:102280000002EFD0105F81A00327C4FE9D476317B3
:10229000F70085450965EFD0705935A00327C4FEC6
:1022A000A1476318F700854537050800EFD010589F
:1022B00019A80327C4FEA5476317F700854537050E
:1022C0001000EFD0B0560100F240624405618280F8
:1022D000011106CE22CC00102326A4FE2324B4FE36
:1022E0008327C4FE81EBE146014685452545EFE0A5
:1022F0001F98C9AA0327C4FE8947631AF700E1465D
:102300000146854513056002EFE07F9665AA032725
:10231000C4FEC1476319F700E146014685450945FA
:10232000EFE0FF9445A20327C4FEC947631AF700F4
:10233000E1460146854513055006EFE05F9359A23B
:102340000327C4FE93070002631AF700E146014623
:1023500085451305A002EFE09F91ADA20327C4FEBF
:1023600093072002631AF700E146014685451305ED
:10237000A004EFE0DF8FB9A20327C4FE9307400259
:10238000631AF700E1460146854513058006EFE034
:102390001F8E0DAA0327C4FE93070004631AF700DB
:1023A000E146014685451305A004EFE05F8C19AABC
:1023B0000327C4FE93072004631AF700E146014691
:1023C000854513050002EFE09F8AEDA80327C4FEB0
:1023D00093070005631AF700E1460146854513059A
:1023E000C004EFE0DF88F9A80327C4FE93072005A7
:1023F000631AF700E1460146854513058008EFE0C2
:102400001F87C9A00327C4FE93070006631AF700BD
:10241000E1460146854513050004EFE05F855DA0B8
:102420000327C4FE93072006631AF700E14601461E
:10243000854513050004EFE09F8369A00327C4FED0
:1024400093070007631AF700E14601468545130527
:102450002004EFE0DF81BDA00327C4FE930720071F
:102460006319F700E146014685451945EFE03F80D5
:1024700091A80327C4FE93074007631AF700E146BB
:10248000014685451305C008EFE06FFE25A8032728
:10249000C4FE93070008631AF700E146014685452C
:1024A00013054004EFE0AFFC31A80327C4FE9307F7
:1024B00020086319F700E146014685451305E00849
:1024C000EFE0EFFA032784FE8547631AF7009306CF
:1024D0008004014681452945EFE06FF9D5AA03271D
:1024E00084FE8D47631BF7009306800401468145F7
:1024F00013057002EFE0AFF7E1AA032784FEC5479A
:10250000631AF70093068004014681450D45EFE00C
:102510000FF67DAA032784FECD47631BF7009306C1
:1025200080040146814513056006EFE04FF44DA29B
:10253000032784FE93071002631BF70093068004B1
:10254000014681451305B002EFE06FF251A2032767
:1025500084FE93073002631BF70093068004014654
:1025600081451305B004EFE08FF09DA2032784FEA0
:1025700093075002631BF7009306800401468145D0
:1025800013059006EFE0AFEEA1A2032784FE9307A8
:102590001004631BF7009306800401468145130570
:1025A000B004EFE0CFEC2DA2032784FE93073004A4
:1025B000631BF70093068004014681451305100252
:1025C000EFE0EFEA31A2032784FE93071005631BB7
:1025D000F700930680040146814513052006EFE0CD
:1025E0000FE9FDA0032784FE93073005631BF70066
:1025F000930680040146814513059008EFE02FE71C
:10260000C1A8032784FE93071006631BF7009306F7
:1026100080040146814513051004EFE04FE54DA805
:10262000032784FE93073006631BF700930680049C
:10263000014681451305B008EFE06FE351A8032779
:1026400084FE93071007631BF7009306800401467E
:10265000814513053004EFE08FE19DA8032784FE38
:1026600093073007631AF7009306800401468145FB
:102670001D45EFE0CFDFA9A8032784FE930750078D
:10268000631BF70093068004014681451305D008BB
:10269000EFE0EFDD35A8032784FE93071008631BE6
:1026A000F700930680040146814513055004EFE0CE
:1026B0000FDC39A8032784FE93073008631AF7005C
:1026C00093068004014681451305F008EFE02FDAF8
:1026D0000100F240624405618280011122CE0010A7
:1026E0002326A4FEAE87A305F4FE0100ED670327B1
:1026F000C4FE0A0793878744BA979C4383D7070091
:10270000C207C18393F70708F5D3ED670327C4FE1B
:102710000A0793878744BA979C433E878347B4FE52
:10272000C207C1832312F700010072440561828051
:10273000011106CE22CC00102326A4FE2324B4FED1
:102740002322C4FE29A8832784FE1387170023248D
:10275000E4FE83C70700BE850325C4FEBD3F832773
:1027600044FE1387F7FF2322E4FEF1FF0100F2404D
:10277000624405618280011106CE22CC001023261E
:10278000A4FEAE87A305F4FEED670327C4FE0A0787
:1027900093878744BA979C433E878347B4FE3E861F
:1027A000930550523A85EFE0F036B7E700E09386A4
:1027B00081830327C4FE369703470700BA97238017
:1027C00007408347B4FE81CF138781838327C4FEEC
:1027D000BA9783C707003E85EF30E02919A8138711
:1027E00081838327C4FEBA9783C707003E85EF30F5
:1027F000602A0100F240624405618280011122CE0C
:1028000000102326A4FE2324B4FEED670327C4FE94
:102810000A0793878744BA979C4383D70700C20768
:10282000C18393F707028DC7ED670327C4FE0A072C
:1028300093878744BA979C4383D74700C207C183D5
:1028400013F7F70F832784FE2380E700854711A045
:1028500081473E85724405618280797106D622D413
:102860000018232EA4FC232CB4FC232AC4FC232808
:10287000D4FC85450545EFD0607B832504FD032509
:1028800044FDEFF0FFA4032744FD8947631CF700D4
:10289000032704FD8D476317F70085451145EFD0E9
:1028A000602E95A2032744FDC947631CF700032748
:1028B00004FDCD476317F70085452145EFD0802CF7
:1028C00099A2032744FD930720026310F702032710
:1028D00004FD93073002631AF7008545B70714001B
:1028E00013850701EFD0002A39AA032744FD930777
:1028F00040026310F702032704FD93075002631A96
:10290000F7008545B707140013850703EFD080272C
:10291000DDA8032744FD93072004631DF700032768
:1029200004FD930730046317F70085450565EFD074
:102930006025D1A8032744FD930720056310F70203
:10294000032704FD93073005631AF7008545B70791
:10295000200013851700EFD0E02275A0032744FD67
:10296000930720066310F702032704FD9307300640
:10297000631AF7008545B717008013850780EFD0ED
:10298000602051A0032744FD930720076312F7023C
:10299000032704FD93073007631CF700B7070140C6
:1029A000D44FB707014037074000558FD8CFA1A8B3
:1029B000032744FD930740076312F702032704FD32
:1029C00093075007631CF700B7070140D44FB707C0
:1029D000014037078000558FD8CF35A0032744FD2D
:1029E000930720086311F702032704FD93073008BB
:1029F000631BF700B7070140D44FB7070140370703
:102A00000002558FD8CF8327C4FD91E78545116516
:102A1000EFD0C06169A80327C4FD85476318F7009C
:102A2000854537050200EFD0C06451A00327C4FDDF
:102A300089476318F700854537050400EFD06063C8
:102A4000BDA00327C4FD8D476318F70085453705F2
:102A50000800EFD00062A1A80327C4FD91476318C6
:102A6000F700854537051000EFD0A06089A0032747
:102A7000C4FD95476318F700854513050004EFD0A2
:102A8000405F35A00327C4FD99476318F7008545CB
:102A900013050008EFD0E05D19A80327C4FD9D478A
:102AA0006317F700854513050010EFD0805C83277E
:102AB00084FD2320F4FE231204FE231304FE2314BA
:102AC00004FE231604FEB1472315F4FEED67032729
:102AD000C4FD0A0793878744BA979C433E879307B0
:102AE00004FEBE853A85EFE0A059ED670327C4FDDB
:102AF0000A0793878744BA979C4385453E85EFE054
:102B0000607B0100B250225445618280411106C6AB
:102B100022C400089385018D0545EFF03FCE0546A0
:102B20009385018D138541A0EF20C05203A7418DED
:102B300085476314F70683C7118D93F7F70F138743
:102B400017009376F70FA388D18C3E87938781A1D6
:102B50003E9781461386418DBA85138541A0EF20AB
:102B6000206083C7118D13F7F70F8D4763F7E702D6
:102B700083C7118D93F7F70F1387C7FF938781A141
:102B8000BA971146BE85ED671385879CEF50416863
:102B9000AA8781E7094723AAE18C0100B2402244B9
:102BA00041018280411106C622C400089385818DAF
:102BB0001945EFF0BFC405469385818D138581A328
:102BC000EF20404903A7C18D85476314F70683C7EB
:102BD000918D93F7F70F138717009376F70FA38C58
:102BE000D18C3E879387C1A43E9781461386C18DC1
:102BF000BA85138581A3EF20A05683C7918D13F763
:102C0000F70F8D4763F7E70283C7918D93F7F70FAF
:102C10001387C7FF9387C1A4BA971146BE85ED6796
:102C20001385C7C4EF50C15EAA8781E7094723AE69
:102C3000E18C0100B240224441018280411106C66C
:102C400022C4000803A7818F89476301F70203A705
:102C5000818F8D476315F700EF10F03801A803A7A7
:102C6000818F91476314F700EF10B0510100B2401B
:102C7000224441018280411106C622C4000803A7F4
:102C8000818F91476315F700EF10105601A803A735
:102C9000818F8D476314F700EF10503B0100B24065
:102CA000224441018280011106CE22CC0010AA8765
:102CB000A307F4FEED6793870740DC473E87C147D3
:102CC0001CCBED6793870740DC473E87C1475CCB51
:102CD000ED6793870740DC473E87930700085CCB8E
:102CE0008347F4FEBE850545EFF02FBBED67938764
:102CF0000740DC473E87930700081CCBED679387AE
:102D00000740DC473E87C1471CCBED6793870740F0
:102D1000DC473E87C1475CCB0100F240624405615D
:102D20008280011106CE22CC0010AA873687231795
:102D3000F4FEAE872316F4FEB2872315F4FEBA879D
:102D40002314F4FE83C78180C207C1830357E4FEC6
:102D5000B337F70093F7F70F3E8713062005ED67AB
:102D6000938507EF3A85EF20801183C79180C207D2
:102D7000C1830357C4FEB337F70093F7F70F3E87BD
:102D800013063005ED67938507EF3A85EF20200F96
:102D900083C78180C207C1830357A4FEB337F700FE
:102DA00093F7F70F3E8713064005ED67938507EF0E
:102DB0003A85EF20C00C83C79180C207C1830357B7
:102DC00084FEB337F70093F7F70F3E8713065005DD
:102DD000ED67938507EF3A85EF20600AB70700207B
:102DE00083A7473DBDE31305A002753D8357E4FE6D
:102DF00093874703C207C183BE850545EFF04FAFF8
:102E00008357A4FE93874703C207C183BE85054548
:102E1000EFF00FAE1305B00279358357C4FE9387E8
:102E20008702C207C183BE850545EFF06FAC8357AB
:102E300084FE93878702C207C183BE850545EFF0F4
:102E40002FAB1305C002853599AAB707002003A749
:102E5000473D85476315F7061305A002A93583573B
:102E6000E4FE93875703C207C183BE850545EFF093
:102E70002FA88357A4FE93875703C207C183BE853B
:102E80000545EFF0EFA61305B002313D8357C4FEB0
:102E900093878702C207C183BE850545EFF04FA522
:102EA000835784FE93878702C207C183BE85054589
:102EB000EFF00FA41305C002EFF0FFDECDA0B707BF
:102EC000002003A7473D89476317F7061305A002B3
:102ED000EFF07FDD8357E4FE93878702C207C1834B
:102EE000BE850545EFF0CFA08357A4FE93878702E8
:102EF000C207C183BE850545EFF08F9F1305B00261
:102F0000EFF07FDA8357C4FE93875703C207C1836C
:102F1000BE850545EFF0CF9D835784FE9387570309
:102F2000C207C183BE850545EFF08F9C1305C00223
:102F3000EFF07FD7ADA01305A002EFF0DFD68357E7
:102F4000E4FE93878702C207C183BE850545EFF083
:102F50002F9A8357A4FE93878702C207C183BE8539
:102F60000545EFF0EF981305B002EFF0DFD383577C
:102F7000C4FE93874703C207C183BE850545EFF0B2
:102F80002F97835784FE93874703C207C183BE856B
:102F90000545EFF0EF951305C002EFF0DFD001001B
:102FA000F240624405618280797106D622D44AD209
:102FB0004ED052CE56CC5ACA5EC862C666C40018FD
:102FC0001306B008ED67938507EF0545EF10306BEA
:102FD0001306C008ED67938507EF0545EF10306ACB
:102FE00083A7419013D617001308F00F9307F00F33
:102FF000130720029306000281450545EFE0BFE379
:10300000C1460146854513057006EFD05FC6C1462F
:103010000146854513057002EFD07FC5C1460146C4
:10302000854513054006EFD09FC4C146054685453A
:1030300013050006EFD0BFC3B707002083A7473DA5
:103040003E857526B707002003D7073DB707002048
:1030500083D7273DBE853A85F12EED6793870740DC
:10306000DC433E87930700085CCB03A74190896748
:10307000938707F43357F7029307800CB307F702DF
:103080003E8C814C6285E685EFD00FD0ED6793874B
:103090000740DC433E87930700081CCB03A7419001
:1030A0008967938707F43357F70293074006B307FE
:1030B000F7023E8B814B5A85DE85EFD0EFCC1305AE
:1030C0006003EFF05FBE03A741908967938707F421
:1030D0003357F70293074006B307F7023E8A814A47
:1030E0005285D685EFD04FCAB707002083A7473D4A
:1030F00091E781450545EFE05FFA81A0B707002021
:1031000003A7473D85476318F7009305000C054565
:10311000EFE0BFF81DA0B707002003A7473D894790
:103120006318F700930500070545EFE01FF731A08E
:103130009305000A0545EFE05FF61305A003EFF0E5
:103140009FB695450545EFE05FF51305200BEFF0C1
:103150009FB5B1450545EFE05FF4B1450545EFE0AA
:10316000DFF381450545EFE05FF393053003054547
:10317000EFE0BFF2930530030545EFE01FF21305C2
:10318000700BEFF05FB2930550030545EFE0FFF0E1
:103190001305B00BEFF03FB1930570030545EFE069
:1031A000DFEF1305000CEFF01FB09305C0020545DB
:1031B000EFE0BFEE1305200CEFF0FFAE85450545AF
:1031C000EFE0BFED1305300CEFF0FFADC94505454D
:1031D000EFE0BFEC1305400CEFF0FFAC93050002ED
:1031E0000545EFE09FEB1305600CEFF0DFABBD454D
:1031F0000545EFE09FEA1305000DEFF0DFAA930508
:10320000400A0545EFE07FE99305100A0545EFE028
:10321000DFE81305000EEFF01FA99305000D05452B
:10322000EFE0BFE791450545EFE03FE7B5450545D0
:10323000EFE0BFE6C5450545EFE03FE6CD45054576
:10324000EFE0BFE59305B0020545EFE01FE593050C
:10325000F0030545EFE07FE4930540050545EFE009
:10326000DFE39305C0040545EFE03FE3E145054595
:10327000EFE0BFE2B5450545EFE03FE2AD4505456E
:10328000EFE0BFE1FD450545EFE03FE1930530028A
:103290000545EFE09FE01305100EEFF0DFA093056A
:1032A000000D0545EFE07FDF91450545EFE0FFDECE
:1032B000B1450545EFE07FDEC5450545EFE0FFDDA3
:1032C000CD450545EFE07FDD9305C0020545EFE004
:1032D000DFDC9305F0030545EFE03FDC9305400498
:1032E0000545EFE09FDB930510050545EFE0FFDAAC
:1032F0009305F0020545EFE05FDAFD450545EFE097
:10330000DFD9FD450545EFE05FD99305000205458E
:10331000EFE0BFD8930530020545EFE01FD8130555
:103320001002EFF05F984545EFF0FF9703A741903B
:103330008967938707F43357F702BA879207998F03
:103340008E073E8981494A85CE85EFD0EFA31305CC
:103350009002EFF05F95B707002083D7273D3E85A9
:1033600031280100B250225412598259724AE24A5D
:10337000524BC24B324CA24C45618280797106D6C9
:1033800022D40018AA87231FF4FC83C781803E87BC
:1033900083C79180B307F7022326F4FE83C7818099
:1033A000C207C183FD1713970701418383C791802B
:1033B000C207C183FD17C207C183BE863A86814515
:1033C0000145EFF01F9621A88357E4FDBE85054512
:1033D000EFE01FD28327C4FEFD172326F4FE8327C8
:1033E000C4FEFDF30100B2502254456182800111F8
:1033F00022CE00102326A4FEB70700200327C4FE18
:1034000023AAE73C0327C4FE854763EAE7001307C6
:1034100070F82384E1804157A384E18001A84157DB
:103420002384E180130770F8A384E18001007244D3
:1034300005618280011122CE0010AA872E872317F2
:10344000F4FEBA872316F4FEB70700200357E4FE04
:103450002398E73CB70700200357C4FE2399E73CB5
:103460000100724405618280011106CE22CC001059
:10347000AA87AE8632872317F4FEB6872316F4FE9A
:10348000BA872315F4FE83C78180C207C18303571F
:10349000E4FEB337F70093F7F70F3E871306F012F9
:1034A000ED67938507EF3A85EF10701D83C7918014
:1034B000C207C1830357C4FEB337F70093F7F70F72
:1034C0003E8713060013ED67938507EF3A85EF10EB
:1034D000101B8356C4FE0356E4FE0357C4FE8357F5
:1034E000E4FEBA853E85EFF0DF838357A4FEBE85F8
:1034F0000545EFE0FFBF0100F240624405618280B4
:10350000797106D622D40018AA87AE863287231F87
:10351000F4FCB687231EF4FCBA87A30DF4FC83C722
:103520008180C207C1830357E4FDB337F70093F7E7
:10353000F70F3E8713060014ED67938507EF3A8572
:10354000EF10F01383C79180C207C1830357C4FDF6
:10355000B337F70093F7F70F3E8713061014ED67A4
:10356000938507EF3A85EF1090118357C4FD9207BA
:10357000231EF4FCA30704FE7DA88347F4FE1397E3
:10358000070141838357C4FDBA9793950701C18111
:103590008357E4FD9D071396070141828347F4FE9C
:1035A0001397070141838357C4FDBA971397070107
:1035B00041838357E4FDBA863E85EFF08FF683079B
:1035C000B4FD938607FE8347F4FE6D6792061307EA
:1035D00087463697BA9783C70700A306F4FE2307EA
:1035E00004FE81A08347D4FE858B91CBB7070020D2
:1035F00083D7073DBE850545EFE09FAF09A8B70714
:10360000002083D7273DBE850545EFE07FAE834789
:10361000D4FE8583A306F4FE8347E4FE85072307D3
:10362000F4FE0347E4FE9D47E3FEE7FA8347F4FE1A
:103630008507A307F4FE0347F4FEBD47E3FFE7F267
:103640000100B250225445618280797106D622D49D
:103650000018AA872E87232CC4FC231FF4FCBA87EA
:10366000231EF4FC83C78180C207C1830357E4FD96
:10367000B337F70093F7F70F3E871306F015ED67A2
:10368000938507EF3A85EF10807F83C79180C2074B
:10369000C1830357C4FDB337F70093F7F70F3E8795
:1036A00013060016ED67938507EF3A85EF10207D2E
:1036B000231704FE81A08357E4FE8E0713970701AA
:1036C00041838357E4FDBA9793960701C1828357DC
:1036D000E4FE032784FDBA97038707008357C4FDE0
:1036E0003A86BE853685EFF0BFE18357E4FE850755
:1036F0002317F4FE8357E4FE032784FDBA978387DC
:103700000700D5FB0100B2502254456182807971D7
:1037100006D622D40018AA87AE863287231FF4FC6F
:10372000B687231EF4FCBA87A30DF4FC83C78180FF
:10373000C207C1830357E4FDB337F70093F7F70FD0
:103740003E8713064017ED67938507EF3A85EF1024
:10375000007383C79180C207C1830357C4FDB33789
:10376000F70093F7F70F3E8713065017ED67938521
:1037700007EF3A85EF10A0708307B4FD63D5070209
:103780000357C4FD8357E4FD1306D002BA853E8576
:10379000EFF01FD78347B4FDB307F04093F7F70F5F
:1037A000A30DF4FC19A80357C4FD8357E4FD1306C9
:1037B0000002BA853E85EFF0BFD40307B4FD93073E
:1037C0004006B347F702E207E18793F7F70F2306B6
:1037D000F4FE0307B4FDA947B347F7021397870127
:1037E0006187A947B367F702E207E18793F7F70F0D
:1037F000A306F4FE0307B4FDA947B367F702E20787
:10380000E18793F7F70F2307F4FEA30704FE91A8BF
:103810008347F4FE8507C207C1838E07139707010C
:1038200041838357E4FDBA97139707014183834788
:10383000F4FE930604FFB69783C7C7FF9387070379
:1038400093F7F70F93968701E1868357C4FD368679
:10385000BE853A85EFF0DFCA8347F4FE8507A307EC
:10386000F4FE0347F4FE8947E3F4E7FA0100B2509F
:10387000225445618280797106D622D40018AA8725
:10388000AE863287231FF4FCB687231EF4FCBA876A
:10389000A30DF4FC83C78180C207C1830357E4FDF5
:1038A000B337F70093F7F70F3E8713066019ED67FC
:1038B000938507EF3A85EF10805C83C79180C2073C
:1038C000C1830357C4FDB337F70093F7F70F3E8763
:1038D00013067019ED67938507EF3A85EF10205AAC
:1038E0000347B4FD93074006B357F70293F7F70F6A
:1038F0002306F4FE0347B4FDA947B357F70213F7B5
:10390000F70FA947B377F70293F7F70FA306F4FE73
:103910000347B4FDA947B377F70293F7F70F2307DF
:10392000F4FEA30704FE89A88347F4FEC207C183FF
:103930008E071397070141838357E4FDBA971397C6
:10394000070141838347F4FE930604FFB69783C7BC
:10395000C7FF9387070393F7F70F93968701E186D5
:103960008357C4FD3686BE853A85EFF07FB983471D
:10397000F4FE8507A307F4FE0347F4FE8947E3F549
:10398000E7FA0100B250225445618280797106D66F
:1039900022D40018AA87AE863287231FF4FCB6878C
:1039A000231EF4FCBA87231DF4FC83C78180C20761
:1039B000C1830357E4FDB337F70093F7F70F3E8752
:1039C0001306201BED67938507EF3A85EF10204B18
:1039D00083C79180C207C1830357C4FDB337F70083
:1039E00093F7F70F3E871306301BED67938507EFBC
:1039F0003A85EF10C0488317A4FD63D5070203572B
:103A0000C4FD8357E4FD1306D002BA853E85EFF06E
:103A10003FAF8357A4FDB307F040C207C183231D06
:103A2000F4FC19A80357C4FD8357E4FD13060002F4
:103A3000BA853E85EFF0DFAC0317A4FD8967938755
:103A40000771B347F702C207C18793F7F70F230443
:103A5000F4FE0317A4FD9307803EB347F7021397C4
:103A600007014187A947B367F702C207C18793F7E8
:103A7000F70FA304F4FE0317A4FD93074006B34712
:103A8000F702139707014187A947B367F702C207F7
:103A9000C18793F7F70F2305F4FE0317A4FDA94789
:103AA000B347F702139707014187A947B367F702A6
:103AB000C207C18793F7F70FA305F4FE0317A4FD10
:103AC000A947B367F702C207C18793F7F70F230629
:103AD000F4FEA30704FE91A88347F4FE8507C207FE
:103AE000C1838E071397070141838357E4FDBA977B
:103AF0001397070141838347F4FE930604FFB697AB
:103B000083C787FF9387070393F7F70F9396870180
:103B1000E1868357C4FD3686BE853A85EFF05F9E09
:103B20008347F4FE8507A307F4FE0347F4FE91479D
:103B3000E3F4E7FA0100B2502254456182807971C2
:103B400006D622D40018AA87AE863287231FF4FC3B
:103B5000B687231EF4FCBA87231DF4FC83C781803B
:103B6000C207C1830357E4FDB337F70093F7F70F9C
:103B70003E871306701DED67938507EF3A85EF10BA
:103B8000003083C79180C207C1830357C4FDB33798
:103B9000F70093F7F70F3E871306801DED679385B7
:103BA00007EF3A85EF10A02D0357A4FD896793878F
:103BB0000771B357F702C207C18393F7F70F2304C6
:103BC000F4FE0357A4FD9307803EB357F702139703
:103BD00007014183A947B377F702C207C18393F76F
:103BE000F70FA304F4FE0357A4FD93074006B35751
:103BF000F702139707014183A947B377F702C2077A
:103C0000C18393F7F70F2305F4FE0357A4FDA947DB
:103C1000B357F702139707014183A947B377F70218
:103C2000C207C18393F7F70FA305F4FE0357A4FD62
:103C3000A947B377F702C207C18393F7F70F2306AB
:103C4000F4FEA30704FE89A88347F4FEC207C183DC
:103C50008E071397070141838357E4FDBA971397A3
:103C6000070141838347F4FE930604FFB69783C799
:103C700087FF9387070393F7F70F93968701E186F2
:103C80008357C4FD3686BE853A85EFF07F8783472C
:103C9000F4FE8507A307F4FE0347F4FE9147E3F51E
:103CA000E7FA0100B2502254456182805D7186C6F8
:103CB000A2C48008AA87232CC4FA3687231FF4FAEB
:103CC000AE87231EF4FABA87A30BF4FA83C7818068
:103CD000C207C1830357E4FBB337F70093F7F70F2D
:103CE0003E871306701FED67938507EF3A85EF1047
:103CF000001983C79180C207C1830357C4FBB33740
:103D0000F70093F7F70F3E871306801FED67938543
:103D100007EF3A85EF10A016034774FBA94763F538
:103D2000E700A947A30BF4FA834774FB8507A30BAD
:103D3000F4FA832784FB63D007021307C4FC03262D
:103D400084FBED67938587F63A85EF10C071AA87EB
:103D5000A307F4FE81A8930700022306F4FC93074F
:103D6000C4FC13871700032684FBED67938587F651
:103D70003A85EF10406FAA87A307F4FE8347F4FE4D
:103D80008507A307F4FE39A88347F4FE130704FF51
:103D9000BA9713070002238EE7FC8347F4FE8507DA
:103DA000A307F4FE0347F4FE834774FBE36EF7FCBE
:103DB000834774FB130704FFBA97238E07FC93060F
:103DC000C4FC0357C4FB8357E4FB3686BA853E85A3
:103DD000EFF0BF870100B6402644616182805D71CB
:103DE00086C6A2C480082328C4FA232AD4FABA8635
:103DF0003E87AA87231FF4FAAE87231EF4FAB687FC
:103E0000A30DF4FABA87230DF4FA83C78180C207A1
:103E1000C1830357E4FBB337F70093F7F70F3E87EF
:103E200013061022ED67938507EF3A85EF10200502
:103E300083C79180C207C1830357C4FBB337F70020
:103E400093F7F70F3E8713062022ED67938507EF60
:103E50003A85EF10C0020347A4FB994763F5E700DA
:103E60009947230DF4FA0347B4FBA94763F5E7002C
:103E7000A947A30DF4FA01468146032504FB8325D7
:103E800044FBEF101109AA8763D20702130784FCD1
:103E9000032604FB832644FBED679385C7F63A852A
:103EA000EF10605CAA87A307F4FE3DA0930784FC93
:103EB00013871700032604FB832644FBED679385D5
:103EC000C7F63A85EF10205AAA87A307F4FE834766
:103ED000F4FE8507A307F4FE8347F4FEE51793F786
:103EE000F70F2306F4FE0347C4FE8347B4FBB30772
:103EF000F74093F7F70FFD1793F7F70F2307F4FE3B
:103F00000347C4FE8347A4FBBA9793F7F70F8507CF
:103F100093F7F70FA306F4FE25A88307D4FE130733
:103F200004FFBA9713070002238CE7FC8307D4FE33
:103F300093F7F70F850793F7F70FA306F4FE8307B0
:103F4000E4FE93F7F70F850793F7F70F2307F4FEC7
:103F50008307E4FEE3C307FC01468146032504FB17
:103F6000832544FBEF10E17AAA8763DC070083070F
:103F7000E4FE130704FFBA971307D002238CE7FC73
:103F800011A88307E4FE130704FFBA971307000282
:103F9000238CE7FC8307D4FE130704FFBA97238C16
:103FA00007FC930684FC0357C4FB8357E4FB368667
:103FB000BA853E85EFF06FE90100B64026446161A5
:103FC00082805D7186C6A2C480082A8E2E83232437
:103FD000C4FC3685BA853E86C2864687F28723179B
:103FE000F4FC9A872316F4FCAA872313F4FCAE870B
:103FF0002312F4FCB2872311F4FCB6872310F4FCDF
:10400000BA87A30FF4FA83C78180C207C18303571D
:10401000E4FCB337F70093F7F70F3E8713068027CA
:10402000ED67938507EF3A85EF00706583C7918050
:10403000C207C1830357C4FCB337F70093F7F70FE8
:104040003E8713069027ED67938507EF3A85EF00CB
:104050001063232604FE232404FE231304FE2312EC
:1040600004FE232004FE232E04FC0357E4FC8357A4
:1040700024FCBA97C207C183FD171396070141823A
:104080000357C4FC835704FCBA97C207C183FD17CA
:1040900093960701C1820357C4FC8357E4FCBA8599
:1040A0003E85EFE01FC8232404FE19A2035744FCF9
:1040B000832784FE3307F702835704FCB357F702C4
:1040C000232EF4FC232604FEC9A8035764FC83278F
:1040D000C4FE3307F702835724FCB357F7022320AB
:1040E000F4FE035764FC8327C4FD3307F7028327DC
:1040F00004FEBA97032784FCBA9783C707002312EC
:10410000F4FE8347F4FBB5E3835744FE8D83C20777
:10411000C183AE072313F4FE835744FE8983C2078D
:10412000C1839607C207C18793F7077E13970701DC
:104130004187831764FED98FC207C1872313F4FE1A
:10414000835744FE8D83C207C183FD8B13970701FC
:104150004183835764FED98F2313F4FE835764FE93
:10416000BE850545EFD0DFF825A08347F4FBC207E5
:10417000C183035744FE6377F70081450545EFD0BF
:104180003FF739A0C1679385F7FF0545EFD05FF68C
:104190008327C4FE85072326F4FE835724FC0327C8
:1041A000C4FEE364F7F2832784FE85072324F4FE2C
:1041B000835704FC032784FEE36AF7EE0100B64050
:1041C000264461618280797106D622D40018AA87BC
:1041D000AE863287231FF4FCB687231EF4FCBA8711
:1041E000231DF4FC231704FE231704FE05A2035726
:1041F000A4FD8547631EF7000357E4FE8356C4FD04
:104200008357E4FD3686BA853E85EFF0EFA5F5A02D
:104210000357A4FD8D47631AF7048357E4FDFD1788
:10422000C207C1830357E4FE8356C4FD3686BA85B0
:104230003E85EFF06FA30357E4FE8356C4FD83571A
:10424000E4FD3686BA853E85EFF00FA28357E4FD84
:104250008507C207C1830357E4FE8356C4FD368633
:10426000BA853E85EFF04FA049A80357A4FD9547B6
:104270006315F7088357E4FDF917C207C183035795
:10428000E4FE8356C4FD3686BA853E85EFF0CF9DA9
:104290008357E4FDFD17C207C1830357E4FE83562D
:1042A000C4FD3686BA853E85EFF00F9C0357E4FEC9
:1042B0008356C4FD8357E4FD3686BA853E85EFF00C
:1042C000AF9A8357E4FD8507C207C1830357E4FE15
:1042D0008356C4FD3686BA853E85EFF0EF98835746
:1042E000E4FD8907C207C1830357E4FE8356C4FD7A
:1042F0003686BA853E85EFF02F978317E4FEC20716
:10430000C1838507C207C1832317F4FE0317E4FEA8
:1043100093076008E3DDE7EC0100B25022544561E9
:1043200082805D7186C6A2C480082A8E2E832324D3
:10433000C4FC3685BA853E86C2864687F287231737
:10434000F4FC9A872316F4FCAA872313F4FCAE87A7
:104350002312F4FCB2872311F4FCB6872310F4FC7B
:10436000BA87A30FF4FA83C78180C207C1830357BA
:10437000E4FCB337F70093F7F70F3E871306403698
:10438000ED67938507EF3A85EF00702F83C7918023
:10439000C207C1830357C4FCB337F70093F7F70F85
:1043A0003E8713065036ED67938507EF3A85EF0099
:1043B000102D232604FE232404FE231304FE2312BF
:1043C00004FE232004FE232E04FC0357E4FC835741
:1043D00024FCBA97C207C183FD17139607014182D7
:1043E0000357C4FC835704FCBA97C207C183FD1767
:1043F00093960701C1820357C4FC8357E4FCBA8536
:104400003E85EFE01F92232404FE29A2035744FCBB
:10441000832784FE3307F702835704FCB357F70260
:10442000232EF4FC232604FED9A8035764FC83271B
:10443000C4FE3307F702835724FCB357F702232047
:10444000F4FE0327C4FD9307801CB307F70203277C
:1044500084FC3E97832704FE8A07BA979C4383C750
:1044600007002312F4FE8347F4FBB5E3835744FEB1
:104470008D83C207C183AE072313F4FE835744FE26
:104480008983C207C1839607C207C18793F7077E56
:10449000139707014187831764FED98FC207C1872D
:1044A0002313F4FE835744FE8D83C207C183FD8B23
:1044B000139707014183835764FED98F2313F4FEBA
:1044C000835764FEBE850545EFD09FC225A0834774
:1044D000F4FBC207C183035744FE6377F7008145AD
:1044E0000545EFD0FFC039A0C1679385F7FF0545AB
:1044F000EFD01FC08327C4FE85072326F4FE835711
:1045000024FC0327C4FEE362F7F2832784FE8507B9
:104510002324F4FE835704FC032784FEE368F7EEAC
:104520000100B640264461618280397106DE22DCDA
:104530004ADA4ED852D656D45AD25ED080002326BC
:10454000A4FC93070008231BF4FC2386018E231F81
:1045500004FC61A0930750FA230CF4FC8357E4FD9C
:104560008A070327C4FCBA978397070093F7F70FCE
:10457000A30CF4FC8357E4FD8A070327C4FCBA9715
:1045800083972700231EF4FC8357C4FDA183C20731
:10459000C18393F7F70F230DF4FC8357C4FD93F702
:1045A000F70FA30DF4FC930784FD1146BE8511455A
:1045B000EFE00F9803A741908967938707F4B357FB
:1045C000F70286073E8B814B5A85DE85EFB0DFFB15
:1045D0008357E4FD8507231FF4FC0357E4FDA5473B
:1045E000E3FAE7F631A803A741908967938707F4B8
:1045F000B357F7023E8A814A5285D685EFB0DFF87D
:1046000083C7C18E93F7F70F8DE3835764FDC2070D
:10461000C1871397070141837D17420741834207F2
:104620004187231BE4FCE340F0FC93070008231BB5
:10463000F4FC2386018E31A803A7419089679387F4
:1046400007F4B357F7023E8981494A85CE85EFB01A
:10465000BFF39387818E03C717009307F00F631A88
:10466000F7009387818E03C727009307F00F63023B
:10467000F702835764FDC207C1871397070141837F
:104680007D174207418342074187231BE4FCE34532
:10469000F0FA835764FDC207C1876344F000854781
:1046A00011A081473E85F25062545259C259325A84
:1046B000A25A125B825B21618280797106D622D474
:1046C0004AD24ED00018232EA4FC930700082313CF
:1046D000F4FE231704FEDDA8930750FA2304F4FE2A
:1046E000C557A304F4FE8357E4FE8A070327C4FDDD
:1046F000BA97839707002316F4FE8357C4FEA1835D
:10470000C207C18393F7F70F2305F4FE8357C4FE56
:1047100093F7F70FA305F4FE930784FE1146BE85B9
:104720001145EFE0EF80930700082313F4FE31A852
:1047300003A741908967938707F4B357F7023E892F
:1047400081494A85CE85EFB03FE483C7C18E93F798
:10475000F70F8DE3835764FEC207C18713970701E4
:1047600041837D1742074183420741872313E4FEBB
:10477000E340F0FC835764FEC207C1876347F00043
:104780008357E4FE99E3854781A82386018E9387AA
:10479000818E83C71700A20793960701C18693876E
:1047A000818E83C727001397070141878357E4FE53
:1047B0008A070326C4FDB297558F4207418723918C
:1047C000E7008357E4FE85072317F4FE0357E4FE52
:1047D000A147E3F3E7F081473E85B25022541259D6
:1047E000825945618280411106C622C4000883C7F0
:1047F000B18E3E879387818EBA97BE851145EFD0E3
:10480000FFFFAA8781CB83C7B18E850713F7F70F08
:10481000A385E18E03C7B18E8547631AF70003C7EE
:10482000818E9307500A6304F700A385018E03C7A6
:10483000B18E8D476317F700A385018E0547238648
:10484000E18E0100B240224441018280411122C622
:10485000000803A7018EB707055098C705472382B4
:10486000E18EB707055083C7070013F7F70FB707A7
:104870000550136717001377F70F2380E700010037
:10488000324441018280011106CE22CC00100D4538
:10489000492A930610051306000589679385075872
:1048A0001145EFD09FFB85451145EFD0DFEC014569
:1048B000EF1040242386018EB7070020138547039D
:1048C000EFF0BFDFAA8791CB1306E014ED67938565
:1048D00007F701456D23854745A02386018EB7075D
:1048E00000201385C700EFF05FC4AA8791CB1306A1
:1048F0005015ED67938507F7014551238547ADA80E
:104900002386018EB707002013854703EFF0FFDAF7
:10491000AA8791CB1306D015ED67938507F701455C
:10492000B92B854791A8EF10001F91473EC49547CA
:104930003EC299473EC09308900213088002930735
:1049400060021307B0049306900413068004A9457F
:104950002545EFB03FC9370700201307C76323A0E1
:10496000E18E03A7018E85469967138607828145EC
:104970003A85EFB05FD781473E85F24062440561DA
:104980008280411106C622C4000883C7318F3E874A
:104990009387018FBA97BE851145EFD03FE6AA876E
:1049A00081CB83C7318F850713F7F70FA389E18E7A
:1049B00003C7318F8547631AF70003C7018F930739
:1049C000500A6304F700A389018E03C7318F8D4716
:1049D0006317F700A389018E0547238AE18E010042
:1049E000B240224441018280411122C6000803A73F
:1049F000018EB707055098C70547A38AE18EB70710
:104A0000055083C7070013F7F70FB7070550136763
:104A100017001377F70F2380E700010032444101AC
:104A20008280011122CE00102326A4FE0327C4FE9B
:104A300023ACE18E0100724405618280011122CE17
:104A400000102326A4FE0327C4FE23AEE18E01003E
:104A5000724405618280411106C622C40008938514
:104A600001900545EFD09FD9054693850190B76722
:104A700000201385C7E5F92B0100B2402244410113
:104A80008280011106CE22CC0010B76700209387E8
:104A9000C7E52324F4FEB7670020938707E72322A6
:104AA000F4FE0545EFF09FF9A30704FEA1A083479C
:104AB000F4FE8A07130704FFBA9703A787FF83470B
:104AC000F4FE8A07930604FFB69783A747FF1306F1
:104AD0000004BE853A85B5219307A008930680049B
:104AE000054681453E85EFC08F988347F4FE8507D4
:104AF000A307F4FE8347F4FEDDDBA30704FE2DA02D
:104B00000547F167938707204946CD46BE853A851C
:104B1000EFD0BFD4854785453E85EFD0DFC58347BD
:104B2000F4FE8507A307F4FE8347F4FEF1DB81471B
:104B30003E85F240624405618280011106CE22CC9E
:104B400000102326A4FE0327C4FE23A2E190192807
:104B50000325C4FE5920EF0070780100F240624442
:104B600005618280411122C60008B71702409843B0
:104B7000B71702401367170098C3B7170240D44312
:104B8000B71702403707FFF8758FD8C3B717024031
:104B90009443B71702403707F7FE7D17758F98C308
:104BA000B71702409443B71702403707FCFF7D1741
:104BB000758F98C3B7170240D443B7170240370721
:104BC00081FF7D17758FD8C3B717024037079F0045
:104BD00098C70100324441018280797122D60018C1
:104BE000232EA4FC232604FE232404FEB717024030
:104BF0009443B71702404167558F98C3B7170240D7
:104C00009843B7070200F98F2324F4FE8327C4FEDC
:104C100085072326F4FE832784FE99E70327C4FE35
:104C200093070050E31CF7FCB71702409843B707FF
:104C30000200F98F89C785472324F4FE19A0232495
:104C400004FE032784FE85476315F71EB72702403D
:104C50009843B72702401367070198C3B72702405C
:104C60009843B7270240719B98C3B72702409443EB
:104C70008327C4FD1387F7FFB7376E01938707605B
:104C8000B357F70213F77700B7270240558F98C341
:104C900037170240B71702405843D8C337170240AE
:104CA000B71702405843D8C337170240B71702401E
:104CB0005843D8C30327C4FDB7177A00938707204A
:104CC000631BF702B7170240D843B7170240719B26
:104CD000D8C3B7170240D843B7170240136717006D
:104CE000D8C30100B7170240DC4313F7C700914750
:104CF000E31AF7FE81A2B7170240D443B717024068
:104D00003707C1FF7D17758FD8C30327C4FDB74789
:104D1000950893870740631BF700B7170240D443F9
:104D2000B71702404167558FD8C355A80327C4FD64
:104D3000B7172707938707E0631CF700B7170240F0
:104D4000D443B717024037073900558FD8C341A85D
:104D50000327C4FDB7E7B80593870780631CF700F6
:104D6000B7170240D443B717024037072900558FC1
:104D7000D8C3B5A00327C4FDB7A74A04938707206B
:104D8000631CF700B7170240D443B7170240370738
:104D90001D00558FD8C3A1A00327C4FDB777DC023F
:104DA000938707C0631CF700B7170240D443B717B7
:104DB000024037071100558FD8C315A00327C4FD43
:104DC000B7376E0193870760631BF700B717024080
:104DD000D443B717024037070500558FD8C3B7171C
:104DE00002409443B717024037070001558F98C31C
:104DF0000100B71702409843B7070002F98FF5DBAF
:104E0000B7170240D843B7170240719BD8C3B717F2
:104E10000240D843B717024013672700D8C30100E8
:104E2000B7170240DC4313F7C700A147E31AF7FEA8
:104E300011A001A0325445618280411122C60008B0
:104E400001000100324441018280411106C622C4A2
:104E500000089306100213060002F16793850720ED
:104E60000945EFD09F9F85450945EFD0DF90054765
:104E70002384E1900100B24022444101828001116B
:104E800006CE22CC0010AA872324B4FE2322C4FE1F
:104E9000A307F4FE8347F4FE95E383C7819091CB8B
:104EA000032644FE832584FEED671385C7FEEF309D
:104EB000E130EF005046EFF05FF8F5BF0100F2403F
:104EC000624405618280797106D622D40018232EAF
:104ED000A4FC232CB4FC232AC4FC232604FEA9A092
:104EE0000100ED67938787449C47930500043E8546
:104EF000EFC06051AA87F5D7ED67938787449C4739
:104F0000BE86832784FD13871700232CE4FC838748
:104F10000700C207C183BE853685EFC0E04B8327FB
:104F2000C4FE85072326F4FE0327C4FE832744FD21
:104F3000E348F7FA832744FD3E85B2502254456189
:104F40008280011122CE00102326A4FE2324B4FE69
:104F50002322C4FE832784FE99E385470DA8832777
:104F6000C4FE032784FE98C38327C4FE23A2070040
:104F70008327C4FE23A407008327C4FE032744FE1F
:104F8000D8C78327C4FE032744FE98CB81473E85BC
:104F9000724405618280011122CE00102326A4FEF6
:104FA0002324B4FE8327C4FED843832784FE3E9780
:104FB0008327C4FED8C319A88327C4FED8438327F8
:104FC000C4FE9C4B1D8F8327C4FED8C38327C4FE19
:104FD000984B8327C4FEDC43E3F0E7FE01007244F4
:104FE00005618280011122CE00102326A4FE232415
:104FF000B4FE8327C4FE9847832784FE3E97832709
:10500000C4FE98C719A88327C4FE98478327C4FE07
:105010009C4B1D8F8327C4FE98C78327C4FE984BE3
:105020008327C4FE9C47E3F0E7FE0100724405615C
:105030008280011122CE00102326A4FE8327C4FE05
:10504000984B8327C4FEDC47B307F7403E85724484
:1050500005618280797106D622D40018232EA4FC23
:10506000232CB4FC232AC4FC8327C4FDDC4703277C
:1050700044FD6371F70EEF00102A8327C4FD984B9F
:105080008327C4FDDC43B307F7402326F4FE032740
:1050900044FD8327C4FE63FDE7068327C4FD9843D0
:1050A0008327C4FDDC43BA970326C4FE832584FD11
:1050B0003E85EF2041668325C4FE0325C4FDEFF045
:1050C0009FED032784FD8327C4FEBA97232CF4FCAD
:1050D0008327C4FD98438327C4FDDC43B306F70050
:1050E000032744FD8327C4FEB307F7403E8683258C
:1050F00084FD3685EF202162032744FD8327C4FE0B
:10510000B307F740BE850325C4FDEFF0DFE82DA00F
:105110008327C4FD98438327C4FDDC43BA97032645
:1051200044FD832584FD3E85EF20E15E832544FD1B
:105130000325C4FDEFF03FE68327C4FDD84783274E
:1051400044FD1D8F8327C4FDD8C70145EF00901A89
:10515000814711A089473E85B25022544561828023
:10516000797106D622D426D20018232EA4FC232C33
:10517000B4FC232AC4FC2328D4FCA30704FE832701
:1051800044FD84430325C4FDEFF0BFEAAA8763FF13
:1051900097008327C4FD984B8327C4FDDC471D8FF0
:1051A000832744FD98C38547A307F4FE8327C4FDE6
:1051B000984B8327C4FD9C47B307F7402324F4FE94
:1051C000832744FD9C43032784FE6366F7028327FD
:1051D00084FDBDC78327C4FD98438327C4FD9C4736
:1051E0003E97832744FD9C433E86BA85032584FD74
:1051F000EF206152B1A0832784FDB9C38327C4FD8A
:1052000098438327C4FD9C47BA97032684FEBE8536
:10521000032584FDEF202150032784FD832784FE8E
:10522000B306F7008327C4FD8C43832744FD9843CE
:10523000832784FEB307F7403E863685EF20A14DD5
:10524000832704FD85EBEF00100D832744FD9C436D
:10525000BE850325C4FDEFF0FFD88327C4FDD847E2
:10526000832744FD9C433E978327C4FDD8C701454F
:10527000EF0050088347F4FE99C38D4711A0814782
:105280003E85B2502254925445618280797122D673
:105290000018232EA4FC0327C4FD9167938707659C
:1052A000B307F7022326F4FE01008327C4FE138709
:1052B000F7FF2326E4FEF5FB0100325445618280AE
:1052C000797122D60018232EA4FC232CB4FCB287BB
:1052D0003687A30BF4FCBA87230BF4FCA30304FE6C
:1052E000230304FE834774FDA5CB8327C4FD232637
:1052F000F4FE8327C4FE63D807008327C4FEB307E8
:10530000F0402326F4FE834764FD0327C4FEB36701
:10531000F70293F7F70F9387070393F7F70F1397A6
:1053200087016187832784FD2380E700834764FD2D
:105330000327C4FEB347F7022326F4FE834764FE27
:1053400085072303F4FE8327C4FEC9C3832784FD96
:105350008507232CF4FC45BF8327C4FD2324F4FEDA
:10536000834764FD032784FEB377F702A303F4FEAB
:10537000034774FEA54763F9E700834774FE9387EC
:105380007703A303F4FE39A0834774FE93870703D2
:10539000A303F4FE030774FE832784FD2380E70044
:1053A000834764FD032784FEB357F7022324F4FEEA
:1053B000834764FE85072303F4FE832784FE89CB9D
:1053C000832784FD8507232CF4FC59BF010011A01D
:1053D0000100834764FE3E853254456182807971C5
:1053E00022D60018232EA4FC232CB4FC232604FE72
:1053F00085A0032784FD8327C4FEB307F740FD176C
:105400000327C4FDBA9783C70700A305F4FE03274B
:10541000C4FD8327C4FE3E97832684FD8327C4FEF4
:10542000B387F640FD178326C4FDB6970307070030
:105430002380E7000327C4FD8327C4FEBA970347F0
:10544000B4FE2380E7008327C4FE85072326F4FEED
:10545000832784FD85830327C4FEE36CF7F80100EE
:10546000325445618280717106C722C50009232E1E
:10547000A4F6232CB4F610C454C418C85CC8232C5A
:105480000401232E1401232604FE93070402A1170E
:105490002326F4FA2DAB832784F783C70700A301E3
:1054A000F4FE030734FE930750026319F74E832777
:1054B00084F78507232CF4F6832784F78387070076
:1054C0009387B7FD13073005636DF74E13972700D9
:1054D000F167938787A5BA979C4382878327C4FA8D
:1054E000138747002326E4FA9C432301F4FE832715
:1054F000C4F7034724FE2380E7008327C4F785070A
:10550000232EF4F68327C4FE85072326F4FE5DA927
:105510008327C4FA138747002326E4FA9C43232EEB
:10552000F4FC8327C4FD130784F8A9460546BA8511
:105530003E85EFF0FFD8AA87A305F4FE8327C4FDBC
:1055400063D007028347B4FE130704FFBA9713071B
:10555000D002238CE7F88347B4FE8507A305F4FE49
:105560000347B4FE930784F8BA853E85EFF03FE722
:105570000347B4FE930784F83A86BE850325C4F733
:10558000EF2061198347B4FE0327C4F7BA97232E8F
:10559000F4F68347B4FE0327C4FEBA972326F4FE2D
:1055A00015A18327C4FA9D07E19B13878700232653
:1055B000E4FA03A847009C432328F4FC232A04FDB3
:1055C000032504FD832544FDEF00715FAA873E8714
:1055D000930784F8A9460546BE853A85EFF05FCE6D
:1055E000AA872305F4FE01468146032504FD832591
:1055F00044FDEF000112AA8763D007028347A4FE8F
:10560000130704FFBA971307D002238CE7F88347E8
:10561000A4FE85072305F4FE0347A4FE930784F840
:10562000BA853E85EFF0BFDB0347A4FE930784F8FD
:105630003A86BE850325C4F7EF20E10D8347A4FE1B
:105640000327C4F7BA97232EF4F68347A4FE032753
:10565000C4FEBA972326F4FE032504FD832544FDEA
:10566000EF00F155AA873E85EF00F15BAA872E88EF
:105670003E86C286032504FD832544FDEF0041607C
:10568000AA872E883E85C285ED6703A6070483A6F8
:105690004704EF006113AA872E882328F4FC232AED
:1056A00004FD01468146032504FD832544FDEFF0FA
:1056B000D074AA878DC7032504FD832544FDEF0020
:1056C0001150AA873E87930784F8A9460546BE85F0
:1056D0003A85EFF0FFBEAA872305F4FE99A8930749
:1056E0000003A306F4F88307D4F82306F4F883072D
:1056F000C4F8A305F4F88307B4F82305F4F8830786
:10570000A4F8A304F4F8830794F82304F4F8994761
:105710002305F4FE39A88347A4FE130704FFBA97B4
:1057200013070003238CE7F88347A4FE85072305AE
:10573000F4FE0347A4FE9547E3FFE7FC8347A4FE7E
:10574000130704FFBA971307E002238CE7F8834797
:10575000A4FE85072305F4FE0347A4FE930784F8FF
:10576000BA853E85EFF0BFC70347A4FE930784F8D0
:105770003A86BE850325C4F7EF10F1798347A4FE6E
:105780000327C4FEBA972326F4FE2DAC8327C4FA60
:10579000138747002326E4FA9C432326F4FC93074F
:1057A00084F8A9460146BE850325C4FCEFF05FB12D
:1057B000AA87A305F4FC0347B4FC930784F8BA85D1
:1057C0003E85EFF0DFC10347B4FC930784F83A86C7
:1057D000BE850325C4F7EF1011748347B4FC03277B
:1057E000C4F7BA97232EF4F68347B4FC0327C4FE0C
:1057F000BA972326F4FEF9A28327C4FA1387470039
:105800002326E4FA9C432322F4FC930784F8A14660
:105810000146BE85032544FCEFF09FAAAA87A30199
:10582000F4FC034734FC930784F8BA853E85EFF017
:105830001FBB034734FC930784F83A86BE850325D3
:10584000C4F7EF10516D834734FC0327C4F7BA97B0
:10585000232EF4F6834734FC0327C4FEBA9723268D
:10586000F4FE8DA28327C4FA138747002326E4FAA7
:105870009C43232EF4FA930784F8C1460146BE8563
:105880000325C4FBEFF0DFA3AA87A30DF4FA0347B7
:10589000B4FB930784F8BA853E85EFF05FB4034705
:1058A000B4FB930784F83A86BE850325C4F7EF104E
:1058B00091668347B4FB0327C4F7BA97232EF4F607
:1058C0008347B4FB0327C4FEBA972326F4FEDDA862
:1058D0008327C4FA138747002326E4FA9C43232234
:1058E000F4FE05A8832744FE038707008327C4F737
:1058F0002380E7008327C4F78507232EF4F6832748
:10590000C4FE85072326F4FE832744FE8507232251
:10591000F4FE832744FE83870700E9F765A0832709
:10592000C4FA138747002326E4FA9C43232AF4FA97
:10593000930784F8C1460146BE85032544FBEFF07A
:105940003F98AA87A309F4FA930784F8A1453E85F6
:10595000EFF0FFA8930784F82146BE850325C4F71E
:10596000EF10715B8327C4F7A107232EF4F683277A
:10597000C4FEA1072326F4FEB1A08327C4F71307B2
:1059800050022380E7008327C4F78507232EF4F60F
:105990008327C4FE85072326F4FE2DA0832784F7E2
:1059A000038707008327C4F72380E7008327C4F712
:1059B0008507232EF4F68327C4FE85072326F4FEED
:1059C00011A00100832784F78507232CF4F6832791
:1059D00084F783870700E39007AC8327C4FE3E85E6
:1059E000BA402A444D618280011122CE0010232644
:1059F000A4FE8327C4FEFD8B0547B316F70037E7E7
:105A000000E08327C4FE9583938707048A07BA972B
:105A100094C30100724405618280011122CE0010FE
:105A20002326A4FE8327C4FEFD8B0547B316F7008B
:105A300037E700E08327C4FE9583938707068A072C
:105A4000BA9794C30100724405618280011122CE8D
:105A500000102326A4FEAE87A305F4FE37E700E07E
:105A60008327C4FEBA970347B4FE2380E7400100B2
:105A7000724405618280011106CE22CC00102326DB
:105A8000A4FE0325C4FEEFF03FF60100F24062449D
:105A900005618280011106CE22CC00102326A4FECF
:105AA0000325C4FEEFF07FF70100F2406244056178
:105AB0008280011106CE22CC00102326A4FEAE87E0
:105AC000A305F4FE8347B4FEBE850325C4FEEFF0B4
:105AD000FFF70100F240624405618280411106C671
