:100000006FC0E02D1300000013000000130000007B
:100010001300000013000000130000001300000094
:100020001300000013000000130000001300000084
:08003000130000007300100032
:100038000000000000000000FEBD000002BE00003D
:100048000000000024C200000000000000000000C2
:1000580026C2000028C200000000000000000000C6
:100068002AC20000000000002CC2000000000000AE
:100078002EC2000030C2000032C2000034C20000AC
:1000880036C2000038C2000092BA0000AABA0000C6
:10009800C4BA0000DEBA0000F8BA000044C200008A
:1000A80046C2000048C200004AC200004CC200001C
:1000B8004EC2000050C2000052C2000054C20000EC
:1000C80056C2000058C200005AC2000012BB00000D
:1000D8005EC200005ABC000062C2000064C2000098
:1000E80088BC0000A6BC0000D4BC00006CC20000A4
:1000F8006EC2000070C2000072C2000074C200002C
:1001080076C20000D6B8000008B900004AB900005D
:1001180090BB000080C2000082C2000084C20000C0
:1001280084BD000088C200008AC200008CC20000A2
:100138008EC2000090C2000002BD000094C2000000
:100148007CB90000AEB9000030BD000052BD00000F
:100158009EC20000A0C20000A2C20000A4C200000B
:10016800A6C20000A8C20000AAC20000ACC20000DB
:10017800AEC20000B0C20000B2C200007CD50000D0
:10018800B6C20000B8C2000062BA0000D4B90000CC
:100198000ABA000040BA0000C2C20000B2BD0000A6
:1001A800C6C20000C8C20000CAC20000E0BD00000C
:1001B800CEC20000D0C20000D2C20000D4C20000EB
:1001C800D6C20000D8C20000DAC20000DCC20000BB
:1001D8000000000000000000000000000000000017
:1001E8000000000000000000000000000000000007
:0801F8000000000000000000FF
:10020000737504308280B76200009382820873A005
:10021000023082803D432A876373C3029377F700DD
:10022000BDEFADE5937606FF3D8ABA960CC34CC38D
:100230000CC74CC74107E36BD7FE11E28280B306BF
:10024000C3408A069702000096966780A60023079F
:10025000B700A306B7002306B700A305B700230520
:10026000B700A304B7002304B700A303B700230318
:10027000B700A302B7002302B700A301B700230110
:10028000B700A300B7002300B700828093F5F50FF5
:1002900093968500D58D93960501D58D61B793967C
:1002A00027009702000096968682E78086FA96805D
:1002B000C1171D8F3E96E374C3F8A5B739CD054726
:1002C000630DE5040947630AE5040D476307E50488
:1002D00011476304E50415476301E5041947630EFC
:1002E000E5021D47630BE50221476302E50425474C
:1002F0006305E50429476308E5042D47630BE5041E
:1003000031476300E5023547630BE5043947630E67
:10031000E5043D476301E50682808146014681454B
:10032000EDA181460146814513052004F9A98146C6
:100330000146814513050002C9A981460146814550
:1003400013051002D9A18146014681451305000419
:100350006DA9814601468145130510047DA18146A2
:1003600001468145130530044DA181460146814572
:100370001305400459A981460146814513055004DF
:1003800069A1411122C4372401404AC09146054663
:100390002E899375F50F1305044006C626C2EFC0DB
:1003A0000020130504408545B7240140EFC0801D9F
:1003B0001384044089452285EFC0402A65DD03A5EA
:1003C000C444B240224433552501420592440249B7
:1003D000418141018280797106D622D426D202C0A1
:1003E00002C202C402C602C802CA02CC02CEF93559
:1003F000854513050020EFC0D01201453724014088
:10040000EFC0A07D13050440EFC08009B7070E00C0
:10041000130504408A853EC68547230AF10002C0C1
:1004200002C202C402C8EFC0C00C130504408545D7
:10043000EFC0E011130504408145EFC0C022130551
:100440000440B7240140EFC0A0111384044022856A
:10045000EFC0A0116DFD1385044037240140EFC0AB
:100460004011130404402285EFC040116DFDB250CD
:100470002254925445618280B7F700E023A0070020
:100480008146014794C7D8C7054798C337F700E0AE
:100490001047544763E6D500E39CB6FEE37AC5FEF9
:1004A000828079715EC662C466C2328CAE8CB68BB5
:1004B000014693068004814506D622D426D24AD02E
:1004C0004ECE52CC56CA5AC8BE8A3A8B428AC68988
:1004D0008344010303494103034481033D266685A8
:1004E00093068004014681450D26628593068004AB
:1004F00001468145192E5E8593068004014681459B
:1005000029265A859306800401468145FD2C56858F
:100510009306800401468145CD2C528593068004C4
:1005200001468145DD244E859306800401468145C0
:10053000E92C4A859306800401468145F9242685E5
:100540009306800401468145C92422852254B25075
:1005500092540259F249624AD24A424BB24B224C5F
:10056000924C9306800401468145456179AC0111A6
:1005700022CC26CA2E84AA848545096506CE4AC89F
:100580004EC63289B689EFC0E077B707055003C77A
:100590000700130560058D451377F70C2380E700EE
:1005A00003C70700136727042380E70003C717006A
:1005B0001377970FA380E700239237012393270136
:1005C00084C7C0C703C717001377F703A380E700EA
:1005D00003C717001377F70FA380E70003C72700AF
:1005E000136747002381E70003C71700136717004D
:1005F000A380E70003C70700136717002380E70005
:10060000EF3050076244F240D2444249B2491305E8
:10061000600505616F30D002D9679387C7500A051E
:100620003E951C4103D7470203D547024205418549
:100630008280D9679387C7500A053E951C41239253
:1006400007028280011122CC2E84914506CE26CA53
:100650004AC8AA843289EF00706EB765010013069C
:10066000D00793858531EF2050792685EF00F06E15
:1006700093068004014681451375F40F7922814564
:100680009306800401461375F90F412293558400A7
:1006900085476388F504C5476381F50C930710020D
:1006A0006385F50C93072002638AF508930710030E
:1006B000638CF50C930710076381F50C9307100802
:1006C0006386F508930710096385F50C93072009E5
:1006D0006390F502370701405C4F93E707025CCF58
:1006E00001A83705160085451305050CEFC08044A9
:1006F00085450545EFC0E0624800EFC01034D9677A
:100700009387C7508A04BE948040C167FD174C0090
:1007100022853EC402C223060100EFC02076228556
:1007200093050006EFC0303822858545EFC0703252
:10073000F2406244D24442490561828037151A0072
:10074000854513050580EFC0E03E5DB737070140E2
:100750005C4F93E707015CCF61BF37051800854503
:1007600013050530EFC0003D61B737151A00854508
:10077000130505C0EFC0003CA5BF370701405C4F23
:1007800093E747005CCFADB785450565EFC0803A7C
:1007900085B7370701405C4F93E707045CCF89BFFB
:1007A0009357550013972700D96793870739BA974E
:1007B0003D89984385473395A70099C108CB82802E
:1007C00048CB8280135735009376C70159671307CA
:1007D00007393697184385473395A7001C477D8D09
:1007E0003335A00082809357350013F7C701D967CE
:1007F00093870739BA9798439377F500054554478F
:100800003315F500358D48C78280797106D622D41C
:1008100026D24AD04ECE52CC02C202C402C69307A0
:10082000F00F630DF506135455001D889374F50001
:100830003689B2892E8A0DC885476304F40A894730
:100840006306F40A8D476308F40A9147630BF40AC0
:100850009547630EF40A9947631CF4008545130518
:100860000010EFC0004C29A085451145EFC0604B3A
:100870000547B3149700C204D96793870739C1802D
:100880000A043E94231291009377F90F0040630FFE
:10089000EA004C0022853EC6EFB01061B2502254EF
:1008A00092540259F249624A4561828042091359C1
:1008B000090113598900631309000D494C00228571
:1008C0004AC43EC6EFB0505E4E86A6852285EFC074
:1008D000C025B250225492540259F249624A4561ED
:1008E000828085452145EFC0C04359B785454145C4
:1008F000EFC02043B5BF854513050002EFC060423D
:1009000085BF854513050004EFC0A04195B7854517
:1009100013050008EFC0E040A1BFD9679387072FF8
:1009200003AF070083AE470003AE870003A3C700F1
:1009300083A8070103A84701D44F9853904FDC5375
:100940001D71A6CAAE84854586CE7ACC76CE72D08D
:100950001AD246D442D636DA3ADCA2CCCAC8CEC6BF
:10096000D2C43EDE2A843769010032D8EF00103D40
:100970009305493A13065002EF20304813066002EF
:100980009305493A33359000EF2030472285EF0038
:10099000D03C13DAF40093170A01C1838507B3D45E
:1009A000F402D967931924009387C750CE9703A9FF
:1009B00007006C00231641014A8523190100231703
:1009C0000100230A01001374F40F0A042318910094
:1009D000EFC0C04A05464A858545EFC0300B4A85C1
:1009E0008545EFC0101B9C003E94032584FD8D457A
:1009F000EF3040489C00BE9903A589FDEF3040448C
:100A00004A858545EFC0F004F6406644D644464921
:100A1000B649264A25618280630305208547630C19
:100A2000F52089476303F5208D47630CF520C14706
:100A3000630FF520C5476303F522C9476307F52215
:100A4000CD476301F524930700106304F524930751
:100A500010106306F524930720106308F52493070C
:100A60003010630AF524930700116307F5209307FC
:100A700010116308F52493072011630BF5249307E5
:100A80003011630EF524930700206301F5269307C8
:100A900010206303F526930720206305F5269307AE
:100AA00030206308F52693070021630BF526930792
:100AB0001021630EF526930720216301F528930783
:100AC00030216304F528930700226307F528930774
:100AD0001022630AF52893070030630DF528930769
:100AE00010306300F52A930720306303F52A93073B
:100AF00030306304F52C930700316309F52A93071E
:100B00001031630EF52893072031630FF52A930700
:100B100030316302F52C93070040630CF516930700
:100B20001040630EF516930720406300F5189307F5
:100B300030406302F518930700706303F51E9307B6
:100B400010706306F51E930720706309F51E930766
:100B50003070630CF51E93070071630DF520930749
:100B600010716300F522930720716303F522930748
:100B700030716300F5289307058063880712856745
:100B8000138717806309E512138727806301E5281F
:100B9000938737806306F526856713870781630F80
:100BA000E52C138717816304E52C138727816308DD
:100BB000E51E138737816300E522138707906309D9
:100BC000E51C13871790630AE51E138727906309B6
:100BD000E52813873790630EE52613870791630393
:100BE000E526938717916308F52485671387279176
:100BF000630CE522138737916301E522138707927F
:100C00006301E50C138717926308E5141387279295
:100C1000630BE514938737926306F51C8280930675
:100C20008031014685452145CDB693068031014688
:100C300085452945D9BE9306803101468545254520
:100C4000E9B693068031014685452D457DBE930664
:100C50008031014685451305900845BE93068031D5
:100C6000014685451305B0084DB69306803101460F
:100C700085451305D00851BE930680310146854550
:100C80003D4561B693068031014685451305E00870
:100C9000ADBE93068031014685450145BDB693063C
:100CA00080310146854505458DB693068031014664
:100CB0008545094599BE93068031014685450D4518
:100CC000A9B693068031014685451305300235BE2D
:100CD00093068031014685451305A0023DB6930673
:100CE0008031014685451305B00205B69306803173
:100CF00001468545194511BE93068031014685455B
:100D00001D4521B693068031014685451305000235
:100D1000EDBC930680310146854513051002F5B4FC
:100D2000930680310146854513056004F9BC93069E
:100D300080310146854513057004C1BC930680319E
:100D40000146854513058004C9B4930680310146E8
:100D500085451305900455BC9306803101468545B1
:100D6000130540025DB493068031014685451305A5
:100D7000500261BC9306803101468545130560022F
:100D800069B4930680310146854513057002B5BCF0
:100D9000930680310146854513058002BDB4930654
:100DA0008031014685451305D00685B49306803110
:100DB000014685451305C00689BC9306803101466E
:100DC00085451305900291B493068031014685450F
:100DD0001305E0061DBC93068031014685451305C9
:100DE000F00625B493068031014685451305F004CD
:100DF00029BC93068031014685451305D00431B4E2
:100E0000930680310146854513054004FDBA9306DB
:100E10008031014685451145CDBA930680310146A2
:100E2000854513057006D5B2930680310146854588
:100E300013055006D9BA930680310146854513053E
:100E40003006E1B293068031014685451305100650
:100E50006DBA93068031014685451305B00475B21D
:100E600093068031014685451305300479BA93060F
:100E70008031014685451305B00641BA930680319D
:100E8000014685451305900649B293578500596779
:100E90001307C7508A07BA979443454783D7C602BA
:100EA000B385F5026302E5046364E502FD77938789
:100EB000076FAA970D47636DF7009307803E0D8972
:100EC000B3D5F5020A053695C205C1814CD9828099
:100ED000896793870771B3D5F5020D890A053695A1
:100EE000C205C1814CD98280E1679387076AB3D577
:100EF000F5020D890A053695C205C1814CD982805B
:100F0000397126DA9354850022DC4ED62A84AE89C4
:100F100026858D4506DE4AD832890D25B765010044
:100F20001306900B93858541EF20206D268535258E
:100F30002285DD3485450545EFB0B05E935744000A
:100F400005476388E70445476386E71813071002DF
:100F50006388E71A130720026384E714130710035A
:100F6000638FE71A130710076384E71A1307100843
:100F70006380E714130710096388E71A1307200931
:100F80006390E702370701405C4F93E707025CCFAD
:100F900001A83705160085451305050CEFB09039FB
:100FA00083A5C1844545B3D73503C1839386170014
:100FB000B3863603139707014183B3D5D502139641
:100FC00005014182B28533092603630AA40A6364DA
:100FD000A40AFD779387076FA2978D469309803EF9
:100FE00063EBF608D9679387C7508A04BE948440A0
:100FF0009387F5FF4C0026852314F1002312E100AE
:10100000231501002313010023060100EFB0106730
:1010100033563903C167938707073EC8B7070200F5
:101020008907231A01003ECC02CE0D88231BC10084
:1010300039C885476308F40A89470C082685630088
:10104000F408EFC0A015A1452685EFC0A02B93059D
:1010500000402685EFC0803026858545EFC06021A1
:1010600026858545EFC0E01EF2506254D2544259A5
:10107000B25921618280096693090671A5B761663C
:101080009309066A85B70C082685EFB0906C268513
:10109000A145EFC0402391452685EFC040286DBF94
:1010A00037151A00854513050580EFB0B028CDBD72
:1010B000370701405C4F93E707015CCFD5B5EFC020
:1010C000E0002685A145EFC0C02291452685EFC0EE
:1010D000C02759B737051800854513050530EFB00F
:1010E00070257DBD0C082685EFB030712685A145A1
:1010F000EFC0801E930500402685EFC06023A9BF86
:1011000037151A008545130505C0EFB0B02249BD5B
:10111000370701405C4F93E747005CCF51B58545E9
:101120000565EFB03021ADBD370701405C4F93E757
:1011300007045CCFB5B5411122C426C24AC006C619
:10114000AE843284368955C5C1476302F5109307D2
:1011500000026301F51293070003630AF50E93077B
:101160000004630DF514B765010013069002938522
:10117000C5480145EF20604889476386F408C947A0
:101180006385F40A930720026388F4109307200311
:10119000638DF408930720046387F40EB76501009C
:1011A000130600039385C5480145EF200045854798
:1011B0006305F406C5476303F4089307100263064A
:1011C000F40E930710046304F410930710036307ED
:1011D000F4069307F00F6315F4082244B2409244DA
:1011E0004A850249930600310146854541016FF069
:1011F000CFE193068031054685451545EFF0EFE0D8
:101200008947E39EF4F693068031054685451D45E2
:10121000EFF0AFDF8547E31FF4F893064030054653
:1012200081451945EFF06FDE4DBF930680310546CD
:10123000854513055002EFF04FDD95BF9306403012
:101240000546814513054002EFF02FDC79B7930680
:1012500080310546854513053002EFF00FDB29BFCD
:10126000B7650100130680039385C5480145EF204B
:10127000C038A5B793068031054685451305D002D1
:10128000EFF0AFD8D5BD93068031054685451305EF
:10129000C004EFF08FD721BF930680310546854506
:1012A0001305F002EFF06FD619B7930640300546EC
:1012B00081451305E002EFF04FD505B79306803165
:1012C000054685451305A004EFF02FD475B59306A8
:1012D0004030054681451305B004EFF00FD3F5BD4E
:1012E0005D7193182500CAC02A89596513050550F8
:1012F00046954EDE8329050086C6A2C44E85A6C249
:1013000052DC56DA5AD85ED63E8BAE84B28B368A21
:10131000BA8A4284EFB0702885450545EFB0702049
:10132000C1476309FA0E930700046316FA00930796
:1013300020046385FA16630B090E85476301F918CB
:1013400089476309F916A2865A86D6855285E53300
:10135000B70704013EC62318010085476380F40ED9
:10136000638C04100947638AE40E8D466385D408B4
:1013700003A4C1939307F00F3354740342044180D4
:1013800063F2870413048003930700206C004E85EA
:10139000231BF1009D47231C8100231EF100231D08
:1013A0000100EFB0B0254E858545EFB0102BB6405B
:1013B000264496440649F259625AD25A425BB25BBD
:1013C000616182809307F00763E787069307F00364
:1013D00063E3870CFD4763E9870EBD4763E9870E2A
:1013E0009D4763E8870E8D4763E7870E854763F661
:1013F000870E014451BF231AF10003A4C19323199E
:10140000E1009307F00F3354740342044180E3EB8F
:1014100087F64DBFC947E390FAF2C547E31DFBF0DD
:1014200085450545EFB00071E31909F0854505656F
:10143000EFB0300F09BF13040003B9B703A4C19381
:1014400023190100231A9100335474039307F00FFA
:1014500042044180E3E887F2B5B703A4C19323199E
:101460009100231A0100335474039307F00F4204D0
:101470004180E3E987F0B9B703A4C19323190100C0
:10148000231A0100335474039307F00F4204418080
:10149000E3EA87EE05BF13048002FDB5930710044D
:1014A000E31BFBE837152000854513050510EFB059
:1014B000606851B585452165EFB0900869B58545EF
:1014C0001165EFB0F00741B51304000275BD61442A
:1014D00065BD414455BD214445BDB76501001306B6
:1014E000D0089385C5480145EF20201171BDD9670B
:1014F0000A0593870750AA9798432316B700835786
:10150000870093F70708E5FF8280D9670A0593876C
:101510000750AA97984393D785002316F70083575F
:10152000870093F70708E5FF93F5F50F2316B7003B
:101530008357870093F70708E5FF828093172500FC
:101540001385C1A73E951C4181E70CC105458280EA
:101550003385B74013351500828021C10547630BE1
:10156000E50209476308E5020D47630EE5021147EE
:10157000630FE50215476300E50419476301E504BD
:101580001D476303E50421476304E504254763061B
:10159000E504828085456FB0A07A05658545130511
:1015A00005806FB00078854511456FB0607985453D
:1015B00021456FB0E078854541456FB0607885453D
:1015C000130500026FB0C077854509656FB060757F
:1015D0008545370508006FB0C07485453705100094
:1015E0006FB02074411122C406C62E8441C98947B8
:1015F000630BF516C147630BF512C947630AF51A69
:10160000930700026305F51C93072002630AF5188F
:1016100093074002630CF51C930700046302F5185E
:10162000930720046302F520930700056305F52264
:10163000930720056300F5249377D5FF1307000671
:101640006383E720930700076301F51C93072007D6
:10165000630EF524930740076308F52693070008F7
:101660006303F528930720086310F502E14601465D
:1016700085451305E008EFF04F9939A0E146014692
:1016800085452545EFF06F9885476307F4088D473A
:101690006300F40CC5476300F40ECD476307F40EF6
:1016A00093071002630EF410930730026307F408E7
:1016B000930750026305F41293071004630FF406B6
:1016C00093073004630BF414930710056306F416B4
:1016D000930730056309F418930710066304F41A9E
:1016E000930730066307F41A930710076308F41092
:1016F000930730076306F41A93075007630FF41A31
:1017000093071008630AF41C930730086305F41E5E
:10171000B240224441018280930680040146814503
:1017200029452244B24041016FF02F8EE146014627
:1017300085450945EFF06F8D81BF2244B240930685
:101740008004014681451305B00441016FF0EF8B21
:101750002244B2409306800401468145130570027D
:1017600041016FF08F8AE14601468545130560020D
:10177000EFF0AF8911BF2244B240930680040146C6
:1017800081450D4541016FF04F882244B2409306D8
:101790008004014681451305600641016FF0EF8624
:1017A000E146014685451305A004EFF00F86E9BD2B
:1017B000E1460146854513055006EFF00F85E9B572
:1017C00093068004014681451305B00299BFE146A6
:1017D000014685451305A002EFF02F8375B59306EA
:1017E0008004014681451305900625BFE146014668
:1017F000854513058006EFF04F8179B59306800487
:10180000014681451305300429BFE146014685455F
:1018100013052004EFE07FFF85BD93068004014699
:10182000814513051002F5BDE146014685451305C6
:101830000002EFE09FFD89BD9306800401468145CB
:1018400013052006F9BDE146014685451305000450
:10185000EFE0BFFB15BDE146014685451305C00419
:10186000EFE0BFFA15B593068004014681451305E4
:10187000900845BDE1460146854513058008EFE027
:10188000DFF819B59306800401468145130510045D
:1018900049BD93068004014681451305B00851B542
:1018A00093068004014681451D45A5BDE1460146DC
:1018B00085451945EFE07FF5C1BB930680040146DD
:1018C00081451305D008B1BDE146014685451305A4
:1018D000C008EFE09FF34DBB9306800401468145AD
:1018E000130550043DBDE1460146854513054004FE
:1018F000EFE0BFF151BB930680040146814513051B
:10190000F00805B51DC6D9670A0593874753AA97FE
:1019100098432E96850583C6F5FF8357070093F7F6
:101920000708E5DF93970601C1832312F700E393CD
:10193000C5FE8280D967131725009387475341114D
:10194000BA9726C2AA84884322C42E862E84930581
:10195000505206C6EFB09037138581862695034511
:101960000500B7E700E0AA972380074019C4224486
:10197000B240924441016F20A04C2244B2409244B4
:1019800041016F20804DD9670A0593874753AA9775
:1019900098438357070093F70702E5DF8357470013
:1019A0002380F5008280D9670A0593874753AA9759
:1019B00098438357070093F7070299E30145828014
:1019C0008357470005452380F5008280797122D432
:1019D0004ECE2A84AE890545854506D626D24AD004
:1019E000B2843689EFB0E033CA852685EFF09FBF19
:1019F0008947638DF414C9476382F4069307200274
:101A00006386F40A93074002638DF40A9307200467
:101A10006385F40C93072005639AF40C9307300553
:101A2000630CF91821C48547630AF4148947630DD0
:101A3000F4148D476300F41691476303F416954739
:101A40006306F41699476300F4189D476314F40283
:101A5000854513050010EFB0A02E29A8CD47E3134C
:101A6000F9FC85452145EFB0E00C55FC8545116535
:101A7000EFB0202BD967938747530A043E94004068
:101A80008A85B7070C0022854EC03EC4231601008C
:101A900002C2EFB0F01022858545EFB03021B25080
:101AA000225492540259F2494561828093073002D0
:101AB000E31AF9F63705140085454105EFB08007B4
:101AC00095B793075002E31FF9F4370514008545D5
:101AD00013050503EFB00006B1B793073004E31315
:101AE000F9F485450565EFB0E0042DBF93072006A6
:101AF000639EF40093073006E316F9F23715008071
:101B0000854513050580EFB0E00229BF9307200744
:101B1000639EF40093073007E316F9F0370701409E
:101B20005C4FB7064000D58F5CCFEDBD93074007F3
:101B30006396F40293075007E316F9EE3707014066
:101B40005C4FB7068000D58F5CCFE9BD8D47E31BA6
:101B5000F9EC85451145EFA0F07DE9B59307200824
:101B6000E392F4EC93073008E31EF9EA37070140EB
:101B70005C4FB7060002D58F5CCF6DB58545370544
:101B80000200EFB0E01BFDB5854537050400EFB05E
:101B9000201BCDB5854537050800EFB0601AD9BDCB
:101BA000854537051000EFB0A019E9B58545130547
:101BB0000004EFB0E0187DBD370520008545050520
:101BC000EFA0507785B5854513050008EFB04017A5
:101BD00055B5011122CC9385D190154506CE26CA64
:101BE0004AC84EC6C93305469385D190138541AC8A
:101BF000EF10302813848190184085476309F7005F
:101C0000F2406244D2444249B2490561828013895C
:101C1000C19083450900938941AA93F5F50F9387F5
:101C2000150093F7F70F814613868190CE951385A3
:101C300041AC2300F900EF10702F834709000D47D6
:101C4000E370F7FC83450900376501001146F11583
:101C5000CE9513054555EF20C1115DF189471CC094
:101C600045B7011122CC93855191194506CE26CA5C
:101C70004AC84EC60D3B054693855191138581AFE9
:101C8000EF10301F13840191184085476309F70056
:101C9000F2406244D2444249B249056182801389CC
:101CA000419183450900938981AD93F5F50F9387A1
:101CB000150093F7F70F814613860191CE95138592
:101CC00081AF2300F900EF107026834709000D470C
:101CD000E370F7FC83450900376501001146F115F3
:101CE000CE9513054555EF20C1085DF189471CC00D
:101CF00045B783A7019309476388E7000D476388C9
:101D0000E70011476383E70082806F1080636F10E4
:101D1000603B83A7019311476386E7000D47638506
:101D2000E70082806F1020686F10004001115AC0D8
:101D300006CE22CC26CA4AC84EC652C456C2138BFF
:101D4000A18083470B00376401002E8AB28493057B
:101D5000C455130620052A893335F500B689938AC0
:101D6000B180EF10900903C50A009305C45513060E
:101D700030053335AA00EF10500803450B009305DA
:101D8000C4551306400533B5A400EF10100703C572
:101D90000A009305C4551306500533B5A900EF108A
:101DA000D00583A7418059670324C739E1CB054794
:101DB0006380E71A930A004023285401056B130936
:101DC000890293848402130B0B80232A5401420955
:101DD000C2040947232A640113590901C1809305EC
:101DE000A0020545638BE710EFF06FF02328640134
:101DF000232854010545CA85232A5401EFF0EFF04A
:101E0000A6850545EFF06FF023285401232A5401DD
:101E10009305B0020545232A6401EFF04FED9305C9
:101E20004A032328640123285401C205C1810545C2
:101E3000232A5401EFF06FED93854903C205C18158
:101E40000545EFF08FEC23285401232A5401232A5F
:101E500064019305C0020545EFF06FE92328640192
:101E600023285401232A5401F2406244D2444249B7
:101E7000B249224A924A024B05618280930A00408D
:101E800023285401056B130B0B80232A540193055F
:101E9000A0020545232A6401EFF06FE5930549038D
:101EA0002328640123285401C205C1810545232A42
:101EB0005401EFF08FE593854403C205C1810545C8
:101EC000EFF0AFE423285401232A54019305B00214
:101ED0000545232A6401EFF08FE193058A02232848
:101EE000640123285401C205C1810545232A5401F8
:101EF000EFF0AFE19385890291B7EFF04FDF232830
:101F00006401232854010545CA85232A5401EFF0B2
:101F1000CFDFA6850545EFF04FDF23285401232AA4
:101F200054019305B0020545232A6401EFF02FDC2C
:101F300093055A032328640123285401C205C18153
:101F40000545232A5401EFF04FDC93855903FDB575
:101F5000930A004023285401056B130B0B80232A9E
:101F600054019305A0020545232A6401EFF02FD800
:101F7000930559032328640123285401C205C18114
:101F80000545232A5401EFF04FD89385540335B704
:101F9000797122D4376401001306B0089305C45543
:101FA000054506D64AD04ECE26D252CC56CA5AC87D
:101FB0005EC662C466C2EF1040641306C008930593
:101FC000C4550545EF10606303A6C1939307F00F56
:101FD000130720021308F00F9306000205828145C3
:101FE0000545EFF0EFAFC146014685451305B00644
:101FF000EFE0BF81C146014685451305C006EFE00D
:10200000DF80C146014685451305A006EFE0EFFFDE
:10201000C1460546854513056004EFE00FFF1389AF
:10202000418003270900854763FEE7429306700855
:102030001307000F83A7C1938964938404F4B3D773
:1020400097021305800C59660324C639856C8145B7
:10205000138AB180938AA180232A94012300DA0095
:102060002380EA00930B4006130B0040138C0C8076
:102070003385A702EFE04FC003A5C1938145232814
:1020800094013355950233057503EFE0EFBE232825
:102090006401232A6401930560030545232A840112
:1020A000EFF0EFC403A5C193232884012328640122
:1020B00033559502232A6401814533057503EFE00A
:1020C000AFBB832709006384073A0547638CE73A6F
:1020D00009476383E73A9305000A0545EFF02FC1EE
:1020E0009304004004C805691309098044C8232AE1
:1020F00024019305A0030545EFF06FBF23282401B9
:1021000004C89545054544C8EFF06FBE04C844C8EF
:10211000232A24019305200B0545EFF04FBD23280A
:10212000240104C8B145054544C8EFF04FBCB14592
:102130000545EFF0CFBB81450545EFF04FBB93055B
:1021400030030545EFF0AFBA930530030545EFF0D6
:102150000FBA04C844C8232A24019305700B05450F
:10216000EFF0EFB82328240104C893055003054578
:1021700044C8EFF0CFB704C844C8232A240193050C
:10218000B00B0545EFF0AFB62328240104C8930532
:102190007003054544C8EFF08FB504C844C8232A2E
:1021A00024019305000C0545EFF06FB423282401AA
:1021B00004C89305C002054544C8EFF04FB304C8F6
:1021C00044C8232A24019305200C0545EFF02FB2C3
:1021D0002328240104C88545054544C8EFF02FB1E4
:1021E00004C844C8232A24019305300C0545EFF0A8
:1021F0000FB02328240104C8C945054544C8EFF0A1
:102200000FAF04C844C8232A24019305400C054598
:10221000EFF0EFAD2328240104C893050002054523
:1022200044C8EFF0CFAC04C844C8232A2401930566
:10223000600C0545EFF0AFAB2328240104C8BD4571
:10224000054544C8EFF0AFAA04C844C8232A2401B6
:102250009305000D0545EFF08FA92328240104C83C
:102260009305400A054544C8EFF06FA89305100A8E
:102270000545EFF0CFA704C844C8232A24019305DD
:10228000000E0545EFF0AFA62328240104C89305EE
:10229000000D054544C8EFF08FA591450545EFF0C9
:1022A0000FA5B5450545EFF08FA4C5450545EFF0F1
:1022B0000FA4CD450545EFF08FA39305B00205456A
:1022C000EFF0EFA29305F0030545EFF04FA2930561
:1022D00040050545EFF0AFA19305C0040545EFF0BB
:1022E0000FA1E1450545EFF08FA0B5450545EFF09D
:1022F0000FA0AD450545EFF08F9FFD450545EFF07B
:102300000F9F930530020545EFF06F9E04C844C847
:10231000232A24019305100E0545EFF04F9D232835
:10232000240104C89305000D054544C8EFF02F9C17
:1023300091450545EFF0AF9BB1450545EFF02F9B6B
:10234000C5450545EFF0AF9ACD450545EFF02F9A0D
:102350009305C0020545EFF08F999305F0030545FD
:10236000EFF0EF98930540040545EFF04F98930583
:1023700010050545EFF0AF979305F0020545EFF026
:102380000F97FD450545EFF08F96FD450545EFF0AC
:102390000F96930500020545EFF06F959305300207
:1023A0000545EFF0CF9404C844C8232A24019305BF
:1023B00010020545EFF0AF932328240104C844C858
:1023C00004C844C8232A2401C5450545EFF02F92CF
:1023D00003A5C1938967938707F43355F502232832
:1023E000240104C8814544C8931745003385A7409C
:1023F0000E05EFE06F8804C844C8232A2401930522
:1024000090020545EFF0AF8E03C60A0083460A002E
:102410002328240104C83309D602FD167D16C206FE
:10242000420644C8B7170020C18241828145014558
:1024300003D40797EFF09F8F630909007D19A285E8
:102440000545EFF08F8CE31B09FEB25022549254E5
:102450000259F249624AD24A424BB24B224C924C48
:10246000456182809306000F13077008E1B681452D
:102470000545EFF0CF87ADB1930500070545EFF0B7
:102480000F87B9B99305000C0545EFF04F8689B960
:10249000411122C403C4A18083C6B1801306F4FF96
:1024A00042063304D402FD16C20626C2B717002026
:1024B000AA84C18241828145014506C62398979628
:1024C000EFF0DF8619C47D14A6850545EFF0EF8394
:1024D0007DF8B24022449244410182801307F00EFD
:1024E0006367A70013076008AE866373B700828036
:1024F000411122C432842A8606C6EFF03F83A285AA
:102500002244B240054541016FF02F8083C7A1806E
:1025100079714AD03769010026D256CA62C4AE8AA0
:102520002A8C9305C9553335F500B2841306F01390
:1025300006D64ECE52CC5AC85EC622D4EF10E00B5F
:1025400003C5B1809305C9551306001433B5AA001D
:10255000EF10A00A938704FE596792071307876755
:102560003389E700920A930B7C00B38A2A41410722
:10257000C20BC20A93DB0B01330BF70093DA0A019B
:10258000371A0020B3862A01C206C1825E86B6854C
:102590006285EFF0AFF921448344090011A883D587
:1025A00081807D141374F40FEFE03FF6858019CC21
:1025B00093F714000545E5F783550A977D14054503
:1025C0001374F40FEFE07FF485807DF00509E31BC1
:1025D00069FBB250225492540259F249624AD24ADB
:1025E000424BB24B224C4561828083C7A1800111CE
:1025F00026CAB764010022CC4AC84EC62E89B289C9
:102600009385C455130600162A843335F50006CE8B
:10261000EF00B07E03C5B180130610169385C45534
:102620003335A900EF00707D0386090005C281449F
:1026300085042285CA85C204D13DC180B387990033
:10264000038607002104420441807DF2F240624487
:10265000D2444249B2490561828083C7A180797121
:1026600022D4376401004AD04ECE52CC32892E8A11
:10267000130650179305C455AA893335F50006D6BD
:1026800026D2EF00907703C5B1801306601793053B
:10269000C4553335AA00EF005076634B0906130684
:1026A0000002D2854E85EFF07FE62947B347E90265
:1026B0009306400613848900938909024204C209E3
:1026C0006400418093D90901B346D902B3E7E70218
:1026D0002306D1003369E902A306F1002307210193
:1026E00003C6040022852104130606036206420481
:1026F000D28561864180EFF07FE18504E39289FE17
:10270000B250225492540259F249624A4561828081
:10271000330920411306D002D2854E856209EFF0BD
:10272000FFDE1359894151B783C7A180797126D241
:10273000B764010022D44AD052CC32892A842E8A2E
:102740003335F5009385C4551306701906D64ECE61
:10275000EF00B06A03C5B1809385C4551306801994
:102760003335AA00EF0070692947B357E902930691
:10277000400693098401C209640093D90901B35644
:10278000D902B3F7E7022306D1003379E902A306A1
:10279000F1002307210103C604002285210413064A
:1027A000060362064204D28561864180EFF01FD69F
:1027B0008504E39289FEB250225492540259F249A0
:1027C000624A4561828083C7A180797126D2B7644D
:1027D000010022D44AD04ECE3289AE891306301B76
:1027E0009385C4552A843335F50006D652CCEF00C4
:1027F000D06003C5B1801306401B9385C45533B523
:10280000A900EF00905F6348090813060002CE8517
:102810002285EFF0BFCF9306803EB346D902A94789
:1028200013074006096613060671210442042400BA
:102830004180130AD1003347E902B345F902B3E6F8
:10284000F6023346C902A304D1003367F70223041A
:10285000C100B3E6F5022305E1003369F902A305DF
:10286000D1002306210103C604002285210413069A
:1028700006036206CE85618642048504EFF01FC917
:102880004180E3129AFEB250225492540259F24906
:10289000624A45618280330920411306D002CE8509
:1028A00022854209EFF09FC613590941ADB783C78E
:1028B000A180797126D2B764010022D44AD04ECECD
:1028C0003289AE891306801D9385C4552A84333519
:1028D000F50006D652CCEF00505203C5B180938567
:1028E000C4551306901D33B5A900EF00105193068F
:1028F000803EB356D902A94713074006096613065E
:1029000006712400130AD1003357E902B355F902C6
:10291000B3F6F6023356C902A304D1003377F702A7
:102920002304C100B3F6F5022305E1003379F9026F
:10293000A305D1002306210103C60400228521043A
:10294000130606036206CE85618642048504EFF015
:10295000FFBB4180E39244FFB2502254925402598B
:10296000F249624A456182801D71D6C2938AA18074
:1029700083C70A00D2C4376A0100A2CCCAC8DAC031
:102980005EDE2E892A849305CA553335F500B28B55
:102990001306801F86CEA6CACEC6138BB180B68919
:1029A000EF00B04503450B001306901F9305CA5571
:1029B0003335A900EF007044A947A94463E4370107
:1029C00093F4F90F93891400B765010093F9F90F97
:1029D0005E869385855D63C00B0A9307000213052D
:1029E000D1002306F100EF00306205051375F50FE5
:1029F000637D35013386A4401376F60F7C0005060F
:102A0000930500023E95EFD0FF8003C50A001C1815
:102A1000BE99130600169305CA553335A400238EBC
:102A200009FCEF00903D03450B00130610169305BB
:102A3000CA553335A900EF00503C0306C10081445C
:102A400005C22285CA858504EFF05FACC204C1804F
:102A50001C18A6970386C7FD21044204418075F225
:102A6000F6406644D6444649B649264A964A064B3D
:102A7000F25B256182806800EF0010591375F50F35
:102A800085BF1D71DAC0138BA18003480B00A6CA55
:102A9000B7640100A2CCCAC8D2C4D6C22E8A2A8486
:102AA0009385C4553335050132891306202286CE1D
:102AB000CEC65EDE62DCBE8B66DAB689BA8C938ADD
:102AC000B180EF00903303C50A00130630229385CE
:102AD000C4553335AA00EF0050329947194C63E4CE
:102AE000770113FCFB0FA94793FBFC0F63F39701DE
:102AF000A94B01468146CE854A85EFE00073B76554
:102B000001004A86CE869385455D634D050E13050B
:102B1000D100EF00704F1307A5FF1377F70F93CB8A
:102B2000FBFFBA9B050C629793FBFB0F1377F70F24
:102B3000139C8B01931C8701135C8C4193DC8C41AB
:102B4000635C0C023307774162076187E6871306EF
:102B500000021418BE968507E207238EC6FCE187A3
:102B6000E399E7FEB38C7C41330C7C41E20C620CB0
:102B700093DC8C41135C8C41014681464A85CE85AD
:102B8000EFE0A06A634A050A1C183E9C9307000206
:102B9000230EFCFC03450B001C189385C455BE9CFA
:102BA000130600163335A400238E0CFCEF00F0242E
:102BB00003C50A00130610169385C4553335AA00C1
:102BC000EF00B0230306C100814405C22285D285EF
:102BD0008504EFF0BF93C204C1801C18A69703863A
:102BE000C7FD21044204418075F2F6406644D64494
:102BF0004649B649264A964A064BF25B625CD25C6D
:102C0000256182806800EF003040130795FF13773D
:102C1000F70F93CBFBFFBA9B050C629793FBFB0F5F
:102C20001377F70F139C8B01931C8701135C8C4166
:102C300093DC8C41E3480CF01C183E9C9307D002B7
:102C4000230EFCFC81BF03C3A180397152D4376AC3
:102C5000010022DC4ED662CCAE892A849305CA5587
:102C600033356500328C1306902706DE26DA4AD803
:102C70005AD05ECE428B66CAB684BE8C56D26AC823
:102C80006EC6BA8B4689EF00501703C5B180130694
:102C9000A0279305CA5533B5A900EF001016930677
:102CA000FBFF1386FCFFCE962296C2064206C18227
:102CB0004182CE852285EFF06F8763060B04C169E0
:102CC000814A014AFD1933D46A03638A0C02814D9B
:102CD000014D3384840262946306090433D79D0353
:102CE000CE85054522978347070063F42701814578
:102CF0000545050DEFE07F81A69DE3119DFF050AC7
:102D0000DE9AE3126AFDF2506254D2544259B2592B
:102D1000225A925A025BF24B624CD24C424DB24D57
:102D200021618280B3D79D03050D0545A69DA2971D
:102D300003C707009355370009839397B50016071B
:102D40005D8FD98DEFE06FFCE31E9DFD4DBF5D7182
:102D50006AD0130D25005AD85ED66ECE930BF5FFC0
:102D6000930DE5FF130B150093170D01C20DC20B58
:102D7000420BC183A2C4A6C2CAC04EDE52DC56DAE0
:102D800062D466D286C62A89AE89328493DD0D016B
:102D900093DB0B01135B0B013EC60147854A0D4CCB
:102DA000954C9304F00E130A700831A8630784074A
:102DB0006303940B93071D00C207C1831397070198
:102DC0004187638D4703131D0701135D0D01E31F49
:102DD00054FDE3E124FF4A85EA864A86EA85EFE06E
:102DE000FFF4CE850545EFE04FF293071D00C207C3
:102DF000C183139707014187E39747FDB6402644F7
:102E000096440649F259625AD25A425BB25B225C3E
:102E1000925C025DF24D6161828063EC74015E85BB
:102E2000EA85EA865E86EFE07FF0CE850545EFE035
:102E3000CFED63EC24014A85EA85EA864A86EFE015
:102E4000FFEECE850545EFE04FECE3E564F75A85EC
:102E5000EA865A8661B763ECB4016E85EA85EA8634
:102E60006E86EFE0BFECCE850545EFE00FEA63EC40
:102E700074015E85EA85EA865E86EFE03FEBCE85EB
:102E80000545EFE08FE863EC24014A85EA85EA8690
:102E90004A86EFE0BFE9CE850545EFE00FE763EC3A
:102EA00064015A85EA85EA865A86EFE03FE8CE85D6
:102EB0000545EFE08FE5B247E3EEF4EE3E85EA86A6
:102EC0003E8629BF03C3A180397152D4376A0100FD
:102ED00022DC4ED666CAAE892A849305CA5533359C
:102EE0006500B28C1306503606DE26DA4AD85AD070
:102EF0005ECE428B6AC8B6843E8D56D262CC6EC618
:102F0000BA8B4689DD2D03C5B18013066036930563
:102F1000CA5533B5A900D5259306FBFF1306FDFF5F
:102F2000CE962296C2064206C1824182CE85228575
:102F3000EFE0DFDF630A0B04C169814A014AFD1932
:102F400033D46A03630E0D029307801C014C814D3C
:102F50003304F4026694630809043357AC03CE8546
:102F600005450A07229718430347070063742701A2
:102F700081450545850DEFE04FD9269CE39FADFDCA
:102F8000050ADE9AE31E6AFBF2506254D25442599B
:102F9000B259225A925A025BF24B624CD24C424DC9
:102FA000B24D21618280B357AC03850D0545269C47
:102FB0008A07A2979C4303C70700935537000983EC
:102FC0009397B50016075D8FD98DEFE00FD4E39C82
:102FD000ADFD7DB7397122DC26DA4ED656D25AD0F5
:102FE00093070008B70900207D7B89644AD852D432
:102FF0005ECE62CC06DE2315F10093890900014AFA
:1030000013844192130B5B1A930B0008938404F40E
:10301000938A0192254C83D7090011466C001397BF
:103020008700A183D98F11452317F1002316610171
:10303000EFE05F8D231571018347040093F7F70FCD
:1030400091CF0DA803A5C193814533559502EFD0CB
:10305000AFC28347040093F7F70F89EF8357A100AE
:103060001387F7FF42074187C207C1872315E10095
:10307000E34AF0FC8357A100C207C1876355F00201
:1030800083C71A0003C72A00050AA207D98F420A7C
:103090002391F90023000400135A0A019109E31C4B
:1030A0008AF7014521A0E31D0AFC0545F250625450
:1030B000D2544259B259225A925A025BF24B624C94
:1030C00021618280411122C413843192834504001E
:1030D00026C293840192A695114506C6EFE0BF8CE7
:1030E0008347040011C5850793F7F70F2300F40009
:1030F0000547638EE7008D466396D70023000400E2
:103100002382E192B240224492444101828003C76B
:1031100004009307500AE307F7FE23000400B240BF
:1031200022449244410182800547238EE1908280AF
:1031300039710D4506DE22DC4ED626DA4AD852D445
:1031400056D289694124130600059306100593851C
:1031500009581145EFE09F8785451145EFE08FFD48
:103160000145EF0050521384419223000400EFF018
:103170007FE61306E0146312051A23000400930788
:103180000008B7040020231DF100938444022300AB
:103190000400938A8402130A50FA938909F483D7AE
:1031A000240083D604006C0813978700A183D98F6D
:1031B00011451146230E4101A30ED100231FF1003A
:1031C000EFE04FF403A5C1939104814533553503D6
:1031D0000605EFD06FAAE3949AFC8347040093F7A7
:1031E000F70FA9EB8357A1011387F7FF4207418728
:1031F000C207C187231DE100635EF00289649384E6
:1032000004F429A88357A1011387F7FF42074187D8
:10321000C207C187231DE100635EF00003A5C193CF
:10322000814533559502EFD02FA58347040093F7CE
:10323000F70FE9DB9384019203C7140083C72400CE
:1032400093060008231DD100F98F23000400130703
:10325000F00F638EE7048357A1011387F7FF42073E
:103260004187C207C187231DE1006352F0048969C9
:10327000938909F4130AF00F29A88357A101138732
:10328000F7FF42074187C207C187231DE100635052
:10329000F00203A5C193814533553503EFD0CF9D8F
:1032A00083C7140003C72400F98FE39847FD8357B1
:1032B000A101C207C1876350F00623000400EFF0AC
:1032C0007FD12A8425EDEF00903C91473EC495477D
:1032D0003EC299473EC09306900413068004A94558
:1032E0002545930890021308800293076002130794
:1032F000B004EFD00F9B3715002019661307C5C720
:1033000085461306068281451305C5C723ACE190A7
:10331000EFD0EFA511A813065015B76501009385EE
:10332000C55D0145D92C05442285F2506254D25422
:103330004259B259225A925A216182801306D015FD
:10334000E9BF411122C41384C1928345040026C2FF
:1033500093848192A695114506C6EFE0CFE483479A
:10336000040011C5850793F7F70F2300F400054704
:10337000638EE7008D466396D70023000400A38583
:10338000E192B240224492444101828003C704008A
:103390009307500AE307F7FE23000400B2402244DB
:1033A00092444101828083A68191B707055094C75A
:1033B0008546A382D19203C70700136717002380B5
:1033C000E700828023A8A1928280411122C49385C4
:1033D0008193154506C6EFE00FDD93858193224466
:1033E000B2403765002005461305C549410151A487
:1033F00023AEA192B71702409843B706FFF84111D8
:103400001367170098C3D84337180240B705020066
:10341000758FD8C39843B706F7FEFD16758F98C30E
:103420009843B706FCFFFD16758F98C3D843B706BF
:1034300081FFFD16758FD8C337079F0098C702C458
:1034400002C69843C16613060050558F98C321A049
:10345000A247638BC70083270800ED8F3EC6A247B3
:1034600085073EC4B247EDD7B71702409C43139778
:10347000E7006359070085473EC632478547630822
:10348000F70001A002C632478547E31CF7FE373636
:103490006E011307F5FF130606603357C702B72600
:1034A00002408C42B717024093E505018CC203A885
:1034B0000600B7157A00938505201378C8FF23A06E
:1034C000060103A806001D8B3367070198C2D84385
:1034D000D8C3D843D8C3D843D8C36301B50AD843A7
:1034E000B706C1FFFD16758FD8C337479508130778
:1034F00007406302E50437172707130707E0630057
:10350000E50A37E7B805130707806306E50A37A71A
:103510004A0413070720630AE5083777DC0213071C
:1035200007C06300E50A631CC500D843B706050061
:10353000558FD8C329A0D843C166558FD8C3B716B5
:103540000240984237060001B7170240518F98C2D7
:10355000984393166700E3DD06FED043B71602409A
:103560002147719AD0C3D04313662600D0C3DC42F2
:10357000B18BE39EE7FE41016F009010D043B71678
:1035800002401147719AD0C3D04313661600D0C3CE
:10359000DC42B18BE39EE7FE41016F00700ED84321
:1035A000B7063900558FD8C359BFD843B7061D0099
:1035B000558FD8C369B7D843B7062900558FD8C3EC
:1035C000BDBFD843B7061100558FD8C38DBFF16575
:1035D0004111930610061306000693850520154534
:1035E00006C6EFE0AFBE85451545EFE0AFB4B2408B
:1035F00005472380E1944101828019E983C7019442
:10360000411106C699E7EF00900801000100F5BFDF
:1036100082803765010013058565EF004170EF007A
:103620001007E5B701114EC606CE22CC26CA4AC8FD
:10363000B2896358C002D96703A48754AE84338922
:10364000C500930500042285EF90B06C7DD98504F8
:103650008385F4FF2285C205C181EF90F06AE39271
:1036600024FFF24062444E85D2444249B24905618A
:1036700082805C45637AF60A011126CAAA8422CCAC
:103680004AC84EC652C456C206CE2E8A3289EF00B0
:10369000100083AA0401C0408840B3898A4063F6C1
:1036A00029074E86D2852295EFF0B03CD840944849
:1036B0004E97D8C06366D700158FE37FD7FED8C07A
:1036C00088404A94330454413A952286B3053A011E
:1036D000EFF0303ADC409848A297DCC063E6E700A0
:1036E000998FE3FFE7FEDCC0D04401453309264152
:1036F00023A62401492FF2406244D2444249B249F0
:10370000224A924A0145056182804A86D2852295E5
:10371000EFF03036DC409848CA97DCC0E3E6E7FCBF
:10372000998FE3FFE7FEC1B70945828001114AC8BE
:103730005C45032905014EC6B289104222CC26CA37
:103740005AC006CE52C456C2B307F9402A842E8707
:10375000368B814463F8C70023A0F90003290501D3
:103760003E868544032A8400B30A494163E7CA02BE
:1037700011C70C403A85D295EFF0B02F63010B04CE
:10378000F2406244330590404249D244B249224A51
:10379000924A024B0D89056182806DD30C4056869A
:1037A0003A85D295EFF0F02C03A609000C4056950F
:1037B000529633062641EFF0D02BE3130BFCC12DBC
:1037C00083A7090014441848B6971CC463E6E700B1
:1037D000998FE3FFE7FE1CC45C4403A70900014581
:1037E000BA975CC44D2569BF01112AC6B24711675B
:1037F00013070765B387E7023ECEF2471387F7FF4B
:103800003ACEE5FF0561828035713AC986DEA2DCD9
:10381000A6DACAD8CED6D2D4D6D2DAD0DECEE2CC90
:10382000E6CAEAC8EEC632C536C73ECB42CD46CF61
:103830008387050038013ACCB5C337770100130DF3
:10384000C101DD64054AAE8A2A84032987DB832906
:10385000C7DB814C930D5002938484C6330AAA417E
:1038600019A862872300F400568C0504850CBA8AD7
:1038700083071C008DC7138C1A00E394B7FF83875E
:103880001A0013073005890A9387B7FD93F7F70FDE
:10389000E360F7FE8A07A6979C438287814CF65027
:1038A00066546685D6544659B659265A965A065BCA
:1038B000F64B664CD64C464DB64D0D618280E247C4
:1038C000984391073ECC83070700DDD3B3868C4035
:1038D0002300F4000507830707000504B30CD40098
:1038E000E5FB79B76247EA8625481C4311073ACCC5
:1038F0003D4519A08506BA8713F7F7009375F70FB2
:10390000138605036374E800138675032380C600DD
:1039100013D74700E360F5FE030831028348C10175
:10392000830521020345D101830611020346E1010B
:10393000830701020347F10123000401A300B4003F
:103940002301D400A301F4002302E400A302C40075
:103950002303A400A3031401A3011103230E0101F7
:103960002301A102A30EB100A300C102230FD100C5
:103970002300E102A30FF1002104A10CD5BDE24711
:103980001D46984391073ECC9377770093870703B2
:10399000230EF10093563700637EE6426A879D4509
:1039A00011A0B286050713F6760013060603B307C7
:1039B000A74185072300C70093F7F70F13D63600FA
:1039C000E3E1D5FE93D517003E8B95C11387F7FF32
:1039D0006A97EA87EA95038607008306070085074A
:1039E0002300C700A38FD7FE7D17E396F5FE22853F
:1039F0005A86EA85EFF0F0075A94DA9C95BD624743
:103A0000A9460328070011073ACC1357F841B347DA
:103A10000701998F33E7D702B3C7D702130707030C
:103A2000230EE100638A073C85456A86294511A07B
:103A3000BA85B3E6A7020506138715001377F70FBB
:103A4000B3C7A702938606032300D600F5F36349A4
:103A500008283A8B93551700D9D91307FBFF6A97AB
:103A6000EA87EA9503860700830607008507230097
:103A7000C700A38FD7FE7D17E396F5FE22855A86F1
:103A8000EA85EFF0007F5A94DA9CDDB3E247050443
:103A9000850C984391073ECCA30FE4FED1BBE246D0
:103AA0006A8725489C42910636CC3D4519A00507FA
:103AB000B68793F6F70013F6F60F930506036374C3
:103AC000D80093057603330647012300B70093D649
:103AD0004700137BF60FE36CF5FC93551B0081D96F
:103AE0001307FBFF6A97EA87EA95038607008306B8
:103AF000070085072300C700A38FD7FE7D17E39635
:103B0000F5FE22855A86EA85EFF0A0765A94DA9C73
:103B100085B3E2479D07E19B03AB070083AB4700FA
:103B2000A1075A85DE853ECCEFE0A03E1357F54154
:103B3000B347A700998FA94633E7D7022A88B3C7AE
:103B4000D70213070703230EE1006381072C854882
:103B50006A86A94511A0BA88B3E6B702050613879D
:103B600018001377F70FB3C7B70293860603230035
:103B7000D600F5F3014681465A85DE8546C63AC42D
:103B800042C2EFD0806A12482247B2486346051607
:103B9000BA889355170095C11387F8FF6A97EA878B
:103BA000EA95038607008306070085072300C70000
:103BB000A38FD7FE7D17E396F5FE4686EA8522851C
:103BC00046C242C4EFF0E06A22484285EFE0E03AA4
:103BD0002A86AE865A85DE85EFD0103C4A86CE8690
:103BE000EFD000709248014681462A8BAE8B4694F6
:103BF000C69CEFD00052631D0510B7373030938755
:103C000007033ECE8D67938707032310F1029307C6
:103C1000E0022301F10299450D451D4BEA95AE875F
:103C20006A870306070083860700FD170507A38040
:103C3000C700A30FD7FEB386F540E3E4A6FE5A867D
:103C4000EA852285EFF0E062DA9C1DB1E247294760
:103C50002546944391073ECCB3F7E60293870703CA
:103C6000230EF10033D7E6026376D616EA86A9451D
:103C7000254511A032873376B7028506B387A64162
:103C8000850793F7F70F130606032380C600335604
:103C9000B702E361E5FE93D517003E8BE38905D4B7
:103CA0001387F7FF6A97EA87EA950386070083067A
:103CB000070085072300C700A38FD7FE7D17E39673
:103CC000F5FE22855A86EA85EFF0A05A5A94DA9CCE
:103CD00045B6930750022300F400850C050449BE45
:103CE00089059C003E9713FBF50F9307D00293556F
:103CF0001B00230EF7FC8DB39C0089083E9793F8B8
:103D0000F80F9307D00293D51800230EF7FC61B586
:103D10005A85DE85EFE0E01F1357F541B347A70052
:103D2000998FA94633E7D702B3C7D7021307070312
:103D3000230EE100638E070E8546EA85294511A012
:103D4000BA8633E6A7028505138716001377F70FA7
:103D5000B3C7A702130606032380C500F5F39547F2
:103D600063ECE7069C003E979305000393872600CB
:103D7000230EB7FC93F7F70F1946E38AC7E89800BC
:103D80003E9793873600230EB7FC93F7F70FE38037
:103D9000C7E894001306000313871700BE96238E0E
:103DA000C6FC1377F70F9945E303B7E694003697FF
:103DB00093862700230EC7FC13F7F60FE309B7E439
:103DC00094003697230EC7FC0947E392E7E4A3006B
:103DD000C10235BD054B21B99C0089063E9713FBF6
:103DE000F60F9307E002230EF7FC13551B00E308C0
:103DF00005E49305FBFF1DB5054BE35A08BE930789
:103E0000D002A30EF1008545094B81B92AC20146B3
:103E100081465A85DE85EFD0404112488548E35EF1
:103E200005D89307D002A30EF10085458948ADB3AC
:103E300093070003A30EF100230FF1008D4791BFFC
:103E4000935755000547938707043315A7008A0742
:103E500037E700E0BA9788C382809357550005473B
:103E6000938707063315A7008A0737E700E0BA975C
:103E700088C38280B7E700E03E952300B54082808A
:103E800005456F80305511C182806FC0CFB7411199
:103E900006C6EFC0EFB6B24041016F90F06BB76558
:103EA000002099689385054F930E4005116893880B
:103EB000383613086864239515012386D501238CB1
:103EC000D501B795002037670020239405751307A7
:103ED0008758B772010023920195930500002322B1
:103EE000B70E83A582DC13066004130E200505437C
:103EF000B77F01002310C7002300C70F232207004C
:103F0000231F670C232CB70C03A7CFDCB767002057
:103F10009387074B376500201305C5522380C700E0
:103F20002386C70323A2070023960700239767026F
:103F300098D7A947377F01005CC1B7970020238637
:103F4000C77083270FDDB76600209386C65623000F
:103F5000C500A380C60023A206009CCE82805D71AE
:103F60006AD0376D0020130D0D4F83260D02832577
:103F7000CD0183278D0203274D020396819B86C6C0
:103F8000A2C4A6C2CAC04EDE52DC56DA5AD85ED6E9
:103F900062D466D26ECE039FA19B130860042306F1
:103FA0000D012328DD021308F00F376E00208D6607
:103FB00023140D012326BD02232CFD0223200D0016
:103FC00023220D00232AED02232E0D0023200D02B3
:103FD000937FF60F8147814E93086004130ECE67DE
:103FE000938646F4130850021303600493054006B9
:103FF0003387D70072970307070085076344E800FB
:1040000063806818E396B7FEA306FD012395F1943B
:1040100063840E0023061D01B2876353E601FA870D
:10402000379700201307477F8346270093F7F70F42
:104030003AC636C4A305FD002305FD0081E683478B
:104040007700D5C703AA4184B7920020938202DF8C
:1040500093091007930720070D6CB7AB0020370BAF
:104060000040B3894941B303A040938C820C814442
:1040700001493EC2814A0144894D130C6CC1938BA6
:10408000CB800548130BEBF80397020063534701FD
:1040900052878395823E63D3B900CE85B3067040C4
:1040A0006357B722B3878401BA978A07DE9736979A
:1040B000B3857540814E0145138F23009443D0434F
:1040C00083C60600034606006388C6166304051D02
:1040D00005079107E314B7FE6314B41B63928A1AB1
:1040E0008327CD0103270D02D98F638B071EB77776
:1040F000010083AB47DC0D6AB777010003AB07DC37
:10410000B794002093076AB5896A9384E4F73799D6
:1041100000203EC00144894C13098904F28D130C20
:104120004006930940055E8D938AEA7683C7A43ED4
:1041300063F68C02638E370B2324A93F83C72400C8
:104140000504638537052320790163038409850409
:104150001109890D83C7A43EE3EE8CFC638D3717EC
:10416000B777010083A747DC2324F93E83C72400E7
:104170000504E39A37FD930700002320F900C1BF2F
:10418000854E93084005E395B7E6BDBD83C714008F
:10419000E39B37FB83C70400E39737FB896793876B
:1041A0004777EE9703950700EFE0304AB3875D014C
:1041B0002A8A03950700EFE05049AA855285EFE06F
:1041C000D004DA85EFE020192320A900E31184F957
:1041D000B640264496440649F259625AD25A425B86
:1041E000B25B225C925C025DF24D054561618280AA
:1041F00083C7943EE39237F583C7843EE39E37F34B
:104200008D679387C7B5EE9703950700EFE0F043FE
:1042100082472A8AEE9703950700EFE01043AA85AC
:104220005285EFE0807EB777010083A507DCEFE0E1
:1042300080122324A93E19B703A3870083A8C700CF
:10424000B30FEF000343030083C80800E39068E85E
:10425000A9CA638B160521CD924709456352F9021D
:10426000FD1E93D7FE010247F6978587BA97232E46
:104270002D012322FD0223202D032324FD024AC207
:10428000890205099383E3F8DA94A28AE38A92E526
:104290002A84DDBB81E6850E05451DBDE39AC6E295
:1042A00065BFE31705E3C5BFE31405E375B78346B0
:1042B000070099EA8346170081EA8346270089E6CA
:1042C00083463700E38606E07EC0054511B501450B
:1042D000E318B4FB21B5930700002324F93E79B518
:1042E000A24791E7B24783C77700E38207E08D6773
:1042F000F297039727C28397A7839306300629175F
:10430000D907232EDD002320DD022322ED02232402
:10431000FD02F1BB37A701201307C724B797002080
:1043200093874775232C071A2326071A2328071A71
:10433000130760042384E70013070000D8C398C361
:104340000947D8C70D4798CB116713076764239AAD
:10435000E700130760F9238BE700054582804111D0
:1043600006C6EF506051EF607024EF50200BB24052
:1043700041016F50C056011122CC0394E18026CA3E
:1043800006CE22854AC84EC6EFE0302CB7970020F3
:1043900093874775944B2396818023AAA1960D4756
:1043A0006380E60283C7C19D89C72398019423993E
:1043B0000194F2406244D2444249B249056182808C
:1043C00003C7870093076004E31EF7FC039541A52C
:1043D0009307F0FC635EF50623988194EFE0F026E6
:1043E000EFE0F03FB777010003A607E683A647E6B4
:1043F000EFC0106F2A8903A58181AE89EFE0303EBE
:104400002A86AE864A85CE85EFC06075EFA010156E
:10441000B777010003A687E683A6C7E6EFC0506C16
:10442000B777010003A607E783A647E7EFC02000A0
:104430002A892285AE89EFD050342A86AE864A85F5
:10444000CE85EFC0F069EFD0D02C2399A19499BF0D
:104450009307200363D0A708EFE0301FEFE0303868
:10446000B777010003A607E683A647E6EFC05067CB
:104470002A8903A58181AE89EFE070362A86AE864F
:104480004A85CE85EFC0A06DEFA0500DB777010033
:1044900003A687E683A6C7E6EFC09064B77701005E
:1044A0002A86AE8603A507E783A547E7EFD0C02E8F
:1044B0002A892285AE89EFD0502C2A86AE864A857D
:1044C000CE85EFC0F061EFD0D0242398A19423993A
:1044D0008194C9BD2398819423998194E1B54111B8
:1044E00006C622C426C2EF909062B7970020938739
:1044F0004775984B0DCB83C787009306600463898B
:10450000D702130740056385E70A03976195039572
:1045100081952244239CE1A4B2409244239DA1A40E
:1045200041016FA04021B240224492444101828067
:104530009377D7FF8546638CD70091476309F700CF
:10454000239B0194239C019401450147D9B7B7C728
:10455000012003A54788B7040020EFE090030396ED
:10456000019593160501B7B50120C1869385857C19
:1045700013854430EF707025B7C70120138461950F
:104580002310A40003A54789EFE0B000039621950E
:1045900093160501B7B50120C1869385057F138564
:1045A0004430EF709022239CA1940317040095B728
:1045B000B7C7012003A5478813846195EFE0607DAC
:1045C00093160501B7B5012037050020C1860146C5
:1045D0009385857C1305C52AEF70301FB7C701206E
:1045E0002310A40003A54789EFE0A07A93160501E4
:1045F000B7B5012037050020C18601469385057FA8
:104600001305052CEF70701C03170400239CA19464
:1046100009B7938701969843411106C622C426C262
:104620004AC0634407007D1798C31384A19583573C
:104630000400B794002037770100938444758840C4
:10464000832587E785072310F400EFD0301A88C050
:10465000EF90901483C7519B8DE3EFF0DFD1EFF023
:104660001FE8031704009307703E63C2E706B240D9
:10467000224492440249410182809C480947FD1727
:104680006365F70683C6840093076004639FF6049E
:10469000DC446385E70605476399E7040395E194E5
:1046A000130795004207239AA1A44183C94663F0EA
:1046B000E604EFA04027A38A019AEFF0DFCBEFF0EA
:1046C0001FE2031704009307703EE3D2E7FA1305D5
:1046D000C002EFC04F91B240231004002244239641
:1046E0000194924402494101828023970194239AC4
:1046F00001A4EFA04023A38A019AC1B783964196F3
:10470000B7B501203705002001469385457713058D
:10471000452DEF70501D2397A19459B782803971B0
:104720005AD003A701A306DE22DC26DA4AD84ED6E9
:1047300052D456D25ECE62CC66CA6AC86EC685476F
:104740006309F71237940020DD6C5D6CDD6B130498
:10475000447593044005B77A0100377D0100B77DA9
:104760000100A1A81386CAE0814513050008EFD017
:10477000DFE71C480D47638FE70805476387E712AB
:104780000947638EE7126388071083475401638EDD
:1047900097081386CAE0894513050008EFD0FFE4A7
:1047A00083A781A30547638EE7082945EFF0CF83F0
:1047B00003A701A38547630EF70A89451385419531
:1047C000EF00100F9307008013864CDD81454145B3
:1047D0002394F180EFD07FE113068CDE85454145BF
:1047E000EFD0BFE013868BDF89454145EFD0FFDF77
:1047F000834744017D472394E180E39597F61306B0
:104800008DE0814513050008EFD03FDE1C480D47C1
:10481000E395E7F613860DE1854513050008EFD013
:10482000DFDC83475401E39697F613068DE0894554
:1048300013050008EFD07FDB83A781A30547E3962C
:10484000E7F603C7419523AC01A2630BF70851C3F8
:104850008947E31CF7F40946930500081305540142
:1048600009292945EFE05FF803A701A38547E3166F
:10487000F7F4F250625423A801A2D2544259B2591B
:10488000225A925A025BF24B624CD24C424DB24DCC
:10489000054521618280B7770100138607E38545CE
:1048A00013050008EFD07FD4CDB5B777010013868C
:1048B00087E1854513050008EFD03FD3F9B5B777F9
:1048C0000100138647E2854513050008EFD0FFD1AC
:1048D0006DBD01469305000813054401592EF1B53D
:1048E000DD670547930600081146938587E31305A6
:1048F0000401852D5DBD397122DC4AD85AD006DE0F
:1049000026DA4ED652D456D25ECE62CC66CA6AC879
:104910006EC6130730062E842A8B32899307300621
:104920006363B700AE87930530069D8DC20593077C
:104930001007C1815A8563F4670113051007930DB1
:10494000FBFF130CABFF931B1B0042054A86418102
:10495000C20D420CC20BB30C6441EFD03FB893DDE3
:104960000D01135C0C0193DB0B01229B930A1007D2
:10497000130A30069309300633849D01931704010E
:104980004A86C1836E8D63F4BA01130D1007420D80
:10499000135D0D016A856374FA00130430063384D5
:1049A000894042044180A285EFD05FB3B384BB410C
:1049B00093970401C1834A86A28563F4FA009304A5
:1049C0001007C204C1802685EFD05FB13304BB411C
:1049D00093170401C1834A866A856374FA0013043D
:1049E00030063384894042044180A285FD1DEFD00A
:1049F000FFAEC20D4A86A285268593DD0D01EFD05C
:104A0000FFADE31BBCF7F2506254D2544259B25985
:104A1000225A925A025BF24B624CD24C424DB24D3A
:104A20002161828083A6C1A2411126C206C622C48A
:104A30004AC00547AA8403440500638EE60C83A69A
:104A400041A405476384E60A03A901A485476305D9
:104A5000F90483A641A36381F606FD472380840001
:104A60002394F180931504019D47C18163F8870663
:104A7000E11537760100C2051306460EC1810145D6
:104A8000EFD0BFB6B2402244930700802394F18058
:104A900092440249410182804165011523A001A48D
:104AA000EFD01F9F1D469D451305000DEFD0FFBAA7
:104AB00083A741A3639B27094165011523AA01A28E
:104AC000EFD01F9D9D4501461305000DEFD0FFB8A7
:104AD00023800400FD472394F1808145377601004F
:104AE0001306460E0145EFD05FB069BF23A201A4B3
:104AF00031C87D141374F40F1319840113598941BB
:104B000041650115EFD0DF984A869D451305000DDC
:104B1000EFD0BFB415BF23A601A29D476306F404DE
:104B200005041374F40F1319840113598941416565
:104B30000115EFD0FF954A869D451305000DEFD076
:104B4000DFB1F5BD1D491D4465BF9D4737760100A6
:104B50002380F400FD479D451306460E014523942E
:104B6000F180EFD09FA839BF01490144C9B75D71F9
:104B70006AD003A781A3A2C4A6C2031405002AC653
:104B80001305F08186C6CAC04EDE52DC56DA5AD80A
:104B90005ED662D466D26ECE85472394A18063032D
:104BA000F706939B060193DB0B01139C2B005E9C85
:104BB000060CB30C8041C20C420C2E89B289135CE6
:104BC0000C0193DC0C01854403A641A3CE854A85E4
:104BD00083A601A403A741A483A7C1A263039606E9
:104BE000638B9604631797005E944204418423A26A
:104BF00001A42286638F9704EFD0FFBC83A781A313
:104C0000E39497FC930700802394F180B24723AC90
:104C100001A2B64023908700264496440649F259E3
:104C2000625AD25A425BB25B225C925C025DF24DE8
:104C300005456161828066944204418423A001A4F9
:104C400055B76294420423AA01A24184E39C96F8DA
:104C5000DDB733047441420441842286CE854A85FF
:104C600023A601A2EFD03FB683A781A3E39E97F4CA
:104C700051BF5D716AD086C6A2C4A6C2CAC04EDE4C
:104C800052DC56DA5AD85ED662D466D26ECE03A70C
:104C900081A3834C05002AC69306F081854723949F
:104CA000D1806307F7082E8AB28A0544377C010059
:104CB000130B4005B77B010003A641A383A701A402
:104CC00003A741A483A6C1A26306860C638B870851
:104CD000630E870E6393861023A601A2638E6C0376
:104CE00013068CE0D6855285EFD03F9083A781A331
:104CF000638F870803A641A383A701A403A741A448
:104D000083A6C1A2630B860A638C870863018706AA
:104D1000E39886FC23A601A2930C60041386CBE0E3
:104D2000D6855285EFD07F8C83A781A3E39687F841
:104D3000930700802394F180B24723AC01A205457C
:104D400023809701B640264496440649F259625A98
:104D5000D25A425BB25B225C925C025DF24D6161B1
:104D6000828023A001A4638F6C036311870423A2B4
:104D700001A4E39386FA13068CE0D685528523A618
:104D800001A2EFD09F8683A781A3E39587F6930CBA
:104D9000400579BF23AA01A263836C03E39787FCD4
:104DA00023A001A4E31787FC23A201A4E39A86F2BF
:104DB00023A601A2930C600495B723AA01A2E39352
:104DC00087FE23A001A4E31387FE55B723A201A405
:104DD000E3816CFBE39686F0E1BFE3916CF509B7E4
:104DE0005D716AD066D286C6A2C4A6C2CAC04EDEB3
:104DF00052DC56DA5AD85ED662D46ECE03A781A3AF
:104E0000834D05002AC61305F08185472394A180B0
:104E1000630AF70A2E8AB28A0544930BC004377BD3
:104E200001001DA06385850E6388870E63038710CC
:104E300063807D0513064B4AD6855285EFD0EFFA85
:104E400083A781A36380870803A641A383A501A448
:104E500083A741A403A7C1A2E31686FC23AA01A24B
:104E600063827D0F638E850263878708630E870ADE
:104E7000B77701001386C749D6855285EFD0EFF684
:104E800083A781A3638C870C03A641A383A601A4F7
:104E900083A741A403A7C1A2630B860AE39686FCFD
:104EA00023A001A4638987046300870813064B4A83
:104EB000D6855285EFD06FF383A781A3930D20058C
:104EC000E39487F8930700802394F180B24723ACE2
:104ED00001A205452380B701B64026449644064901
:104EE000F259625AD25A425BB25B225C925C025D1A
:104EF000F24D6161828023A201A463058700930DB6
:104F000040050DBF23A601A2930D600425B723A081
:104F100001A4E39B7DF579B723A201A49307400583
:104F2000E39DFDFCE31287FE23A601A2930D40053D
:104F300011B723A601A293074005E387FDFC930D5B
:104F40004005CDBDE39085F623A001A431BF23AA7F
:104F500001A2E39986F423A001A439B7930DC004FC
:104F600095B7397162CC5AD05ECE06DE22DC26DAE5
:104F70004AD84ED652D456D266CA6AC803A881A36C
:104F8000834405002A8B1305F08185472394A18073
:104F90006308F80C2E84B289368ABA8A854C03A736
:104FA00041A483A7C1A225436303970F6397970189
:104FB000FD1423A601A293F4F40F93972400A6975F
:104FC000860763FC340D9388170013882700138528
:104FD0003700938547001386570093866700138731
:104FE0007700138E870013839700A297229822954B
:104FF000A2952296A2962297229E2293A29883CED1
:105000000700034F0800834F050083C20500834358
:10501000060003C80600834703008346070083C8D1
:10502000080003470E005000D6855285A306F10004
:105030002302D101A30211012303E101A303F10122
:1050400023045100A304710023050101A305D1002D
:105050002306E100EFD06FD983A781A3E39197F5F1
:105060009307008023AC01A22394F18023009B00CE
:10507000F2506254D2544259B259225A925A025BA7
:10508000F24B624CD24C424D054521618280850431
:1050900023A201A493F4F40F11BF214E1D4799469A
:1050A000154691450D45094885488147814435BFDE
:1050B00083A6C1A2011126CA4AC806CE22CC4EC67A
:1050C0000547AA842E89034405006382E60E83A661
:1050D00041A405476386E60883A601A405476388C3
:1050E000E60A83A641A305476382E604FD472380C1
:1050F00084002394F180931504019D47C18163F9D5
:105100008704E11537760100C2051306460EC181FA
:105110000145EFD08FCDF240624493070080239485
:10512000F180D2444249B24905618280416501154E
:1051300023AA01A2EFD0CFB59D4501461305000D6E
:10514000EFD0AFD123800400FD472394F180814547
:10515000377601001306460E0145EFD00FC965BF33
:1051600023A201A43DC87D141374F40F41650115F9
:10517000EFD00FB21316840161869D451305000D13
:10518000EFD0AFCD83A601A40547E39CE6F44165CB
:10519000011523A001A4EFD0AFAF131689016186DA
:1051A0009D451305000DEFD04FCB4A841DBF23A6AC
:1051B00001A26306B40205041374F40F9319840169
:1051C00093D9894141650115EFD08FAC4E869D453D
:1051D0001305000DEFD06FC8DDBD4A8441BF814982
:1051E0000144CDB7411126C2C16422C44AC006C6DB
:1051F0000144938494E113092007420441802285ED
:1052000026869305F0040504EFD04FAD93170401F3
:10521000C183139407014184E39127FFC1640144D2
:10522000938494E113092007420441802285268655
:105230009305B0030504EFD06FAA93170401C1834F
:10524000139407014184E39127FFC16401449384CF
:1052500094E11309200742044180228526869305A4
:1052600070020504EFD08FA793170401C183139434
:1052700007014184E39127FFC1640144938494E1D1
:10528000130920074204418022852686CD45050466
:10529000EFD0CFA493170401C18313940701418475
:1052A000E39227FFC16413043006FD14A2857D1428
:1052B00042047D46130530024180EFD02FA2E31750
:1052C00094FEC16413043006FD14A2851306007E0B
:1052D00013058003EFD08FA0A2851306007E13056F
:1052E0009003EFD0AF9FA2857D1442041306007E89
:1052F0001305A0034180EFD06F9EE31894FCC164B6
:1053000013043006FD14A2857D1442047D46130566
:10531000F0044180EFD08F9CE31794FE930400804B
:10532000130630029D45294523949180EFD0CFBFCD
:10533000377601007D491306C60B9D451305100302
:1053400023942181EFD06FAA1306F0049D45130525
:10535000800523949180EFD02FBD3776010013068E
:10536000060C95451305800723942181EFD0EFA704
:10537000377601001306460C914513058007EFD0E0
:10538000CFA6377601001306860C8D4513058007DE
:10539000EFD0AFA5377601001306C60C894513057B
:1053A0008007EFD08FA4377601001306060D8545E0
:1053B00013058007EFD06FA3377601001306460D63
:1053C000814513058007EFD04FA2B240239491800E
:1053D00022449244024941018280797122D44AD008
:1053E0004ECE52CC8569416A3769002026D256CA12
:1053F0005AC85EC662C406D6239501948147130934
:10540000C96793043006138B893B930AFA8121A85C
:105410000347C7CE630BD7028507C207C187239511
:10542000F19463C3F42A0397019DE307F7FE039702
:10543000219DE303F7FEB306F9000D673697034697
:10544000479093064005E315D6FC13970701418367
:10545000BE8663F4E40093063006DA978607CA979F
:1054600003D5470093053006958D7D15131705016B
:10547000C205418393071007C18163F4E700130558
:105480001007420556864181EFD04F858397A1943E
:1054900093960701C1823E8763F4D4001307300658
:1054A000DA978607CA9703D5470093053006998D8A
:1054B000C20593071007C18163F4A7001305100705
:1054C0005686EFD0AF818397A19493960701C1824E
:1054D0003E8763F4D40013073006DA978607CA972D
:1054E00003D5470093053006998D0505131705016F
:1054F000C205418393071007C18163F4E7001305D8
:105500001007420556864181EFC05FFD8397A19445
:1055100093960701C1823E8763F4D40013073006D7
:105520009386895AB6978607CA9703D5C70093050D
:105530003006998D7D1513170501C2054183930728
:105540001007C18163F4E7001305100742057D468B
:105550004181EFC0BFF88397A19493960701C18260
:105560003E8763F4D400130730069386895AB697B2
:105570008607CA9703D5C70093053006998DC205E3
:1055800093071007C18163F4A700130510077D4638
:10559000EFC0DFF48397A19493960701C1823E8701
:1055A00063F4D400130730069386895AB6978607AA
:1055B000CA9703D5C70093053006998D05051317C3
:1055C0000501C205418393071007C18163F4E70019
:1055D0001305100742057D464181EFC03FF08397D8
:1055E000A19493960701C1823E8763F4D400130708
:1055F00030069386092CB6978607CA9703D507000D
:1056000093053006998DC20593071007C18163F495
:10561000A7001305100713060A80EFC03FEC83971D
:10562000A19493960701C1823E8763F4D4001307C7
:1056300030069386092CB6978607CA9703D50700CC
:1056400093053006998D7D1513170501C205418319
:1056500093071007C18163F4E700130510074205A3
:1056600013060A804181EFC07FE78397A194939648
:105670000701C1823E8763F4D40013073006938686
:10568000092CB6978607CA9703D5070093053006FD
:10569000998D050513170501C2054183930710076E
:1056A000C18163F4E70013051007420513060A8061
:1056B0004181EFC0BFE28397A1948507C207C187EC
:1056C0002395F194E3D1F4D6B25022549254025966
:1056D000F249624AD24A424BB24B224C4561828027
:1056E000397162CC03A701A35ECE06DE22DC26DA86
:1056F0004AD84ED652D456D25AD066CA6AC86EC656
:105700008547938BF197630EF71C416A37AD0120F3
:105710009304300613043006130A0A80B7AC012044
:1057200085472380FB00EFE09FC383A7C1836358B5
:10573000F00C930DCD4181491309100783A74D004B
:1057400003A74D00C207C183BA8563F4F400930533
:10575000300603A50D00B305B440C2057D159317AF
:105760000501C183C1816374F90013051007420567
:1057700052864181EFC09FD683A74D0003A74D00FD
:10578000C207C183BA8563F4F4009305300683A78A
:105790000D0003A70D00B305B440C207C205C183C5
:1057A000C1813A856374F9001305100742055286DA
:1057B0004181EFC0BFD283A74D0003A74D00C207B0
:1057C000C183BA8563F4F4009305300603A50D0088
:1057D000B305B440C205050593170501C183C18116
:1057E0006374F90013051007420552864181EFC02A
:1057F000FFCE83A7C1838509A10DE3C1F9F483A777
:1058000001846358F00C938DCC7381491309100700
:1058100083A74D0003A74D00C207C183BA8563F477
:10582000F4009305300603A50D00B305B440C2058E
:105830007D1593170501C183C1816374F9001305B8
:10584000100742057D464181EFC05FC983A74D0027
:1058500003A74D00C207C183BA8563F4F400930522
:10586000300683A70D0003A70D00B305B440C2079F
:10587000C205C183C1813A856374F900130510071D
:1058800042057D464181EFC07FC583A74D0003A738
:105890004D00C207C183BA8563F4F4009305300656
:1058A00003A50D00B305B440C20505059317050116
:1058B000C183C1816374F9001305100742057D4659
:1058C0004181EFC0BFC183A701848509A10DE3C158
:1058D000F9F42945EFD05FF103A701A38547E31150
:1058E000F7E441650115EFC0BFBAF250625423805E
:1058F0000B0023A801A2D2544259B259225A925AFB
:10590000025BF24B624CD24C424DB24D01452161DB
:10591000828079716AC003A701A306D622D426D259
:105920004AD04ECE52CC56CA5AC85EC662C466C26F
:1059300085476304F714B769002037640020416984
:10594000B7AC00201304C4569384094F377C010080
:10595000377B0100B77A010013090980EFE03FA00F
:105960009307200713074006814813084006930653
:105970002007814501451386CC80EFD0AFD4EFF0EE
:105980007F86EFF09FA583459400034584004A86F7
:10599000EFE07FF68345D4000345C4007D46EFE089
:1059A0009FF583C5140003C5094F1306007EEFE081
:1059B0009FF48345B4000345A4004A86EFE0BFF39B
:1059C0008345F4000345E4007D46EFE0DFF283C544
:1059D000340003C524001306007EEFE0DFF1130658
:1059E0000CFB814513056009EFC03FC0039641964B
:1059F000854513056009EFC01FDD13068BFB894544
:105A000013056009EFC07FBE0386A4008D45130512
:105A10006009EFC09FC413864AFC914513056009D5
:105A2000EFC0BFBC039641A5954513056009EFC0C3
:105A30009FD903060401994513056009EFC0FFC112
:105A4000030624019D4513056009EFC01FC103062D
:105A5000140199451305E00BEFC03FC00306340164
:105A60009D451305E00BEFC05FBF7945EFD0DFD751
:105A700003A701A38547E313F7EE41650115EFC0C6
:105A80003FA1B250225423A801A292540259F249D4
:105A9000624AD24A424BB24B224C924C024D0145D3
:105AA000456182805D71A2C44EDE37040020B76973
:105AB000002052DC5AD85ED686C6A6C2CAC056DAC4
:105AC00062D466D26AD06ECE9389094B1304C404A3
:105AD000FD4B83A701A385446380971A95451385E1
