:100000006FB0502513000000130000001300000023
:100010001300000013000000130000001300000094
:100020001300000013000000130000001300000084
:08003000130000007300100032
:10003800000000000000000074B5000078B5000062
:10004800000000009AB90000000000000000000055
:100058009CB900009EB900000000000000000000EC
:10006800A0B9000000000000A2B9000000000000D4
:10007800A4B90000A6B90000A8B90000AAB90000F8
:10008800ACB90000AEB9000008B2000020B2000010
:100098003AB2000054B200006EB20000BAB90000D3
:1000A800BCB90000BEB90000C0B90000C2B9000068
:1000B800C4B90000C6B90000C8B90000CAB9000038
:1000C800CCB90000CEB90000D0B9000088B2000059
:1000D800D4B90000D0B30000D8B90000DAB90000E4
:1000E800FEB300001CB400004AB40000E2B90000EE
:1000F800E4B90000E6B90000E8B90000EAB9000078
:10010800ECB9000050B0000082B00000C4B000009C
:1001180006B30000F6B90000F8B90000FAB900000B
:10012800FAB40000FEB9000000BA000002BA0000EC
:1001380004BA000006BA000078B400000ABA000049
:10014800F6B0000028B10000A6B40000C8B4000052
:1001580014BA000016BA000018BA00001ABA000053
:100168001CBA00001EBA000020BA000022BA000023
:1001780024BA000026BA000028BA000000CB00000C
:100188002CBA00002EBA0000D8B100004EB1000011
:1001980080B10000B6B1000038BA000028B50000F0
:1001A8003CBA00003EBA000040BA000056B5000054
:1001B80044BA000046BA000048BA00004ABA000033
:1001C8004CBA00004EBA000050BA000052BA000003
:1001D8000000000000000000000000000000000017
:1001E8000000000000000000000000000000000007
:0801F8000000000000000000FF
:10020000737504308280B76200009382820873A005
:10021000023082803D432A876373C3029377F700DD
:10022000BDEFADE5937606FF3D8ABA960CC34CC38D
:100230000CC74CC74107E36BD7FE11E28280B306BF
:10024000C3408A069702000096966780A60023079F
:10025000B700A306B7002306B700A305B700230520
:10026000B700A304B7002304B700A303B700230318
:10027000B700A302B7002302B700A301B700230110
:10028000B700A300B7002300B700828093F5F50FF5
:1002900093968500D58D93960501D58D61B793967C
:1002A00027009702000096968682E78086FA96805D
:1002B000C1171D8F3E96E374C3F8A5B7B7F700E0EA
:1002C00023A007008146014794C7D8C7054798C3B4
:1002D00037F700E01047544763E6D500E39CB6FECD
:1002E000E37AC5FE828079715EC662C466C2328CD2
:1002F000AE8CB68B014693068004814506D622D487
:1003000026D24AD04ECE52CC56CA5AC8BE8A3A8B52
:10031000428AC6898344010303494103034481039C
:100320003D26668593068004014681450D2662853B
:100330009306800401468145192E5E85930680044C
:100340000146814529265A85930680040146814548
:10035000FD2C56859306800401468145CD2C52859F
:100360009306800401468145DD244E859306800472
:1003700001468145E92C4A85930680040146814562
:10038000F92426859306800401468145C9242285E7
:100390002254B25092540259F249624AD24A424B14
:1003A000B24B224C924C9306800401468145456134
:1003B00079AC011122CC26CA2E84AA848545096510
:1003C00006CE4AC84EC63289B689EFB0F06BB70781
:1003D000055003C70700130560058D451377F70C1B
:1003E0002380E70003C70700136727042380E70083
:1003F00003C717001377970FA380E70023923701F5
:100400002393270184C7C0C703C717001377F703D7
:10041000A380E70003C717001377F70FA380E70057
:1004200003C72700136747002381E70003C71700AE
:1004300013671700A380E70003C7070013671700BF
:100440002380E700EF3010056244F240D244424975
:10045000B2491305600505616F309000D567938739
:10046000475A0A053E951C4103D7470203D5470268
:10047000420541858280D5679387475A0A053E9594
:100480001C41239207028280011122CC2E849145C7
:1004900006CE26CA4AC8AA843289EF00706EB755C4
:1004A00001001306D0079385053BEF2010772685C2
:1004B000EF00F06E93068004014681451375F40F3A
:1004C000792281459306800401461375F90F412274
:1004D0009355840085476388F504C5476381F50C0F
:1004E000930710026385F50C93072002638AF508D1
:1004F00093071003638CF50C930710076381F50CC9
:10050000930710086386F508930710096385F50CB7
:10051000930720096390F502370701405C4F93E78A
:1005200007025CCF01A83705160085451305050CA9
:10053000EFB0B03985450545EFB0F0564800EFC043
:100540000028D5679387475A8A04BE948040C167C4
:10055000FD174C0022853EC402C223060100EFB005
:10056000306A228593050006EFC0202C2285854540
:10057000EFC06026F2406244D24442490561828065
:1005800037151A00854513050580EFB010345DB7A7
:10059000370701405C4F93E707015CCF61BF370528
:1005A0001800854513050530EFB0303261B73715B7
:1005B0001A008545130505C0EFB03031A5BF3707D8
:1005C00001405C4F93E747005CCFADB785450565BB
:1005D000EFB0B02F85B7370701405C4F93E70704B2
:1005E0005CCF89BF9357550013972700D567938732
:1005F0008742BA973D89984385473395A70099C1AB
:1006000008CB828048CB8280135735009376C70190
:100610005567130787423697184385473395A700D8
:100620001C477D8D3335A00082809357350013F72A
:10063000C701D56793878742BA9798439377F500A8
:10064000054554473315F500358D48C782807971CB
:1006500006D622D426D24AD04ECE52CC02C202C4F2
:1006600002C69307F00F630DF506135455001D885D
:100670009374F5003689B2892E8A0DC885476304C4
:10068000F40A89476306F40A8D476308F40A914720
:10069000630BF40A9547630EF40A9947631CF40050
:1006A000854513050010EFB0104029A08545114580
:1006B000EFB0703F0547B3149700C204D567938726
:1006C0008742C1800A043E94231291009377F90F68
:1006D0000040630FEA004C0022853EC6EFB0205672
:1006E000B250225492540259F249624A45618280C2
:1006F00042091359090113598900631309000D496F
:100700004C0022854AC43EC6EFB060534E86A68593
:100710002285EFB0F01AB250225492540259F24995
:10072000624A4561828085452145EFB0D03759B78F
:1007300085454145EFB03037B5BF8545130500020B
:10074000EFB0703685BF854513050004EFB0B035B6
:1007500095B7854513050008EFB0F034A1BFD56704
:100760009387873803AF070083AE470003AE870047
:1007700003A3C70083A8070103A84701D44F9853D8
:10078000904FDC531D71A6CAAE84854586CE7ACCC7
:1007900076CE72D01AD246D442D636DA3ADCA2CC21
:1007A000CAC8CEC6D2C43EDE2A843759010032D828
:1007B000EF00103D9305C94313065002EF20F045AA
:1007C000130660029305C94333359000EF20F044CF
:1007D0002285EF00D03C13DAF40093170A01C1839D
:1007E0008507B3D4F402D567931924009387475A39
:1007F000CE9703A907006C00231641014A852319EF
:10080000010023170100230A01001374F40F0A04E6
:1008100023189100EFB0D03E05464A858545EFB0DC
:10082000307F4A858545EFC0000F9C003E9403252C
:1008300084FD8D45EF3000469C00BE9903A589FDDF
:10084000EF3000424A858545EFB0F078F6406644C7
:10085000D6444649B649264A25618280630305206D
:100860008547630CF52089476303F5208D47630CAA
:10087000F520C147630FF520C5476303F522C9473B
:100880006307F522CD476301F52493070010630445
:10089000F524930710106306F524930720106308CE
:1008A000F52493073010630AF524930700116307BA
:1008B000F520930710116308F52493072011630BAB
:1008C000F52493073011630EF5249307002063018C
:1008D000F526930710206303F52693072020630570
:1008E000F526930730206308F52693070021630B54
:1008F000F52693071021630EF52693072021630147
:10090000F528930730216304F52893070022630735
:10091000F52893071022630AF52893070030630D2A
:10092000F528930710306300F52A930720306303FE
:10093000F52A930730306304F52C930700316309DF
:10094000F52A93071031630EF52893072031630FC2
:10095000F52A930730316302F52C93070040630CAE
:10096000F51693071040630EF516930720406300B9
:10097000F518930730406302F5189307007063037E
:10098000F51E930710706306F51E93072070630928
:10099000F51E93073070630CF51E93070071630D0D
:1009A000F520930710716300F5229307207163030C
:1009B000F522930730716300F5289307058063885B
:1009C00007128567138717806309E512138727804D
:1009D0006301E528938737806306F52685671387CB
:1009E0000781630FE52C138717816304E52C1387B8
:1009F00027816308E51E138737816300E52213878B
:100A000007906309E51C13871790630AE51E138797
:100A100027906309E52813873790630EE52613872F
:100A200007916303E526938717916308F52485678B
:100A300013872791630CE522138737916301E52221
:100A4000138707926301E50C138717926308E51477
:100A500013872792630BE514938737926306F51C7F
:100A6000828093068031014685452145CDB69306A7
:100A70008031014685452945D9BE9306803101461E
:100A800085452545E9B693068031014685452D45C6
:100A90007DBE93068031014685451305900845BE0D
:100AA00093068031014685451305B0084DB693067F
:100AB0008031014685451305D00851BE930680312B
:100AC000014685453D4561B6930680310146854521
:100AD0001305E008ADBE930680310146854501450A
:100AE000BDB6930680310146854505458DB6930612
:100AF000803101468545094599BE930680310146FE
:100B000085450D45A9B693068031014685451305F7
:100B1000300235BE93068031014685451305A0029B
:100B20003DB693068031014685451305B00205B6F2
:100B30009306803101468545194511BE93068031E3
:100B4000014685451D4521B6930680310146854500
:100B500013050002EDBC930680310146854513055F
:100B60001002F5B4930680310146854513056004F3
:100B7000F9BC930680310146854513057004C1BC5C
:100B8000930680310146854513058004C9B4930658
:100B90008031014685451305900455BC930680318C
:100BA00001468545130540025DB493068031014638
:100BB00085451305500261BC930680310146854589
:100BC0001305600269B4930680310146854513051B
:100BD0007002B5BC9306803101468545130580023D
:100BE000BDB493068031014685451305D00685B412
:100BF00093068031014685451305C00689BC9306DE
:100C00008031014685451305900291B493068031E9
:100C1000014685451305E0061DBC9306803101465B
:100C200085451305F00625B49306803101468545B8
:100C30001305F00429BC9306803101468545130550
:100C4000D00431B493068031014685451305400434
:100C5000FDBA93068031014685451145CDBA93060C
:100C600080310146854513057006D5B29306803163
:100C70000146854513055006D9BA930680310146D1
:100C8000854513053006E1B293068031014685455E
:100C9000130510066DBA930680310146854513058C
:100CA000B00475B2930680310146854513053004C2
:100CB00079BA93068031014685451305B00641BADD
:100CC00093068031014685451305900649B2935736
:100CD000850055671307475A8A07BA9794434547D3
:100CE00083D7C602B385F5026302E5046364E502B7
:100CF000FD779387076FAA970D47636DF7009307FA
:100D0000803E0D89B3D5F5020A053695C205C1812D
:100D10004CD98280896793870771B3D5F5020D8915
:100D20000A053695C205C1814CD98280E167938757
:100D3000076AB3D5F5020D890A053695C205C1814A
:100D40004CD98280397126DA9354850022DC4ED644
:100D50002A84AE8926858D4506DE4AD832890D253E
:100D6000B75501001306900B9385054BEF20E06A01
:100D7000268535252285DD3485450545EFB0A05211
:100D80009357440005476388E70445476386E7189F
:100D9000130710026388E71A130720026384E7141D
:100DA00013071003638FE71A130710076384E71A0A
:100DB000130710086380E714130710096388E71A04
:100DC000130720096390E702370701405C4F93E760
:100DD00007025CCF01A83705160085451305050CF1
:100DE000EFB0A02E83A541844545B3D73503C18319
:100DF00093861700B3863603139707014183B3D553
:100E0000D502139605014182B28533092603630A90
:100E1000A40A6364A40AFD779387076FA2978D469F
:100E20009309803E63EBF608D5679387475A8A0497
:100E3000BE9484409387F5FF4C0026852314F1006F
:100E40002312E100231501002313010023060100F2
:100E5000EFB0005B33563903C167938707073EC87D
:100E6000B70702008907231A01003ECC02CE0D8885
:100E7000231BC10039C885476308F40A89470C0859
:100E800026856300F408EFB0B009A1452685EFB0D0
:100E9000B01F930500402685EFB090242685854538
:100EA000EFB0701526858545EFB0F012F250625410
:100EB000D2544259B2592161828009669309067160
:100EC000A5B761669309066A85B70C082685EFB059
:100ED00080602685A145EFB0501791452685EFB07B
:100EE000501C6DBF37151A00854513050580EFB0FE
:100EF000C01DCDBD370701405C4F93E707015CCFB4
:100F0000D5B5EFB0E0742685A145EFB0D016914578
:100F10002685EFB0D01B59B7370518008545130556
:100F20000530EFB0801A7DBD0C082685EFB0206536
:100F30002685A145EFB09012930500402685EFB0BD
:100F40007017A9BF37151A008545130505C0EFB006
:100F5000C01749BD370701405C4F93E747005CCF9E
:100F600051B585450565EFB04016ADBD3707014069
:100F70005C4F93E707045CCFB5B5411122C426C28C
:100F80004AC006C6AE843284368955C5C14763025D
:100F9000F510930700026301F51293070003630A3B
:100FA000F50E93070004630DF514B7550100130601
:100FB0009002938545520145EF202046894763867C
:100FC000F408C9476385F40A930720026388F41084
:100FD00093072003638DF408930720046387F40EBE
:100FE000B755010013060003938545520145EF20D4
:100FF000C04285476305F406C5476303F4089307B9
:1010000010026306F40E930710046304F4109307B0
:1010100010036307F4069307F00F6315F4082244E6
:10102000B24092444A850249930600310146854503
:1010300041016FF0CFE193068031054685451545A6
:10104000EFF0EFE08947E39EF4F693068031054622
:1010500085451D45EFF0AFDF8547E31FF4F89306A4
:101060004030054681451945EFF06FDE4DBF9306D0
:1010700080310546854513055002EFF04FDD95BFE1
:10108000930640300546814513054002EFF02FDC02
:1010900079B7930680310546854513053002EFF098
:1010A0000FDB29BFB7550100130680039385455216
:1010B0000145EF208036A5B793068031054685456A
:1010C0001305D002EFF0AFD8D5BD930680310546A9
:1010D00085451305C004EFF08FD721BF93068031FB
:1010E000054685451305F002EFF06FD619B7930654
:1010F0004030054681451305E002EFF04FD505B7B6
:1011000093068031054685451305A004EFF02FD4E2
:1011100075B593064030054681451305B004EFF0E0
:101120000FD3F5BD5D7193182500CAC02A89556596
:101130001305855946954EDE8329050086C6A2C44F
:101140004E85A6C252DC56DA5AD85ED63E8BAE84A5
:10115000B28B368ABA8A4284EFB0601C8545054559
:10116000EFB06014C1476309FA0E930700046316D9
:10117000FA00930720046385FA16630B090E85476E
:101180006301F91889476309F916A2865A86D6853C
:101190005285E533B70704013EC623180100854791
:1011A0006380F40E638C04100947638AE40E8D4655
:1011B0006385D40803A481939307F00F3354740319
:1011C0004204418063F287041304800393070020E4
:1011D0006C004E85231BF1009D47231C8100231EBC
:1011E000F100231D0100EFB0A0194E858545EFB039
:1011F000001FB640264496440649F259625AD25A14
:10120000425BB25B616182809307F00763E7870608
:101210009307F00363E3870CFD4763E9870EBD473F
:1012200063E9870E9D4763E8870E8D4763E7870E66
:10123000854763F6870E014451BF231AF10003A4CA
:1012400081932319E1009307F00F33547403420490
:101250004180E3EB87F64DBFC947E390FAF2C547FB
:10126000E31DFBF085450545EFA03066E31909F065
:1012700085450565EFB0200309BF13040003B9B726
:1012800003A4819323190100231A9100335474039A
:101290009307F00F42044180E3E887F2B5B703A457
:1012A000819323199100231A010033547403930787
:1012B000F00F42044180E3E987F0B9B703A48193BA
:1012C00023190100231A0100335474039307F00F0C
:1012D00042044180E3EA87EE05BF13048002FDB5B6
:1012E00093071004E31BFBE8371520008545130521
:1012F0000510EFA0905D51B585452165EFA0907C6C
:1013000069B585451165EFA0F07B41B51304000276
:1013100075BD614465BD414455BD214445BDB755CA
:1013200001001306D008938545520145EF20E00ED9
:1013300071BDD5670A0593878759AA9798432316E5
:10134000B7008357870093F70708E5FF8280D567CA
:101350000A0593878759AA97984393D78500231640
:10136000F7008357870093F70708E5FF93F5F50F1C
:101370002316B7008357870093F70708E5FF82809D
:1013800093172500138541A53E951C4181E70CC1AB
:10139000054582803385B74013351500828021C111
:1013A0000547630BE50209476308E5020D47630E35
:1013B000E5021147630FE50215476300E50419478D
:1013C0006301E5041D476303E50421476304E50465
:1013D00025476306E504828085456FA0B06E0565EC
:1013E0008545130505806FA0106C854511456FA0DC
:1013F000706D854521456FA0F06C854541456FA016
:10140000706C8545130500026FA0D06B854509659A
:101410006FA070698545370508006FA0D0688545C5
:10142000370510006FA03068411122C406C62E8413
:1014300041C98947630BF516C147630BF512C947CC
:10144000630AF51A930700026305F51C930720024F
:10145000630AF51893074002630CF51C9307000418
:101460006302F518930720046302F5209307000533
:101470006305F522930720056300F5249377D5FFD4
:10148000130700066383E720930700076301F51C39
:1014900093072007630EF524930740076308F5269A
:1014A000930700086303F528930720086310F502EB
:1014B000E146014685451305E008EFF04F9939A054
:1014C000E146014685452545EFF06F98854763075E
:1014D000F4088D476300F40CC5476300F40ECD4754
:1014E0006307F40E93071002630EF41093073002A3
:1014F0006307F408930750026305F412930710047E
:10150000630FF40693073004630BF414930710057C
:101510006306F416930730056309F4189307100661
:101520006304F41A930730066307F41A930710074D
:101530006308F410930730076306F41A9307500703
:10154000630FF41A93071008630AF41C930730081A
:101550006305F41EB2402244410182809306800458
:101560000146814529452244B24041016FF02F8E4A
:10157000E146014685450945EFF06F8D81BF224464
:10158000B24093068004014681451305B004410131
:101590006FF0EF8B2244B2409306800401468145F0
:1015A0001305700241016FF08F8AE14601468545BF
:1015B00013056002EFF0AF8911BF2244B2409306D9
:1015C0008004014681450D4541016FF04F8822445A
:1015D000B24093068004014681451305600641012F
:1015E0006FF0EF86E146014685451305A004EFF054
:1015F0000F86E9BDE1460146854513055006EFF02B
:101600000F85E9B593068004014681451305B002B4
:1016100099BFE146014685451305A002EFF02F83EF
:1016200075B593068004014681451305900625BFD4
:10163000E1460146854513058006EFF04F8179B5F7
:1016400093068004014681451305300429BFE14615
:101650000146854513052004EFE07FFF85BD930615
:1016600080040146814513051002F5BDE14601469F
:10167000854513050002EFE09FFD89BD93068004B8
:101680000146814513052006F9BDE1460146854521
:1016900013050004EFE0BFFB15BDE146014685459B
:1016A0001305C004EFE0BFFA15B5930680040146A8
:1016B00081451305900845BDE14601468545130562
:1016C0008008EFE0DFF819B59306800401468145F4
:1016D0001305100449BD9306800401468145130596
:1016E000B00851B593068004014681451D45A5BD4E
:1016F000E146014685451945EFE07FF5C1BB9306FC
:101700008004014681451305D008B1BDE14601467C
:1017100085451305C008EFE09FF34DBB9306800499
:1017200001468145130550043DBDE146014685450E
:1017300013054004EFE0BFF151BB9306800401465E
:1017400081451305F00805B51DC6D5670A059387C1
:10175000C75CAA9798432E96850583C6F5FF8357E5
:10176000070093F70708E5DF93970601C18323126B
:10177000F700E393C5FE8280D56713172500938792
:10178000C75C4111BA9726C2AA84884322C42E8618
:101790002E849305505206C6EFB0802B13858185A9
:1017A000269503450500B7E700E0AA972380074088
:1017B00019C42244B240924441016F20604A22443D
:1017C000B240924441016F20404BD5670A05938790
:1017D000C75CAA9798438357070093F7070299E3DA
:1017E000014582808357470005452380F5008280AC
:1017F000797122D44ECE2A84AE890545854506D618
:1018000026D24AD0B2843689EFA0F029CA8526852F
:1018100021398947638DF414C9476382F40693071D
:1018200020026386F40A93074002638DF40A93074B
:1018300020046385F40C93072005639AF40C930746
:101840003005630CF91821C48547630AF4148947ED
:10185000630DF4148D476300F41691476303F41687
:1018600095476306F41699476300F4189D4763147F
:10187000F402854513050010EFA0D02429A8CD4718
:10188000E313F9FC85452145EFA0300455FC85455F
:101890001165EFA05021D5679387C75C0A043E9479
:1018A00000408A85B7070C0022854EC03EC423162F
:1018B000010002C2EFB0000722858545EFB0401756
:1018C000B250225492540259F249456182809307E2
:1018D0003002E31AF9F63705140085454105EFA0FB
:1018E000C07E95B793075002E31FF9F43705140043
:1018F000854513050503EFA0407DB1B7930730047C
:10190000E313F9F485450565EFA0207C2DBF93070F
:101910002006639EF40093073006E316F9F23715AC
:101920000080854513050580EFA0207A29BF930725
:101930002007639EF40093073007E316F9F037079A
:1019400001405C4FB7064000D58F5CCFEDBD9307DB
:1019500040076396F40293075007E316F9EE370742
:1019600001405C4FB7068000D58F5CCFE9BD8D4745
:10197000E31BF9EC85451145EFA02075E9B5930708
:101980002008E392F4EC93073008E31EF9EA3707E6
:1019900001405C4FB7060002D58F5CCF6DB5854521
:1019A00037050200EFA01012FDB58545370504008C
:1019B000EFA05011CDB5854537050800EFA0901078
:1019C000D9BD854537051000EFA0D00FE9B5854595
:1019D00013050004EFA0100F7DBD370520008545DD
:1019E0000505EFA0806E85B5854513050008EFA0BD
:1019F000700D55B5011122CC9385D18F154506CEBA
:101A000026CA4AC84EC6D13305469385D18F138561
:101A1000C1A9EF1010281384818F184085476309EE
:101A2000F700F2406244D2444249B24905618280E3
:101A30001389C18F834509009389C1A793F5F50FD9
:101A40009387150093F7F70F81461386818FCE9504
:101A50001385C1A92300F900EF10502F8347090017
:101A60000D47E370F7FC8345090037550100114627
:101A7000F115CE951305C55EEF1021395DF189474B
:101A80001CC045B7011122CC93855190194506CE53
:101A900026CA4AC84EC6153B054693855190138504
:101AA00001ADEF10101F13840190184085476309A2
:101AB000F700F2406244D2444249B2490561828053
:101AC0001389419083450900938901AB93F5F50F84
:101AD0009387150093F7F70F814613860190CE95F3
:101AE000138501AD2300F900EF105026834709004C
:101AF0000D47E370F7FC8345090037550100114697
:101B0000F115CE951305C55EEF1021305DF18947C3
:101B10001CC045B783A7C19209476388E7000D47FA
:101B20006388E70011476383E70082806F1060637A
:101B30006F10403B83A7C19211476386E7000D47B2
:101B40006385E70082806F1000686F10E03F01112D
:101B50005AC006CE22CC26CA4AC84EC652C456C265
:101B6000138BA18083470B00375401002E8AB28467
:101B70009305445F130620052A893335F500B6899D
:101B8000938AB180EF10700903C50A009305445F82
:101B9000130630053335AA00EF10300803450B005B
:101BA0009305445F1306400533B5A400EF10F0061B
:101BB00003C50A009305445F1306500533B5A90019
:101BC000EF10B00583A74180556703244743E1CB5D
:101BD00005476380E71A930A004023285401056BE8
:101BE0001309890293848402130B0B80232A540166
:101BF0004209C2040947232A640113590901C1801B
:101C00009305A0020545638BE710EFF08FF22328C0
:101C10006401232854010545CA85232A5401EFF0A5
:101C20000FF3A6850545EFF08FF223285401232AF0
:101C300054019305B0020545232A6401EFF06FEFCC
:101C400093054A032328640123285401C205C18156
:101C50000545232A5401EFF08FEF93854903C20510
:101C6000C1810545EFF0AFEE23285401232A54012A
:101C7000232A64019305C0020545EFF08FEB23286A
:101C8000640123285401232A5401F2406244D244BF
:101C90004249B249224A924A024B05618280930A24
:101CA000004023285401056B130B0B80232A540199
:101CB0009305A0020545232A6401EFF08FE7930501
:101CC00049032328640123285401C205C181054525
:101CD000232A5401EFF0AFE793854403C205C18185
:101CE0000545EFF0CFE623285401232A540193053C
:101CF000B0020545232A6401EFF0AFE393058A02A1
:101D00002328640123285401C205C1810545232AE3
:101D10005401EFF0CFE39385890291B7EFF06FE1C3
:101D200023286401232854010545CA85232A540128
:101D3000EFF0EFE1A6850545EFF06FE123285401B0
:101D4000232A54019305B0020545232A6401EFF0CC
:101D50004FDE93055A032328640123285401C2054A
:101D6000C1810545232A5401EFF06FDE93855903A5
:101D7000FDB5930A004023285401056B130B0B801B
:101D8000232A54019305A0020545232A6401EFF09C
:101D90004FDA930559032328640123285401C2050F
:101DA000C1810545232A5401EFF06FDA938554036E
:101DB00035B7797122D4375401001306B008930562
:101DC000445F054506D64AD04ECE26D252CC56CADE
:101DD0005AC85EC662C466C2EF1020641306C0080B
:101DE0009305445F0545EF10406303A68193930775
:101DF000F00F130720021308F00F9306000205826C
:101E000081450545EFF00FB2C146014685451305F2
:101E1000B006EFE0DF83C146014685451305C006E5
:101E2000EFE0FF82C146014685451305A006EFE0BD
:101E30001F82C1460546854513056004EFE03F81DA
:101E40001389418003270900854763FEE742930613
:101E500070081307000F83A781938964938404F4A7
:101E6000B3D797021305800C556603244643856C4F
:101E70008145138AB180938AA180232A940123008B
:101E8000DA002380EA00930B4006130B0040138C0A
:101E90000C803385A702EFE06FC203A581938145D3
:101EA000232894013355950233057503EFE00FC1E4
:101EB00023286401232A6401930560030545232A2E
:101EC0008401EFF00FC703A5819323288401232801
:101ED000640133559502232A640181453305750356
:101EE000EFE0CFBD832709006384073A0547638C81
:101EF000E73A09476383E73A9305000A0545EFF09F
:101F00004FC39304004004C805691309098044C8FD
:101F1000232A24019305A0030545EFF08FC1232850
:101F2000240104C89545054544C8EFF08FC004C896
:101F300044C8232A24019305200B0545EFF06FBF09
:101F40002328240104C8B145054544C8EFF06FBEFD
:101F5000B1450545EFF0EFBD81450545EFF06FBD9B
:101F6000930530030545EFF0CFBC930530030545DD
:101F7000EFF02FBC04C844C8232A24019305700B3A
:101F80000545EFF00FBB2328240104C89305500337
:101F9000054544C8EFF0EFB904C844C8232A24011A
:101FA0009305B00B0545EFF0CFB82328240104C8F2
:101FB00093057003054544C8EFF0AFB704C844C8A3
:101FC000232A24019305000C0545EFF08FB6232842
:101FD000240104C89305C002054544C8EFF06FB55D
:101FE00004C844C8232A24019305200C0545EFF0BA
:101FF0004FB42328240104C88545054544C8EFF0A3
:102000004FB304C844C8232A24019305300C054566
:10201000EFF02FB22328240104C8C945054544C860
:10202000EFF02FB104C844C8232A24019305400CC3
:102030000545EFF00FB02328240104C893050002E2
:10204000054544C8EFF0EFAE04C844C8232A240174
:102050009305600C0545EFF0CFAD2328240104C89B
:10206000BD45054544C8EFF0CFAC04C844C8232A99
:1020700024019305000D0545EFF0AFAB23282401A3
:1020800004C89305400A054544C8EFF08FAA93059C
:10209000100A0545EFF0EFA904C844C8232A24011B
:1020A0009305000E0545EFF0CFA82328240104C8AE
:1020B0009305000D054544C8EFF0AFA791450545D0
:1020C000EFF02FA7B5450545EFF0AFA6C54505458F
:1020D000EFF02FA6CD450545EFF0AFA59305B00273
:1020E0000545EFF00FA59305F0030545EFF06FA44C
:1020F000930540050545EFF0CFA39305C0040545C2
:10210000EFF02FA3E1450545EFF0AFA2B54505453A
:10211000EFF02FA2AD450545EFF0AFA1FD45054518
:10212000EFF02FA1930530020545EFF08FA004C812
:1021300044C8232A24019305100E0545EFF06F9F34
:102140002328240104C89305000D054544C8EFF079
:102150004F9E91450545EFF0CF9DB1450545EFF008
:102160004F9DC5450545EFF0CF9CCD450545EFF0AA
:102170004F9C9305C0020545EFF0AF9B9305F0031C
:102180000545EFF00F9B930540040545EFF06F9A6E
:10219000930510050545EFF0CF999305F00205452D
:1021A000EFF02F99FD450545EFF0AF98FD4505454A
:1021B000EFF02F98930500020545EFF08F979305F8
:1021C00030020545EFF0EF9604C844C8232A2401E5
:1021D000930510020545EFF0CF952328240104C88C
:1021E00044C804C844C8232A2401C5450545EFF066
:1021F0004F9403A581938967938707F43355F502BC
:102200002328240104C8814544C893174500338519
:10221000A7400E05EFE08F8A04C844C8232A240192
:10222000930590020545EFF0CF9003C60A00834660
:102230000A002328240104C83309D602FD167D169E
:10224000C206420644C8B7070020C18241828145C8
:10225000014503D40755EFF09F8F630909007D19ED
:10226000A2850545EFF0AF8EE31B09FEB250225464
:1022700092540259F249624AD24A424BB24B224C22
:10228000924C456182809306000F13077008E1B6F7
:1022900081450545EFF0EF89ADB193050007054590
:1022A000EFF02F89B9B99305000C0545EFF06F8861
:1022B00089B9411122C403C4A18083C6B180130629
:1022C000F4FF42063304D402FD16C20626C2B70745
:1022D0000020AA84C18241828145014506C6239817
:1022E0009754EFF0DF8619C47D14A6850545EFF0FD
:1022F0000F867DF8B2402244924441018280130748
:10230000F00E6367A70013076008AE866373B7001B
:102310008280411122C432842A8606C6EFF03F83B0
:10232000A2852244B240054541016FF04F8283C728
:10233000A18079714AD03759010026D256CA62C4A9
:10234000AE8A2A8C9305495F3335F500B2841306B3
:10235000F01306D64ECE52CC5AC85EC622D4EF1029
:10236000C00B03C5B1809305495F1306001433B554
:10237000AA00EF10800A938704FE5567920713079F
:1023800007713389E700920A930B7C00B38A2A41D4
:102390004107C20BC20A93DB0B01330BF70093DA40
:1023A0000A01370A0020B3862A01C206C1825E866E
:1023B000B6856285EFF0AFF921448344090011A886
:1023C00083D581807D141374F40FEFE05FF885806E
:1023D00019CC93F714000545E5F783550A557D148C
:1023E00005451374F40FEFE09FF685807DF0050935
:1023F000E31B69FBB250225492540259F249624ADB
:10240000D24A424BB24B224C4561828083C7A180A5
:10241000011126CAB754010022CC4AC84EC62E89E3
:10242000B2899385445F130600162A843335F5007C
:1024300006CEEF00907E03C5B1801306101693857B
:10244000445F3335A900EF00507D0386090005C2C3
:10245000814485042285CA85C204D13DC180B387E9
:102460009900038607002104420441807DF2F24076
:102470006244D2444249B2490561828083C7A18047
:10248000797122D4375401004AD04ECE52CC3289D1
:102490002E8A130650179305445FAA893335F50039
:1024A00006D626D2EF00707703C5B18013066017F9
:1024B0009305445F3335AA00EF003076634A09067E
:1024C00013060002D2854E859D352947B347E902A0
:1024D0009306400613848900938909024204C209C5
:1024E0006400418093D90901B346D902B3E7E702FA
:1024F0002306D1003369E902A306F1002307210175
:1025000003C6040022852104130606036206420462
:10251000D28561864180EFF09FE18504E39289FED8
:10252000B250225492540259F249624A4561828063
:10253000330920411306D002D2854E856209EFF09F
:102540001FDF1359894151B783C7A180797126D202
:10255000B754010022D44AD052CC32892A842E8A20
:102560003335F5009385445F1306701906D64ECEB9
:10257000EF00B06A03C5B1809385445F13068019EC
:102580003335AA00EF0070692947B357E902930673
:10259000400693098401C209640093D90901B35626
:1025A000D902B3F7E7022306D1003379E902A30683
:1025B000F1002307210103C604002285210413062C
:1025C000060362064204D28561864180EFF03FD661
:1025D0008504E39289FEB250225492540259F24982
:1025E000624A4561828083C7A180797126D2B7543F
:1025F000010022D44AD04ECE3289AE891306301B58
:102600009385445F2A843335F50006D652CCEF001B
:10261000D06003C5B1801306401B9385445F33B57A
:10262000A900EF00905F6348090813060002CE85F9
:102630002285EFF0DFCF9306803EB346D902A9474B
:10264000130740060966130606712104420424009C
:102650004180130AD1003347E902B345F902B3E6DA
:10266000F6023346C902A304D1003367F7022304FC
:10267000C100B3E6F5022305E1003369F902A305C1
:10268000D1002306210103C604002285210413067C
:1026900006036206CE85618642048504EFF03FC9D9
:1026A0004180E3129AFEB250225492540259F249E8
:1026B000624A45618280330920411306D002CE85EB
:1026C00022854209EFF0BFC613590941ADB783C750
:1026D000A180797126D2B754010022D44AD04ECEBF
:1026E0003289AE891306801D9385445F2A84333571
:1026F000F50006D652CCEF00505203C5B180938549
:10270000445F1306901D33B5A900EF0010519306E6
:10271000803EB356D902A94713074006096613063F
:1027200006712400130AD1003357E902B355F902A8
:10273000B3F6F6023356C902A304D1003377F70289
:102740002304C100B3F6F5022305E1003379F90251
:10275000A305D1002306210103C60400228521041C
:10276000130606036206CE85618642048504EFF0F7
:102770001FBC4180E39244FFB2502254925402594C
:10278000F249624A456182801D71D6C2938AA18056
:1027900083C70A00D2C4375A0100A2CCCAC8DAC023
:1027A0005EDE2E892A8493054A5F3335F500B28BAD
:1027B0001306801F86CEA6CACEC6138BB180B689FB
:1027C000EF00B04503450B001306901F93054A5FC9
:1027D0003335A900EF007044A947A94463E43701E9
:1027E00093F4F90F93891400B755010093F9F90F89
:1027F0005E869385056763C00B0A93070002130585
:10280000D1002306F100EF00306205051375F50FC6
:10281000637D35013386A4401376F60F7C000506F0
:10282000930500023E95EFD0FF9E03C50A001C18D9
:10283000BE991306001693054A5F3335A400238E14
:1028400009FCEF00903D03450B001306101693059D
:102850004A5F3335A900EF00503C0306C1008144B4
:1028600005C22285CA858504EFF07FACC204C18011
:102870001C18A6970386C7FD21044204418075F207
:10288000F6406644D6444649B649264A964A064B1F
:10289000F25B256182806800EF0010591375F50F17
:1028A00085BF1D71DAC0138BA18003480B00A6CA37
:1028B000B7540100A2CCCAC8D2C4D6C22E8A2A8478
:1028C0009385445F3335050132891306202286CE75
:1028D000CEC65EDE62DCBE8B66DAB689BA8C938ABF
:1028E000B180EF00903303C50A00130630229385B0
:1028F000445F3335AA00EF0050329947194C63E426
:10290000770113FCFB0FA94793FBFC0F63F39701BF
:10291000A94B01468146CE854A85EFD0101BB7559D
:1029200001004A86CE869385C566634D050E130564
:10293000D100EF00704F1307A5FF1377F70F93CB6C
:10294000FBFFBA9B050C629793FBFB0F1377F70F06
:10295000139C8B01931C8701135C8C4193DC8C418D
:10296000635C0C023307774162076187E6871306D1
:1029700000021418BE968507E207238EC6FCE18785
:10298000E399E7FEB38C7C41330C7C41E20C620C92
:1029900093DC8C41135C8C41014681464A85CE858F
:1029A000EFD0B012634A050A1C183E9C9307000240
:1029B000230EFCFC03450B001C189385445FBE9C52
:1029C000130600163335A400238E0CFCEF00F02410
:1029D00003C50A00130610169385445F3335AA0019
:1029E000EF00B0230306C100814405C22285D285D1
:1029F0008504EFF0DF93C204C1801C18A6970386FC
:102A0000C7FD21044204418075F2F6406644D64475
:102A10004649B649264A964A064BF25B625CD25C4E
:102A2000256182806800EF003040130795FF13771F
:102A3000F70F93CBFBFFBA9B050C629793FBFB0F41
:102A40001377F70F139C8B01931C8701135C8C4148
:102A500093DC8C41E3480CF01C183E9C9307D00299
:102A6000230EFCFC81BF03C3A180397152D4375AB5
:102A7000010022DC4ED662CCAE892A8493054A5FDF
:102A800033356500328C1306902706DE26DA4AD8E5
:102A90005AD05ECE428B66CAB684BE8C56D26AC805
:102AA0006EC6BA8B4689EF00501703C5B180130676
:102AB000A02793054A5F33B5A900EF0010169306CF
:102AC000FBFF1386FCFFCE962296C2064206C18209
:102AD0004182CE852285EFF08F8763060B04C169A2
:102AE000814A014AFD1933D46A03638A0C02814D7D
:102AF000014D3384840262946306090433D79D0335
:102B0000CE85054522978347070063F42701814559
:102B10000545050DEFE0BF83A69DE3119DFF050A66
:102B2000DE9AE3126AFDF2506254D2544259B2590D
:102B3000225A925A025BF24B624CD24C424DB24D39
:102B400021618280B3D79D03050D0545A69DA297FF
:102B500003C707009355370009839397B5001607FD
:102B60005D8FD98DEFE0AFFEE31E9DFD4DBF5D7122
:102B70006AD0130D25005AD85ED66ECE930BF5FFA2
:102B8000930DE5FF130B150093170D01C20DC20B3A
:102B9000420BC183A2C4A6C2CAC04EDE52DC56DAC2
:102BA00062D466D286C62A89AE89328493DD0D014D
:102BB00093DB0B01135B0B013EC60147854A0D4CAD
:102BC000954C9304F00E130A700831A8630784072C
:102BD0006303940B93071D00C207C183139707017A
:102BE0004187638D4703131D0701135D0D01E31F2B
:102BF00054FDE3E124FF4A85EA864A86EA85EFE050
:102C00001FF5CE850545EFE08FF493071D00C20741
:102C1000C183139707014187E39747FDB6402644D8
:102C200096440649F259625AD25A425BB25B225C20
:102C3000925C025DF24D6161828063EC74015E859D
:102C4000EA85EA865E86EFE09FF0CE850545EFE0F7
:102C50000FF063EC24014A85EA85EA864A86EFE0B4
:102C60001FEFCE850545EFE08FEEE3E564F75A856B
:102C7000EA865A8661B763ECB4016E85EA85EA8616
:102C80006E86EFE0DFECCE850545EFE04FEC63ECC0
:102C900074015E85EA85EA865E86EFE05FEBCE85AD
:102CA0000545EFE0CFEA63EC24014A85EA85EA8630
:102CB0004A86EFE0DFE9CE850545EFE04FE963ECBA
:102CC00064015A85EA85EA865A86EFE05FE8CE8598
:102CD0000545EFE0CFE7B247E3EEF4EE3E85EA8646
:102CE0003E8629BF03C3A180397152D4375A0100EF
:102CF00022DC4ED666CAAE892A8493054A5F3335F4
:102D00006500B28C1306503606DE26DA4AD85AD051
:102D10005ECE428B6AC8B6843E8D56D262CC6EC6F9
:102D2000BA8B4689DD2D03C5B18013066036930545
:102D30004A5F33B5A900D5259306FBFF1306FDFFB7
:102D4000CE962296C2064206C1824182CE85228557
:102D5000EFE0FFDF630A0B04C169814A014AFD19F4
:102D600033D46A03630E0D029307801C014C814D1E
:102D70003304F4026694630809043357AC03CE8528
:102D800005450A0722971843034707006374270184
:102D900081450545850DEFE08FDB269CE39FADFD6A
:102DA000050ADE9AE31E6AFBF2506254D25442597D
:102DB000B259225A925A025BF24B624CD24C424DAB
:102DC000B24D21618280B357AC03850D0545269C29
:102DD0008A07A2979C4303C70700935537000983CE
:102DE0009397B50016075D8FD98DEFE04FD6E39C22
:102DF000ADFD7DB7397122DC26DA4ED656D25AD0D7
:102E000093070008B70900207D7B89644AD852D413
:102E10005ECE62CC06DE2315F10093890900014ADB
:102E200013840192130B5B1A930B0008938404F430
:102E3000938AC191254C83D7090011466C001397E2
:102E40008700A183D98F11452317F1002316610153
:102E5000EFE09F8F231571018347040093F7F70F6D
:102E600091CF0DA803A58193814533559502EFD0ED
:102E7000EFC48347040093F7F70F89EF8357A1004E
:102E80001387F7FF42074187C207C1872315E10077
:102E9000E34AF0FC8357A100C207C1876355F002E3
:102EA00083C71A0003C72A00050AA207D98F420A5E
:102EB0002391F90023000400135A0A019109E31C2D
:102EC0008AF7014521A0E31D0AFC0545F250625432
:102ED000D2544259B259225A925A025BF24B624C76
:102EE00021618280411122C41384F1918345040041
:102EF00026C29384C191A695114506C6EFE0FF8CCA
:102F00008347040011C5850793F7F70F2300F400EA
:102F10000547638EE7008D466396D70023000400C3
:102F20002380E192B240224492444101828003C74F
:102F300004009307500AE307F7FE23000400B240A1
:102F400022449244410182800547238CE190828093
:102F500039710D4506DE22DC4ED626DA4AD852D427
:102F600056D28969412413060005930610059385FE
:102F700009581145EFE0DF8785451145EFE0CFFFA8
:102F80000145EF0050521384019223000400EFF03A
:102F90007FE61306E0146312051A2300040093076A
:102FA0000008B7040020231DF1009384440223008D
:102FB0000400938A8402130A50FA938909F483D790
:102FC000240083D604006C0813978700A183D98F4F
:102FD00011451146230E4101A30ED100231FF1001C
:102FE000EFE08FF603A581939104814533553503B6
:102FF0000605EFD0AFACE3949AFC8347040093F747
:10300000F70FA9EB8357A1011387F7FF4207418709
:10301000C207C187231DE100635EF00289649384C7
:1030200004F429A88357A1011387F7FF42074187BA
:10303000C207C187231DE100635EF00003A58193F1
:10304000814533559502EFD06FA78347040093F76E
:10305000F70FE9DB9384C19103C7140083C72400F1
:1030600093060008231DD100F98F230004001307E5
:10307000F00F638EE7048357A1011387F7FF420720
:103080004187C207C187231DE1006352F0048969AB
:10309000938909F4130AF00F29A88357A101138714
:1030A000F7FF42074187C207C187231DE100635034
:1030B000F00203A58193814533553503EFD00FA06E
:1030C00083C7140003C72400F98FE39847FD835793
:1030D000A101C207C1876350F00623000400EFF08E
:1030E0007FD12A8425EDEF00903C91473EC495475F
:1030F0003EC299473EC09306900413068004A9453A
:103100002545930890021308800293076002130775
:10311000B004EFD04F9D37150020196613070584C2
:1031200085461306068281451305058423AAE1908E
:10313000EFD02FA811A813065015B755010093859D
:1031400045670145D92C05442285F2506254D2547A
:103150004259B259225A925A216182801306D015DF
:10316000E9BF411122C4138481928345040026C221
:1031700093844192A695114506C6EFE00FE583477B
:10318000040011C5850793F7F70F2300F4000547E6
:10319000638EE7008D466396D70023000400A38367
:1031A000E192B240224492444101828003C704006C
:1031B0009307500AE307F7FE23000400B2402244BD
:1031C00092444101828083A64191B707055094C77C
:1031D0008546A380D19203C7070013671700238099
:1031E000E700828023A6A1928280411122C49385A8
:1031F0004193154506C6EFE04FDD93854193224488
:10320000B24037650020054613050506410151A46B
:1032100023ACA192B71702409843B706FFF84111BB
:103220001367170098C3D84337180240B705020048
:10323000758FD8C39843B706F7FEFD16758F98C3F0
:103240009843B706FCFFFD16758F98C3D843B706A1
:1032500081FFFD16758FD8C337079F0098C702C43A
:1032600002C69843C16613060050558F98C321A02B
:10327000A247638BC70083270800ED8F3EC6A24795
:1032800085073EC4B247EDD7B71702409C4313975A
:10329000E7006359070085473EC632478547630804
:1032A000F70001A002C632478547E31CF7FE373618
:1032B0006E011307F5FF130606603357C702B726E2
:1032C00002408C42B717024093E505018CC203A867
:1032D0000600B7157A00938505201378C8FF23A050
:1032E000060103A806001D8B3367070198C2D84367
:1032F000D8C3D843D8C3D843D8C36301B50AD84389
:10330000B706C1FFFD16758FD8C337479508130759
:1033100007406302E50437172707130707E0630038
:10332000E50A37E7B805130707806306E50A37A7FC
:103330004A0413070720630AE5083777DC021307FE
:1033400007C06300E50A631CC500D843B706050043
:10335000558FD8C329A0D843C166558FD8C3B71697
:103360000240984237060001B7170240518F98C2B9
:10337000984393166700E3DD06FED043B71602407C
:103380002147719AD0C3D04313662600D0C3DC42D4
:10339000B18BE39EE7FE41016F009010D043B7165A
:1033A00002401147719AD0C3D04313661600D0C3B0
:1033B000DC42B18BE39EE7FE41016F00700ED84303
:1033C000B7063900558FD8C359BFD843B7061D007B
:1033D000558FD8C369B7D843B7062900558FD8C3CE
:1033E000BDBFD843B7061100558FD8C38DBFF16557
:1033F0004111930610061306000693850520154516
:1034000006C6EFE0EFBE85451545EFE0EFB6B240EA
:103410000547238EE1924101828019E983C7C19358
:10342000411106C699E7EF00900801000100F5BFC1
:103430008280375501001305056FEFF0D017EF00BC
:103440001007E5B701114EC606CE22CC26CA4AC8DF
:10345000B2896358C002D56703A4075EAE8433897E
:10346000C500930500042285EF90E0627DD98504B4
:103470008385F4FF2285C205C181EF902061E3922C
:1034800024FFF24062444E85D2444249B24905616C
:1034900082805C45637AF60A011126CAAA8422CC8E
:1034A0004AC84EC652C456C206CE2E8A3289EF0092
:1034B000100083AA0401C0408840B3898A4063F6A3
:1034C00029074E86D2852295EFE03064D840944893
:1034D0004E97D8C06366D700158FE37FD7FED8C05C
:1034E00088404A94330454413A952286B3053A0100
:1034F000EFE0B061DC409848A297DCC063E6E700EB
:10350000998FE3FFE7FEDCC0D04401453309264133
:1035100023A62401492FF2406244D2444249B249D1
:10352000224A924A0145056182804A86D2852295C7
:10353000EFE0B05DDC409848CA97DCC0E3E6E7FC0A
:10354000998FE3FFE7FEC1B70945828001114AC8A0
:103550005C45032905014EC6B289104222CC26CA19
:103560005AC006CE52C456C2B307F9402A842E87E9
:10357000368B814463F8C70023A0F90003290501B5
:103580003E868544032A8400B30A494163E7CA02A0
:1035900011C70C403A85D295EFE0305763010B0418
:1035A000F2406244330590404249D244B249224A33
:1035B000924A024B0D89056182806DD30C4056867C
:1035C0003A85D295EFE0705403A609000C40569559
:1035D000529633062641EFE05053E3130BFCC12D06
:1035E00083A7090014441848B6971CC463E6E70093
:1035F000998FE3FFE7FE1CC45C4403A70900014563
:10360000BA975CC44D2569BF01112AC6B24711673C
:1036100013070765B387E7023ECEF2471387F7FF2C
:103620003ACEE5FF0561828035713AC986DEA2DCBB
:10363000A6DACAD8CED6D2D4D6D2DAD0DECEE2CC72
:10364000E6CAEAC8EEC632C536C73ECB42CD46CF43
:103650008387050038013ACCB5C337670100130DE5
:10366000C101D964054AAE8A2A84032907E5832962
:1036700047E5814C930D5002938404D0330AAA414C
:1036800019A862872300F400568C0504850CBA8AB9
:1036900083071C008DC7138C1A00E394B7FF838740
:1036A0001A0013073005890A9387B7FD93F7F70FC0
:1036B000E360F7FE8A07A6979C438287814CF65009
:1036C00066546685D6544659B659265A965A065BAC
:1036D000F64B664CD64C464DB64D0D618280E247A6
:1036E000984391073ECC83070700DDD3B3868C4017
:1036F0002300F4000507830707000504B30CD4007A
:10370000E5FB79B76247EA8625481C4311073ACCA6
:103710003D4519A08506BA8713F7F7009375F70F93
:10372000138605036374E800138675032380C600BF
:1037300013D74700E360F5FE030831028348C10157
:10374000830521020345D101830611020346E101ED
:10375000830701020347F10123000401A300B40021
:103760002301D400A301F4002302E400A302C40057
:103770002303A400A3031401A3011103230E0101D9
:103780002301A102A30EB100A300C102230FD100A7
:103790002300E102A30FF1002104A10CD5BDE247F3
:1037A0001D46984391073ECC937777009387070394
:1037B000230EF10093563700637EE6426A879D45EB
:1037C00011A0B286050713F6760013060603B307A9
:1037D000A74185072300C70093F7F70F13D63600DC
:1037E000E3E1D5FE93D517003E8B95C11387F7FF14
:1037F0006A97EA87EA95038607008306070085072C
:103800002300C700A38FD7FE7D17E396F5FE228520
:103810005A86EA85EFE0702F5A94DA9C95BD62478C
:10382000A9460328070011073ACC1357F841B347BC
:103830000701998F33E7D702B3C7D70213070703EE
:10384000230EE100638A073C85456A86294511A05D
:10385000BA85B3E6A7020506138715001377F70F9D
:10386000B3C7A702938606032300D600F5F3634986
:1038700008283A8B93551700D9D91307FBFF6A978D
:10388000EA87EA9503860700830607008507230079
:10389000C700A38FD7FE7D17E396F5FE22855A86D3
:1038A000EA85EFE090265A94DA9CDDB3E2470504FE
:1038B000850C984391073ECCA30FE4FED1BBE246B2
:1038C0006A8725489C42910636CC3D4519A00507DC
:1038D000B68793F6F70013F6F60F930506036374A5
:1038E000D80093057603330647012300B70093D62B
:1038F0004700137BF60FE36CF5FC93551B0081D951
:103900001307FBFF6A97EA87EA9503860700830699
:10391000070085072300C700A38FD7FE7D17E39616
:10392000F5FE22855A86EA85EFE0301E5A94DA9C2D
:1039300085B3E2479D07E19B03AB070083AB4700DC
:10394000A1075A85DE853ECCEFD0A0661357F5411E
:10395000B347A700998FA94633E7D7022A88B3C790
:10396000D70213070703230EE1006381072C854864
:103970006A86A94511A0BA88B3E6B702050613877F
:1039800018001377F70FB3C7B70293860603230017
:10399000D600F5F3014681465A85DE8546C63AC40F
:1039A00042C2EFC0901212482247B2486346051641
:1039B000BA889355170095C11387F8FF6A97EA876D
:1039C000EA95038607008306070085072300C700E2
:1039D000A38FD7FE7D17E396F5FE4686EA852285FE
:1039E00046C242C4EFE0701222484285EFD0E06246
:1039F0002A86AE865A85DE85EFC010644A86CE865A
:103A0000EFC010189248014681462A8BAE8B46942F
:103A1000C69CEFC0007A631D0510B737303093871E
:103A200007033ECE8D67938707032310F1029307A8
:103A3000E0022301F10299450D451D4BEA95AE8741
:103A40006A870306070083860700FD170507A38022
:103A5000C700A30FD7FEB386F540E3E4A6FE5A865F
:103A6000EA852285EFE0700ADA9C1DB1E24729471A
:103A70002546944391073ECCB3F7E60293870703AC
:103A8000230EF10033D7E6026376D616EA86A945FF
:103A9000254511A032873376B7028506B387A64144
:103AA000850793F7F70F130606032380C6003356E6
:103AB000B702E361E5FE93D517003E8BE38905D499
:103AC0001387F7FF6A97EA87EA950386070083065C
:103AD000070085072300C700A38FD7FE7D17E39655
:103AE000F5FE22855A86EA85EFE030025A94DA9C88
:103AF00045B6930750022300F400850C050449BE27
:103B000089059C003E9713FBF50F9307D002935550
:103B10001B00230EF7FC8DB39C0089083E9793F899
:103B2000F80F9307D00293D51800230EF7FC61B568
:103B30005A85DE85EFD0E0471357F541B347A7001C
:103B4000998FA94633E7D702B3C7D70213070703F4
:103B5000230EE100638E070E8546EA85294511A0F4
:103B6000BA8633E6A7028505138716001377F70F89
:103B7000B3C7A702130606032380C500F5F39547D4
:103B800063ECE7069C003E979305000393872600AD
:103B9000230EB7FC93F7F70F1946E38AC7E898009E
:103BA0003E9793873600230EB7FC93F7F70FE38019
:103BB000C7E894001306000313871700BE96238EF0
:103BC000C6FC1377F70F9945E303B7E694003697E1
:103BD00093862700230EC7FC13F7F60FE309B7E41B
:103BE00094003697230EC7FC0947E392E7E4A3004D
:103BF000C10235BD054B21B99C0089063E9713FBD8
:103C0000F60F9307E002230EF7FC13551B00E308A1
:103C100005E49305FBFF1DB5054BE35A08BE93076A
:103C2000D002A30EF1008545094B81B92AC2014695
:103C300081465A85DE85EFC0406912488548E35EBB
:103C400005D89307D002A30EF10085458948ADB38E
:103C500093070003A30EF100230FF1008D4791BFDE
:103C6000935755000547938707043315A7008A0724
:103C700037E700E0BA9788C382809357550005471D
:103C8000938707063315A7008A0737E700E0BA973E
:103C900088C38280B7E700E03E952300B54082806C
:103CA00005456F80804C11C182806FC0CFD5411116
:103CB00006C6EFC0EFD4B24041016F902062B765F5
:103CC000002099689385450B930E400511689388F1
:103CD000383613086864239515012386D501238C93
:103CE000D501B795002037670020239605311307CB
:103CF000C714B762010023900195930500002322A9
:103D0000B70E83A502E613066004130E20050543D3
:103D1000B76F01002310C7002300C70F232207003D
:103D2000231F670C232CB70C03A74FE6B7670020AF
:103D300093874707376500201305050F2380C700C9
:103D40002386C70323A20700239607002397670251
:103D500098D7A947376F01005CC1B7970020238827
:103D6000C72C83278FE6B7660020938606132300AF
:103D7000C500A380C60023A206009CCE82805D7190
:103D80006AD0376D0020130D4D0B83260D0283255D
:103D9000CD0183278D0203274D020396419A86C6E3
:103DA000A2C4A6C2CAC04EDE52DC56DA5AD85ED6CB
:103DB00062D466D26ECE039F619A13086004230614
:103DC0000D012328DD021308F00F376E00208D66E9
:103DD00023140D012326BD02232CFD0223200D00F8
:103DE00023220D00232AED02232E0D0023200D0295
:103DF000937FF60F8147814E93086004130E0E24C3
:103E0000938646F41308500213036004930540069A
:103E10003387D70072970307070085076344E800DC
:103E200063806818E396B7FEA306FD012393F1941F
:103E300063840E0023061D01B2876353E601FA87EF
:103E400037970020130707358346270093F7F70FAE
:103E50003AC636C4A305FD002305FD0081E683476D
:103E60007700D5C703AAC183B79200209382429BF3
:103E700093091007930720070D6CB79B0020370BA1
:103E80000040B3894941B303A040938C820C814424
:103E900001493EC2814A0144894D130C6CC1938B88
:103EA0008B360548130BEBF8039702006353470169
:103EB00052878395823E63D3B900CE85B3067040A6
:103EC0006357B722B3878401BA978A07DE9736977C
:103ED000B3857540814E0145138F23009443D04331
:103EE00083C60600034606006388C6166304051DE4
:103EF00005079107E314B7FE6314B41B63928A1A93
:103F00008327CD0103270D02D98F638B071EB76767
:103F1000010083ABC7E50D6AB767010003AB87E516
:103F2000B794002093076AB5896A938424B43799BB
:103F300000203EC00144894C1309C9C0F28D130C06
:103F40004006930940055E8D938AEA7683C7A43EB6
:103F500063F68C02638E370B2324A93F83C72400AA
:103F600005046385370523207901630384098504EB
:103F70001109890D83C7A43EE3EE8CFC638D3717CE
:103F8000B767010083A7C7E52324F93E83C7240050
:103F90000504E39A37FD930700002320F900C1BF11
:103FA000854E93084005E395B7E6BDBD83C7140071
:103FB000E39B37FB83C70400E39737FB896793874D
:103FC0004777EE9703950700EFD03072B3875D0116
:103FD0002A8A03950700EFD05071AA855285EFD049
:103FE000D02CDA85EFD020412320A900E31184F9F9
:103FF000B640264496440649F259625AD25A425B68
:10400000B25B225C925C025DF24D0545616182808B
:1040100083C7943EE39237F583C7843EE39E37F32C
:104020008D679387C7B5EE9703950700EFD0F06BC8
:1040300082472A8AEE9703950700EFD0106BAA8576
:104040005285EFD09026B767010083A587E5EFD0B2
:10405000803A2324A93E19B703A3870083A8C70089
:10406000B30FEF000343030083C80800E39068E840
:10407000A9CA638B160521CD924709456352F902FF
:10408000FD1E93D7FE010247F6978587BA97232E28
:104090002D012322FD0223202D032324FD024AC2E9
:1040A000890205099383E3F8DA94A28AE38A92E508
:1040B0002A84DDBB81E6850E05451DBDE39AC6E277
:1040C00065BFE31705E3C5BFE31405E375B7834692
:1040D000070099EA8346170081EA8346270089E6AC
:1040E00083463700E38606E07EC0054511B50145ED
:1040F000E318B4FB21B5930700002324F93E79B5FA
:10410000A24791E7B24783C77700E38207E08D6754
:10411000F297039727C28397A78393063006291740
:10412000D907232EDD002320DD022322ED022324E4
:10413000FD02F1BB37A70120130787DAB7970020EC
:1041400093878731232C071A2326071A2328071A57
:10415000130760042384E70013070000D8C398C343
:104160000947D8C70D4798CB116713076764239A8F
:10417000E700130760F9238BE700054582804111B2
:1041800006C6EF405074EF60A03CEF40102FB240E5
:1041900041016F40B079011122CC0394E180B797BF
:1041A000002093878731944B2396818006CE26CAC0
:1041B0004AC84EC60D476380E60283C7819C89C703
:1041C0002396019423970194F2406244D2444249D9
:1041D000B2490561828003C7870093076004E31E2C
:1041E000F7FC0395C1A39307B0F6635AF50623962F
:1041F0008194EFD0904FEFD09068B767010003A68D
:1042000087EF83A6C7EFEFC0A017B767010003A62B
:1042100007F083A647F0EFB0901EEF905067B767A6
:10422000010003A687F083A6C7F0EFC06015B7674B
:10423000010003A607F183A647F1EFB040292A89C0
:104240002285AE89EFC0705D2A86AE864A85CE850E
:10425000EFC00013EFC0F0552397A194B9BF9307A7
:10426000600963DCA706EFD05048EFD05061B76714
:10427000010003A687EF83A6C7EFEFC06010B76702
:10428000010003A607F083A647F0EFB05017EF90A8
:104290001060B767010003A687F083A6C7F0EFC0E0
:1042A000200EB76701002A86AE8603A507F183A515
:1042B00047F1EFC060582A892285AE89EFC0F055DA
:1042C0002A86AE864A85CE85EFC0800BEFC0704E41
:1042D0002396A19423978194CDB523968194239717
:1042E0008194E1BD797106D622D426D24AD04ECE31
:1042F00052CC56CA5AC85EC6EF90E05AB797002013
:1043000093878731984B59C383C7870037BA0120F9
:104310009306600483290A3E6383D70A1307400586
:10432000638BE712039BC19413842195B7BA0120D4
:104330001389E1949384419503150900130525031E
:10434000EFD0B03AAA8503A50A3FEFD0A03B634166
:10435000A0068394040013052B03EFD01039CE85FB
:10436000EFD0A042634F0502031704002390E1A49D
:104370002254239191A4B25092540259F249624AB4
:10438000D24A424BB24B45616F907014B2502254E6
:1043900092540259F249624AD24A424BB24B4561A9
:1043A0008280930790C12310F400130790C17DBF52
:1043B000930790C12390F400930490C169BF938B3D
:1043C000C1949377D7FF8546039B0B006382D70286
:1043D0009147630FF700138421959384419523102F
:1043E000040023900400B7BA01201389E194A9B70F
:1043F0004E85EFD01024B704002093160501B7B501
:1044000001205A86C1869385453213854430EF706A
:10441000203313842195B7BA01202310A40003A5EB
:104420000A3F1389E194EFD0D020031609009316B8
:104430000501B7B5012013854430C1869385C53485
:10444000EF700030938441952390A40083290A3EA5
:10445000039B0B00D5B54E85EFD0B01D931605011B
:10446000B7B5012037050020C18601469385453246
:104470001305C52AEF70C02C13842195B7BA01200B
:104480002310A40003A50A3F93844195EFD0701A2E
:1044900093160501B7B5012037050020C1860146F6
:1044A0009385C5341305052CEF70802983290A3EB6
:1044B000039BC1942390A4001389E194B5BD938715
:1044C000C1959843411106C622C426C24AC063441E
:1044D00007007D1798C31384619583570400B79430
:1044E000002037670100938484318840832587F159
:1044F00085072310F400EFC0703988C0EF904003A7
:1045000083C7119A9DE78397E1802396F1942397BF
:10451000F194EFF05FC8EFF0FFDC0317040093079E
:10452000703E63C3E706B24022449244024941010F
:1045300082809C480947FD17636FF70283C6840099
:10454000930760046399F602DC44638DE704054732
:104550006393E7020395A194130735014207239E55
:10456000A1A241839306600263F9E600EF90301543
:10457000A380019A49BF23950194239E01A2EF9045
:104580001014A380019A41B71305C002EFC0EF8950
:10459000B24023100400224423940194924402491F
:1045A0004101828083960196B7B50120370500202E
:1045B00001469385052D1305452DEF70202A23957F
:1045C000A19459BF828039715AD003A781A106DE18
:1045D00022DC26DA4AD84ED652D456D25ECE62CCEF
:1045E00066CA6AC86EC685476309F7123794002009
:1045F000D96C596CD96B1304843193044005B76AA4
:104600000100376D0100B76D0100A1A813864AEAC9
:10461000814513050008EFD07FDF1C480D47638FED
:10462000E70805476387E7120947638EE712638847
:10463000071083475401638E970813864AEA894519
:1046400013050008EFD09FDC83A701A20547638E06
:10465000E7082945EFE05FFB03A781A18547630ECB
:10466000F70A894513850195EF00100F9307008025
:104670001386CCE6814541452394F180EFD01FD9C4
:1046800013060CE885454145EFD05FD813860BE94A
:1046900089454145EFD09FD7834744017D47239407
:1046A000E180E39597F613060DEA814513050008AE
:1046B000EFD0DFD51C480D47E395E7F613868DEA6A
:1046C000854513050008EFD07FD483475401E39656
:1046D00097F613060DEA894513050008EFD01FD39E
:1046E00083A701A20547E396E7F603C7019523A038
:1046F00001A2630BF70851C38947E31CF7F409468D
:10470000930500081305540109292945EFE0DFEF5F
:1047100003A781A18547E316F7F4F250625423AC56
:1047200001A0D2544259B259225A925A025BF24B1A
:10473000624CD24C424DB24D054521618280B76733
:104740000100138687EC854513050008EFD01FCCC8
:10475000CDB5B7670100138607EB85451305000843
:10476000EFD0DFCAF9B5B76701001386C7EB8545FF
:1047700013050008EFD09FC96DBD014693050008E1
:1047800013054401592EF1B5D96705479306000872
:104790001146938507ED13050401852D5DBD397123
:1047A00022DC4AD85AD006DE26DA4ED652D456D269
:1047B0005ECE62CC66CA6AC86EC6130730062E8407
:1047C0002A8B3289930730066363B700AE8793055F
:1047D00030069D8DC20593071007C1815A8563F489
:1047E000670113051007930DFBFF130CABFF931B21
:1047F0001B0042054A864181C20D420CC20BB30C1C
:104800006441EFD0DFAF93DD0D01135C0C0193DB4E
:104810000B01229B930A1007130A300693093006F6
:1048200033849D01931704014A86C1836E8D63F41E
:10483000BA01130D1007420D135D0D016A856374F3
:10484000FA00130430063384894042044180A28573
:10485000EFD0FFAAB384BB4193970401C1834A867A
:10486000A28563F4FA0093041007C204C180268570
:10487000EFD0FFA83304BB4193170401C1834A86DC
:104880006A856374FA001304300633848940420455
:104890004180A285FD1DEFD09FA6C20D4A86A2854C
:1048A000268593DD0D01EFD09FA5E31BBCF7F250E9
:1048B0006254D2544259B259225A925A025BF24B74
:1048C000624CD24C424DB24D2161828083A641A1FF
:1048D000411126C206C622C44AC00547AA84034421
:1048E0000500638EE60C83A6C1A205476384E60A31
:1048F00003A981A285476305F90483A6C1A1638149
:10490000F606FD47238084002394F180931504016B
:104910009D47C18163F88706E11537660100C2052E
:1049200013060619C1810145EFD05FAEB2402244A3
:10493000930700802394F1809244024941018280D0
:104940004165011523A401A2EFD0BF961D469D45E8
:104950001305000DEFD09FB283A7C1A1639B270968
:104960004165011523AE01A0EFD0BF949D450146DE
:104970001305000DEFD09FB023800400FD47239462
:10498000F180814537660100130606190145EFD015
:10499000FFA769BF23A601A231C87D141374F40FC9
:1049A000131984011359894141650115EFD07F9096
:1049B0004A869D451305000DEFD05FAC15BF23AAB5
:1049C00001A09D476306F40405041374F40F131942
:1049D00084011359894141650115EFD09F8D4A86A5
:1049E0009D451305000DEFD07FA9F5BD1D491D4460
:1049F00065BF9D47376601002380F400FD479D4554
:104A00001306061901452394F180EFD03FA039BF6A
:104A100001490144C9B75D716AD003A701A2A2C4CC
:104A2000A6C2031405002AC61305F08186C6CAC0B3
:104A30004EDE52DC56DA5AD85ED662D466D26ECEDC
:104A400085472394A1806303F706939B060193DBBC
:104A50000B01139C2B005E9C060CB30C8041C20C16
:104A6000420C2E89B289135C0C0193DC0C01854445
:104A700003A6C1A1CE854A8583A681A203A7C1A2B0
:104A800083A741A163039606638B9604631797007F
:104A90005E944204418423A601A22286638F970478
:104AA000EFD07FB483A701A2E39497FC9307008023
:104AB0002394F180B24723A001A2B640239087003F
:104AC000264496440649F259625AD25A425BB25B76
:104AD000225C925C025DF24D0545616182806694C4
:104AE0004204418423A401A255B76294420423AE38
:104AF00001A04184E39C96F8DDB73304744142047D
:104B000041842286CE854A8523AA01A0EFD0BFAD7D
:104B100083A701A2E39E97F451BF5D716AD086C658
:104B2000A2C4A6C2CAC04EDE52DC56DA5AD85ED63D
:104B300062D466D26ECE03A701A2834C05002AC6BA
:104B40009306F08185472394D1806307F7082E8A66
:104B5000B28A0544376C0100130B4005B76B0100A6
:104B600003A6C1A183A781A203A7C1A283A641A1D5
:104B70006306860C638B8708630E870E639386102B
:104B800023AA01A0638E6C0313060CEAD685528516
:104B9000EFD0DF8783A701A2638F870803A6C1A197
:104BA00083A781A203A7C1A283A641A1630B860AA2
:104BB000638C870863018706E39886FC23AA01A01B
:104BC000930C600413864BEAD6855285EFD01F8480
:104BD00083A701A2E39687F8930700802394F180CE
:104BE000B24723A001A2054523809701B640264481
:104BF00096440649F259625AD25A425BB25B225C31
:104C0000925C025DF24D6161828023A401A2638FF8
:104C10006C036311870423A601A2E39386FA1306AB
:104C20000CEAD685528523AA01A0EFD02FFE83A7D8
:104C300001A2E39587F6930C400579BF23AE01A04E
:104C400063836C03E39787FC23A401A2E31787FC2B
:104C500023A601A2E39A86F223AA01A0930C600482
:104C600095B723AE01A0E39387FE23A401A2E3132B
:104C700087FE55B723A601A2E3816CFBE39686F07D
:104C8000E1BFE3916CF509B75D716AD066D286C663
:104C9000A2C4A6C2CAC04EDE52DC56DA5AD85ED6CC
:104CA00062D46ECE03A701A2834D05002AC6130568
:104CB000F08185472394A180630AF70A2E8AB28A7D
:104CC0000544930BC004376B01001DA06385850E5E
:104CD0006388870E6303871063807D0513064B543A
:104CE000D6855285EFD08FF283A701A26380870813
:104CF00003A6C1A183A581A283A7C1A203A741A145
:104D0000E31686FC23AE01A063827D0F638E8502CD
:104D100063878708630E870AB76701001386C75346
:104D2000D6855285EFD08FEE83A701A2638C870CC6
:104D300003A6C1A183A681A283A7C1A203A741A103
:104D4000630B860AE39686FC23A401A26389870489
:104D50006300870813064B54D6855285EFD00FEBBE
:104D600083A701A2930D2005E39487F893070080A1
:104D70002394F180B24723A001A205452380B70107
:104D8000B640264496440649F259625AD25A425BCA
:104D9000B25B225C925C025DF24D6161828023A66F
:104DA00001A263058700930D40050DBF23AA01A052
:104DB000930D600425B723A401A2E39B7DF579B789
:104DC00023A601A293074005E39DFDFCE31287FEA5
:104DD00023AA01A0930D400511B723AA01A09307B0
:104DE0004005E387FDFC930D4005CDBDE39085F6BE
:104DF00023A401A231BF23AE01A0E39986F423A42A
:104E000001A239B7930DC00495B7397162CC5AD05D
:104E10005ECE06DE22DC26DA4AD84ED652D456D2F0
:104E200066CA6AC803A801A2834405002A8B130539
:104E3000F08185472394A1806308F80C2E84B28901
:104E4000368ABA8A854C03A7C1A283A741A125430C
:104E50006303970F63979701FD1423AA01A093F4AE
:104E6000F40F93972400A697860763FC340D93886C
:104E70001700138827001385370093854700138692
:104E800057009386670013877700138E870013837C
:104E90009700A29722982295A2952296A2962297F1
:104EA000229E2293A29883CE0700034F0800834FCF
:104EB000050083C205008343060003C8060083473C
:104EC00003008346070083C8080003470E00500014
:104ED000D6855285A306F1002302D101A302110158
:104EE0002303E101A303F10123045100A304710092
:104EF00023050101A305D1002306E100EFD00FD166
:104F000083A701A2E39197F59307008023A001A254
:104F10002394F18023009B00F2506254D2544259F2
:104F2000B259225A925A025BF24B624CD24C424D19
:104F3000054521618280850423A601A293F4F40F24
:104F400011BF214E1D479946154691450D4509480B
:104F500085488147814435BF83A641A1011126CAF6
:104F60004AC806CE22CC4EC60547AA842E890344E1
:104F700005006382E60E83A6C1A205476386E608A4
:104F800083A681A205476388E60A83A6C1A10547D7
:104F90006382E604FD47238084002394F180931507
:104FA00004019D47C18163F98704E115376601005B
:104FB000C20513060619C1810145EFD02FC5F24085
:104FC0006244930700802394F180D2444249B2495D
:104FD000056182804165011523AE01A0EFD06FAD60
:104FE0009D4501461305000DEFD04FC923800400F5
:104FF000FD472394F18081453766010013060619A9
:105000000145EFD0AFC065BF23A601A23DC87D1406
:105010001374F40F41650115EFD0AFA91316840185
:1050200061869D451305000DEFD04FC583A681A273
:105030000547E39CE6F44165011523A401A2EFD0E6
:105040004FA71316890161869D451305000DEFD00A
:10505000EFC24A841DBF23AA01A06306B40205045F
:105060001374F40F9319840193D989414165011593
:10507000EFD02FA44E869D451305000DEFD00FC035
:10508000DDBD4A8441BF81490144CDB75D715ED623
:1050900003A781A186C6A2C4A6C2CAC04EDE52DC46
:1050A00056DA5AD862D466D26AD06ECE8547630D7E
:1050B000F712B767010003ADC715B767010083A7F3
:1050C00007163EC4B767010083A74716138441AE95
:1050D0003EC641657D15EFD0CF9D930DF00E854402
:1050E000054CCDA883A741A103A5819063968701B4
:1050F00023AA01A093C41400EFC070782A86AE865C
:1051000089470D4795450145EFD0AFF903A5C190FB
:10511000EFC0F0762A86AE868D470947994501454E
:10512000EFD02FF803A50191EFC070752A86AE86E7
:105130008D4709479D450145EFD0AFF6039541AE38
:10514000EFB0B06D2A86AE8689470D4795451305A9
:105150008007EFD00FF503152400EFB0106C2A86FE
:10516000AE868D470947994513058007EFD06FF349
:1051700003154400EFB0706A2A86AE868D47094752
:105180009D4513058007EFD0CFF103156400EFB004
:10519000D0682A86AE8689470D4781450145EFD004
:1051A0004FF003158400EFB050672A86AE868D4716
:1051B000094785450145EFD0CFEE0315A400EFB0B8
:1051C000D0652A86AE868D47094789450145EFD0CF
:1051D0004FED9DE883A7C1A2E39687F183A781A144
:1051E00023A601A2E39787EFB640264496440649DA
:1051F000F259625AD25A425BB25B225C925C025D07
:10520000F24D0545616182809307F00E638BFD02CC
:1052100093940D01C180850D03A58190EA85EFC0AF
:10522000805FA245EFC0201DB245EFB03066EFC0F1
:10523000504093150501C18101462685EFD02F8C82
:1052400079BD416A1305FAFFEFD0AF868144130A96
:105250000A80930A000F1395040141818504528648
:1052600093053004EFD0AF89E39754FF854D814417
:1052700065B7411126C2C16422C44AC006C60144B2
:10528000938494E1130920074204418022852686F5
:105290009305F0040504EFD08F8693170401C183B2
:1052A000139407014184E39127FFC164014493846F
:1052B00094E1130920074204418022852686930544
:1052C000B0030504EFD0AF8393170401C183139497
:1052D00007014184E39127FFC1640144938494E171
:1052E0001309200742044180228526869305700217
:1052F0000504EFD0CF8093170401C18313940701F5
:105300004184E39127FFC1640144938494E113092C
:1053100020074204418022852686CD450504EFC042
:105320001FFE93170401C183139407014184E39284
:1053300027FFC16413043006FD14A2857D144204C6
:105340007D46130530024180EFC07FFBE31794FEDA
:10535000C16413043006FD14A2851306007E1305F4
:105360008003EFC0DFF9A2851306007E13059003CA
:10537000EFC0FFF8A2857D1442041306007E1305DA
:10538000A0034180EFC0BFF7E31894FCC16413048D
:105390003006FD14A2857D1442047D461305F004F9
:1053A0004180EFC0DFF5E31794FE930400801306FD
:1053B00030029D45294523949180EFD0EF983766C0
:1053C00001007D49130686169D451305100323949D
:1053D0002181EFD0AF831306F0049D4513058005AE
:1053E00023949180EFD04F96376601001306C616BE
:1053F00095451305800723942181EFD02F813766CF
:10540000010013060617914513058007EFD00F80A2
:1054100037660100130646178D4513058007EFC058
:10542000FFFE3766010013068617894513058007BE
:10543000EFC0DFFD376601001306C617854513056B
:105440008007EFC0BFFC37660100130606188145D0
:1054500013058007EFC09FFBB24023949180224444
:105460009244024941018280797122D44AD04ECEC1
:1054700052CC8569416A3769002026D256CA5AC87B
:105480005EC662C406D6239301948147130909249A
:1054900093043006138B893B930AFA8121A80347B2
:1054A000C7CE630BD7028507C207C1872393F19448
:1054B00063C3F42A0397C19BE307F7FE0397E19BBD
:1054C000E303F7FEB306F9000D67369703464790EE
:1054D00093064005E315D6FC139707014183BE866A
:1054E00063F4E40093063006DA978607CA9703D57B
:1054F000470093053006958D7D1513170501C205EC
:10550000418393071007C18163F4E7001305100777
:10551000420556864181EFC09FDE83976194939642
:105520000701C1823E8763F4D40013073006DA977F
:105530008607CA9703D5470093053006998DC205A3
:1055400093071007C18163F4A7001305100756865F
:10555000EFC0FFDA8397619493960701C1823E877B
:1055600063F4D40013073006DA978607CA9703D589
:10557000470093053006998D050513170501C205EF
:10558000418393071007C18163F4E70013051007F7
:10559000420556864181EFC09FD6839761949396CA
:1055A0000701C1823E8763F4D40013073006938657
:1055B000895AB6978607CA9703D5C7009305300660
:1055C000998D7D1513170501C205418393071007B7
:1055D000C18163F4E7001305100742057D46418150
:1055E000EFC0FFD18397619493960701C1823E87F4
:1055F00063F4D400130730069386895AB69786075A
:10560000CA9703D5C70093053006998DC205930745
:105610001007C18163F4A700130510077D46EFC092
:105620001FCE8397619493960701C1823E8763F4EE
:10563000D400130730069386895AB6978607CA970F
:1056400003D5C70093053006998D0505131705018D
:10565000C205418393071007C18163F4E700130576
:10566000100742057D464181EFC07FC98397619451
:1056700093960701C1823E8763F4D4001307300676
:105680009386092CB6978607CA9703D5070093051A
:105690003006998DC20593071007C18163F4A700F6
:1056A0001305100713060A80EFC07FC58397619426
:1056B00093960701C1823E8763F4D4001307300636
:1056C0009386092CB6978607CA9703D507009305DA
:1056D0003006998D7D1513170501C2054183930787
:1056E0001007C18163F4E700130510074205130694
:1056F0000A804181EFC0BFC08397619493960701F0
:10570000C1823E8763F4D400130730069386092CC8
:10571000B6978607CA9703D5070093053006998D7B
:10572000050513170501C205418393071007C181C1
:1057300063F4E70013051007420513060A80418150
:10574000EFC0FFBB839761948507C207C18723938E
:10575000F194E3D1F4D6B250225492540259F24952
:10576000624AD24A424BB24B224C45618280397127
:1057700062CC03A781A15ECE06DE22DC26DA4AD8FF
:105780004ED652D456D25AD066CA6AC86EC685471B
:10579000938B7197630EF71C416A37AD0120930418
:1057A000300613043006130A0A80B7AC012085477F
:1057B0002380FB00EFE0BF9C83A741836358F00C7C
:1057C000930D8DF781491309100783A74D0003A797
:1057D0004D00C207C183BA8563F4F4009305300617
:1057E00003A50D00B305B440C2057D15931705014F
:1057F000C183C1816374F900130510074205528605
:105800004181EFC0DFAF83A74D0003A74D00C20762
:10581000C183BA8563F4F4009305300683A70D00B5
:1058200003A70D00B305B440C207C205C183C181FF
:105830003A856374F90013051007420552864181C9
:10584000EFC0FFAB83A74D0003A74D00C207C18384
:10585000BA8563F4F4009305300603A50D00B30583
:10586000B440C205050593170501C183C181637466
:10587000F90013051007420552864181EFC03FA889
:1058800083A741838509A10DE3C1F9F483A781832F
:105890006358F00C938D8C2981491309100783A755
:1058A0004D0003A74D00C207C183BA8563F4F4001D
:1058B0009305300603A50D00B305B440C2057D1560
:1058C00093170501C183C1816374F90013051007A3
:1058D00042057D464181EFC09FA283A74D0003A7EB
:1058E0004D00C207C183BA8563F4F4009305300606
:1058F00083A70D0003A70D00B305B440C207C2057E
:10590000C183C1813A856374F9001305100742050C
:105910007D464181EFC0BF9E83A74D0003A74D0088
:10592000C207C183BA8563F4F4009305300603A56A
:105930000D00B305B440C205050593170501C183E9
:10594000C1816374F9001305100742057D4641814A
:10595000EFC0FF9A83A781838509A10DE3C1F9F404
:105960002945EFD07FCA03A781A18547E311F7E45A
:1059700041650115EFC0FF93F250625423800B0084
:1059800023AC01A0D2544259B259225A925A025B16
:10599000F24B624CD24C424DB24D014521618280A6
:1059A00079716AC003A781A106D622D426D24AD033
:1059B0004ECE52CC56CA5AC85EC662C466C285472D
:1059C0006304F714B7690020376400204169B79C6D
:1059D0000020130404139384490B376C0100376BC8
:1059E0000100B76A010013090980EFE04FF993073E
:1059F0002007130740068148130840069306200736
:105A00008145014513868C36EFD0CFADEFF07F8610
:105A1000EFF09FA583459400034584004A86EFE09C
:105A20001FD88345D4000345C4007D46EFE03FD72F
:105A300083C5140003C5490B1306007EEFE03FD673
:105A40008345B4000345A4004A86EFE05FD5834553
:105A5000F4000345E4007D46EFE07FD483C53400C5
:105A600003C524001306007EEFE07FD313060C0568
:105A7000814513056009EFC07F990396019685451E
:105A800013056009EFC03FB613068B058945130562
:105A90006009EFC0BF970386A4008D451305600918
:105AA000EFC0DF9D13864A06914513056009EFC0DC
:105AB000FF950396C1A3954513056009EFC0BFB2DA
:105AC00003060401994513056009EFC03F9B0306D7
:105AD00024019D4513056009EFC05F9A0306140178
