:100000006FC0C06313000000130000001300000065
:100010001300000013000000130000001300000094
:100020001300000013000000130000001300000084
:08003000130000007300100032
:10003800000000000000000076C100007AC1000046
:100048000000000082C50000000000000000000061
:1000580084C5000086C50000000000000000000004
:1000680088C50000000000008AC5000000000000EC
:100078008CC500008EC5000090C5000092C5000028
:1000880094C5000096C500000ABE000022BE00000C
:100098003CBE000056BE000070BE0000A2C50000B5
:1000A800A4C50000A6C50000A8C50000AAC5000098
:1000B800ACC50000AEC50000B0C50000B2C5000068
:1000C800B4C50000B6C50000B8C500008ABE00006F
:1000D800BCC50000D2BF0000C0C50000C2C50000FA
:1000E80000C000001EC000004CC00000CAC50000CF
:1000F800CCC50000CEC50000D0C50000D2C50000A8
:10010800D4C5000052BC000084BC0000C6BC00007E
:1001180008BF0000DEC50000E0C50000E2C5000021
:10012800FCC00000E6C50000E8C50000EAC5000004
:10013800ECC50000EEC500007AC00000F2C5000062
:10014800F8BC00002ABD0000A8C00000CAC000001A
:10015800FCC50000FEC5000000C6000002C6000085
:1001680004C6000006C6000008C600000AC6000053
:100178000CC600000EC6000010C60000DAD8000049
:1001880014C6000016C60000DABD000050BD00000D
:1001980082BD0000B8BD000020C600002AC10000D2
:1001A80024C6000026C6000028C6000058C100006A
:1001B8002CC600002EC6000030C6000032C6000063
:1001C80034C6000036C6000038C600003AC6000033
:1001D8000000000000000000000000000000000017
:1001E8000000000000000000000000000000000007
:0801F8000000000000000000FF
:10020000737504308280B76200009382820873A005
:10021000023082803D432A876373C3029377F700DD
:10022000BDEFADE5937606FF3D8ABA960CC34CC38D
:100230000CC74CC74107E36BD7FE11E28280B306BF
:10024000C3408A069702000096966780A60023079F
:10025000B700A306B7002306B700A305B700230520
:10026000B700A304B7002304B700A303B700230318
:10027000B700A302B7002302B700A301B700230110
:10028000B700A300B7002300B700828093F5F50FF5
:1002900093968500D58D93960501D58D61B793967C
:1002A00027009702000096968682E78086FA96805D
:1002B000C1171D8F3E96E374C3F8A5B739CD054726
:1002C000630DE5040947630AE5040D476307E50488
:1002D00011476304E50415476301E5041947630EFC
:1002E000E5021D47630BE50221476302E50425474C
:1002F0006305E50429476308E5042D47630BE5041E
:1003000031476300E5023547630BE5043947630E67
:10031000E5043D476301E50682808146014681454B
:100320003DA3814601468145130520040DA3814666
:10033000014681451305000219AB814601468145FE
:100340001305100229A381460146814513050004C7
:10035000FDA981460146814513051004CDA98146BA
:100360000146814513053004DDA1814601468145E2
:1003700013054004E9A9814601468145130550044F
:10038000F9A1411122C4372401404AC091460546D3
:100390002E899375F50F1305044006C626C2EFC0DB
:1003A000E055130504408545B7240140EFC0605374
:1003B0001384044089452285EFC0206065DD03A5D4
:1003C000C444B240224433552501420592440249B7
:1003D000418141018280797106D622D426D2F93D2D
:1003E000854513050020EFC0B04901453724014081
:1003F000EFC0903413050440EFC06040B7070E0013
:10040000130504408A853EC68547230AF10002C0D1
:1004100002C202C402C8EFC0A043130504408545D0
:10042000EFC0C048130504408145EFC0A059130533
:100430000440B7240140EFC0804813840440228563
:10044000EFC080486DFD1385044037240140EFC0A4
:100450002048130404402285EFC020486DFDB250AF
:100460002254925445618280B7F700E023A0070030
:100470008146014794C7D8C7054798C337F700E0BE
:100480001047544763E6D500E39CB6FEE37AC5FE09
:10049000828079715EC662C466C2328CAE8CB68BC5
:1004A000014693068004814506D622D426D24AD03E
:1004B0004ECE52CC56CA5AC8BE8A3A8B428AC68998
:1004C00083440103034941030344810349266685AC
:1004D00093068004014681459D2E62859306800423
:1004E00001468145AD265E8593068004014681451F
:1004F000B92E5A859306800401468145892E56857A
:10050000930680040146814599265285930680040E
:10051000014681452D2E4E85930680040146814576
:100520003D264A8593068004014681450D26268591
:100530009306800401468145192E22852254B2502B
:1005400092540259F249624AD24A424BB24B224C6F
:10055000924C93068004014681454561CDAC011162
:1005600022CC26CA2E84AA848545096506CE4AC8AF
:100570004EC63289B689EFC0D02EB707055003C7E3
:100580000700130560058D451377F70C2380E700FE
:1005900003C70700136727042380E70003C717007A
:1005A0001377970FA380E700239237012393270146
:1005B00084C7C0C703C717001377F703A380E700FA
:1005C00003C717001377F70FA380E70003C71700CF
:1005D00013670701A380E70003C7270013674700DD
:1005E0002381E70003C7170013671700A380E70004
:1005F00003C70700136717002380E700EF30D026FA
:100600006244F240D2444249B24913056005056193
:100610006F305022B707002041119387070022C492
:10062000AA9706C683C6070059671307473B931767
:100630002500BA971307F00F80436385E6003685DF
:10064000E12209C903554402B240224442054185D2
:100650004101828003554402B24022443305A04048
:100660004205418541018280D9679387473B0A054E
:100670003E951C41239207028280011122CC2E84D8
:10068000914506CE26CA4AC8AA843289EF00707204
:10069000B7650100130630089385051BEF30201560
:1006A0002685EF00F072930680040146814513759C
:1006B000F40F712A81459306800401461375F90FE2
:1006C0007922B707002093870700A6972380870029
:1006D0009355840085476388F504C5476381F50C0D
:1006E000930710026385F50C93072002638AF508CF
:1006F00093071003638CF50C930710076381F50CC7
:10070000930710086386F508930710096385F50CB5
:10071000930720096390F502370701405C4F93E788
:1007200007025CCF01A83705160085451305050CA7
:10073000EFC0207685450545EFC090144800EFC016
:10074000B065D9679387473B8A04BE948040C167F0
:10075000FD174C0022853EC402C223060100EFC0F3
:10076000D027228593050006EFC0D06922858545F4
:10077000EFC01064F2406244D24442490561828075
:1007800037151A00854513050580EFC080705DB7E9
:10079000370701405C4F93E707015CCF61BF370526
:1007A0001800854513050530EFC0A06E61B73715F9
:1007B0001A008545130505C0EFC0A06DA5BF37071A
:1007C00001405C4F93E747005CCFADB785450565B9
:1007D000EFC0206C85B7370701405C4F93E70704F3
:1007E0005CCF89BF9357550013972700D96793872C
:1007F000C722BA973D89984385473395A70099C189
:1008000008CB828048CB8280135735009376C7018E
:1008100059671307C7223697184385473395A700B2
:100820001C477D8D3335A00082809357350013F728
:10083000C701D9679387C722BA9798439377F50082
:10084000054554473315F500358D48C78280930719
:10085000F00F6307F50C797122D41354550026D29A
:100860004AD04ECE52CC06D61D889374F5003689F8
:10087000B2892E8A0DC885476305F40A8947630744
:10088000F40A8D476309F40A9147630CF40A95470B
:10089000630FF40A9947631CF400854513050010A3
:1008A000EFC0007E29A085451145EFC0607D05475A
:1008B000B3149700C204D9679387C722C1800A0482
:1008C0003E94231291009377F90F0040630FEA00E2
:1008D0004C0022853EC6EFC00013B2502254925401
:1008E0000259F249624A456182804209135909015D
:1008F00013598900631309000D494C0022854AC42D
:100900003EC6EFC040104E86A6852285EFC0C05778
:10091000B250225492540259F249624A456182808F
:10092000828085452145EFC0A07551B78545414579
:10093000EFC00075ADBF854513050002EFC04074E0
:10094000BDB7854513050004EFC080738DB785459D
:1009500013050008EFC0C07299BFD9679387871845
:1009600003AF070083AE470003AE870003A3C700B1
:1009700083A8070103A84701D44F9853904FDC5335
:100980001D71A6CAAE84854586CE7ACC76CE72D04D
:100990001AD246D442D636DA3ADCA2CCCAC8CEC67F
:1009A000D2C43EDE2A843769010032D8EF0070409D
:1009B0009305092413065002EF20706313066002AA
:1009C0009305092433359000EF2070622285EF00F3
:1009D000304013DAF40093170A01C1838507B3D4BA
:1009E000F402D967931924009387473BCE9703A954
:1009F00007006C00231641014A85231901002317C3
:100A00000100230A01001374F40F0A042318910053
:100A1000EFC0A07C05464A858545EFC0103D4A855C
:100A20008545EFC0F04C9C003E94032584FD8D4528
:100A3000EF3080639C00BE9903A589FDEF30805F95
:100A40004A858545EFC0D036F6406644D6444649CF
:100A5000B649264A25618280630305208547630CD9
:100A6000F52089476303F5208D47630CF520C147C6
:100A7000630FF520C5476303F522C9476307F522D5
:100A8000CD476301F524930700106304F524930711
:100A900010106306F524930720106308F5249307CC
:100AA0003010630AF524930700116307F5209307BC
:100AB00010116308F52493072011630BF5249307A5
:100AC0003011630EF524930700206301F526930788
:100AD00010206303F526930720206305F52693076E
:100AE00030206308F52693070021630BF526930752
:100AF0001021630EF526930720216301F528930743
:100B000030216304F528930700226307F528930733
:100B10001022630AF52893070030630DF528930728
:100B200010306300F52A930720306303F52A9307FA
:100B300030306304F52C930700316309F52A9307DD
:100B40001031630EF52893072031630FF52A9307C0
:100B500030316302F52C93070040630CF5169307C0
:100B60001040630EF516930720406300F5189307B5
:100B700030406302F518930700706303F51E930776
:100B800010706306F51E930720706309F51E930726
:100B90003070630CF51E93070071630DF520930709
:100BA00010716300F522930720716303F522930708
:100BB00030716300F5289307058063880712856705
:100BC000138717806309E512138727806301E528DF
:100BD000938737806306F526856713870781630F40
:100BE000E52C138717816304E52C1387278163089D
:100BF000E51E138737816300E52213870790630999
:100C0000E51C13871790630AE51E13872790630975
:100C1000E52813873790630EE52613870791630352
:100C2000E526938717916308F52485671387279135
:100C3000630CE522138737916301E522138707923E
:100C40006301E50C138717926308E5141387279255
:100C5000630BE514938737926306F51C8280930635
:100C60008031014685452145DDB693068031014638
:100C700085452945E9BE93068031014685452545D0
:100C8000F9B693068031014685452D45C9B69306D0
:100C90008031014685451305900855BE9306803185
:100CA000014685451305B0085DB6930680310146BF
:100CB00085451305D00861BE930680310146854500
:100CC0003D4571B693068031014685451305E00820
:100CD000BDBE930680310146854501458DBE930614
:100CE00080310146854505459DB693068031014614
:100CF00085450945A9BE93068031014685450D45C8
:100D0000B9B693068031014685451305300281B698
:100D100093068031014685451305A0020DBE93065A
:100D20008031014685451305B00215B69306803122
:100D300001468545194521BE93068031014685450A
:100D40001D4531B6930680310146854513050002E5
:100D5000FDBC930680310146854513051002C5BCD4
:100D6000930680310146854513056004CDB4930692
:100D700080310146854513057004D1BC930680314E
:100D80000146854513058004D9B493068031014698
:100D900085451305900465BC930680310146854561
:100DA000130540026DB49306803101468545130555
:100DB000500271BC930680310146854513056002DF
:100DC00079B493068031014685451305700241B41C
:100DD0009306803101468545130580028DBC93063C
:100DE0008031014685451305D00695B493068031C0
:100DF000014685451305C00699BC9306803101461E
:100E0000854513059002A1B49306803101468545BE
:100E10001305E0062DBC9306803101468545130578
:100E2000F00635B493068031014685451305F0047C
:100E300039BC93068031014685451305D00401BCB9
:100E400093068031014685451305400409B4930695
:100E50008031014685451145DDBA93068031014652
:100E6000854513057006E5B2930680310146854538
:100E700013055006E9BA93068031014685451305EE
:100E80003006F1B293068031014685451305100600
:100E90007DBA93068031014685451305B00445BAF5
:100EA0009306803101468545130530044DB2930603
:100EB0008031014685451305B00651BA930680314D
:100EC000014685451305900659B293578500596729
:100ED0001307473B8A07BA9794431307102183D718
:100EE000C602B385F5026302E5046364E502FD779B
:100EF0009387076FAA970D47636DF7009307803EAE
:100F00000D89B3D5F5020A053695C205C1814CD9C4
:100F10008280896793870771B3D5F5020D890A0529
:100F20003695C205C1814CD98280E1679387076AF3
:100F3000B3D5F5020D890A053695C205C1814CD994
:100F40008280397126DA9354850022DC52D42A84B7
:100F50002E8A26858D4506DE4AD84ED63289912DB9
:100F6000B76501001306900B9385852BEF203008A1
:100F70002685B92D2285CD3485450545EFC0401025
:100F80009357440005476388E7044547638FE71A92
:100F9000130710026381E71E130720026382E71222
:100FA000130710036388E71E13071007638DE71C00
:100FB000130710086381E716130710096381E71E02
:100FC000130720096395E710370701405C4F93E74B
:100FD00007025CCFEDA83705160085451305050C03
:100FE000EFB0306B83A5C183896993890971B3D749
:100FF0004503C18393861700B38646031397070101
:101000004183B3D5D50293970501C1833389270363
:10101000BE85D9679387473B8A04BE9484409387F3
:10102000F5FF4C0026852314F1002312E10023155F
:1010300001002313010023060100EFC0001A3359F9
:101040003903C167938707073EC8B70702008907BE
:10105000231A01003ECC02CE0D88231B210121C49E
:101060008547630CF40E89470C0826856304F40C4D
:10107000EFC0A048A1452685EFC0A05E93050040C3
:101080002685EFC0806326858545EFC060542685A0
:101090008545EFC0E051F2506254D2544259B259E2
:1010A000225A216182800C082685EFC060202685A7
:1010B000A145EFC0205791452685EFC0205CE1B7E0
:1010C00037151A00854513050580EFB0905C83A5A0
:1010D000C18313061021B3D74503C183938617003C
:1010E000B3864603139707014183B3D5D50293977F
:1010F0000501C183BE85338927036305C402636785
:10110000C402FD779387076FA2978D4663E0F602CE
:101110009309803EFDBD370701405C4F93E707010F
:101120005CCF75B7E1699389096AE5B589699389E7
:101130000971C5B5EFC0602F2685A145EFC04051AC
:1011400091452685EFC040563DBF370518008545BF
:1011500013050530EFB0F0539DBF0C082685EFC096
:10116000A01F2685A145EFC0004D930500402685B0
:10117000EFC0E05109BF37151A008545130505C0BA
:10118000EFB03051A9B7370701405C4F93E74700F4
:101190005CCF35BF85450565EFB0B04F0DBF370754
:1011A00001405C4F93E707045CCF15B7411122C49F
:1011B00026C24AC006C6AE843284368955C5C147A8
:1011C0006302F510930700026301F5129307000311
:1011D000630AF50E93070004630DF514B76501006B
:1011E00013069002938505330145EF20406089473F
:1011F0006386F408C9476385F40A9307200263886D
:10120000F41093072003638DF40893072004638789
:10121000F40EB765010013060003938505330145FD
:10122000EF20E05C85476305F406C5476303F408D7
:10123000930710026306F40E930710046304F4107E
:10124000930710036307F4069307F00F6315F40880
:101250002244B24092444A85024993060031014635
:10126000854541016FF0AFDE930680310546854527
:101270001545EFF0CFDD8947E39EF4F69306803104
:10128000054685451D45EFF08FDC8547E31FF4F8E3
:1012900093064030054681451945EFF04FDB4DBFC1
:1012A000930680310546854513055002EFF02FDA8D
:1012B00095BF930640300546814513054002EFF087
:1012C0000FD979B79306803105468545130530025D
:1012D000EFF0EFD729BFB7650100130680039385B0
:1012E00005330145EF20A050A5B793068031054690
:1012F00085451305D002EFF08FD5D5BD930680311B
:10130000054685451305C004EFF06FD421BF930651
:101310008031054685451305F002EFF04FD319B72C
:1013200093064030054681451305E002EFF02FD2C9
:1013300005B793068031054685451305A004EFF0F7
:101340000FD175B593064030054681451305B004AD
:10135000EFF0EFCFF5BD5D7193182500CAC02A8963
:1013600059651305853A46954EDE8329050086C6E4
:10137000A2C44E85A6C252DC56DA5AD85ED63E8B3F
:10138000AE84B28B368ABA8A4284EFB0F056854575
:101390000545EFB0F04EC1476309FA0E930700040C
:1013A0006316FA00930720046385FA16630B090E8F
:1013B00085476301F91889476309F916A2865A8699
:1013C000D6855285E533B70704013EC623180100D0
:1013D00085476380F40E638C04100947638AE40E2A
:1013E0008D466385D40803A441929307F00F3354CC
:1013F00074034204418063F287041304800393075B
:1014000000206C004E85231BF1009D47231C8100AA
:10141000231EF100231D0100EFB030544E85854599
:10142000EFB09059B640264496440649F259625AA4
:10143000D25A425BB25B616182809307F00763E737
:1014400087069307F00363E3870CFD4763E9870E84
:10145000BD4763E9870E9D4763E8870E8D4763E7C5
:10146000870E854763F6870E014451BF231AF100AA
:1014700003A441922319E1009307F00F335474033E
:1014800042044180E3EB87F64DBFC947E390FAF28F
:10149000C547E31DFBF085450545EFB0901FE319F7
:1014A00009F085450565EFB0B03D09BF13040003A1
:1014B000B9B703A4419223190100231A91003354B0
:1014C00074039307F00F42044180E3E887F2B5B755
:1014D00003A4419223199100231A01003354740389
:1014E0009307F00F42044180E3E987F0B9B703A402
:1014F000419223190100231A010033547403930706
:10150000F00F42044180E3EA87EE05BF1304800236
:10151000FDB593071004E31BFBE837152000854554
:1015200013050510EFB0F01651B585452165EFB0F4
:10153000103769B585451165EFB0703641B51304B4
:10154000000275BD614465BD414455BD214445BDA2
:10155000B76501001306D008938505330145EF20D8
:10156000002971BDD9670A059387873AAA979843DE
:101570002316B7008357870093F70708E5FF82809B
:10158000D9670A059387873AAA97984393D7850026
:101590002316F7008357870093F70708E5FF93F5B5
:1015A000F50F2316B7008357870093F70708E5FF69
:1015B000828093172500138501A33E951C4181E786
:1015C0000CC1054582803385B740133515008280F4
:1015D00021C10547630BE50209476308E5020D4792
:1015E000630EE5021147630FE50215476300E5044A
:1015F00019476301E5041D476303E50421476304BC
:10160000E50425476306E504828085456FB03029EF
:1016100005658545130505806FB090268545114504
:101620006FB0F027854521456FB07027854541454E
:101630006FB0F0268545130500026FB05026854532
:1016400009656FB0F0238545370508006FB050235A
:101650008545370510006FB0B022411122C406C67F
:101660002E8441C98947630BF516C147630BF512F8
:10167000C947630AF51A930700026305F51C93072F
:101680002002630AF51893074002630CF51C9307C8
:1016900000046302F518930720046302F520930702
:1016A00000056305F522930720056300F524937771
:1016B000D5FF130700066383E72093070007630144
:1016C000F51C93072007630EF52493074007630872
:1016D000F526930700086303F52893072008631095
:1016E000F502E146014685451305E008EFF02F9627
:1016F00039A0E146014685452545EFF04F958547E0
:101700006307F4088D476300F40CC5476300F40ECB
:10171000CD476307F40E93071002630EF41093078E
:1017200030026307F408930750026305F41293072D
:101730001004630FF40693073004630BF41493074B
:1017400010056306F416930730056309F418930730
:1017500010066304F41A930730066307F41A93071C
:1017600010076308F410930730076306F41A930711
:101770005007630FF41A93071008630AF41C9307C9
:1017800030086305F41EB240224441018280930672
:1017900080040146814529452244B24041016FF051
:1017A0000F8BE146014685450945EFF04F8A81BF21
:1017B0002244B24093068004014681451305B004DB
:1017C00041016FF0CF882244B24093068004014665
:1017D00081451305700241016FF06F87E1460146B4
:1017E000854513056002EFF08F8611BF2244B24099
:1017F00093068004014681450D4541016FF02F8518
:101800002244B240930680040146814513056006D8
:1018100041016FF0CF83E146014685451305A004E1
:10182000EFF0EF82E9BDE14601468545130550061C
:10183000EFF0EF81E9B59306800401468145130579
:10184000B00299BFE146014685451305A002EFF0BD
:101850000F8075B5930680040146814513059006F7
:1018600025BFE1460146854513058006EFE03FFEB2
:1018700079B593068004014681451305300429BFDC
:10188000E1460146854513052004EFE05FFC85BD78
:10189000930680040146814513051002F5BDE1461B
:1018A0000146854513050002EFE07FFA89BD9306E6
:1018B00080040146814513052006F9BDE146014635
:1018C000854513050004EFE09FF815BDE14601468C
:1018D00085451305C004EFE09FF715B59306800416
:1018E000014681451305900845BDE1460146854501
:1018F00013058008EFE0BFF519B593068004014693
:1019000081451305100449BD9306800401468145B5
:101910001305B00851B593068004014681451D4565
:10192000A5BDE146014685451945EFE05FF2C1BB23
:1019300093068004014681451305D008B1BDE146F8
:10194000014685451305C008EFE07FF04DBB9306C7
:10195000800401468145130550043DBDE146014622
:10196000854513054004EFE09FEE51BB93068004CC
:10197000014681451305F00805B51DC6D9670A055E
:101980009387C73DAA9798432E96850583C6F5FF92
:101990008357070093F70708E5DF93970601C18394
:1019A0002312F700E393C5FE8280D9671317250041
:1019B0009387C73D4111BA9726C2AA84884322C49F
:1019C0002E862E849305505206C6EFB010661385FE
:1019D0000185269503450500B7E700E0AA97238017
:1019E000074019C42244B240924441016F208064F0
:1019F0002244B240924441016F206065D9670A05D4
:101A00009387C73DAA9798438357070093F7070228
:101A100099E3014582808357470005452380F500FF
:101A20008280797122D44ECE2A84AE8905458545BF
:101A300006D626D24AD0B2843689EFB06064CA8511
:101A4000268521398947638DF414C9476382F406DA
:101A5000930720026386F40A93074002638DF40A19
:101A6000930720046385F40C93072005639AF40C14
:101A700093073005630CF91821C48547630AF414F1
:101A80008947630DF4148D476300F416914763038F
:101A9000F41695476306F41699476300F4189D47BA
:101AA0006314F402854513050010EFB0405F29A8C8
:101AB000CD47E313F9FC85452145EFB0803D55FC4A
:101AC00085451165EFB0C05BD9679387C73D0A04B0
:101AD0003E9400408A85B7070C0022854EC03EC464
:101AE0002316010002C2EFB0904122858545EFB078
:101AF000D051B250225492540259F2494561828029
:101B000093073002E31AF9F63705140085454105BD
:101B1000EFB0203895B793075002E31FF9F437056B
:101B20001400854513050503EFB0A036B1B7930740
:101B30003004E313F9F485450565EFB080352DBF1A
:101B400093072006639EF40093073006E316F9F22C
:101B500037150080854513050580EFB0803329BF18
:101B600093072007639EF40093073007E316F9F00C
:101B7000370701405C4FB7064000D58F5CCFEDBD05
:101B8000930740076396F40293075007E316F9EEB4
:101B9000370701405C4FB7068000D58F5CCFE9BDA9
:101BA0008D47E31BF9EC85451145EFB0802EE9B573
:101BB00093072008E392F4EC93073008E31EF9EA58
:101BC000370701405C4FB7060002D58F5CCF6DB57B
:101BD000854537050200EFB0804CFDB585453705DA
:101BE0000400EFB0C04BCDB5854537050800EFB018
:101BF000004BD9BD854537051000EFB0404AE9B527
:101C0000854513050004EFB080497DBD37052000F0
:101C100085450505EFB0E02785B585451305000826
:101C2000EFB0E04755B5011122CC9385518F154592
:101C300006CE26CA4AC84EC6D13305469385518F73
:101C4000138581A7EF1030421384018F1840854718
:101C50006309F700F2406244D2444249B249056147
:101C600082801389418F83450900938981A593F56B
:101C7000F50F9387150093F7F70F81461386018FB1
:101C8000CE95138581A72300F900EF107049834793
:101C900009000D47E370F7FC834509003765010033
:101CA0001146F115CE951305C53FEF1031725DF168
:101CB00089471CC045B7011122CC9385D18F1945A6
:101CC00006CE26CA4AC84EC6153B05469385D18F17
:101CD0001385C1AAEF1030391384818F18408547CE
:101CE0006309F700F2406244D2444249B2490561B7
:101CF00082801389C18F834509009389C1A893F518
:101D0000F50F9387150093F7F70F81461386818FA0
:101D1000CE951385C1AA2300F900EF1070408347C8
:101D200009000D47E370F7FC8345090037650100A2
:101D30001146F115CE951305C53FEF1031695DF1E0
:101D400089471CC045B783A7819109476388E7008D
:101D50000D476388E70011476383E70082806F10B7
:101D6000807D6F10005483A7819111476386E7003F
:101D70000D476385E70082806F1030026F10A05816
:101D800079715AC806D622D426D24AD04ECE52CC29
:101D900056CA5EC6138BA18083470B0037640100CF
:101DA000AE8A32899305444013062005AA8933354B
:101DB000F500368A9384B180EF10702303C50400C8
:101DC000930544401306300533B5AA00EF103022C6
:101DD00003450B0093054440130640053335A90025
:101DE000EF10F02003C5040093054440130650058E
:101DF0003335AA00EF10B01F83A7418059679306BF
:101E0000C722C0468324C722F9C70547638CE71859
:101E1000414B232864019389890213098902A16B2C
:101E2000232A6401C2094209094723AA740193D9EC
:101E30000901135909019305A00205456389E710BB
:101E4000EFF04FF223A87401232864010545CE85E5
:101E5000232A6401EFF0CFF2CA850545EFF04FF277
:101E600023286401232A64019305B002054523AAAF
:101E70007401EFF02FEF93854A0323A87401232800
:101E80006401C205C1810545232A6401EFF04FEFCB
:101E900093054A03C205C1810545EFF06FEE232883
:101EA0006401232A640123AA74019305C002054535
:101EB000EFF04FEB23A8740123286401232A640167
:101EC000B250225492540259F249624AD24A424BC9
:101ED000B24B45618280414B23286401A16B232AC8
:101EE00064019305A002054523AA7401EFF08FE772
:101EF0009385490323A8740123286401C205C18185
:101F00000545232A6401EFF0AFE793054903C205B5
:101F1000C1810545EFF0CFE623286401232A64013F
:101F20009305B002054523AA7401EFF0AFE3938552
:101F30008A0223A8740123286401C205C1810545D2
:101F4000232A6401EFF0CFE393058A02A1B7EFF0F3
:101F50006FE123A87401232864010545CE85232A57
:101F60006401EFF0EFE1CA850545EFF06FE123284A
:101F70006401232A64019305B002054523AA740174
:101F8000EFF04FDE93855A0323A8740123286401E0
:101F9000C205C1810545232A6401EFF06FDE930578
:101FA0005A03CDBD414B23286401A16B232A640150
:101FB0009305A002054523AA7401EFF0AFDA9385DB
:101FC000590323A8740123286401C205C181054572
:101FD000232A6401EFF0CFDA930559030DBF79711D
:101FE00022D4376401001306B00893054440054528
:101FF00006D64ECE52CC26D24AD056CA5AC85EC653
:1020000062C466C26AC0EF10807E1306C0089305E2
:1020100044400545EF10A07D03A641929307F00FC1
:10202000130720021308F00F930600020582814572
:102030000545EFF04FB2C146014685453D45EFE00D
:102040001F81C1460146854513050006EFE03F802C
:10205000C1460146854513054006EFE04FFFC146E6
:102060000546854513056004EFE06FFE93894180C6
:1020700003A70900854763FCE7429306700813072E
:10208000000F83A741928964938404F4B3D7970225
:102090001305800C59691306C9224046054C814539
:1020A000938AB180138BA180232A84012380DA00D4
:1020B0002300EB00930C4006C14B216D3385A70232
:1020C000EFE08FBA03A5419281452328840133555F
:1020D000950233059503EFE02FB90329C922232880
:1020E0007401232A7401930560030545232AA9017D
:1020F000EFF04FC703A541922328A90123287401BB
:1021000033559502232A7401814533059503EFE089
:10211000AFB583A709006381073A638A873B094704
:102120006381E73A9305000A0545EFF0AFC3C14468
:1021300004C8A16944C89305A0030545232A3901B1
:10214000EFF04FC22328390104C89545054544C81E
:10215000EFF04FC104C844C89305200B0545232A5E
:102160003901EFF02FC02328390104C8B1450545D6
:1021700044C8EFF02FBFB1450545EFF0AFBE814534
:102180000545EFF02FBE930530030545EFF08FBDF9
:10219000930530030545EFF0EFBC04C844C8930530
:1021A000700B0545232A3901EFF0CFBB23283901F5
:1021B00004C893055003054544C8EFF0AFBA04C8FE
:1021C00044C89305B00B0545232A3901EFF08FB9B8
:1021D0002328390104C893057003054544C8EFF06E
:1021E0006FB804C844C89305000C0545232A39017B
:1021F000EFF04FB72328390104C89305C002054505
:1022000044C8EFF02FB604C844C89305200C054518
:10221000232A3901EFF00FB52328390104C8854579
:10222000054544C8EFF00FB404C844C89305300C0A
:102230000545232A3901EFF0EFB22328390104C8FC
:10224000C945054544C8EFF0EFB104C844C893053B
:10225000400C0545232A3901EFF0CFB0232839017E
:1022600004C893050002054544C8EFF0AFAF04C8A9
:1022700044C89305600C0545232A3901EFF08FAE61
:102280002328390104C8BD45054544C8EFF08FAD8A
:1022900004C844C89305000D0545232A3901EFF011
:1022A0006FAC2328390104C89305400A054544C88A
:1022B000EFF04FAB9305100A0545EFF0AFAA04C845
:1022C00044C89305000E0545232A3901EFF08FA974
:1022D0002328390104C89305000D054544C8EFF0D3
:1022E0006FA891450545EFF0EFA7B5450545EFF01F
:1022F0006FA7C5450545EFF0EFA6CD450545EFF0C5
:102300006FA69305B0020545EFF0CFA59305F00346
:102310000545EFF02FA5930540050545EFF08FA487
:102320009305C0040545EFF0EFA3E1450545EFF047
:102330006FA3B5450545EFF0EFA2AD450545EFF0BC
:102340006FA2FD450545EFF0EFA19305300205456D
:10235000EFF04FA104C844C89305100E0545232A89
:102360003901EFF02FA02328390104C89305000D8F
:10237000054544C8EFF00F9F91450545EFF08F9E4E
:10238000B1450545EFF00F9EC5450545EFF08F9D22
:10239000CD450545EFF00F9D9305C0020545EFF0D3
:1023A0006F9C9305F0030545EFF0CF9B9305400428
:1023B0000545EFF02F9B930510050545EFF08F9A2B
:1023C0009305F0020545EFF0EF99FD450545EFF067
:1023D0006F99FD450545EFF0EF989305000205451F
:1023E000EFF04F98930530020545EFF0AF9704C822
:1023F00044C8930510020545232A3901EFF08F9652
:102400002328390104C844C804C844C8C545054543
:10241000232A3901EFF00F9503A54192896793872D
:1024200007F43355F5022328390104C8814544C80F
:10243000931745003385A7400E05EFE0EF8204C8EF
:1024400044C8930590020545232A3901EFF08F9186
:1024500003460B0083C60A002328390104C8330948
:10246000D602FD167D16C206420644C8B7070020F4
:10247000C18241828145014503D4073EEFF05F9060
:10248000630909007D19A2850545EFF06F8FE31BF5
:1024900009FEB250225492540259F249624AD24A79
:1024A000424BB24B224C924C024D456182809306C6
:1024B000000F13077008F1B681450545EFF08F8ACC
:1024C000BDB1930500070545EFF0CF898DB19305A8
:1024D000000C0545EFF00F8999B9411122C403C4DE
:1024E000A18083C6B1801306F4FF42063304D402F0
:1024F000FD16C20626C2C182AA84418281450145D9
:1025000006C6EFF0FF8719C47D14A6850545EFF0D8
:102510002F877DF8B240224492444101828083C7D4
:10252000A18001114AC83769010022CC26CA4EC6D3
:10253000AE842A84B289930549403335F5001306E9
:10254000F01206CEEF10A02A03C5B18093054940D2
:102550001306001333B5A400EF106029A685228569
:10256000A6862286EFF0DF816244F240D2444249DF
:10257000CE85B249054505616FF08F8083C7A18084
:1025800079714AD03769010026D256CA62C4AE8A30
:102590002A8C930549403335F500B28413060014A4
:1025A00006D64ECE52CC5AC85EC622D4EF10202496
:1025B00003C5B180930549401306101433B5AA0032
:1025C000EF10E022938704FE5967920713078752A2
:1025D0003389E700920A930B7C00B38A2A414107B2
:1025E000C20BC20A93DB0B01330BF70093DA0A012B
:1025F000370A0020B3862A01C206C1825E86B685EC
:102600006285EFF0EFF721448344090011A883D5D8
:1026100081807D141374F40FEFE09FF6858019CC50
:1026200093F714000545E5F783550A3E7D140545EB
:102630001374F40FEFE0DFF485807DF00509E31BF0
:1026400069FBB250225492540259F249624AD24A6A
:10265000424BB24B224C4561828083C7A18001115D
:1026600026CAB764010022CC4AC84EC62E89B28958
:10267000938544401306F0152A843335F50006CEC1
:10268000EF10E01603C5B180130600169385444091
:102690003335A900EF10A0150386090005C2814457
:1026A00085042285CA85C204D13DC180B3879900C3
:1026B000038607002104420441807DF2F240624417
:1026C000D2444249B2490561828083C7A1807971B1
:1026D00022D4376401004AD04ECE52CC32892E8AA1
:1026E0001306401793054440AA893335F50006D6F2
:1026F00026D2EF10C00F03C5B18013065017930503
:1027000044403335AA00EF10800E634B09061306D0
:102710000002D2854E85EFF07FE62947B347E902F4
:102720009306400613848900938909024204C20972
:102730006400418093D90901B346D902B3E7E702A7
:102740002306D1003369E902A306F1002307210122
:1027500003C6040022852104130606036206420410
:10276000D28561864180EFF07FE18504E39289FEA6
:10277000B250225492540259F249624A4561828011
:10278000330920411306D002D2854E856209EFF04D
:10279000FFDE1359894151B783C7A180797126D2D1
:1027A000B764010022D44AD052CC32892A842E8ABE
:1027B0003335F500938544401306601906D64ECE96
:1027C000EF10E00203C5B1809385444013067019F1
:1027D0003335AA00EF10A0012947B357E902930649
:1027E000400693098401C209640093D90901B356D4
:1027F000D902B3F7E7022306D1003379E902A30631
:10280000F1002307210103C60400228521041306D9
:10281000060362064204D28561864180EFF01FD62E
:102820008504E39289FEB250225492540259F2492F
:10283000624A4561828083C7A180797126D2B764DC
:10284000010022D44AD04ECE3289AE891306201B15
:10285000938544402A843335F50006D652CCEF00E8
:10286000107903C5B1801306301B9385444033B5FE
:10287000A900EF00D0776348090813060002CE854F
:102880002285EFF0BFCF9306803EB346D902A94719
:10289000130740060966130606712104420424004A
:1028A0004180130AD1003347E902B345F902B3E688
:1028B000F6023346C902A304D1003367F7022304AA
:1028C000C100B3E6F5022305E1003369F902A3056F
:1028D000D1002306210103C604002285210413062A
:1028E00006036206CE85618642048504EFF01FC9A7
:1028F0004180E3129AFEB250225492540259F24996
:10290000624A45618280330920411306D002CE8598
:1029100022854209EFF09FC613590941ADB783C71D
:10292000A180797126D2B764010022D44AD04ECE5C
:102930003289AE891306701D938544402A8433354D
:10294000F50006D652CCEF00906A03C5B18093859E
:1029500044401306801D33B5A900EF00506993066B
:10296000803EB356D902A9471307400609661306ED
:1029700006712400130AD1003357E902B355F90256
:10298000B3F6F6023356C902A304D1003377F70237
:102990002304C100B3F6F5022305E1003379F902FF
:1029A000A305D1002306210103C6040022852104CA
:1029B000130606036206CE85618642048504EFF0A5
:1029C000FFBB4180E39244FFB2502254925402591B
:1029D000F249624A456182801D71D6C2938AA18004
:1029E00083C70A00D2C4376A0100A2CCCAC8DAC0C1
:1029F0005EDE2E892A8493054A403335F500B28B7A
:102A00001306701F86CEA6CACEC6138BB180B689B8
:102A1000EF00F05D03450B001306801F93054A404D
:102A20003335A900EF00B05CA947A94463E437013E
:102A300093F4F90F93891400B765010093F9F90F26
:102A40005E869385454863C00B0A93070002130511
:102A5000D1002306F100EF00707A05051375F50F1C
:102A6000637D35013386A4401376F60F7C0005069E
:102A7000930500023E95EFD0EFF903C50A001C183C
:102A8000BE991306F01593054A403335A400238EF2
:102A900009FCEF00D05503450B0013060016930503
:102AA0004A403335A900EF0090540306C100814429
:102AB00005C22285CA858504EFF05FACC204C180DF
:102AC0001C18A6970386C7FD21044204418075F2B5
:102AD000F6406644D6444649B649264A964A064BCD
:102AE000F25B256182806800EF0050711375F50F6D
:102AF00085BF1D71DAC0138BA18003480B00A6CAE5
:102B0000B7640100A2CCCAC8D2C4D6C22E8A2A8415
:102B1000938544403335050132891306102286CE51
:102B2000CEC65EDE62DCBE8B66DAB689BA8C938A6C
:102B3000B180EF00D04B03C50A0013062022938515
:102B400044403335AA00EF00904A9947194C63E49A
:102B5000770113FCFB0FA94793FBFC0F63F397016D
:102B6000A94B01468146CE854A85EFE0A05BB7655B
:102B700001004A86CE8693850548634D050E1305F0
:102B8000D100EF00B0671307A5FF1377F70F93CBC2
:102B9000FBFFBA9B050C629793FBFB0F1377F70FB4
:102BA000139C8B01931C8701135C8C4193DC8C413B
:102BB000635C0C023307774162076187E68713067F
:102BC00000021418BE968507E207238EC6FCE18733
:102BD000E399E7FEB38C7C41330C7C41E20C620C40
:102BE00093DC8C41135C8C41014681464A85CE853D
:102BF000EFE04053634A050A1C183E9C930700020D
:102C0000230EFCFC03450B001C1893854440BE9C1E
:102C10001306F0153335A400238E0CFCEF00303D75
:102C200003C50A0013060016938544403335AA00F5
:102C3000EF00F03B0306C100814405C22285D28526
:102C40008504EFF0BF93C204C1801C18A6970386C9
:102C5000C7FD21044204418075F2F6406644D64423
:102C60004649B649264A964A064BF25B625CD25CFC
:102C7000256182806800EF007058130795FF137775
:102C8000F70F93CBFBFFBA9B050C629793FBFB0FEF
:102C90001377F70F139C8B01931C8701135C8C41F6
:102CA00093DC8C41E3480CF01C183E9C9307D00247
:102CB000230EFCFC81BF03C3A180397152D4376A53
:102CC000010022DC4ED662CCAE892A8493054A40AC
:102CD00033356500328C1306802706DE26DA4AD8A3
:102CE0005AD05ECE428B66CAB684BE8C56D26AC8B3
:102CF0006EC6BA8B4689EF00902F03C5B1801306CC
:102D0000902793054A4033B5A900EF00502E930653
:102D1000FBFF1386FCFFCE962296C2064206C182B6
:102D20004182CE852285EFF0AF8563060B04C16931
:102D3000814A014AFD1933D46A03638A0C02814D2A
:102D4000014D3384840262946306090433D79D03E2
:102D5000CE85054522978347070063F42701814507
:102D60000545050DEFE0DF81A69DE3119DFF050AF6
:102D7000DE9AE3126AFDF2506254D2544259B259BB
:102D8000225A925A025BF24B624CD24C424DB24DE7
:102D900021618280B3D79D03050D0545A69DA297AD
:102DA00003C707009355370009839397B5001607AB
:102DB0005D8FD98DEFE0CFFCE31E9DFD4DBF797196
:102DC00052CC56CA5AC85EC6930AF5FF930BE5FF6C
:102DD000130A1500130B2500C20BC20A420A420B4C
:102DE00026D24AD04ECE06D622D462C466C26AC06B
:102DF0002A89AE89B284814793DB0B0193DA0A01F9
:102E0000135A0A01135B0B010DA08D47638DF40863
:102E10009547638BF4140504420441809317040121
:102E200013077008C1876302E4061394070105477E
:102E30004180E39CE4FC03C5A180376C010093054D
:102E40004C403335A9001306F012EF00501A03C5A9
:102E5000B18093054C40130600133335A400EF00F6
:102E60001019A286A2854A864A85EFE07FF1050403
:102E7000CE8505454204EFE0AFF041809317040191
:102E800013077008C187E312E4FAB2502254925437
:102E90000259F249624AD24A424BB24B224C924CFE
:102EA000024D45618280138DA18003450D00376C72
:102EB000010093054C4033B5AA001306F012EF0051
:102EC0001013938CB18003C50C0093054C4013067E
:102ED00000133335A400EF009011A2865686A28518
:102EE0005685EFE0FFE9CE850545EFE06FE9034544
:102EF0000D0093054C401306F0123335A900EF0086
:102F0000100F03C50C0093054C4013060013333516
:102F1000A400EF00D00DA2864A86A2854A85EFE084
:102F20003FE6CE850545EFE0AFE503450D0093058F
:102F30004C401306F0123335AA00EF00500B03C5C6
:102F40000C0093054C40130600133335A400EF002A
:102F5000100AA2855285A2865286EFE07FE2CE85D6
:102F60000545EFE0EFE145BD138DA18003450D0060
:102F7000376C010093054C4033B5AB001306F012DB
:102F8000EF00F006938CB18003C50C0093054C4014
:102F9000130600133335A400EF007005A2865E8689
:102FA000A2855E85EFE0DFDDCE850545EFE04FDDF4
:102FB00003450D0093054C401306F01233B5AA00EB
:102FC000EF00F00203C50C0093054C4013060013FC
:102FD0003335A400EF00B001A2865686A28556853F
:102FE000EFE01FDACE850545EFE08FD903450D00F0
:102FF00093054C401306F0123335A900EF00207FF3
:1030000003C50C0093054C40130600133335A40090
:10301000EF00E07DA2864A86A2854A85EFE05FD672
:10302000CE850545EFE0CFD503450D0093054C4017
:103030001306F0123335AA00EF00607B03C50C00C5
:1030400093054C40130600133335A400EF00207A9B
:10305000A2865286A2855285EFE09FD2CE85054595
:10306000EFE00FD203450D0093054C401306F0121C
:103070003335AB00EF00A07703C50C0093054C403F
:10308000130600133335A400EF006076A2855A853D
:10309000A2865A86EFE0DFCECE850545EFE04FCE23
:1030A0009DBB03C3A180397152D4376A010022DC71
:1030B0004ED666CAAE892A8493054A4033356500E8
:1030C000B28C1306403606DE26DA4AD85AD05ECED7
:1030D000428B6AC8B6843E8D56D262CC6EC6BA8B1D
:1030E0004689312703C5B1801306503693054A40FF
:1030F00033B5A900ED2D9306FBFF1306FDFFCE9619
:103100002296C2064206C1824182CE852285EFE028
:103110003FC7630A0B04C169814A014AFD1933D4D0
:103120006A03630E0D029307801C014C814D33042A
:10313000F4026694630809043357AC03CE85054551
:103140000A07229718430347070063742701814544
:103150000545850DEFE0CFC2269CE39FADFD050A36
:10316000DE9AE31E6AFBF2506254D2544259B259BD
:10317000225A925A025BF24B624CD24C424DB24DF3
:1031800021618280B357AC03850D0545269C8A07D3
:10319000A2979C4303C70700935537000983939771
:1031A000B50016075D8FD98DEFE08FBDE39CADFDB7
:1031B0007DB7397122DC26DA4ED656D25AD0930723
:1031C0000008B70900207D7B89644AD852D45ECEBE
:1031D00062CC06DE2315F1009389C900014A1384ED
:1031E000C190130B5B1A930B0008938404F4938A29
:1031F0008190254C83D7090011466C0013978700F6
:10320000A183D98F11452317F10023166101EFE047
:10321000CFF6231571018347040093F7F70F91CF81
:103220000DA803A54192814533559502EFD0CFA358
:103230008347040093F7F70F89EF8357A1001387A3
:10324000F7FF42074187C207C1872315E100E34A20
:10325000F0FC8357A100C207C1876355F00283C702
:103260001A0003C72A00050AA207D98F420A239130
:10327000F90023000400135A0A019109E31C8AF79C
:10328000014521A0E31D0AFC0545F2506254D254C9
:103290004259B259225A925A025BF24B624C216156
:1032A0008280411122C41384B1908345040026C258
:1032B00093848190A695114506C6EFE02FF48347CD
:1032C000040011C5850793F7F70F2300F4000547A5
:1032D000638EE7008D466396D700230004002386A3
:1032E000E190B240224492444101828003C704002D
:1032F0009307500AE307F7FE23000400B24022447C
:1033000092444101828083A60190B707055094C77B
:1033100085462382D19003C70700136717002380D7
:10332000E700828039710D4506DE22DC4ED626DAB2
:103330004AD852D456D2896941241306000593060F
:103340001005938509581145EFE0AFED854511450E
:10335000EFE0AFE50145EF0050521384C190230028
:103360000400EFF01FE51306E0146312051A2300B2
:10337000040093070008B7040020231DF100938484
:10338000040323000400938A8402130A50FA9389E9
:1033900009F483D7240083D604006C0813978700B0
:1033A000A183D98F11451146230E4101A30ED100EF
:1033B000231FF100EFE06FDC03A5419291048145EA
:1033C000335535030605EFD02F8AE3949AFC8347E3
:1033D000040093F7F70FA9EB8357A1011387F7FFB9
:1033E00042074187C207C187231DE100635EF002E7
:1033F0008964938404F429A88357A1011387F7FFF4
:1034000042074187C207C187231DE100635EF000C8
:1034100003A54192814533559502EFD0EF84834750
:10342000040093F7F70FE9DB9384819003C714003E
:1034300083C7240093060008231DD100F98F2300C1
:1034400004001307F00F638EE7048357A10113876D
:10345000F7FF42074187C207C187231DE10063527E
:10346000F0048969938909F4130AF00F29A8835796
:10347000A1011387F7FF42074187C207C187231DB8
:10348000E1006350F00203A54192814533553503B5
:10349000EFC09FFD83C7140003C72400F98FE39892
:1034A00047FD8357A101C207C1876350F00623007F
:1034B0000400EFF01FD02A8425EDEF00903C9147E7
:1034C0003EC495473EC299473EC0930690041306FA
:1034D0008004A945254593089002130880029307AC
:1034E00060021307B004EFC0DFFA37050020196649
:1034F0001307056A85461306068281451305056A8A
:1035000023A0E190EFD0AF8511A813065015B76541
:103510000100938585480145D92C05442285F25048
:103520006254D2544259B259225A925A216182802D
:103530001306D015E9BF411122C41384419183457C
:10354000040026C293840191A695114506C6EFE0BA
:10355000EFCA8347040011C5850793F7F70F2300CF
:10356000F4000547638EE7008D466396D70023007D
:103570000400A389E190B240224492444101828038
:1035800003C704009307500AE307F7FE2300040073
:10359000B240224492444101828083A60190B70741
:1035A000055094C78546A386D19003C707001367CB
:1035B00017002380E700828023ACA1908280411114
:1035C00022C493850192154506C6EFE02FC393856B
:1035D00001922244B240376500200546130505ECF0
:1035E000410151A423A2A192B71702409843B70604
:1035F000FFF841111367170098C3D84337180240EA
:10360000B7050200758FD8C39843B706F7FEFD16BD
:10361000758F98C39843B706FCFFFD16758F98C346
:10362000D843B70681FFFD16758FD8C337079F00B3
:1036300098C702C402C69843C16613060050558F4E
:1036400098C321A0A247638BC70083270800ED8F92
:103650003EC6A24785073EC4B247EDD7B717024022
:103660009C431397E7006359070085473EC63247DE
:1036700085476308F70001A002C632478547E31C6F
:10368000F7FE37366E011307F5FF13060660335752
:10369000C702B72602408C42B717024093E50501E6
:1036A0008CC203A80600B7157A009385052013780D
:1036B000C8FF23A0060103A806001D8B336707017E
:1036C00098C2D843D8C3D843D8C3D843D8C363011A
:1036D000B50AD843B706C1FFFD16758FD8C3374763
:1036E0009508130707406302E504371727071307F8
:1036F00007E06300E50A37E7B805130707806306AC
:10370000E50A37A74A0413070720630AE508377755
:10371000DC02130707C06300E50A631CC500D84339
:10372000B7060500558FD8C329A0D843C166558F69
:10373000D8C3B7160240984237060001B7170240B7
:10374000518F98C2984393166700E3DD06FED0437D
:10375000B71602402147719AD0C3D04313662600A2
:10376000D0C3DC42B18BE39EE7FE41016F009010B5
:10377000D043B71602401147719AD0C3D0431366A5
:103780001600D0C3DC42B18BE39EE7FE41016F001F
:10379000700ED843B7063900558FD8C359BFD843E8
:1037A000B7061D00558FD8C369B7D843B70629009F
:1037B000558FD8C3BDBFD843B7061100558FD8C3A6
:1037C0008DBFF1654111930610061306000693851F
:1037D0000520154506C6EFE0CFA485451545EFE069
:1037E000CF9CB24005472384E1924101828019E9D0
:1037F00083C78192411106C699E7EF009008010046
:103800000100F5BF82803765010013058550EF0088
:10381000A136EF001007E5B701114EC606CE22CC47
:1038200026CA4AC8B2896358C002D96703A4073FB1
:10383000AE843389C500930500042285EFA04003C0
:103840007DD985048385F4FF2285C205C181EFA05F
:103850008001E39224FFF24062444E85D244424903
:10386000B249056182805C45637AF60A011126CA75
:10387000AA8422CC4AC84EC652C456C206CE2E8A4C
:103880003289EF00100083AA0401C0408840B38948
:103890008A4063F629074E86D2852295EFF0100301
:1038A000D84094484E97D8C06366D700158FE37F01
:1038B000D7FED8C088404A94330454413A952286B2
:1038C000B3053A01EFF09000DC409848A297DCC0C5
:1038D00063E6E700998FE3FFE7FEDCC0D0440145D3
:1038E0003309264123A62401492FF2406244D244E1
:1038F0004249B249224A924A0145056182804A867C
:10390000D2852295EFF0807CDC409848CA97DCC0D5
:10391000E3E6E7FC998FE3FFE7FEC1B70945828044
:1039200001114AC85C45032905014EC6B2891042FF
:1039300022CC26CA5AC006CE52C456C2B307F9409A
:103940002A842E87368B814463F8C70023A0F900B0
:10395000032905013E868544032A8400B30A4941B0
:1039600063E7CA0211C70C403A85D295EFF00076A2
:1039700063010B04F2406244330590404249D24453
:10398000B249224A924A024B0D89056182806DD369
:103990000C4056863A85D295EFF0407303A6090095
:1039A0000C405695529633062641EFF02072E313F1
:1039B0000BFCC12D83A7090014441848B6971CC4FA
:1039C00063E6E700998FE3FFE7FE1CC45C4403A7AE
:1039D00009000145BA975CC44D2569BF01112AC68B
:1039E000B247116713070765B387E7023ECEF24778
:1039F0001387F7FF3ACEE5FF0561828035713AC93A
:103A000086DEA2DCA6DACAD8CED6D2D4D6D2DAD016
:103A1000DECEE2CCE6CAEAC8EEC632C536C73ECB39
:103A200042CD46CF8387050038013ACCB5C33777FE
:103A30000100130DC101DD64054AAE8A2A84032901
:103A400087C68329C7C6814C930D5002938484B1E5
:103A5000330AAA4119A862872300F400568C050492
:103A6000850CBA8A83071C008DC7138C1A00E39457
:103A7000B7FF83871A0013073005890A9387B7FDBC
:103A800093F7F70FE360F7FE8A07A6979C438287B8
:103A9000814CF65066546685D6544659B659265A16
:103AA000965A065BF64B664CD64C464DB64D0D61AC
:103AB0008280E247984391073ECC83070700DDD31D
:103AC000B3868C402300F400050783070700050434
:103AD000B30CD400E5FB79B76247EA8625481C435E
:103AE00011073ACC3D4519A08506BA8713F7F700B0
:103AF0009375F70F138605036374E8001386750347
:103B00002380C60013D74700E360F5FE03083102A7
:103B10008348C101830521020345D10183061102B7
:103B20000346E101830701020347F1012300040179
:103B3000A300B4002301D400A301F4002302E40095
:103B4000A302C4002303A400A3031401A3011103CF
:103B5000230E01012301A102A30EB100A300C102A3
:103B6000230FD1002300E102A30FF1002104A10CD7
:103B7000D5BDE2471D46984391073ECC9377770029
:103B800093870703230EF10093563700637EE642C6
:103B90006A879D4511A0B286050713F676001306C5
:103BA0000603B307A74185072300C70093F7F70F64
:103BB00013D63600E3E1D5FE93D517003E8B95C1B1
:103BC0001387F7FF6A97EA87EA950386070083065B
:103BD000070085072300C700A38FD7FE7D17E39654
:103BE000F5FE22855A86EA85EFF0404E5A94DA9C1B
:103BF00095BD6247A9460328070011073ACC135721
:103C0000F841B3470701998F33E7D702B3C7D7020B
:103C100013070703230EE100638A073C85456A8684
:103C2000294511A0BA85B3E6A7020506138715003A
:103C30001377F70FB3C7A702938606032300D600B6
:103C4000F5F3634908283A8B93551700D9D9130720
:103C5000FBFF6A97EA87EA95038607008306070059
:103C600085072300C700A38FD7FE7D17E396F5FED7
:103C700022855A86EA85EFF060455A94DA9CDDB3D6
:103C8000E2470504850C984391073ECCA30FE4FE60
:103C9000D1BBE2466A8725489C42910636CC3D4519
:103CA00019A00507B68793F6F70013F6F60F9305EC
:103CB00006036374D8009305760333064701230097
:103CC000B70093D64700137BF60FE36CF5FC9355D2
:103CD0001B0081D91307FBFF6A97EA87EA950386E1
:103CE00007008306070085072300C700A38FD7FEC0
:103CF0007D17E396F5FE22855A86EA85EFF0003DB2
:103D00005A94DA9C85B3E2479D07E19B03AB070019
:103D100083AB4700A1075A85DE853ECCEFE0400B20
:103D20001357F541B347A700998FA94633E7D70248
:103D30002A88B3C7D70213070703230EE100638164
:103D4000072C85486A86A94511A0BA88B3E6B70250
:103D50000506138718001377F70FB3C7B7029386CA
:103D600006032300D600F5F3014681465A85DE8519
:103D700046C63AC442C2EFD0E03A12482247B2489F
:103D800063460516BA889355170095C11387F8FF47
:103D90006A97EA87EA950386070083060700850786
:103DA0002300C700A38FD7FE7D17E396F5FE468656
:103DB000EA85228546C242C4EFF04031224842855E
:103DC000EFE080072A86AE865A85DE85EFD0700C3C
:103DD0004A86CE86EFD060409248014681462A8BC3
:103DE000AE8B4694C69CEFD06022631D0510B7379A
:103DF0003030938707033ECE8D67938707032310E8
:103E0000F1029307E0022301F10299450D451D4B94
:103E1000EA95AE876A870306070083860700FD17C9
:103E20000507A380C700A30FD7FEB386F540E3E4E0
:103E3000A6FE5A86EA852285EFF04029DA9C1DB15C
:103E4000E24729472546944391073ECCB3F7E60263
:103E500093870703230EF10033D7E6026376D61665
:103E6000EA86A945254511A032873376B702850633
:103E7000B387A641850793F7F70F13060603238040
:103E8000C6003356B702E361E5FE93D517003E8BBB
:103E9000E38905D41387F7FF6A97EA87EA950386D3
:103EA00007008306070085072300C700A38FD7FEFE
:103EB0007D17E396F5FE22855A86EA85EFF000210C
:103EC0005A94DA9C45B6930750022300F400850CFF
:103ED000050449BE89059C003E9713FBF50F930727
:103EE000D00293551B00230EF7FC8DB39C0089086C
:103EF0003E9793F8F80F9307D00293D51800230E3E
:103F0000F7FC61B55A85DE85EFD0906C1357F5410B
:103F1000B347A700998FA94633E7D702B3C7D702A3
:103F200013070703230EE100638E070E8546EA851B
:103F3000294511A0BA8633E6A70285051387160026
:103F40001377F70FB3C7A702130606032380C50034
:103F5000F5F3954763ECE7069C003E979305000355
:103F600093872600230EB7FC93F7F70F1946E38AD1
:103F7000C7E898003E9793873600230EB7FC93F767
:103F8000F70FE380C7E894001306000313871700B8
:103F9000BE96238EC6FC1377F70F9945E303B7E669
:103FA0009400369793862700230EC7FC13F7F60F6D
:103FB000E309B7E494003697230EC7FC0947E39260
:103FC000E7E4A300C10235BD054B21B99C00890679
:103FD0003E9713FBF60F9307E002230EF7FC1355F1
:103FE0001B00E30805E49305FBFF1DB5054BE35AF1
:103FF00008BE9307D002A30EF1008545094B81B995
:104000002AC2014681465A85DE85EFD0A0111248AA
:104010008548E35E05D89307D002A30EF1008545DD
:104020008948ADB393070003A30EF100230FF100FD
:104030008D4791BF93575500054793870704331564
:10404000A7008A0737E700E0BA9788C382809357B2
:1040500055000547938707063315A7008A0737E7FA
:1040600000E0BA9788C38280B7E700E03E9523005E
:10407000B540828005456F80D06B11C182806FC0D2
:104080008F98411106C6EFC0AF97B24041016FA0B3
:104090008002B76500209968938545F1930E40052D
:1040A00011689388383613086864239515012386B0
:1040B000D501238CD501B7750020376700202396E2
:1040C00005BB1307C7F8B772010023960193930548
:1040D00000002322B70E83A502C713066004130E47
:1040E00020050543B77F01002310C7002300C70F39
:1040F00023220700231F670C232CB70C03A74FC7ED
:10410000B7670020938747ED37650020130505F357
:104110002380C7002386C70323A207002396070036
:104120002397670298D7A947377F01005CC1B7770B
:1041300000202388C7B683278FC7B76600209386E1
:1041400006F72300C500A380C60023A206009CCE6C
:104150008280B7660020938646F183C24199930717
:1041600060042386F600B76500209307F00F05660C
:104170002394F600A385060023A0060023A20600D0
:104180008147014F814E814F930860049385050854
:104190001306469C7548130E30061303600413057E
:1041A000400621A86398680093FEF70F054F854FDE
:1041B0009308400585076383A7023387C7002E97BE
:1041C00003070700E350E8FEE396C7FFE39468FEA9
:1041D0008507054F930E3006E391A7FEA386560090
:1041E0002399F19263840F002386160163080F0060
:1041F000A385D6012385D60105458280814E23857E
:10420000D60105458280B76700201167938707F7BD
:1042100013071760B77601002390E70003A786C74E
:1042200023A2070098CF8280377701201307076BFE
:10423000B7770020938787BB232C071A2326071AFA
:104240002328071A130760042384E70013070000DC
:10425000D8C398C30947D8C70D4798CB1167130730
:104260006764239AE700130760F9238BE70005458D
:104270008280411106C6EF50707DEF609047EF508D
:10428000103AEFF01FEDEF60601BEF608002B78720
:104290000120B24003A6878591469545130520036A
:1042A00041016FE06FF383C7619B014599E303957B
:1042B0002181B7770020938787BB944B2398A180F7
:1042C0000D476383E600828003C78700930760047D
:1042D000E31BF7FE01114AC8039981A106CE22CC47
:1042E00026CA52C456C24EC6EFD010352A844A851B
:1042F000AE84EFE0B01BEFE0B034B777010003A667
:1043000007D183A647D1EFC0506DB777010003A650
:1043100087D183A6C7D1EFC02074EFA0F03C2A8AD2
:10432000AE8A6357200903D5C180EFE09024B777A8
:10433000010083A587D037790100EFD0B06DEFE0A1
:1043400030305286D686EFC05069B777010003A699
:1043500007D283A647D2EFC020702A8AAE8A0325EF
:1043600089D28325C9D25286D686EFD08032228662
:10437000A686EFC09066EFD0B025032689D28326AB
:10438000C9D2239CA192D6855285EFB0F0792286BE
:10439000A686EFC09064EFD0B023F2406244239D24
:1043A000A192D2444249B249224A924A056182808E
:1043B00003D5E1809DBF411106C622C426C2EFA0ED
:1043C000A02DB7770020938787BB984B0DCB83C771
:1043D0008700930660046389D7021307400563854D
:1043E000E70A0397E1930395019422442390E1A205
:1043F000B24092442391A1A241016FA0206BB24030
:1044000022449244410182809377D7FF8546638C92
:10441000D70091476309F700239F019223900194ED
:1044200001450147D9B7B787012003A58769B704BC
:104430000020EFE0207C0396819393160501B78559
:104440000120C1869385C55D13858419EF70B06C1A
:10445000B78701201384E1932310A40003A5876A82
:10446000EFE040790396A19393160501B7850120EB
:10447000C1869385456013858419EF70D0692390B8
:10448000A1940317040095B7B787012003A5876996
:104490001384E193EFE0007693160501B7850120C0
:1044A00037050020C18601469385C55D1305851239
:1044B000EF707066B78701202310A40003A5876AF8
:1044C000EFE0407393160501B78501203705002002
:1044D000C1860146938545601305C513EF70B0632F
:1044E000031704002390A19409B7411126C29384B5
:1044F000219483D7040022C4377400203777010049
:10450000130484BB0840832507D385072390F40058
:1045100006C6EFD0901908C0EF90705F1C4809479D
:10452000FD176368F7008346840093076004638285
:10453000F606239B01920145239CA1A0EFA09001C8
:1045400003970400A947B367F7029DC79307703E1E
:1045500063C7E700B24022449244410182801305C0
:104560002008EFC08FACB240224423900400239A6D
:10457000019292444101828083972181239CF19290
:10458000239DF192EFF03FD2EFF0FFE2039704009A
:1045900075BF5C446388E7000547E39CE7F8039533
:1045A000619359BF83968194B78501203705002018
:1045B00001469385855813050515EF709067239B79
:1045C000A1929DBF828039715AD003A7419F06DE18
:1045D00022DC26DA4AD84ED652D456D25ECE62CCEF
:1045E00066CA6AC86EC685476309F7123774002029
:1045F000DD6C5D6CDD6B130484BB93044005B77AFE
:104600000100377D0100B77D0100A1A813864ACBC8
:10461000814513050008EFE04F841C480D47638F68
:10462000E70805476387E7120947638EE712638847
:10463000071083475401638E970813864ACB894538
:1046400013050008EFE06F8183A7C19F0547638EC4
:10465000E7082945EFF08FB803A7419F8547630E10
:10466000F70A89451385C193EF00100F9307008067
:104670001386CCC7814541452394F180EFD0FFFDDF
:1046800013060CC985454145EFD03FFD13860BCA83
:1046900089454145EFD07FFC834744017D47239402
:1046A000E180E39597F613060DCB814513050008CD
:1046B000EFD0BFFA1C480D47E395E7F613868DCB84
:1046C000854513050008EFD05FF983475401E39651
:1046D00097F613060DCB894513050008EFD0FFF7B9
:1046E00083A7C19F0547E396E7F603C7C19323AEAF
:1046F000019E630BF70851C38947E31CF7F4094691
:10470000930500081305540109292945EFF00FAD61
:1047100003A7419F8547E316F7F4F250625423AA9A
:10472000019ED2544259B259225A925A025BF24B1C
:10473000624CD24C424DB24D054521618280B77723
:104740000100138687CD854513050008EFD0FFF0E3
:10475000CDB5B7770100138607CC85451305000852
:10476000EFD0BFEFF9B5B77701001386C7CC854509
:1047700013050008EFD07FEE6DBD014693050008DC
:1047800013054401592EF1B5DD670547930600086E
:104790001146938507CE13050401852D5DBD397142
:1047A00022DC4AD85AD006DE26DA4ED652D456D269
:1047B0005ECE62CC66CA6AC86EC6130730062E8407
:1047C0002A8B3289930730066363B700AE8793055F
:1047D00030069D8DC20593071007C1815A8563F489
:1047E000670113051007930DFBFF130CABFF931B21
:1047F0001B0042054A864181C20D420CC20BB30C1C
:104800006441EFD0DFD193DD0D01135C0C0193DB2C
:104810000B01229B930A1007130A300693093006F6
:1048200033849D01931704014A86C1836E8D63F41E
:10483000BA01130D1007420D135D0D016A856374F3
:10484000FA00130430063384894042044180A28573
:10485000EFD0FFCCB384BB4193970401C1834A8658
:10486000A28563F4FA0093041007C204C180268570
:10487000EFD0FFCA3304BB4193170401C1834A86BA
:104880006A856374FA001304300633848940420455
:104890004180A285FD1DEFD09FC8C20D4A86A2852A
:1048A000268593DD0D01EFD09FC7E31BBCF7F250C7
:1048B0006254D2544259B259225A925A025BF24B74
:1048C000624CD24C424DB24D2161828083A6019F41
:1048D000411126C206C622C44AC00547AA84034421
:1048E0000500638EE60C83A681A005476384E60A73
:1048F00003A941A085476305F90483A6819F6381CD
:10490000F606FD47238084002394F180931504016B
:104910009D47C18163F88706E11537760100C2051E
:10492000130686FAC1810145EFD03FD3B24022443D
:10493000930700802394F1809244024941018280D0
:104940004165011523A201A0EFD03FB91D469D4549
:104950001305000DEFD07FD783A7819F639B2709A5
:104960004165011523AC019EEFD03FB79D4501463F
:104970001305000DEFD07FD523800400FD4723945D
:10498000F180814537760100130686FA0145EFD0A4
:10499000DFCC69BF23A401A031C87D141374F40FC8
:1049A000131984011359894141650115EFD0FFB2F4
:1049B0004A869D451305000DEFD03FD115BF23A8B2
:1049C000019E9D476306F40405041374F40F131944
:1049D00084011359894141650115EFD01FB04A8602
:1049E0009D451305000DEFD05FCEF5BD1D491D445B
:1049F00065BF9D47377601002380F400FD479D4544
:104A0000130686FA01452394F180EFD01FC539BF04
:104A100001490144C9B75D716AD003A7C19FA2C40F
:104A2000A6C2031405002AC61305F08186C6CAC0B3
:104A30004EDE52DC56DA5AD85ED662D466D26ECEDC
:104A400085472394A1806303F706939B060193DBBC
:104A50000B01139C2B005E9C060CB30C8041C20C16
:104A6000420C2E89B289135C0C0193DC0C01854445
:104A700003A6819FCE854A8583A641A003A781A076
:104A800083A7019F63039606638B960463179700C1
:104A90005E944204418423A401A02286638F97047C
:104AA000EFD07FD983A7C19FE39497FC9307008041
:104AB0002394F180B24723AE019EB6402390870035
:104AC000264496440649F259625AD25A425BB25B76
:104AD000225C925C025DF24D0545616182806694C4
:104AE0004204418423A201A055B76294420423AC3E
:104AF000019E4184E39C96F8DDB73304744142047F
:104B000041842286CE854A8523A8019EEFD0BFD25C
:104B100083A7C19FE39E97F451BF5D716AD086C69B
:104B2000A2C4A6C2CAC04EDE52DC56DA5AD85ED63D
:104B300062D466D26ECE03A7C19F834C05002AC6FD
:104B40009306F08185472394D1806307F7082E8A66
:104B5000B28A0544377C0100130B4005B77B010086
:104B600003A6819F83A741A003A781A083A6019FDD
:104B70006306860C638B8708630E870E639386102B
:104B800023A8019E638E6C0313060CCBD685528539
:104B9000EFD0BFAC83A7C19F638F870803A6819F17
:104BA00083A741A003A781A083A6019F630B860A68
:104BB000638C870863018706E39886FC23A8019E1F
:104BC000930C600413864BCBD6855285EFD0FFA89B
:104BD00083A7C19FE39687F8930700802394F18011
:104BE000B24723AE019E054523809701B640264477
:104BF00096440649F259625AD25A425BB25B225C31
:104C0000925C025DF24D6161828023A201A0638FFC
:104C10006C036311870423A401A0E39386FA1306AF
:104C20000CCBD685528523A8019EEFD01FA383A766
:104C3000C19FE39587F6930C400579BF23AC019E95
:104C400063836C03E39787FC23A201A0E31787FC2F
:104C500023A401A0E39A86F223A8019E930C60048A
:104C600095B723AC019EE39387FE23A201A0E31333
:104C700087FE55B723A401A0E3816CFBE39686F081
:104C8000E1BFE3916CF509B75D716AD066D286C663
:104C9000A2C4A6C2CAC04EDE52DC56DA5AD85ED6CC
:104CA00062D46ECE03A7C19F834D05002AC61305AB
:104CB000F08185472394A180630AF70A2E8AB28A7D
:104CC0000544930BC004377B01001DA06385850E4E
:104CD0006388870E6303871063807D051306CB34DA
:104CE000D6855285EFD07F9783A7C19F63808708C1
:104CF00003A6819F83A541A083A781A003A7019F4D
:104D0000E31686FC23AC019E63827D0F638E8502D1
:104D100063878708630E870AB777010013864734D5
:104D2000D6855285EFD07F9383A7C19F638C870C74
:104D300003A6819F83A641A083A781A003A7019F0B
:104D4000630B860AE39686FC23A201A0638987048D
:104D5000630087081306CB34D6855285EFD0FF8FCA
:104D600083A7C19F930D2005E39487F893070080E4
:104D70002394F180B24723AE019E05452380B701FD
:104D8000B640264496440649F259625AD25A425BCA
:104D9000B25B225C925C025DF24D6161828023A471
:104DA00001A063058700930D40050DBF23A8019E58
:104DB000930D600425B723A201A0E39B7DF579B78D
:104DC00023A401A093074005E39DFDFCE31287FEA9
:104DD00023A8019E930D400511B723A8019E9307B8
:104DE0004005E387FDFC930D4005CDBDE39085F6BE
:104DF00023A201A031BF23AC019EE39986F423A234
:104E000001A039B7930DC00495B7397162CC5AD05F
:104E10005ECE06DE22DC26DA4AD84ED652D456D2F0
:104E200066CA6AC803A8C19F834405002A8B13057C
:104E3000F08185472394A1806308F80C2E84B28901
:104E4000368ABA8A854C03A781A083A7019F254390
:104E50006303970F63979701FD1423A8019E93F4B2
:104E6000F40F93972400A697860763FC340D93886C
:104E70001700138827001385370093854700138692
:104E800057009386670013877700138E870013837C
:104E90009700A29722982295A2952296A2962297F1
:104EA000229E2293A29883CE0700034F0800834FCF
:104EB000050083C205008343060003C8060083473C
:104EC00003008346070083C8080003470E00500014
:104ED000D6855285A306F1002302D101A302110158
:104EE0002303E101A303F10123045100A304710092
:104EF00023050101A305D1002306E100EFD0EFF562
:104F000083A7C19FE39197F59307008023AE019E8D
:104F10002394F18023009B00F2506254D2544259F2
:104F2000B259225A925A025BF24B624CD24C424D19
:104F3000054521618280850423A401A093F4F40F28
:104F400011BF214E1D479946154691450D4509480B
:104F500085488147814435BF83A6019F011126CA38
:104F60004AC806CE22CC4EC60547AA842E890344E1
:104F700005006382E60E83A681A005476386E608E6
:104F800083A641A005476388E60A83A6819F05475B
:104F90006382E604FD47238084002394F180931507
:104FA00004019D47C18163F98704E115377601004B
:104FB000C205130686FAC1810145EFD00FEAF2401F
:104FC0006244930700802394F180D2444249B2495D
:104FD000056182804165011523AC019EEFD0EFCFC2
:104FE0009D4501461305000DEFD02FEE23800400F0
:104FF000FD472394F180814537760100130686FA38
:105000000145EFD08FE565BF23A401A03DC87D1405
:105010001374F40F41650115EFD02FCC13168401E2
:1050200061869D451305000DEFD02FEA83A641A0B0
:105030000547E39CE6F44165011523A201A0EFD0EA
:10504000CFC91316890161869D451305000DEFD068
:10505000CFE74A841DBF23A8019E6306B40205045E
:105060001374F40F9319840193D989414165011593
:10507000EFD0AFC64E869D451305000DEFD0EFE48F
:10508000DDBD4A8441BF81490144CDB7411126C2EB
:10509000C16422C44AC006C60144938494E1130942
:1050A000200742044180228526869305F0040504EA
:1050B000EFD0EFC693170401C18313940701418415
:1050C000E39127FFC1640144938494E1130920070D
:1050D00042044180228526869305B0030504EFD063
:1050E0000FC493170401C183139407014184E39112
:1050F00027FFC1640144938494E11309200742040B
:10510000418022852686930570020504EFD02FC1C9
:1051100093170401C183139407014184E39127FF8E
:10512000C1640144938494E113092007420441803F
:1051300022852686CD450504EFD06FBE9317040166
:10514000C183139407014184E39227FFC1641304D0
:105150003006FD14A2857D1442047D4613053002FD
:105160004180EFD0CFBBE31794FEC1641304300637
:10517000FD14A2851306007E13058003EFD02FBA1D
:10518000A2851306007E13059003EFD04FB9A285C8
:105190007D1442041306007E1305A0034180EFD066
:1051A0000FB8E31894FCC16413043006FD14A28503
:1051B0007D1442047D461305F0044180EFD02FB6E4
:1051C000E31794FE93040080130630029D452945A1
:1051D00023949180EFD04FDC377601007D49130690
:1051E00006F89D451305100323942181EFD0EFC6E7
:1051F0001306F0049D451305800523949180EFD09C
:10520000AFD937760100130646F895451305800798
:1052100023942181EFD06FC437760100130686F8FE
:10522000914513058007EFD04FC337760100130671
:10523000C6F88D4513058007EFD02FC237760100E1
:10524000130606F9894513058007EFD00FC137769D
:105250000100130646F9854513058007EFD0EFBF1F
:1052600037760100130686F9814513058007EFD0D4
:10527000CFBEB2402394918022449244024941011E
:105280008280797122D44AD056CAC16A3769002017
:1052900026D24ECE52CC5AC85EC662C406D62399D8
:1052A0000192814793043006130A30061309090856
:1052B00093091007138BFA810397219B630AF72246
:1052C0000397419B6306F722139707014183BE852D
:1052D00063F4E400930530069387870F8607CA9727
:1052E00003D54700B305BA40C2057D1593170501E4
:1052F000C183C18163F4F9001305100742055A8682
:105300004181EFD0CFA18397219313970701418368
:10531000BE8563F4E400930530069387870F860704
:10532000CA9703D54700B305BA40C205C18163F4EB
:10533000A900130510075A86EFD06F9E839721931B
:10534000139707014183BE8563F4E400930530069B
:105350009387870F8607CA9703D54700B305BA40DE
:10536000C205050593170501C183C18163F4F900E6
:105370001305100742055A864181EFD04F9A839753
:105380002193139707014183BE8563F4E4009305DD
:1053900030069387872E8607CA9703D5C700B305C3
:1053A000BA40C2057D1593170501C183C18163F41D
:1053B000F9001305100742057D464181EFD02F9675
:1053C00083972193139707014183BE8563F4E4001B
:1053D000930530069387872E8607CA9703D5C700A3
:1053E000B305BA40C205C18163F4A90013051007D3
:1053F0007D46EFD0CF928397219313970701418386
:10540000BE8563F4E400930530069387872E8607F4
:10541000CA9703D5C700B305BA40C205050593175F
:105420000501C183C18163F4F9001305100742052A
:105430007D464181EFD0AF8E83972193139707016B
:105440004183BE8563F4E400930530068607CA975E
:1054500003D50700B305BA40C205C18163F4A900B2
:105460001305100713860A80EFD06F8B8397219363
:10547000139707014183BE8563F4E400930530066A
:105480008607CA9703D50700B305BA40C2057D1544
:1054900093170501C183C18163F4F9001305100757
:1054A000420513860A804181EFD06F87839721934D
:1054B000139707014183BE8563F4E400930530062A
:1054C0008607CA9703D50700B305BA40C20505058C
:1054D00093170501C183C18163F4F9001305100717
:1054E000420513860A804181EFD06F838397219311
:1054F0008507C207C1872399F192E3DFF4DAB2503E
:10550000225492540259F249624AD24A424BB24B57
:10551000224C4561828079714AD003A7419F06D60B
:1055200022D426D24ECE52CC56CA5AC85EC662C4C7
:105530008547630EF70E377C0020B77901000544DC
:105540003DA883A7019F6380870883A7819F638B02
:10555000870883A741A0138609DE814513056009EA
:105560006386870AEFD06F8F039601838545130505
:105570006009EFD04FAC83A7419F638A870AEF4051
:10558000F04C930720078148130840061307400694
:105590009306200713060CC781450145EFD07FB065
:1055A00083A781A0E39F87F883D701831305400673
:1055B00023A401A085072398F182EFE02FC283A7DF
:1055C000019FE39487F883D701831305400623A83E
:1055D000019EFD172398F182EFE04FC083A7819FC2
:1055E000E39987F683D701831305400623AC019E18
:1055F000A9072398F182EFE06FBE83A741A013862D
:1056000009DE814513056009E39E87F483D7018392
:105610001305400623A201A0D9172398F182EFE0D9
:10562000EFBB138609DE81451305600925BFB25023
:10563000225423AA019E92540259F249624AD24A44
:10564000424BB24B224C01454561828079716AC060
:1056500003A7419F06D622D426D24AD04ECE52CCA2
:1056600056CA5AC85EC662C466C285476304F71448
:10567000B7690020376400204169B77C002013041B
:1056800004F7938449F1377C0100377B0100B77A36
:10569000010013090980EFE0DFBD9307200713071E
:1056A00040068148130840069306200781450145BE
:1056B00013860CC7EFD0FF9EEFF05F9DEFF07FBC2D
:1056C00083459400034584004A86EFF04F8D83455F
:1056D000D4000345C4007D46EFF06F8C83C51400F1
:1056E00003C549F11306007EEFF06F8B8345B400CC
:1056F0000345A4004A86EFF08F8A8345F4000345F2
:10570000E4007D46EFF0AF8983C5340003C5240073
:105710001306007EEFF0AF8813064CE781451305B2
:105720006009EFC09FF303968194854513056009D6
:10573000EFD06F901306CBE7894513056009EFC0E2
:10574000DFF10386A4008D4513056009EFC0FFF764
:1057500013868AE8914513056009EFC01FF0039690
:1057600081A1954513056009EFD0EF8C0306040174
:10577000994513056009EFC05FF5030624019D45B7
:1057800013056009EFC07FF4030614019945130562
:10579000E00BEFC09FF3030634019D451305E00BBA
:1057A000EFC0BFF27945EFE06FA303A7419F8547A4
:1057B000E313F7EE41650115EFC03FD2B25022541A
:1057C00023AA019E92540259F249624AD24A424B9C
:1057D000B24B224C924C024D0145456182805D7175
:1057E000A2C44EDE37040020B769002052DC5AD82C
:1057F0005ED686C6A6C2CAC056DA62D466D26AD05F
:105800006ECE938949ED13048405FD4B83A7419F18
:1058100085446380971A954513859195EFF0CFF3F2
:105820001386818581454145EFC03FE3138601869C
:1058300085454145EFC07FE25D661306C6DE8945BA
:105840004145EFC09FE15D66130686DF8D4541450A
:10585000EFC0BFE05D66130686E091454145EFC0AD
:10586000DFDF5D66130646E195454145EFC0FFDE8B
:105870005D66130606E299454145EFC01FDE03C78A
:10588000C902239471819307C004630CF70837762B
:1058900001001306C634814513058007EFC0FFDB06
:1058A0000316E400894513058007EFC0DFF80316EF
:1058B00004018D4513058007EFC0FFF7031624018F
:1058C000914513058007EFC01FF703164401954566
:1058D00013058007EFC03FF60316640199451305D1
:1058E0008007EFC05FF50396E90285451305800741
:1058F000EFC07FF483A7C19FE39A97F083C7919588
:1059000023AE019E194741455146B94DD946C94577
:10591000636CF7085D678A07130747D3BA979C4300
:1059200082873776010013064634814513058007C8
:10593000EFC0BFD203162400894513058007EFC0CE
:105940009FEF031644008D4513058007EFC0BFEE9F
:1059500003166400914513058007EFC0DFED0316C1
:105960008400954513058007EFC0FFEC0316A400E3
:10597000994513058007EFC01FEC0396E9028545A2
:1059800013058007EFC03FEB83A7C19FE39097E823
:1059900083C7919523AE019E194711452146894D34
:1059A000A9469945E378F7F641650115EFC0FFB2C6
:1059B000B1BDB640264423AA019E96440649F25939
:1059C000625AD25A425BB25B225C925C025DF24D3B
:1059D000054561618280B307D4003EC6039D070080
:1059E0009307F0812394F180854D03A7819F63186D
:1059F000B701290D420D23AC019E135D0D4103A794
:105A000041A06318B701591D420D23A201A0135DE7
:105A10000D4103A781A06318B701050D420D23A412
:105A200001A0135D0D4103A7019F6304B7296A8696
:105A3000994513058007EFC01FE003A7C19FE31638
:105A4000B7FB930700802394F180B24723AE019EF9
:105A500041652390A7010115EFC03FA845BBB307DF
:105A6000C4003EC6039D07009307F0812394F18094
:105A7000854D03A7819F6318B701290D420D23AC03
:105A8000019E135D0D4103A741A06318B701591D85
:105A9000420D23A201A0135D0D4103A781A063184D
:105AA000B701050D420D23A401A0135D0D4103A70D
:105AB000019F6302B7256A86954513058007EFC0ED
:105AC0009FD703A7C19FE316B7FBA5BF376500208B
:105AD000014693058007130505F0EFF0EF9A416545
