:100000006FB0302213000000130000001300000046
:100010001300000013000000130000001300000094
:100020001300000013000000130000001300000084
:08003000130000007300100032
:10003800000000000000000058B500005CB500009A
:100048000000000068B90000000000000000000087
:100058006AB900006CB90000000000000000000050
:100068006EB900000000000070B900000000000038
:1000780072B9000074B9000076B9000078B90000C0
:100088007AB900007CB90000ECB1000004B20000AD
:100098001EB2000038B2000052B2000088B9000059
:1000A8008AB900008CB900008EB9000090B9000030
:1000B80092B9000094B9000096B9000098B9000000
:1000C8009AB900009CB900009EB900006CB200000B
:1000D800A2B90000B4B30000A6B90000A8B9000096
:1000E800E2B3000000B400002EB40000B0B9000074
:1000F800B2B90000B4B90000B6B90000B8B9000040
:10010800BAB9000034B0000066B00000A8B0000022
:10011800EAB20000C4B90000C6B90000C8B90000BE
:10012800DEB40000CCB90000CEB90000D0B90000A0
:10013800D2B90000D4B900005CB40000D8B90000FE
:10014800DAB000000CB100008AB40000ACB40000C2
:10015800E2B90000E4B90000E6B90000E8B900001F
:10016800EAB90000ECB90000EEB90000F0B90000EF
:10017800F2B90000F4B90000F6B90000C0CC0000E4
:10018800FAB90000FCB90000BCB1000032B10000AF
:1001980064B100009AB1000006BA00000CB5000076
:1001A8000ABA00000CBA00000EBA00003AB5000006
:1001B80012BA000014BA000016BA000018BA0000FB
:1001C8001ABA00001CBA00001EBA000020BA0000CB
:1001D8000000000000000000000000000000000017
:1001E8000000000000000000000000000000000007
:0801F8000000000000000000FF
:10020000737504308280B76200009382820873A005
:10021000023082803D432A876373C3029377F700DD
:10022000BDEFADE5937606FF3D8ABA960CC34CC38D
:100230000CC74CC74107E36BD7FE11E28280B306BF
:10024000C3408A069702000096966780A60023079F
:10025000B700A306B7002306B700A305B700230520
:10026000B700A304B7002304B700A303B700230318
:10027000B700A302B7002302B700A301B700230110
:10028000B700A300B7002300B700828093F5F50FF5
:1002900093968500D58D93960501D58D61B793967C
:1002A00027009702000096968682E78086FA96805D
:1002B000C1171D8F3E96E374C3F8A5B739CD054726
:1002C000630DE5040947630AE5040D476307E50488
:1002D00011476304E50415476301E5041947630EFC
:1002E000E5021D47630BE50221476302E50425474C
:1002F0006305E50429476308E5042D47630BE5041E
:1003000031476300E5023547630BE5043947630E67
:10031000E5043D476301E50682808146014681454B
:100320003DA3814601468145130520040DA3814666
:10033000014681451305000219AB814601468145FE
:100340001305100229A381460146814513050004C7
:10035000FDA981460146814513051004CDA98146BA
:100360000146814513053004DDA1814601468145E2
:1003700013054004E9A9814601468145130550044F
:10038000F9A1411122C4372401404AC091460546D3
:100390002E899375F50F1305044006C626C2EFB0EB
:1003A0005014130504408545B7240140EFB0D01127
:1003B0001384044089452285EFB0901E65DD03A5B6
:1003C000C444B240224433552501420592440249B7
:1003D000418141018280797106D622D426D2F93D2D
:1003E000854513050020EFC0000801453724014072
:1003F000EFB0F07213050440EFB0C07EB7070E00F7
:10040000130504408A853EC68547230AF10002C0D1
:1004100002C202C402C8EFB01002130504408545B1
:10042000EFB03007130504408145EFB010181305F5
:100430000440B7240140EFB0F00613840440228545
:10044000EFB0F0066DFD1385044037240140EFB096
:100450009006130404402285EFB090066DFDB25063
:100460002254925445618280B7F700E023A0070030
:100470008146014794C7D8C7054798C337F700E0BE
:100480001047544763E6D500E39CB6FEE37AC5FE09
:10049000828079715EC662C466C2328CAE8CB68BC5
:1004A000014693068004814506D622D426D24AD03E
:1004B0004ECE52CC56CA5AC8BE8A3A8B428AC68998
:1004C00083440103034941030344810349266685AC
:1004D00093068004014681459D2E62859306800423
:1004E00001468145AD265E8593068004014681451F
:1004F000B92E5A859306800401468145892E56857A
:10050000930680040146814599265285930680040E
:10051000014681452D2E4E85930680040146814576
:100520003D264A8593068004014681450D26268591
:100530009306800401468145192E22852254B2502B
:1005400092540259F249624AD24A424BB24B224C6F
:10055000924C93068004014681454561CDAC011162
:1005600022CC26CA2E84AA848545096506CE4AC8AF
:100570004EC63289B689EFB0306DB707055003C754
:100580000700130560058D451377F70C2380E700FE
:1005900003C70700136727042380E70003C717007A
:1005A0001377970FA380E700239237012393270146
:1005B00084C7C0C703C717001377F703A380E700FA
:1005C00003C717001377F70FA380E70003C71700CF
:1005D00013670701A380E70003C7270013674700DD
:1005E0002381E70003C7170013671700A380E70004
:1005F00003C70700136717002380E700EF30302E92
:100600006244F240D2444249B24913056005056193
:100610006F30B029B707002041119387070022C42B
:10062000AA9706C683C6070055671307C7699317BD
:100630002500BA971307F00F80436385E6003685DF
:10064000E12209C903554402B240224442054185D2
:100650004101828003554402B24022443305A04048
:100660004205418541018280D5679387C7690A05A4
:100670003E951C41239207028280011122CC2E84D8
:10068000914506CE26CA4AC8AA843289EF00707204
:10069000B7550100130630089385854AEF30001BDB
:1006A0002685EF00F072930680040146814513759C
:1006B000F40F712A81459306800401461375F90FE2
:1006C0007922B707002093870700A6972380870029
:1006D0009355840085476388F504C5476381F50C0D
:1006E000930710026385F50C93072002638AF508CF
:1006F00093071003638CF50C930710076381F50CC7
:10070000930710086386F508930710096385F50CB5
:10071000930720096390F502370701405C4F93E788
:1007200007025CCF01A83705160085451305050CA7
:10073000EFB0903485450545EFB0F0524800EFC06A
:100740000024D5679387C7698A04BE948040C16737
:10075000FD174C0022853EC402C223060100EFB003
:100760003066228593050006EFC020282285854546
:10077000EFC06022F2406244D24442490561828067
:1007800037151A00854513050580EFB0F02E5DB7CB
:10079000370701405C4F93E707015CCF61BF370526
:1007A0001800854513050530EFB0102D61B73715DA
:1007B0001A008545130505C0EFB0102CA5BF3707FB
:1007C00001405C4F93E747005CCFADB785450565B9
:1007D000EFB0902A85B7370701405C4F93E70704D5
:1007E0005CCF89BF9357550013972700D567938730
:1007F0000752BA973D89984385473395A70099C119
:1008000008CB828048CB8280135735009376C7018E
:100810005567130707523697184385473395A70046
:100820001C477D8D3335A00082809357350013F728
:10083000C701D56793870752BA9798439377F50016
:10084000054554473315F500358D48C78280930719
:10085000F00F6307F50C797122D41354550026D29A
:100860004AD04ECE52CC06D61D889374F5003689F8
:10087000B2892E8A0DC885476305F40A8947630744
:10088000F40A8D476309F40A9147630CF40A95470B
:10089000630FF40A9947631CF400854513050010A3
:1008A000EFB0703C29A085451145EFB0D03B05471E
:1008B000B3149700C204D56793870752C1800A0416
:1008C0003E94231291009377F90F0040630FEA00E2
:1008D0004C0022853EC6EFB06051B2502254925473
:1008E0000259F249624A456182804209135909015D
:1008F00013598900631309000D494C0022854AC42D
:100900003EC6EFB0A04E4E86A6852285EFB03016CB
:10091000B250225492540259F249624A456182808F
:10092000828085452145EFB0103451B7854541455A
:10093000EFB07033ADBF854513050002EFB0B032A4
:10094000BDB7854513050004EFB0F0318DB785457F
:1009500013050008EFB0303199BFD567938707487A
:1009600003AF070083AE470003AE870003A3C700B1
:1009700083A8070103A84701D44F9853904FDC5335
:100980001D71A6CAAE84854586CE7ACC76CE72D04D
:100990001AD246D442D636DA3ADCA2CCCAC8CEC67F
:1009A000D2C43EDE2A843759010032D8EF007040AD
:1009B0009305495313065002EF2050691306600255
:1009C0009305495333359000EF2050682285EF009E
:1009D000304013DAF40093170A01C1838507B3D4BA
:1009E000F402D567931924009387C769CE9703A9AA
:1009F00007006C00231641014A85231901002317C3
:100A00000100230A01001374F40F0A042318910053
:100A1000EFB0103B05464A858545EFB0707B4A85AF
:100A20008545EFC0400B9C003E94032584FD8D4519
:100A3000EF30E06A9C00BE9903A589FDEF30E066C7
:100A40004A858545EFB03075F6406644D644464940
:100A5000B649264A25618280630305208547630CD9
:100A6000F52089476303F5208D47630CF520C147C6
:100A7000630FF520C5476303F522C9476307F522D5
:100A8000CD476301F524930700106304F524930711
:100A900010106306F524930720106308F5249307CC
:100AA0003010630AF524930700116307F5209307BC
:100AB00010116308F52493072011630BF5249307A5
:100AC0003011630EF524930700206301F526930788
:100AD00010206303F526930720206305F52693076E
:100AE00030206308F52693070021630BF526930752
:100AF0001021630EF526930720216301F528930743
:100B000030216304F528930700226307F528930733
:100B10001022630AF52893070030630DF528930728
:100B200010306300F52A930720306303F52A9307FA
:100B300030306304F52C930700316309F52A9307DD
:100B40001031630EF52893072031630FF52A9307C0
:100B500030316302F52C93070040630CF5169307C0
:100B60001040630EF516930720406300F5189307B5
:100B700030406302F518930700706303F51E930776
:100B800010706306F51E930720706309F51E930726
:100B90003070630CF51E93070071630DF520930709
:100BA00010716300F522930720716303F522930708
:100BB00030716300F5289307058063880712856705
:100BC000138717806309E512138727806301E528DF
:100BD000938737806306F526856713870781630F40
:100BE000E52C138717816304E52C1387278163089D
:100BF000E51E138737816300E52213870790630999
:100C0000E51C13871790630AE51E13872790630975
:100C1000E52813873790630EE52613870791630352
:100C2000E526938717916308F52485671387279135
:100C3000630CE522138737916301E522138707923E
:100C40006301E50C138717926308E5141387279255
:100C5000630BE514938737926306F51C8280930635
:100C60008031014685452145DDB693068031014638
:100C700085452945E9BE93068031014685452545D0
:100C8000F9B693068031014685452D45C9B69306D0
:100C90008031014685451305900855BE9306803185
:100CA000014685451305B0085DB6930680310146BF
:100CB00085451305D00861BE930680310146854500
:100CC0003D4571B693068031014685451305E00820
:100CD000BDBE930680310146854501458DBE930614
:100CE00080310146854505459DB693068031014614
:100CF00085450945A9BE93068031014685450D45C8
:100D0000B9B693068031014685451305300281B698
:100D100093068031014685451305A0020DBE93065A
:100D20008031014685451305B00215B69306803122
:100D300001468545194521BE93068031014685450A
:100D40001D4531B6930680310146854513050002E5
:100D5000FDBC930680310146854513051002C5BCD4
:100D6000930680310146854513056004CDB4930692
:100D700080310146854513057004D1BC930680314E
:100D80000146854513058004D9B493068031014698
:100D900085451305900465BC930680310146854561
:100DA000130540026DB49306803101468545130555
:100DB000500271BC930680310146854513056002DF
:100DC00079B493068031014685451305700241B41C
:100DD0009306803101468545130580028DBC93063C
:100DE0008031014685451305D00695B493068031C0
:100DF000014685451305C00699BC9306803101461E
:100E0000854513059002A1B49306803101468545BE
:100E10001305E0062DBC9306803101468545130578
:100E2000F00635B493068031014685451305F0047C
:100E300039BC93068031014685451305D00401BCB9
:100E400093068031014685451305400409B4930695
:100E50008031014685451145DDBA93068031014652
:100E6000854513057006E5B2930680310146854538
:100E700013055006E9BA93068031014685451305EE
:100E80003006F1B293068031014685451305100600
:100E90007DBA93068031014685451305B00445BAF5
:100EA0009306803101468545130530044DB2930603
:100EB0008031014685451305B00651BA930680314D
:100EC000014685451305900659B29357850055672D
:100ED0001307C7698A07BA9794431307102183D76A
:100EE000C602B385F5026302E5046364E502FD779B
:100EF0009387076FAA970D47636DF7009307803EAE
:100F00000D89B3D5F5020A053695C205C1814CD9C4
:100F10008280896793870771B3D5F5020D890A0529
:100F20003695C205C1814CD98280E1679387076AF3
:100F3000B3D5F5020D890A053695C205C1814CD994
:100F40008280397126DA9354850022DC52D42A84B7
:100F50002E8A26858D4506DE4AD84ED63289912DB9
:100F6000B75501001306900B9385855AEF20100E9C
:100F70002685B92D2285CD3485450545EFB0A04E97
:100F80009357440005476388E7044547638FE71A92
:100F9000130710026381E71E130720026382E71222
:100FA000130710036388E71E13071007638DE71C00
:100FB000130710086381E716130710096381E71E02
:100FC000130720096395E710370701405C4F93E74B
:100FD00007025CCFEDA83705160085451305050C03
:100FE000EFB0802983A50183896993890971B3D7FB
:100FF0004503C18393861700B38646031397070101
:101000004183B3D5D50293970501C1833389270363
:10101000BE85D5679387C7698A04BE948440938749
:10102000F5FF4C0026852314F1002312E10023155F
:1010300001002313010023060100EFB0605833596B
:101040003903C167938707073EC8B70702008907BE
:10105000231A01003ECC02CE0D88231B210121C49E
:101060008547630CF40E89470C0826856304F40C4D
:10107000EFB01007A1452685EFB0101D9305004085
:101080002685EFB0F02126858545EFB0D012268564
:101090008545EFB05010F2506254D2544259B259C3
:1010A000225A216182800C082685EFB0C05E268519
:1010B000A145EFB0901591452685EFB0901AE1B7A4
:1010C00037151A00854513050580EFB0E01A83A592
:1010D000018313061021B3D74503C18393861700FC
:1010E000B3864603139707014183B3D5D50293977F
:1010F0000501C183BE85338927036305C402636785
:10110000C402FD779387076FA2978D4663E0F602CE
:101110009309803EFDBD370701405C4F93E707010F
:101120005CCF75B7E1699389096AE5B589699389E7
:101130000971C5B5EFB0C06D2685A145EFB0B00F00
:1011400091452685EFB0B0143DBF370518008545A1
:1011500013050530EFB040129DBF0C082685EFB097
:10116000005E2685A145EFB0700B930500402685F3
:10117000EFB0501009BF37151A008545130505C09B
:10118000EFB0800FA9B7370701405C4F93E74700E6
:101190005CCF35BF85450565EFB0000E0DBF370745
:1011A00001405C4F93E707045CCF15B7411122C49F
:1011B00026C24AC006C6AE843284368955C5C147A8
:1011C0006302F510930700026301F5129307000311
:1011D000630AF50E93070004630DF514B75501007B
:1011E000130690029385C5610145EF20206689476B
:1011F0006386F408C9476385F40A9307200263886D
:10120000F41093072003638DF40893072004638789
:10121000F40EB7550100130600039385C56101451F
:10122000EF20C06285476305F406C5476303F408F1
:10123000930710026306F40E930710046304F4107E
:10124000930710036307F4069307F00F6315F40880
:101250002244B24092444A85024993060031014635
:10126000854541016FF0AFDE930680310546854527
:101270001545EFF0CFDD8947E39EF4F69306803104
:10128000054685451D45EFF08FDC8547E31FF4F8E3
:1012900093064030054681451945EFF04FDB4DBFC1
:1012A000930680310546854513055002EFF02FDA8D
:1012B00095BF930640300546814513054002EFF087
:1012C0000FD979B79306803105468545130530025D
:1012D000EFF0EFD729BFB7550100130680039385C0
:1012E000C5610145EF208056A5B7930680310546BC
:1012F00085451305D002EFF08FD5D5BD930680311B
:10130000054685451305C004EFF06FD421BF930651
:101310008031054685451305F002EFF04FD319B72C
:1013200093064030054681451305E002EFF02FD2C9
:1013300005B793068031054685451305A004EFF0F7
:101340000FD175B593064030054681451305B004AD
:10135000EFF0EFCFF5BD5D7193182500CAC02A8963
:1013600055651305056946954EDE8329050086C639
:10137000A2C44E85A6C252DC56DA5AD85ED63E8B3F
:10138000AE84B28B368ABA8A4284EFB04015854566
:101390000545EFB0400DC1476309FA0E93070004FD
:1013A0006316FA00930720046385FA16630B090E8F
:1013B00085476301F91889476309F916A2865A8699
:1013C000D6855285E533B70704013EC623180100D0
:1013D00085476380F40E638C04100947638AE40E2A
:1013E0008D466385D40803A441919307F00F3354CD
:1013F00074034204418063F287041304800393075B
:1014000000206C004E85231BF1009D47231C8100AA
:10141000231EF100231D0100EFB080124E8585458B
:10142000EFB0E017B640264496440649F259625A96
:10143000D25A425BB25B616182809307F00763E737
:1014400087069307F00363E3870CFD4763E9870E84
:10145000BD4763E9870E9D4763E8870E8D4763E7C5
:10146000870E854763F6870E014451BF231AF100AA
:1014700003A441912319E1009307F00F335474033F
:1014800042044180E3EB87F64DBFC947E390FAF28F
:10149000C547E31DFBF085450545EFA0F05DE31969
:1014A00009F085450565EFA0107C09BF1304000312
:1014B000B9B703A4419123190100231A91003354B1
:1014C00074039307F00F42044180E3E887F2B5B755
:1014D00003A4419123199100231A0100335474038A
:1014E0009307F00F42044180E3E987F0B9B703A402
:1014F000419123190100231A010033547403930707
:10150000F00F42044180E3EA87EE05BF1304800236
:10151000FDB593071004E31BFBE837152000854554
:1015200013050510EFA0505551B585452165EFA075
:10153000707569B585451165EFA0D07441B5130488
:10154000000275BD614465BD414455BD214445BDA2
:10155000B75501001306D0089385C5610145EF20FA
:10156000E02E71BDD5670A0593870769AA9798434E
:101570002316B7008357870093F70708E5FF82809B
:10158000D5670A0593870769AA97984393D785007B
:101590002316F7008357870093F70708E5FF93F5B5
:1015A000F50F2316B7008357870093F70708E5FF69
:1015B0008280931725001385C1A03E951C4181E7C9
:1015C0000CC1054582803385B740133515008280F4
:1015D00021C10547630BE50209476308E5020D4792
:1015E000630EE5021147630FE50215476300E5044A
:1015F00019476301E5041D476303E50421476304BC
:10160000E50425476306E504828085456FA0906761
:1016100005658545130505806FA0F0648545114576
:101620006FA05066854521456FA0D0658545414531
:101630006FA050658545130500026FA0B064854515
:1016400009656FA050628545370508006FA0B0613D
:101650008545370510006FA01061411122C406C6F0
:101660002E8441C98947630BF516C147630BF512F8
:10167000C947630AF51A930700026305F51C93072F
:101680002002630AF51893074002630CF51C9307C8
:1016900000046302F518930720046302F520930702
:1016A00000056305F522930720056300F524937771
:1016B000D5FF130700066383E72093070007630144
:1016C000F51C93072007630EF52493074007630872
:1016D000F526930700086303F52893072008631095
:1016E000F502E146014685451305E008EFF02F9627
:1016F00039A0E146014685452545EFF04F958547E0
:101700006307F4088D476300F40CC5476300F40ECB
:10171000CD476307F40E93071002630EF41093078E
:1017200030026307F408930750026305F41293072D
:101730001004630FF40693073004630BF41493074B
:1017400010056306F416930730056309F418930730
:1017500010066304F41A930730066307F41A93071C
:1017600010076308F410930730076306F41A930711
:101770005007630FF41A93071008630AF41C9307C9
:1017800030086305F41EB240224441018280930672
:1017900080040146814529452244B24041016FF051
:1017A0000F8BE146014685450945EFF04F8A81BF21
:1017B0002244B24093068004014681451305B004DB
:1017C00041016FF0CF882244B24093068004014665
:1017D00081451305700241016FF06F87E1460146B4
:1017E000854513056002EFF08F8611BF2244B24099
:1017F00093068004014681450D4541016FF02F8518
:101800002244B240930680040146814513056006D8
:1018100041016FF0CF83E146014685451305A004E1
:10182000EFF0EF82E9BDE14601468545130550061C
:10183000EFF0EF81E9B59306800401468145130579
:10184000B00299BFE146014685451305A002EFF0BD
:101850000F8075B5930680040146814513059006F7
:1018600025BFE1460146854513058006EFE03FFEB2
:1018700079B593068004014681451305300429BFDC
:10188000E1460146854513052004EFE05FFC85BD78
:10189000930680040146814513051002F5BDE1461B
:1018A0000146854513050002EFE07FFA89BD9306E6
:1018B00080040146814513052006F9BDE146014635
:1018C000854513050004EFE09FF815BDE14601468C
:1018D00085451305C004EFE09FF715B59306800416
:1018E000014681451305900845BDE1460146854501
:1018F00013058008EFE0BFF519B593068004014693
:1019000081451305100449BD9306800401468145B5
:101910001305B00851B593068004014681451D4565
:10192000A5BDE146014685451945EFE05FF2C1BB23
:1019300093068004014681451305D008B1BDE146F8
:10194000014685451305C008EFE07FF04DBB9306C7
:10195000800401468145130550043DBDE146014622
:10196000854513054004EFE09FEE51BB93068004CC
:10197000014681451305F00805B51DC6D5670A0562
:101980009387476CAA9798432E96850583C6F5FFE3
:101990008357070093F70708E5DF93970601C18394
:1019A0002312F700E393C5FE8280D5671317250045
:1019B0009387476C4111BA9726C2AA84884322C4F0
:1019C0002E862E849305505206C6EFB060241385F0
:1019D0004184269503450500B7E700E0AA972380D8
:1019E000074019C42244B240924441016F20E06B89
:1019F0002244B240924441016F20C06CD5670A0571
:101A00009387476CAA9798438357070093F7070279
:101A100099E3014582808357470005452380F500FF
:101A20008280797122D44ECE2A84AE8905458545BF
:101A300006D626D24AD0B2843689EFA0D022CA85F3
:101A4000268521398947638DF414C9476382F406DA
:101A5000930720026386F40A93074002638DF40A19
:101A6000930720046385F40C93072005639AF40C14
:101A700093073005630CF91821C48547630AF414F1
:101A80008947630DF4148D476300F416914763038F
:101A9000F41695476306F41699476300F4189D47BA
:101AA0006314F402854513050010EFA0B01D29A8AA
:101AB000CD47E313F9FC85452145EFA0E07B55FCBC
:101AC00085451165EFA0301AD5679387476C0A04E6
:101AD0003E9400408A85B7070C0022854EC03EC464
:101AE0002316010002C2EFA0F07F22858545EFB0EA
:101AF0002010B250225492540259F249456182801A
:101B000093073002E31AF9F63705140085454105BD
:101B1000EFA0807695B793075002E31FF9F43705DD
:101B20001400854513050503EFA00075B1B79307B1
:101B30003004E313F9F485450565EFA0E0732DBF8C
:101B400093072006639EF40093073006E316F9F22C
:101B500037150080854513050580EFA0E07129BF8A
:101B600093072007639EF40093073007E316F9F00C
:101B7000370701405C4FB7064000D58F5CCFEDBD05
:101B8000930740076396F40293075007E316F9EEB4
:101B9000370701405C4FB7068000D58F5CCFE9BDA9
:101BA0008D47E31BF9EC85451145EFA0E06CE9B5E5
:101BB00093072008E392F4EC93073008E31EF9EA58
:101BC000370701405C4FB7060002D58F5CCF6DB57B
:101BD000854537050200EFA0F00AFDB585453705BC
:101BE0000400EFA0300ACDB5854537050800EFA009
:101BF0007009D9BD854537051000EFA0B008E9B5DB
:101C0000854513050004EFA0F0077DBD37052000D2
:101C100085450505EFA0406685B585451305000897
:101C2000EFA0500655B5011122CC9385518E154574
:101C300006CE26CA4AC84EC6D13305469385518E74
:101C4000138541A5EF1090491384018E18408547F4
:101C50006309F700F2406244D2444249B249056147
:101C600082801389418E83450900938941A393F5AE
:101C7000F50F9387150093F7F70F81461386018EB2
:101C8000CE95138541A52300F900EF10D05083476E
:101C900009000D47E370F7FC834509003755010043
:101CA0001146F115CE951305456EEF10A1215DF19A
:101CB00089471CC045B7011122CC9385D18E1945A7
:101CC00006CE26CA4AC84EC6153B05469385D18E18
:101CD000138581A8EF1090401384818E18408547AA
:101CE0006309F700F2406244D2444249B2490561B7
:101CF00082801389C18E83450900938981A693F55B
:101D0000F50F9387150093F7F70F81461386818EA1
:101D1000CE95138581A82300F900EF10D0478347A3
:101D200009000D47E370F7FC8345090037550100B2
:101D30001146F115CE951305456EEF10A1185DF112
:101D400089471CC045B783A7819009476388E7008E
:101D50000D476388E70011476383E70082806F10B7
:101D6000C07D6F10405483A7819011476386E700C0
:101D70000D476385E70082806F1070026F10E05896
:101D800079715AC806D622D426D24AD04ECE52CC29
:101D900056CA5EC6138BA18083470B0037540100DF
:101DA000AE8A32899305C46E13062005AA8933359D
:101DB000F500368A9384B180EF10502903C50400E2
:101DC0009305C46E1306300533B5AA00EF10102832
:101DD00003450B009305C46E130640053335A90077
:101DE000EF10D02603C504009305C46E13065005FA
:101DF0003335AA00EF10902583A7418055679306DD
:101E00000752C04683240752F9C70547638CE71879
:101E1000414B232864019389890213098902A16B2C
:101E2000232A6401C2094209094723AA740193D9EC
:101E30000901135909019305A00205456389E710BB
:101E4000EFF04FF223A87401232864010545CE85E5
:101E5000232A6401EFF0CFF2CA850545EFF04FF277
:101E600023286401232A64019305B002054523AAAF
:101E70007401EFF02FEF93854A0323A87401232800
:101E80006401C205C1810545232A6401EFF04FEFCB
:101E900093054A03C205C1810545EFF06FEE232883
:101EA0006401232A640123AA74019305C002054535
:101EB000EFF04FEB23A8740123286401232A640167
:101EC000B250225492540259F249624AD24A424BC9
:101ED000B24B45618280414B23286401A16B232AC8
:101EE00064019305A002054523AA7401EFF08FE772
:101EF0009385490323A8740123286401C205C18185
:101F00000545232A6401EFF0AFE793054903C205B5
:101F1000C1810545EFF0CFE623286401232A64013F
:101F20009305B002054523AA7401EFF0AFE3938552
:101F30008A0223A8740123286401C205C1810545D2
:101F4000232A6401EFF0CFE393058A02A1B7EFF0F3
:101F50006FE123A87401232864010545CE85232A57
:101F60006401EFF0EFE1CA850545EFF06FE123284A
:101F70006401232A64019305B002054523AA740174
:101F8000EFF04FDE93855A0323A8740123286401E0
:101F9000C205C1810545232A6401EFF06FDE930578
:101FA0005A03CDBD414B23286401A16B232A640150
:101FB0009305A002054523AA7401EFF0AFDA9385DB
:101FC000590323A8740123286401C205C181054572
:101FD000232A6401EFF0CFDA930559030DBF79711D
:101FE00022D4375401001306B0089305C46E05458A
:101FF00006D64ECE52CC26D24AD056CA5AC85EC653
:1020000062C466C26AC0EF1070041306C00893056C
:10201000C46E0545EF10900303A641919307F00F9E
:10202000130720021308F00F930600020582814572
:102030000545EFF04FB2C146014685453D45EFE00D
:102040001F81C1460146854513050006EFE03F802C
:10205000C1460146854513054006EFE04FFFC146E6
:102060000546854513056004EFE06FFE93894180C6
:1020700003A70900854763FCE7429306700813072E
:10208000000F83A741918964938404F4B3D7970226
:102090001305800C5569130609524046054C8145CD
:1020A000938AB180138BA180232A84012380DA00D4
:1020B0002300EB00930C4006C14B216D3385A70232
:1020C000EFE08FBA03A54191814523288401335560
:1020D000950233059503EFE02FB903290952232810
:1020E0007401232A7401930560030545232AA9017D
:1020F000EFF04FC703A541912328A90123287401BC
:1021000033559502232A7401814533059503EFE089
:10211000AFB583A709006381073A638A873B094704
:102120006381E73A9305000A0545EFF0AFC3C14468
:1021300004C8A16944C89305A0030545232A3901B1
:10214000EFF04FC22328390104C89545054544C81E
:10215000EFF04FC104C844C89305200B0545232A5E
:102160003901EFF02FC02328390104C8B1450545D6
:1021700044C8EFF02FBFB1450545EFF0AFBE814534
:102180000545EFF02FBE930530030545EFF08FBDF9
:10219000930530030545EFF0EFBC04C844C8930530
:1021A000700B0545232A3901EFF0CFBB23283901F5
:1021B00004C893055003054544C8EFF0AFBA04C8FE
:1021C00044C89305B00B0545232A3901EFF08FB9B8
:1021D0002328390104C893057003054544C8EFF06E
:1021E0006FB804C844C89305000C0545232A39017B
:1021F000EFF04FB72328390104C89305C002054505
:1022000044C8EFF02FB604C844C89305200C054518
:10221000232A3901EFF00FB52328390104C8854579
:10222000054544C8EFF00FB404C844C89305300C0A
:102230000545232A3901EFF0EFB22328390104C8FC
:10224000C945054544C8EFF0EFB104C844C893053B
:10225000400C0545232A3901EFF0CFB0232839017E
:1022600004C893050002054544C8EFF0AFAF04C8A9
:1022700044C89305600C0545232A3901EFF08FAE61
:102280002328390104C8BD45054544C8EFF08FAD8A
:1022900004C844C89305000D0545232A3901EFF011
:1022A0006FAC2328390104C89305400A054544C88A
:1022B000EFF04FAB9305100A0545EFF0AFAA04C845
:1022C00044C89305000E0545232A3901EFF08FA974
:1022D0002328390104C89305000D054544C8EFF0D3
:1022E0006FA891450545EFF0EFA7B5450545EFF01F
:1022F0006FA7C5450545EFF0EFA6CD450545EFF0C5
:102300006FA69305B0020545EFF0CFA59305F00346
:102310000545EFF02FA5930540050545EFF08FA487
:102320009305C0040545EFF0EFA3E1450545EFF047
:102330006FA3B5450545EFF0EFA2AD450545EFF0BC
:102340006FA2FD450545EFF0EFA19305300205456D
:10235000EFF04FA104C844C89305100E0545232A89
:102360003901EFF02FA02328390104C89305000D8F
:10237000054544C8EFF00F9F91450545EFF08F9E4E
:10238000B1450545EFF00F9EC5450545EFF08F9D22
:10239000CD450545EFF00F9D9305C0020545EFF0D3
:1023A0006F9C9305F0030545EFF0CF9B9305400428
:1023B0000545EFF02F9B930510050545EFF08F9A2B
:1023C0009305F0020545EFF0EF99FD450545EFF067
:1023D0006F99FD450545EFF0EF989305000205451F
:1023E000EFF04F98930530020545EFF0AF9704C822
:1023F00044C8930510020545232A3901EFF08F9652
:102400002328390104C844C804C844C8C545054543
:10241000232A3901EFF00F9503A54191896793872E
:1024200007F43355F5022328390104C8814544C80F
:10243000931745003385A7400E05EFE0EF8204C8EF
:1024400044C8930590020545232A3901EFF08F9186
:1024500003460B0083C60A002328390104C8330948
:10246000D602FD167D16C206420644C8B7070020F4
:10247000C18241828145014503D4073EEFF05F9060
:10248000630909007D19A2850545EFF06F8FE31BF5
:1024900009FEB250225492540259F249624AD24A79
:1024A000424BB24B224C924C024D456182809306C6
:1024B000000F13077008F1B681450545EFF08F8ACC
:1024C000BDB1930500070545EFF0CF898DB19305A8
:1024D000000C0545EFF00F8999B9411122C403C4DE
:1024E000A18083C6B1801306F4FF42063304D402F0
:1024F000FD16C20626C2C182AA84418281450145D9
:1025000006C6EFF0FF8719C47D14A6850545EFF0D8
:102510002F877DF8B240224492444101828083C7D4
:10252000A18001114AC83759010022CC26CA4EC6E3
:10253000AE842A84B2899305C96E3335F50013063B
:10254000F01206CEEF10803003C5B1809305C96E3E
:102550001306001333B5A400EF10402FA685228583
:10256000A6862286EFF0DF816244F240D2444249DF
:10257000CE85B249054505616FF08F8083C7A18084
:1025800079714AD03759010026D256CA62C4AE8A40
:102590002A8C9305C96E3335F500B28413060014F6
:1025A00006D64ECE52CC5AC85EC622D4EF10002AB0
:1025B00003C5B1809305C96E1306101433B5AA0084
:1025C000EF10C028938704FE59679207130787808E
:1025D0003389E700920A930B7C00B38A2A414107B2
:1025E000C20BC20A93DB0B01330BF70093DA0A012B
:1025F000370A0020B3862A01C206C1825E86B685EC
:102600006285EFF0EFF721448344090011A883D5D8
:1026100081807D141374F40FEFE09FF6858019CC50
:1026200093F714000545E5F783550A3E7D140545EB
:102630001374F40FEFE0DFF485807DF00509E31BF0
:1026400069FBB250225492540259F249624AD24A6A
:10265000424BB24B224C4561828083C7A18001115D
:1026600026CAB754010022CC4AC84EC62E89B28968
:102670009385C46E1306F0152A843335F50006CE13
:10268000EF10C01C03C5B180130600169385C46EFD
:102690003335A900EF10801B0386090005C2814471
:1026A00085042285CA85C204D13DC180B3879900C3
:1026B000038607002104420441807DF2F240624417
:1026C000D2444249B2490561828083C7A1807971B1
:1026D00022D4375401004AD04ECE52CC32892E8AB1
:1026E000130640179305C46EAA893335F50006D644
:1026F00026D2EF10A01503C5B1801306501793051D
:10270000C46E3335AA00EF106014634B090613063C
:102710000002D2854E85EFF07FE62947B347E902F4
:102720009306400613848900938909024204C20972
:102730006400418093D90901B346D902B3E7E702A7
:102740002306D1003369E902A306F1002307210122
:1027500003C6040022852104130606036206420410
:10276000D28561864180EFF07FE18504E39289FEA6
:10277000B250225492540259F249624A4561828011
:10278000330920411306D002D2854E856209EFF04D
:10279000FFDE1359894151B783C7A180797126D2D1
:1027A000B754010022D44AD052CC32892A842E8ACE
:1027B0003335F5009385C46E1306601906D64ECEE8
:1027C000EF10C00803C5B1809385C46E130670195D
:1027D0003335AA00EF1080072947B357E902930663
:1027E000400693098401C209640093D90901B356D4
:1027F000D902B3F7E7022306D1003379E902A30631
:10280000F1002307210103C60400228521041306D9
:10281000060362064204D28561864180EFF01FD62E
:102820008504E39289FEB250225492540259F2492F
:10283000624A4561828083C7A180797126D2B754EC
:10284000010022D44AD04ECE3289AE891306201B15
:102850009385C46E2A843335F50006D652CCEF003A
:10286000F07E03C5B1801306301B9385C46E33B56B
:10287000A900EF00B07D6348090813060002CE8569
:102880002285EFF0BFCF9306803EB346D902A94719
:10289000130740060966130606712104420424004A
:1028A0004180130AD1003347E902B345F902B3E688
:1028B000F6023346C902A304D1003367F7022304AA
:1028C000C100B3E6F5022305E1003369F902A3056F
:1028D000D1002306210103C604002285210413062A
:1028E00006036206CE85618642048504EFF01FC9A7
:1028F0004180E3129AFEB250225492540259F24996
:10290000624A45618280330920411306D002CE8598
:1029100022854209EFF09FC613590941ADB783C71D
:10292000A180797126D2B754010022D44AD04ECE6C
:102930003289AE891306701D9385C46E2A8433359F
:10294000F50006D652CCEF00707003C5B1809385B8
:10295000C46E1306801D33B5A900EF00306F9306D7
:10296000803EB356D902A9471307400609661306ED
:1029700006712400130AD1003357E902B355F90256
:10298000B3F6F6023356C902A304D1003377F70237
:102990002304C100B3F6F5022305E1003379F902FF
:1029A000A305D1002306210103C6040022852104CA
:1029B000130606036206CE85618642048504EFF0A5
:1029C000FFBB4180E39244FFB2502254925402591B
:1029D000F249624A456182801D71D6C2938AA18004
:1029E00083C70A00D2C4375A0100A2CCCAC8DAC0D1
:1029F0005EDE2E892A849305CA6E3335F500B28BCC
:102A00001306701F86CEA6CACEC6138BB180B689B8
:102A1000EF00D06303450B001306801F9305CA6EB9
:102A20003335A900EF009062A947A94463E4370158
:102A300093F4F90F93891400B755010093F9F90F36
:102A40005E869385857663C00B0A930700021305A3
:102A5000D1002306F100EF10C00105051375F50F35
:102A6000637D35013386A4401376F60F7C0005069E
:102A7000930500023E95EFD0EFF903C50A001C183C
:102A8000BE991306F0159305CA6E3335A400238E44
:102A900009FCEF00B05B03450B001306001693051D
:102AA000CA6E3335A900EF00705A0306C100814495
:102AB00005C22285CA858504EFF05FACC204C180DF
:102AC0001C18A6970386C7FD21044204418075F2B5
:102AD000F6406644D6444649B649264A964A064BCD
:102AE000F25B256182806800EF00B0781375F50F06
:102AF00085BF1D71DAC0138BA18003480B00A6CAE5
:102B0000B7540100A2CCCAC8D2C4D6C22E8A2A8425
:102B10009385C46E3335050132891306102286CEA3
:102B2000CEC65EDE62DCBE8B66DAB689BA8C938A6C
:102B3000B180EF00B05103C50A001306202293852F
:102B4000C46E3335AA00EF0070509947194C63E406
:102B5000770113FCFB0FA94793FBFC0F63F397016D
:102B6000A94B01468146CE854A85EFD0900BB755DB
:102B700001004A86CE8693854576634D050E130582
:102B8000D100EF00106F1307A5FF1377F70F93CB5A
:102B9000FBFFBA9B050C629793FBFB0F1377F70FB4
:102BA000139C8B01931C8701135C8C4193DC8C413B
:102BB000635C0C023307774162076187E68713067F
:102BC00000021418BE968507E207238EC6FCE18733
:102BD000E399E7FEB38C7C41330C7C41E20C620C40
:102BE00093DC8C41135C8C41014681464A85CE853D
:102BF000EFD03003634A050A1C183E9C930700027D
:102C0000230EFCFC03450B001C189385C46EBE9C70
:102C10001306F0153335A400238E0CFCEF0010438F
:102C200003C50A00130600169385C46E3335AA0047
:102C3000EF00D0410306C100814405C22285D28540
:102C40008504EFF0BF93C204C1801C18A6970386C9
:102C5000C7FD21044204418075F2F6406644D64423
:102C60004649B649264A964A064BF25B625CD25CFC
:102C7000256182806800EF00D05F130795FF13770E
:102C8000F70F93CBFBFFBA9B050C629793FBFB0FEF
:102C90001377F70F139C8B01931C8701135C8C41F6
:102CA00093DC8C41E3480CF01C183E9C9307D00247
:102CB000230EFCFC81BF03C3A180397152D4375A63
:102CC000010022DC4ED662CCAE892A849305CA6EFE
:102CD00033356500328C1306802706DE26DA4AD8A3
:102CE0005AD05ECE428B66CAB684BE8C56D26AC8B3
:102CF0006EC6BA8B4689EF00703503C5B1801306E6
:102D000090279305CA6E33B5A900EF0030349306BF
:102D1000FBFF1386FCFFCE962296C2064206C182B6
:102D20004182CE852285EFF0AF8563060B04C16931
:102D3000814A014AFD1933D46A03638A0C02814D2A
:102D4000014D3384840262946306090433D79D03E2
:102D5000CE85054522978347070063F42701814507
:102D60000545050DEFE0DF81A69DE3119DFF050AF6
:102D7000DE9AE3126AFDF2506254D2544259B259BB
:102D8000225A925A025BF24B624CD24C424DB24DE7
:102D900021618280B3D79D03050D0545A69DA297AD
:102DA00003C707009355370009839397B5001607AB
:102DB0005D8FD98DEFE0CFFCE31E9DFD4DBF797196
:102DC00052CC56CA5AC85EC6930AF5FF930BE5FF6C
:102DD000130A1500130B2500C20BC20A420A420B4C
:102DE00026D24AD04ECE06D622D462C466C26AC06B
:102DF0002A89AE89B284814793DB0B0193DA0A01F9
:102E0000135A0A01135B0B010DA08D47638DF40863
:102E10009547638BF4140504420441809317040121
:102E200013077008C1876302E4061394070105477E
:102E30004180E39CE4FC03C5A180375C010093055D
:102E4000CC6E3335A9001306F012EF00302003C515
:102E5000B1809305CC6E130600133335A400EF0048
:102E6000F01EA286A2854A864A85EFE07FF105041E
:102E7000CE8505454204EFE0AFF041809317040191
:102E800013077008C187E312E4FAB2502254925437
:102E90000259F249624AD24A424BB24B224C924CFE
:102EA000024D45618280138DA18003450D00375C82
:102EB00001009305CC6E33B5AA001306F012EF00A3
:102EC000F018938CB18003C50C009305CC6E1306EB
:102ED00000133335A400EF007017A2865686A28532
:102EE0005685EFE0FFE9CE850545EFE06FE9034544
:102EF0000D009305CC6E1306F0123335A900EF00D8
:102F0000F01403C50C009305CC6E13060013333583
:102F1000A400EF00B013A2864A86A2854A85EFE09E
:102F20003FE6CE850545EFE0AFE503450D0093058F
:102F3000CC6E1306F0123335AA00EF00301103C532
:102F40000C009305CC6E130600133335A400EF007C
:102F5000F00FA2855285A2865286EFE07FE2CE85F1
:102F60000545EFE0EFE145BD138DA18003450D0060
:102F7000375C01009305CC6E33B5AB001306F0123D
:102F8000EF00D00C938CB18003C50C009305CC6E80
:102F9000130600133335A400EF00500BA2865E86A3
:102FA000A2855E85EFE0DFDDCE850545EFE04FDDF4
:102FB00003450D009305CC6E1306F01233B5AA003D
:102FC000EF00D00803C50C009305CC6E1306001368
:102FD0003335A400EF009007A2865686A285568559
:102FE000EFE01FDACE850545EFE08FD903450D00F0
:102FF0009305CC6E1306F0123335A900EF001005CF
:1030000003C50C009305CC6E130600133335A400E2
:10301000EF00D003A2864A86A2854A85EFE05FD6FC
:10302000CE850545EFE0CFD503450D009305CC6E69
:103030001306F0123335AA00EF00500103C50C004F
:103040009305CC6E130600133335A400EF00100077
:10305000A2865286A2855285EFE09FD2CE85054595
:10306000EFE00FD203450D009305CC6E1306F0126E
:103070003335AB00EF00807D03C50C009305CC6EAB
:10308000130600133335A400EF00407CA2855A8557
:10309000A2865A86EFE0DFCECE850545EFE04FCE23
:1030A0009DBB03C3A180397152D4375A010022DC81
:1030B0004ED666CAAE892A849305CA6E333565003A
:1030C000B28C1306403606DE26DA4AD85AD05ECED7
:1030D000428B6AC8B6843E8D56D262CC6EC6BA8B1D
:1030E0004689EF00A07603C5B180130650369305DC
:1030F000CA6E33B5A900EF0060759306FBFF130697
:10310000FDFFCE962296C2064206C1824182CE853E
:103110002285EFE0FFC6630A0B04C169814A014AB8
:10312000FD1933D46A03630E0D029307801C014C12
:10313000814D3304F4026694630809043357AC03E9
:10314000CE8505450A072297184303470700637495
:10315000270181450545850DEFE08FC2269CE39F41
:10316000ADFD050ADE9AE31E6AFBF2506254D254AA
:103170004259B259225A925A025BF24B624CD24CDB
:10318000424DB24D21618280B357AC03850D054598
:10319000269C8A07A2979C4303C7070093553700D4
:1031A00009839397B50016075D8FD98DEFE04FBD6A
:1031B000E39CADFD7DB7397122DC26DA4ED656D2BE
:1031C0005AD093070008B70900207D7B89644AD84C
:1031D00052D45ECE62CC06DE2315F1009389C9007D
:1031E000014A1384C18F130B5B1A930B000893845D
:1031F00004F4938A818F254C83D7090011466C0013
:1032000013978700A183D98F11452317F100231647
:103210006101EFE08FF6231571018347040093F7F6
:10322000F70F91CF0DA803A5419181453355950224
:10323000EFD08FA38347040093F7F70F89EF8357ED
:10324000A1001387F7FF42074187C207C1872315F3
:10325000E100E34AF0FC8357A100C207C187635530
:10326000F00283C71A0003C72A00050AA207D98FF4
:10327000420A2391F90023000400135A0A0191091C
:10328000E31C8AF7014521A0E31D0AFC0545F25025
:103290006254D2544259B259225A925A025BF24BAA
:1032A000624C21618280411122C41384B18F834515
:1032B000040026C29384818FA695114506C6EFE0CF
:1032C000EFF38347040011C5850793F7F70F230039
:1032D000F4000547638EE7008D466396D700230010
:1032E0000400238EE18EB240224492444101828048
:1032F00003C704009307500AE307F7FE2300040006
:10330000B240224492444101828083A6018FB707D4
:10331000055094C78546238AD18E03C707001367DB
:1033200017002380E700828039710D4506DE22DC1C
:103330004ED626DA4AD852D456D289694124130689
:10334000000593061005938509581145EFE06FEDD0
:1033500085451145EFE06FE50145EF007059138495
:10336000C18F23000400EFF01FE51306E014631281
:10337000051A2300040093070008B7040020231D4A
:10338000F1009384040323000400938A8402130A47
:1033900050FA938909F483D7240083D604006C087B
:1033A00013978700A183D98F11451146230E410140
:1033B000A30ED100231FF100EFE02FDC03A5419104
:1033C00091048145335535030605EFD0EF89E39429
:1033D0009AFC8347040093F7F70FA9EB8357A101E9
:1033E0001387F7FF42074187C207C187231DE1000A
:1033F000635EF0028964938404F429A88357A101D1
:103400001387F7FF42074187C207C187231DE100E9
:10341000635EF00003A54191814533559502EFD0DD
:10342000AF848347040093F7F70FE9DB9384818F20
:1034300003C7140083C7240093060008231DD1008E
:10344000F98F230004001307F00F638EE7048357FE
:10345000A1011387F7FF42074187C207C187231DD8
:10346000E1006352F0048969938909F4130AF00FAB
:1034700029A88357A1011387F7FF42074187C20795
:10348000C187231DE1006350F00203A541918145EE
:1034900033553503EFC05FFD83C7140003C7240015
:1034A000F98FE39847FD8357A101C207C187635095
:1034B000F00623000400EFF01FD02A8425EDEF0072
:1034C000B04391473EC495473EC299473EC09306DC
:1034D000900413068004A94525459308900213081B
:1034E0008002930760021307B004EFC09FFA37050C
:1034F000002019661307C5678546130606828145B5
:103500001305C56723A8E18EEFD06F8511A81306B8
:103510005015B75501009385C5760145052E054424
:103520002285F2506254D2544259B259225A925AC8
:10353000216182801306D015E9BF411122C4138492
:1035400041908345040026C293840190A6951145BD
:1035500006C6EFE0AFCA8347040011C5850793F79D
:10356000F70F2300F4000547638EE7008D4663964E
:10357000D70023000400A381E190B240224492448A
:103580004101828003C704009307500AE307F7FE56
:1035900023000400B240224492444101828083A669
:1035A000018FB707055094C78546A38ED18E03C7F8
:1035B0000700136717002380E700828023A4A190EF
:1035C000828023A6A1908280411122C4938501911B
:1035D0001D4506C6EFE08FC2938501912244B2409B
:1035E0003765002005461305C5ED4101C5AC411105
:1035F000054506C6EFF0FFFCB765002037650020E3
:10360000130600049385C5E91305C5ED652C9306E3
:1036100080040546814513052008EFD04FA3F165CE
:103620009306300813062008938505201D45EFE01A
:103630004FBF1D458545EFE04FB7B2400145410101
:10364000828023AAA190B71702409843B706FFF8DB
:1036500041111367170098C3D84337180240B705C4
:103660000200758FD8C39843B706F7FEFD16758F15
:1036700098C39843B706FCFFFD16758F98C3D843CF
:10368000B70681FFFD16758FD8C337079F0098C70F
:1036900002C402C69843C16613060050558F98C3F2
:1036A00021A0A247638BC70083270800ED8F3EC689
:1036B000A24785073EC4B247EDD7B71702409C43E7
:1036C0001397E7006359070085473EC63247854791
:1036D0006308F70001A002C632478547E31CF7FEE6
:1036E00037366E011307F5FF130606603357C7021E
:1036F000B72602408C42B717024093E505018CC201
:1037000003A80600B7157A00938505201378C8FF33
:1037100023A0060103A806001D8B3367070198C28A
:10372000D843D8C3D843D8C3D843D8C36301B50A54
:10373000D843B706C1FFFD16758FD8C33747950824
:10374000130707406302E50437172707130707E04D
:103750006300E50A37E7B805130707806306E50A43
:1037600037A74A0413070720630AE5083777DC0206
:10377000130707C06300E50A631CC500D843B706FA
:103780000500558FD8C329A0D843C166558FD8C32B
:10379000B7160240984237060001B7170240518F12
:1037A00098C2984393166700E3DD06FED043B71630
:1037B00002402147719AD0C3D04313662600D0C37C
:1037C000DC42B18BE39EE7FE41016F001012D04353
:1037D000B71602401147719AD0C3D0431366160042
:1037E000D0C3DC42B18BE39EE7FE41016F00F00FD6
:1037F000D843B7063900558FD8C359BFD843B70649
:103800001D00558FD8C369B7D843B7062900558F17
:10381000D8C3BDBFD843B7061100558FD8C38DBFDD
:10382000F1654111930630081306200893850520A1
:103830001D4506C6EFE0EF9E85451D45EFE0EF967E
:10384000B2400547238CE1904101828019E983C78A
:103850008191411106C699E7EF00100A01000100AD
:10386000F5BF8280375501001305857EEFF040607B
:10387000EF009008E5B701114EC606CE22CC26CA4D
:103880004AC8B2896358C002D56703A4076EAE84E4
:103890003389C500930500042285EF90C03B7DD994
:1038A00085048385F4FF2285C205C181EF90003A2B
:1038B000E39224FFF24062444E85D2444249B24929
:1038C0000561828091C90CC12322050023240500D3
:1038D00050C510C901458280054582805C45637AE8
:1038E000F60A011126CAAA8422CC4AC84EC652C47E
:1038F00056C206CE2E8A3289EF00100083AA040138
:10390000C0408840B3898A4063F629074E86D28535
:103910002295EFE0902BD84094484E97D8C063662C
:10392000D700158FE37FD7FED8C088404A94330470
:1039300054413A952286B3053A01EFE01029DC4064
:103940009848A297DCC063E6E700998FE3FFE7FEA3
:10395000DCC0D04401453309264123A62401492F68
:10396000F2406244D2444249B249224A924A014555
:10397000056182804A86D2852295EFE01025DC40E1
:103980009848CA97DCC0E3E6E7FC998FE3FFE7FEBF
:10399000C1B70945828001114AC85C450329050168
:1039A0004EC6B289104222CC26CA5AC006CE52C494
:1039B00056C2B307F9402A842E87368B814463F8B8
:1039C000C70023A0F900032905013E868544032A88
:1039D0008400B30A494163E7CA0211C70C403A8523
:1039E000D295EFE0901E63010B04F2406244330570
:1039F00090404249D244B249224A924A024B0D8930
:103A0000056182806DD30C4056863A85D295EFE0F1
:103A1000D01B03A609000C4056955296330626414A
:103A2000EFE0B01AE3130BFCC12D83A70900144487
:103A30001848B6971CC463E6E700998FE3FFE7FEDA
:103A40001CC45C4403A709000145BA975CC44D251A
:103A500069BF01112AC6B247116713070765B3870B
:103A6000E7023ECEF2471387F7FF3ACEE5FF056146
:103A7000828035713AC986DEA2DCA6DACAD8CED6F3
:103A8000D2D4D6D2DAD0DECEE2CCE6CAEAC8EEC6CE
:103A900032C536C73ECB42CD46CF838705003801BD
:103AA0003ACCB5C337670100130DC101D964054A8B
:103AB000AE8A2A84032987F48329C7F4814C930DA5
:103AC0005002938484DF330AAA4119A86287230035
:103AD000F400568C0504850CBA8A83071C008DC738
:103AE000138C1A00E394B7FF83871A00130730057D
:103AF000890A9387B7FD93F7F70FE360F7FE8A070C
:103B0000A6979C438287814CF65066546685D654AE
:103B10004659B659265A965A065BF64B664CD64C11
:103B2000464DB64D0D618280E247984391073ECCE9
:103B300083070700DDD3B3868C402300F40005071C
:103B4000830707000504B30CD400E5FB79B762478F
:103B5000EA8625481C4311073ACC3D4519A0850645
:103B6000BA8713F7F7009375F70F1386050363748D
:103B7000E800138675032380C60013D74700E3606F
:103B8000F5FE030831028348C10183052102034584
:103B9000D101830611020346E101830701020347B5
:103BA000F10123000401A300B4002301D400A30108
:103BB000F4002302E400A302C4002303A400A3032F
:103BC0001401A3011103230E01012301A102A30E7D
:103BD000B100A300C102230FD1002300E102A30F13
:103BE000F1002104A10CD5BDE2471D469843910781
:103BF0003ECC9377770093870703230EF10093560B
:103C00003700637EE6426A879D4511A0B2860507AC
:103C100013F6760013060603B307A74185072300B2
:103C2000C70093F7F70F13D63600E3E1D5FE93D51F
:103C300017003E8B95C11387F7FF6A97EA87EA95CD
:103C4000038607008306070085072300C700A38FAC
:103C5000D7FE7D17E396F5FE22855A86EA85EFE0CA
:103C6000C0765A94DA9C95BD6247A946032807009E
:103C700011073ACC1357F841B3470701998F33E73F
:103C8000D702B3C7D70213070703230EE100638AE5
:103C9000073C85456A86294511A0BA85B3E6A70287
:103CA0000506138715001377F70FB3C7A70293868E
:103CB00006032300D600F5F3634908283A8B935591
:103CC0001700D9D91307FBFF6A97EA87EA9503869D
:103CD00007008306070085072300C700A38FD7FED0
:103CE0007D17E396F5FE22855A86EA85EFE0E06DC2
:103CF0005A94DA9CDDB3E2470504850C984391079A
:103D00003ECCA30FE4FED1BBE2466A8725489C4225
:103D1000910636CC3D4519A00507B68793F6F70006
:103D200013F6F60F930506036374D8009305760324
:103D3000330647012300B70093D64700137BF60FE5
:103D4000E36CF5FC93551B0081D91307FBFF6A97C1
:103D5000EA87EA95038607008306070085072300A4
:103D6000C700A38FD7FE7D17E396F5FE22855A86FE
:103D7000EA85EFE080655A94DA9C85B3E2479D07B7
:103D8000E19B03AB070083AB4700A1075A85DE85A3
:103D90003ECCEFD0C0331357F541B347A700998FFE
:103DA000A94633E7D7022A88B3C7D7021307070308
:103DB000230EE1006381072C85486A86A94511A07E
:103DC000BA88B3E6B7020506138718001377F70F12
:103DD000B3C7B702938606032300D600F5F3014666
:103DE00081465A85DE8546C63AC442C2EFC060634A
:103DF00012482247B24863460516BA889355170001
:103E000095C11387F8FF6A97EA87EA95038607004A
:103E10008306070085072300C700A38FD7FE7D1701
:103E2000E396F5FE4686EA85228546C242C4EFE067
:103E3000C05922484285EFD000302A86AE865A8586
:103E4000DE85EFC0F0344A86CE86EFC0E068924847
:103E5000014681462A8BAE8B4694C69CEFC0E04A51
:103E6000631D0510B7373030938707033ECE8D674B
:103E7000938707032310F1029307E0022301F10265
:103E800099450D451D4BEA95AE876A8703060700E5
:103E900083860700FD170507A380C700A30FD7FE81
:103EA000B386F540E3E4A6FE5A86EA852285EFE074
:103EB000C051DA9C1DB1E24729472546944391073A
:103EC0003ECCB3F7E60293870703230EF10033D706
:103ED000E6026376D616EA86A945254511A0328703
:103EE0003376B7028506B387A641850793F7F70FA8
:103EF000130606032380C6003356B702E361E5FECE
:103F000093D517003E8BE38905D41387F7FF6A9793
:103F1000EA87EA95038607008306070085072300E2
:103F2000C700A38FD7FE7D17E396F5FE22855A863C
:103F3000EA85EFE080495A94DA9C45B6930750022F
:103F40002300F400850C050449BE89059C003E97BA
:103F500013FBF50F9307D00293551B00230EF7FCBC
:103F60008DB39C0089083E9793F8F80F9307D00211
:103F700093D51800230EF7FC61B55A85DE85EFD086
:103F800000151357F541B347A700998FA94633E7AA
:103F9000D702B3C7D70213070703230EE100638ECE
:103FA000070E8546EA85294511A0BA8633E6A702A1
:103FB0008505138716001377F70FB3C7A7021306FB
:103FC00006032380C500F5F3954763ECE7069C00E4
:103FD0003E979305000393872600230EB7FC93F7C3
:103FE000F70F1946E38AC7E898003E979387360093
:103FF000230EB7FC93F7F70FE380C7E8940013068E
:10400000000313871700BE96238EC6FC1377F70FA5
:104010009945E303B7E69400369793862700230E6D
:10402000C7FC13F7F60FE309B7E494003697230EA5
:10403000C7FC0947E392E7E4A300C10235BD054B85
:1040400021B99C0089063E9713FBF60F9307E00207
:10405000230EF7FC13551B00E30805E49305FBFF53
:104060001DB5054BE35A08BE9307D002A30EF1001D
:104070008545094B81B92AC2014681465A85DE85AC
:10408000EFC0203A12488548E35E05D89307D00276
:10409000A30EF10085458948ADB393070003A30E35
:1040A000F100230FF1008D4791BF9357550005474D
:1040B000938707043315A7008A0737E700E0BA970C
:1040C00088C38280935755000547938707063315A9
:1040D000A7008A0737E700E0BA9788C38280B7E76E
:1040E00000E03E952300B540828005456F80C022E8
:1040F00011C182806FC02F91411106C6EFC04F9051
:10410000B24041016F908039B7650020996893856E
:1041100005F3130F40051168938838361308686457
:10412000239515012386E501238CE501B775002051
:10413000B77E0020239A05AD13870EB8239E019108
:10414000930500002324B70EB76201008545B767C9
:1041500001002300B70E83A502F703A347F7130E50
:104160002005232EB70CB76700209305800C93879A
:1041700007EFB76F0100A306C70F23220700232C08
:10418000670C2317B70E05472397E70203A78FF79E
:1041900013066004376500201305C5F4B7660020D8
:1041A0002380C7002386C70323A2070023960700A6
:1041B00098D7A9479386C6F85CC1B77700202390AB
:1041C000CEB82300C500238CC7A8A380C60023A2B5
:1041D000060023AC660082803571B7660020138626
:1041E00006F326CBDEDE06CF22CD4AC94EC752C526
:1041F00056C35AC1E2DCE6DAEAD8EED69306F00FEF
:104200002314D600996693866634B764002023167B
:10421000D600138784FA83C6C19783AB8182831744
:10422000471F13031007B2CC2320060023220600E9
:10423000A3050600B6CE330373418349E600034A63
:10424000F60063C4773B6342F33A930740052302C9
:10425000F738930700002304073E2326F744014F55
:104260008317C75D63CD7735634BF3349307400500
:104270008565BA952306F776930700002308077C27
:1042800023AAF58202C08316C75D0316471F3D4867
:10429000B387C64093F7F70F13958701938837FDCF
:1042A00061859387B7FD2382A59C238415A393F78B
:1042B000F70F6365F83C930740052386F5A885470B
:1042C00002D83EDA02C6F54763D5A73A93076004E1
:1042D000814E3EC2B765010083AC45F5B76501006C
:1042E00003A585F583A5C5F5B76701002AC82ECAC1
:1042F000B765010003A505F683A545F683A707F575
:104300002ACC2ECEB765010003A585F683A5C5F698
:1043100037690020377400202ED2FD729305900378
:104320002394B4FA23080718231EC72A2312D76A36
:104330002314B70C76D6768C2AD0938484FA13098A
:10434000893F1304D496854A02D402C41307400659
:10435000930D6004130E4005130840059308600494
:10436000BD4F9382C27CDE8E8396641F63CCD62BB6
:10437000634AD32A2300C49D894663F55633834696
:10438000F49B638306372302E4A22320F900039BF6
:10439000E45D634FDB27634D63272304C4DB894659
:1043A00063F9562F834B74DA63810B3B930B400503
:1043B000B766010083A606F52306E4E02324D93E70
:1043C000039D641FB306AB4193F6F60F1396860167
:1043D000938536FD61869386B6FD2300C4002302D3
:1043E000B40693F6F60F63EBDF26B2462304C40D42
:1043F0009305F00F638FB62AF54663C4C624924630
:1044000063851619638E0B1963821B17839B240027
:1044100085466383DA0803950400FACA9AC8F6C68B
:10442000F2C4BEC2BAC0EFC010514246D246EFC07D
:10443000A00A2ADC5E852EDEEFC0F04F6246F2460F
:10444000EFC080092A86AE866255F255EFB0A01DF6
:104450002ADC0395E4FF2EDEEFC0F04D02569256A3
:10446000EFC08007AE862A86F2556255EFB0A01BDA
:10447000EFC0F045564F4643B64E264E9647064788
:10448000931B0501FD7693DB0B4193086004130831
:1044900040059382C67CBD4F93061007DE8563DA24
:1044A000761993051007130610071375F60F23915D
:1044B000B40093059003930675FC918D93F6F60F67
:1044C00063C7050093069003898E93F6F60FB30534
:1044D00054002380D500239FA42B2393646B239542
:1044E000C40C850A93064006890411090504E39D5E
:1044F000DAE623915193E28E63050F00E6472387A6
:104500003701824781C7E647A3874701D25789C74A
:10451000E64732472384E700C25789C7E647224768
:10452000A384E70063860E00E64712472386E70070
:10453000B257638D0726E6472257A385E700E64773
:1045400076470545A386E70022572385E700FA4012
:104550006A44DA444A49BA492A4A9A4A0A4BF65BFB
:10456000665CD65C465DB65D0D6182808346049CC8
:1045700063851617E39C06E993036D01939B030182
:1045800093DB0B412391740161B593F6FA0F36D496
:10459000854636D69306400536C2054CE3960BE7B2
:1045A0008346049C638D0611E39216E79303ABFEEA
:1045B000939B030193DB0B412391740191BDB7677A
:1045C000010083A707F5856593066004BA95050A7F
:1045D0002306D77623AAF582930640068547137AE9
:1045E000FA0F2308D77C3EC079B9B767010083A7CB
:1045F00007F59306600485092302D7389306400621
:1046000093F9F90F2304D73E2326F744054F89B9C0
:10461000050A8546137AFA0F2304B4DB930B600472
:1046200036C079B3850993F9F90F2300B49D054F7E
:1046300099BB139605014186E35906E6814501467B
:10464000ADB593063006E39FDADA9246E39C16DBBB
:10465000854636D69306300636D46DB3A24623047B
:10466000B40DE39B06D893F6FA0F36C4854636D8C8
:1046700061B393074005854E3EC2A9B99307600414
:104680002386F5A885473ED89307F00F02DA3EC689
:104690001DB9230604E0930600002324D93E930BA2
:1046A000400539BB230204A2930600002320D90051
:1046B000F9B993F6FA0F36C6854636DA35BBB30636
:1046C0006D0193D3F601B69393D31340939B0301EB
:1046D00093DB0B412391740125BB93069003239137
:1046E000D400930B90032DB38346E49BE39D06C94E
:1046F0008396641F039B041FFAC83685B386664100
:104700002302D4A29AC6F6C4F2C2BEC03ADCEFD0ED
:10471000D009AA8B5A85EFD05009AA855E85EFD0C3
:10472000C044E685EFC0F05EFD779382C77C23200E
:10473000A900BD4F62578647164E130840059308DF
:104740006004A64E3643464F99B1834664DAE3913E
:1047500006C70395845DFAC89AC6B3066541230669
:10476000D4E0F6C4F2C23ADCBEC0EFD010042A8D09
:104770005A85EFD09003AA856A85EFD0003FB767CE
:10478000010083A547F5EFC0D058FD779382C77C21
:104790002324A93EBD4F62578647164E1308400595
:1047A00093086004A64E3643464F19B9E64783C7BF
:1047B000B7003ED469B3B767002011679387C7F885
:1047C00013071760B76601002390E70003A746F7B9
:1047D00023A2070098CF8280B7770020938707AE87
:1047E000130760042384E70013070000D8C398C3AD
:1047F0000947D8C70D4798CB116713076764239AF9
:10480000E700130760F9238BE7000545828041111B
:1048100006C6EF50007DEF503003EF50403BEFF005
:10482000BF9BEF60E031B24041016F60801983C7E8
:104830004199011122CC06CE26CA4AC84EC601446F
:1048400099E303942181B7770020938707AE13077C
:10485000401023988180944B2396E1802397E18038
:104860000D476389E600F2406244D2444249B249AE
:104870000561828003C7870093076004E315F7FE94
:104880000395819F9307B0F66352F50823948192B4
:10489000EFD0A071EFD0B00AB767010003A6870080
:1048A00083A6C700EFB05043B767010003A6070116
:1048B00083A64701EFB0204AEF90F012B7670100DE
:1048C00003A6870183A6C701EFB01041B7670100B7
:1048D00003A6070283A64702EFB0E047B7670100CF
:1048E00003A6870283A6C702EFA0F0532A89228578
:1048F000AE89EFC050042A86AE864A85CE85EFB0D9
:10490000B03DEFC0C07C2395A192B1BF9307600971
:1049100063D4A708EFD06069EFD07002B7670100D9
:1049200003A6870083A6C700EFB0103BB76701005E
:1049300003A6070183A64701EFB0E041EF90B00A5C
:10494000B767010003A6870183A6C701EFB0D0387F
:10495000B767010003A6070283A64702EFB0A03F96
:10496000B76701002A86AE8603A5870283A5C70222
:10497000EFC000022A892285AE89EFC0C07B2A865B
:10498000AE864A85CE85EFB03035EFC040742394B3
:10499000A19223958192C1BD239481922395819206
:1049A000D9B5411106C622C426C2EF90400AB77796
:1049B0000020938707AE984B0DCB83C787009306E3
:1049C00060046389D702130740056385E70A0397EC
:1049D000E192039501932244239EE19EB2409244CA
:1049E000239FA19E41016F90C047B2402244924450
:1049F000410182809377D7FF8546638CD70091472A
:104A00006309F7002397019223980192014501471A
:104A1000D9B7B787012003A5474EB7040020EFD0D0
:104A2000404D0396819293160501B7850120C186FA
:104A30009385854213858419EF60104CB787012058
:104A40001384E1922310A40003A5474FEFD0604ADE
:104A50000396A19293160501B7850120C18693851F
:104A6000054513858419EF6030492398A1920317F7
:104A7000040095B7B787012003A5474E1384E19240
:104A8000EFD0204793160501B78501203705002098
:104A9000C18601469385854213058512EF60D04596
:104AA000B78701202310A40003A5474FEFD060442F
:104AB00093160501B785012037050020C186014600
:104AC000938505451305C513EF60104303170400D4
:104AD0002398A19209B7411126C29384219383D7C9
:104AE000040022C43774002037670100130404AEA9
:104AF00008408325070385072390F40006C6EFC00E
:104B0000A06A08C0EF8070401C480947FD17636821
:104B1000F70083468400930760046382F6062393BC
:104B200001920145239CA19EEF90A052039704009F
:104B3000A947B367F7029DC79307703E63C7E700B5
:104B4000B240224492444101828013052008EFB014
:104B5000DFCDB2402244239004002392019292447C
:104B600041018280839721812394F1922395F192D0
:104B7000EFF0FFCBEFF0FFE20397040075BF5C445A
:104B80006388E7000547E39CE7F80395619259BF06
:104B900083968193B78501203705002001469385D0
:104BA000453D13050515EF6030472393A1929DBF46
:104BB000828039715AD003A7419D06DE22DC26DAB5
:104BC0004AD84ED652D456D25ECE62CC66CA6AC895
:104BD0006EC685476309F71237740020D96C596C8B
:104BE000D96B130404AE93044005B76A0100376D16
:104BF0000100B76D0100A1A813864AFB814513058A
:104C00000008EFD09FA51C480D47638FE7080547B4
:104C10006387E7120947638EE712638807108347AB
:104C20005401638E970813864AFB894513050008D3
:104C3000EFD0BFA283A7C19D0547638EE708294532
:104C4000EFE03FE103A7419D8547630EF70A8945E1
:104C50001385C192EF00100F930700801386CCF7E5
:104C6000814541452394F180EFD03F9F13060CF915
:104C700085454145EFD07F9E13860BFA8945414516
:104C8000EFD0BF9D834744017D472394E180E395A6
:104C900097F613060DFB814513050008EFD0FF9B27
:104CA0001C480D47E395E7F613868DFB85451305F4
:104CB0000008EFD09F9A83475401E39697F61306B6
:104CC0000DFB894513050008EFD03F9983A7C19DCF
:104CD0000547E396E7F603C7C19223AE019C630B39
:104CE000F70851C38947E31CF7F409469305000808
:104CF0001305540109292945EFE0BFD503A7419DBC
:104D00008547E316F7F4F250625423AA019CD2546B
:104D10004259B259225A925A025BF24B624CD24C1F
:104D2000424DB24D054521618280B767010013866F
:104D300087FD854513050008EFD03F92CDB5B767D5
:104D40000100138607FC854513050008EFD0FF908E
:104D5000F9B5B76701001386C7FC85451305000840
:104D6000EFD0BF8F6DBD01469305000813054401C8
:104D7000592EF1B5D967054793060008114693856A
:104D800007FE13050401852D5DBD397122DC4AD86B
:104D90005AD006DE26DA4ED652D456D25ECE62CC39
:104DA00066CA6AC86EC6130730062E842A8B3289FB
:104DB000930730066363B700AE87930530069D8D79
:104DC000C20593071007C1815A8563F46701130573
:104DD0001007930DFBFF130CABFF931B1B00420549
:104DE0004A864181C20D420CC20BB30C6441EFD024
:104DF0000FF393DD0D01135C0C0193DB0B01229B80
:104E0000930A1007130A30069309300633849D0174
:104E1000931704014A86C1836E8D63F4BA01130DA2
:104E20001007420D135D0D016A856374FA001304C7
:104E300030063384894042044180A285EFD02FEEB2
:104E4000B384BB4193970401C1834A86A28563F46E
:104E5000FA0093041007C204C1802685EFD02FEC1E
:104E60003304BB4193170401C1834A866A85637486
:104E7000FA00130430063384894042044180A2853D
:104E8000FD1DEFD0CFE9C20D4A86A285268593DDB0
:104E90000D01EFD0CFE8E31BBCF7F2506254D254BF
:104EA0004259B259225A925A025BF24B624CD24C8E
:104EB000424DB24D2161828083A6019D411126C2DF
:104EC00006C622C44AC00547AA8403440500638E6F
:104ED000E60C83A6819E05476384E60A03A9419EEA
:104EE00085476305F90483A6819D6381F606FD4726
:104EF000238084002394F180931504019D47C18190
:104F000063F88706E11537660100C2051306862A95
:104F1000C1810145EFD06FF4B24022449307008075
:104F20002394F18092440249410182804165011538
:104F300023A2019EEFD06FDA1D469D451305000D9B
:104F4000EFD0AFF883A7819D639B270941650115C9
:104F500023AC019CEFD06FD89D4501461305000D91
:104F6000EFD0AFF623800400FD472394F180814504
:104F7000376601001306862A0145EFD00FEE69BFA0
:104F800023A4019E31C87D141374F40F13198401F6
:104F90001359894141650115EFD02FD44A869D45AB
:104FA0001305000DEFD06FF215BF23A8019C9D479C
:104FB0006306F40405041374F40F131984011359E0
:104FC000894141650115EFD04FD14A869D451305B2
:104FD000000DEFD08FEFF5BD1D491D4465BF9D4706
:104FE000376601002380F400FD479D451306862A9D
:104FF00001452394F180EFD04FE639BF01490144C8
:10500000C9B75D716AD003A7C19DA2C4A6C203142B
:1050100005002AC61305F08186C6CAC04EDE52DCE2
:1050200056DA5AD85ED662D466D26ECE85472394BD
:10503000A1806303F706939B060193DB0B01139C8E
:105040002B005E9C060CB30C8041C20C420C2E89D6
:10505000B289135C0C0193DC0C01854403A6819D8D
:10506000CE854A8583A6419E03A7819E83A7019D85
:1050700063039606638B9604631797005E9442045D
:10508000418423A4019E2286638F9704EFD0AFFA58
:1050900083A7C19DE39497FC930700802394F1803C
:1050A000B24723AE019CB640239087002644964425
:1050B0000649F259625AD25A425BB25B225C925C58
:1050C000025DF24D0545616182806694420441842F
:1050D00023A2019E55B76294420423AC019C4184F3
:1050E000E39C96F8DDB73304744142044184228680
:1050F000CE854A8523A8019CEFD0EFF383A7C19DFD
:10510000E39E97F451BF5D716AD086C6A2C4A6C261
:10511000CAC04EDE52DC56DA5AD85ED662D466D2A7
:105120006ECE03A7C19D834C05002AC69306F0816D
:1051300085472394D1806307F7082E8AB28A0544F5
:10514000376C0100130B4005B76B010003A6819D6E
:1051500083A7419E03A7819E83A6019D6306860CBB
:10516000638B8708630E870E6393861023A8019CC8
:10517000638E6C0313060CFBD6855285EFD0EFCD02
:1051800083A7C19D638F870803A6819D83A7419E46
:1051900003A7819E83A6019D630B860A638C870803
:1051A00063018706E39886FC23A8019C930C6004A6
:1051B00013864BFBD6855285EFD02FCA83A7C19D9E
:1051C000E39687F8930700802394F180B24723AEDB
:1051D000019C054523809701B64026449644064924
:1051E000F259625AD25A425BB25B225C925C025D17
:1051F000F24D6161828023A2019E638F6C03631173
:10520000870423A4019EE39386FA13060CFBD6853C
:10521000528523A8019CEFD04FC483A7C19DE3957D
:1052200087F6930C400579BF23AC019C63836C0324
:10523000E39787FC23A2019EE31787FC23A4019E2A
:10524000E39A86F223A8019C930C600495B723ACE3
:10525000019CE39387FE23A2019EE31387FE55B7CB
:1052600023A4019EE3816CFBE39686F0E1BFE3910A
:105270006CF509B75D716AD066D286C6A2C4A6C2B3
:10528000CAC04EDE52DC56DA5AD85ED662D46ECE32
:1052900003A7C19D834D05002AC61305F0818547EC
:1052A0002394A180630AF70A2E8AB28A0544930BDD
:1052B000C004376B01001DA06385850E6388870ECF
:1052C0006303871063807D051306CB62D685528504
:1052D000EFD0AFB883A7C19D6380870803A6819DE7
:1052E00083A5419E83A7819E03A7019DE31686FCAB
:1052F00023AC019C63827D0F638E850263878708E0
:10530000630E870AB767010013864762D685528508
:10531000EFD0AFB483A7C19D638C870C03A6819D9A
:1053200083A6419E83A7819E03A7019D630B860AE6
:10533000E39686FC23A2019E6389870463008708A5
:105340001306CB62D6855285EFD02FB183A7C19DBE
:10535000930D2005E39487F8930700802394F18050
:10536000B24723AE019C05452380B701B6402644D1
:1053700096440649F259625AD25A425BB25B225CA9
:10538000925C025DF24D6161828023A4019E6305FF
:105390008700930D40050DBF23A8019C930D600469
:1053A00025B723A2019EE39B7DF579B723A4019E37
:1053B00093074005E39DFDFCE31287FE23A8019CB3
:1053C000930D400511B723A8019C93074005E3877F
:1053D000FDFC930D4005CDBDE39085F623A2019E13
:1053E00031BF23AC019CE39986F423A2019E39B717
:1053F000930DC00495B7397162CC5AD05ECE06DEEB
:1054000022DC26DA4AD84ED652D456D266CA6AC8A8
:1054100003A8C19D834405002A8B1305F0818547AD
:105420002394A1806308F80C2E84B289368ABA8A44
:10543000854C03A7819E83A7019D25436303970F96
:1054400063979701FD1423A8019C93F4F40F93979D
:105450002400A697860763FC340D938817001388F1
:1054600027001385370093854700138657009386DE
:10547000670013877700138E870013839700A29726
:1054800022982295A2952296A2962297229E229356
:10549000A29883CE0700034F0800834F050083C204
:1054A00005008343060003C80600834703008346C4
:1054B000070083C8080003470E005000D6855285B8
:1054C000A306F1002302D101A30211012303E1018C
:1054D000A303F10123045100A3047100230501017A
:1054E000A305D1002306E100EFD02F9783A7C19D2C
:1054F000E39197F59307008023AE019C2394F180FC
:1055000023009B00F2506254D2544259B259225A9D
:10551000925A025BF24B624CD24C424D05452161DE
:105520008280850423A4019E93F4F40F11BF214EC1
:105530001D479946154691450D45094885488147BF
:10554000814435BF83A6019D011126CA4AC806CEF3
:1055500022CC4EC60547AA842E89034405006382E7
:10556000E60E83A6819E05476386E60883A6419ED4
:1055700005476388E60A83A6819D05476382E604A2
:10558000FD47238084002394F180931504019D47F7
:10559000C18163F98704E11537660100C20513066E
:1055A000862AC1810145EFD04F8BF24062449307B8
:1055B00000802394F180D2444249B249056182803F
:1055C0004165011523AC019CEFC03FF19D450146AB
:1055D0001305000DEFD06F8F23800400FD47239447
:1055E000F1808145376601001306862A0145EFD018
:1055F000CF8665BF23A4019E3DC87D141374F40FAC
:1056000041650115EFC07FED1316840161869D454C
:105610001305000DEFD06F8B83A6419E0547E39CD9
:10562000E6F44165011523A2019EEFC01FEB13169E
:10563000890161869D451305000DEFD00F894A84CD
:105640001DBF23A8019C6306B40205041374F40F64
:105650009319840193D9894141650115EFC0FFE792
:105660004E869D451305000DEFD02F86DDBD4A8483
:1056700041BF81490144CDB7411126C2C16422C452
:105680004AC006C60144938494E1130920074204EA
:105690004180228526869305F0040504EFC03FE88B
:1056A00093170401C183139407014184E39127FFF9
:1056B000C1640144938494E11309200742044180AA
:1056C000228526869305B0030504EFC05FE5931796
:1056D0000401C183139407014184E39127FFC1644E
:1056E0000144938494E113092007420441802285F8
:1056F0002686930570020504EFC07FE2931704012C
:10570000C183139407014184E39127FFC1640144DD
:10571000938494E113092007420441802285268660
:10572000CD450504EFC0BFDF93170401C183139477
:1057300007014184E39227FFC16413043006FD147E
:10574000A2857D1442047D46130530024180EFC0DE
:105750001FDDE31794FEC16413043006FD14A28517
:105760001306007E13058003EFC07FDBA2851306BE
:10577000007E13059003EFC09FDAA2857D144204DA
:105780001306007E1305A0034180EFC05FD9E31824
:1057900094FCC16413043006FD14A2857D144204F8
:1057A0007D461305F0044180EFC07FD7E31794FED8
:1057B00093040080130630029D452945239491806F
:1057C000EFC09FFD376601007D49130606289D4501
:1057D0001305100323942181EFC03FE81306F00462
:1057E0009D451305800523949180EFC0FFFA37662D
:1057F000010013064628954513058007239421814F
:10580000EFC0BFE5376601001306862891451305F2
:105810008007EFC09FE4376601001306C6288D4558
:1058200013058007EFC07FE33766010013060629E2
:10583000894513058007EFC05FE237660100130654
:105840004629854513058007EFC03FE13766010013
:1058500013068629814513058007EFC01FE0B2407B
:1058600023949180224492440249410182807971BB
:1058700022D44AD056CAC16A3769002026D24ECEF9
:1058800052CC5AC85EC662C406D6239101928147A3
:1058900093043006130A3006130989FA9309100796
:1058A000138BFA8103970199630AF72203972199D1
:1058B0006306F722139707014183BE8563F4E40072
:1058C000930530069387870F8607CA9703D547004D
:1058D000B305BA40C2057D1593170501C183C18187
:1058E00063F4F9001305100742055A864181EFC0A1
:1058F0001FC383972192139707014183BE8563F4E9
:10590000E400930530069387870F8607CA9703D56F
:105910004700B305BA40C205C18163F4A90013056D
:1059200010075A86EFC0BFBF8397219213970701D4
:105930004183BE8563F4E400930530069387870FA7
:105940008607CA9703D54700B305BA40C2050505C7
:1059500093170501C183C18163F4F9001305100792
:1059600042055A864181EFC09FBB839721921397CE
:1059700007014183BE8563F4E400930530069387F5
:10598000872E8607CA9703D5C700B305BA40C2055C
:105990007D1593170501C183C18163F4F9001305D7
:1059A000100742057D464181EFC07FB78397219262
:1059B000139707014183BE8563F4E4009305300625
:1059C0009387872E8607CA9703D5C700B305BA40C9
:1059D000C205C18163F4A900130510077D46EFC01D
:1059E0001FB483972192139707014183BE8563F407
:1059F000E400930530069387872E8607CA9703D560
:105A0000C700B305BA40C205050593170501C18358
:105A1000C18163F4F9001305100742057D464181F9
:105A2000EFC0FFAF83972192139707014183BE8593
:105A300063F4E400930530068607CA9703D5070090
:105A4000B305BA40C205C18163F4A900130510076C
:105A500013860A80EFC0BFAC83972192139707018A
:105A60004183BE8563F4E400930530068607CA9738
:105A700003D50700B305BA40C2057D15931705018C
:105A8000C183C18163F4F900130510074205138631
:105A90000A804181EFC0BFA8839721921397070125
:105AA0004183BE8563F4E400930530068607CA97F8
:105AB00003D50700B305BA40C205050593170501D4
:105AC000C183C18163F4F9001305100742051386F1
:105AD0000A804181EFC0BFA4839721928507C20746
