:100000006FB0D004130000001300000013000000C4
:100010001300000013000000130000001300000094
:100020001300000013000000130000001300000084
:08003000130000007300100032
:100038000000000000000000DCB30000E0B3000096
:100048000000000092B7000000000000000000005F
:1000580094B7000096B70000000000000000000000
:1000680098B70000000000009AB7000000000000E8
:100078009CB700009EB70000A0B70000A2B7000020
:10008800A4B70000A6B7000070B0000088B0000058
:10009800A2B00000BCB00000D6B00000B2B70000AB
:1000A800B4B70000B6B70000B8B70000BAB7000090
:1000B800BCB70000BEB70000C0B70000C2B7000060
:1000C800C4B70000C6B70000C8B70000F0B0000011
:1000D800CCB7000038B20000D0B70000D2B700009B
:1000E80066B2000084B20000B2B20000DAB70000C5
:1000F800DCB70000DEB70000E0B70000E2B70000A0
:10010800E4B70000B8AE0000EAAE00002CAF000073
:100118006EB10000EEB70000F0B70000F2B70000C3
:1001280062B30000F6B70000F8B70000FAB70000A5
:10013800FCB70000FEB70000E0B2000002B8000003
:100148005EAF000090AF00000EB3000030B30000B7
:100158000CB800000EB8000010B8000012B800007B
:1001680014B8000016B8000018B800001AB800004B
:100178001CB800001EB8000020B80000EACA000041
:1001880024B8000026B8000040B00000B6AF000058
:10019800E8AF00001EB0000030B8000090B30000C7
:1001A80034B8000036B8000038B80000BEB300000C
:1001B8003CB800003EB8000040B8000042B800005B
:1001C80044B8000046B8000048B800004AB800002B
:1001D8000000000000000000000000000000000017
:1001E8000000000000000000000000000000000007
:0801F8000000000000000000FF
:10020000737504308280B76200009382820873A005
:10021000023082803D432A876373C3029377F700DD
:10022000BDEFADE5937606FF3D8ABA960CC34CC38D
:100230000CC74CC74107E36BD7FE11E28280B306BF
:10024000C3408A069702000096966780A60023079F
:10025000B700A306B7002306B700A305B700230520
:10026000B700A304B7002304B700A303B700230318
:10027000B700A302B7002302B700A301B700230110
:10028000B700A300B7002300B700828093F5F50FF5
:1002900093968500D58D93960501D58D61B793967C
:1002A00027009702000096968682E78086FA96805D
:1002B000C1171D8F3E96E374C3F8A5B739CD054726
:1002C000630DE5040947630AE5040D476307E50488
:1002D00011476304E50415476301E5041947630EFC
:1002E000E5021D47630BE50221476302E50425474C
:1002F0006305E50429476308E5042D47630BE5041E
:1003000031476300E5023547630BE5043947630E67
:10031000E5043D476301E50682808146014681454B
:100320008DA38146014681451305200499AB814682
:100330000146814513050002A9A381460146814576
:10034000130510023DAB81460146814513050004AB
:100350000DAB814601468145130510041DA381465E
:10036000014681451305300429AB8146014681458C
:100370001305400439A38146014681451305500405
:1003800009A3411122C4372401404AC091460546C1
:100390002E899375F50F1305044006C626C2EFB0EB
:1003A000E076130504408545B7240140EFB0607442
:1003B0001384044089452285EFB0300165DD03A533
:1003C000C444B240224433552501420592440249B7
:1003D000418141018280797106D622D426D2F93D2D
:1003E000854513050020EFB0B06A01453724014070
:1003F000EFB0905513050440EFB06061B7070E00F1
:10040000130504408A853EC68547230AF10002C0D1
:1004100002C202C402C8EFB0A064130504408545BF
:10042000EFB0C069130504408145EFB0A07A130511
:100430000440B7240140EFB0806913840440228552
:10044000EFB080696DFD1385044037240140EFB0A3
:100450002069130404402285EFB020696DFDB2507D
:100460002254925445618280B7F700E023A0070030
:100470008146014794C7D8C7054798C337F700E0BE
:100480001047544763E6D500E39CB6FEE37AC5FE09
:10049000828009CDB7F700E023A00700814694C70A
:1004A0000147D8C7054798C301458280B7F700E0E8
:1004B0008847CC4741114946814606C6EFF0A00E59
:1004C000B2404101828079715EC662C466C2328CDC
:1004D000AE8CB68B014693068004814506D622D4A5
:1004E00026D24AD04ECE52CC56CA5AC8BE8A3A8B71
:1004F000428AC689834401030349410303448103BB
:100500004926668593068004014681459D2E6285B5
:100510009306800401468145AD265E8593068004DE
:1005200001468145B92E5A859306800401468145CE
:10053000892E568593068004014681459926528569
:1005400093068004014681452D2E4E859306800436
:10055000014681453D264A85930680040146814532
:100560000D2626859306800401468145192E228595
:100570002254B25092540259F249624AD24A424B32
:10058000B24B224C924C9306800401468145456152
:10059000CDAC011122CC26CA2E84AA8485450965DA
:1005A00006CE4AC84EC63289B689EFB0904CB7071E
:1005B000055003C70700130560058D451377F70C39
:1005C0002380E70003C70700136727042380E700A1
:1005D00003C717001377970FA380E7002392370113
:1005E0002393270184C7C0C703C717001377F703F6
:1005F000A380E70003C717001377F70FA380E70076
:1006000003C7170013670701A380E70003C727008C
:10061000136747002381E70003C71700136717001C
:10062000A380E70003C70700136717002380E700D4
:10063000EF30F02C6244F240D2444249B2491305F3
:10064000600505616F307028B7070020411193875E
:10065000070022C4AA9706C683C607005967130776
:1006600007A193172500BA971307F00F80436385FE
:10067000E6003685E12209C903554402B24022440E
:10068000420541854101828003554402B240224423
:100690003305A0404205418541018280D967938797
:1006A00007A10A053E951C41239207028280011191
:1006B00022CC2E84914506CE26CA4AC8AA84328905
:1006C000EF00F071B7650100130630089385C5810E
:1006D000EF30C0192685EF00707293068004014642
:1006E00081451375F40F712A8145930680040146F4
:1006F0001375F90F7922B707002093870700A69793
:10070000238087009355840085476388F504C54797
:100710006381F50C930710026385F50C93072002A3
:10072000638AF50893071003638CF50C9307100791
:100730006381F50C930710086386F5089307100989
:100740006385F50C930720096390F5023707014094
:100750005C4F93E707025CCF01A83705160085457B
:100760001305050CEFB0F01385450545EFB0503289
:100770004800EFC06003D967938707A18A04BE943D
:100780008040C167FD174C0022853EC402C223068B
:100790000100EFB09045228593050006EFC0800769
:1007A00022858545EFC0C001F2406244D2444249EF
:1007B0000561828037151A00854513050580EFB065
:1007C000500E5DB7370701405C4F93E707015CCFE0
:1007D00061BF37051800854513050530EFB0700C73
:1007E00061B737151A008545130505C0EFB0700BCA
:1007F000A5BF370701405C4F93E747005CCFADB71B
:1008000085450565EFB0F00985B7370701405C4FB6
:1008100093E707045CCF89BF9357550013972700D0
:10082000D96793874789BA973D8998438547339518
:10083000A70099C108CB828048CB8280135735002E
:100840009376C70159671307478936971843854739
:100850003395A7001C477D8D3335A00082809357C8
:10086000350013F7C701D96793874789BA9798432B
:100870009377F500054554473315F500358D48C786
:1008800082809307F00F6307F50C797122D413541B
:10089000550026D24AD04ECE52CC06D61D8893742F
:1008A000F5003689B2892E8A0DC885476305F40A9A
:1008B00089476307F40A8D476309F40A9147630C7B
:1008C000F40A9547630FF40A9947631CF4008545C1
:1008D00013050010EFB0D01B29A085451145EFB0DE
:1008E000301B0547B3149700C204D9679387478923
:1008F000C1800A043E94231291009377F90F0040BF
:10090000630FEA004C0022853EC6EFB0C030B25003
:10091000225492540259F249624A45618280420946
:100920001359090113598900631309000D494C003B
:1009300022854AC43EC6EFB0002E4E86A68522858B
:10094000EFB08075B250225492540259F249624A73
:1009500045618280828085452145EFB0701351B793
:1009600085454145EFB0D012ADBF85451305000266
:10097000EFB01012BDB7854513050004EFB050115C
:100980008DB7854513050008EFB0901099BFD56766
:100990009387477F03AF070083AE470003AE87000E
:1009A00003A3C70083A8070103A84701D44F9853A6
:1009B000904FDC531D71A6CAAE84854586CE7ACC95
:1009C00076CE72D01AD246D442D636DA3ADCA2CCEF
:1009D000CAC8CEC6D2C43EDE2A843769010032D8E6
:1009E000EF00F03F9305898A13065002EF2010684C
:1009F000130660029305898A33359000EF20106753
:100A00002285EF00B03F13DAF40093170A01C18387
:100A10008507B3D4F402D96793192400938707A1FB
:100A2000CE9703A907006C00231641014A852319BC
:100A3000010023170100230A01001374F40F0A04B4
:100A400023189100EFB0701A05464A858545EFB02E
:100A5000D05A4A858545EFB0B06A9C003E94032584
:100A600084FD8D45EF30A0699C00BE9903A589FDEA
:100A7000EF30A0654A858545EFB09054F640664456
:100A8000D6444649B649264A25618280630305203B
:100A90008547630CF52089476303F5208D47630C78
:100AA000F520C147630FF520C5476303F522C94709
:100AB0006307F522CD476301F52493070010630413
:100AC000F524930710106306F5249307201063089C
:100AD000F52493073010630AF52493070011630788
:100AE000F520930710116308F52493072011630B79
:100AF000F52493073011630EF5249307002063015A
:100B0000F526930710206303F5269307202063053D
:100B1000F526930730206308F52693070021630B21
:100B2000F52693071021630EF52693072021630114
:100B3000F528930730216304F52893070022630703
:100B4000F52893071022630AF52893070030630DF8
:100B5000F528930710306300F52A930720306303CC
:100B6000F52A930730306304F52C930700316309AD
:100B7000F52A93071031630EF52893072031630F90
:100B8000F52A930730316302F52C93070040630C7C
:100B9000F51693071040630EF51693072040630087
:100BA000F518930730406302F5189307007063034C
:100BB000F51E930710706306F51E930720706309F6
:100BC000F51E93073070630CF51E93070071630DDB
:100BD000F520930710716300F522930720716303DA
:100BE000F522930730716300F52893070580638829
:100BF00007128567138717806309E512138727801B
:100C00006301E528938737806306F5268567138798
:100C10000781630FE52C138717816304E52C138785
:100C200027816308E51E138737816300E522138758
:100C300007906309E51C13871790630AE51E138765
:100C400027906309E52813873790630EE5261387FD
:100C500007916303E526938717916308F524856759
:100C600013872791630CE522138737916301E522EF
:100C7000138707926301E50C138717926308E51445
:100C800013872792630BE514938737926306F51C4D
:100C9000828093068031014685452145DDB6930665
:100CA0008031014685452945E9BE930680310146DC
:100CB00085452545F9B693068031014685452D4584
:100CC000C9B693068031014685451305900855BE87
:100CD00093068031014685451305B0085DB693063D
:100CE0008031014685451305D00861BE93068031E9
:100CF000014685453D4571B69306803101468545DF
:100D00001305E008BDBE93068031014685450145C7
:100D10008DBE930680310146854505459DB69306F7
:100D20008031014685450945A9BE930680310146BB
:100D300085450D45B9B693068031014685451305B5
:100D4000300281B693068031014685451305A00225
:100D50000DBE93068031014685451305B00215B6D8
:100D60009306803101468545194521BE93068031A1
:100D7000014685451D4531B69306803101468545BE
:100D800013050002FDBC930680310146854513051D
:100D90001002C5BC930680310146854513056004E9
:100DA000CDB4930680310146854513057004D1BC4E
:100DB000930680310146854513058004D9B4930616
:100DC0008031014685451305900465BC930680314A
:100DD00001468545130540026DB4930680310146F6
:100DE00085451305500271BC930680310146854547
:100DF0001305600279B493068031014685451305D9
:100E0000700241B493068031014685451305800286
:100E10008DBC93068031014685451305D00695B4F7
:100E200093068031014685451305C00699BC93069B
:100E300080310146854513059002A1B493068031A7
:100E4000014685451305E0062DBC93068031014619
:100E500085451305F00635B4930680310146854576
:100E60001305F00439BC930680310146854513050E
:100E7000D00401BC9306803101468545130540042A
:100E800009B493068031014685451145DDBA9306C4
:100E900080310146854513057006E5B29306803121
:100EA0000146854513055006E9BA9306803101468F
:100EB000854513053006F1B293068031014685451C
:100EC000130510067DBA930680310146854513054A
:100ED000B00445BA930680310146854513053004B8
:100EE0004DB293068031014685451305B00651BACF
:100EF00093068031014685451305900659B29357F4
:100F000085005967130707A18A07BA979443130707
:100F1000001183D7C602B385F5026300E50463625E
:100F2000E502930705CF0D47636DF7009307803EF9
:100F30000D890A053695B3D5F502C205C1814CD994
:100F40008280896793870771B3D5F5020D890A05F9
:100F50003695C205C1814CD98280E1679387076AC3
:100F6000B3D5F5020D890A053695C205C1814CD964
:100F70008280397126DA9354850022DC52D42A8487
:100F80002E8A26858D4506DE4AD84ED63289812D99
:100F9000B76501001306900B9385C591EF20100DE6
:100FA0002685A92D2285DD3485450545EFB0402EE7
:100FB0009357440005476388E7044547638DE71A64
:100FC00013071002638FE71C130720026382E712E6
:100FD000130710036386E71E13071007638BE71CD4
:100FE00013071008638FE71413071009638FE71CBA
:100FF000130720096395E710370701405C4F93E71B
:1010000007025CCFEDA83705160085451305050CD2
:10101000EFB0200983A58181896993890971B3D7CC
:101020004503C18393861700B386460313970701D0
:101030004183B3D5D50293970501C1833389270333
:10104000BE85D967938707A18A04BE94844093879D
:10105000F5FF4C0026852314F1002312E10023152F
:1010600001002313010023060100EFB000383359BB
:101070003903C167938707073EC8B707020089078E
:10108000231A01003ECC02CE0D88231B210121C46E
:101090008547630AF40E89470C0826856302F40C21
:1010A000EFB0A066A1452685EFB0A07C9305004077
:1010B0002685EFB0900126858545EFB060722685C4
:1010C0008545EFB0E06FF2506254D2544259B259A4
:1010D000225A216182800C082685EFB0603E268569
:1010E000A145EFB0207591452685EFB0207AE1B794
:1010F00037151A00854513050580EFA0907A83A562
:10110000818113060011B3D74503C183938617006D
:10111000B3864603139707014183B3D5D50293974E
:101120000501C183BE85338927036303C402636558
:10113000C402930704CF8D4663E0F6029309803E14
:1011400009B7370701405C4F93E707015CCF45BF04
:10115000E1699389096AF5B5896993890971D5B5FA
:10116000EFB0A04D2685A145EFB0806F9145268553
:10117000EFB0807489B73705180085451305053031
:10118000EFA03072ADBF0C082685EFB0E03D26859C
:10119000A145EFB0406B930500402685EFB020706D
:1011A00019BF37151A008545130505C0EFA0706FEC
:1011B000B9B7370701405C4F93E747005CCF81B771
:1011C00085450565EFA0F06D1DBF370701405C4FF9
:1011D00093E707045CCF25B7411122C426C24AC059
:1011E00006C6AE843284368955C5C1476302F51000
:1011F000930700026301F51293070003630AF50EDB
:1012000093070004630DF514B765010013069002FF
:10121000938505990145EF20606589476386F40849
:10122000C9476385F40A930720026388F410930783
:101230002003638DF408930720046387F40EB765D9
:10124000010013060003938505990145EF20006214
:1012500085476305F406C5476303F4089307100246
:101260006306F40E930710046304F410930710034D
:101270006307F4069307F00F6315F4082244B240A5
:1012800092444A8502499306003101468545410151
:101290006FF02FDF93068031054685451545EFF049
:1012A0004FDE8947E39EF4F6930680310546854577
:1012B0001D45EFF00FDD8547E31FF4F8930640303E
:1012C000054681451945EFF0CFDB4DBF93068031D0
:1012D0000546854513055002EFF0AFDA95BF93063A
:1012E00040300546814513054002EFF08FD979B7AC
:1012F000930680310546854513053002EFF06FD81F
:1013000029BFB76501001306800393850599014540
:10131000EF20C055A5B793068031054685451305D6
:10132000D002EFF00FD6D5BD930680310546854536
:101330001305C004EFF0EFD421BF930680310546BA
:1013400085451305F002EFF0CFD319B7930640306F
:10135000054681451305E002EFF0AFD205B79306CD
:101360008031054685451305A004EFF08FD175B592
:1013700093064030054681451305B004EFF06FD069
:10138000F5BD5D7193182500CAC02A8959651305FA
:1013900045A046954EDE8329050086C6A2C44E852B
:1013A000A6C252DC56DA5AD85ED63E8BAE84B28BD9
:1013B000368ABA8A4284EFA0307585450545EFA08C
:1013C000306DC1476309FA0E930700046316FA00F3
:1013D000930720046385FA16630B090E85476301A2
:1013E000F91889476309F916A2865A86D685528567
:1013F000E533B70704013EC6231801008547638023
:10140000F40E638C04100947638AE40E8D466385ED
:10141000D40803A4C18F9307F00F3354740342041C
:10142000418063F2870413048003930700206C005B
:101430004E85231BF1009D47231C8100231EF100D4
:10144000231D0100EFA070724E858545EFA0D07777
:10145000B640264496440649F259625AD25A425B33
:10146000B25B616182809307F00763E787069307A9
:10147000F00363E3870CFD4763E9870EBD4763E92B
:10148000870E9D4763E8870E8D4763E7870E854784
:1014900063F6870E014451BF231AF10003A4C18FE4
:1014A0002319E1009307F00F335474034204418081
:1014B000E3EB87F64DBFC947E390FAF2C547E31D5A
:1014C000FBF085450545EFA0D03DE31909F08545C2
:1014D0000565EFA0F05B09BF13040003B9B703A4CF
:1014E000C18F23190100231A910033547403930709
:1014F000F00F42044180E3E887F2B5B703A4C18F3F
:1015000023199100231A0100335474039307F00F39
:1015100042044180E3E987F0B9B703A4C18F2319DE
:101520000100231A0100335474039307F00F42049F
:101530004180E3EA87EE05BF13048002FDB59307FF
:101540001004E31BFBE83715200085451305051043
:10155000EFA0303551B585452165EFA0505569B5EF
:1015600085451165EFA0B05441B51304000275BD67
:10157000614465BD414455BD214445BDB765010089
:101580001306D008938505990145EF20202E71BDE3
:10159000D9670A05938747A0AA9798432316B700EF
:1015A0008357870093F70708E5FF8280D9670A050C
:1015B000938747A0AA97984393D785002316F700EF
:1015C0008357870093F70708E5FF93F5F50F231678
:1015D000B7008357870093F70708E5FF82809317CA
:1015E00025001385419E3E951C4181E70CC10545B0
:1015F00082803385B74013351500828021C10547AD
:10160000630BE50209476308E5020D47630EE50237
:101610001147630FE50215476300E50419476301AD
:10162000E5041D476303E50421476304E5042547FA
:101630006306E504828085456FA070470565854592
:10164000130505806FA0D044854511456FA0304635
:10165000854521456FA0B045854541456FA0304582
:101660008545130500026FA09044854509656FA06C
:1016700030428545370508006FA090418545370504
:1016800010006FA0F040411122C406C62E8441C94B
:101690008947630BF516C147630BF512C947630A07
:1016A000F51A930700026305F51C93072002630AED
:1016B000F51893074002630CF51C930700046302BE
:1016C000F518930720046302F520930700056305CE
:1016D000F522930720056300F5249377D5FF1307C0
:1016E00000066383E720930700076301F51C930757
:1016F0002007630EF524930740076308F526930738
:1017000000086303F528930720086310F502E146FB
:10171000014685451305E008EFF0AF9639A0E14694
:10172000014685452545EFF0CF9585476307F408C9
:101730008D476300F40CC5476300F40ECD47630783
:10174000F40E93071002630EF41093073002630740
:10175000F408930750026305F41293071004630F13
:10176000F40693073004630BF41493071005630623
:10177000F416930730056309F41893071006630401
:10178000F41A930730066307F41A930710076308E7
:10179000F410930730076306F41A93075007630F9A
:1017A000F41A93071008630AF41C930730086305C2
:1017B000F41EB24022444101828093068004014617
:1017C000814529452244B24041016FF08F8BE146AB
:1017D000014685450945EFF0CF8A81BF2244B240DA
:1017E00093068004014681451305B00441016FF062
:1017F0004F892244B2409306800401468145130577
:10180000700241016FF0EF87E146014685451305FF
:101810006002EFF00F8711BF2244B24093068004AC
:10182000014681450D4541016FF0AF852244B2402C
:1018300093068004014681451305600641016FF05F
:101840004F84E146014685451305A004EFF06F8300
:10185000E9BDE1460146854513055006EFF06F826C
:10186000E9B593068004014681451305B00299BF8E
:10187000E146014685451305A002EFF08F8075B55E
:1018800093068004014681451305900625BFE14675
:101890000146854513058006EFE0BFFE79B5930646
:1018A0008004014681451305300429BFE146014605
:1018B000854513052004EFE0DFFC85BD9306800419
:1018C0000146814513051002F5BDE14601468545F7
:1018D00013050002EFE0FFFA89BD9306800401467C
:1018E000814513052006F9BDE146014685451305EE
:1018F0000004EFE01FF915BDE146014685451305DB
:10190000C004EFE01FF815B5930680040146814539
:101910001305900845BDE14601468545130580083D
:10192000EFE03FF619B593068004014681451305A3
:10193000100449BD93068004014681451305B00893
:1019400051B593068004014681451D45A5BDE1467C
:10195000014685451945EFE0DFF2C1BB93068004DF
:10196000014681451305D008B1BDE14601468545D4
:101970001305C008EFE0FFF04DBB9306800401465D
:101980008145130550043DBDE146014685451305DB
:101990004004EFE01FEF51BB9306800401468145F0
:1019A0001305F00805B51DC6D9670A05938787A3F7
:1019B000AA9798432E96850583C6F5FF835707009F
:1019C00093F70708E5DF93970601C1832312F70019
:1019D000E393C5FE8280D96713172500938787A3F9
:1019E0004111BA9726C2AA84884322C42E862E8427
:1019F0009305505206C6EFB0400413850183269527
:101A000003450500B7E700E0AA972380074019C403
:101A10002244B240924441016F20206B2244B240E4
:101A2000924441016F20006CD9670A05938787A310
:101A3000AA9798438357070093F7070299E3014554
:101A400082808357470005452380F50082807971A5
:101A500022D44ECE2A84AE890545854506D626D2A7
:101A60004AD0B2843689EFA0B002CA8526852139D2
:101A70008947638DF414C9476382F40693072002F3
:101A80006386F40A93074002638DF40A93072004E7
:101A90006385F40C93072005639AF40C93073005D3
:101AA000630CF91821C48547630AF4148947630D50
:101AB000F4148D476300F41691476303F4169547B9
:101AC0006306F41699476300F4189D476314F40203
:101AD000854513050010EFA0807D29A8CD47E313AD
:101AE000F9FC85452145EFA0C05B55FC8545116596
:101AF000EFA0007AD967938787A30A043E94004039
:101B00008A85B7070C0022854EC03EC4231601000B
:101B100002C2EFA0D05F22858545EFA01070B250C1
:101B2000225492540259F24945618280930730024F
:101B3000E31AF9F63705140085454105EFA0605614
:101B400095B793075002E31FF9F437051400854554
:101B500013050503EFA0E054B1B793073004E31376
:101B6000F9F485450565EFA0C0532DBF9307200606
:101B7000639EF40093073006E316F9F237150080F0
:101B8000854513050580EFA0C05129BF93072007A5
:101B9000639EF40093073007E316F9F0370701401E
:101BA0005C4FB7064000D58F5CCFEDBD9307400773
:101BB0006396F40293075007E316F9EE37070140E6
:101BC0005C4FB7068000D58F5CCFE9BD8D47E31B26
:101BD000F9EC85451145EFA0C04CE9B59307200805
:101BE000E392F4EC93073008E31EF9EA370701406B
:101BF0005C4FB7060002D58F5CCF6DB585453705C4
:101C00000200EFA0C06AFDB5854537050400EFA0CE
:101C1000006ACDB5854537050800EFA04069D9BDFC
:101C2000854537051000EFA08068E9B585451305A7
:101C30000004EFA0C0677DBD370520008545050580
:101C4000EFA0204685B5854513050008EFA0206666
:101C500055B5011122CC9385D18C054506CE26CAF7
:101C60004AC84EC6D13305469385D18C1385C1A28F
:101C7000EF10D0481384818C184085476309F70022
:101C8000F2406244D2444249B249056182801389DC
:101C9000C18C834509009389C1A093F5F50F938703
:101CA000150093F7F70F81461386818CCE95138527
:101CB000C1A22300F900EF101050834709000D471F
:101CC000E370F7FC83450900376501001146F11503
:101CD000CE95130585A5EF1021565DF189471CC0EF
:101CE00045B7011122CC9385518D194506CE26CAE0
:101CF0004AC84EC6153B05469385518D138501A6EE
:101D0000EF10D03F1384018D184085476309F70019
:101D1000F2406244D2444249B2490561828013894B
:101D2000418D83450900938901A493F5F50F9387AD
:101D3000150093F7F70F81461386018DCE95138515
:101D400001A62300F900EF101047834709000D4753
:101D5000E370F7FC83450900376501001146F11572
:101D6000CE95130585A5EF10214D5DF189471CC067
:101D700045B783A7018F09476388E7000D4763884C
:101D8000E70011476383E70082806F10807D6F104A
:101D9000005483A7018F11476386E7000D476385D1
:101DA000E70082806F1030026F10A05801115AC0F6
:101DB00006CE22CC26CA4AC84EC652C456C2138B7F
:101DC000A18083470B00376401002E8AB2849305FB
:101DD00004A6130620052A893335F500B689938AAF
:101DE000B180EF10B02803C50A00930504A61306BE
:101DF00030053335AA00EF10702703450B0093051B
:101E000004A61306400533B5A400EF10302603C521
:101E10000A00930504A61306500533B5A900EF1078
:101E2000F02483A7418059670324078AF1C7054737
:101E3000638CE718C14A232854011309890293844B
:101E40008402130B0008232A54014209C2040947E3
:101E5000232A640113590901C1809305A002054595
:101E60006389E710EFF0CFF223286401232854019F
:101E70000545CA85232A5401EFF04FF3A685054591
:101E8000EFF0CFF223285401232A54019305B00226
:101E90000545232A6401EFF0AFEF93054A03232899
:101EA000640123285401C205C1810545232A540138
:101EB000EFF0CFEF93854903C205C1810545EFF0EF
:101EC000EFEE23285401232A5401232A64019305A9
:101ED000C0020545EFF0CFEB23286401232854010D
:101EE000232A5401F2406244D2444249B249224A70
:101EF000924A024B05618280C14A23285401130B88
:101F00000008232A54019305A0020545232A6401F1
:101F1000EFF00FE8930549032328640123285401B7
:101F2000C205C1810545232A5401EFF02FE89385AE
:101F30004403C205C1810545EFF04FE72328540152
:101F4000232A54019305B0020545232A6401EFF0CA
:101F50002FE493058A022328640123285401C20533
:101F6000C1810545232A5401EFF04FE4938589028E
:101F7000A1B7EFF0EFE123286401232854010545C0
:101F8000CA85232A5401EFF06FE2A6850545EFF0DC
:101F9000EFE123285401232A54019305B00205459B
:101FA000232A6401EFF0CFDE93055A03232864014E
:101FB00023285401C205C1810545232A5401EFF0AD
:101FC000EFDE93855903CDBDC14A23285401130B7D
:101FD0000008232A54019305A0020545232A640121
:101FE000EFF00FDB930559032328640123285401E4
:101FF000C205C1810545232A5401EFF02FDB9385EB
:10200000540305BF797122D4376401001306B00868
:10201000930504A6054506D64AD04ECE26D252CC0C
:1020200056CA5AC85EC662C466C2EF1030041306B0
:10203000C008930504A60545EF10500303A6C18F01
:102040009307F00F130720021308F00F9306000206
:10205000058281450545EFF0CFB2C1460146854571
:1020600013057006EFE0FF81C14601468545130563
:102070007002EFE01F81C146014685451305400609
:10208000EFE03F80C1460546854513050006EFE0B9
:102090004FFF1389418003270900854763FDE7420D
:1020A000930670081307000F83A7C18F8964938478
:1020B00004F4B3D797021305800C596413044489C0
:1020C000832C4400930B00088145138AB180938AC6
:1020D000A18023AA7C012300DA002380EA00130CEC
:1020E0004006414B3385A702EFE00FB803A5C18F2F
:1020F000814523A87C013355950233058503EFE024
:10210000AFB6404493056003054523286401232AA4
:102110006401232A7401EFF0AFC703A5C18F232800
:1021200074012328640133559502232A64018145F3
:1021300033058503EFE04FB3832709006382073A35
:102140000547638AE73A09476381E73A9305000A3E
:102150000545EFF0EFC3C14404C81309000844C8A3
:10216000232A24019305A0030545EFF06FC223281D
:10217000240104C89545054544C8EFF06FC104C863
:1021800044C8232A24019305200B0545EFF04FC0D6
:102190002328240104C8B145054544C8EFF04FBFCA
:1021A000B1450545EFF0CFBE81450545EFF04FBE87
:1021B000930530030545EFF0AFBD930530030545AA
:1021C000EFF00FBD04C844C8232A24019305700B07
:1021D0000545EFF0EFBB2328240104C89305500305
:1021E000054544C8EFF0CFBA04C844C8232A2401E7
:1021F0009305B00B0545EFF0AFB92328240104C8BF
:1022000093057003054544C8EFF08FB804C844C86F
:10221000232A24019305000C0545EFF06FB723280E
:10222000240104C89305C002054544C8EFF04FB629
:1022300004C844C8232A24019305200C0545EFF067
:102240002FB52328240104C88545054544C8EFF06F
:102250002FB404C844C8232A24019305300C054533
:10226000EFF00FB32328240104C8C945054544C82D
:10227000EFF00FB204C844C8232A24019305400C90
:102280000545EFF0EFB02328240104C893050002B0
:10229000054544C8EFF0CFAF04C844C8232A240141
:1022A0009305600C0545EFF0AFAE2328240104C868
:1022B000BD45054544C8EFF0AFAD04C844C8232A66
:1022C00024019305000D0545EFF08FAC2328240170
:1022D00004C89305400A054544C8EFF06FAB930569
:1022E000100A0545EFF0CFAA04C844C8232A2401E8
:1022F0009305000E0545EFF0AFA92328240104C87B
:102300009305000D054544C8EFF08FA8914505459C
:10231000EFF00FA8B5450545EFF08FA7C54505457A
:10232000EFF00FA7CD450545EFF08FA69305B0025E
:102330000545EFF0EFA59305F0030545EFF04FA538
:10234000930540050545EFF0AFA49305C00405458E
:10235000EFF00FA4E1450545EFF08FA3B545054526
:10236000EFF00FA3AD450545EFF08FA2FD45054504
:10237000EFF00FA2930530020545EFF06FA104C8FE
:1023800044C8232A24019305100E0545EFF04FA001
:102390002328240104C89305000D054544C8EFF027
:1023A0002F9F91450545EFF0AF9EB1450545EFF0F4
:1023B0002F9EC5450545EFF0AF9DCD450545EFF096
:1023C0002F9D9305C0020545EFF08F9C9305F00308
:1023D0000545EFF0EF9B930540040545EFF04F9B5B
:1023E000930510050545EFF0AF9A9305F0020545FA
:1023F000EFF00F9AFD450545EFF08F99FD45054536
:10240000EFF00F99930500020545EFF06F989305E3
:1024100030020545EFF0CF9704C844C8232A2401B1
:10242000930510020545EFF0AF962328240104C858
:1024300044C804C844C8232A2401C5450545EFF013
:102440002F9503A5C18F8967938707F43355F5024C
:102450002328240104C8814544C8931745003385C7
:10246000A7400E05EFE04F8004C844C8232A24018A
:10247000930590020545EFF0AF9103C60A0083462D
:102480000A002328240104C83309D602FD167D164C
:10249000C206420644C8B7070020C1824182814576
:1024A000014503D40741EFF07F90630909007D19CE
:1024B000A2850545EFF08F8FE31B09FEB250225431
:1024C00092540259F249624AD24A424BB24B224CD0
:1024D000924C456182809306000F13077008E9B69D
:1024E00081450545EFF0CF8ABDB19305000705454D
:1024F000EFF00F8A8DB19305000C0545EFF04F8981
:1025000099B9411122C403C4A18083C6B1801306C6
:10251000F4FF42063304D402FD16C20626C2C1826D
:10252000AA8441828145014506C6EFF03F8819C45F
:102530007D14A6850545EFF06F877DF8B2402244F3
:1025400092444101828083C7A18001114AC8376942
:10255000010022CC26CA4EC6AE842A84B2899305D5
:1025600009A63335F5001306F01206CEEF10003041
:1025700003C5B180930509A61306001333B5A40063
:10258000EF10C02EA6852285A6862286EFF01F8238
:102590006244F240D2444249CE85B24905450561C4
:1025A0006FF0CF8083C7A18079714AD0376901006D
:1025B00026D256CA62C4AE8A2A8C930509A6333540
:1025C000F500B2841306001406D64ECE52CC5AC87B
:1025D0005EC622D4EF10802903C5B180930509A6F9
:1025E0001306101433B5AA00EF104028938704FE99
:1025F000596792071307C7B73389E700920A930B0D
:102600007C00B38A2A414107C20BC20A93DB0B014B
:10261000330BF70093DA0A01370A0020B3862A0148
:10262000C206C1825E86B6856285EFF02FF821442E
:102630008344090011A883D581807D141374F40F9D
:10264000EFE0DFF6858019CC93F714000545E5F738
:1026500083550A417D1405451374F40FEFE01FF50F
:1026600085807DF00509E31B69FBB250225492542A
:102670000259F249624AD24A424BB24B224C45615E
:10268000828083C7A180011126CAB764010022CCD1
:102690004AC84EC62E89B289938504A61306F01542
:1026A0002A843335F50006CEEF10401C03C5B180F7
:1026B00013060016938504A63335A900EF10001BFE
:1026C0000386090005C2814485042285CA85C204A7
:1026D000D13DC180B38799000386070021044204DD
:1026E00041807DF2F2406244D2444249B2490561E0
:1026F000828083C7A180797122D4376401004AD0D7
:102700004ECE52CC32892E8A13064017930504A66A
:10271000AA893335F50006D626D2EF10201503C559
:10272000B18013065017930504A63335AA00EF10A5
:10273000E013634B090613060002D2854E85EFF0C5
:102740007FE62947B347E9029306400613848900D0
:10275000938909024204C2096400418093D90901A6
:10276000B346D902B3E7E7022306D1003369E90291
:10277000A306F1002307210103C6040022852104DA
:102780001306060362064204D28561864180EFF09B
:102790007FE18504E39289FEB2502254925402599B
:1027A000F249624A45618280330920411306D00212
:1027B000D2854E856209EFF0FFDE1359894151B78A
:1027C00083C7A180797126D2B764010022D44AD090
:1027D00052CC32892A842E8A3335F500938504A69B
:1027E0001306601906D64ECEEF10400803C5B1801F
:1027F000938504A6130670193335AA00EF1000075D
:102800002947B357E9029306400693098401C20998
:10281000640093D90901B356D902B3F7E70223063E
:10282000D1003379E902A306F1002307210103C691
:102830000400228521041306060362064204D285A1
:1028400061864180EFF01FD68504E39289FEB25085
:10285000225492540259F249624A4561828083C7E8
:10286000A180797126D2B764010022D44AD04ECE1D
:102870003289AE891306201B938504A62A8433353A
:10288000F50006D652CCEF00707E03C5B18013066A
:10289000301B938504A633B5A900EF00307D634853
:1028A000090813060002CE852285EFF0BFCF9306FC
:1028B000803EB346D902A9471307400609661306AE
:1028C00006712104420424004180130AD1003347D9
:1028D000E902B345F902B3E6F6023346C902A3049E
:1028E000D1003367F7022304C100B3E6F5022305E4
:1028F000E1003369F902A305D1002306210103C6D3
:10290000040022852104130606036206CE85618633
:1029100042048504EFF01FC94180E3129AFEB250D1
:10292000225492540259F249624A45618280330925
:1029300020411306D002CE8522854209EFF09FC6C2
:1029400013590941ADB783C7A180797126D2B76405
:10295000010022D44AD04ECE3289AE891306701DB2
:10296000938504A62A843335F50006D652CCEF00B1
:10297000F06F03C5B180938504A61306801D33B59F
:10298000A900EF00B06E9306803EB356D902A94766
:10299000130740060966130606712400130AD100C6
:1029A0003357E902B355F902B3F6F6023356C902BA
:1029B000A304D1003377F7022304C100B3F6F50274
:1029C0002305E1003379F902A305D1002306210193
:1029D00003C6040022852104130606036206CE8581
:1029E000618642048504EFF0FFBB4180E39244FF1F
:1029F000B250225492540259F249624A456182808F
:102A00001D71D6C2938AA18083C70A00D2C4376AD7
:102A10000100A2CCCAC8DAC05EDE2E892A849305E2
:102A20000AA63335F500B28B1306701F86CEA6CAF0
:102A3000CEC6138BB180B689EF00506303450B00FF
:102A40001306801F93050AA63335A900EF00106214
:102A5000A947A94463E4370193F4F90F938914005B
:102A6000B765010093F9F90F5E869385C5AD63C024
:102A70000B0A930700021305D1002306F100EF10A3
:102A8000400105051375F50F637D35013386A440BC
:102A90001376F60F7C000506930500023E95EFD0F5
:102AA0006FF703C50A001C18BE991306F0159305AD
:102AB0000AA63335A400238E09FCEF00305B0345E2
:102AC0000B001306001693050AA63335A900EF0084
:102AD000F0590306C100814405C22285CA858504D8
:102AE000EFF05FACC204C1801C18A6970386C7FD37
:102AF00021044204418075F2F6406644D6444649BA
:102B0000B649264A964A064BF25B256182806800E8
:102B1000EF0030781375F50F85BF1D71DAC0138B88
:102B2000A18003480B00A6CAB7640100A2CCCAC8A2
:102B3000D2C4D6C22E8A2A84938504A633350501D1
:102B400032891306102286CECEC65EDE62DCBE8BD4
:102B500066DAB689BA8C938AB180EF00305103C52A
:102B60000A0013062022938504A63335AA00EF003D
:102B7000F04F9947194C63E4770113FCFB0FA94709
:102B800093FBFC0F63F39701A94B01468146CE8569
:102B90004A85EFD0903AB76501004A86CE86938584
:102BA00085AD634D050E1305D100EF00906E130740
:102BB000A5FF1377F70F93CBFBFFBA9B050C62972A
:102BC00093FBFB0F1377F70F139C8B01931C87016B
:102BD000135C8C4193DC8C41635C0C0233077741BE
:102BE00062076187E687130600021418BE96850700
:102BF000E207238EC6FCE187E399E7FEB38C7C41B4
:102C0000330C7C41E20C620C93DC8C41135C8C41F4
:102C1000014681464A85CE85EFD03032634A050AA7
:102C20001C183E9C93070002230EFCFC03450B007E
:102C30001C18938504A6BE9C1306F0153335A4001A
:102C4000238E0CFCEF00904203C50A001306001609
:102C5000938504A63335AA00EF0050410306C10056
:102C6000814405C22285D2858504EFF0BF93C2045A
:102C7000C1801C18A6970386C7FD21044204418029
:102C800075F2F6406644D6444649B649264A964A05
:102C9000064BF25B625CD25C256182806800EF00CB
:102CA000505F130795FF1377F70F93CBFBFFBA9B8A
:102CB000050C629793FBFB0F1377F70F139C8B01A7
:102CC000931C8701135C8C4193DC8C41E3480CF02E
:102CD0001C183E9C9307D002230EFCFC81BF03C34B
:102CE000A180397152D4376A010022DC4ED662CC01
:102CF000AE892A8493050AA633356500328C130603
:102D0000802706DE26DA4AD85AD05ECE428B66CAC3
:102D1000B684BE8C56D26AC86EC6BA8B4689EF009E
:102D2000F03403C5B1801306902793050AA633B586
:102D3000A900EF00B0339306FBFF1386FCFFCE968D
:102D40002296C2064206C1824182CE852285EFF0DC
:102D5000EF8563060B04C169814A014AFD1933D42A
:102D60006A03638A0C02814D014D338484026294AC
:102D70006306090433D79D03CE8505452297834713
:102D8000070063F4270181450545050DEFE01F822B
:102D9000A69DE3119DFF050ADE9AE3126AFDF2503B
:102DA0006254D2544259B259225A925A025BF24B9F
:102DB000624CD24C424DB24D21618280B3D79D030B
:102DC000050D0545A69DA29703C70700935537003B
:102DD00009839397B50016075D8FD98DEFE00FFD3E
:102DE000E31E9DFD4DBF797152CC56CA5AC85EC6CE
:102DF000930AF5FF930BE5FF130A1500130B25004B
:102E0000C20BC20A420A420B26D24AD04ECE06D686
:102E100022D462C466C26AC02A89AE89B28481475C
:102E200093DB0B0193DA0A01135A0A01135B0B01BE
:102E30000DA08D47638DF4089547638BF41405044A
:102E4000420441809317040113077008C18763028D
:102E5000E4061394070105474180E39CE4FC03C5A5
:102E6000A180376C010093050CA63335A900130629
:102E7000F012EF00B01F03C5B18093050CA6130636
:102E800000133335A400EF00701EA286A2854A8687
:102E90004A85EFE0BFF10504CE8505454204EFE029
:102EA000EFF041809317040113077008C187E31204
:102EB000E4FAB250225492540259F249624AD24A78
:102EC000424BB24B224C924C024D45618280138D95
:102ED000A18003450D00376C010093050CA633B5A6
:102EE000AA001306F012EF007018938CB18003C58E
:102EF0000C0093050CA6130600133335A400EF0055
:102F0000F016A2865686A2855685EFE03FEACE856A
:102F10000545EFE0AFE903450D0093050CA6130648
:102F2000F0123335A900EF00701403C50C009305AF
:102F30000CA6130600133335A400EF003013A2864D
:102F40004A86A2854A85EFE07FE6CE850545EFE01B
:102F5000EFE503450D0093050CA61306F01233357B
:102F6000AA00EF00B01003C50C0093050CA61306D1
:102F700000133335A400EF00700FA2855285A2869E
:102F80005286EFE0BFE2CE850545EFE02FE245BD7A
:102F9000138DA18003450D00376C010093050CA62D
:102FA00033B5AB001306F012EF00500C938CB180D8
:102FB00003C50C0093050CA6130600133335A400BB
:102FC000EF00D00AA2865E86A2855E85EFE01FDE56
:102FD000CE850545EFE08FDD03450D0093050CA67A
:102FE0001306F01233B5AA00EF00500803C50C0019
:102FF00093050CA6130600133335A400EF00100749
:10300000A2865686A2855685EFE05FDACE85054515
:10301000EFE0CFD903450D0093050CA61306F0127F
:103020003335A900EF00900403C50C0093050CA6EE
:10303000130600133335A400EF005003A2864A861E
:10304000A2854A85EFE09FD6CE850545EFE00FD6F5
:1030500003450D0093050CA61306F0123335AA00A4
:10306000EF00D00003C50C0093050CA61306001357
:103070003335A400EF00807FA2865286A285528558
:10308000EFE0DFD2CE850545EFE04FD203450D00DE
:1030900093050CA61306F0123335AB00EF00007D4C
:1030A00003C50C0093050CA6130600133335A400CA
:1030B000EF00C07BA2855A85A2865A86EFE01FCF1B
:1030C000CE850545EFE08FCE9DBB03C3A18039714E
:1030D00052D4376A010022DC4ED666CAAE892A84F1
:1030E00093050AA633356500B28C1306403606DE1A
:1030F00026DA4AD85AD05ECE428B6AC8B6843E8D54
:1031000056D262CC6EC6BA8B4689EF00207603C5D4
:10311000B1801306503693050AA633B5A900EF0017
:10312000E0749306FBFF1306FDFFCE962296C206BF
:103130004206C1824182CE852285EFE03FC7630A05
:103140000B04C169814A014AFD1933D46A03630E35
:103150000D029307801C014C814D3304F4026694E8
:10316000630809043357AC03CE8505450A07229747
:103170001843034707006374270181450545850D02
:10318000EFE0CFC2269CE39FADFD050ADE9AE31E69
:103190006AFBF2506254D2544259B259225A925A9E
:1031A000025BF24B624CD24C424DB24D21618280A7
:1031B000B357AC03850D0545269C8A07A2979C430F
:1031C00003C707009355370009839397B500160787
:1031D0005D8FD98DEFE08FBDE39CADFD7DB739717B
:1031E00022DC26DA4ED656D25AD093070008B70909
:1031F00000207D7B89644AD852D45ECE62CC06DE44
:103200002315F1009389C900014A1384418E130BE1
:103210005B1A930B0008938404F4938A018E254C67
:1032200083D7090011466C0013978700A183D98FBB
:1032300011452317F10023166101EFE0CFF62315A6
:1032400071018347040093F7F70F91CF0DA803A5F1
:10325000C18F814533559502EFD00FA183470400FC
:1032600093F7F70F89EF8357A1001387F7FF420702
:103270004187C207C1872315E100E34AF0FC835769
:10328000A100C207C1876355F00283C71A0003C7B4
:103290002A00050AA207D98F420A2391F9002300C8
:1032A0000400135A0A019109E31C8AF7014521A081
:1032B000E31D0AFC0545F2506254D2544259B259FA
:1032C000225A925A025BF24B624C21618280411178
:1032D00022C41384318E8345040026C29384018E58
:1032E000A695114506C6EFE02FF48347040011C5EB
:1032F000850793F7F70F2300F4000547638EE70077
:103300008D466396D700230004002382E18EB240ED
:10331000224492444101828003C704009307500A6B
:10332000E307F7FE23000400B24022449244410127
:10333000828083A6818DB707055094C78546238E6A
:10334000D18C03C70700136717002380E700828032
:1033500039710D4506DE22DC4ED626DA4AD852D423
:1033600056D28969412413060005930610059385FA
:1033700009581145EFE0AFED85451145EFE0AFE5A8
:103380000145EF00F0581384418E23000400EFF054
:103390001FE51306E0146312051A230004009307C7
:1033A0000008B7040020231DF100938404032300C8
:1033B0000400938A8402130A50FA938909F483D78C
:1033C000240083D604006C0813978700A183D98F4B
:1033D00011451146230E4101A30ED100231FF10018
:1033E000EFE06FDC03A5C18F9104814533553503B0
:1033F0000605EFD06F87E3949AFC8347040093F7A8
:10340000F70FA9EB8357A1011387F7FF4207418705
:10341000C207C187231DE100635EF00289649384C3
:1034200004F429A88357A1011387F7FF42074187B6
:10343000C207C187231DE100635EF00003A5C18FB1
:10344000814533559502EFD02F828347040093F7CF
:10345000F70FE9DB9384018E03C7140083C72400B0
:1034600093060008231DD100F98F230004001307E1
:10347000F00F638EE7048357A1011387F7FF42071C
:103480004187C207C187231DE1006352F0048969A7
:10349000938909F4130AF00F29A88357A101138710
:1034A000F7FF42074187C207C187231DE100635030
:1034B000F00203A5C18F814533553503EFC0DFFA14
:1034C00083C7140003C72400F98FE39847FD83578F
:1034D000A101C207C1876350F00623000400EFF08A
:1034E0001FD02A8425EDEF00304391473EC4954715
:1034F0003EC299473EC09306900413068004A94536
:103500002545930890021308800293076002130771
:10351000B004EFC05FFB370500201966130745684C
:1035200085461306068281451305456823ACE18C68
:10353000EFD02F8611A813065015B76501009385AB
:1035400005AE0145252605442285F2506254D25429
:103550004259B259225A925A216182801306D015DB
:10356000E9BF411122C41384C18E8345040026C2E1
:103570009384818EA695114506C6EFE0EFCA834776
:10358000040011C5850793F7F70F2300F4000547E2
:10359000638EE7008D466396D70023000400A38561
:1035A000E18EB240224492444101828003C704006C
:1035B0009307500AE307F7FE23000400B2402244B9
:1035C00092444101828083A6818DB707055094C73C
:1035D0008546A382D18E03C7070013671700238097
:1035E000E700828023A8A18E828023AAA18E8280F8
:1035F000411122C49385818F054506C6EFE0CFC2F5
:103600009385818F2244B24037650020054613051B
:1036100045EE4101E5A44111054506C6EFF0FFFC6A
:10362000B76500203765002013060004938545EA3E
:10363000130545EE452C9306800405468145130588
:10364000A008EFD00FA4F165CD464946938505202B
:103650000545EFE0CFBF05458545EFE0CFB7B24068
:1036600001454101828023AEA18EB71702409843E5
:10367000B706FFF841111367170098C3D8433718EE
:103680000240B7050200758FD8C39843B706F7FE0E
:10369000FD16758F98C39843B706FCFFFD16758F0E
:1036A00098C3D843B70681FFFD16758FD8C3370777
:1036B0009F0098C702C402C69843C1661306005013
:1036C000558F98C321A0A247638BC70083270800AA
:1036D000ED8F3EC6A24785073EC4B247EDD7B71768
:1036E00002409C431397E7006359070085473EC695
:1036F000324785476308F70001A002C63247854775
:10370000E31CF7FE37366E011307F5FF130606605C
:103710003357C702B72602408C42B717024093E5E1
:1037200005018CC203A80600B7157A009385052011
:103730001378C8FF23A0060103A806001D8B33677A
:10374000070198C2D843D8C3D843D8C3D843D8C3F5
:103750006301B50AD843B706C1FFFD16758FD8C3FC
:1037600037479508130707406302E5043717270713
:10377000130707E06300E50A37E7B805130707807A
:103780006306E50A37A74A0413070720630AE5081A
:103790003777DC02130707C06300E50A631CC50026
:1037A000D843B7060500558FD8C329A0D843C166B2
:1037B000558FD8C3B7160240984237060001B71795
:1037C0000240518F98C2984393166700E3DD06FECE
:1037D000D043B71602402147719AD0C3D043136635
:1037E0002600D0C3DC42B18BE39EE7FE41016F00AF
:1037F000D011D043B71602401147719AD0C3D043BD
:1038000013661600D0C3DC42B18BE39EE7FE410194
:103810006F00B00FD843B7063900558FD8C359BFD2
:10382000D843B7061D00558FD8C369B7D843B7062C
:103830002900558FD8C3BDBFD843B7061100558F97
:10384000D8C38DBFF1654111CD464946938505200A
:10385000054506C6EFE0AF9F85450545EFE0AF970C
:10386000B24005472380E1904101828019E983C776
:103870000190411106C699E7EF00100A010001000E
:10388000F5BF8280376501001305C5B5EFF09015CF
:10389000EF009008E5B701114EC606CE22CC26CA2D
:1038A0004AC8B2896358C002D96703A4C7A3AE84CB
:1038B0003389C500930500042285EF90601C7DD9F3
:1038C00085048385F4FF2285C205C181EF90A01A8B
:1038D000E39224FFF24062444E85D2444249B24909
:1038E0000561828091C90CC12322050023240500B3
:1038F00050C510C901458280054582805C45637AC8
:10390000F60A011126CAAA8422CC4AC84EC652C45D
:1039100056C206CE2E8A3289EF00100083AA040117
:10392000C0408840B3898A4063F629074E86D28515
:103930002295EFE0D060D84094484E97D8C0636697
:10394000D700158FE37FD7FED8C088404A94330450
:1039500054413A952286B3053A01EFE0505EDC40CF
:103960009848A297DCC063E6E700998FE3FFE7FE83
:10397000DCC0D04401453309264123A62401492F48
:10398000F2406244D2444249B249224A924A014535
:10399000056182804A86D2852295EFE0505ADC404C
:1039A0009848CA97DCC0E3E6E7FC998FE3FFE7FE9F
:1039B000C1B70945828001114AC85C450329050148
:1039C0004EC6B289104222CC26CA5AC006CE52C474
:1039D00056C2B307F9402A842E87368B814463F898
:1039E000C70023A0F900032905013E868544032A68
:1039F0008400B30A494163E7CA0211C70C403A8503
:103A0000D295EFE0D05363010B04F24062443305DA
:103A100090404249D244B249224A924A024B0D890F
:103A2000056182806DD30C4056863A85D295EFE0D1
:103A3000105103A609000C405695529633062641B4
:103A4000EFE0F04FE3130BFCC12D83A709001444F2
:103A50001848B6971CC463E6E700998FE3FFE7FEBA
:103A60001CC45C4403A709000145BA975CC44D25FA
:103A700069BF01112AC6B247116713070765B387EB
:103A8000E7023ECEF2471387F7FF3ACEE5FF056126
:103A9000828035713AC986DEA2DCA6DACAD8CED6D3
:103AA000D2D4D6D2DAD0DECEE2CCE6CAEAC8EEC6AE
:103AB00032C536C73ECB42CD46CF8387050038019D
:103AC0003ACCB5C337670100130DC101D964054A6B
:103AD000AE8A2A840329072C8329472C814C930D15
:103AE00050029384C416330AAA4119A8628723009E
:103AF000F400568C0504850CBA8A83071C008DC718
:103B0000138C1A00E394B7FF83871A00130730055C
:103B1000890A9387B7FD93F7F70FE360F7FE8A07EB
:103B2000A6979C438287814CF65066546685D6548E
:103B30004659B659265A965A065BF64B664CD64CF1
:103B4000464DB64D0D618280E247984391073ECCC9
:103B500083070700DDD3B3868C402300F4000507FC
:103B6000830707000504B30CD400E5FB79B762476F
:103B7000EA8625481C4311073ACC3D4519A0850625
:103B8000BA8713F7F7009375F70F1386050363746D
:103B9000E800138675032380C60013D74700E3604F
:103BA000F5FE030831028348C10183052102034564
:103BB000D101830611020346E10183070102034795
:103BC000F10123000401A300B4002301D400A301E8
:103BD000F4002302E400A302C4002303A400A3030F
:103BE0001401A3011103230E01012301A102A30E5D
:103BF000B100A300C102230FD1002300E102A30FF3
:103C0000F1002104A10CD5BDE2471D469843910760
:103C10003ECC9377770093870703230EF1009356EA
:103C20003700637EE6426A879D4511A0B28605078C
:103C300013F6760013060603B307A7418507230092
:103C4000C70093F7F70F13D63600E3E1D5FE93D5FF
:103C500017003E8B95C11387F7FF6A97EA87EA95AD
:103C6000038607008306070085072300C700A38F8C
:103C7000D7FE7D17E396F5FE22855A86EA85EFE0AA
:103C8000102C5A94DA9C95BD6247A9460328070078
:103C900011073ACC1357F841B3470701998F33E71F
:103CA000D702B3C7D70213070703230EE100638AC5
:103CB000073C85456A86294511A0BA85B3E6A70267
:103CC0000506138715001377F70FB3C7A70293866E
:103CD00006032300D600F5F3634908283A8B935571
:103CE0001700D9D91307FBFF6A97EA87EA9503867D
:103CF00007008306070085072300C700A38FD7FEB0
:103D00007D17E396F5FE22855A86EA85EFE030239B
:103D10005A94DA9CDDB3E2470504850C9843910779
:103D20003ECCA30FE4FED1BBE2466A8725489C4205
:103D3000910636CC3D4519A00507B68793F6F700E6
:103D400013F6F60F930506036374D8009305760304
:103D5000330647012300B70093D64700137BF60FC5
:103D6000E36CF5FC93551B0081D91307FBFF6A97A1
:103D7000EA87EA9503860700830607008507230084
:103D8000C700A38FD7FE7D17E396F5FE22855A86DE
:103D9000EA85EFE0D01A5A94DA9C85B3E2479D0792
:103DA000E19B03AB070083AB4700A1075A85DE8583
:103DB0003ECCEFD040631357F541B347A700998F2E
:103DC000A94633E7D7022A88B3C7D70213070703E8
:103DD000230EE1006381072C85486A86A94511A05E
:103DE000BA88B3E6B7020506138718001377F70FF2
:103DF000B3C7B702938606032300D600F5F3014646
:103E000081465A85DE8546C63AC442C2EFC0F012EA
:103E100012482247B24863460516BA8893551700E0
:103E200095C11387F8FF6A97EA87EA95038607002A
:103E30008306070085072300C700A38FD7FE7D17E1
:103E4000E396F5FE4686EA85228546C242C4EFE047
:103E5000100F22484285EFD0805F2A86AE865A85B1
:103E6000DE85EFC070644A86CE86EFC07018924837
:103E7000014681462A8BAE8B4694C69CEFC0607A81
:103E8000631D0510B7373030938707033ECE8D672B
:103E9000938707032310F1029307E0022301F10245
:103EA00099450D451D4BEA95AE876A8703060700C5
:103EB00083860700FD170507A380C700A30FD7FE61
:103EC000B386F540E3E4A6FE5A86EA852285EFE054
:103ED0001007DA9C1DB1E247294725469443910714
:103EE0003ECCB3F7E60293870703230EF10033D7E6
:103EF000E6026376D616EA86A945254511A03287E3
:103F00003376B7028506B387A641850793F7F70F87
:103F1000130606032380C6003356B702E361E5FEAD
:103F200093D517003E8BE38905D41387F7FF6A9773
:103F3000EA87EA95038607008306070085072300C2
:103F4000C700A38FD7FE7D17E396F5FE22855A861C
:103F5000EA85EFE0C07E5A94DA9C45B6930750029A
:103F60002300F400850C050449BE89059C003E979A
:103F700013FBF50F9307D00293551B00230EF7FC9C
:103F80008DB39C0089083E9793F8F80F9307D002F1
:103F900093D51800230EF7FC61B55A85DE85EFD066
:103FA00080441357F541B347A700998FA94633E7DB
:103FB000D702B3C7D70213070703230EE100638EAE
:103FC000070E8546EA85294511A0BA8633E6A70281
:103FD0008505138716001377F70FB3C7A7021306DB
:103FE00006032380C500F5F3954763ECE7069C00C4
:103FF0003E979305000393872600230EB7FC93F7A3
:10400000F70F1946E38AC7E898003E979387360072
:10401000230EB7FC93F7F70FE380C7E8940013066D
:10402000000313871700BE96238EC6FC1377F70F85
:104030009945E303B7E69400369793862700230E4D
:10404000C7FC13F7F60FE309B7E494003697230E85
:10405000C7FC0947E392E7E4A300C10235BD054B65
:1040600021B99C0089063E9713FBF60F9307E002E7
:10407000230EF7FC13551B00E30805E49305FBFF33
:104080001DB5054BE35A08BE9307D002A30EF100FD
:104090008545094B81B92AC2014681465A85DE858C
:1040A000EFC0A06912488548E35E05D89307D002A7
:1040B000A30EF10085458948ADB393070003A30E15
:1040C000F100230FF1008D4791BF9357550005472D
:1040D000938707043315A7008A0737E700E0BA97EC
:1040E00088C3828093575500054793870706331589
:1040F000A7008A0737E700E0BA9788C38280B7E74E
:1041000000E03E952300B540828005456F80600346
:1041100011C182806FC02F8F411106C6EFC04F8E34
:10412000B24041016F90201AB76600201963938650
:10413000C6F21303333613066004239766009165B5
:10414000130340059385656423886600239F06005A
:104150002380C602B77600202394B6B22392B19092
:10416000B7670020B706B400938787FD930500006A
:10417000930E2005094E9386060F3767002013071C
:1041800087EF238CD70D23AEB70C23A0B70E23A245
:10419000B70E23A4D70E2380C7002381070023A2D4
:1041A00007002394070023AAC70D376F0100B70744
:1041B0000A005CC783274F2D1CCB9307600E23108A
:1041C000F702B707140085079388C19113884191BE
:1041D0001385C1905CD3B707E6002301D7034CCB0E
:1041E0004CCF23A0080023A208002320080023228C
:1041F000080023200500232205002300C7002322F6
:104200000700938767095CD7B767010003A5C72D2F
:10421000B767010003A8872DB7660020938686F54F
:10422000232807032947D8C237078C0009073763BB
:10423000010098CA1307000F2392E6020327032EFA
:10424000B77700209387C7AEAE8EB7680100238092
:10425000C70098CB23A6D7012384C70023AA070150
:1042600023ACD701C8CF23A2C70188D72382C702B6
:1042700023A6D70383A7482EB76500209385C5FBE7
:104280002380C60023840600C8CE23AA060023800C
:10429000C50023A205009CCD8280797122D426D24C
:1042A0004AD04ECE52CC56CA06D65AC85EC6AE8941
:1042B0002A8AB28A3A843E8993F4F60F63E4D500E1
:1042C00093F4F50F13FBF90F63F4360113FBF60FAC
:1042D00063085A0D33853641EFE06004AA8B3385BD
:1042E0004A41EFE0C003AA855E85EFD00054AA8A58
:1042F0004E85EFE0C002AA895285EFE04002D685E4
:10430000EFD0B014AA854E85EFD0703DAA896368BE
:10431000990493140B01C18463772B032685EFE086
:104320000000CE85EFD0B03BD685EFD00050EFD067
:10433000B07985041375F50FC2042310A400C1845D
:104340000904E3CD24FDB250225492540259F2499B
:10435000624AD24A424BB24B05454561828063674F
:104360002B09E31209FE13190B0113590941E37CD0
:104370009BFC4A85EFD0B07ACE85EFD05036D685FB
:10438000EFD0A04AEFD0507405091375F50F42091C
:104390002310A400135909410904E34C99FC65B7A3
:1043A00063759902637C2B0793970401C187E35CD3
:1043B00099F8420A135A0A41FD17C2072310440113
:1043C000C1877914E34AF9FEBDBF93170B01420A76
:1043D000C187135A0A41E3582BF78507C2072310F8
:1043E0004401C1870904E3CA27FFB1BFC204C184E5
:1043F0002685EFD0D072CE85EFD0702ED685EFD047
:10440000C042EFD0706CFD141375F50FC204231079
:10441000A400C1847914E34D99FC35B7E31509F282
:1044200093170B01C187E3E064F3420A135A0A4170
:104430008507C20723104401C1870904E3DAF4FEAB
:1044400019B779714ECEB76900209389C9FB83C52E
:10445000990022D483C6D9001387E51503C6C90085
:1044600003C58900376400201304440C0607814704
:10447000229726D252CC56CA5EC662C406D64AD00D
:104480005AC866C2EFF07FE103CAB90083CBA90026
:1044900003CCE90093040A32860483CAF900A2948B
:1044A00063818B15137BFA0F63685A1363140B0A2D
:1044B00003C799006362EA081316070183C5D90090
:1044C00041861385A1922310C500BA8763E455077E
:1044D00005066354B70413878715938607320607CA
:1044E00086062297A2960317C70083960600938735
:1044F00007068607BA9613D7F60136970587B306DF
:10450000F4009317060105064206C1872394E600CE
:104510004182E3C2B7FC2310F500B25022549254FA
:104520000259F249624AD24A424BB24B224C924C57
:1045300045618280D68569BF52871316070183C5FE
:10454000D90041861385A1922310C500BA87E3F1F3
:1045500055F9CDB79377FA0F63EA4A0D139907011E
:1045600013590941E3D667F533854A41EFD0305BF3
:10457000AA8C33057C41EFD0905AAA856685EFD08E
:10458000C02A2A8C5285EFD09059AA8C5E85EFD034
:104590001059E285EFD0606BAA856685EFD03014A4
:1045A000AA8B4A85EFD0B057DE85EFD05013E28555
:1045B000EFD0A027EFD0505105091375F50F420930
:1045C0002390A400135909418904E34C69FD03C7F2
:1045D0009900E373EAEE8DB713FBFA0FE30A0BECD5
:1045E00095BF1377FA0F636F5A03E30307EC9376D3
:1045F000FA0F63F44A0193F6FA0F93970601C18705
:10460000E368D7EAC20B93DB0B418507C20723900F
:104610007401C1878904E35AF7FE03C79900E37D5B
:10462000EAE819BF13F7FA0F79F359B593F7FA0FC0
:1046300035B78396A192B76700209387470CB6974A
:1046400003C74738130640056308C708930560048D
:104650006313B70883C787706380C70E639DE70C39
:104660009387C19183C5570003C6370003C747002E
:10467000850505060507A382B700A381C70023822D
:10468000E7009307300263D1D71A9387C19003C61E
:10469000570083C6370003C7470005068506050790
:1046A000A382C700A381D7002382E700828093877B
:1046B000419183C5770003C6370003C727008505EE
:1046C00005060507A383B700A381C7002381E70080
:1046D000F94763C8D708828083C787706385E70A74
:1046E00013076004E399E7FE9387C19183C56700D0
:1046F00003C6170003C74700850505060507238382
:10470000B700A380C7002382E7009307300263D37A
:10471000D70C9387C19003C6670083C6170003C7F1
:1047200047000506850605072383C700A380D70039
:104730002382E700828082809387C19183C57700BE
:1047400003C6370003C72700850505060507A383B1
:10475000B700A381C7002381E70093073002E3D8A5
:10476000D7F49387C19003C6770083C6370003C789
:104770002700050685060507A383C700A381D70088
:104780002381E70082809387C19183C5070003C618
:10479000170003C727008505050605072380B70016
:1047A000A380C7002381E7009307300263D9D704B1
:1047B0009387C19003C6070083C6170003C727006D
:1047C0000506850605072380C700A380D70023813F
:1047D000E70082809387419183C5670003C6170075
:1047E00003C747008505050605072383B700A38097
:1047F000C7002382E700F947E3CDD7F08280938793
:10480000419183C5070003C6170003C7270085052C
:10481000050605072380B700A380C7002381E700B2
:10482000F947E3C7D7F882809387419183C5570042
:1048300003C6370003C74700850505060507A382A1
:10484000B700A381C7002382E700F947E3CFD7E28F
:1048500082805971B7670020D6CA83CAA7F386D66B
:10486000A2D4A6D2CAD0CECED2CCDAC8DEC6E2C49A
:10487000E6C2EAC06EDE93077002014563FB571D76
:10488000B7670100377A0020130A8AB203AB472DBD
:10489000B767010083AC872E83477A0003478A00FD
:1048A000034C6A003EC683479A00376900203AD01D
:1048B0003ECC3AD662CE854402D202CA02D402C8A5
:1048C00001441309490CDA8BE68D9309840F939701
:1048D0002900CA9703AD8700DA856A85EFD0C02525
:1048E000635CA002E6856A85EFD0602D6356050201
:1048F0009307740F86098607CA99CA9703974900D8
:1049000083974700634AF700B307890083C7473896
:1049100013074005638EE7149307841D8A07CA971F
:1049200083A9C700DE854E85EFD00021635DA0041A
:10493000EE854E85EFD0A028635705049307842B9E
:104940001304742B86070604CA974A9403978700BA
:104950008317840063C9E70232479387F4FFC207D5
:10496000130D17001377FD0F3AC605473ACAC187E2
:10497000130780026359F700E247850793F7F70FA3
:104980003ECC85473ED2939704018504C187C2047B
:104990003E84C180E3CB57F32395F192C2476390E5
:1049A0000710A25763930710D24781C7B247A303EA
:1049B000FA00925781C7E247A304FA009307600305
:1049C00063FA570F0257B14763FAE714BD4763F71D
:1049D0008715930740052301FA0083477A00930661
:1049E000400583459A00314613076004637AB60098
:1049F0003D473337F7003307E040398B130767042F
:104A0000A301EA006546637686019305600463842A
:104A1000B618130660042302CA0065466375F616CD
:104A200093076004630BF71213066004A302CA0025
:104A3000130640056399C60A03471A002300DA00EB
:104A4000630BD7126383D70C930760042300FA002B
:104A50000545B650265496540659F649664AD64A34
:104A6000464BB64B264C964C064DF25D65618280F6
:104A700072479387F4FFC20705071377F70F3ACE03
:104A800005473AC8C18713078002E357F7E8B257D2
:104A9000850793F7F70F3ED685473ED4B5BDF2475D
:104AA0002303FA003E8CA25781D3B2572304FA00A5
:104AB0003ED0DDBDE546B3B78601B307F040B98B04
:104AC000116703467A00938767041307676423110D
:104AD000EA002302FA0063EBC60A13076004A3028C
:104AE000EA001307600493064005630AD70413071E
:104AF00040056386E70083475A00E397E7F40347DE
:104B00001A00930740056304F700054599B705456A
:104B100093054006EF805021054525BF93076004AB
:104B20002301FA009306600483477A005DBDA30267
:104B3000DA0093074005E314F7FC9307400583462A
:104B40001A00130740052300EA0013074005638499
:104B5000E602E39BE7EE0545EDBD93074005A302A2
:104B6000FA00930740056393F60483471A00230075
:104B7000DA00E39CD7F8930540060545EF80D01A8C
:104B800083474A00ADB79307600479BD130740051A
:104B9000A302EA00A9BF930540052302BA00E37807
:104BA000F6F86308D70093074005BDBD930760047E
:104BB0003DBFA302BA009307400515BF5D714EDEED
:104BC0009389419056DAB767002083CA4900A6C28C
:104BD0005ED683C4A7F366D29387A19286C6A2C489
:104BE000CAC052DC5AD862D46AD06ECE3EC423907A
:104BF000070056C683CC5900E9CCB767010003A96A
:104C0000872E37660020668C054402C202C0014D23
:104C1000930D460C130B40054A8A930B8D0F139787
:104C20002B006E970847CA85EFC0107113088D1DC1
:104C300013077D0F0A08060793961B006E98EE96E1
:104C40006E97D2856353A0028396460003174700F0
:104C50003385AD0163CBE600034745386317670131
:104C6000850A854793FAFA0F3EC00325C800EFC0B6
:104C7000B06C93068D2B13077D2B931504018606CC
:104C80000607EE966E97C18505046353A0028396CE
:104C9000860003178700B387AD01634BD70083C736
:104CA000877063976701050C8547137CFC0F3EC234
:104CB00042042E8D4180E3C295F6A2472390B700AF
:104CC0008247C1C723825901924781C7A3828901C4
:104CD000E28CA54763E0570713076004A381E9004E
:104CE00063F69703930740052381F90003C7190072
:104CF000930740052380F90093074005631CF700E4
:104D0000930540060545EF80300229A02381E90084
:104D10002380E900B640264496440649F259625A77
:104D2000D25A425BB25B225C925C025DF24D054559
:104D30006161828013074005A381E900E3E497FBEA
:104D4000930760042381F90055B7B24AB5BFB7672E
:104D5000002083C707FB011122CE26CC4ACA4EC8C9
:104D600052C656C41307C002138EA7006374F7001F
:104D7000130E7003B7640020938484FD9382A19284
:104D8000377500202390C201B38EC401130A0004BA
:104D9000938581929308E0079309E007938FB4030A
:104DA000130F2007130545BD1308F00F05430549F0
:104DB0008943114413170A0141872390E50025C355
:104DC00063096704B38ADF41B38AEA039306F7FFF6
:104DD000C206C182B3874A018A07AA979C4383C748
:104DE0000700639B07012DA29C434206418283C7B3
:104DF000070063830711B286139606014186B387C5
:104E0000CA008A072390C500AA971386F6FFE39D80
:104E100066FCA3852E012390E50063C8E80E6306B7
:104E200017053386DF413306E6030507B30746015E
:104E30008A07AA979C4383C70700639B070185A83D
:104E40009C43C206C18283C7070063800707368779
:104E500093160701C186B307D6008A072390D500B1
:104E6000AA9793061700E31D17FDA3873E07930734
:104E7000E00783C6BE003387F600958F135A1700EC
:104E800063D6F3047D1E420E135E0E412390C201D1
:104E9000FD1EE3118EF2724403C524005249E24420
:104EA000C249324AA24A05618280137AF70F83C64B
:104EB000BE0093071A0093F7F70F3387F600A38716
:104EC000FE06958F135A1700E3CEF3FA9307B0034B
:104ED00072441375FE0F2384F40093074005238169
:104EE000A400A384A4002385F4005249E244C249EB
:104EF000324AA24A0561828093F6F60FFD16A38519
:104F0000DE002390E500E3DCE8F083C7FE0695B7FA
:104F1000D286EDB7411122C437640020130484FD0A
:104F20005C4006C60947638FE70811476386E700C0
:104F3000B2402244410182808347840D130720053B
:104F4000638FE7161307C004E394E7FEEFF03FE03A
:104F500083469400034684003767002081479545C7
:104F60001307E7701305F007EFF02FB30348940021
:104F700095479385A1922390F5009547E3DA07FBC7
:104F8000B7670020194615479387470C93060732E9
:104F90008606BE9683D606001307070606073385E6
:104FA000E700A916131706010506420641872314D8
:104FB000D5004182E34C07FD2390E500B240224436
:104FC000410182808347840D130720056380E70831
:104FD0001307C004E39EE7F4EFF07FD78346940005
:104FE0000346840037670020814795451307E77023
:104FF0001305F007EFF06FAA0348940095479385D7
:10500000A1922390F500954763D00705B76700206C
:10501000194615479387470C930607328606BE96B6
:1050200083D606001307070606073385E700A9168F
:10503000131706010506420641872314D500418255
:10504000E34C07FD2390E5005C40C5B5EFF03FD091
:1050500083469400034684003767002081479545C6
:105060001307A7380145EFF04FA303489400954775
:105070009385A1922390F5009547E3D707FDB76785
:105080000020194615479387470C93068715860617
:10509000BE9683D6C6001307070606073385E700CA
:1050A000D906131706010506420641872314D500C9
:1050B0004182E34C07FD5C402390E500BDB5EFF075
:1050C0001FC9834694000346840037670020814748
:1050D00095451307A7380145EFF02F9C034894002E
:1050E00095479385A1922390F5009547E3D207E574
:1050F000B7670020194615479387470C9306871515
:105100008606BE9683D6C6001307070606073385B4
:10511000E700D90613170601050642064187231446
:10512000D5004182E34C07FD2390E50041BD4111CC
:1051300022C437640020130484EF0347040006C62A
:1051400026C2930740056307F700B2402244924409
:10515000410182805C400D47638BE7081D47E39661
:10516000E7FE034724029307C0046304F71A0347CA
:10517000240293072005E31AF7FCB767002083C6D3
:1051800087FA3767002081471306F0071307A7380F
:1051900095450145EFF06F90B767002003C837F3DE
:1051A0001386A19299472310F6009947E3DF07F988
:1051B000B76700209D4519479387470C93068715CD
:1051C0008606BE9683D6C6001307070606073385F4
:1051D000E700D906139705018505C2054187231409
:1051E000D500C181E34C07FD2310E600B9BF03479A
:1051F000240293072005630AF70803472402930754
:10520000C004E314F7F4B76400209384C4F203C627
:10521000440083C654003767002081471307E770B6
:1052200095451305F007EFF04F8703C854009947E1
:105230001386A1922310F600994763D00705B7673C
:1052400000209D4519479387470C93060732860631
:10525000BE9683D606001307070606073385E700C8
:10526000A916139705018505C20541872314D500AA
:10527000C181E34C07FD2310E600034704009307B8
:105280004005E314F7EC5C40D1BDB7640020938483
:10529000C4F203C6640083C67400376700208147E8
:1052A0001307A73895450145EFE03FFF03C8740099
:1052B00099471386A1922310F600994763D00705FA
:1052C000B76700209D4519479387470C93068715BC
:1052D0008606BE9683D6C6001307070606073385E3
:1052E000E700D906139705018505C20541872314F8
:1052F000D500C181E34C07FD2310E60003470400FD
:1053000093074005E313F7E45C400D47E387E7EEBE
:10531000B1B5B7640020938484F983C6440037672D
:105320000020814701461307E77095451305F007F4
:10533000EFE0BFF603C8440099471386A1922310FB
:10534000F600994763D00705B76700209D451947C8
:105350009387470C930607328606BE9683D60600CF
:105360001307070606073385E700A91613970501FB
:105370008505C20541872314D500C181E34C07FD93
:105380002310E6000347040093074005E31FF7DA04
:1053900058409D47E30DF7DC4DBBB7670020B76E63
:1053A000002083C757F3938E8EF523850E00A384C8
:1053B0000E0011476378F70E890713930701135303
:1053C0000341138FA19223106F001307A00363639F
:1053D000F70C130EB003330E6E409308801CB30815
:1053E0001E0337780020130848BD93858192930FE0
:1053F000D0071305F00F930320079302B00393889F
:10540000C81EC2982390F501C6869307D00701A84D
:1054100093170701C1872390F500F11629CF904615
:105420001387F7FF4207034606004183E312A6FEF7
:10543000D04203460600E31DA6FC90420346060048
:10544000E318A6FCB3067E023387F6000A074297EC
:1054500018430347070011E781A0184303470700DB
:1054600005CFFD17C207C1873387F6000A072390CF
:10547000F5004297FDF3050393170301C1831393CE
:1054800007011353034123106F00938888E37D1EA7
:10549000E39A57F60145828023856E00A384FE00BF
:1054A00005458280138FA1929D472310FF001D4365
:1054B0000DB7B7670020B76F002083C777F3938FCE
:1054C0008FF523860F00A3850F0011476377F71030
:1054D0008907939E070193DE0E419382A192239048
:1054E000D2011307A0036361F710130FB003330F4A
:1054F000DF41130E801C330ECF03B778002041111B
:10550000938848BD22C626C493858192894313059A
:10551000F00F210E930420071303F0071304B003C8
:10552000469E239075007287894739A0931706011C
:10553000C1872390F500110714431386170083C613
:105540000600E395A6FE544383C60600E390A6FE3C
:10555000144783C60600E39BA6FC33089F0233076B
:10556000F8000A07469718430347070031CF85071D
:1055700093960701C18201A8184393160601C182C0
:105580000347070031C393970601C1873307F8002B
:105590000A072390F500469713861600E39E66FCE3
:1055A000850E93970E01C183939E070193DE0E41F2
:1055B0002390D2017D1F130E8EE3E39487F63244CD
:1055C000A24401454101828032442386DF01A38544
:1055D000FF00A2440545410182809382A1929D472C
:1055E0002390F2009D4E11B701458280011126CA19
:1055F000B7640020938484F503C7040006CE22CC50
:105600004AC84EC6930740056309F700F24062445A
:10561000D2444249B24905618280C040894713079C
:10562000F4FF63F6E70E9147631AF40283C704029E
:105630001307C0046387E73E13072005E398E7FCE0
:10564000EFF03FE783C6C400914763E9D74803C73B
:10565000040093074005E31BF7FAC0409947631223
:10566000F40C83C704021307C0046389E73C1307E3
:105670002005E39DE7F8B76900209389C9F21389F3
:10568000A192B767002083C687FA37670020814759
:1056900095451307A7381306B0060145EFE0FFBF95
:1056A00083C5790099472310F900994763D9B70456
:1056B000376400201D461304440C13878715938616
:1056C0000732060786062297A2960317C70083961D
:1056D0000600938707068607BA9613D7F601369712
:1056E0000587B306F4009317060105064206C18735
:1056F0002394E6004182E3C2B7FC2310F90003C7FC
:10570000040093074005E313F7F0C04019A883C7CE
:1057100004021307C0046381E70A130720056384AA
:10572000E718A547E314F4EE83C704021307C00487
:105730006382E71013072005E39AE7EC3767002040
:105740001307C7F28347B7000348E70093950701A3
:10575000C1851389A1922310B900E3D907EB3764FF
:10576000002085051304440C13878715060722972C
:105770000317C70093860732938707061305D702DE
:10578000420541853306A7001357F6018607329775
:1057900086063306F400A2969397050105878505D2
:1057A000C205C1872390A6002314E600C181E3CD82
:1057B00007FB2310F90099BDB76900209389C9F24E
:1057C00003C759001389A19293150701C1852310BE
:1057D000B9009307600363C2B7403764002006072F
:1057E0001304440C22970143814E814601488948A5
:1057F000130E700331A89376F50F63E1D81C63058F
:10580000060393950701C185090705436385C72DE5
:105810000316471F93871500C20713851600C1831F
:10582000E35BC8FC63ECD81893FEF50F1378F60F12
:105830008146C1BFB767002003C8A7F31389A192AF
:1058400095472310F9009547E3D207DD3764002020
:1058500099451304440C1387073206072297031750
:1058600007009386871593870706130537FD4205C2
:1058700041853306E5001357F60186073297860601
:105880003306F400A2969397050105878505C205A6
:10589000C1872396A6002314E600C181E3CD07FB50
:1058A0002310F900A5B3B76900209389C9F21389C1
:1058B000A19283C7790013076003139607014186FD
:1058C0002310C9006347C7303764002086071304DC
:1058D000440C3E948148014E01471308F0070945E6
:1058E0001303700331A813F7F50F636DE5026385A9
:1058F000060313960701418609048548638A671CDD
:105900008316845793071600C20793051700C183B7
:10591000E3DB06FD6368E500137EF60F13F8F60F70
:105920000147C1BF638408002310C9003767002006
:105930009307700395451307E770F28642861305B7
:10594000F007A38504012386C401EFE01F9583C5FA
:10595000E90099472310F900994763D9B7043764E0
:1059600000201D461304440C1387871593860732C5
:10597000060786062297A2960317C700839606009D
:10598000938707068607BA9613D7F60136970587D9
:10599000B306F4009317060105064206C187239457
:1059A000E6004182E3C2B7FC2310F90003C70400FC
:1059B00093074005E31CF7C4C040B5B1630403007E
:1059C0002310B90037670020930770031307A73827
:1059D000F686428695450145A38404012385D401BA
:1059E000EFE0BF8BB7670020938787191304641318
:1059F0000397471F839687578907BA9613D7F601EF
:105A000036970587239FE7FEE314F4FE03C70402DD
:105A1000930770032310F90093072005E318F7F8A4
:105A200049BDEFF09F9783C6A4006366D41203C7F5
:105A3000040293072005E31CF7C019B1B7670020E3
:105A400083C6C7F937670020954581471307E7707C
:105A500029461305F007B7690020EFE01F849389FA
:105A6000C9F283C559001389A19223108900635A92
:105A7000B404376400201D4699471304440C13876F
:105A8000871593860732060786062297A296031784
:105A9000C70083960600938707068607BA9613D732
:105AA000F60136970587B306F4009317060105063D
:105AB0004206C1872394E6004182E3C2B7FC23106B
:105AC000F90003C7040293072005E31AF7C255BE85
:105AD00023106900A1BD2310C901EDB503C6B400B0
