:100000006FB0500313000000130000001300000045
:100010001300000013000000130000001300000094
:100020001300000013000000130000001300000084
:08003000130000007300100032
:100038000000000000000000C0B30000C4B30000CE
:10004800000000007AB70000000000000000000077
:100058007CB700007EB70000000000000000000030
:1000680080B700000000000082B700000000000018
:1000780084B7000086B7000088B700008AB7000080
:100088008CB700008EB7000054B000006CB00000C0
:1000980086B00000A0B00000BAB000009AB7000017
:1000A8009CB700009EB70000A0B70000A2B70000F0
:1000B800A4B70000A6B70000A8B70000AAB70000C0
:1000C800ACB70000AEB70000B0B70000D4B0000075
:1000D800B4B700001CB20000B8B70000BAB70000FF
:1000E8004AB2000068B2000096B20000C2B7000031
:1000F800C4B70000C6B70000C8B70000CAB7000000
:10010800CCB700009CAE0000CEAE000010AF0000DF
:1001180052B10000D6B70000D8B70000DAB7000027
:1001280046B30000DEB70000E0B70000E2B7000009
:10013800E4B70000E6B70000C4B20000EAB7000068
:1001480042AF000074AF0000F2B2000014B3000028
:10015800F4B70000F6B70000F8B70000FAB70000DF
:10016800FCB70000FEB7000000B8000002B80000AD
:1001780004B8000006B8000008B80000D2CA0000A1
:100188000CB800000EB8000024B000009AAF0000C0
:10019800CCAF000002B0000018B8000074B3000033
:1001A8001CB800001EB8000020B80000A2B3000070
:1001B80024B8000026B8000028B800002AB80000BB
:1001C8002CB800002EB8000030B8000032B800008B
:1001D8000000000000000000000000000000000017
:1001E8000000000000000000000000000000000007
:0801F8000000000000000000FF
:10020000737504308280B76200009382820873A005
:10021000023082803D432A876373C3029377F700DD
:10022000BDEFADE5937606FF3D8ABA960CC34CC38D
:100230000CC74CC74107E36BD7FE11E28280B306BF
:10024000C3408A069702000096966780A60023079F
:10025000B700A306B7002306B700A305B700230520
:10026000B700A304B7002304B700A303B700230318
:10027000B700A302B7002302B700A301B700230110
:10028000B700A300B7002300B700828093F5F50FF5
:1002900093968500D58D93960501D58D61B793967C
:1002A00027009702000096968682E78086FA96805D
:1002B000C1171D8F3E96E374C3F8A5B739CD054726
:1002C000630DE5040947630AE5040D476307E50488
:1002D00011476304E50415476301E5041947630EFC
:1002E000E5021D47630BE50221476302E50425474C
:1002F0006305E50429476308E5042D47630BE5041E
:1003000031476300E5023547630BE5043947630E67
:10031000E5043D476301E50682808146014681454B
:100320003DA3814601468145130520040DA3814666
:10033000014681451305000219AB814601468145FE
:100340001305100229A381460146814513050004C7
:10035000FDA981460146814513051004CDA98146BA
:100360000146814513053004DDA1814601468145E2
:1003700013054004E9A9814601468145130550044F
:10038000F9A1411122C4372401404AC091460546D3
:100390002E899375F50F1305044006C626C2EFB0EB
:1003A0006075130504408545B7240140EFB0E07245
:1003B0001384044089452285EFB0A07F65DD03A545
:1003C000C444B240224433552501420592440249B7
:1003D000418141018280797106D622D426D2F93D2D
:1003E000854513050020EFB03069014537240140F1
:1003F000EFB0105413050440EFB0E05FB7070E00F4
:10040000130504408A853EC68547230AF10002C0D1
:1004100002C202C402C8EFB0206313050440854540
:10042000EFB04068130504408145EFB02079130513
:100430000440B7240140EFB00068138404402285D3
:10044000EFB000686DFD1385044037240140EFB024
:10045000A067130404402285EFB0A0676DFDB25081
:100460002254925445618280B7F700E023A0070030
:100470008146014794C7D8C7054798C337F700E0BE
:100480001047544763E6D500E39CB6FEE37AC5FE09
:10049000828079715EC662C466C2328CAE8CB68BC5
:1004A000014693068004814506D622D426D24AD03E
:1004B0004ECE52CC56CA5AC8BE8A3A8B428AC68998
:1004C00083440103034941030344810349266685AC
:1004D00093068004014681459D2E62859306800423
:1004E00001468145AD265E8593068004014681451F
:1004F000B92E5A859306800401468145892E56857A
:10050000930680040146814599265285930680040E
:10051000014681452D2E4E85930680040146814576
:100520003D264A8593068004014681450D26268591
:100530009306800401468145192E22852254B2502B
:1005400092540259F249624AD24A424BB24B224C6F
:10055000924C93068004014681454561CDAC011162
:1005600022CC26CA2E84AA848545096506CE4AC8AF
:100570004EC63289B689EFB0504EB707055003C753
:100580000700130560058D451377F70C2380E700FE
:1005900003C70700136727042380E70003C717007A
:1005A0001377970FA380E700239237012393270146
:1005B00084C7C0C703C717001377F703A380E700FA
:1005C00003C717001377F70FA380E70003C71700CF
:1005D00013670701A380E70003C7270013674700DD
:1005E0002381E70003C7170013671700A380E70004
:1005F00003C70700136717002380E700EF30502B75
:100600006244F240D2444249B24913056005056193
:100610006F30D026B707002041119387070022C40E
:10062000AA9706C683C6070055671307C74F9317D7
:100630002500BA971307F00F80436385E6003685DF
:10064000E12209C903554402B240224442054185D2
:100650004101828003554402B24022443305A04048
:100660004205418541018280D5679387C74F0A05BE
:100670003E951C41239207028280011122CC2E84D8
:10068000914506CE26CA4AC8AA843289EF00106F67
:10069000B75501001306300893858531EF302018D7
:1006A0002685EF00906F93068004014681451375FF
:1006B000F40F712A81459306800401461375F90FE2
:1006C0007922B707002093870700A6972380870029
:1006D0009355840085476388F504C5476381F50C0D
:1006E000930710026385F50C93072002638AF508CF
:1006F00093071003638CF50C930710076381F50CC7
:10070000930710086386F508930710096385F50CB5
:10071000930720096390F502370701405C4F93E788
:1007200007025CCF01A83705160085451305050CA7
:10073000EFB0B01585450545EFB010344800EFC067
:100740002005D5679387C74F8A04BE948040C16750
:10075000FD174C0022853EC402C223060100EFB003
:100760005047228593050006EFC040092285854544
:10077000EFC08003F2406244D24442490561828066
:1007800037151A00854513050580EFB010105DB7C9
:10079000370701405C4F93E707015CCF61BF370526
:1007A0001800854513050530EFB0300E61B73715D9
:1007B0001A008545130505C0EFB0300DA5BF3707FA
:1007C00001405C4F93E747005CCFADB785450565B9
:1007D000EFB0B00B85B7370701405C4F93E70704D4
:1007E0005CCF89BF9357550013972700D567938730
:1007F000C738BA973D89984385473395A70099C173
:1008000008CB828048CB8280135735009376C7018E
:1008100055671307C7383697184385473395A700A0
:100820001C477D8D3335A00082809357350013F728
:10083000C701D5679387C738BA9798439377F50070
:10084000054554473315F500358D48C78280930719
:10085000F00F6307F50C797122D41354550026D29A
:100860004AD04ECE52CC06D61D889374F5003689F8
:10087000B2892E8A0DC885476305F40A8947630744
:10088000F40A8D476309F40A9147630CF40A95470B
:10089000630FF40A9947631CF400854513050010A3
:1008A000EFB0901D29A085451145EFB0F01C05471C
:1008B000B3149700C204D5679387C738C1800A0470
:1008C0003E94231291009377F90F0040630FEA00E2
:1008D0004C0022853EC6EFB08032B2502254925472
:1008E0000259F249624A456182804209135909015D
:1008F00013598900631309000D494C0022854AC42D
:100900003EC6EFB0C02F4E86A6852285EFB0407759
:10091000B250225492540259F249624A456182808F
:10092000828085452145EFB0301551B78545414559
:10093000EFB09014ADBF854513050002EFB0D013A2
:10094000BDB7854513050004EFB010138DB785457D
:1009500013050008EFB0501299BFD5679387072F92
:1009600003AF070083AE470003AE870003A3C700B1
:1009700083A8070103A84701D44F9853904FDC5335
:100980001D71A6CAAE84854586CE7ACC76CE72D04D
:100990001AD246D442D636DA3ADCA2CCCAC8CEC67F
:1009A000D2C43EDE2A843759010032D8EF00103D10
:1009B0009305093A13065002EF2070661306600291
:1009C0009305093A33359000EF2070652285EF00DA
:1009D000D03C13DAF40093170A01C1838507B3D41E
:1009E000F402D567931924009387C74FCE9703A9C4
:1009F00007006C00231641014A85231901002317C3
:100A00000100230A01001374F40F0A042318910053
:100A1000EFB0301C05464A858545EFB0905C4A85AD
:100A20008545EFB0706C9C003E94032584FD8D4598
:100A3000EF3000689C00BE9903A589FDEF3000648B
:100A40004A858545EFB05056F6406644D64446493F
:100A5000B649264A25618280630305208547630CD9
:100A6000F52089476303F5208D47630CF520C147C6
:100A7000630FF520C5476303F522C9476307F522D5
:100A8000CD476301F524930700106304F524930711
:100A900010106306F524930720106308F5249307CC
:100AA0003010630AF524930700116307F5209307BC
:100AB00010116308F52493072011630BF5249307A5
:100AC0003011630EF524930700206301F526930788
:100AD00010206303F526930720206305F52693076E
:100AE00030206308F52693070021630BF526930752
:100AF0001021630EF526930720216301F528930743
:100B000030216304F528930700226307F528930733
:100B10001022630AF52893070030630DF528930728
:100B200010306300F52A930720306303F52A9307FA
:100B300030306304F52C930700316309F52A9307DD
:100B40001031630EF52893072031630FF52A9307C0
:100B500030316302F52C93070040630CF5169307C0
:100B60001040630EF516930720406300F5189307B5
:100B700030406302F518930700706303F51E930776
:100B800010706306F51E930720706309F51E930726
:100B90003070630CF51E93070071630DF520930709
:100BA00010716300F522930720716303F522930708
:100BB00030716300F5289307058063880712856705
:100BC000138717806309E512138727806301E528DF
:100BD000938737806306F526856713870781630F40
:100BE000E52C138717816304E52C1387278163089D
:100BF000E51E138737816300E52213870790630999
:100C0000E51C13871790630AE51E13872790630975
:100C1000E52813873790630EE52613870791630352
:100C2000E526938717916308F52485671387279135
:100C3000630CE522138737916301E522138707923E
:100C40006301E50C138717926308E5141387279255
:100C5000630BE514938737926306F51C8280930635
:100C60008031014685452145DDB693068031014638
:100C700085452945E9BE93068031014685452545D0
:100C8000F9B693068031014685452D45C9B69306D0
:100C90008031014685451305900855BE9306803185
:100CA000014685451305B0085DB6930680310146BF
:100CB00085451305D00861BE930680310146854500
:100CC0003D4571B693068031014685451305E00820
:100CD000BDBE930680310146854501458DBE930614
:100CE00080310146854505459DB693068031014614
:100CF00085450945A9BE93068031014685450D45C8
:100D0000B9B693068031014685451305300281B698
:100D100093068031014685451305A0020DBE93065A
:100D20008031014685451305B00215B69306803122
:100D300001468545194521BE93068031014685450A
:100D40001D4531B6930680310146854513050002E5
:100D5000FDBC930680310146854513051002C5BCD4
:100D6000930680310146854513056004CDB4930692
:100D700080310146854513057004D1BC930680314E
:100D80000146854513058004D9B493068031014698
:100D900085451305900465BC930680310146854561
:100DA000130540026DB49306803101468545130555
:100DB000500271BC930680310146854513056002DF
:100DC00079B493068031014685451305700241B41C
:100DD0009306803101468545130580028DBC93063C
:100DE0008031014685451305D00695B493068031C0
:100DF000014685451305C00699BC9306803101461E
:100E0000854513059002A1B49306803101468545BE
:100E10001305E0062DBC9306803101468545130578
:100E2000F00635B493068031014685451305F0047C
:100E300039BC93068031014685451305D00401BCB9
:100E400093068031014685451305400409B4930695
:100E50008031014685451145DDBA93068031014652
:100E6000854513057006E5B2930680310146854538
:100E700013055006E9BA93068031014685451305EE
:100E80003006F1B293068031014685451305100600
:100E90007DBA93068031014685451305B00445BAF5
:100EA0009306803101468545130530044DB2930603
:100EB0008031014685451305B00651BA930680314D
:100EC000014685451305900659B29357850055672D
:100ED0001307C74F8A07BA979443454783D7C6027B
:100EE000B385F5026302E5046364E502FD77938749
:100EF000076FAA970D47636DF7009307803E0D8932
:100F0000B3D5F5020A053695C205C1814CD9828058
:100F1000896793870771B3D5F5020D890A05369560
:100F2000C205C1814CD98280E1679387076AB3D536
:100F3000F5020D890A053695C205C1814CD982801A
:100F4000397126DA9354850022DC4ED62A84AE8984
:100F500026858D4506DE4AD832890D25B755010014
:100F60001306900B93850541EF20700B26853525E0
:100F70002285DD3485450545EFB0003093574400A8
:100F800005476388E70445476386E718130710029F
:100F90006388E71A130720026384E714130710031A
:100FA000638FE71A130710076384E71A1307100803
:100FB0006380E714130710096388E71A13072009F1
:100FC0006390E702370701405C4F93E707025CCF6D
:100FD00001A83705160085451305050CEFB0E00A9A
:100FE00083A501834545B3D73503C1839386170095
:100FF000B3863603139707014183B3D5D502139601
:1010000005014182B28533092603630AA40A636499
:10101000A40AFD779387076FA2978D469309803EB8
:1010200063EBF608D5679387C74F8A04BE94844064
:101030009387F5FF4C0026852314F1002312E1006D
:10104000231501002313010023060100EFB06038CF
:1010500033563903C167938707073EC8B7070200B5
:101060008907231A01003ECC02CE0D88231BC10044
:1010700039C885476308F40A89470C082685630048
:10108000F408EFB00067A1452685EFB0007D930519
:1010900000402685EFB0F00126858545EFB0C0728F
:1010A00026858545EFB04070F2506254D2544259C3
:1010B000B25921618280096693090671A5B76166FC
:1010C0009309066A85B70C082685EFB0E03D2685B2
:1010D000A145EFB0A07491452685EFB0A0796DBF12
:1010E00037151A00854513050580EFA0107ACDBD90
:1010F000370701405C4F93E707015CCFD5B5EFB0F0
:1011000040522685A145EFB0207491452685EFB069
:10111000207959B737051800854513050530EFA02C
:10112000D0767DBD0C082685EFB080422685A1458E
:10113000EFB0E06F930500402685EFB0C074A9BF03
:1011400037151A008545130505C0EFA0107449BD79
:10115000370701405C4F93E747005CCF51B58545A9
:101160000565EFA09072ADBD370701405C4F93E776
:1011700007045CCFB5B5411122C426C24AC006C6D9
:10118000AE843284368955C5C1476302F510930792
:1011900000026301F51293070003630AF50E93073B
:1011A0000004630DF514B7550100130690029385F2
:1011B00005480145EF20A06689476386F408C947C2
:1011C0006385F40A930720026388F41093072003D1
:1011D000638DF408930720046387F40EB75501006C
:1011E00013060003938505480145EF2040638547BA
:1011F0006305F406C5476303F4089307100263060A
:10120000F40E930710046304F410930710036307AC
:10121000F4069307F00F6315F4082244B240924499
:101220004A850249930600310146854541016FF028
:101230000FE293068031054685451545EFF02FE115
:101240008947E39EF4F693068031054685451D45A2
:10125000EFF0EFDF8547E31FF4F8930640300546D3
:1012600081451945EFF0AFDE4DBF9306803105464D
:10127000854513055002EFF08FDD95BF9306403092
:101280000546814513054002EFF06FDC79B7930600
:1012900080310546854513053002EFF04FDB29BF4D
:1012A000B755010013068003938505480145EF20DB
:1012B0000057A5B793068031054685451305D00232
:1012C000EFF0EFD8D5BD930680310546854513056F
:1012D000C004EFF0CFD721BF930680310546854586
:1012E0001305F002EFF0AFD619B79306403005466C
:1012F00081451305E002EFF08FD505B793068031E5
:10130000054685451305A004EFF06FD475B5930627
:101310004030054681451305B004EFF04FD3F5BDCD
:101320005D7193182500CAC02A8955651305054FBC
:1013300046954EDE8329050086C6A2C44E85A6C208
:1013400052DC56DA5AD85ED63E8BAE84B28B368AE1
:10135000BA8A4284EFA0D07985450545EFA0D071C7
:10136000C1476309FA0E930700046316FA00930756
:1013700020046385FA16630B090E85476301F9188B
:1013800089476309F916A2865A86D6855285E533C0
:10139000B70704013EC62318010085476380F40E99
:1013A000638C04100947638AE40E8D466385D40874
:1013B00003A441919307F00F335474034204418016
:1013C00063F2870413048003930700206C004E85AA
:1013D000231BF1009D47231C8100231EF100231DC8
:1013E0000100EFA010774E858545EFA0707CB640D8
:1013F000264496440649F259625AD25A425BB25B7D
:10140000616182809307F00763E787069307F00323
:1014100063E3870CFD4763E9870EBD4763E9870EE9
:101420009D4763E8870E8D4763E7870E854763F620
:10143000870E014451BF231AF10003A441912319DF
:10144000E1009307F00F3354740342044180E3EB4F
:1014500087F64DBFC947E390FAF2C547E31DFBF09D
:1014600085450545EFA07042E31909F085450565FE
:10147000EFA0906009BF13040003B9B703A4419122
:1014800023190100231A9100335474039307F00FBA
:1014900042044180E3E887F2B5B703A441912319E0
:1014A0009100231A0100335474039307F00F420490
:1014B0004180E3E987F0B9B703A441912319010002
:1014C000231A0100335474039307F00F4204418040
:1014D000E3EA87EE05BF13048002FDB5930710040D
:1014E000E31BFBE837152000854513050510EFA029
:1014F000D03951B585452165EFA0F05969B58545CD
:101500001165EFA0505941B51304000275BD614447
:1015100065BD414455BD214445BDB7550100130685
:10152000D008938505480145EF20602F71BDD56730
:101530000A059387074FAA9798432316B700835746
:10154000870093F70708E5FF8280D5670A05938730
:10155000074FAA97984393D785002316F700835720
:10156000870093F70708E5FF93F5F50F2316B700FB
:101570008357870093F70708E5FF828093172500BC
:101580001385C1A03E951C4181E70CC105458280B1
:101590003385B74013351500828021C10547630BA1
:1015A000E50209476308E5020D47630EE5021147AE
:1015B000630FE50215476300E50419476301E5047D
:1015C0001D476303E50421476304E50425476306DB
:1015D000E504828085456FA0104C0565854513059F
:1015E00005806FA07049854511456FA0D04A85459B
:1015F00021456FA0504A854541456FA0D04985459A
:10160000130500026FA03049854509656FA0D046DB
:101610008545370508006FA0304685453705100021
:101620006FA09045411122C406C62E8441C9894746
:10163000630BF516C147630BF512C947630AF51A28
:10164000930700026305F51C93072002630AF5184F
:1016500093074002630CF51C930700046302F5181E
:10166000930720046302F520930700056305F52224
:10167000930720056300F5249377D5FF1307000631
:101680006383E720930700076301F51C9307200796
:10169000630EF524930740076308F52693070008B7
:1016A0006303F528930720086310F502E14601461D
:1016B00085451305E008EFF08F9939A0E146014612
:1016C00085452545EFF0AF9885476307F4088D47BA
:1016D0006300F40CC5476300F40ECD476307F40EB6
:1016E00093071002630EF410930730026307F408A7
:1016F000930750026305F41293071004630FF40676
:1017000093073004630BF414930710056306F41673
:10171000930730056309F418930710066304F41A5D
:10172000930730066307F41A930710076308F41051
:10173000930730076306F41A93075007630FF41AF0
:1017400093071008630AF41C930730086305F41E1E
:10175000B2402244410182809306800401468145C3
:1017600029452244B24041016FF06F8EE1460146A7
:1017700085450945EFF0AF8D81BF2244B240930605
:101780008004014681451305B00441016FF02F8CA0
:101790002244B2409306800401468145130570023D
:1017A00041016FF0CF8AE14601468545130560028D
:1017B000EFF0EF8911BF2244B24093068004014646
:1017C00081450D4541016FF08F882244B240930658
:1017D0008004014681451305600641016FF02F87A3
:1017E000E146014685451305A004EFF04F86E9BDAB
:1017F000E1460146854513055006EFF04F85E9B5F2
:1018000093068004014681451305B00299BFE14665
:10181000014685451305A002EFF06F8375B5930669
:101820008004014681451305900625BFE146014627
:10183000854513058006EFF08F8179B59306800406
:10184000014681451305300429BFE146014685451F
:1018500013052004EFE0BFFF85BD93068004014619
:10186000814513051002F5BDE14601468545130586
:101870000002EFE0DFFD89BD93068004014681454B
:1018800013052006F9BDE146014685451305000410
:10189000EFE0FFFB15BDE146014685451305C00499
:1018A000EFE0FFFA15B59306800401468145130564
:1018B000900845BDE1460146854513058008EFE0E7
:1018C0001FF919B5930680040146814513051004DC
:1018D00049BD93068004014681451305B00851B502
:1018E00093068004014681451D45A5BDE14601469C
:1018F00085451945EFE0BFF5C1BB9306800401465D
:1019000081451305D008B1BDE14601468545130563
:10191000C008EFE0DFF34DBB93068004014681452C
:10192000130550043DBDE1460146854513054004BD
:10193000EFE0FFF151BB930680040146814513059A
:10194000F00805B51DC6D5670A0593874752AA97C3
:1019500098432E96850583C6F5FF8357070093F7B6
:101960000708E5DF93970601C1832312F700E3938D
:10197000C5FE8280D5671317250093874752411112
:10198000BA9726C2AA84884322C42E862E84930541
:10199000505206C6EFB0E0081385818426950345B2
:1019A0000500B7E700E0AA972380074019C4224446
:1019B000B240924441016F20606C2244B240924494
:1019C00041016F20406DD5670A0593874752AA975A
:1019D00098438357070093F7070299E301458280F4
:1019E0008357470005452380F5008280797122D412
:1019F0004ECE2A84AE890545854506D626D24AD0E4
:101A0000B2843689EFA05007CA85268521398947D7
:101A1000638DF414C9476382F4069307200263863A
:101A2000F40A93074002638DF40A93072004638548
:101A3000F40C93072005639AF40C93073005630CAC
:101A4000F91821C48547630AF4148947630DF41417
:101A50008D476300F41691476303F41695476306B8
:101A6000F41699476300F4189D476314F402854502
:101A700013050010EFA0300229A8CD47E313F9FCAD
:101A800085452145EFA0606055FC85451165EFA0B7
:101A9000A07ED567938747520A043E9400408A850A
:101AA000B7070C0022854EC03EC42316010002C2B7
:101AB000EFA0706422858545EFA0B074B250225427
:101AC00092540259F2494561828093073002E31A29
:101AD000F9F63705140085454105EFA0005B95B781
:101AE00093075002E31FF9F43705140085451305E9
:101AF0000503EFA08059B1B793073004E313F9F45D
:101B000085450565EFA060582DBF93072006639EAD
:101B1000F40093073006E316F9F237150080854587
:101B200013050580EFA0605629BF93072007639E29
:101B3000F40093073007E316F9F0370701405C4FD4
:101B4000B7064000D58F5CCFEDBD93074007639685
:101B5000F40293075007E316F9EE370701405C4F94
:101B6000B7068000D58F5CCFE9BD8D47E31BF9EC4C
:101B700085451145EFA06051E9B593072008E39230
:101B8000F4EC93073008E31EF9EA370701405C4F95
:101B9000B7060002D58F5CCF6DB5854537050200CD
:101BA000EFA0606FFDB5854537050400EFA0A06E7E
:101BB000CDB5854537050800EFA0E06DD9BD854559
:101BC00037051000EFA0206DE9B585451305000429
:101BD000EFA0606C7DBD3705200085450505EFA0B1
:101BE000C04A85B5854513050008EFA0C06A55B504
:101BF000011122CC9385518E154506CE26CA4AC8BE
:101C00004EC6D13305469385518E138541A5EF10FD
:101C1000104A1384018E184085476309F700F2408B
:101C20006244D2444249B249056182801389418E9F
:101C300083450900938941A393F5F50F9387150018
:101C400093F7F70F81461386018ECE95138541A534
:101C50002300F900EF105051834709000D47E3704E
:101C6000F7FC83450900375501001146F115CE9563
:101C700013054554EF10010C5DF189471CC045B7B1
:101C8000011122CC9385D18E194506CE26CA4AC8A9
:101C90004EC6153B05469385D18E138581A8EF105E
:101CA00010411384818E184085476309F700F24084
:101CB0006244D2444249B249056182801389C18E8F
:101CC00083450900938981A693F5F50F9387150045
:101CD00093F7F70F81461386818ECE95138581A8E1
:101CE0002300F900EF105048834709000D47E370C7
:101CF000F7FC83450900375501001146F115CE95D3
:101D000013054554EF1001035DF189471CC045B729
:101D100083A7819009476388E7000D476388E70040
:101D200011476383E70082806F10607E6F10E0547C
:101D300083A7819011476386E7000D476385E7001D
:101D400082806F1010036F10805901115AC006CEA7
:101D500022CC26CA4AC84EC652C456C2138BA18092
:101D600083470B00375401002E8AB2849305C45474
:101D7000130620052A893335F500B689938AB18088
:101D8000EF10F02903C50A009305C454130630056B
:101D90003335AA00EF10B02803450B009305C45457
:101DA0001306400533B5A400EF10702703C50A00E1
:101DB0009305C4541306500533B5A900EF1030261F
:101DC00083A74180556703248739E1CB05476380AA
:101DD000E71A930A004023285401056B130989026E
:101DE00093848402130B0B80232A54014209C204FA
:101DF0000947232A640113590901C1809305A002F0
:101E00000545638BE710EFF08FF223286401232848
:101E100054010545CA85232A5401EFF00FF3A68526
:101E20000545EFF08FF223285401232A540193052E
:101E3000B0020545232A6401EFF06FEF93054A03D2
:101E40002328640123285401C205C1810545232AA2
:101E50005401EFF08FEF93854903C205C181054519
:101E6000EFF0AFEE23285401232A5401232A640102
:101E70009305C0020545EFF08FEB2328640123286A
:101E80005401232A5401F2406244D2444249B249E7
:101E9000224A924A024B05618280930A004023281D
:101EA0005401056B130B0B80232A54019305A002E8
:101EB0000545232A6401EFF08FE7930549032328A2
:101EC000640123285401C205C1810545232A540118
:101ED000EFF0AFE793854403C205C1810545EFF0FC
:101EE000CFE623285401232A54019305B002054567
:101EF000232A6401EFF0AFE393058A0223286401EB
:101F000023285401C205C1810545232A5401EFF05D
:101F1000CFE39385890291B7EFF06FE12328640145
:101F2000232854010545CA85232A5401EFF0EFE127
:101F3000A6850545EFF06FE123285401232A5401BB
:101F40009305B0020545232A6401EFF04FDE9305A7
:101F50005A032328640123285401C205C181054581
:101F6000232A5401EFF06FDE93855903FDB5930AE0
:101F7000004023285401056B130B0B80232A5401C6
:101F80009305A0020545232A6401EFF04FDA93057B
:101F900059032328640123285401C205C181054542
:101FA000232A5401EFF06FDA9385540335B7797122
:101FB00022D4375401001306B0089305C4540545D4
:101FC00006D64AD04ECE26D252CC56CA5AC85EC683
:101FD00062C466C2EF10B0041306C0089305C4546F
:101FE0000545EF10D00303A641919307F00F1307A7
:101FF00020021308F00F9306000205828145054573
:10200000EFF00FB2C146014685451305B006EFE07B
:102010001F84C146014685451305C006EFE03F8396
:10202000C146014685451305A006EFE05F82C14623
:102030000546854513056004EFE07F8113894180E3
:1020400003270900854763FEE742930670081307DC
:10205000000F83A741918964938404F4B3D7970256
:102060001305800C556603248639856C8145138AD7
:10207000B180938AA180232A94012300DA0023806F
:10208000EA00930B4006130B0040138C0C80338541
:10209000A702EFE06FBD03A541918145232894017C
:1020A0003355950233057503EFE00FBC2328640117
:1020B000232A6401930560030545232A8401EFF078
:1020C0000FC703A5419123288401232864013355B8
:1020D0009502232A6401814533057503EFE0CFB8EB
:1020E000832709006384073A0547638CE73A094769
:1020F0006383E73A9305000A0545EFF04FC3930465
:10210000004004C805691309098044C8232A240132
:102110009305A0030545EFF08FC12328240104C8CF
:102120009545054544C8EFF08FC004C844C8232A2C
:1021300024019305200B0545EFF06FBF23282401F0
:1021400004C8B145054544C8EFF06FBEB14505452B
:10215000EFF0EFBD81450545EFF06FBD930530030E
:102160000545EFF0CFBC930530030545EFF02FBCDC
:1021700004C844C8232A24019305700B0545EFF0D9
:102180000FBB2328240104C893055003054544C808
:10219000EFF0EFB904C844C8232A24019305B00B1B
:1021A0000545EFF0CFB82328240104C89305700338
:1021B000054544C8EFF0AFB704C844C8232A24013A
:1021C0009305000C0545EFF08FB62328240104C8C1
:1021D0009305C002054544C8EFF06FB504C844C874
:1021E000232A24019305200C0545EFF04FB4232842
:1021F000240104C88545054544C8EFF04FB304C821
:1022000044C8232A24019305300C0545EFF02FB272
:102210002328240104C8C945054544C8EFF02FB15F
:1022200004C844C8232A24019305400C0545EFF057
:102230000FB02328240104C893050002054544C8B3
:10224000EFF0EFAE04C844C8232A24019305600CC4
:102250000545EFF0CFAD2328240104C8BD45054551
:1022600044C8EFF0CFAC04C844C8232A2401930526
:10227000000D0545EFF0AFAB2328240104C89305FA
:10228000400A054544C8EFF08FAA9305100A05459A
:10229000EFF0EFA904C844C8232A24019305000ED7
:1022A0000545EFF0CFA82328240104C89305000DAD
:1022B000054544C8EFF0AFA791450545EFF02FA7BE
:1022C000B5450545EFF0AFA6C5450545EFF02FA68E
:1022D000CD450545EFF0AFA59305B0020545EFF0FC
:1022E0000FA59305F0030545EFF06FA49305400596
:1022F0000545EFF0CFA39305C0040545EFF02FA3EC
:10230000E1450545EFF0AFA2B5450545EFF02FA239
:10231000AD450545EFF0AFA1FD450545EFF02FA117
:10232000930530020545EFF08FA004C844C8232A66
:1023300024019305100E0545EFF06F9F232824011B
:1023400004C89305000D054544C8EFF04F9E914524
:102350000545EFF0CF9DB1450545EFF04F9DC545D3
:102360000545EFF0CF9CCD450545EFF04F9C93051B
:10237000C0020545EFF0AF9B9305F0030545EFF074
:102380000F9B930540040545EFF06F9A93051005E8
:102390000545EFF0CF999305F0020545EFF02F9931
:1023A000FD450545EFF0AF98FD450545EFF02F9849
:1023B000930500020545EFF08F9793053002054520
:1023C000EFF0EF9604C844C8232A240193051002B5
:1023D0000545EFF0CF952328240104C844C804C85C
:1023E00044C8232A2401C5450545EFF04F9403A5B1
:1023F00041918967938707F43355F5022328240117
:1024000004C8814544C8931745003385A7400E058D
:10241000EFE08F8504C844C8232A24019305900265
:102420000545EFF0CF9003C60A0083460A00232833
:10243000240104C83309D602FD167D16C2064206E1
:1024400044C8B7070020C18241828145014503D4B9
:10245000073EEFF09F8F630909007D19A2850545AE
:10246000EFF0AF8EE31B09FEB25022549254025992
:10247000F249624AD24A424BB24B224C924C4561DD
:1024800082809306000F13077008E1B68145054569
:10249000EFF0EF89ADB1930500070545EFF02F8907
:1024A000B9B99305000C0545EFF06F8889B9411162
:1024B00022C403C4A18083C6B1801306F4FF420680
:1024C0003304D402FD16C20626C2C182AA84418208
:1024D0008145014506C6EFF05F8719C47D14A685C6
:1024E0000545EFF08F867DF8B240224492444101C9
:1024F000828083C7A18001114AC83759010022CCCC
:1025000026CA4EC6AE842A84B2899305C95433358F
:10251000F5001306F01206CEEF10603003C5B1804F
:102520009305C9541306001333B5A400EF10202FF0
:10253000A6852285A6862286EFF03F816244F2407E
:10254000D2444249CE85B249054505616FE0FFFF9F
:1025500083C7A18079714AD03759010026D256CA63
:1025600062C4AE8A2A8C9305C9543335F500B2840F
:102570001306001406D64ECE52CC5AC85EC622D4DC
:10258000EF10E02903C5B1809305C9541306101458
:1025900033B5AA00EF10A028938704FE5567920771
:1025A000130707663389E700920A930B7C00B38A0E
:1025B0002A414107C20BC20A93DB0B01330BF70020
:1025C00093DA0A01370A0020B3862A01C206C182C3
:1025D0005E86B6856285EFF04FF72144834409009B
:1025E00011A883D581807D141374F40FEFE0FFF5FB
:1025F000858019CC93F714000545E5F783550A3E0D
:102600007D1405451374F40FEFE03FF485807DF0F1
:102610000509E31B69FBB250225492540259F24956
:10262000624AD24A424BB24B224C4561828083C7F8
:10263000A180011126CAB754010022CC4AC84EC657
:102640002E89B2899385C4541306F0152A84333534
:10265000F50006CEEF10A01C03C5B18013060016CE
:102660009385C4543335A900EF10601B038609001D
:1026700005C2814485042285CA85C204D13DC1803A
:10268000B3879900038607002104420441807DF24C
:10269000F2406244D2444249B2490561828083C714
:1026A000A180797122D4375401004AD04ECE52CC49
:1026B00032892E8A130640179305C454AA893335EC
:1026C000F50006D626D2EF10801503C5B18013069B
:1026D00050179305C4543335AA00EF104014634BD0
:1026E000090613060002D2854E85EFF07FE62947E2
:1026F000B347E902930640061384890093890902CF
:102700004204C2096400418093D90901B346D90249
:10271000B3E7E7022306D1003369E902A306F1001B
:102720002307210103C604002285210413060603A2
:1027300062064204D28561864180EFF07FE1850424
:10274000E39289FEB250225492540259F249624AED
:1027500045618280330920411306D002D2854E851F
:102760006209EFF0FFDE1359894151B783C7A18099
:10277000797126D2B754010022D44AD052CC328982
:102780002A842E8A3335F5009385C45413066019C4
:1027900006D64ECEEF10A00803C5B1809385C45471
:1027A000130670193335AA00EF1060072947B35795
:1027B000E9029306400693098401C209640093D993
:1027C0000901B356D902B3F7E7022306D1003379E2
:1027D000E902A306F1002307210103C604002285B4
:1027E00021041306060362064204D28561864180F5
:1027F000EFF01FD68504E39289FEB2502254925422
:102800000259F249624A4561828083C7A180797189
:1028100026D2B754010022D44AD04ECE3289AE8996
:102820001306201B9385C4542A843335F50006D63D
:1028300052CCEF00D07E03C5B1801306301B9385C8
:10284000C45433B5A900EF00907D6348090813060E
:102850000002CE852285EFF0BFCF9306803EB346BF
:10286000D902A94713074006096613060671210419
:10287000420424004180130AD1003347E902B345E2
:10288000F902B3E6F6023346C902A304D100336766
:10289000F7022304C100B3E6F5022305E100336922
:1028A000F902A305D1002306210103C604002285F5
:1028B0002104130606036206CE8561864204850460
:1028C000EFF01FC94180E3129AFEB2502254925495
:1028D0000259F249624A4561828033092041130658
:1028E000D002CE8522854209EFF09FC613590941D7
:1028F000ADB783C7A180797126D2B754010022D425
:102900004AD04ECE3289AE891306701D9385C454C9
:102910002A843335F50006D652CCEF00507003C53B
:10292000B1809385C4541306801D33B5A900EF0010
:10293000106F9306803EB356D902A947130740068D
:102940000966130606712400130AD1003357E90201
:10295000B355F902B3F6F6023356C902A304D10007
:102960003377F7022304C100B3F6F5022305E10033
:102970003379F902A305D1002306210103C604001F
:1029800022852104130606036206CE856186420471
:102990008504EFF0FFBB4180E39244FFB250225424
:1029A00092540259F249624A456182801D71D6C231
:1029B000938AA18083C70A00D2C4375A0100A2CCEF
:1029C000CAC8DAC05EDE2E892A849305CA5433351C
:1029D000F500B28B1306701F86CEA6CACEC6138B27
:1029E000B180B689EF00B06303450B001306801F6A
:1029F0009305CA543335A900EF007062A947A94472
:102A000063E4370193F4F90F93891400B75501007B
:102A100093F9F90F5E869385455C63C00B0A9307B3
:102A200000021305D1002306F100EF10A0010505F7
:102A30001375F50F637D35013386A4401376F60FC9
:102A40007C000506930500023E95EFD0AFFC03C560
:102A50000A001C18BE991306F0159305CA543335A5
:102A6000A400238E09FCEF00905B03450B001306C6
:102A700000169305CA543335A900EF00505A0306D7
:102A8000C100814405C22285CA858504EFF05FAC90
:102A9000C204C1801C18A6970386C7FD2104420406
:102AA000418075F2F6406644D6444649B649264A06
:102AB000964A064BF25B256182806800EF009078B1
:102AC0001375F50F85BF1D71DAC0138BA180034804
:102AD0000B00A6CAB7540100A2CCCAC8D2C4D6C241
:102AE0002E8A2A849385C45433350501328913060E
:102AF000102286CECEC65EDE62DCBE8B66DAB6897A
:102B0000BA8C938AB180EF00905103C50A00130676
:102B100020229385C4543335AA00EF0050509947C2
:102B2000194C63E4770113FCFB0FA94793FBFC0FDF
:102B300063F39701A94B01468146CE854A85EFD0C4
:102B40004075B75501004A86CE869385055C634D76
:102B5000050E1305D100EF00F06E1307A5FF1377E4
:102B6000F70F93CBFBFFBA9B050C629793FBFB0F10
:102B70001377F70F139C8B01931C8701135C8C4117
:102B800093DC8C41635C0C023307774162076187F9
:102B9000E687130600021418BE968507E207238E07
:102BA000C6FCE187E399E7FEB38C7C41330C7C41A2
:102BB000E20C620C93DC8C41135C8C410146814633
:102BC0004A85CE85EFD0E06C634A050A1C183E9C0E
:102BD00093070002230EFCFC03450B001C18938591
:102BE000C454BE9C1306F0153335A400238E0CFC90
:102BF000EF00F04203C50A00130600169385C45483
:102C00003335AA00EF00B0410306C100814405C27C
:102C10002285D2858504EFF0BF93C204C1801C18C1
:102C2000A6970386C7FD21044204418075F2F64051
:102C30006644D6444649B649264A964A064BF25B54
:102C4000625CD25C256182806800EF00B05F130790
:102C500095FF1377F70F93CBFBFFBA9B050C629799
:102C600093FBFB0F1377F70F139C8B01931C8701CA
:102C7000135C8C4193DC8C41E3480CF01C183E9CA7
:102C80009307D002230EFCFC81BF03C3A1803971DE
:102C900052D4375A010022DC4ED662CCAE892A8447
:102CA0009305CA5433356500328C1306802706DE3F
:102CB00026DA4AD85AD05ECE428B66CAB684BE8C1B
:102CC00056D26AC86EC6BA8B4689EF00503503C526
:102CD000B180130690279305CA5433B5A900EF00BD
:102CE00010349306FBFF1386FCFFCE962296C20695
:102CF0004206C1824182CE852285EFF00F856306B0
:102D00000B04C169814A014AFD1933D46A03638AFD
:102D10000C02814D014D33848402629463060904E0
:102D200033D79D03CE85054522978347070063F47B
:102D3000270181450545050DEFE03F81A69DE31183
:102D40009DFF050ADE9AE3126AFDF2506254D254E6
:102D50004259B259225A925A025BF24B624CD24CFF
:102D6000424DB24D21618280B3D79D03050D0545CB
:102D7000A69DA29703C70700935537000983939731
:102D8000B50016075D8FD98DEFE02FFCE31E9DFD8A
:102D90004DBF797152CC56CA5AC85EC6930AF5FF28
:102DA000930BE5FF130A1500130B2500C20BC20A93
:102DB000420A420B26D24AD04ECE06D622D462C454
:102DC00066C26AC02A89AE89B284814793DB0B014F
:102DD00093DA0A01135A0A01135B0B010DA08D4708
:102DE000638DF4089547638BF41405044204418015
:102DF0009317040113077008C1876302E406139454
:102E0000070105474180E39CE4FC03C5A180375CD2
:102E100001009305CC543335A9001306F012EF00DE
:102E2000102003C5B1809305CC541306001333352D
:102E3000A400EF00D01EA286A2854A864A85EFE054
:102E4000DFF00504CE8505454204EFE00FF0418038
:102E50009317040113077008C187E312E4FAB25014
:102E6000225492540259F249624AD24A424BB24B1E
:102E7000224C924C024D45618280138DA180034506
:102E80000D00375C01009305CC5433B5AA0013063E
:102E9000F012EF00D018938CB18003C50C0093059D
:102EA000CC54130600133335A400EF005017A2864C
:102EB0005686A2855685EFE05FE9CE850545EFE0B1
:102EC000CFE803450D009305CC541306F0123335BB
:102ED000A900EF00D01403C50C009305CC541306D1
:102EE00000133335A400EF009013A2864A86A28512
:102EF0004A85EFE09FE5CE850545EFE00FE5034508
:102F00000D009305CC541306F0123335AA00EF00E0
:102F1000101103C50C009305CC5413060013333570
:102F2000A400EF00D00FA2855285A2865286EFE062
:102F3000DFE1CE850545EFE04FE145BD138DA18072
:102F400003450D00375C01009305CC5433B5AB004D
:102F50001306F012EF00B00C938CB18003C50C0087
:102F60009305CC54130600133335A400EF00300B47
:102F7000A2865E86A2855E85EFE03FDDCE850545B3
:102F8000EFE0AFDC03450D009305CC541306F012BF
:102F900033B5AA00EF00B00803C50C009305CC546C
:102FA000130600133335A400EF007007A28656867F
:102FB000A2855685EFE07FD9CE850545EFE0EFD8B5
:102FC00003450D009305CC541306F0123335A900C8
:102FD000EF00F00403C50C009305CC541306001356
:102FE0003335A400EF00B003A2864A86A2854A8545
:102FF000EFE0BFD5CE850545EFE02FD503450D00A9
:103000009305CC541306F0123335AA00EF003001BB
:1030100003C50C009305CC54130600133335A400EC
:10302000EF00E07FA2865286A2855285EFE0FFD1B5
:10303000CE850545EFE06FD103450D009305CC54D7
:103040001306F0123335AB00EF00607D03C50C00B2
:103050009305CC54130600133335A400EF00207CF5
:10306000A2855A85A2865A86EFE03FCECE850545D9
:10307000EFE0AFCD9DBB03C3A180397152D4375A65
:10308000010022DC4ED666CAAE892A849305CA5452
:1030900033356500B28C1306403606DE26DA4AD890
:1030A0005AD05ECE428B6AC8B6843E8D56D262CC70
:1030B0006EC6BA8B4689EF00807603C5B1801306D1
:1030C00050369305CA5433B5A900EF0040759306F6
:1030D000FBFF1306FDFFCE962296C2064206C18272
:1030E0004182CE852285EFE05FC6630A0B04C16989
:1030F000814A014AFD1933D46A03630E0D02930716
:10310000801C014C814D3304F40266946308090469
:103110003357AC03CE8505450A072297184303476A
:1031200007006374270181450545850DEFE0EFC178
:10313000269CE39FADFD050ADE9AE31E6AFBF25072
:103140006254D2544259B259225A925A025BF24BFB
:10315000624CD24C424DB24D21618280B357AC03D8
:10316000850D0545269C8A07A2979C4303C7070047
:103170009355370009839397B50016075D8FD98D56
:10318000EFE0AFBCE39CADFD7DB7397122DC26DA00
:103190004ED656D25AD093070008B70900207D7B3F
:1031A00089644AD852D45ECE62CC06DE2315F10083
:1031B0009389C900014A1384C18F130B5B1A930BC7
:1031C0000008938404F4938A818F254C83D70900E7
:1031D00011466C0013978700A183D98F11452317DF
:1031E000F10023166101EFE0EFF52315710183472C
:1031F000040093F7F70F91CF0DA803A541918145E6
:1032000033559502EFD04FA68347040093F7F70F8D
:1032100089EF8357A1001387F7FF42074187C20751
:10322000C1872315E100E34AF0FC8357A100C207E0
:10323000C1876355F00283C71A0003C72A00050A35
:10324000A207D98F420A2391F90023000400135AE0
:103250000A019109E31C8AF7014521A0E31D0AFC3C
:103260000545F2506254D2544259B259225A925AE8
:10327000025BF24B624C21618280411122C41384B3
:10328000B18F8345040026C29384818FA695114592
:1032900006C6EFE04FF38347040011C5850793F797
:1032A000F70F2300F4000547638EE7008D46639611
:1032B000D70023000400238EE18EB24022449244C2
:1032C0004101828003C704009307500AE307F7FE19
:1032D00023000400B240224492444101828083A62C
:1032E000018FB707055094C78546238AD18E03C73F
:1032F0000700136717002380E700828039710D45AE
:1033000006DE22DC4ED626DA4AD852D456D2896955
:1033100041241306000593061005938509581145AD
:10332000EFE0CFEC85451145EFE0CFE40145EF003C
:1033300050591384C18F23000400EFF01FE51306DA
:10334000E0146312051A2300040093070008B70471
:103350000020231DF1009384040323000400938ABA
:103360008402130A50FA938909F483D7240083D680
:1033700004006C0813978700A183D98F114511466B
:10338000230E4101A30ED100231FF100EFE08FDBDC
:1033900003A5419191048145335535030605EFD0CE
:1033A000AF8CE3949AFC8347040093F7F70FA9EBE3
:1033B0008357A1011387F7FF42074187C207C187DF
:1033C000231DE100635EF0028964938404F429A85C
:1033D0008357A1011387F7FF42074187C207C187BF
:1033E000231DE100635EF00003A541918145335543
:1033F0009502EFD06F878347040093F7F70FE9DB5F
:103400009384818F03C7140083C7240093060008A8
:10341000231DD100F98F230004001307F00F638EE2
:10342000E7048357A1011387F7FF42074187C207CB
:10343000C187231DE1006352F0048969938909F46F
:10344000130AF00F29A88357A1011387F7FF42073A
:103450004187C207C187231DE1006350F00203A525
:103460004191814533553503EFD00F8083C7140058
:1034700003C72400F98FE39847FD8357A101C207D2
:10348000C1876350F00623000400EFF01FD02A84A8
:1034900025EDEF00904391473EC495473EC29947C2
:1034A0003EC09306900413068004A9452545930861
:1034B000900213088002930760021307B004EFC064
:1034C0005FFD3705002019661307C567854613069B
:1034D000068281451305C56723A8E18EEFD02F88AA
:1034E00011A813065015B75501009385855C014559
:1034F0003D2605442285F2506254D2544259B259B5
:10350000225A925A216182801306D015E9BF4111D7
:1035100022C4138441908345040026C29384019001
:10352000A695114506C6EFE00FCA8347040011C5F2
:10353000850793F7F70F2300F4000547638EE70034
:103540008D466396D70023000400A381E190B2402A
:10355000224492444101828003C704009307500A29
:10356000E307F7FE23000400B240224492444101E5
:10357000828083A6018FB707055094C78546A38E26
:10358000D18E03C70700136717002380E7008280EE
:1035900023A4A190828023A6A1908280411122C4FD
:1035A00093850191154506C6EFE0EFC19385019122
:1035B0002244B2403765002005461305C5ED4101A0
:1035C000FDA44111054506C6EFF0FFFCB7650020DC
:1035D00037650020130600049385C5E91305C5ED82
:1035E0005D2C93068004054681450945EFD02FA642
:1035F000F165930610061306000693850520154510
:10360000EFE0CFBE15458545EFE0CFB6B2400145AE
:103610004101828023AAA190B71702409843B706C0
:10362000FFF841111367170098C3D84337180240B9
:10363000B7050200758FD8C39843B706F7FEFD168D
:10364000758F98C39843B706FCFFFD16758F98C316
:10365000D843B70681FFFD16758FD8C337079F0083
:1036600098C702C402C69843C16613060050558F1E
:1036700098C321A0A247638BC70083270800ED8F62
:103680003EC6A24785073EC4B247EDD7B7170240F2
:103690009C431397E7006359070085473EC63247AE
:1036A00085476308F70001A002C632478547E31C3F
:1036B000F7FE37366E011307F5FF13060660335722
:1036C000C702B72602408C42B717024093E50501B6
:1036D0008CC203A80600B7157A00938505201378DD
:1036E000C8FF23A0060103A806001D8B336707014E
:1036F00098C2D843D8C3D843D8C3D843D8C36301EA
:10370000B50AD843B706C1FFFD16758FD8C3374732
:103710009508130707406302E504371727071307C7
:1037200007E06300E50A37E7B8051307078063067B
:10373000E50A37A74A0413070720630AE508377725
:10374000DC02130707C06300E50A631CC500D84309
:10375000B7060500558FD8C329A0D843C166558F39
:10376000D8C3B7160240984237060001B717024087
:10377000518F98C2984393166700E3DD06FED0434D
:10378000B71602402147719AD0C3D0431366260072
:10379000D0C3DC42B18BE39EE7FE41016F00101203
:1037A000D043B71602401147719AD0C3D043136675
:1037B0001600D0C3DC42B18BE39EE7FE41016F00EF
:1037C000F00FD843B7063900558FD8C359BFD84337
:1037D000B7061D00558FD8C369B7D843B70629006F
:1037E000558FD8C3BDBFD843B7061100558FD8C376
:1037F0008DBFF165411193061006130600069385EF
:103800000520154506C6EFE06F9E85451545EFE09E
:103810006F96B2400547238CE1904101828019E9FF
:1038200083C78191411106C699E7EF00100A010094
:103830000100F5BF82803755010013050564EFF0E4
:10384000204AEF009008E5B701114EC606CE22CC03
:1038500026CA4AC8B2896358C002D56703A48753F1
:10386000AE843389C500930500042285EF90C01F04
:103870007DD985048385F4FF2285C205C181EF903F
:10388000001EE39224FFF24062444E85D244424936
:10389000B2490561828091C90CC12322050023240D
:1038A000050050C510C901458280054582805C45F0
:1038B000637AF60A011126CAAA8422CC4AC84EC6E7
:1038C00052C456C206CE2E8A3289EF00100083AA57
:1038D0000401C0408840B3898A4063F629074E86B8
:1038E000D2852295EFE07015D84094484E97D8C005
:1038F0006366D700158FE37FD7FED8C088404A940F
:10390000330454413A952286B3053A01EFE0F012B0
:10391000DC409848A297DCC063E6E700998FE3FF9C
:10392000E7FEDCC0D04401453309264123A624012B
:10393000492FF2406244D2444249B249224A924A53
:103940000145056182804A86D2852295EFE0F00E1E
:10395000DC409848CA97DCC0E3E6E7FC998FE3FFB8
:10396000E7FEC1B70945828001114AC85C450329B9
:1039700005014EC6B289104222CC26CA5AC006CED4
:1039800052C456C2B307F9402A842E87368B81442D
:1039900063F8C70023A0F900032905013E8685448A
:1039A000032A8400B30A494163E7CA0211C70C40E5
:1039B0003A85D295EFE0700863010B04F24062444F
:1039C000330590404249D244B249224A924A024BBE
:1039D0000D89056182806DD30C4056863A85D2955B
:1039E000EFE0B00503A609000C4056955296330649
:1039F0002641EFE09004E3130BFCC12D83A70900DF
:103A000014441848B6971CC463E6E700998FE3FF97
:103A1000E7FE1CC45C4403A709000145BA975CC4D7
:103A20004D2569BF01112AC6B24711671307076503
:103A3000B387E7023ECEF2471387F7FF3ACEE5FFA2
:103A40000561828035713AC986DEA2DCA6DACAD861
:103A5000CED6D2D4D6D2DAD0DECEE2CCE6CAEAC80E
:103A6000EEC632C536C73ECB42CD46CF8387050072
:103A700038013ACCB5C337670100130DC101D964D1
:103A8000054AAE8A2A84032907DA832947DA814C5A
:103A9000930D5002938404C5330AAA4119A8628782
:103AA0002300F400568C0504850CBA8A83071C0099
:103AB0008DC7138C1A00E394B7FF83871A0013078E
:103AC0003005890A9387B7FD93F7F70FE360F7FE98
:103AD0008A07A6979C438287814CF6506654668578
:103AE000D6544659B659265A965A065BF64B664C3A
:103AF000D64C464DB64D0D618280E2479843910702
:103B00003ECC83070700DDD3B3868C402300F4004E
:103B10000507830707000504B30CD400E5FB79B75C
:103B20006247EA8625481C4311073ACC3D4519A057
:103B30008506BA8713F7F7009375F70F1386050309
:103B40006374E800138675032380C60013D747000B
:103B5000E360F5FE030831028348C10183052102B9
:103B60000345D101830611020346E10183070102E7
:103B70000347F10123000401A300B4002301D40092
:103B8000A301F4002302E400A302C4002303A40061
:103B9000A3031401A3011103230E01012301A102B8
:103BA000A30EB100A300C102230FD1002300E10244
:103BB000A30FF1002104A10CD5BDE2471D46984397
:103BC00091073ECC9377770093870703230EF1008C
:103BD00093563700637EE6426A879D4511A0B28600
:103BE000050713F6760013060603B307A7418507FA
:103BF0002300C70093F7F70F13D63600E3E1D5FE95
:103C000093D517003E8B95C11387F7FF6A97EA8714
:103C1000EA95038607008306070085072300C7008F
:103C2000A38FD7FE7D17E396F5FE22855A86EA8597
:103C3000EFE0A0605A94DA9C95BD6247A94603283C
:103C4000070011073ACC1357F841B3470701998F82
:103C500033E7D702B3C7D70213070703230EE100E8
:103C6000638A073C85456A86294511A0BA85B3E673
:103C7000A7020506138715001377F70FB3C7A7022E
:103C8000938606032300D600F5F3634908283A8B90
:103C900093551700D9D91307FBFF6A97EA87EA956E
:103CA000038607008306070085072300C700A38F4C
:103CB000D7FE7D17E396F5FE22855A86EA85EFE06A
:103CC000C0575A94DA9CDDB3E2470504850C98434B
:103CD00091073ECCA30FE4FED1BBE2466A8725489C
:103CE0009C42910636CC3D4519A00507B68793F650
:103CF000F70013F6F60F930506036374D8009305D7
:103D00007603330647012300B70093D64700137BA1
:103D1000F60FE36CF5FC93551B0081D91307FBFFED
:103D20006A97EA87EA9503860700830607008507F6
:103D30002300C700A38FD7FE7D17E396F5FE2285EB
:103D40005A86EA85EFE0604F5A94DA9C85B3E247E1
:103D50009D07E19B03AB070083AB4700A1075A8592
:103D6000DE853ECCEFD0A01D1357F541B347A70029
:103D7000998FA94633E7D7022A88B3C7D70213071A
:103D80000703230EE1006381072C85486A86A94555
:103D900011A0BA88B3E6B702050613871800137797
:103DA000F70FB3C7B702938606032300D600F5F3D7
:103DB000014681465A85DE8546C63AC442C2EFC0F6
:103DC000404D12482247B24863460516BA889355BB
:103DD000170095C11387F8FF6A97EA87EA9503866B
:103DE00007008306070085072300C700A38FD7FEBF
:103DF0007D17E396F5FE4686EA85228546C242C4D3
:103E0000EFE0A04322484285EFD0E0192A86AE8633
:103E10005A85DE85EFC0D01E4A86CE86EFC0C052DE
:103E20009248014681462A8BAE8B4694C69CEFC0D1
:103E3000C034631D0510B7373030938707033ECE7B
:103E40008D67938707032310F1029307E002230194
:103E5000F10299450D451D4BEA95AE876A87030629
:103E6000070083860700FD170507A380C700A30F7F
:103E7000D7FEB386F540E3E4A6FE5A86EA8522859E
:103E8000EFE0A03BDA9C1DB1E24729472546944369
:103E900091073ECCB3F7E60293870703230EF100A8
:103EA00033D7E6026376D616EA86A945254511A0E2
:103EB00032873376B7028506B387A641850793F725
:103EC000F70F130606032380C6003356B702E361DB
:103ED000E5FE93D517003E8BE38905D41387F7FFE2
:103EE0006A97EA87EA950386070083060700850735
:103EF0002300C700A38FD7FE7D17E396F5FE22852A
:103F00005A86EA85EFE060335A94DA9C45B6930707
:103F100050022300F400850C050449BE89059C006D
:103F20003E9713FBF50F9307D00293551B00230E0A
:103F3000F7FC8DB39C0089083E9793F8F80F930720
:103F4000D00293D51800230EF7FC61B55A85DE85A3
:103F5000EFC0F07E1357F541B347A700998FA946EC
:103F600033E7D702B3C7D70213070703230EE100D5
:103F7000638E070E8546EA85294511A0BA8633E689
:103F8000A7028505138716001377F70FB3C7A7029B
:103F9000130606032380C500F5F3954763ECE70697
:103FA0009C003E979305000393872600230EB7FCE1
:103FB00093F7F70F1946E38AC7E898003E9793876F
:103FC0003600230EB7FC93F7F70FE380C7E89400A1
:103FD0001306000313871700BE96238EC6FC1377C3
:103FE000F70F9945E303B7E69400369793862700C9
:103FF000230EC7FC13F7F60FE309B7E494003697D6
:10400000230EC7FC0947E392E7E4A300C10235BDD4
:10401000054B21B99C0089063E9713FBF60F9307C9
:10402000E002230EF7FC13551B00E30805E493059B
:10403000FBFF1DB5054BE35A08BE9307D002A30E44
:10404000F1008545094B81B92AC2014681465A854E
:10405000DE85EFC0002412488548E35E05D893074B
:10406000D002A30EF10085458948ADB39307000344
:10407000A30EF100230FF1008D4791BF9357550018
:104080000547938707043315A7008A0737E700E041
:10409000BA9788C3828093575500054793870706D0
:1040A0003315A7008A0737E700E0BA9788C38280F4
:1040B000B7E700E03E952300B540828005456F805C
:1040C000C00611C182806FC00F94411106C6EFC0B7
:1040D0002F93B24041016F90801DB7650020996811
:1040E000938505F3930E40051168938838361308BD
:1040F0006864239515012386D501238CD501B775F6
:10410000002037670020239405BD130787FAB762A4
:104110000100239E0191930500002322B70E83A581
:1041200082DC13066004130E20050543B76F0100FF
:104130002310C7002300C70F23220700231F670C8B
:10414000232CB70C03A7CFDCB7670020938707EFBA
:10415000376500201305C5F42380C7002386C703F5
:1041600023A20700239607002397670298D7A94741
:10417000376F01005CC1B77700202386C7B883275B
:104180000FDDB76600209386C6F82300C500A38024
:10419000C60023A206009CCE82803571B76600203F
:1041A000138606F326CBDEDE06CF22CD4AC94EC7E4
:1041B00052C556C35AC1E2DCE6DAEAD8EED6930617
:1041C000F00F2314D600996693866634B7640020F6
:1041D0002316D6001387C40983C6019883AB818256
:1041E0008317471F13031007B2CC23200600232296
:1041F0000600A3050600B6CE330373418349E600EB
:10420000034AF60063C4773B6342F33A93074005E1
:104210002302F738930700002304073E2326F744C0
:10422000014F8317C75D63CD7735634BF334930735
:1042300040058565BA952306F776930700002308A5
:10424000077C23AAF58202C08316C75D0316471FA9
:104250003D48B387C64093F7F70F139587019388BE
:1042600037FD61859387B7FD2382A59C238415A321
:1042700093F7F70F6365F83C930740052386F5A88D
:10428000854702D83EDA02C6F54763D5A73A9307B9
:104290006004814E3EC2B765010083ACC5DAB765E4
:1042A000010003A505DB83A545DBB76701002AC82C
:1042B0002ECAB765010003A585DB83A5C5DB83A7EF
:1042C00087DA2ACC2ECEB765010003A505DC83A5CD
:1042D00045DC37690020377400202ED2FD7293052B
:1042E0009003239EB40823080718231EC72A23120D
:1042F000D76A2314B70C76D6768C2AD09384C40957
:104300001309C94E130414A6854A02D402C4130724
:104310004006930D6004130E4005130840059308F2
:104320006004BD4F9382C27CDE8E8396641F63CC93
:10433000D62B634AD32A2300C49D894663F556339E
:104340008346F49B638306372302E4A22320F9000B
:10435000039BE45D634FDB27634D63272304C4DBCA
:10436000894663F9562F834B74DA63810B3B930BB9
:104370004005B766010083A686DA2306E4E023241D
:10438000D93E039D641FB306AB4193F6F60F139617
:104390008601938536FD61869386B6FD2300C400B1
:1043A0002302B40693F6F60F63EBDF26B24623042E
:1043B000C40D9305F00F638FB62AF54663C4C62477
:1043C000924663851619638E0B1963821B17839BB4
:1043D000240085466383DA0803950400FACA9AC864
:1043E000F6C6F2C4BEC2BAC0EFC0F03B4246D246E7
:1043F000EFB090752ADC5E852EDEEFC0D03A6246C3
:10440000F246EFB070742A86AE866255F255EFB070
:1044100080082ADC0395E4FF2EDEEFC0D038025678
:104420009256EFB07072AE862A86F2556255EFB0A2
:104430008006EFC0D030564F4643B64E264E9647C4
:104440000647931B0501FD7693DB0B41930860043F
:10445000130840059382C67CBD4F93061007DE8586
:1044600063DA761993051007130610071375F60F14
:104470002391B40093059003930675FC918D93F6F8
:10448000F60F63C7050093069003898E93F6F60F27
:10449000B30554002380D500239FA42B2393646B82
:1044A0002395C40C850A9306400689041109050466
:1044B000E39DDAE623915193E28E63050F00E64710
:1044C00023873701824781C7E647A3874701D25731
:1044D00089C7E64732472384E700C25789C7E647C2
:1044E0002247A384E70063860E00E647124723862F
:1044F000E700B257638D0726E6472257A385E700FA
:10450000E64776470545A386E70022572385E7005F
:10451000FA406A44DA444A49BA492A4A9A4A0A4B52
:10452000F65B665CD65C465DB65D0D618280834657
:10453000049C63851617E39C06E993036D01939B26
:10454000030193DB0B412391740161B593F6FA0FDC
:1045500036D4854636D69306400536C2054CE396DA
:104560000BE78346049C638D0611E39216E79303E1
:10457000ABFE939B030193DB0B412391740191BD2F
:10458000B767010083A787DA856593066004BA954B
:10459000050A2306D77623AAF582930640068547A7
:1045A000137AFA0F2308D77C3EC079B9B7670100A8
:1045B00083A787DA9306600485092302D738930618
:1045C000400693F9F90F2304D73E2326F744054FFD
:1045D00089B9050A8546137AFA0F2304B4DB930BD5
:1045E000600436C079B3850993F9F90F2300B49DAF
:1045F000054F99BB139605014186E35906E68145AF
:104600000146ADB593063006E39FDADA9246E39CA5
:1046100016DB854636D69306300636D46DB3A246F1
:104620002304B40DE39B06D893F6FA0F36C48546EF
:1046300036D861B393074005854E3EC2A9B99307AA
:1046400060042386F5A885473ED89307F00F02DA69
:104650003EC61DB9230604E0930600002324D93E7C
:10466000930B400539BB230204A2930600002320CC
:10467000D900F9B993F6FA0F36C6854636DA35BB56
:10468000B3066D0193D3F601B69393D31340939B76
:10469000030193DB0B412391740125BB9306900327
:1046A0002391D400930B90032DB38346E49BE39DA9
:1046B00006C98396641F039B041FFAC83685B38618
:1046C00066412302D4A29AC6F6C4F2C2BEC03ADC46
:1046D000EFD0A074AA8B5A85EFD02074AA855E858E
:1046E000EFD0A02FE685EFC0D049FD779382C77C3D
:1046F0002320A900BD4F62578647164E1308400578
:1047000093086004A64E3643464F99B1834664DA57
:10471000E39106C70395845DFAC89AC6B30665415E
:104720002306D4E0F6C4F2C23ADCBEC0EFD0E06E9D
:104730002A8D5A85EFD0606EAA856A85EFD0E02970
:10474000B767010083A5C7DAEFC0B043FD77938256
:10475000C77C2324A93EBD4F62578647164E1308D7
:10476000400593086004A64E3643464F19B9E64704
:1047700083C7B7003ED469B3B7670020116793873A
:10478000C7F813071760B76601002390E70003A777
:1047900006DD23A2070098CF8280B7770020938799
:1047A00047BD130760042384E70013070000D8C344
:1047B00098C30947D8C70D4798CB1167130767649B
:1047C000239AE700130760F9238BE70005458280F1
:1047D000411106C6EF50C042EF50C07DEF50C03EC1
:1047E000EFF0BF9BEF608023B24041016F60200B70
:1047F00083C76199011122CC06CE26CA4AC84EC68B
:10480000014499E303942181B7770020938747BD42
:104810001307A00F23988180944B2396E180239760
:10482000E1800D476389E600F2406244D244424988
:10483000B2490561828003C7870093076004E315CE
:10484000F7FE0395819F9307B0F66352F508239412
:104850008192EFD0805CEFD08075B767010003A62E
:1048600007E683A647E6EFB0302EB767010003A640
:1048700087E683A6C7E6EFB00035EF90C07DB76747
:10488000010003A607E783A647E7EFB0F02BB76761
:10489000010003A687E783A6C7E7EFB0C032B7677A
:1048A000010003A607E883A647E8EFA0D03E2A89C7
:1048B0002285AE89EFC0206F2A86AE864A85CE85D6
:1048C000EFB09028EFC0A0672395A192B1BF9307E6
:1048D000600963D4A708EFD04054EFD0406DB767AC
:1048E000010003A607E683A647E6EFB0F025B76709
:1048F000010003A687E683A6C7E6EFB0C02CEF90C1
:104900008075B767010003A607E783A647E7EFB006
:10491000B023B767010003A687E783A6C7E7EFB018
:10492000802AB76701002A86AE8603A507E883A51B
:1049300047E8EFB0F06C2A892285AE89EFC0A06607
:104940002A86AE864A85CE85EFB01020EFC0205F64
:104950002394A19223958192C1BD239481922395A2
:104960008192D9B5411106C622C426C2EF80707566
:10497000B7770020938747BD984B0DCB83C787003F
:10498000930660046389D702130740056385E70A2D
:104990000397E192039501932244239EE19EB24046
:1049A0009244239FA19E41016F90E032B240224485
:1049B0009244410182809377D7FF8546638CD7006C
:1049C00091476309F70023970192239801920145CB
:1049D0000147D9B7B787012003A5871CB70400207A
:1049E000EFD020380396819293160501B7850120F8
:1049F000C1869385C51013858419EF601031B78780
:104A000001201384E1922310A40003A5871DEFD099
:104A100040350396A19293160501B7850120C18602
:104A20009385451313858419EF60302E2398A19246
:104A30000317040095B7B787012003A5871C1384CB
:104A4000E192EFD0003293160501B78501203705BA
:104A50000020C18601469385C51013058512EF60BD
:104A6000D02AB78701202310A40003A5871DEFD00B
:104A7000402F93160501B785012037050020C18618
:104A80000146938545131305C513EF6010280317DE
:104A900004002398A19209B7411126C2938421935F
:104AA00083D7040022C43774002037670100130441
:104AB00044BD832587E8084085072390F40006C697
:104AC000EFC0805508C0EF807025EF8030281C486B
:104AD0000947FD176368F700834684009307600465
:104AE000638EF606239301920145239CA19EEF90CD
:104AF000803D83970400294733E7E70239C35147D4
:104B000033E7E70211CB1307703E634FF700B24063
:104B10002244924441018280930640052380D1843F
:104B20001307703EE355F7FE13052008EFB0FFCFE3
:104B3000B240224423900400239201929244410106
:104B40008280839701812394F1922395F192EFF073
:104B50003FCAEFF03FE18397040055B75C44638898
:104B6000E7000547E390E7F803956192BDBF8396A0
:104B70004193B78501203705002001469385850BB9
:104B800013050515EF60702A2393A192B9BF8280A7
:104B900039715AD003A7419D06DE22DC26DA4AD8B5
:104BA0004ED652D456D25ECE62CC66CA6AC86EC6A3
:104BB00085476309F71237740020D96C596CD96B9B
:104BC000130444BD93044005B76A0100376D01002A
:104BD000B76D0100A1A81386CAE08145130500083E
:104BE000EFD0FFA41C480D47638FE7080547638794
:104BF000E7120947638EE712638807108347540161
:104C0000638E97081386CAE0894513050008EFD024
:104C10001FA283A7C19D0547638EE7082945EFE0E2
:104C20007FE003A7419D8547630EF70A89451385F9
:104C3000C192EF00100F9307008013864CDD814571
:104C400041452394F180EFD09F9E13068CDE85456D
:104C50004145EFD0DF9D13868BDF89454145EFD07D
:104C60001F9D834744017D472394E180E39597F698
:104C700013068DE0814513050008EFD05F9B1C48AB
:104C80000D47E395E7F613860DE18545130500080A
:104C9000EFD0FF9983475401E39697F613068DE012
:104CA000894513050008EFD09F9883A7C19D05474C
:104CB000E396E7F603C7C19223AE019C630BF708A6
:104CC00051C38947E31CF7F409469305000813050F
:104CD000540109292945EFE0FFD403A7419D8547E9
:104CE000E316F7F4F250625423AA019CD2544259BD
:104CF000B259225A925A025BF24B624CD24C424D4C
:104D0000B24D054521618280B7670100138607E334
:104D1000854513050008EFD09F91CDB5B767010019
:104D2000138687E1854513050008EFD05F90F9B53C
:104D3000B7670100138647E2854513050008EFD0E9
:104D40001F8F6DBD01469305000813054401592EC0
:104D5000F1B5D9670547930600081146938587E3A7
:104D600013050401852D5DBD397122DC4AD85AD066
:104D700006DE26DA4ED652D456D25ECE62CC66CA53
:104D80006AC86EC6130730062E842A8B32899307B1
:104D900030066363B700AE87930530069D8DC2056C
:104DA00093071007C1815A8563F467011305100743
:104DB000930DFBFF130CABFF931B1B0042054A86B0
:104DC0004181C20D420CC20BB30C6441EFD06FF2B3
:104DD00093DD0D01135C0C0193DB0B01229B930A05
:104DE0001007130A30069309300633849D01931788
:104DF00004014A86C1836E8D63F4BA01130D100756
:104E0000420D135D0D016A856374FA0013043006C8
:104E10003384894042044180A285EFD08FEDB38472
:104E2000BB4193970401C1834A86A28563F4FA00CB
:104E300093041007C204C1802685EFD08FEB3304A2
:104E4000BB4193170401C1834A866A856374FA00E3
:104E5000130430063384894042044180A285FD1D3D
:104E6000EFD02FE9C20D4A86A285268593DD0D017C
:104E7000EFD02FE8E31BBCF7F2506254D2544259F2
:104E8000B259225A925A025BF24B624CD24C424DBA
:104E9000B24D2161828083A6019D411126C206C6C2
:104EA00022C44AC00547AA8403440500638EE60C69
:104EB00083A6819E05476384E60A03A9419E854730
:104EC0006305F90483A6819D6381F606FD4723806F
:104ED00084002394F180931504019D47C18163F8F8
:104EE0008706E11537660100C20513060610C18169
:104EF0000145EFD0CFF3B2402244930700802394C2
:104F0000F18092440249410182804165011523A24A
:104F1000019EEFD0CFD91D469D451305000DEFD062
:104F20000FF883A7819D639B27094165011523AC79
:104F3000019CEFD0CFD79D4501461305000DEFD062
:104F40000FF623800400FD472394F18081453766E6
:104F50000100130606100145EFD06FED69BF23A4D1
:104F6000019E31C87D141374F40F13198401135971
:104F7000894141650115EFD08FD34A869D451305C0
:104F8000000DEFD0CFF115BF23A8019C9D4763060C
:104F9000F40405041374F40F13198401135989419F
:104FA00041650115EFD0AFD04A869D451305000D30
:104FB000EFD0EFEEF5BD1D491D4465BF9D47376637
:104FC00001002380F400FD479D45130606100145AE
:104FD0002394F180EFD0AFE539BF01490144C9B74F
:104FE0005D716AD003A7C19DA2C4A6C203140500C7
:104FF0002AC61305F08186C6CAC04EDE52DC56DAD8
:105000005AD85ED662D466D26ECE85472394A180EC
:105010006303F706939B060193DB0B01139C2B00A4
:105020005E9C060CB30C8041C20C420C2E89B289E6
:10503000135C0C0193DC0C01854403A6819DCE8595
:105040004A8583A6419E03A7819E83A7019D630392
:105050009606638B9604631797005E94420441841E
:1050600023A4019E2286638F9704EFD00FFA83A7B3
:10507000C19DE39497FC930700802394F180B2478D
:1050800023AE019CB64023908700264496440649EF
:10509000F259625AD25A425BB25B225C925C025D68
:1050A000F24D05456161828066944204418423A2E9
:1050B000019E55B76294420423AC019C4184E39C59
:1050C00096F8DDB733047441420441842286CE85CC
:1050D0004A8523A8019CEFD04FF383A7C19DE39E8F
:1050E00097F451BF5D716AD086C6A2C4A6C2CAC079
:1050F0004EDE52DC56DA5AD85ED662D466D26ECE16
:1051000003A7C19D834C05002AC69306F0818547FD
:105110002394D1806307F7082E8AB28A0544376C3E
:105120000100130B4005B76B010003A6819D83A707
:10513000419E03A7819E83A6019D6306860C638B17
:105140008708630E870E6393861023A8019C638EE5
:105150006C0313068CE0D6855285EFD04FCD83A724
:10516000C19D638F870803A6819D83A7419E03A7E6
:10517000819E83A6019D630B860A638C8708630169
:105180008706E39886FC23A8019C930C6004138691
:10519000CBE0D6855285EFD08FC983A7C19DE3961A
:1051A00087F8930700802394F180B24723AE019CD7
:1051B000054523809701B640264496440649F25996
:1051C000625AD25A425BB25B225C925C025DF24D43
:1051D0006161828023A2019E638F6C036311870447
:1051E00023A4019EE39386FA13068CE0D6855285AC
:1051F00023A8019CEFD0AFC383A7C19DE39587F699
:10520000930C400579BF23AC019C63836C03E39747
:1052100087FC23A2019EE31787FC23A4019EE39A47
:1052200086F223A8019C930C600495B723AC019CE3
:10523000E39387FE23A2019EE31387FE55B723A4C1
:10524000019EE3816CFBE39686F0E1BFE3916CF590
:1052500009B75D716AD066D286C6A2C4A6C2CAC0AA
:105260004EDE52DC56DA5AD85ED662D46ECE03A732
:10527000C19D834D05002AC61305F08185472394FF
:10528000A180630AF70A2E8AB28A0544930BC004F0
:10529000376B01001DA06385850E6388870E63034D
:1052A000871063807D0513064B48D6855285EFD065
:1052B0000FB883A7C19D6380870803A6819D83A53E
:1052C000419E83A7819E03A7019DE31686FC23AC24
:1052D000019C63827D0F638E850263878708630E5E
:1052E000870AB76701001386C747D6855285EFD076
:1052F0000FB483A7C19D638C870C03A6819D83A6F1
:10530000419E83A7819E03A7019D630B860AE396B6
:1053100086FC23A2019E6389870463008708130625
:105320004B48D6855285EFD08FB083A7C19D930D92
:105330002005E39487F8930700802394F180B24717
:1053400023AE019C05452380B701B6402644964410
:105350000649F259625AD25A425BB25B225C925CB5
:10536000025DF24D6161828023A4019E6305870086
:10537000930D40050DBF23A8019C930D600425B734
:1053800023A2019EE39B7DF579B723A4019E930799
:105390004005E39DFDFCE31287FE23A8019C930DCD
:1053A000400511B723A8019C93074005E387FDFC46
:1053B000930D4005CDBDE39085F623A2019E31BF3C
:1053C00023AC019CE39986F423A2019E39B7930D87
:1053D000C00495B7397162CC5AD05ECE06DE22DCAD
:1053E00026DA4AD84ED652D456D266CA6AC803A81C
:1053F000C19D834405002A8B1305F08185472394C2
:10540000A1806308F80C2E84B289368ABA8A854C4A
:1054100003A7819E83A7019D25436303970F63978D
:105420009701FD1423A8019C93F4F40F9397240093
:10543000A697860763FC340D93881700138827000E
:1054400013853700938547001386570093866700BE
:1054500013877700138E870013839700A2972298F3
:105460002295A2952296A2962297229E2293A298F6
:1054700083CE0700034F0800834F050083C2050059
:105480008343060003C806008347030083460700E2
:1054900083C8080003470E005000D6855285A30636
:1054A000F1002302D101A30211012303E101A303AF
:1054B000F10123045100A304710023050101A30598
:1054C000D1002306E100EFD08F9683A7C19DE39121
:1054D00097F59307008023AE019C2394F18023006D
:1054E0009B00F2506254D2544259B259225A925AF5
:1054F000025BF24B624CD24C424D054521618280E9
:10550000850423A4019E93F4F40F11BF214E1D477F
:105510009946154691450D4509488548814781447E
:1055200035BF83A6019D011126CA4AC806CE22CCEA
:105530004EC60547AA842E89034405006382E60E01
:1055400083A6819E05476386E60883A6419E05479C
:105550006388E60A83A6819D05476382E604FD47CA
:10556000238084002394F180931504019D47C18119
:1055700063F98704E11537660100C20513060610BA
:10558000C1810145EFD0AF8AF240624493070080A9
:105590002394F180D2444249B24905618280416539
:1055A000011523AC019CEFC09FF09D4501461305FA
:1055B000000DEFD0CF8E23800400FD472394F180AF
:1055C000814537660100130606100145EFD02F868E
:1055D00065BF23A4019E3DC87D141374F40F41657B
:1055E0000115EFC0DFEC1316840161869D4513059C
:1055F000000DEFD0CF8A83A6419E0547E39CE6F4D9
:105600004165011523A2019EEFC07FEA13168901AF
:1056100061869D451305000DEFD06F884A841DBF3C
:1056200023A8019C6306B40205041374F40F9319B4
:10563000840193D9894141650115EFC05FE74E862A
:105640009D451305000DEFD08F85DDBD4A8441BF18
:1056500081490144CDB7411126C2C16422C44AC068
:1056600006C60144938494E1130920074204418053
:10567000228526869305F0040504EFC09FE7931763
:105680000401C183139407014184E39127FFC1649E
:105690000144938494E11309200742044180228548
:1056A00026869305B0030504EFC0BFE493170401F9
:1056B000C183139407014184E39127FFC16401442E
:1056C000938494E1130920074204418022852686B1
:1056D000930570020504EFC0DFE193170401C18355
:1056E000139407014184E39127FFC164014493842B
:1056F00094E1130920074204418022852686CD4586
:105700000504EFC01FDF93170401C1831394070141
:105710004184E39227FFC16413043006FD14A2857F
:105720007D1442047D46130530024180EFC07FDCCA
:10573000E31794FEC16413043006FD14A28513061A
:10574000007E13058003EFC0DFDAA2851306007E1A
:1057500013059003EFC0FFD9A2857D144204130600
:10576000007E1305A0034180EFC0BFD8E31894FC6E
:10577000C16413043006FD14A2857D1442047D46E5
:105780001305F0044180EFC0DFD6E31794FE9304C5
:105790000080130630029D45294523949180EFC077
:1057A000FFFC376601007D491306860D9D451305F4
:1057B000100323942181EFC09FE71306F0049D4559
:1057C0001305800523949180EFC05FFA37660100CE
:1057D0001306C60D95451305800723942181EFC05C
:1057E0001FE5376601001306060E91451305800775
:1057F000EFC0FFE3376601001306460E8D45130523
:105800008007EFC0DFE2376601001306860E894588
:1058100013058007EFC0BFE1376601001306C60E0F
:10582000854513058007EFC09FE03766010013062A
:10583000060F814513058007EFC07FDFB240239438
:10584000918022449244024941018280797122D49C
:105850004AD056CAC16A3769002026D24ECE52CCF1
:105860005AC85EC662C406D623910192814793044A
:105870003006130A30061309C90993091007138B60
:10588000FA8103972199630AF722039741996306E6
:10589000F722139707014183BE8563F4E400930563
:1058A00030069387870F8607CA9703D54700B3054D
:1058B000BA40C2057D1593170501C183C18163F408
:1058C000F9001305100742055A864181EFC07FC2D7
:1058D00083972192139707014183BE8563F4E40007
:1058E000930530069387870F8607CA9703D547002D
:1058F000B305BA40C205C18163F4A90013051007BE
:105900005A86EFC01FBF83972192139707014183E7
:10591000BE8563F4E400930530069387870F8607FE
:10592000CA9703D54700B305BA40C20505059317CA
:105930000501C183C18163F4F90013051007420515
:105940005A864181EFC0FFBA8397219213970701CE
:105950004183BE8563F4E400930530069387872E68
:105960008607CA9703D5C700B305BA40C2057D159F
:1059700093170501C183C18163F4F9001305100772
:1059800042057D464181EFC0DFB683972192139790
:1059900007014183BE8563F4E400930530069387D5
:1059A000872E8607CA9703D5C700B305BA40C2053C
:1059B000C18163F4A900130510077D46EFC07FB3D2
:1059C00083972192139707014183BE8563F4E40016
:1059D000930530069387872E8607CA9703D5C7009D
:1059E000B305BA40C205050593170501C183C181FE
:1059F00063F4F9001305100742057D464181EFC0AD
:105A00005FAF83972192139707014183BE8563F4AB
:105A1000E400930530068607CA9703D50700B3054F
:105A2000BA40C205C18163F4A900130510071386AB
:105A30000A80EFC01FAC839721921397070141831F
:105A4000BE8563F4E400930530068607CA9703D544
:105A50000700B305BA40C2057D1593170501C18340
:105A6000C18163F4F90013051007420513860A800B
:105A70004181EFC01FA883972192139707014183AB
:105A8000BE8563F4E400930530068607CA9703D504
:105A90000700B305BA40C205050593170501C18388
:105AA000C18163F4F90013051007420513860A80CB
:105AB0004181EFC01FA4839721928507C207C18748
:105AC0002391F192E3DFF4DAB25022549254025956
:105AD000F249624AD24A424BB24B224C4561828023
