:100000006FC0200313000000130000001300000065
:100010001300000013000000130000001300000094
:100020001300000013000000130000001300000084
:08003000130000007300100032
:10003800000000000000000056BB00005ABB000092
:100048000000000078BF0000000000000000000071
:100058007ABF00007CBF0000000000000000000024
:100068007EBF00000000000080BF0000000000000C
:1000780082BF000084BF000086BF000088BF000068
:100088008ABF00008CBF0000EAB7000002B8000079
:100098001CB8000036B8000050B8000098BF000037
:1000A8009ABF00009CBF00009EBF0000A0BF0000D8
:1000B800A2BF0000A4BF0000A6BF0000A8BF0000A8
:1000C800AABF0000ACBF0000AEBF00006AB80000C5
:1000D800B2BF0000B2B90000B6BF0000B8BF000050
:1000E800E0B90000FEB900002CBA0000C0BF000053
:1000F800C2BF0000C4BF0000C6BF0000C8BF0000E8
:10010800CABF000032B6000064B60000A6B6000000
:10011800E8B80000D4BF0000D6BF0000D8BF000078
:10012800DCBA0000DCBF0000DEBF0000E0BF00005A
:10013800E2BF0000E4BF00005ABA0000E8BF0000B8
:10014800D8B600000AB7000088BA0000AABA0000B2
:10015800F2BF0000F4BF0000F6BF0000F8BF0000C7
:10016800FABF0000FCBF0000FEBF000000C0000096
:1001780002C0000004C0000006C00000DED000007D
:100188000AC000000CC00000BAB7000030B7000079
:1001980062B7000098B7000016C000000ABB000054
:1001A8001AC000001CC000001EC0000038BB0000C0
:1001B80022C0000024C0000026C0000028C00000A3
:1001C8002AC000002CC000002EC0000030C0000073
:1001D8000000000000000000000000000000000017
:1001E8000000000000000000000000000000000007
:0801F8000000000000000000FF
:10020000737504308280B76200009382820873A005
:10021000023082803D432A876373C3029377F700DD
:10022000BDEFADE5937606FF3D8ABA960CC34CC38D
:100230000CC74CC74107E36BD7FE11E28280B306BF
:10024000C3408A069702000096966780A60023079F
:10025000B700A306B7002306B700A305B700230520
:10026000B700A304B7002304B700A303B700230318
:10027000B700A302B7002302B700A301B700230110
:10028000B700A300B7002300B700828093F5F50FF5
:1002900093968500D58D93960501D58D61B793967C
:1002A00027009702000096968682E78086FA96805D
:1002B000C1171D8F3E96E374C3F8A5B7B7F700E0EA
:1002C00023A007008146014794C7D8C7054798C3B4
:1002D00037F700E01047544763E6D500E39CB6FECD
:1002E000E37AC5FE828079715EC662C466C2328CD2
:1002F000AE8CB68B014693068004814506D622D487
:1003000026D24AD04ECE52CC56CA5AC8BE8A3A8B52
:10031000428AC6898344010303494103034481039C
:100320003D26668593068004014681450D2662853B
:100330009306800401468145192E5E85930680044C
:100340000146814529265A85930680040146814548
:10035000FD2C56859306800401468145CD2C52859F
:100360009306800401468145DD244E859306800472
:1003700001468145E92C4A85930680040146814562
:10038000F92426859306800401468145C9242285E7
:100390002254B25092540259F249624AD24A424B14
:1003A000B24B224C924C9306800401468145456134
:1003B00079AC011122CC26CA2E84AA848545096510
:1003C00006CE4AC84EC63289B689EFC0C049B707C3
:1003D000055003C70700130560058D451377F70C1B
:1003E0002380E70003C70700136727042380E70083
:1003F00003C717001377970FA380E70023923701F5
:100400002393270184C7C0C703C717001377F703D7
:10041000A380E70003C717001377F70FA380E70057
:1004200003C72700136747002381E70003C71700AE
:1004300013671700A380E70003C7070013671700BF
:100440002380E700EF30501E6244F240D24442491C
:10045000B2491305600505616F30D019D9679387DC
:1004600007BA0A053E951C4103D7470203D5470248
:10047000420541858280D967938707BA0A053E9570
:100480001C41239207028280011122CC2E849145C7
:1004900006CE26CA4AC8AA843289EF00706EB765B4
:1004A00001001306D0079385459AEF30401026854A
:1004B000EF00F06E93068004014681451375F40F3A
:1004C000792281459306800401461375F90F412274
:1004D0009355840085476388F504C5476381F50C0F
:1004E000930710026385F50C93072002638AF508D1
:1004F00093071003638CF50C930710076381F50CC9
:10050000930710086386F508930710096385F50CB7
:10051000930720096390F502370701405C4F93E78A
:1005200007025CCF01A83705160085451305050CA9
:10053000EFC0801785450545EFC0C0344800EFC0C7
:10054000F005D967938707BA8A04BE948040C167D3
:10055000FD174C0022853EC402C223060100EFC0F5
:100560000048228593050006EFC0100A22858545C4
:10057000EFC05004F2406244D24442490561828097
:1005800037151A00854513050580EFC0E0115DB7EA
:10059000370701405C4F93E707015CCF61BF370528
:1005A0001800854513050530EFC0001061B73715F9
:1005B0001A008545130505C0EFC0000FA5BF37071A
:1005C00001405C4F93E747005CCFADB785450565BB
:1005D000EFC0800D85B7370701405C4F93E70704F4
:1005E0005CCF89BF9357550013972700D96793872E
:1005F000C7A1BA973D89984385473395A70099C10C
:1006000008CB828048CB8280135735009376C70190
:1006100059671307C7A13697184385473395A70035
:100620001C477D8D3335A00082809357350013F72A
:10063000C701D9679387C7A1BA9798439377F50005
:10064000054554473315F500358D48C782807971CB
:1006500006D622D426D24AD04ECE52CC02C202C4F2
:1006600002C69307F00F630DF506135455001D885D
:100670009374F5003689B2892E8A0DC885476304C4
:10068000F40A89476306F40A8D476308F40A914720
:10069000630BF40A9547630EF40A9947631CF40050
:1006A000854513050010EFC0E01D29A085451145C3
:1006B000EFC0401D0547B3149700C204D967938764
:1006C000C7A1C1800A043E94231291009377F90FC9
:1006D0000040630FEA004C0022853EC6EFB01034A4
:1006E000B250225492540259F249624A45618280C2
:1006F00042091359090113598900631309000D496F
:100700004C0022854AC43EC6EFB050314E86A685C5
:100710002285EFB0D078B250225492540259F24957
:10072000624A4561828085452145EFC0A01559B7D1
:1007300085454145EFC00015B5BF8545130500024D
:10074000EFC0401485BF854513050004EFC080133A
:1007500095B7854513050008EFC0C012A1BFD96742
:100760009387C79703AF070083AE470003AE8700A8
:1007700003A3C70083A8070103A84701D44F9853D8
:10078000904FDC531D71A6CAAE84854586CE7ACCC7
:1007900076CE72D01AD246D442D636DA3ADCA2CC21
:1007A000CAC8CEC6D2C43EDE2A843769010032D818
:1007B000EF00103D930509A313065002EF20305FB0
:1007C00013066002930509A333359000EF20305ED5
:1007D0002285EF00D03C13DAF40093170A01C1839D
:1007E0008507B3D4F402D96793192400938707BA15
:1007F000CE9703A907006C00231641014A852319EF
:10080000010023170100230A01001374F40F0A04E6
:1008100023189100EFC0A01C05464A858545EFC00E
:10082000005D4A858545EFC0E06C9C003E94032541
:1008300084FD8D45EF30405F9C00BE9903A589FD86
:10084000EF30405B4A858545EFC0C056F6406644B0
:10085000D6444649B649264A25618280630305206D
:100860008547630CF52089476303F5208D47630CAA
:10087000F520C147630FF520C5476303F522C9473B
:100880006307F522CD476301F52493070010630445
:10089000F524930710106306F524930720106308CE
:1008A000F52493073010630AF524930700116307BA
:1008B000F520930710116308F52493072011630BAB
:1008C000F52493073011630EF5249307002063018C
:1008D000F526930710206303F52693072020630570
:1008E000F526930730206308F52693070021630B54
:1008F000F52693071021630EF52693072021630147
:10090000F528930730216304F52893070022630735
:10091000F52893071022630AF52893070030630D2A
:10092000F528930710306300F52A930720306303FE
:10093000F52A930730306304F52C930700316309DF
:10094000F52A93071031630EF52893072031630FC2
:10095000F52A930730316302F52C93070040630CAE
:10096000F51693071040630EF516930720406300B9
:10097000F518930730406302F5189307007063037E
:10098000F51E930710706306F51E93072070630928
:10099000F51E93073070630CF51E93070071630D0D
:1009A000F520930710716300F5229307207163030C
:1009B000F522930730716300F5289307058063885B
:1009C00007128567138717806309E512138727804D
:1009D0006301E528938737806306F52685671387CB
:1009E0000781630FE52C138717816304E52C1387B8
:1009F00027816308E51E138737816300E52213878B
:100A000007906309E51C13871790630AE51E138797
:100A100027906309E52813873790630EE52613872F
:100A200007916303E526938717916308F52485678B
:100A300013872791630CE522138737916301E52221
:100A4000138707926301E50C138717926308E51477
:100A500013872792630BE514938737926306F51C7F
:100A6000828093068031014685452145CDB69306A7
:100A70008031014685452945D9BE9306803101461E
:100A800085452545E9B693068031014685452D45C6
:100A90007DBE93068031014685451305900845BE0D
:100AA00093068031014685451305B0084DB693067F
:100AB0008031014685451305D00851BE930680312B
:100AC000014685453D4561B6930680310146854521
:100AD0001305E008ADBE930680310146854501450A
:100AE000BDB6930680310146854505458DB6930612
:100AF000803101468545094599BE930680310146FE
:100B000085450D45A9B693068031014685451305F7
:100B1000300235BE93068031014685451305A0029B
:100B20003DB693068031014685451305B00205B6F2
:100B30009306803101468545194511BE93068031E3
:100B4000014685451D4521B6930680310146854500
:100B500013050002EDBC930680310146854513055F
:100B60001002F5B4930680310146854513056004F3
:100B7000F9BC930680310146854513057004C1BC5C
:100B8000930680310146854513058004C9B4930658
:100B90008031014685451305900455BC930680318C
:100BA00001468545130540025DB493068031014638
:100BB00085451305500261BC930680310146854589
:100BC0001305600269B4930680310146854513051B
:100BD0007002B5BC9306803101468545130580023D
:100BE000BDB493068031014685451305D00685B412
:100BF00093068031014685451305C00689BC9306DE
:100C00008031014685451305900291B493068031E9
:100C1000014685451305E0061DBC9306803101465B
:100C200085451305F00625B49306803101468545B8
:100C30001305F00429BC9306803101468545130550
:100C4000D00431B493068031014685451305400434
:100C5000FDBA93068031014685451145CDBA93060C
:100C600080310146854513057006D5B29306803163
:100C70000146854513055006D9BA930680310146D1
:100C8000854513053006E1B293068031014685455E
:100C9000130510066DBA930680310146854513058C
:100CA000B00475B2930680310146854513053004C2
:100CB00079BA93068031014685451305B00641BADD
:100CC00093068031014685451305900649B2935736
:100CD00085005967130707BA8A07BA9794434547AF
:100CE00083D7C602B385F5026302E5046364E502B7
:100CF000FD779387076FAA970D47636DF7009307FA
:100D0000803E0D89B3D5F5020A053695C205C1812D
:100D10004CD98280896793870771B3D5F5020D8915
:100D20000A053695C205C1814CD98280E167938757
:100D3000076AB3D5F5020D890A053695C205C1814A
:100D40004CD98280397126DA9354850022DC4ED644
:100D50002A84AE8926858D4506DE4AD832890D253E
:100D6000B76501001306900B938545AAEF20300468
:100D7000268535252285DD3485450545EFB0903043
:100D80009357440005476388E70445476386E7189F
:100D9000130710026388E71A130720026384E7141D
:100DA00013071003638FE71A130710076384E71A0A
:100DB000130710086380E714130710096388E71A04
:100DC000130720096390E702370701405C4F93E760
:100DD00007025CCF01A83705160085451305050CF1
:100DE000EFB0900C83A541844545B3D73503C1834B
:100DF00093861700B3863603139707014183B3D553
:100E0000D502139605014182B28533092603630A90
:100E1000A40A6364A40AFD779387076FA2978D469F
:100E20009309803E63EBF608D967938707BA8A0473
:100E3000BE9484409387F5FF4C0026852314F1006F
:100E40002312E100231501002313010023060100F2
:100E5000EFB0F03833563903C167938707073EC8B0
:100E6000B70702008907231A01003ECC02CE0D8885
:100E7000231BC10039C885476308F40A89470C0859
:100E800026856300F408EFB09067A1452685EFB092
:100E9000907D930500402685EFC06002268585453C
:100EA000EFB0507326858545EFB0D070F250625494
:100EB000D2544259B2592161828009669309067160
:100EC000A5B761669309066A85B70C082685EFB059
:100ED000703E2685A145EFB0307591452685EFB06F
:100EE000307A6DBF37151A00854513050580EFB0C0
:100EF000A07BCDBD370701405C4F93E707015CCF76
:100F0000D5B5EFB0D0522685A145EFB0B07491456C
:100F10002685EFB0B07959B7370518008545130518
:100F20000530EFB060787DBD0C082685EFB010432A
:100F30002685A145EFB07070930500402685EFB07F
:100F40005075A9BF37151A008545130505C0EFB0C8
:100F5000A07549BD370701405C4F93E747005CCF60
:100F600051B585450565EFB02074ADBD370701402B
:100F70005C4F93E707045CCFB5B5411122C426C28C
:100F80004AC006C6AE843284368955C5C14763025D
:100F9000F510930700026301F51293070003630A3B
:100FA000F50E93070004630DF514B76501001306F1
:100FB0009002938505B20145EF20605F8947638603
:100FC000F408C9476385F40A930720026388F41084
:100FD00093072003638DF408930720046387F40EBE
:100FE000B765010013060003938505B20145EF20A4
:100FF000005C85476305F406C5476303F40893075F
:1010000010026306F40E930710046304F4109307B0
:1010100010036307F4069307F00F6315F4082244E6
:10102000B24092444A850249930600310146854503
:1010300041016FF0CFE193068031054685451545A6
:10104000EFF0EFE08947E39EF4F693068031054622
:1010500085451D45EFF0AFDF8547E31FF4F89306A4
:101060004030054681451945EFF06FDE4DBF9306D0
:1010700080310546854513055002EFF04FDD95BFE1
:10108000930640300546814513054002EFF02FDC02
:1010900079B7930680310546854513053002EFF098
:1010A0000FDB29BFB765010013068003938505B2E6
:1010B0000145EF20C04FA5B7930680310546854511
:1010C0001305D002EFF0AFD8D5BD930680310546A9
:1010D00085451305C004EFF08FD721BF93068031FB
:1010E000054685451305F002EFF06FD619B7930654
:1010F0004030054681451305E002EFF04FD505B7B6
:1011000093068031054685451305A004EFF02FD4E2
:1011100075B593064030054681451305B004EFF0E0
:101120000FD3F5BD5D7193182500CAC02A89596592
:10113000130545B946954EDE8329050086C6A2C42F
:101140004E85A6C252DC56DA5AD85ED63E8BAE84A5
:10115000B28B368ABA8A4284EFB0407A854505451B
:10116000EFB04072C1476309FA0E9307000463169B
:10117000FA00930720046385FA16630B090E85476E
:101180006301F91889476309F916A2865A86D6853C
:101190005285E533B70704013EC623180100854791
:1011A0006380F40E638C04100947638AE40E8D4655
:1011B0006385D40803A4C1929307F00F33547403DA
:1011C0004204418063F287041304800393070020E4
:1011D0006C004E85231BF1009D47231C8100231EBC
:1011E000F100231D0100EFB080774E858545EFB0FB
:1011F000E07CB640264496440649F259625AD25AD7
:10120000425BB25B616182809307F00763E7870608
:101210009307F00363E3870CFD4763E9870EBD473F
:1012200063E9870E9D4763E8870E8D4763E7870E66
:10123000854763F6870E014451BF231AF10003A4CA
:10124000C1922319E1009307F00F33547403420451
:101250004180E3EB87F64DBFC947E390FAF2C547FB
:10126000E31DFBF085450545EFB00044E31909F0A7
:1012700085450565EFB0006109BF13040003B9B7E8
:1012800003A4C19223190100231A9100335474035B
:101290009307F00F42044180E3E887F2B5B703A457
:1012A000C19223199100231A010033547403930748
:1012B000F00F42044180E3E987F0B9B703A4C1927B
:1012C00023190100231A0100335474039307F00F0C
:1012D00042044180E3EA87EE05BF13048002FDB5B6
:1012E00093071004E31BFBE8371520008545130521
:1012F0000510EFB0603B51B585452165EFB0605AF0
:1013000069B585451165EFB0C05941B513040002B8
:1013100075BD614465BD414455BD214445BDB765BA
:1013200001001306D008938505B20145EF2020285F
:1013300071BDD9670A05938747B9AA9798432316C1
:10134000B7008357870093F70708E5FF8280D967C6
:101350000A05938747B9AA97984393D78500231620
:10136000F7008357870093F70708E5FF93F5F50F1C
:101370002316B7008357870093F70708E5FF82809D
:1013800093172500138541A43E951C4181E70CC1AC
:10139000054582803385B74013351500828021C111
:1013A0000547630BE50209476308E5020D47630E35
:1013B000E5021147630FE50215476300E50419478D
:1013C0006301E5041D476303E50421476304E50465
:1013D00025476306E504828085456FB0804C05652E
:1013E0008545130505806FB0E049854511456FB00F
:1013F000404B854521456FB0C04A854541456FB09A
:10140000404A8545130500026FB0A049854509652E
:101410006FB040478545370508006FB0A046854549
:10142000370510006FB00046411122C406C62E8455
:1014300041C98947630BF516C147630BF512C947CC
:10144000630AF51A930700026305F51C930720024F
:10145000630AF51893074002630CF51C9307000418
:101460006302F518930720046302F5209307000533
:101470006305F522930720056300F5249377D5FFD4
:10148000130700066383E720930700076301F51C39
:1014900093072007630EF524930740076308F5269A
:1014A000930700086303F528930720086310F502EB
:1014B000E146014685451305E008EFF04F9939A054
:1014C000E146014685452545EFF06F98854763075E
:1014D000F4088D476300F40CC5476300F40ECD4754
:1014E0006307F40E93071002630EF41093073002A3
:1014F0006307F408930750026305F412930710047E
:10150000630FF40693073004630BF414930710057C
:101510006306F416930730056309F4189307100661
:101520006304F41A930730066307F41A930710074D
:101530006308F410930730076306F41A9307500703
:10154000630FF41A93071008630AF41C930730081A
:101550006305F41EB2402244410182809306800458
:101560000146814529452244B24041016FF02F8E4A
:10157000E146014685450945EFF06F8D81BF224464
:10158000B24093068004014681451305B004410131
:101590006FF0EF8B2244B2409306800401468145F0
:1015A0001305700241016FF08F8AE14601468545BF
:1015B00013056002EFF0AF8911BF2244B2409306D9
:1015C0008004014681450D4541016FF04F8822445A
:1015D000B24093068004014681451305600641012F
:1015E0006FF0EF86E146014685451305A004EFF054
:1015F0000F86E9BDE1460146854513055006EFF02B
:101600000F85E9B593068004014681451305B002B4
:1016100099BFE146014685451305A002EFF02F83EF
:1016200075B593068004014681451305900625BFD4
:10163000E1460146854513058006EFF04F8179B5F7
:1016400093068004014681451305300429BFE14615
:101650000146854513052004EFE07FFF85BD930615
:1016600080040146814513051002F5BDE14601469F
:10167000854513050002EFE09FFD89BD93068004B8
:101680000146814513052006F9BDE1460146854521
:1016900013050004EFE0BFFB15BDE146014685459B
:1016A0001305C004EFE0BFFA15B5930680040146A8
:1016B00081451305900845BDE14601468545130562
:1016C0008008EFE0DFF819B59306800401468145F4
:1016D0001305100449BD9306800401468145130596
:1016E000B00851B593068004014681451D45A5BD4E
:1016F000E146014685451945EFE07FF5C1BB9306FC
:101700008004014681451305D008B1BDE14601467C
:1017100085451305C008EFE09FF34DBB9306800499
:1017200001468145130550043DBDE146014685450E
:1017300013054004EFE0BFF151BB9306800401465E
:1017400081451305F00805B51DC6D9670A059387BD
:1017500087BCAA9798432E96850583C6F5FF8357C5
:10176000070093F70708E5DF93970601C18323126B
:10177000F700E393C5FE8280D9671317250093878E
:1017800087BC4111BA9726C2AA84884322C42E86F8
:101790002E849305505206C6EFB0700913858185DB
:1017A000269503450500B7E700E0AA972380074088
:1017B00019C42244B240924441016F20A0632244E4
:1017C000B240924441016F208064D9670A05938733
:1017D00087BCAA9798438357070093F7070299E3BA
:1017E000014582808357470005452380F5008280AC
:1017F000797122D44ECE2A84AE890545854506D618
:1018000026D24AD0B2843689EFB0C007CA85268571
:1018100021398947638DF414C9476382F40693071D
:1018200020026386F40A93074002638DF40A93074B
:1018300020046385F40C93072005639AF40C930746
:101840003005630CF91821C48547630AF4148947ED
:10185000630DF4148D476300F41691476303F41687
:1018600095476306F41699476300F4189D4763147F
:10187000F402854513050010EFB0A00229A8CD475A
:10188000E313F9FC85452145EFA0106255FC854521
:101890001165EFA0307FD967938787BC0A043E9417
:1018A00000408A85B7070C0022854EC03EC423162F
:1018B000010002C2EFB0E06422858545EFB02075DB
:1018C000B250225492540259F249456182809307E2
:1018D0003002E31AF9F63705140085454105EFA0FB
:1018E000B05C95B793075002E31FF9F43705140075
:1018F000854513050503EFA0305BB1B793073004AE
:10190000E313F9F485450565EFA0105A2DBF930741
:101910002006639EF40093073006E316F9F23715AC
:101920000080854513050580EFA0105829BF930757
:101930002007639EF40093073007E316F9F037079A
:1019400001405C4FB7064000D58F5CCFEDBD9307DB
:1019500040076396F40293075007E316F9EE370742
:1019600001405C4FB7068000D58F5CCFE9BD8D4745
:10197000E31BF9EC85451145EFA01053E9B593073A
:101980002008E392F4EC93073008E31EF9EA3707E6
:1019900001405C4FB7060002D58F5CCF6DB5854521
:1019A00037050200EFA0F06FFDB58545370504004F
:1019B000EFA0306FCDB5854537050800EFA0706EFC
:1019C000D9BD854537051000EFA0B06DE9B5854557
:1019D00013050004EFA0F06C7DBD370520008545A0
:1019E0000505EFA0704C85B5854513050008EFA0EF
:1019F000506B55B5011122CC9385D18F154506CE7C
:101A000026CA4AC84EC6D13305469385D18F138561
:101A1000C1A8EF1050411384818F18408547630996
:101A2000F700F2406244D2444249B24905618280E3
:101A30001389C18F834509009389C1A693F5F50FDA
:101A40009387150093F7F70F81461386818FCE9504
:101A50001385C1A82300F900EF10904883470900BF
:101A60000D47E370F7FC8345090037650100114617
:101A7000F115CE95130585BEEF10B1145DF18947C0
:101A80001CC045B7011122CC93855190194506CE53
:101A900026CA4AC84EC6153B054693855190138504
:101AA00001ACEF105038138401901840854763094A
:101AB000F700F2406244D2444249B2490561828053
:101AC0001389419083450900938901AA93F5F50F85
:101AD0009387150093F7F70F814613860190CE95F3
:101AE000138501AC2300F900EF10903F83470900F4
:101AF0000D47E370F7FC8345090037650100114687
:101B0000F115CE95130585BEEF10B10B5DF1894738
:101B10001CC045B783A7019209476388E7000D47BA
:101B20006388E70011476383E70082806F10A07C21
:101B30006F10805483A7019211476386E7000D4719
:101B40006385E70082806F1050016F1020590111EA
:101B50005AC006CE22CC26CA4AC84EC652C456C265
:101B6000138BA18083470B00376401002E8AB28457
:101B7000930504BF130620052A893335F500B6897D
:101B8000938AB180EF10B02203C50A00930504BF09
:101B9000130630053335AA00EF10702103450B0002
:101BA000930504BF1306400533B5A400EF103020A1
:101BB00003C50A00930504BF1306500533B5A900F9
:101BC000EF10F01E83A741805967032487A2E1CB61
:101BD00005476380E71A930A004023285401056BE8
:101BE0001309890293848402130B0B80232A540166
:101BF0004209C2040947232A640113590901C1801B
:101C00009305A0020545638BE710EFF08FF22328C0
:101C10006401232854010545CA85232A5401EFF0A5
:101C20000FF3A6850545EFF08FF223285401232AF0
:101C300054019305B0020545232A6401EFF06FEFCC
:101C400093054A032328640123285401C205C18156
:101C50000545232A5401EFF08FEF93854903C20510
:101C6000C1810545EFF0AFEE23285401232A54012A
:101C7000232A64019305C0020545EFF08FEB23286A
:101C8000640123285401232A5401F2406244D244BF
:101C90004249B249224A924A024B05618280930A24
:101CA000004023285401056B130B0B80232A540199
:101CB0009305A0020545232A6401EFF08FE7930501
:101CC00049032328640123285401C205C181054525
:101CD000232A5401EFF0AFE793854403C205C18185
:101CE0000545EFF0CFE623285401232A540193053C
:101CF000B0020545232A6401EFF0AFE393058A02A1
:101D00002328640123285401C205C1810545232AE3
:101D10005401EFF0CFE39385890291B7EFF06FE1C3
:101D200023286401232854010545CA85232A540128
:101D3000EFF0EFE1A6850545EFF06FE123285401B0
:101D4000232A54019305B0020545232A6401EFF0CC
:101D50004FDE93055A032328640123285401C2054A
:101D6000C1810545232A5401EFF06FDE93855903A5
:101D7000FDB5930A004023285401056B130B0B801B
:101D8000232A54019305A0020545232A6401EFF09C
:101D90004FDA930559032328640123285401C2050F
:101DA000C1810545232A5401EFF06FDA938554036E
:101DB00035B7797122D4376401001306B008930552
:101DC00004BF054506D64AD04ECE26D252CC56CABE
:101DD0005AC85EC662C466C2EF10607D1306C008B2
:101DE000930504BF0545EF10807C03A6C1929307BD
:101DF000F00F130720021308F00F9306000205826C
:101E000081450545EFF00FB2C146014685451305F2
:101E1000B006EFE0DF83C146014685451305C006E5
:101E2000EFE0FF82C146014685451305A006EFE0BD
:101E30001F82C1460546854513056004EFE03F81DA
:101E40001389418003270900854763FEE742930613
:101E500070081307000F83A7C1928964938404F468
:101E6000B3D797021305800C5966032486A2856CAC
:101E70008145138AB180938AA180232A940123008B
:101E8000DA002380EA00930B4006130B0040138C0A
:101E90000C803385A702EFE06FC203A5C192814594
:101EA000232894013355950233057503EFE00FC1E4
:101EB00023286401232A6401930560030545232A2E
:101EC0008401EFF00FC703A5C192232884012328C2
:101ED000640133559502232A640181453305750356
:101EE000EFE0CFBD832709006384073A0547638C81
:101EF000E73A09476383E73A9305000A0545EFF09F
:101F00004FC39304004004C805691309098044C8FD
:101F1000232A24019305A0030545EFF08FC1232850
:101F2000240104C89545054544C8EFF08FC004C896
:101F300044C8232A24019305200B0545EFF06FBF09
:101F40002328240104C8B145054544C8EFF06FBEFD
:101F5000B1450545EFF0EFBD81450545EFF06FBD9B
:101F6000930530030545EFF0CFBC930530030545DD
:101F7000EFF02FBC04C844C8232A24019305700B3A
:101F80000545EFF00FBB2328240104C89305500337
:101F9000054544C8EFF0EFB904C844C8232A24011A
:101FA0009305B00B0545EFF0CFB82328240104C8F2
:101FB00093057003054544C8EFF0AFB704C844C8A3
:101FC000232A24019305000C0545EFF08FB6232842
:101FD000240104C89305C002054544C8EFF06FB55D
:101FE00004C844C8232A24019305200C0545EFF0BA
:101FF0004FB42328240104C88545054544C8EFF0A3
:102000004FB304C844C8232A24019305300C054566
:10201000EFF02FB22328240104C8C945054544C860
:10202000EFF02FB104C844C8232A24019305400CC3
:102030000545EFF00FB02328240104C893050002E2
:10204000054544C8EFF0EFAE04C844C8232A240174
:102050009305600C0545EFF0CFAD2328240104C89B
:10206000BD45054544C8EFF0CFAC04C844C8232A99
:1020700024019305000D0545EFF0AFAB23282401A3
:1020800004C89305400A054544C8EFF08FAA93059C
:10209000100A0545EFF0EFA904C844C8232A24011B
:1020A0009305000E0545EFF0CFA82328240104C8AE
:1020B0009305000D054544C8EFF0AFA791450545D0
:1020C000EFF02FA7B5450545EFF0AFA6C54505458F
:1020D000EFF02FA6CD450545EFF0AFA59305B00273
:1020E0000545EFF00FA59305F0030545EFF06FA44C
:1020F000930540050545EFF0CFA39305C0040545C2
:10210000EFF02FA3E1450545EFF0AFA2B54505453A
:10211000EFF02FA2AD450545EFF0AFA1FD45054518
:10212000EFF02FA1930530020545EFF08FA004C812
:1021300044C8232A24019305100E0545EFF06F9F34
:102140002328240104C89305000D054544C8EFF079
:102150004F9E91450545EFF0CF9DB1450545EFF008
:102160004F9DC5450545EFF0CF9CCD450545EFF0AA
:102170004F9C9305C0020545EFF0AF9B9305F0031C
:102180000545EFF00F9B930540040545EFF06F9A6E
:10219000930510050545EFF0CF999305F00205452D
:1021A000EFF02F99FD450545EFF0AF98FD4505454A
:1021B000EFF02F98930500020545EFF08F979305F8
:1021C00030020545EFF0EF9604C844C8232A2401E5
:1021D000930510020545EFF0CF952328240104C88C
:1021E00044C804C844C8232A2401C5450545EFF066
:1021F0004F9403A5C1928967938707F43355F5027D
:102200002328240104C8814544C893174500338519
:10221000A7400E05EFE08F8A04C844C8232A240192
:10222000930590020545EFF0CF9003C60A00834660
:102230000A002328240104C83309D602FD167D169E
:10224000C206420644C8B7070020C18241828145C8
:10225000014503D48766EFF09F8F630909007D195C
:10226000A2850545EFF0AF8EE31B09FEB250225464
:1022700092540259F249624AD24A424BB24B224C22
:10228000924C456182809306000F13077008E1B6F7
:1022900081450545EFF0EF89ADB193050007054590
:1022A000EFF02F89B9B99305000C0545EFF06F8861
:1022B00089B9411122C403C4A18083C6B180130629
:1022C000F4FF42063304D402FD16C20626C2C182C0
:1022D000AA8441828145014506C6EFF05F8719C493
:1022E0007D14A6850545EFF08F867DF8B240224427
:1022F00092444101828083C7A18001114AC8376995
:10230000010022CC26CA4EC6AE842A84B289930527
:1023100009BF3335F5001306F01206CEEF10202961
:1023200003C5B180930509BF1306001333B5A4009C
:10233000EF10E027A6852285A6862286EFF03F8152
:102340006244F240D2444249CE85B2490545056116
:102350006FE0FFFF83C7A18079714AD03769010020
:1023600026D256CA62C4AE8A2A8C930509BF333579
:10237000F500B2841306001406D64ECE52CC5AC8CD
:102380005EC622D4EF10A02203C5B180930509BF19
:102390001306101433B5AA00EF106021938704FED2
:1023A000596792071307C7D03389E700920A930B46
:1023B0007C00B38A2A414107C20BC20A93DB0B019E
:1023C000330BF70093DA0A01370A0020B3862A019B
:1023D000C206C1825E86B6856285EFF04FF7214462
:1023E0008344090011A883D581807D141374F40FF0
:1023F000EFE0FFF5858019CC93F714000545E5F76C
:1024000083558A667D1405451374F40FEFE03FF49D
:1024100085807DF00509E31B69FBB250225492547C
:102420000259F249624AD24A424BB24B224C4561B0
:10243000828083C7A180011126CAB764010022CC23
:102440004AC84EC62E89B289938504BF1306F0157B
:102450002A843335F50006CEEF10601503C5B18030
:1024600013060016938504BF3335A900EF1020141E
:102470000386090005C2814485042285CA85C204F9
:10248000D13DC180B387990003860700210442042F
:1024900041807DF2F2406244D2444249B249056132
:1024A000828083C7A180797122D4376401004AD029
:1024B0004ECE52CC32892E8A13064017930504BFA4
:1024C000AA893335F50006D626D2EF10400E03C593
:1024D000B18013065017930504BF3335AA00EF10DF
:1024E000000D634A090613060002D2854E859D350C
:1024F0002947B347E902930640061384890093896C
:1025000009024204C2096400418093D90901B3461B
:10251000D902B3E7E7022306D1003369E902A30633
:10252000F1002307210103C60400228521041306BC
:10253000060362064204D28561864180EFF09FE186
:102540008504E39289FEB250225492540259F24912
:10255000624A45618280330920411306D002D28548
:102560004E856209EFF01FDF1359894151B783C7C8
:10257000A180797126D2B764010022D44AD052CC0E
:1025800032892A842E8A3335F500938504BF1306D9
:10259000601906D64ECEEF10800103C5B180938539
:1025A00004BF130670193335AA00EF104000294705
:1025B000B357E9029306400693098401C2096400F7
:1025C00093D90901B356D902B3F7E7022306D10024
:1025D0003379E902A306F1002307210103C60400B1
:1025E000228521041306060362064204D285618611
:1025F0004180EFF03FD68504E39289FEB250225429
:1026000092540259F249624A4561828083C7A1808F
:10261000797126D2B764010022D44AD04ECE3289D5
:10262000AE891306201B938504BF2A843335F50039
:1026300006D652CCEF00B07703C5B1801306301B2D
:10264000938504BF33B5A900EF007076634809088D
:1026500013060002CE852285EFF0DFCF9306803E81
:10266000B346D902A9471307400609661306067147
:102670002104420424004180130AD1003347E902B7
:10268000B345F902B3E6F6023346C902A304D1000A
:102690003367F7022304C100B3E6F5022305E10026
:1026A0003369F902A305D1002306210103C6040002
:1026B00022852104130606036206CE856186420444
:1026C0008504EFF03FC94180E3129AFEB2502254D4
:1026D00092540259F249624A45618280330920418D
:1026E0001306D002CE8522854209EFF0BFC61359EA
:1026F0000941ADB783C7A180797126D2B7640100C3
:1027000022D44AD04ECE3289AE891306701D9385ED
:1027100004BF2A843335F50006D652CCEF00306969
:1027200003C5B180938504BF1306801D33B5A9008E
:10273000EF00F0679306803EB356D902A94713070E
:1027400040060966130606712400130AD1003357A8
:10275000E902B355F902B3F6F6023356C902A304EF
:10276000D1003377F7022304C100B3F6F502230545
:10277000E1003379F902A305D1002306210103C644
:10278000040022852104130606036206CE856186B5
:1027900042048504EFF01FBC4180E39244FFB25035
:1027A000225492540259F249624A456182801D7155
:1027B000D6C2938AA18083C70A00D2C4376A0100B7
:1027C000A2CCCAC8DAC05EDE2E892A8493050ABF6D
:1027D0003335F500B28B1306701F86CEA6CACEC65F
:1027E000138BB180B689EF00905C03450B00130694
:1027F000801F93050ABF3335A900EF00505BA9473E
:10280000A94463E4370193F4F90F93891400B76581
:10281000010093F9F90F5E869385C5C663C00B0A64
:10282000930700021305D1002306F100EF00107991
:1028300005051375F50F637D35013386A4401376C6
:10284000F60F7C000506930500023E95EFD09F9C95
:1028500003C50A001C18BE991306F01593050ABF9C
:102860003335A400238E09FCEF00705403450B00A0
:102870001306001693050ABF3335A900EF00305345
:102880000306C100814405C22285CA858504EFF094
:102890007FACC204C1801C18A6970386C7FD210423
:1028A0004204418075F2F6406644D6444649B64932
:1028B000264A964A064BF25B256182806800EF004B
:1028C000F06F1375F50F85BF1D71DAC0138BA180F2
:1028D00003480B00A6CAB7640100A2CCCAC8D2C480
:1028E000D6C22E8A2A84938504BF333505013289E6
:1028F0001306102286CECEC65EDE62DCBE8B66DAA2
:10290000B689BA8C938AB180EF00704A03C50A0079
:1029100013062022938504BF3335AA00EF00304907
:102920009947194C63E4770113FCFB0FA94793FB0C
:10293000FC0F63F39701A94B01468146CE854A857A
:10294000EFD0F077B76501004A86CE86938585C6BD
:10295000634D050E1305D100EF0050661307A5FF68
:102960001377F70F93CBFBFFBA9B050C629793FB92
:10297000FB0F1377F70F139C8B01931C8701135CDC
:102980008C4193DC8C41635C0C0233077741620716
:102990006187E687130600021418BE968507E207D2
:1029A000238EC6FCE187E399E7FEB38C7C41330CB0
:1029B0007C41E20C620C93DC8C41135C8C4101463F
:1029C00081464A85CE85EFD0906F634A050A1C1870
:1029D0003E9C93070002230EFCFC03450B001C18D1
:1029E000938504BFBE9C1306F0153335A400238ED7
:1029F0000CFCEF00D03B03C50A00130600169385BC
:102A000004BF3335AA00EF00903A0306C1008144A9
:102A100005C22285D2858504EFF0DF93C204C18010
:102A20001C18A6970386C7FD21044204418075F255
:102A3000F6406644D6444649B649264A964A064B6D
:102A4000F25B625CD25C256182806800EF00105707
:102A5000130795FF1377F70F93CBFBFFBA9B050C7A
:102A6000629793FBFB0F1377F70F139C8B01931C5B
:102A70008701135C8C4193DC8C41E3480CF01C18FB
:102A80003E9C9307D002230EFCFC81BF03C3A180B0
:102A9000397152D4376A010022DC4ED662CCAE893D
:102AA0002A8493050ABF33356500328C13068027CC
:102AB00006DE26DA4AD85AD05ECE428B66CAB68483
:102AC000BE8C56D26AC86EC6BA8B4689EF00302ECD
:102AD00003C5B1801306902793050ABF33B5A9003B
:102AE000EF00F02C9306FBFF1386FCFFCE96229698
:102AF000C2064206C1824182CE852285EFF02F8533
:102B000063060B04C169814A014AFD1933D46A0383
:102B1000638A0C02814D014D338484026294630602
:102B2000090433D79D03CE850545229783470700C7
:102B300063F4270181450545050DEFE05F81A69D02
:102B4000E3119DFF050ADE9AE3126AFDF25062541A
:102B5000D2544259B259225A925A025BF24B624CF9
:102B6000D24C424DB24D21618280B3D79D03050DF9
:102B70000545A69DA29703C7070093553700098313
:102B80009397B50016075D8FD98DEFE04FFCE31EDC
:102B90009DFD4DBF797152CC56CA5AC85EC6930A84
:102BA000F5FF930BE5FF130A1500130B2500C20B6D
:102BB000C20A420A420B26D24AD04ECE06D622D4B0
:102BC00062C466C26AC02A89AE89B284814793DB37
:102BD0000B0193DA0A01135A0A01135B0B010DA0D2
:102BE0008D47638DF4089547638BF4140504420404
:102BF00041809317040113077008C1876302E4063C
:102C00001394070105474180E39CE4FC03C5A180C0
:102C1000376C010093050CBF3335A9001306F01281
:102C2000EF00F01803C5B18093050CBF1306001325
:102C30003335A400EF00B017A286A2854A864A85E4
:102C4000EFE0FFF00504CE8505454204EFE02FF0EC
:102C500041809317040113077008C187E312E4FA57
:102C6000B250225492540259F249624AD24A424B1B
:102C7000B24B224C924C024D45618280138DA18053
:102C800003450D00376C010093050CBF33B5AA0056
:102C90001306F012EF00B011938CB18003C50C0045
:102CA00093050CBF130600133335A400EF0030105A
:102CB000A2865686A2855685EFE07FE9CE8505453A
:102CC000EFE0EFE803450D0093050CBF1306F0128B
:102CD0003335A900EF00B00D03C50C0093050CBF00
:102CE000130600133335A400EF00700CA2864A8649
:102CF000A2854A85EFE0BFE5CE850545EFE02FE5EB
:102D000003450D0093050CBF1306F0123335AA00DE
:102D1000EF00F00903C50C0093050CBF1306001368
:102D20003335A400EF00B008A2855285A2865286F2
:102D3000EFE0FFE1CE850545EFE06FE145BD138D86
:102D4000A18003450D00376C010093050CBF33B51E
:102D5000AB001306F012EF009005938CB18003C511
:102D60000C0093050CBF130600133335A400EF00CD
:102D70001004A2865E86A2855E85EFE05FDDCE85CB
:102D80000545EFE0CFDC03450D0093050CBF1306AE
:102D9000F01233B5AA00EF00900103C50C009305B3
:102DA0000CBF130600133335A400EF005000A286B9
:102DB0005686A2855685EFE09FD9CE850545EFE082
:102DC0000FD903450D0093050CBF1306F0123335E0
:102DD000A900EF00C07D03C50C0093050CBF1306CE
:102DE00000133335A400EF00807CA2864A86A285BA
:102DF0004A85EFE0DFD5CE850545EFE04FD50345A9
:102E00000D0093050CBF1306F0123335AA00EF0036
:102E1000007A03C50C0093050CBF1306001333356D
:102E2000A400EF00C078A2865286A2855285EFE00A
:102E30001FD2CE850545EFE08FD103450D009305E8
:102E40000CBF1306F0123335AB00EF00407603C51C
:102E50000C0093050CBF130600133335A400EF00DC
:102E60000075A2855A85A2865A86EFE05FCECE8590
:102E70000545EFE0CFCD9DBB03C3A180397152D48E
:102E8000376A010022DC4ED666CAAE892A849305D1
:102E90000ABF33356500B28C1306403606DE26DAEB
:102EA0004AD85AD05ECE428B6AC8B6843E8D56D27E
:102EB00062CC6EC6BA8B4689DD2D03C5B180130680
:102EC000503693050ABF33B5A900D5259306FBFFFD
:102ED0001306FDFFCE962296C2064206C1824182AB
:102EE000CE852285EFE0BFC6630A0B04C169814A23
:102EF000014AFD1933D46A03630E0D029307801C47
:102F0000014C814D3304F40266946308090433577D
:102F1000AC03CE8505450A072297184303470700EF
:102F20006374270181450545850DEFE04FC2269C5E
:102F3000E39FADFD050ADE9AE31E6AFBF250625480
:102F4000D2544259B259225A925A025BF24B624C05
:102F5000D24C424DB24D21618280B357AC03850DF6
:102F60000545269C8A07A2979C4303C707009355F3
:102F7000370009839397B50016075D8FD98DEFE071
:102F80000FBDE39CADFD7DB7397122DC26DA4ED64C
:102F900056D25AD093070008B70900207D7B896478
:102FA0004AD852D45ECE62CC06DE2315F100938956
:102FB0000900014A13844191130B5B1A930B00081B
:102FC000938404F4938A0191254C83D70900114618
:102FD0006C0013978700A183D98F11452317F10047
:102FE00023166101EFE04FF62315710183470400BA
:102FF00093F7F70F91CF0DA803A5C19281453355E3
:103000009502EFD0AFAB8347040093F7F70F89EF3A
:103010008357A1001387F7FF42074187C207C18783
:103020002315E100E34AF0FC8357A100C207C187E2
:103030006355F00283C71A0003C72A00050AA207D6
:10304000D98F420A2391F90023000400135A0A0180
:103050009109E31C8AF7014521A0E31D0AFC0545FF
:10306000F2506254D2544259B259225A925A025BD7
:10307000F24B624C21618280411122C41384319150
:103080008345040026C293840191A695114506C686
:10309000EFE0AFF38347040011C5850793F7F70FFF
:1030A0002300F4000547638EE7008D466396D70042
:1030B00023000400238AE190B2402244924441015B
:1030C000828003C704009307500AE307F7FE23003A
:1030D0000400B24022449244410182800547238685
:1030E000E190828039710D4506DE22DC4ED626DA6B
:1030F0004AD852D456D28969412413060005930652
:103100001005938509581145EFE08FEE854511456F
:10311000EFE08FE60145EF00505213844191230008
:103120000400EFF07FE61306E0146312051A230093
:10313000040093070008B7040020231DF1009384C6
:10314000440223000400938A8402130A50FA9389EC
:1031500009F483D7240083D604006C0813978700F2
:10316000A183D98F11451146230E4101A30ED10031
:10317000231FF100EFE04FDD03A5C19291048145CB
:10318000335535030605EFD06F93E3949AFC8347DC
:10319000040093F7F70FA9EB8357A1011387F7FFFB
:1031A00042074187C207C187231DE100635EF00229
:1031B0008964938404F429A88357A1011387F7FF36
:1031C00042074187C207C187231DE100635EF0000B
:1031D00003A5C192814533559502EFD02F8E8347C9
:1031E000040093F7F70FE9DB9384019103C7140000
:1031F00083C7240093060008231DD100F98F230004
:1032000004001307F00F638EE7048357A1011387AF
:10321000F7FF42074187C207C187231DE1006352C0
:10322000F0048969938909F4130AF00F29A88357D8
:10323000A1011387F7FF42074187C207C187231DFA
:10324000E1006350F00203A5C19281453355350377
:10325000EFD0CF8683C7140003C72400F98FE3980B
:1032600047FD8357A101C207C1876350F0062300C1
:103270000400EFF07FD12A8425EDEF00903C9147C8
:103280003EC495473EC299473EC09306900413063C
:103290008004A945254593089002130880029307EE
:1032A00060021307B004EFD00F84371500201966B1
:1032B0001307C59385461306068281451305C593FA
:1032C00023A4E190EFD0EF8E11A813065015B76537
:1032D0000100938505C70145D92C05442285F2508C
:1032E0006254D2544259B259225A925A2161828070
:1032F0001306D015E9BF411122C41384C19183453F
:10330000040026C293848191A695114506C6EFE07C
:10331000CFCB8347040011C5850793F7F70F230030
:10332000F4000547638EE7008D466396D7002300BF
:103330000400A38DE190B240224492444101828076
:1033400003C704009307500AE307F7FE23000400B5
:10335000B240224492444101828083A68190B70703
:10336000055094C78546A38AD19003C70700136709
:1033700017002380E700828023A0A1928280411160
:1033800022C493858192154506C6EFE00FC493854C
:1033900081922244B2403765002005461305C515C9
:1033A000410151A423A6A192B71702409843B70642
:1033B000FFF841111367170098C3D843371802402C
:1033C000B7050200758FD8C39843B706F7FEFD1600
:1033D000758F98C39843B706FCFFFD16758F98C389
:1033E000D843B70681FFFD16758FD8C337079F00F6
:1033F00098C702C402C69843C16613060050558F91
:1034000098C321A0A247638BC70083270800ED8FD4
:103410003EC6A24785073EC4B247EDD7B717024064
:103420009C431397E7006359070085473EC6324720
:1034300085476308F70001A002C632478547E31CB1
:10344000F7FE37366E011307F5FF13060660335794
:10345000C702B72602408C42B717024093E5050128
:103460008CC203A80600B7157A009385052013784F
:10347000C8FF23A0060103A806001D8B33670701C0
:1034800098C2D843D8C3D843D8C3D843D8C363015C
:10349000B50AD843B706C1FFFD16758FD8C33747A5
:1034A0009508130707406302E5043717270713073A
:1034B00007E06300E50A37E7B805130707806306EE
:1034C000E50A37A74A0413070720630AE508377798
:1034D000DC02130707C06300E50A631CC500D8437C
:1034E000B7060500558FD8C329A0D843C166558FAC
:1034F000D8C3B7160240984237060001B7170240FA
:10350000518F98C2984393166700E3DD06FED043BF
:10351000B71602402147719AD0C3D04313662600E4
:10352000D0C3DC42B18BE39EE7FE41016F009010F7
:10353000D043B71602401147719AD0C3D0431366E7
:103540001600D0C3DC42B18BE39EE7FE41016F0061
:10355000700ED843B7063900558FD8C359BFD8432A
:10356000B7061D00558FD8C369B7D843B7062900E1
:10357000558FD8C3BDBFD843B7061100558FD8C3E8
:103580008DBFF16541119306100613060006938561
:103590000520154506C6EFE0AFA585451545EFE0CA
:1035A000AF9DB24005472388E1924101828019E92D
:1035B00083C70193411106C699E7EF009008010007
:1035C0000100F5BF8280376501001305C5CEEFF01D
:1035D000105AEF001007E5B701114EC606CE22CCF7
:1035E00026CA4AC8B2896358C002D96703A4C7BDB6
:1035F000AE843389C500930500042285EF9090279F
:103600007DD985048385F4FF2285C205C181EF90B1
:10361000D025E39224FFF24062444E85D2444249D1
:10362000B249056182805C45637AF60A011126CAB7
:10363000AA8422CC4AC84EC652C456C206CE2E8A8E
:103640003289EF00100083AA0401C0408840B3898A
:103650008A4063F629074E86D2852295EFF06026D0
:10366000D84094484E97D8C06366D700158FE37F43
:10367000D7FED8C088404A94330454413A952286F4
:10368000B3053A01EFF0E023DC409848A297DCC094
:1036900063E6E700998FE3FFE7FEDCC0D044014515
:1036A0003309264123A62401492FF2406244D24423
:1036B0004249B249224A924A0145056182804A86BE
:1036C000D2852295EFF0E01FDC409848CA97DCC015
:1036D000E3E6E7FC998FE3FFE7FEC1B70945828087
:1036E00001114AC85C45032905014EC6B289104242
:1036F00022CC26CA5AC006CE52C456C2B307F940DD
:103700002A842E87368B814463F8C70023A0F900F2
:10371000032905013E868544032A8400B30A4941F2
:1037200063E7CA0211C70C403A85D295EFF06019E1
:1037300063010B04F2406244330590404249D24495
:10374000B249224A924A024B0D89056182806DD3AB
:103750000C4056863A85D295EFF0A01603A60900D4
:103760000C405695529633062641EFF08015E31330
:103770000BFCC12D83A7090014441848B6971CC43C
:1037800063E6E700998FE3FFE7FE1CC45C4403A7F0
:1037900009000145BA975CC44D2569BF01112AC6CD
:1037A000B247116713070765B387E7023ECEF247BA
:1037B0001387F7FF3ACEE5FF0561828035713AC97C
:1037C00086DEA2DCA6DACAD8CED6D2D4D6D2DAD059
:1037D000DECEE2CCE6CAEAC8EEC632C536C73ECB7C
:1037E00042CD46CF8387050038013ACCB5C3376751
:1037F0000100130DC101D964054AAE8A2A84032948
:10380000074583294745814C930D50029384C42F6B
:10381000330AAA4119A862872300F400568C0504D4
:10382000850CBA8A83071C008DC7138C1A00E39499
:10383000B7FF83871A0013073005890A9387B7FDFE
:1038400093F7F70FE360F7FE8A07A6979C438287FA
:10385000814CF65066546685D6544659B659265A58
:10386000965A065BF64B664CD64C464DB64D0D61EE
:103870008280E247984391073ECC83070700DDD35F
:10388000B3868C402300F400050783070700050476
:10389000B30CD400E5FB79B76247EA8625481C43A0
:1038A00011073ACC3D4519A08506BA8713F7F700F2
:1038B0009375F70F138605036374E8001386750389
:1038C0002380C60013D74700E360F5FE03083102EA
:1038D0008348C101830521020345D10183061102FA
:1038E0000346E101830701020347F10123000401BC
:1038F000A300B4002301D400A301F4002302E400D8
:10390000A302C4002303A400A3031401A301110311
:10391000230E01012301A102A30EB100A300C102E5
:10392000230FD1002300E102A30FF1002104A10C19
:10393000D5BDE2471D46984391073ECC937777006B
:1039400093870703230EF10093563700637EE64208
:103950006A879D4511A0B286050713F67600130607
:103960000603B307A74185072300C70093F7F70FA6
:1039700013D63600E3E1D5FE93D517003E8B95C1F3
:103980001387F7FF6A97EA87EA950386070083069D
:10399000070085072300C700A38FD7FE7D17E39696
:1039A000F5FE22855A86EA85EFE0B0715A94DA9CDA
:1039B00095BD6247A9460328070011073ACC135763
:1039C000F841B3470701998F33E7D702B3C7D7024E
:1039D00013070703230EE100638A073C85456A86C7
:1039E000294511A0BA85B3E6A7020506138715007D
:1039F0001377F70FB3C7A702938606032300D600F9
:103A0000F5F3634908283A8B93551700D9D9130762
:103A1000FBFF6A97EA87EA9503860700830607009B
:103A200085072300C700A38FD7FE7D17E396F5FE19
:103A300022855A86EA85EFE0D0685A94DA9CDDB395
:103A4000E2470504850C984391073ECCA30FE4FEA2
:103A5000D1BBE2466A8725489C42910636CC3D455B
:103A600019A00507B68793F6F70013F6F60F93052E
:103A700006036374D80093057603330647012300D9
:103A8000B70093D64700137BF60FE36CF5FC935514
:103A90001B0081D91307FBFF6A97EA87EA95038623
:103AA00007008306070085072300C700A38FD7FE02
:103AB0007D17E396F5FE22855A86EA85EFE0706071
:103AC0005A94DA9C85B3E2479D07E19B03AB07005C
:103AD00083AB4700A1075A85DE853ECCEFD0F028A6
:103AE0001357F541B347A700998FA94633E7D7028B
:103AF0002A88B3C7D70213070703230EE1006381A7
:103B0000072C85486A86A94511A0BA88B3E6B70292
:103B10000506138718001377F70FB3C7B70293860C
:103B200006032300D600F5F3014681465A85DE855B
:103B300046C63AC442C2EFC0905812482247B24823
:103B400063460516BA889355170095C11387F8FF89
:103B50006A97EA87EA9503860700830607008507C8
:103B60002300C700A38FD7FE7D17E396F5FE468698
:103B7000EA85228546C242C4EFE0B054224842851D
:103B8000EFD030252A86AE865A85DE85EFD0002A12
:103B90004A86CE86EFC0105E9248014681462A8B47
:103BA000AE8B4694C69CEFC01040631D0510B7371E
:103BB0003030938707033ECE8D679387070323102A
:103BC000F1029307E0022301F10299450D451D4BD7
:103BD000EA95AE876A870306070083860700FD170C
:103BE0000507A380C700A30FD7FEB386F540E3E423
:103BF000A6FE5A86EA852285EFE0B04CDA9C1DB11C
:103C0000E24729472546944391073ECCB3F7E602A5
:103C100093870703230EF10033D7E6026376D616A7
:103C2000EA86A945254511A032873376B702850675
:103C3000B387A641850793F7F70F13060603238082
:103C4000C6003356B702E361E5FE93D517003E8BFD
:103C5000E38905D41387F7FF6A97EA87EA95038615
:103C600007008306070085072300C700A38FD7FE40
:103C70007D17E396F5FE22855A86EA85EFE07044CB
:103C80005A94DA9C45B6930750022300F400850C41
:103C9000050449BE89059C003E9713FBF50F930769
:103CA000D00293551B00230EF7FC8DB39C008908AE
:103CB0003E9793F8F80F9307D00293D51800230E80
:103CC000F7FC61B55A85DE85EFD0300A1357F54110
:103CD000B347A700998FA94633E7D702B3C7D702E6
:103CE00013070703230EE100638E070E8546EA855E
:103CF000294511A0BA8633E6A70285051387160069
:103D00001377F70FB3C7A702130606032380C50076
:103D1000F5F3954763ECE7069C003E979305000397
:103D200093872600230EB7FC93F7F70F1946E38A13
:103D3000C7E898003E9793873600230EB7FC93F7A9
:103D4000F70FE380C7E894001306000313871700FA
:103D5000BE96238EC6FC1377F70F9945E303B7E6AB
:103D60009400369793862700230EC7FC13F7F60FAF
:103D7000E309B7E494003697230EC7FC0947E392A2
:103D8000E7E4A300C10235BD054B21B99C008906BB
:103D90003E9713FBF60F9307E002230EF7FC135533
:103DA0001B00E30805E49305FBFF1DB5054BE35A33
:103DB00008BE9307D002A30EF1008545094B81B9D7
:103DC0002AC2014681465A85DE85EFC0502F12482F
:103DD0008548E35E05D89307D002A30EF100854520
:103DE0008948ADB393070003A30EF100230FF10040
:103DF0008D4791BF935755000547938707043315A7
:103E0000A7008A0737E700E0BA9788C382809357F4
:103E100055000547938707063315A7008A0737E73C
:103E200000E0BA9788C38280B7E700E03E952300A0
:103E3000B540828005456F80301111C182806FC00E
:103E40008FBC411106C6EFC0AFBBB24041016F90BD
:103E5000D026B765002099689385051B930E400511
:103E600011689388383613086864239515012386F2
:103E7000D501238CD501B775002037670020239426
:103E800005E713078724B7620100239A019393057E
:103E900000002322B70E83A5824513066004130E8B
:103EA00020050543B76F01002310C7002300C70F8B
:103EB00023220700231F670C232CB70C03A7CF4531
:103EC000B767002093870717376500201305C51EC5
:103ED0002380C7002386C70323A207002396070079
:103EE0002397670298D7A947376F01005CC1B7775E
:103EF00000202386C7E283270F46B76600209386FB
:103F0000C6222300C500A380C60023A206009CCEC3
:103F1000828039716ACA376D0020130D0D1B83260C
:103F20000D028325CD0183278D0203274D020396C1
:103F30008199839EA199130860046EC823060D0120
:103F40002328DD021308F00FB76D002085662314C7
:103F50000D012326BD02232CFD0222DE26DC4ADAD7
:103F60004ED852D656D45AD25ED062CE66CC2320DA
:103F70000D0023220D00232AED02232E0D00232005
:103F80000D02137FF60F8147014E93086004938D55
:103F9000CD339386469C13085002130360049305A7
:103FA00040063387D7006E970307070085076344F1
:103FB000E800638B6812E396B7FEA306ED01239D2C
:103FC000F19263040E0023061D01B2876353D601EC
:103FD000F687377700201307C7EA8346270093F751
:103FE000F70F3AC636C4A305FD002305FD0081E6A0
:103FF00083477700F9CB83A9C18313091007B76FF3
:104000000020930720078D6B377B0020B70A004004
:1040100033093941938F0F53B302A040138CCD2B3A
:10402000014481443EC2014A8143894C938B6BC158
:10403000130B4BEC0548938AEAF803970F00635380
:1040400037014E8783958F3E6353B900CA85B30607
:104050005040635BB712B3077401BA978A07DA97C7
:104060003697B3855540014E0145938E2200944307
:10407000D04383C6060003460600638DC606630967
:10408000050D05079107E314B7FE6399930B6317BA
:104090007A0A8327CD0103270D02D98F9DE7A24716
:1040A00089E7B24783C777008DC303972D6A83974B
:1040B000AD2B930630062917D907232EDD002320C8
:1040C000DD022322ED022324FD027254E2545259F0
:1040D000C259325AA25A125B825B724CE24C524D68
:1040E000C24D054521618280054E93084005E39A43
:1040F000B7EAE1B503A3870083A8C700338FEE00BA
:104100000343030083C80800E39B68F6A9CA638BD6
:10411000160521CD9247094563D2F4027D1E9357BF
:10412000FE010247F2978587BA97232E9D0023222E
:10413000FD0223209D022324FD0226C2890F85044F
:104140009382E2F856941E8AE305FCF5AA83F5B53E
:1041500081E6050E054535B7E395C6F265BFE31266
:1041600005F3C5BFE31F05F175B78346070091EA64
:104170008346170099E68346270081E68346370089
:1041800089D27AC00545F5BD0145E39993FB01B796
:104190003787012013074790B7770020938747E7B9
:1041A000232C071A2326071A2328071A130760044B
:1041B0002384E70013070000D8C398C30947D8C772
:1041C0000D4798CB116713076764239AE70013071D
:1041D00060F9238BE70005458280411106C6EF4058
:1041E0001028B777002083C797EB89EBEF50304B4F
:1041F000EF402062B24041016F40D02CEF60700A66
:10420000EF402061B24041016F40D02B011122CC20
:104210000394E180B7770020938747E7944B239678
:10422000818006CE26CA4AC84EC60D476380E60284
:1042300083C7C19B89C72390019423910194F240C5
:104240006244D2444249B2490561828003C7870073
:1042500093076004E31EF7FC0395C1A29307D0F90E
:10426000635AF50623908194EFE0A023EFE0A03C91
:10427000B767010003A6074F83A6474FEFC0806FC3
:10428000B767010003A6874F83A6C74FEFB07076CC
:10429000EFA0203FB767010003A6075083A6475051
:1042A000EFC0406DB767010003A6875083A6C750D3
:1042B000EFB030012A892285AE89EFD080312A867D
:1042C000AE864A85CE85EFC0E06AEFD0002A239102
:1042D000A194B9BF9307400663DCA706EFE0601C1A
:1042E000EFE06035B767010003A6074F83A6474F8D
:1042F000EFC04068B767010003A6874F83A6C74F8A
:10430000EFB0306FEFA0E037B767010003A60750AA
:1043100083A64750EFC00066B76701002A86AE86C5
:1043200003A5875083A5C750EFC050302A89228546
:10433000AE89EFD0002A2A86AE864A85CE85EFC0A8
:104340006063EFD080222390A19423918194CDB516
:104350002390819423918194E1BD411106C622C42A
:1043600026C2EF909033B7770020938747E7984BAA
:104370000DCB83C78700930660046389D7021307B8
:1043800040056385E70A039761940395819422446D
:104390002398E1A2B24092442399A1A241016F90D7
:1043A0005072B24022449244410182809377D7FFF9
:1043B0008546638CD70091476309F70023930194E6
:1043C0002394019401450147D9B7B797012003A56C
:1043D000C7F3B7040020EFE0400103960194931661
:1043E0000501B7950120C186938505E81385C44171
:1043F000EF70F012B7970120138461942310A4008A
:1044000003A5C7F4EFD0707E03962194931605019F
:10441000B7950120C186938585EA1385C441EF7065
:1044200010102394A1940317040095B7B7970120A7
:1044300003A5C7F313846194EFD0307B9316050175
:10444000B795012037050020C1860146938505E810
:104450001305C53AEF70B00CB79701202310A400E4
:1044600003A5C7F4EFD0707893160501B795012026
:1044700037050020C1860146938585EA1305053C72
:10448000EF70F009031704002394A19409B79387F0
:1044900001959843411106C622C426C24AC063440E
:1044A00007007D1798C31384A19483570400B77441
:1044B000002037670100938444E788408325075133
:1044C00085072310F400EFD0E01788C0EF908065D7
:1044D00083C751999DE78397E1802390F1942391BD
:1044E000F194EFF0BFD2EFF05FE7031704009307FA
:1044F000703E63C3E706B240224492440249410140
:1045000082809C480947FD17636FF70283C68400C9
:10451000930760046399F602DC44638DE704054762
:104520006393E7020395E19313073501420723964E
:10453000A1A241839306600263F9E600EF907077D1
:10454000A38A019849BF239F0192239601A2EF906D
:104550005076A38A019841B71305C002EFC0EF8CD3
:10456000B240231004002244239E01929244024947
:104570004101828083964195B7950120370500203F
:1045800001469385C5E21305453DEF70100B239F4F
:10459000A19259BF828039715AD003A781A006DE4B
:1045A00022DC26DA4AD84ED652D456D25ECE62CC1F
:1045B00066CA6AC86EC685476309F7123774002059
:1045C000D96C596CD96B130444E793044005B76A5E
:1045D0000100376D0100B76D0100A1A81386CA491B
:1045E000814513050008EFD0DFE41C480D47638FB9
:1045F000E70805476387E7120947638EE712638878
:10460000071083475401638E97081386CA4989456A
:1046100013050008EFD0FFE183A701A10547638ED2
:10462000E7082945EFF08F9703A781A08547630E20
:10463000F70A894513854194EF00100F9307008016
:1046400013864C46814541452394F180EFD07FDEAF
:1046500013068C4785454145EFD0BFDD13868B4857
:1046600089454145EFD0FFDC834744017D472394D2
:10467000E180E39597F613068D49814513050008FF
:10468000EFD03FDB1C480D47E395E7F613860D4A54
:10469000854513050008EFD0DFD983475401E39621
:1046A00097F613068D49894513050008EFD07FD88A
:1046B00083A701A10547E396E7F603C7419423A822
:1046C00001A0630BF70851C38947E31CF7F40946BF
:1046D000930500081305540109292945EFF00F8CB3
:1046E00003A781A08547E316F7F4F250625423A490
:1046F00001A0D2544259B259225A925A025BF24B4B
:10470000624CD24C424DB24D054521618280B76763
:1047100001001386074C854513050008EFD07FD1B3
:10472000CDB5B76701001386874A85451305000894
:10473000EFD03FD0F9B5B76701001386474B8545E9
:1047400013050008EFD0FFCE6DBD014693050008AC
:1047500013054401592EF1B5D967054793060008A2
:1047600011469385874C13050401852D5DBD397174
:1047700022DC4AD85AD006DE26DA4ED652D456D299
:104780005ECE62CC66CA6AC86EC6130730062E8437
:104790002A8B3289930730066363B700AE8793058F
:1047A00030069D8DC20593071007C1815A8563F4B9
:1047B000670113051007930DFBFF130CABFF931B51
:1047C0001B0042054A864181C20D420CC20BB30C4C
:1047D0006441EFD05FB293DD0D01135C0C0193DBFC
:1047E0000B01229B930A1007130A30069309300627
:1047F00033849D01931704014A86C1836E8D63F44F
:10480000BA01130D1007420D135D0D016A85637423
:10481000FA00130430063384894042044180A285A3
:10482000EFD07FADB384BB4193970401C1834A8627
:10483000A28563F4FA0093041007C204C1802685A0
:10484000EFD07FAB3304BB4193170401C1834A8689
:104850006A856374FA001304300633848940420485
:104860004180A285FD1DEFD01FA9C20D4A86A285F9
:10487000268593DD0D01EFD01FA8E31BBCF7F25096
:104880006254D2544259B259225A925A025BF24BA4
:10489000624CD24C424DB24D2161828083A641A030
:1048A000411126C206C622C44AC00547AA84034451
:1048B0000500638EE60C83A6C1A105476384E60A62
:1048C00003A981A185476305F90483A6C1A063817B
:1048D000F606FD47238084002394F180931504019C
:1048E0009D47C18163F88706E11537660100C2055F
:1048F0001306C677C1810145EFD0BFB3B240224451
:10490000930700802394F180924402494101828000
:104910004165011523AC01A0EFD0BF991D469D450F
:104920001305000DEFD0FFB783A7C1A0639B270934
:104930004165011523A601A0EFD0BF979D45014613
:104940001305000DEFD0FFB523800400FD4723942D
:10495000F1808145376601001306C6770145EFD027
:104960005FAD69BF23AE01A031C87D141374F40F8D
:10497000131984011359894141650115EFD07F93C3
:104980004A869D451305000DEFD0BFB115BF23A288
:1049900001A09D476306F40405041374F40F131972
:1049A00084011359894141650115EFD09F904A86D2
:1049B0009D451305000DEFD0DFAEF5BD1D491D442B
:1049C00065BF9D47376601002380F400FD479D4584
:1049D0001306C67701452394F180EFD09FA539BF18
:1049E00001490144C9B75D716AD003A701A1A2C4FE
:1049F000A6C2031405002AC61305F08186C6CAC0E4
:104A00004EDE52DC56DA5AD85ED662D466D26ECE0C
:104A100085472394A1806303F706939B060193DBEC
:104A20000B01139C2B005E9C060CB30C8041C20C46
:104A3000420C2E89B289135C0C0193DC0C01854475
:104A400003A6C1A0CE854A8583A681A103A7C1A1E3
:104A500083A741A063039606638B960463179700B0
:104A60005E944204418423AE01A02286638F9704A2
:104A7000EFD0DFB983A701A1E39497FC93070080EF
:104A80002394F180B24723A801A0B6402390870069
:104A9000264496440649F259625AD25A425BB25BA6
:104AA000225C925C025DF24D0545616182806694F4
:104AB0004204418423AC01A055B76294420423A66A
:104AC00001A04184E39C96F8DDB7330474414204AD
:104AD00041842286CE854A8523A201A0EFD01FB350
:104AE00083A701A1E39E97F451BF5D716AD086C68A
:104AF000A2C4A6C2CAC04EDE52DC56DA5AD85ED66E
:104B000062D466D26ECE03A701A1834C05002AC6EB
:104B10009306F08185472394D1806307F7082E8A96
:104B2000B28A0544376C0100130B4005B76B0100D6
:104B300003A6C1A083A781A103A7C1A183A641A009
:104B40006306860C638B8708630E870E639386105B
:104B500023A201A0638E6C0313068C49D68552856F
:104B6000EFD03F8D83A701A1638F870803A6C1A063
:104B700083A781A103A7C1A183A641A0630B860AD5
:104B8000638C870863018706E39886FC23A201A053
:104B9000930C60041386CB49D6855285EFD07F896C
:104BA00083A701A1E39687F8930700802394F180FF
:104BB000B24723A801A0054523809701B6402644AB
:104BC00096440649F259625AD25A425BB25B225C61
:104BD000925C025DF24D6161828023AC01A0638F23
:104BE0006C036311870423AE01A0E39386FA1306D6
:104BF0008C49D685528523A201A0EFD09F8383A73D
:104C000001A1E39587F6930C400579BF23A601A087
:104C100063836C03E39787FC23AC01A0E31787FC55
:104C200023AE01A0E39A86F223A201A0930C6004B4
:104C300095B723A601A0E39387FE23AC01A0E3135D
:104C400087FE55B723AE01A0E3816CFBE39686F0A7
:104C5000E1BFE3916CF509B75D716AD066D286C693
:104C6000A2C4A6C2CAC04EDE52DC56DA5AD85ED6FC
:104C700062D46ECE03A701A1834D05002AC6130599
:104C8000F08185472394A180630AF70A2E8AB28AAD
:104C90000544930BC004377B01001DA06385850E7E
:104CA0006388870E6303871063807D0513064BB30B
:104CB000D6855285EFD0EFF783A701A163808708DF
:104CC00003A6C1A083A581A183A7C1A103A741A079
:104CD000E31686FC23A601A063827D0F638E850206
:104CE00063878708630E870AB77701001386C7B208
:104CF000D6855285EFD0EFF383A701A1638C870C93
:104D000003A6C1A083A681A183A7C1A103A741A037
:104D1000630B860AE39686FC23AC01A063898704B3
:104D20006300870813064BB3D6855285EFD06FF02A
:104D300083A701A1930D2005E39487F893070080D2
:104D40002394F180B24723A801A005452380B70131
:104D5000B640264496440649F259625AD25A425BFA
:104D6000B25B225C925C025DF24D6161828023AE97
:104D700001A063058700930D40050DBF23A201A08C
:104D8000930D600425B723AC01A0E39B7DF579B7B3
:104D900023AE01A093074005E39DFDFCE31287FECF
:104DA00023A201A0930D400511B723A201A09307F0
:104DB0004005E387FDFC930D4005CDBDE39085F6EE
:104DC00023AC01A031BF23A601A0E39986F423AC54
:104DD00001A039B7930DC00495B7397162CC5AD090
:104DE0005ECE06DE22DC26DA4AD84ED652D456D221
:104DF00066CA6AC803A801A1834405002A8B13056B
:104E0000F08185472394A1806308F80C2E84B28931
:104E1000368ABA8A854C03A7C1A183A741A025433E
:104E20006303970F63979701FD1423A201A093F4E6
:104E3000F40F93972400A697860763FC340D93889C
:104E400017001388270013853700938547001386C2
:104E500057009386670013877700138E87001383AC
:104E60009700A29722982295A2952296A296229721
:104E7000229E2293A29883CE0700034F0800834FFF
:104E8000050083C205008343060003C8060083476C
:104E900003008346070083C8080003470E00500044
:104EA000D6855285A306F1002302D101A302110188
:104EB0002303E101A303F10123045100A3047100C2
:104EC00023050101A305D1002306E100EFD06FD631
:104ED00083A701A1E39197F59307008023A801A080
:104EE0002394F18023009B00F2506254D254425923
:104EF000B259225A925A025BF24B624CD24C424D4A
:104F0000054521618280850423AE01A093F4F40F4E
:104F100011BF214E1D479946154691450D4509483B
:104F200085488147814435BF83A641A0011126CA27
:104F30004AC806CE22CC4EC60547AA842E89034411
:104F400005006382E60E83A6C1A105476386E608D5
:104F500083A681A105476388E60A83A6C1A0054709
:104F60006382E604FD47238084002394F180931537
:104F700004019D47C18163F98704E115376601008B
:104F8000C2051306C677C1810145EFD08FCAF24032
:104F90006244930700802394F180D2444249B2498D
:104FA000056182804165011523A601A0EFD06FB095
:104FB0009D4501461305000DEFD0AFCE23800400C0
:104FC000FD472394F1808145376601001306C677BB
:104FD0000145EFD00FC665BF23AE01A03DC87D14CB
:104FE0001374F40F41650115EFD0AFAC13168401B3
:104FF00061869D451305000DEFD0AFCA83A681A140
:105000000547E39CE6F44165011523AC01A0EFD010
:105010004FAA1316890161869D451305000DEFD037
:105020004FC84A841DBF23A201A06306B402050431
:105030001374F40F9319840193D9894141650115C3
:10504000EFD02FA74E869D451305000DEFD06FC5FD
:10505000DDBD4A8441BF81490144CDB7411126C21B
:10506000C16422C44AC006C60144938494E1130972
:10507000200742044180228526869305F00405041A
:10508000EFD06FA793170401C183139407014184E4
:10509000E39127FFC1640144938494E1130920073D
:1050A00042044180228526869305B0030504EFD093
:1050B0008FA493170401C183139407014184E391E2
:1050C00027FFC1640144938494E11309200742043B
:1050D000418022852686930570020504EFD0AFA19A
:1050E00093170401C183139407014184E39127FFBF
:1050F000C1640144938494E1130920074204418070
:1051000022852686CD450504EFD0EF9E9317040136
:10511000C183139407014184E39227FFC164130400
:105120003006FD14A2857D1442047D46130530022D
:105130004180EFD04F9CE31794FEC1641304300606
:10514000FD14A2851306007E13058003EFD0AF9AED
:10515000A2851306007E13059003EFD0CF99A28598
:105160007D1442041306007E1305A0034180EFD096
:105170008F98E31894FCC16413043006FD14A285D3
:105180007D1442047D461305F0044180EFD0AF96B4
:10519000E31794FE93040080130630029D452945D1
:1051A00023949180EFD0AFBC376601007D49130690
:1051B00046759D451305100323942181EFD06FA7F9
:1051C0001306F0049D451305800523949180EFD0CC
:1051D0000FBA3766010013068675954513058007DB
:1051E00023942181EFD0EFA4376601001306C67522
:1051F000914513058007EFD0CFA337660100130652
:1052000006768D4513058007EFD0AFA23766010003
:1052100013064676894513058007EFD08FA13766C0
:10522000010013068676854513058007EFD06FA031
:10523000376601001306C676814513058007EFD057
:105240004F9FB240239491802244924402494101ED
:105250008280797122D44AD052CC416A37690020C9
:1052600026D24ECE56CA5AC85EC662C406D6239D02
:10527000019281471309C933130B4005930430068B
:1052800093093006930AFA8121A80347C77663077A
:1052900067038507C207C187239DF19263CDF4267A
:1052A0000397019BE307F7FE0397219BE303F7FEB8
:1052B0003307F90083464738E39966FD13970701E2
:1052C0004183BE8563F4E400930530069387870F1E
:1052D0008607CA9703D54700B385B940C2057D1537
:1052E00013170501930710074183C18163F4E70099
:1052F00013051007420556864181EFC0DFFF8397F3
:10530000A193139707014183BE8563F4E4009305DD
:1053100030069387870F8607CA9703D54700B38562
:10532000B940C20593071007C18163F4A7001305B4
:1053300010075686EFC03FFC8397A1931397070190
:105340004183BE8563F4E400930530069387870F9D
:105350008607CA9703D54700B385B940C20505053E
:1053600013170501930710074183C18163F4E70018
:1053700013051007420556864181EFC0DFF783977A
:10538000A193139707014183BE8563F4E40093055D
:1053900030069387872E8607CA9703D5C700B38543
:1053A000B940C2057D151317050193071007418306
:1053B000C18163F4E7001305100742057D46418172
:1053C000EFC07FF38397A193139707014183BE85B5
:1053D00063F4E400930530069387872E8607CA9707
:1053E00003D5C700B385B940C20593071007C18133
:1053F00063F4A700130510077D46EFC0DFEF839726
:10540000A193139707014183BE8563F4E4009305DC
:1054100030069387872E8607CA9703D5C700B385C2
:10542000B940C2050505131705019307100741830D
:10543000C18163F4E7001305100742057D464181F1
:10544000EFC07FEB8397A193139707014183BE853C
:1054500063F4E400930530068607CA9703D5070076
:10546000B385B940C20593071007C18163F4A70053
:105470001305100713060A80EFC0FFE78397A19377
:10548000139707014183BE8563F4E400930530065A
:105490008607CA9703D50700B385B940C2057D15B5
:1054A00013170501930710074183C18163F4E700D7
:1054B00013051007420513060A804181EFC0BFE3C0
:1054C0008397A193139707014183BE8563F4E4009A
:1054D000930530068607CA9703D50700B385B94000
:1054E000C205050513170501930710074183C18104
:1054F00063F4E70013051007420513060A80418193
:10550000EFC07FDF8397A1938507C207C187239DE3
:10551000F192E3D7F4D8B250225492540259F2498E
:10552000624AD24A424BB24B224C45618280397169
:1055300062CC03A781A05ECE06DE22DC26DA4AD842
:105540004ED652D456D25AD066CA6AC86EC685475D
:10555000938BB196630EF71C416A378D012093043B
:10556000300613043006130A0A80B78C01208547E1
:105570002380FB00EFE07FC683A741836358F00CD4
:10558000930D4DAD81491309100783A74D0003A763
:105590004D00C207C183BA8563F4F4009305300659
:1055A00003A50D00B305B440C2057D159317050191
:1055B000C183C1816374F900130510074205528647
:1055C0004181EFC05FD383A74D0003A74D00C20701
:1055D000C183BA8563F4F4009305300683A70D00F8
:1055E00003A70D00B305B440C207C205C183C18142
:1055F0003A856374F900130510074205528641810C
:10560000EFC07FCF83A74D0003A74D00C207C18322
:10561000BA8563F4F4009305300603A50D00B305C5
:10562000B440C205050593170501C183C1816374A8
:10563000F90013051007420552864181EFC0BFCB28
:1056400083A741838509A10DE3C1F9F483A7818371
:105650006358F00C938D4CDF81491309100783A721
:105660004D0003A74D00C207C183BA8563F4F4005F
:105670009305300603A50D00B305B440C2057D15A2
:1056800093170501C183C1816374F90013051007E5
:1056900042057D464181EFC01FC683A74D0003A789
:1056A0004D00C207C183BA8563F4F4009305300648
:1056B00083A70D0003A70D00B305B440C207C205C0
:1056C000C183C1813A856374F9001305100742054F
:1056D0007D464181EFC03FC283A74D0003A74D0027
:1056E000C207C183BA8563F4F4009305300603A5AD
:1056F0000D00B305B440C205050593170501C1832C
:10570000C1816374F9001305100742057D4641818C
:10571000EFC07FBE83A781838509A10DE3C1F9F4A2
:105720002945EFE0AF8703A781A08547E311F7E4A0
:1057300041650115EFC0FFB7F250625423800B00A2
:1057400023A401A0D2544259B259225A925A025B60
:10575000F24B624CD24C424DB24D014521618280E8
:1057600079716AC003A781A006D622D426D24AD076
:105770004ECE52CC56CA5AC85EC662C466C285476F
:105780006304F714B7690020376400204169B77CCF
:1057900000201304C4229384091B376C0100376B6B
:1057A0000100B76A010013090980EFE01FA3930706
:1057B0002007130740068148130840069306200778
:1057C0008145014513864CECEFD00FEBEFF01F89BC
:1057D000EFF03FA883459400034584004A86EFE03C
:1057E0001FF98345D4000345C4007D46EFE03FF830
:1057F00083C5140003C5091B1306007EEFE03FF7C5
:105800008345B4000345A4004A86EFE05FF6834574
:10581000F4000345E4007D46EFE07FF583C53400E6
:1058200003C524001306007EEFE07FF413068C64AA
:10583000814513056009EFC0DFBF0396419585459B
:1058400013056009EFC09FDC13060B65894513053E
:105850006009EFC01FBE0386A4008D4513056009D3
:10586000EFC03FC41386CA65914513056009EFC0B8
:105870005FBC0396C1A2954513056009EFC01FD90F
:1058800003060401994513056009EFC09FC1030693
:1058900024019D4513056009EFC0BFC00306140134
:1058A00099451305E00BEFC0DFBF030634019D45AA
:1058B0001305E00BEFC0FFBE7945EFD03FEE03A725
:1058C00081A08547E313F7EE41650115EFC07F9E88
:1058D000B250225423A401A092540259F249624AC0
:1058E000D24A424BB24B224C924C024D014545618B
:1058F00082805D71A2C44EDE37040020B7690020AB
:1059000052DC5AD85ED686C6A6C2CAC056DA62D45F
:1059100066D26AD06ECE938909171304C404FD4B76
:1059200083A781A085446380971A95451385419686
:10593000EFF08FDF1386018681454145EFC07FAFD1
:105940001386818685454145EFC0BFAE5966130673
:10595000065C89454145EFC0DFAD59661306C65C5C
:105960008D454145EFC0FFAC59661306C65D9145B4
:105970004145EFC01FAC59661306865E954541450B
:10598000EFC03FAB59661306465F99454145EFC0EE
:105990005FAA03C7C902239471819307C004630CF3
:1059A000F70837760100130646B3814513058007D3
:1059B000EFC03FA80316E400894513058007EFC038
:1059C000FFC4031604018D4513058007EFC01FC4F3
:1059D00003162401914513058007EFC03FC303164A
:1059E0004401954513058007EFC05FC203166401AB
:1059F000994513058007EFC07FC10396E9028545ED
:105A000013058007EFC09FC083A701A1E39A97F019
:105A100083C7419623A801A0194741455146B94D76
:105A2000D946C945636CF70859678A071307475178
:105A3000BA979C438287377601001306C6B2814528
:105A400013058007EFC0FF9E031624008945130548
:105A50008007EFC0BFBB031644008D4513058007C8
:105A6000EFC0DFBA03166400914513058007EFC04D
:105A7000FFB903168400954513058007EFC01FB9D1
:105A80000316A400994513058007EFC03FB803969D
:105A9000E902854513058007EFC05FB783A701A121
:105AA000E39097E883C7419623A801A019471145C1
:105AB0002146894DA9469945E378F7F641650115D8
:105AC000EFC02FFFB1BDB640264423A401A09644E9
:105AD0000649F259625AD25A425BB25B225C925C2E
