:100000006FC0501A1300000013000000130000001E
:100010001300000013000000130000001300000094
:100020001300000013000000130000001300000084
:08003000130000007300100032
:100038000000000000000000DEC40000E2C4000070
:1000480000000000EAC800000000000000000000F6
:10005800ECC80000EEC8000000000000000000002E
:10006800F0C8000000000000F2C800000000000016
:10007800F4C80000F6C80000F8C80000FAC800007C
:10008800FCC80000FEC8000072C100008AC1000060
:10009800A4C10000BEC10000D8C100000AC9000008
:1000A8000CC900000EC9000010C9000012C90000E8
:1000B80014C9000016C9000018C900001AC90000B8
:1000C8001CC900001EC9000020C90000F2C10000C0
:1000D80024C900003AC3000028C900002AC900004A
:1000E80068C3000086C30000B4C3000032C9000022
:1000F80034C9000036C9000038C900003AC90000F8
:100108003CC90000BABF0000ECBF00002EC00000D0
:1001180070C2000046C9000048C900004AC9000072
:1001280064C400004EC9000050C9000052C9000054
:1001380054C9000056C90000E2C300005AC90000B3
:1001480060C0000092C0000010C4000032C400006B
:1001580064C9000066C9000068C900006AC90000D7
:100168006CC900006EC9000070C9000072C90000A7
:1001780074C9000076C9000078C9000042DC00009C
:100188007CC900007EC9000042C10000B8C0000060
:10019800EAC0000020C1000088C9000092C4000025
:1001A8008CC900008EC9000090C90000C0C40000BE
:1001B80094C9000096C9000098C900009AC90000B7
:1001C8009CC900009EC90000A0C90000A2C9000087
:1001D8000000000000000000000000000000000017
:1001E8000000000000000000000000000000000007
:0801F8000000000000000000FF
:10020000737504308280B76200009382820873A005
:10021000023082803D432A876373C3029377F700DD
:10022000BDEFADE5937606FF3D8ABA960CC34CC38D
:100230000CC74CC74107E36BD7FE11E28280B306BF
:10024000C3408A069702000096966780A60023079F
:10025000B700A306B7002306B700A305B700230520
:10026000B700A304B7002304B700A303B700230318
:10027000B700A302B7002302B700A301B700230110
:10028000B700A300B7002300B700828093F5F50FF5
:1002900093968500D58D93960501D58D61B793967C
:1002A00027009702000096968682E78086FA96805D
:1002B000C1171D8F3E96E374C3F8A5B739CD054726
:1002C000630DE5040947630AE5040D476307E50488
:1002D00011476304E50415476301E5041947630EFC
:1002E000E5021D47630BE50221476302E50425474C
:1002F0006305E50429476308E5042D47630BE5041E
:1003000031476300E5023547630BE5043947630E67
:10031000E5043D476301E50682808146014681454B
:100320003DA3814601468145130520040DA3814666
:10033000014681451305000219AB814601468145FE
:100340001305100229A381460146814513050004C7
:10035000FDA981460146814513051004CDA98146BA
:100360000146814513053004DDA1814601468145E2
:1003700013054004E9A9814601468145130550044F
:10038000F9A1411122C4372401404AC091460546D3
:100390002E899375F50F1305044006C626C2EFC0DB
:1003A000700C130504408545B7240140EFC0F009E7
:1003B0001384044089452285EFC0B01665DD03A58E
:1003C000C444B240224433552501420592440249B7
:1003D000418141018280797106D622D426D2F93D2D
:1003E000854513050020EFD020000145372401404A
:1003F000EFC0106B13050440EFC0E076B7070E00A6
:10040000130504408A853EC68547230AF10002C0D1
:1004100002C202C402C8EFC0207A13050440854519
:10042000EFC0407F130504408145EFC03010130535
:100430000440B7240140EFC0007F138404402285AC
:10044000EFC0007F6DFD1385044037240140EFC0ED
:10045000A07E130404402285EFC0A07E6DFDB25043
:100460002254925445618280B7F700E023A0070030
:100470008146014794C7D8C7054798C337F700E0BE
:100480001047544763E6D500E39CB6FEE37AC5FE09
:10049000828079715EC662C466C2328CAE8CB68BC5
:1004A000014693068004814506D622D426D24AD03E
:1004B0004ECE52CC56CA5AC8BE8A3A8B428AC68998
:1004C00083440103034941030344810349266685AC
:1004D00093068004014681459D2E62859306800423
:1004E00001468145AD265E8593068004014681451F
:1004F000B92E5A859306800401468145892E56857A
:10050000930680040146814599265285930680040E
:10051000014681452D2E4E85930680040146814576
:100520003D264A8593068004014681450D26268591
:100530009306800401468145192E22852254B2502B
:1005400092540259F249624AD24A424BB24B224C6F
:10055000924C93068004014681454561CDAC011162
:1005600022CC26CA2E84AA848545096506CE4AC8AF
:100570004EC63289B689EFC05065B707055003C72C
:100580000700130560058D451377F70C2380E700FE
:1005900003C70700136727042380E70003C717007A
:1005A0001377970FA380E700239237012393270146
:1005B00084C7C0C703C717001377F703A380E700FA
:1005C00003C717001377F70FA380E70003C71700CF
:1005D00013670701A380E70003C7270013674700DD
:1005E0002381E70003C7170013671700A380E70004
:1005F00003C70700136717002380E700EF30D026FA
:100600006244F240D2444249B24913056005056193
:100610006F305022B707002041119387070022C492
:10062000AA9706C683C6070059671307C76F9317B3
:100630002500BA971307F00F80436385E6003685DF
:10064000E12209C903554402B240224442054185D2
:100650004101828003554402B24022443305A04048
:100660004205418541018280D9679387C76F0A059A
:100670003E951C41239207028280011122CC2E84D8
:10068000914506CE26CA4AC8AA843289EF00707204
:10069000B76501001306300893858551EF302015AA
:1006A0002685EF00F072930680040146814513759C
:1006B000F40F712A81459306800401461375F90FE2
:1006C0007922B707002093870700A6972380870029
:1006D0009355840085476388F504C5476381F50C0D
:1006E000930710026385F50C93072002638AF508CF
:1006F00093071003638CF50C930710076381F50CC7
:10070000930710086386F508930710096385F50CB5
:10071000930720096390F502370701405C4F93E788
:1007200007025CCF01A83705160085451305050CA7
:10073000EFC0B02C85450545EFC0104B4800EFD009
:10074000201CD9679387C76F8A04BE948040C16715
:10075000FD174C0022853EC402C223060100EFC0F3
:10076000505E228593050006EFD040202285854506
:10077000EFD0801AF2406244D2444249056182803F
:1007800037151A00854513050580EFC010275DB7A2
:10079000370701405C4F93E707015CCF61BF370526
:1007A0001800854513050530EFC0302561B73715B2
:1007B0001A008545130505C0EFC03024A5BF3707D3
:1007C00001405C4F93E747005CCFADB785450565B9
:1007D000EFC0B02285B7370701405C4F93E70704AD
:1007E0005CCF89BF9357550013972700D96793872C
:1007F000C758BA973D89984385473395A70099C153
:1008000008CB828048CB8280135735009376C7018E
:1008100059671307C7583697184385473395A7007C
:100820001C477D8D3335A00082809357350013F728
:10083000C701D9679387C758BA9798439377F5004C
:10084000054554473315F500358D48C78280930719
:10085000F00F6307F50C797122D41354550026D29A
:100860004AD04ECE52CC06D61D889374F5003689F8
:10087000B2892E8A0DC885476305F40A8947630744
:10088000F40A8D476309F40A9147630CF40A95470B
:10089000630FF40A9947631CF400854513050010A3
:1008A000EFC0903429A085451145EFC0F0330547CE
:1008B000B3149700C204D9679387C758C1800A044C
:1008C0003E94231291009377F90F0040630FEA00E2
:1008D0004C0022853EC6EFC08049B250225492544B
:1008E0000259F249624A456182804209135909015D
:1008F00013598900631309000D494C0022854AC42D
:100900003EC6EFC0C0464E86A6852285EFC0500E7B
:10091000B250225492540259F249624A456182808F
:10092000828085452145EFC0302C51B78545414532
:10093000EFC0902BADBF854513050002EFC0D02A54
:10094000BDB7854513050004EFC0102A8DB7854556
:1009500013050008EFC0502999BFD9679387074F47
:1009600003AF070083AE470003AE870003A3C700B1
:1009700083A8070103A84701D44F9853904FDC5335
:100980001D71A6CAAE84854586CE7ACC76CE72D04D
:100990001AD246D442D636DA3ADCA2CCCAC8CEC67F
:1009A000D2C43EDE2A843769010032D8EF0070409D
:1009B0009305095A13065002EF2070631306600274
:1009C0009305095A33359000EF2070622285EF00BD
:1009D000304013DAF40093170A01C1838507B3D4BA
:1009E000F402D967931924009387C76FCE9703A9A0
:1009F00007006C00231641014A85231901002317C3
:100A00000100230A01001374F40F0A042318910053
:100A1000EFC0303305464A858545EFC090734A855F
:100A20008545EFD060039C003E94032584FD8D45F1
:100A3000EF3080639C00BE9903A589FDEF30805F95
:100A40004A858545EFC0506DF6406644D644464918
:100A5000B649264A25618280630305208547630CD9
:100A6000F52089476303F5208D47630CF520C147C6
:100A7000630FF520C5476303F522C9476307F522D5
:100A8000CD476301F524930700106304F524930711
:100A900010106306F524930720106308F5249307CC
:100AA0003010630AF524930700116307F5209307BC
:100AB00010116308F52493072011630BF5249307A5
:100AC0003011630EF524930700206301F526930788
:100AD00010206303F526930720206305F52693076E
:100AE00030206308F52693070021630BF526930752
:100AF0001021630EF526930720216301F528930743
:100B000030216304F528930700226307F528930733
:100B10001022630AF52893070030630DF528930728
:100B200010306300F52A930720306303F52A9307FA
:100B300030306304F52C930700316309F52A9307DD
:100B40001031630EF52893072031630FF52A9307C0
:100B500030316302F52C93070040630CF5169307C0
:100B60001040630EF516930720406300F5189307B5
:100B700030406302F518930700706303F51E930776
:100B800010706306F51E930720706309F51E930726
:100B90003070630CF51E93070071630DF520930709
:100BA00010716300F522930720716303F522930708
:100BB00030716300F5289307058063880712856705
:100BC000138717806309E512138727806301E528DF
:100BD000938737806306F526856713870781630F40
:100BE000E52C138717816304E52C1387278163089D
:100BF000E51E138737816300E52213870790630999
:100C0000E51C13871790630AE51E13872790630975
:100C1000E52813873790630EE52613870791630352
:100C2000E526938717916308F52485671387279135
:100C3000630CE522138737916301E522138707923E
:100C40006301E50C138717926308E5141387279255
:100C5000630BE514938737926306F51C8280930635
:100C60008031014685452145DDB693068031014638
:100C700085452945E9BE93068031014685452545D0
:100C8000F9B693068031014685452D45C9B69306D0
:100C90008031014685451305900855BE9306803185
:100CA000014685451305B0085DB6930680310146BF
:100CB00085451305D00861BE930680310146854500
:100CC0003D4571B693068031014685451305E00820
:100CD000BDBE930680310146854501458DBE930614
:100CE00080310146854505459DB693068031014614
:100CF00085450945A9BE93068031014685450D45C8
:100D0000B9B693068031014685451305300281B698
:100D100093068031014685451305A0020DBE93065A
:100D20008031014685451305B00215B69306803122
:100D300001468545194521BE93068031014685450A
:100D40001D4531B6930680310146854513050002E5
:100D5000FDBC930680310146854513051002C5BCD4
:100D6000930680310146854513056004CDB4930692
:100D700080310146854513057004D1BC930680314E
:100D80000146854513058004D9B493068031014698
:100D900085451305900465BC930680310146854561
:100DA000130540026DB49306803101468545130555
:100DB000500271BC930680310146854513056002DF
:100DC00079B493068031014685451305700241B41C
:100DD0009306803101468545130580028DBC93063C
:100DE0008031014685451305D00695B493068031C0
:100DF000014685451305C00699BC9306803101461E
:100E0000854513059002A1B49306803101468545BE
:100E10001305E0062DBC9306803101468545130578
:100E2000F00635B493068031014685451305F0047C
:100E300039BC93068031014685451305D00401BCB9
:100E400093068031014685451305400409B4930695
:100E50008031014685451145DDBA93068031014652
:100E6000854513057006E5B2930680310146854538
:100E700013055006E9BA93068031014685451305EE
:100E80003006F1B293068031014685451305100600
:100E90007DBA93068031014685451305B00445BAF5
:100EA0009306803101468545130530044DB2930603
:100EB0008031014685451305B00651BA930680314D
:100EC000014685451305900659B293578500596729
:100ED0001307C76F8A07BA9794431307102183D764
:100EE000C602B385F5026302E5046364E502FD779B
:100EF0009387076FAA970D47636DF7009307803EAE
:100F00000D89B3D5F5020A053695C205C1814CD9C4
:100F10008280896793870771B3D5F5020D890A0529
:100F20003695C205C1814CD98280E1679387076AF3
:100F3000B3D5F5020D890A053695C205C1814CD994
:100F40008280397126DA9354850022DC52D42A84B7
:100F50002E8A26858D4506DE4AD84ED63289912DB9
:100F6000B76501001306900B93850561EF203008EB
:100F70002685B92D2285CD3485450545EFC0C0466F
:100F80009357440005476388E7044547638FE71A92
:100F9000130710026381E71E130720026382E71222
:100FA000130710036388E71E13071007638DE71C00
:100FB000130710086381E716130710096381E71E02
:100FC000130720096395E710370701405C4F93E74B
:100FD00007025CCFEDA83705160085451305050C03
:100FE000EFC0A02183A58183896993890971B3D753
:100FF0004503C18393861700B38646031397070101
:101000004183B3D5D50293970501C1833389270363
:10101000BE85D9679387C76F8A04BE94844093873F
:10102000F5FF4C0026852314F1002312E10023155F
:1010300001002313010023060100EFC08050335943
:101040003903C167938707073EC8B70702008907BE
:10105000231A01003ECC02CE0D88231B210121C49E
:101060008547630CF40E89470C0826856304F40C4D
:10107000EFC0207FA1452685EFC0301593050040C5
:101080002685EFC0101A26858545EFC0F00A268513
:101090008545EFC07008F2506254D2544259B2599B
:1010A000225A216182800C082685EFC0E0562685F1
:1010B000A145EFC0B00D91452685EFC0B012E1B754
:1010C00037151A00854513050580EFC0001383A569
:1010D000818313061021B3D74503C183938617007C
:1010E000B3864603139707014183B3D5D50293977F
:1010F0000501C183BE85338927036305C402636785
:10110000C402FD779387076FA2978D4663E0F602CE
:101110009309803EFDBD370701405C4F93E707010F
:101120005CCF75B7E1699389096AE5B589699389E7
:101130000971C5B5EFC0E0652685A145EFC0D007B0
:1011400091452685EFC0D00C3DBF37051800854579
:1011500013050530EFC0600A9DBF0C082685EFC05F
:1011600020562685A145EFC09003930500402685B3
:10117000EFC0700809BF37151A008545130505C073
:10118000EFC0A007A9B7370701405C4F93E74700BE
:101190005CCF35BF85450565EFC020060DBF37071D
:1011A00001405C4F93E707045CCF15B7411122C49F
:1011B00026C24AC006C6AE843284368955C5C147A8
:1011C0006302F510930700026301F5129307000311
:1011D000630AF50E93070004630DF514B76501006B
:1011E00013069002938505680145EF20406089470A
:1011F0006386F408C9476385F40A9307200263886D
:10120000F41093072003638DF40893072004638789
:10121000F40EB765010013060003938505680145C8
:10122000EF20E05C85476305F406C5476303F408D7
:10123000930710026306F40E930710046304F4107E
:10124000930710036307F4069307F00F6315F40880
:101250002244B24092444A85024993060031014635
:10126000854541016FF0AFDE930680310546854527
:101270001545EFF0CFDD8947E39EF4F69306803104
:10128000054685451D45EFF08FDC8547E31FF4F8E3
:1012900093064030054681451945EFF04FDB4DBFC1
:1012A000930680310546854513055002EFF02FDA8D
:1012B00095BF930640300546814513054002EFF087
:1012C0000FD979B79306803105468545130530025D
:1012D000EFF0EFD729BFB7650100130680039385B0
:1012E00005680145EF20A050A5B79306803105465B
:1012F00085451305D002EFF08FD5D5BD930680311B
:10130000054685451305C004EFF06FD421BF930651
:101310008031054685451305F002EFF04FD319B72C
:1013200093064030054681451305E002EFF02FD2C9
:1013300005B793068031054685451305A004EFF0F7
:101340000FD175B593064030054681451305B004AD
:10135000EFF0EFCFF5BD5D7193182500CAC02A8963
:1013600059651305056F46954EDE8329050086C62F
:10137000A2C44E85A6C252DC56DA5AD85ED63E8B3F
:10138000AE84B28B368ABA8A4284EFC0600D85453E
:101390000545EFC06005C1476309FA0E93070004D5
:1013A0006316FA00930720046385FA16630B090E8F
:1013B00085476301F91889476309F916A2865A8699
:1013C000D6855285E533B70704013EC623180100D0
:1013D00085476380F40E638C04100947638AE40E2A
:1013E0008D466385D40803A441929307F00F3354CC
:1013F00074034204418063F287041304800393075B
:1014000000206C004E85231BF1009D47231C8100AA
:10141000231EF100231D0100EFC0A00A4E85854563
:10142000EFC00010B640264496440649F259625A6D
:10143000D25A425BB25B616182809307F00763E737
:1014400087069307F00363E3870CFD4763E9870E84
:10145000BD4763E9870E9D4763E8870E8D4763E7C5
:10146000870E854763F6870E014451BF231AF100AA
:1014700003A441922319E1009307F00F335474033E
:1014800042044180E3EB87F64DBFC947E390FAF28F
:10149000C547E31DFBF085450545EFB01056E31940
:1014A00009F085450565EFB0307409BF13040003EA
:1014B000B9B703A4419223190100231A91003354B0
:1014C00074039307F00F42044180E3E887F2B5B755
:1014D00003A4419223199100231A01003354740389
:1014E0009307F00F42044180E3E987F0B9B703A402
:1014F000419223190100231A010033547403930706
:10150000F00F42044180E3EA87EE05BF1304800236
:10151000FDB593071004E31BFBE837152000854554
:1015200013050510EFB0704D51B585452165EFB03D
:10153000906D69B585451165EFB0F06C41B5130448
:10154000000275BD614465BD414455BD214445BDA2
:10155000B76501001306D008938505680145EF20A3
:10156000002971BDD9670A059387076FAA97984329
:101570002316B7008357870093F70708E5FF82809B
:10158000D9670A059387076FAA97984393D7850071
:101590002316F7008357870093F70708E5FF93F5B5
:1015A000F50F2316B7008357870093F70708E5FF69
:1015B000828093172500138541A33E951C4181E746
:1015C0000CC1054582803385B740133515008280F4
:1015D00021C10547630BE50209476308E5020D4792
:1015E000630EE5021147630FE50215476300E5044A
:1015F00019476301E5041D476303E50421476304BC
:10160000E50425476306E504828085456FB0B05F39
:1016100005658545130505806FB0105D854511454D
:101620006FB0705E854521456FB0F05D85454145E1
:101630006FB0705D8545130500026FB0D05C8545C5
:1016400009656FB0705A8545370508006FB0D059ED
:101650008545370510006FB03059411122C406C6C8
:101660002E8441C98947630BF516C147630BF512F8
:10167000C947630AF51A930700026305F51C93072F
:101680002002630AF51893074002630CF51C9307C8
:1016900000046302F518930720046302F520930702
:1016A00000056305F522930720056300F524937771
:1016B000D5FF130700066383E72093070007630144
:1016C000F51C93072007630EF52493074007630872
:1016D000F526930700086303F52893072008631095
:1016E000F502E146014685451305E008EFF02F9627
:1016F00039A0E146014685452545EFF04F958547E0
:101700006307F4088D476300F40CC5476300F40ECB
:10171000CD476307F40E93071002630EF41093078E
:1017200030026307F408930750026305F41293072D
:101730001004630FF40693073004630BF41493074B
:1017400010056306F416930730056309F418930730
:1017500010066304F41A930730066307F41A93071C
:1017600010076308F410930730076306F41A930711
:101770005007630FF41A93071008630AF41C9307C9
:1017800030086305F41EB240224441018280930672
:1017900080040146814529452244B24041016FF051
:1017A0000F8BE146014685450945EFF04F8A81BF21
:1017B0002244B24093068004014681451305B004DB
:1017C00041016FF0CF882244B24093068004014665
:1017D00081451305700241016FF06F87E1460146B4
:1017E000854513056002EFF08F8611BF2244B24099
:1017F00093068004014681450D4541016FF02F8518
:101800002244B240930680040146814513056006D8
:1018100041016FF0CF83E146014685451305A004E1
:10182000EFF0EF82E9BDE14601468545130550061C
:10183000EFF0EF81E9B59306800401468145130579
:10184000B00299BFE146014685451305A002EFF0BD
:101850000F8075B5930680040146814513059006F7
:1018600025BFE1460146854513058006EFE03FFEB2
:1018700079B593068004014681451305300429BFDC
:10188000E1460146854513052004EFE05FFC85BD78
:10189000930680040146814513051002F5BDE1461B
:1018A0000146854513050002EFE07FFA89BD9306E6
:1018B00080040146814513052006F9BDE146014635
:1018C000854513050004EFE09FF815BDE14601468C
:1018D00085451305C004EFE09FF715B59306800416
:1018E000014681451305900845BDE1460146854501
:1018F00013058008EFE0BFF519B593068004014693
:1019000081451305100449BD9306800401468145B5
:101910001305B00851B593068004014681451D4565
:10192000A5BDE146014685451945EFE05FF2C1BB23
:1019300093068004014681451305D008B1BDE146F8
:10194000014685451305C008EFE07FF04DBB9306C7
:10195000800401468145130550043DBDE146014622
:10196000854513054004EFE09FEE51BB93068004CC
:10197000014681451305F00805B51DC6D9670A055E
:1019800093874772AA9798432E96850583C6F5FFDD
:101990008357070093F70708E5DF93970601C18394
:1019A0002312F700E393C5FE8280D9671317250041
:1019B000938747724111BA9726C2AA84884322C4EA
:1019C0002E862E849305505206C6EFC0801C1385C8
:1019D000C184269503450500B7E700E0AA97238058
:1019E000074019C42244B240924441016F208064F0
:1019F0002244B240924441016F206065D9670A05D4
:101A000093874772AA9798438357070093F7070273
:101A100099E3014582808357470005452380F500FF
:101A20008280797122D44ECE2A84AE8905458545BF
:101A300006D626D24AD0B2843689EFB0F01ACA85CB
:101A4000268521398947638DF414C9476382F406DA
:101A5000930720026386F40A93074002638DF40A19
:101A6000930720046385F40C93072005639AF40C14
:101A700093073005630CF91821C48547630AF414F1
:101A80008947630DF4148D476300F416914763038F
:101A9000F41695476306F41699476300F4189D47BA
:101AA0006314F402854513050010EFB0D01529A882
:101AB000CD47E313F9FC85452145EFB0007455FC93
:101AC00085451165EFB05012D967938747720A04B4
:101AD0003E9400408A85B7070C0022854EC03EC464
:101AE0002316010002C2EFB0107822858545EFC0B1
:101AF0004008B250225492540259F2494561828002
:101B000093073002E31AF9F63705140085454105BD
:101B1000EFB0A06E95B793075002E31FF9F43705B5
:101B20001400854513050503EFB0206DB1B7930789
:101B30003004E313F9F485450565EFB0006C2DBF63
:101B400093072006639EF40093073006E316F9F22C
:101B500037150080854513050580EFB0006A29BF61
:101B600093072007639EF40093073007E316F9F00C
:101B7000370701405C4FB7064000D58F5CCFEDBD05
:101B8000930740076396F40293075007E316F9EEB4
:101B9000370701405C4FB7068000D58F5CCFE9BDA9
:101BA0008D47E31BF9EC85451145EFB00065E9B5BC
:101BB00093072008E392F4EC93073008E31EF9EA58
:101BC000370701405C4FB7060002D58F5CCF6DB57B
:101BD000854537050200EFB01003FDB58545370593
:101BE0000400EFB05002CDB5854537050800EFB0D1
:101BF0009001D9BD854537051000EFB0D000E9B59B
:101C0000854513050004EFB010007DBD37052000A9
:101C100085450505EFB0605E85B58545130500086F
:101C2000EFB0607E55B5011122CC9385518F1545DB
:101C300006CE26CA4AC84EC6D13305469385518F73
:101C40001385C1A7EF1030421384018F18408547D8
:101C50006309F700F2406244D2444249B249056147
:101C600082801389418F834509009389C1A593F52B
:101C7000F50F9387150093F7F70F81461386018FB1
:101C8000CE951385C1A72300F900EF107049834753
:101C900009000D47E370F7FC834509003765010033
:101CA0001146F115CE9513054574EF20A1285DF17D
:101CB00089471CC045B7011122CC9385D18F1945A6
:101CC00006CE26CA4AC84EC6153B05469385D18F17
:101CD000138501ABEF1030391384818F184085478D
:101CE0006309F700F2406244D2444249B2490561B7
:101CF00082801389C18F83450900938901A993F5D7
:101D0000F50F9387150093F7F70F81461386818FA0
:101D1000CE95138501AB2300F900EF107040834787
:101D200009000D47E370F7FC8345090037650100A2
:101D30001146F115CE9513054574EF20A11F5DF1F5
:101D400089471CC045B783A7819109476388E7008D
:101D50000D476388E70011476383E70082806F10B7
:101D6000807D6F10005483A7819111476386E7003F
:101D70000D476385E70082806F1030026F10A05816
:101D800079715AC806D622D426D24AD04ECE52CC29
:101D900056CA5EC6138BA18083470B0037640100CF
:101DA000AE8A32899305C47413062005AA89333597
:101DB000F500368A9384B180EF10702303C50400C8
:101DC0009305C4741306300533B5AA00EF10302212
:101DD00003450B009305C474130640053335A90071
:101DE000EF10F02003C504009305C47413065005DA
:101DF0003335AA00EF10B01F83A7418059679306BF
:101E0000C758C0468324C758F9C70547638CE718ED
:101E1000414B232864019389890213098902A16B2C
:101E2000232A6401C2094209094723AA740193D9EC
:101E30000901135909019305A00205456389E710BB
:101E4000EFF04FF223A87401232864010545CE85E5
:101E5000232A6401EFF0CFF2CA850545EFF04FF277
:101E600023286401232A64019305B002054523AAAF
:101E70007401EFF02FEF93854A0323A87401232800
:101E80006401C205C1810545232A6401EFF04FEFCB
:101E900093054A03C205C1810545EFF06FEE232883
:101EA0006401232A640123AA74019305C002054535
:101EB000EFF04FEB23A8740123286401232A640167
:101EC000B250225492540259F249624AD24A424BC9
:101ED000B24B45618280414B23286401A16B232AC8
:101EE00064019305A002054523AA7401EFF08FE772
:101EF0009385490323A8740123286401C205C18185
:101F00000545232A6401EFF0AFE793054903C205B5
:101F1000C1810545EFF0CFE623286401232A64013F
:101F20009305B002054523AA7401EFF0AFE3938552
:101F30008A0223A8740123286401C205C1810545D2
:101F4000232A6401EFF0CFE393058A02A1B7EFF0F3
:101F50006FE123A87401232864010545CE85232A57
:101F60006401EFF0EFE1CA850545EFF06FE123284A
:101F70006401232A64019305B002054523AA740174
:101F8000EFF04FDE93855A0323A8740123286401E0
:101F9000C205C1810545232A6401EFF06FDE930578
:101FA0005A03CDBD414B23286401A16B232A640150
:101FB0009305A002054523AA7401EFF0AFDA9385DB
:101FC000590323A8740123286401C205C181054572
:101FD000232A6401EFF0CFDA930559030DBF79711D
:101FE00022D4376401001306B0089305C474054574
:101FF00006D64ECE52CC26D24AD056CA5AC85EC653
:1020000062C466C26AC0EF10807E1306C0089305E2
:10201000C4740545EF10A07D03A641929307F00F0D
:10202000130720021308F00F930600020582814572
:102030000545EFF04FB2C146014685453D45EFE00D
:102040001F81C1460146854513050006EFE03F802C
:10205000C1460146854513054006EFE04FFFC146E6
:102060000546854513056004EFE06FFE93894180C6
:1020700003A70900854763FCE7429306700813072E
:10208000000F83A741928964938404F4B3D7970225
:102090001305800C59691306C9584046054C814503
:1020A000938AB180138BA180232A84012380DA00D4
:1020B0002300EB00930C4006C14B216D3385A70232
:1020C000EFE08FBA03A5419281452328840133555F
:1020D000950233059503EFE02FB90329C95823284A
:1020E0007401232A7401930560030545232AA9017D
:1020F000EFF04FC703A541922328A90123287401BB
:1021000033559502232A7401814533059503EFE089
:10211000AFB583A709006381073A638A873B094704
:102120006381E73A9305000A0545EFF0AFC3C14468
:1021300004C8A16944C89305A0030545232A3901B1
:10214000EFF04FC22328390104C89545054544C81E
:10215000EFF04FC104C844C89305200B0545232A5E
:102160003901EFF02FC02328390104C8B1450545D6
:1021700044C8EFF02FBFB1450545EFF0AFBE814534
:102180000545EFF02FBE930530030545EFF08FBDF9
:10219000930530030545EFF0EFBC04C844C8930530
:1021A000700B0545232A3901EFF0CFBB23283901F5
:1021B00004C893055003054544C8EFF0AFBA04C8FE
:1021C00044C89305B00B0545232A3901EFF08FB9B8
:1021D0002328390104C893057003054544C8EFF06E
:1021E0006FB804C844C89305000C0545232A39017B
:1021F000EFF04FB72328390104C89305C002054505
:1022000044C8EFF02FB604C844C89305200C054518
:10221000232A3901EFF00FB52328390104C8854579
:10222000054544C8EFF00FB404C844C89305300C0A
:102230000545232A3901EFF0EFB22328390104C8FC
:10224000C945054544C8EFF0EFB104C844C893053B
:10225000400C0545232A3901EFF0CFB0232839017E
:1022600004C893050002054544C8EFF0AFAF04C8A9
:1022700044C89305600C0545232A3901EFF08FAE61
:102280002328390104C8BD45054544C8EFF08FAD8A
:1022900004C844C89305000D0545232A3901EFF011
:1022A0006FAC2328390104C89305400A054544C88A
:1022B000EFF04FAB9305100A0545EFF0AFAA04C845
:1022C00044C89305000E0545232A3901EFF08FA974
:1022D0002328390104C89305000D054544C8EFF0D3
:1022E0006FA891450545EFF0EFA7B5450545EFF01F
:1022F0006FA7C5450545EFF0EFA6CD450545EFF0C5
:102300006FA69305B0020545EFF0CFA59305F00346
:102310000545EFF02FA5930540050545EFF08FA487
:102320009305C0040545EFF0EFA3E1450545EFF047
:102330006FA3B5450545EFF0EFA2AD450545EFF0BC
:102340006FA2FD450545EFF0EFA19305300205456D
:10235000EFF04FA104C844C89305100E0545232A89
:102360003901EFF02FA02328390104C89305000D8F
:10237000054544C8EFF00F9F91450545EFF08F9E4E
:10238000B1450545EFF00F9EC5450545EFF08F9D22
:10239000CD450545EFF00F9D9305C0020545EFF0D3
:1023A0006F9C9305F0030545EFF0CF9B9305400428
:1023B0000545EFF02F9B930510050545EFF08F9A2B
:1023C0009305F0020545EFF0EF99FD450545EFF067
:1023D0006F99FD450545EFF0EF989305000205451F
:1023E000EFF04F98930530020545EFF0AF9704C822
:1023F00044C8930510020545232A3901EFF08F9652
:102400002328390104C844C804C844C8C545054543
:10241000232A3901EFF00F9503A54192896793872D
:1024200007F43355F5022328390104C8814544C80F
:10243000931745003385A7400E05EFE0EF8204C8EF
:1024400044C8930590020545232A3901EFF08F9186
:1024500003460B0083C60A002328390104C8330948
:10246000D602FD167D16C206420644C8B7070020F4
:10247000C18241828145014503D4073EEFF05F9060
:10248000630909007D19A2850545EFF06F8FE31BF5
:1024900009FEB250225492540259F249624AD24A79
:1024A000424BB24B224C924C024D456182809306C6
:1024B000000F13077008F1B681450545EFF08F8ACC
:1024C000BDB1930500070545EFF0CF898DB19305A8
:1024D000000C0545EFF00F8999B9411122C403C4DE
:1024E000A18083C6B1801306F4FF42063304D402F0
:1024F000FD16C20626C2C182AA84418281450145D9
:1025000006C6EFF0FF8719C47D14A6850545EFF0D8
:102510002F877DF8B240224492444101828083C7D4
:10252000A18001114AC83769010022CC26CA4EC6D3
:10253000AE842A84B2899305C9743335F500130635
:10254000F01206CEEF10A02A03C5B1809305C9741E
:102550001306001333B5A400EF106029A685228569
:10256000A6862286EFF0DF816244F240D2444249DF
:10257000CE85B249054505616FF08F8083C7A18084
:1025800079714AD03769010026D256CA62C4AE8A30
:102590002A8C9305C9743335F500B28413060014F0
:1025A00006D64ECE52CC5AC85EC622D4EF10202496
:1025B00003C5B1809305C9741306101433B5AA007E
:1025C000EF10E022938704FE5D67920713070786EA
:1025D0003389E700920A930B7C00B38A2A414107B2
:1025E000C20BC20A93DB0B01330BF70093DA0A012B
:1025F000370A0020B3862A01C206C1825E86B685EC
:102600006285EFF0EFF721448344090011A883D5D8
:1026100081807D141374F40FEFE09FF6858019CC50
:1026200093F714000545E5F783550A3E7D140545EB
:102630001374F40FEFE0DFF485807DF00509E31BF0
:1026400069FBB250225492540259F249624AD24A6A
:10265000424BB24B224C4561828083C7A18001115D
:1026600026CAB764010022CC4AC84EC62E89B28958
:102670009385C4741306F0152A843335F50006CE0D
:10268000EF10E01603C5B180130600169385C474DD
:102690003335A900EF10A0150386090005C2814457
:1026A00085042285CA85C204D13DC180B3879900C3
:1026B000038607002104420441807DF2F240624417
:1026C000D2444249B2490561828083C7A1807971B1
:1026D00022D4376401004AD04ECE52CC32892E8AA1
:1026E000130640179305C474AA893335F50006D63E
:1026F00026D2EF10C00F03C5B18013065017930503
:10270000C4743335AA00EF10800E634B090613061C
:102710000002D2854E85EFF07FE62947B347E902F4
:102720009306400613848900938909024204C20972
:102730006400418093D90901B346D902B3E7E702A7
:102740002306D1003369E902A306F1002307210122
:1027500003C6040022852104130606036206420410
:10276000D28561864180EFF07FE18504E39289FEA6
:10277000B250225492540259F249624A4561828011
:10278000330920411306D002D2854E856209EFF04D
:10279000FFDE1359894151B783C7A180797126D2D1
:1027A000B764010022D44AD052CC32892A842E8ABE
:1027B0003335F5009385C4741306601906D64ECEE2
:1027C000EF10E00203C5B1809385C474130670193D
:1027D0003335AA00EF10A0012947B357E902930649
:1027E000400693098401C209640093D90901B356D4
:1027F000D902B3F7E7022306D1003379E902A30631
:10280000F1002307210103C60400228521041306D9
:10281000060362064204D28561864180EFF01FD62E
:102820008504E39289FEB250225492540259F2492F
:10283000624A4561828083C7A180797126D2B764DC
:10284000010022D44AD04ECE3289AE891306201B15
:102850009385C4742A843335F50006D652CCEF0034
:10286000107903C5B1801306301B9385C47433B54A
:10287000A900EF00D0776348090813060002CE854F
:102880002285EFF0BFCF9306803EB346D902A94719
:10289000130740060966130606712104420424004A
:1028A0004180130AD1003347E902B345F902B3E688
:1028B000F6023346C902A304D1003367F7022304AA
:1028C000C100B3E6F5022305E1003369F902A3056F
:1028D000D1002306210103C604002285210413062A
:1028E00006036206CE85618642048504EFF01FC9A7
:1028F0004180E3129AFEB250225492540259F24996
:10290000624A45618280330920411306D002CE8598
:1029100022854209EFF09FC613590941ADB783C71D
:10292000A180797126D2B764010022D44AD04ECE5C
:102930003289AE891306701D9385C4742A84333599
:10294000F50006D652CCEF00906A03C5B18093859E
:10295000C4741306801D33B5A900EF0050699306B7
:10296000803EB356D902A9471307400609661306ED
:1029700006712400130AD1003357E902B355F90256
:10298000B3F6F6023356C902A304D1003377F70237
:102990002304C100B3F6F5022305E1003379F902FF
:1029A000A305D1002306210103C6040022852104CA
:1029B000130606036206CE85618642048504EFF0A5
:1029C000FFBB4180E39244FFB2502254925402591B
:1029D000F249624A456182801D71D6C2938AA18004
:1029E00083C70A00D2C4376A0100A2CCCAC8DAC0C1
:1029F0005EDE2E892A849305CA743335F500B28BC6
:102A00001306701F86CEA6CACEC6138BB180B689B8
:102A1000EF00F05D03450B001306801F9305CA7499
:102A20003335A900EF00B05CA947A94463E437013E
:102A300093F4F90F93891400B765010093F9F90F26
:102A40005E869385457C63C00B0A930700021305DD
:102A5000D1002306F100EF00707A05051375F50F1C
:102A6000637D35013386A4401376F60F7C0005069E
:102A7000930500023E95EFD0EFF903C50A001C183C
:102A8000BE991306F0159305CA743335A400238E3E
:102A900009FCEF00D05503450B0013060016930503
:102AA000CA743335A900EF0090540306C100814475
:102AB00005C22285CA858504EFF05FACC204C180DF
:102AC0001C18A6970386C7FD21044204418075F2B5
:102AD000F6406644D6444649B649264A964A064BCD
:102AE000F25B256182806800EF0050711375F50F6D
:102AF00085BF1D71DAC0138BA18003480B00A6CAE5
:102B0000B7640100A2CCCAC8D2C4D6C22E8A2A8415
:102B10009385C4743335050132891306102286CE9D
:102B2000CEC65EDE62DCBE8B66DAB689BA8C938A6C
:102B3000B180EF00D04B03C50A0013062022938515
:102B4000C4743335AA00EF00904A9947194C63E4E6
:102B5000770113FCFB0FA94793FBFC0F63F397016D
:102B6000A94B01468146CE854A85EFE03012B76514
:102B700001004A86CE869385057C634D050E1305BC
:102B8000D100EF00B0671307A5FF1377F70F93CBC2
:102B9000FBFFBA9B050C629793FBFB0F1377F70FB4
:102BA000139C8B01931C8701135C8C4193DC8C413B
:102BB000635C0C023307774162076187E68713067F
:102BC00000021418BE968507E207238EC6FCE18733
:102BD000E399E7FEB38C7C41330C7C41E20C620C40
:102BE00093DC8C41135C8C41014681464A85CE853D
:102BF000EFE0D009634A050A1C183E9C93070002C7
:102C0000230EFCFC03450B001C189385C474BE9C6A
:102C10001306F0153335A400238E0CFCEF00303D75
:102C200003C50A00130600169385C4743335AA0041
:102C3000EF00F03B0306C100814405C22285D28526
:102C40008504EFF0BF93C204C1801C18A6970386C9
:102C5000C7FD21044204418075F2F6406644D64423
:102C60004649B649264A964A064BF25B625CD25CFC
:102C7000256182806800EF007058130795FF137775
:102C8000F70F93CBFBFFBA9B050C629793FBFB0FEF
:102C90001377F70F139C8B01931C8701135C8C41F6
:102CA00093DC8C41E3480CF01C183E9C9307D00247
:102CB000230EFCFC81BF03C3A180397152D4376A53
:102CC000010022DC4ED662CCAE892A849305CA74F8
:102CD00033356500328C1306802706DE26DA4AD8A3
:102CE0005AD05ECE428B66CAB684BE8C56D26AC8B3
:102CF0006EC6BA8B4689EF00902F03C5B1801306CC
:102D000090279305CA7433B5A900EF00502E93069F
:102D1000FBFF1386FCFFCE962296C2064206C182B6
:102D20004182CE852285EFF0AF8563060B04C16931
:102D3000814A014AFD1933D46A03638A0C02814D2A
:102D4000014D3384840262946306090433D79D03E2
:102D5000CE85054522978347070063F42701814507
:102D60000545050DEFE0DF81A69DE3119DFF050AF6
:102D7000DE9AE3126AFDF2506254D2544259B259BB
:102D8000225A925A025BF24B624CD24C424DB24DE7
:102D900021618280B3D79D03050D0545A69DA297AD
:102DA00003C707009355370009839397B5001607AB
:102DB0005D8FD98DEFE0CFFCE31E9DFD4DBF797196
:102DC00052CC56CA5AC85EC6930AF5FF930BE5FF6C
:102DD000130A1500130B2500C20BC20A420A420B4C
:102DE00026D24AD04ECE06D622D462C466C26AC06B
:102DF0002A89AE89B284814793DB0B0193DA0A01F9
:102E0000135A0A01135B0B010DA08D47638DF40863
:102E10009547638BF4140504420441809317040121
:102E200013077008C1876302E4061394070105477E
:102E30004180E39CE4FC03C5A180376C010093054D
:102E4000CC743335A9001306F012EF00501A03C5F5
:102E5000B1809305CC74130600133335A400EF0042
:102E60001019A286A2854A864A85EFE07FF1050403
:102E7000CE8505454204EFE0AFF041809317040191
:102E800013077008C187E312E4FAB2502254925437
:102E90000259F249624AD24A424BB24B224C924CFE
:102EA000024D45618280138DA18003450D00376C72
:102EB00001009305CC7433B5AA001306F012EF009D
:102EC0001013938CB18003C50C009305CC741306CA
:102ED00000133335A400EF009011A2865686A28518
:102EE0005685EFE0FFE9CE850545EFE06FE9034544
:102EF0000D009305CC741306F0123335A900EF00D2
:102F0000100F03C50C009305CC7413060013333562
:102F1000A400EF00D00DA2864A86A2854A85EFE084
:102F20003FE6CE850545EFE0AFE503450D0093058F
:102F3000CC741306F0123335AA00EF00500B03C512
:102F40000C009305CC74130600133335A400EF0076
:102F5000100AA2855285A2865286EFE07FE2CE85D6
:102F60000545EFE0EFE145BD138DA18003450D0060
:102F7000376C01009305CC7433B5AB001306F01227
:102F8000EF00F006938CB18003C50C009305CC7460
:102F9000130600133335A400EF007005A2865E8689
:102FA000A2855E85EFE0DFDDCE850545EFE04FDDF4
:102FB00003450D009305CC741306F01233B5AA0037
:102FC000EF00F00203C50C009305CC741306001348
:102FD0003335A400EF00B001A2865686A28556853F
:102FE000EFE01FDACE850545EFE08FD903450D00F0
:102FF0009305CC741306F0123335A900EF00207F3F
:1030000003C50C009305CC74130600133335A400DC
:10301000EF00E07DA2864A86A2854A85EFE05FD672
:10302000CE850545EFE0CFD503450D009305CC7463
:103030001306F0123335AA00EF00607B03C50C00C5
:103040009305CC74130600133335A400EF00207AE7
:10305000A2865286A2855285EFE09FD2CE85054595
:10306000EFE00FD203450D009305CC741306F01268
:103070003335AB00EF00A07703C50C009305CC748B
:10308000130600133335A400EF006076A2855A853D
:10309000A2865A86EFE0DFCECE850545EFE04FCE23
:1030A0009DBB03C3A180397152D4376A010022DC71
:1030B0004ED666CAAE892A849305CA743335650034
:1030C000B28C1306403606DE26DA4AD85AD05ECED7
:1030D000428B6AC8B6843E8D56D262CC6EC6BA8B1D
:1030E0004689312703C5B180130650369305CA744B
:1030F00033B5A900ED2D9306FBFF1306FDFFCE9619
:103100002296C2064206C1824182CE852285EFE028
:103110003FC7630A0B04C169814A014AFD1933D4D0
:103120006A03630E0D029307801C014C814D33042A
:10313000F4026694630809043357AC03CE85054551
:103140000A07229718430347070063742701814544
:103150000545850DEFE0CFC2269CE39FADFD050A36
:10316000DE9AE31E6AFBF2506254D2544259B259BD
:10317000225A925A025BF24B624CD24C424DB24DF3
:1031800021618280B357AC03850D0545269C8A07D3
:10319000A2979C4303C70700935537000983939771
:1031A000B50016075D8FD98DEFE08FBDE39CADFDB7
:1031B0007DB7397122DC26DA4ED656D25AD0930723
:1031C0000008B70900207D7B89644AD852D45ECEBE
:1031D00062CC06DE2315F1009389C900014A1384ED
:1031E000C190130B5B1A930B0008938404F4938A29
:1031F0008190254C83D7090011466C0013978700F6
:10320000A183D98F11452317F10023166101EFE047
:10321000CFF6231571018347040093F7F70F91CF81
:103220000DA803A54192814533559502EFD0CFA358
:103230008347040093F7F70F89EF8357A1001387A3
:10324000F7FF42074187C207C1872315E100E34A20
:10325000F0FC8357A100C207C1876355F00283C702
:103260001A0003C72A00050AA207D98F420A239130
:10327000F90023000400135A0A019109E31C8AF79C
:10328000014521A0E31D0AFC0545F2506254D254C9
:103290004259B259225A925A025BF24B624C216156
:1032A0008280411122C41384B1908345040026C258
:1032B00093848190A695114506C6EFE02FF48347CD
:1032C000040011C5850793F7F70F2300F4000547A5
:1032D000638EE7008D466396D700230004002386A3
:1032E000E190B240224492444101828003C704002D
:1032F0009307500AE307F7FE23000400B24022447C
:1033000092444101828083A60190B707055094C77B
:1033100085462382D19003C70700136717002380D7
:10332000E700828039710D4506DE22DC4ED626DAB2
:103330004AD852D456D2896941241306000593060F
:103340001005938509581145EFE0AFED854511450E
:10335000EFE0AFE50145EF0050521384C190230028
:103360000400EFF01FE51306E0146312051A2300B2
:10337000040093070008B7040020231DF100938484
:10338000040323000400938A8402130A50FA9389E9
:1033900009F483D7240083D604006C0813978700B0
:1033A000A183D98F11451146230E4101A30ED100EF
:1033B000231FF100EFE06FDC03A5419291048145EA
:1033C000335535030605EFD02F8AE3949AFC8347E3
:1033D000040093F7F70FA9EB8357A1011387F7FFB9
:1033E00042074187C207C187231DE100635EF002E7
:1033F0008964938404F429A88357A1011387F7FFF4
:1034000042074187C207C187231DE100635EF000C8
:1034100003A54192814533559502EFD0EF84834750
:10342000040093F7F70FE9DB9384819003C714003E
:1034300083C7240093060008231DD100F98F2300C1
:1034400004001307F00F638EE7048357A10113876D
:10345000F7FF42074187C207C187231DE10063527E
:10346000F0048969938909F4130AF00F29A8835796
:10347000A1011387F7FF42074187C207C187231DB8
:10348000E1006350F00203A54192814533553503B5
:10349000EFC09FFD83C7140003C72400F98FE39892
:1034A00047FD8357A101C207C1876350F00623007F
:1034B0000400EFF01FD02A8425EDEF00903C9147E7
:1034C0003EC495473EC299473EC0930690041306FA
:1034D0008004A945254593089002130880029307AC
:1034E00060021307B004EFC0DFFA37050020196649
:1034F0001307456A85461306068281451305456A0A
:1035000023A0E190EFD0AF8511A813065015B76541
:1035100001009385857C0145D92C05442285F25014
:103520006254D2544259B259225A925A216182802D
:103530001306D015E9BF411122C41384419183457C
:10354000040026C293840191A695114506C6EFE0BA
:10355000EFCA8347040011C5850793F7F70F2300CF
:10356000F4000547638EE7008D466396D70023007D
:103570000400A389E190B240224492444101828038
:1035800003C704009307500AE307F7FE2300040073
:10359000B240224492444101828083A60190B70741
:1035A000055094C78546A386D19003C707001367CB
:1035B00017002380E700828023ACA1908280411114
:1035C00022C493850192154506C6EFE02FC393856B
:1035D00001922244B240376500200546130545ECB0
:1035E000410151A423A2A192B71702409843B70604
:1035F000FFF841111367170098C3D84337180240EA
:10360000B7050200758FD8C39843B706F7FEFD16BD
:10361000758F98C39843B706FCFFFD16758F98C346
:10362000D843B70681FFFD16758FD8C337079F00B3
:1036300098C702C402C69843C16613060050558F4E
:1036400098C321A0A247638BC70083270800ED8F92
:103650003EC6A24785073EC4B247EDD7B717024022
:103660009C431397E7006359070085473EC63247DE
:1036700085476308F70001A002C632478547E31C6F
:10368000F7FE37366E011307F5FF13060660335752
:10369000C702B72602408C42B717024093E50501E6
:1036A0008CC203A80600B7157A009385052013780D
:1036B000C8FF23A0060103A806001D8B336707017E
:1036C00098C2D843D8C3D843D8C3D843D8C363011A
:1036D000B50AD843B706C1FFFD16758FD8C3374763
:1036E0009508130707406302E504371727071307F8
:1036F00007E06300E50A37E7B805130707806306AC
:10370000E50A37A74A0413070720630AE508377755
:10371000DC02130707C06300E50A631CC500D84339
:10372000B7060500558FD8C329A0D843C166558F69
:10373000D8C3B7160240984237060001B7170240B7
:10374000518F98C2984393166700E3DD06FED0437D
:10375000B71602402147719AD0C3D04313662600A2
:10376000D0C3DC42B18BE39EE7FE41016F009010B5
:10377000D043B71602401147719AD0C3D0431366A5
:103780001600D0C3DC42B18BE39EE7FE41016F001F
:10379000700ED843B7063900558FD8C359BFD843E8
:1037A000B7061D00558FD8C369B7D843B70629009F
:1037B000558FD8C3BDBFD843B7061100558FD8C3A6
:1037C0008DBFF1654111930610061306000693851F
:1037D0000520154506C6EFE0CFA485451545EFE069
:1037E000CF9CB24005472384E1924101828019E9D0
:1037F00083C78192411106C699E7EF009008010046
:103800000100F5BF82803775010013050584EF00C4
:10381000216DEF001007E5B701114EC606CE22CC90
:1038200026CA4AC8B2896358C002D96703A48773FD
:10383000AE843389C500930500042285EFA0C0390A
:103840007DD985048385F4FF2285C205C181EFA05F
:103850000038E39224FFF24062444E85D24442494C
:10386000B249056182805C45637AF60A011126CA75
:10387000AA8422CC4AC84EC652C456C206CE2E8A4C
:103880003289EF00100083AA0401C0408840B38948
:103890008A4063F629074E86D2852295EFF090394B
:1038A000D84094484E97D8C06366D700158FE37F01
:1038B000D7FED8C088404A94330454413A952286B2
:1038C000B3053A01EFF01037DC409848A297DCC00E
:1038D00063E6E700998FE3FFE7FEDCC0D0440145D3
:1038E0003309264123A62401492FF2406244D244E1
:1038F0004249B249224A924A0145056182804A867C
:10390000D2852295EFF01033DC409848CA97DCC08E
:10391000E3E6E7FC998FE3FFE7FEC1B70945828044
:1039200001114AC85C45032905014EC6B2891042FF
:1039300022CC26CA5AC006CE52C456C2B307F9409A
:103940002A842E87368B814463F8C70023A0F900B0
:10395000032905013E868544032A8400B30A4941B0
:1039600063E7CA0211C70C403A85D295EFF0902C5C
:1039700063010B04F2406244330590404249D24453
:10398000B249224A924A024B0D89056182806DD369
:103990000C4056863A85D295EFF0D02903A609004F
:1039A0000C405695529633062641EFF0B028E313AB
:1039B0000BFCC12D83A7090014441848B6971CC4FA
:1039C00063E6E700998FE3FFE7FE1CC45C4403A7AE
:1039D00009000145BA975CC44D2569BF01112AC68B
:1039E000B247116713070765B387E7023ECEF24778
:1039F0001387F7FF3ACEE5FF0561828035713AC93A
:103A000086DEA2DCA6DACAD8CED6D2D4D6D2DAD016
:103A1000DECEE2CCE6CAEAC8EEC632C536C73ECB39
:103A200042CD46CF8387050038013ACCB5C33777FE
:103A30000100130DC101DD64054AAE8A2A84032901
:103A400007FA832947FA814C930D5002938404E5C9
:103A5000330AAA4119A862872300F400568C050492
:103A6000850CBA8A83071C008DC7138C1A00E39457
:103A7000B7FF83871A0013073005890A9387B7FDBC
:103A800093F7F70FE360F7FE8A07A6979C438287B8
:103A9000814CF65066546685D6544659B659265A16
:103AA000965A065BF64B664CD64C464DB64D0D61AC
:103AB0008280E247984391073ECC83070700DDD31D
:103AC000B3868C402300F400050783070700050434
:103AD000B30CD400E5FB79B76247EA8625481C435E
:103AE00011073ACC3D4519A08506BA8713F7F700B0
:103AF0009375F70F138605036374E8001386750347
:103B00002380C60013D74700E360F5FE03083102A7
:103B10008348C101830521020345D10183061102B7
:103B20000346E101830701020347F1012300040179
:103B3000A300B4002301D400A301F4002302E40095
:103B4000A302C4002303A400A3031401A3011103CF
:103B5000230E01012301A102A30EB100A300C102A3
:103B6000230FD1002300E102A30FF1002104A10CD7
:103B7000D5BDE2471D46984391073ECC9377770029
:103B800093870703230EF10093563700637EE642C6
:103B90006A879D4511A0B286050713F676001306C5
:103BA0000603B307A74185072300C70093F7F70F64
:103BB00013D63600E3E1D5FE93D517003E8B95C1B1
:103BC0001387F7FF6A97EA87EA950386070083065B
:103BD000070085072300C700A38FD7FE7D17E39654
:103BE000F5FE22855A86EA85EFF0D0045A94DA9CD5
:103BF00095BD6247A9460328070011073ACC135721
:103C0000F841B3470701998F33E7D702B3C7D7020B
:103C100013070703230EE100638A073C85456A8684
:103C2000294511A0BA85B3E6A7020506138715003A
:103C30001377F70FB3C7A702938606032300D600B6
:103C4000F5F3634908283A8B93551700D9D9130720
:103C5000FBFF6A97EA87EA95038607008306070059
:103C600085072300C700A38FD7FE7D17E396F5FED7
:103C700022855A86EA85EFF0E07B5A94DA9CDDB320
:103C8000E2470504850C984391073ECCA30FE4FE60
:103C9000D1BBE2466A8725489C42910636CC3D4519
:103CA00019A00507B68793F6F70013F6F60F9305EC
:103CB00006036374D8009305760333064701230097
:103CC000B70093D64700137BF60FE36CF5FC9355D2
:103CD0001B0081D91307FBFF6A97EA87EA950386E1
:103CE00007008306070085072300C700A38FD7FEC0
:103CF0007D17E396F5FE22855A86EA85EFF08073FC
:103D00005A94DA9C85B3E2479D07E19B03AB070019
:103D100083AB4700A1075A85DE853ECCEFE0C0416A
:103D20001357F541B347A700998FA94633E7D70248
:103D30002A88B3C7D70213070703230EE100638164
:103D4000072C85486A86A94511A0BA88B3E6B70250
:103D50000506138718001377F70FB3C7B7029386CA
:103D600006032300D600F5F3014681465A85DE8519
:103D700046C63AC442C2EFD0607112482247B248E8
:103D800063460516BA889355170095C11387F8FF47
:103D90006A97EA87EA950386070083060700850786
:103DA0002300C700A38FD7FE7D17E396F5FE468656
:103DB000EA85228546C242C4EFF0C06722484285A8
:103DC000EFE0003E2A86AE865A85DE85EFD0F042CF
:103DD0004A86CE86EFD0E0769248014681462A8B0D
:103DE000AE8B4694C69CEFD0E058631D0510B737E4
:103DF0003030938707033ECE8D67938707032310E8
:103E0000F1029307E0022301F10299450D451D4B94
:103E1000EA95AE876A870306070083860700FD17C9
:103E20000507A380C700A30FD7FEB386F540E3E4E0
:103E3000A6FE5A86EA852285EFF0C05FDA9C1DB1A6
:103E4000E24729472546944391073ECCB3F7E60263
:103E500093870703230EF10033D7E6026376D61665
:103E6000EA86A945254511A032873376B702850633
:103E7000B387A641850793F7F70F13060603238040
:103E8000C6003356B702E361E5FE93D517003E8BBB
:103E9000E38905D41387F7FF6A97EA87EA950386D3
:103EA00007008306070085072300C700A38FD7FEFE
:103EB0007D17E396F5FE22855A86EA85EFF0805756
:103EC0005A94DA9C45B6930750022300F400850CFF
:103ED000050449BE89059C003E9713FBF50F930727
:103EE000D00293551B00230EF7FC8DB39C0089086C
:103EF0003E9793F8F80F9307D00293D51800230E3E
:103F0000F7FC61B55A85DE85EFE000231357F541D4
:103F1000B347A700998FA94633E7D702B3C7D702A3
:103F200013070703230EE100638E070E8546EA851B
:103F3000294511A0BA8633E6A70285051387160026
:103F40001377F70FB3C7A702130606032380C50034
:103F5000F5F3954763ECE7069C003E979305000355
:103F600093872600230EB7FC93F7F70F1946E38AD1
:103F7000C7E898003E9793873600230EB7FC93F767
:103F8000F70FE380C7E894001306000313871700B8
:103F9000BE96238EC6FC1377F70F9945E303B7E669
:103FA0009400369793862700230EC7FC13F7F60F6D
:103FB000E309B7E494003697230EC7FC0947E39260
:103FC000E7E4A300C10235BD054B21B99C00890679
:103FD0003E9713FBF60F9307E002230EF7FC1355F1
:103FE0001B00E30805E49305FBFF1DB5054BE35AF1
:103FF00008BE9307D002A30EF1008545094B81B995
:104000002AC2014681465A85DE85EFD020481248F3
:104010008548E35E05D89307D002A30EF1008545DD
:104020008948ADB393070003A30EF100230FF100FD
:104030008D4791BF93575500054793870704331564
:10404000A7008A0737E700E0BA9788C382809357B2
:1040500055000547938707063315A7008A0737E7FA
:1040600000E0BA9788C38280B7E700E03E9523005E
:10407000B540828005456F90402211C182806FC09B
:104080008F98411106C6EFC0AF97B24041016FA0B3
:104090000039B76500209968938585F1930E400536
:1040A00011689388383613086864239515012386B0
:1040B000D501238CD501B7750020376700202398E0
:1040C00005BB130707F9B772010023960193930507
:1040D00000002322B70E83A502FB13066004130E13
:1040E00020050543B77F01002310C7002300C70F39
:1040F00023220700231F670C232CB70C03A74FFBB9
:10410000B7670020938787ED37650020130545F3D7
:104110002380C7002386C70323A207002396070036
:104120002397670298D7A947377F01005CC1B7770B
:104130000020238AC7B683278FFBB76600209386AB
:1041400046F72300C500A380C60023A206009CCE2C
:1041500082801971DAD003AB0183B777010003A81D
:10416000C7FAB777010083A787FAE6CAB76C0020C1
:104170003ECC83C78199938C8CF1D2D43EC89307EF
:10418000F00FD6D22394FC0003CAEC00996783CACF
:10419000FC00A2DCA6DACED6EAC893876734130DFA
:1041A0001007B764002037640020B7690020CAD820
:1041B000DECEE2CCEEC686DE23A00C0023A20C00ED
:1041C000A3850C002396FC00330D6D4193842427B6
:1041D000130464409389094D014902C202C002C61A
:1041E0001303600402C4814F02CA9303F00F014E0F
:1041F0008148130C4006930B6004930D4005094F52
:10420000C28E3D46F546930260041307400683972D
:10421000640063CE6713634CFD122301B401637F16
:104220002F1583471400930540056385B71C2303AE
:10423000840723A009018395E43E63C365116341AC
:10424000BD102305B43F63742F138347943E1305B9
:104250004005638CA7122307844523A4D93F83C557
:10426000640083C7E43E8D8F93F7F70F9395870122
:10427000138537FDE1859387B7FD2301B4642303DC
:10428000A46A93F7F70F636BF60C2305B4719307D9
:10429000F00F6385F30863C9B608631A5300937778
:1042A000F90F3EC085473EC23EC6130340050509CF
:1042B000890405049109E31CE9F423992193C24779
:1042C000A386FC006384080023874C0163040E006E
:1042D000A3875C01D24799C323847C00A24799C37A
:1042E000A384FC01B24799C323866C00924763877D
:1042F00007168247A385FC00F65066542385FC0010
:10430000D6544659B659265A965A065BF64B664C11
:10431000D64C464DB64D05450961828085473ECA5B
:104320009373F90FE3DBB6F693073006E311F9F860
:10433000E31F53F685473EC2930730063EC085BF54
:10434000850A93FAFA0F2305743F054E29B7050A2B
:10435000137AFA0F230174018548D1BD23057471C6
:10436000E39B0FF28547937FF90F3EC42DB72307D8
:1043700004449307000023A4F93ED5B523030406A3
:104380009307000023A0F9007DB58347843EE394A2
:10439000A7EC0395843E1ADE7EDCB307B540230705
:1043A000F44472DA46D81ED676D442D22ED0EFE04C
:1043B000704682552ACE2E85EFE0D045F247AA8579
:1043C0003E85EFE03001B777010083A587FAEFE083
:1043D000E01A23A4A93E3D46F546130740061258AD
:1043E000094FA25E93026004B253C258525EE25F6C
:1043F0007253B5B583470400E39BB7E2839504008D
:10440000839764001ADE7EDC3E858D8F2303F406DD
:1044100072DA46D81ED676D442D22ED0EFE0903F44
:1044200082552ACE2E85EFE0F03EF247AA853E85E2
:10443000EFE0407AE245EFE0601423A0A9003D469A
:10444000F546130740061258094FA25E9302600416
:10445000B253C258525EE25F7253F1BB83C7BC00D5
:104460003EC059BDB76700201167938747F7130710
:104470001760B77601002390E70003A786FB23A20D
:10448000070098CF8280377701201307476BB777F3
:1044900000209387C7BB232C071A2326071A23283B
:1044A000071A130760042384E70013070000D8C32A
:1044B00098C30947D8C70D4798CB1167130767649E
:1044C000239AE700130760F9238BE70005458280F4
:1044D000411106C6EF608033EF607078EF503070A6
:1044E000EFF03FC7EF608051EF60A038B787012041
:1044F000B24003A6C78591469545130520034101A7
:104500006FE08FCD83C7A19B014599E3039521817E
:10451000B77700209387C7BB1306400B2398A18071
:10452000944B2396C1801306800C2397C1800D47BE
:104530006383E600828003C7870093076004E31B60
:10454000F7FE011122CC0394C1A106CE26CA4AC8A7
:104550004EC652C456C2930750ED635AF40AEFD0C8
:1045600030442A892285AE89EFE0D02AEFE0D0439B
:10457000B777010003A6870483A6C704377A010032
:10458000EFC0307CB777010003A6070583A6470577
:10459000EFC01003EFA0D04BB777010003A687054B
:1045A00083A6C705EFC0F079B777010003A6070619
:1045B00083A64706EFC0D0002A84AE8403258A066E
:1045C0008325CA062286A686EFD020434A86CE8659
:1045D000EFC03077EFD0503603268A068326CA060E
:1045E000239CA192A6852285EFC0800A4A86CE86AA
:1045F000EFC03075EFD05034239DA192F240624459
:10460000D2444249B249224A924A056182809307C4
:10461000C01263D68704EFD0B0382A892285AE89CC
:10462000EFE0501FEFE05038B777010003A6870492
:1046300083A6C704377A0100EFC0B070B7770100D6
:1046400003A6070583A64705EFC08077EFA050407B
:10465000B777010003A6070783A64707A1B7239CE6
:10466000A192239DA19259BF411106C622C426C220
:10467000EFA00039B77700209387C7BB984B0DCBCD
:1046800083C78700930660046389D7021307400538
:104690006385E70A0397E1930395019422442392EB
:1046A000E1A2B24092442393A1A241016FA080767F
:1046B000B24022449244410182809377D7FF8546DD
:1046C000638CD70091476309F700239F01922390E1
:1046D000019401450147D9B7B787012003A5C769F0
:1046E000B7040020EFE0900703968193931605012D
:1046F000B7850120C1869385055E13858419EF7007
:104700001078B78701201384E1932310A40003A538
:10471000C76AEFE0B0040396A19393160501B7852D
:104720000120C1869385856013858419EF703075EB
:104730002390A1940317040095B7B787012003A520
:10474000C7691384E193EFE0700193160501B78503
:10475000012037050020C18601469385055E1305BB
:104760008512EF70D071B78701202310A40003A534
:10477000C76AEFE0A07E93160501B78501203705D3
:104780000020C1860146938585601305C513EF702F
:10479000106F031704002390A19409B7411126C29A
:1047A0009384219483D7040022C437740020377780
:1047B00001001304C4BB08408325870785072390A5
:1047C000F40006C6EFD0F02408C0EF90D06A1C4871
:1047D0000947FD176368F700834684009307600468
:1047E0006382F606239B01920145239EA1A0EFA0C0
:1047F000F00C03970400A947B367F7029DC793071E
:10480000703E63C7E700B240224492444101828077
:1048100013052008EFC06F81B240224423900400AA
:10482000239A019292444101828083972181239CA3
:10483000F192239DF192EFF0FFCCEFF0FFE20397AE
:10484000040075BF5C446388E7000547E39CE7F814
:104850000395619359BF83968194B78501203705ED
:10486000002001469385C55813050515EF70F072B9
:10487000239BA1929DBF828039715AD003A7819F4B
:1048800006DE22DC26DA4AD84ED652D456D25ECE86
:1048900062CC66CA6AC86EC685476309F712377468
:1048A0000020DD6C5D6CDD6B1304C4BB930440051C
:1048B000B77A0100377D0100B77D0100A1A81386FA
:1048C0004AFF814513050008EFD03FD91C480D472A
:1048D000638FE70805476387E7120947638EE7128E
:1048E0006388071083475401638E970813864AFF35
:1048F000894513050008EFD05FD683A701A00547BF
:10490000638EE7082945EFF06F8D03A7819F8547E8
:10491000630EF70A89451385C193EF00100F9307C3
:1049200000801386CCFB814541452394F180EFD074
:10493000DFD213060CFD85454145EFD01FD213860B
:104940000BFE89454145EFD05FD1834744017D4748
:104950002394E180E39597F613060DFF8145130537
:104960000008EFD09FCF1C480D47E395E7F613866C
:104970008DFF854513050008EFD03FCE83475401D6
:10498000E39697F613060DFF894513050008EFD04F
:10499000DFCC83A701A00547E396E7F603C7C193E1
:1049A00023A001A0630BF70851C38947E31CF7F468
:1049B0000946930500081305540109292945EFF01C
:1049C000EF8103A7819F8547E316F7F4F250625405
:1049D00023AC019ED2544259B259225A925A025BD8
:1049E000F24B624CD24C424DB24D05452161828062
:1049F000B777010013868701854513050008EFD0BE
:104A0000DFC5CDB5B77701001386070085451305CF
:104A10000008EFD09FC4F9B5B77701001386C7002F
:104A2000854513050008EFD05FC36DBD01469305B2
:104A3000000813054401592EF1B5DD6705479306BB
:104A4000000811469385070213050401852D5DBDFD
:104A5000397122DC4AD85AD006DE26DA4ED652D434
:104A600056D25ECE62CC66CA6AC86EC613073006DE
:104A70002E842A8B3289930730066363B700AE8792
:104A8000930530069D8DC20593071007C1815A8595
:104A900063F4670113051007930DFBFF130CABFFC5
:104AA000931B1B0042054A864181C20D420CC20B7A
:104AB000B30C6441EFD0BFA693DD0D01135C0C0174
:104AC00093DB0B01229B930A1007130A300693090C
:104AD000300633849D01931704014A86C1836E8D8D
:104AE00063F4BA01130D1007420D135D0D016A85C1
:104AF0006374FA0013043006338489404204418011
:104B0000A285EFD0DFA1B384BB4193970401C18399
:104B10004A86A28563F4FA0093041007C204C18098
:104B20002685EFD0DF9F3304BB4193170401C18377
:104B30004A866A856374FA00130430063384894018
:104B400042044180A285FD1DEFD07F9DC20D4A86A3
:104B5000A285268593DD0D01EFD07F9CE31BBCF77A
:104B6000F2506254D2544259B259225A925A025BBC
:104B7000F24B624CD24C424DB24D2161828083A6F1
:104B8000419F411126C206C622C44AC00547AA84D5
:104B900003440500638EE60C83A6C1A00547638429
:104BA000E60A03A981A085476305F90483A6C19F8E
:104BB0006381F606FD47238084002394F1809315DA
:104BC00004019D47C18163F88706E115377601002E
:104BD000C2051306062FC1810145EFD01FA8B240C0
:104BE0002244930700802394F180924402494101BA
:104BF00082804165011523A401A0EFD01F8E1D46C0
:104C00009D451305000DEFD05FAC83A7C19F639B4B
:104C100027094165011523AE019EEFD01F8C9D45EC
:104C200001461305000DEFD05FAA23800400FD4765
:104C30002394F1808145377601001306062F014544
:104C4000EFD0BFA169BF23A601A031C87D141374A2
:104C5000F40F131984011359894141650115EFD0EF
:104C6000DF874A869D451305000DEFD01FA615BFAF
:104C700023AA019E9D476306F40405041374F40FF0
:104C8000131984011359894141650115EFD0FF843F
:104C90004A869D451305000DEFD03FA3F5BD1D4984
:104CA0001D4465BF9D47377601002380F400FD4712
:104CB0009D451306062F01452394F180EFD0FF99FF
:104CC00039BF01490144C9B75D716AD003A701A08A
:104CD000A2C4A6C2031405002AC61305F08186C625
:104CE000CAC04EDE52DC56DA5AD85ED662D466D2DC
:104CF0006ECE85472394A1806303F706939B06013C
:104D000093DB0B01139C2B005E9C060CB30C8041C3
:104D1000C20C420C2E89B289135C0C0193DC0C018D
:104D2000854403A6C19FCE854A8583A681A003A79B
:104D3000C1A083A7419F63039606638B9604631704
:104D400097005E944204418423A601A02286638FCB
:104D50009704EFD05FAE83A701A0E39497FC93077D
:104D600000802394F180B24723A001A0B640239095
:104D70008700264496440649F259625AD25A425B49
:104D8000B25B225C925C025DF24D054561618280FE
:104D900066944204418423A401A055B7629442045E
:104DA00023AE019E4184E39C96F8DDB73304744141
:104DB000420441842286CE854A8523AA019EEFD0F3
:104DC0009FA783A701A0E39E97F451BF5D716AD0AE
:104DD00086C6A2C4A6C2CAC04EDE52DC56DA5AD873
:104DE0005ED662D466D26ECE03A701A0834C0500C6
:104DF0002AC69306F08185472394D1806307F7087C
:104E00002E8AB28A0544377C0100130B4005B77B1C
:104E1000010003A6C19F83A781A003A7C1A083A609
:104E2000419F6306860C638B8708630E870E63932E
:104E3000861023AA019E638E6C0313060CFFD68591
:104E40005285EFD09F8183A701A0638F870803A6B7
:104E5000C19F83A781A003A7C1A083A6419F630B25
:104E6000860A638C870863018706E39886FC23AA79
:104E7000019E930C600413864BFFD6855285EFD0BC
:104E8000CFFD83A701A0E39687F8930700802394C2
:104E9000F180B24723A001A0054523809701B640C9
:104EA000264496440649F259625AD25A425BB25B92
:104EB000225C925C025DF24D6161828023A401A0BC
:104EC000638F6C036311870423A601A0E39386FA22
:104ED00013060CFFD685528523AA019EEFD0EFF76B
:104EE00083A701A0E39587F6930C400579BF23AE15
:104EF000019E63836C03E39787FC23A401A0E3175F
:104F000087FC23A601A0E39A86F223AA019E930CB4
:104F1000600495B723AE019EE39387FE23A401A00E
:104F2000E31387FE55B723A601A0E3816CFBE3964C
:104F300086F0E1BFE3916CF509B75D716AD066D286
:104F400086C6A2C4A6C2CAC04EDE52DC56DA5AD801
:104F50005ED662D46ECE03A701A0834D05002AC69B
:104F60001305F08185472394A180630AF70A2E8AEE
:104F7000B28A0544930BC004377B01001DA06385F2
:104F8000850E6388870E6303871063807D05130693
:104F90004B6AD6855285EFD04FEC83A701A0638082
:104FA000870803A6C19F83A581A083A7C1A003A7EB
:104FB000419FE31686FC23AE019E63827D0F638EC4
:104FC000850263878708630E870AB7770100138617
:104FD000C769D6855285EFD04FE883A701A0638CBF
:104FE000870C03A6C19F83A681A083A7C1A003A7A6
:104FF000419F630B860AE39686FC23A401A0638984
:1050000087046300870813064B6AD6855285EFD064
:10501000CFE483A701A0930D2005E39487F89307BD
:1050200000802394F180B24723A001A0054523808E
:10503000B701B640264496440649F259625AD25AFC
:10504000425BB25B225C925C025DF24D61618280E8
:1050500023A601A063058700930D40050DBF23AA79
:10506000019E930D600425B723A401A0E39B7DF569
:1050700079B723A601A093074005E39DFDFCE31249
:1050800087FE23AA019E930D400511B723AA019E16
:1050900093074005E387FDFC930D4005CDBDE390EC
:1050A00085F623A401A031BF23AE019EE39986F4C7
:1050B00023A401A039B7930DC00495B7397162CC10
:1050C0005AD05ECE06DE22DC26DA4AD84ED652D43C
:1050D00056D266CA6AC803A801A0834405002A8B79
:1050E0001305F08185472394A1806308F80C2E8472
:1050F000B289368ABA8A854C03A7C1A083A7419F8B
:1051000025436303970F63979701FD1423AA019E1C
:1051100093F4F40F93972400A697860763FC340D4D
:10512000938817001388270013853700938547005D
:10513000138657009386670013877700138E8700C6
:1051400013839700A29722982295A2952296A29661
:105150002297229E2293A29883CE0700034F080035
:10516000834F050083C205008343060003C8060081
:10517000834703008346070083C8080003470E00E7
:105180005000D6855285A306F1002302D101A30267
:1051900011012303E101A303F10123045100A3043E
:1051A000710023050101A305D1002306E100EFD022
:1051B000CFCA83A701A0E39197F59307008023A0AE
:1051C00001A02394F18023009B00F2506254D2543A
:1051D0004259B259225A925A025BF24B624CD24C5B
:1051E000424D054521618280850423A601A093F4E8
:1051F000F40F11BF214E1D479946154691450D45A7
:10520000094885488147814435BF83A6419F0111E4
:1052100026CA4AC806CE22CC4EC60547AA842E8985
:10522000034405006382E60E83A6C1A0054763869A
:10523000E60883A681A005476388E60A83A6C19F86
:1052400005476382E604FD47238084002394F180B0
:10525000931504019D47C18163F98704E1153776F1
:105260000100C2051306062FC1810145EFD0EFBE34
:10527000F2406244930700802394F180D244424973
:10528000B249056182804165011523AE019EEFD0D0
:10529000CFA49D4501461305000DEFD00FC3238019
:1052A0000400FD472394F180814537760100130601
:1052B000062F0145EFD06FBA65BF23A601A03DC8F8
:1052C0007D141374F40F41650115EFD00FA113166F
:1052D000840161869D451305000DEFD00FBF83A6A5
:1052E00081A00547E39CE6F44165011523A401A0D4
:1052F000EFD0AF9E1316890161869D451305000D01
:10530000EFD0AFBC4A841DBF23AA019E6306B4023E
:1053100005041374F40F9319840193D989414165ED
:105320000115EFD08F9B4E869D451305000DEFD0E4
:10533000CFB9DDBD4A8441BF81490144CDB7411198
:1053400026C2C16422C44AC006C60144938494E1C3
:105350001309200742044180228526869305F00424
:105360000504EFD0CF9B93170401C1831394070169
:105370004184E39127FFC1640144938494E11309BC
:10538000200742044180228526869305B003050448
:10539000EFD0EF9893170401C18313940701418460
:1053A000E39127FFC1640144938494E1130920072A
:1053B0004204418022852686930570020504EFD0C1
:1053C0000F9693170401C183139407014184E3915D
:1053D00027FFC1640144938494E113092007420428
:1053E000418022852686CD450504EFD04F93931743
:1053F0000401C183139407014184E39227FFC16430
:1054000013043006FD14A2857D1442047D46130565
:1054100030024180EFD0AF90E31794FEC1641304D3
:105420003006FD14A2851306007E13058003EFD01D
:105430000F8FA2851306007E13059003EFD02F8EE9
:10544000A2857D1442041306007E1305A00341804B
:10545000EFD0EF8CE31894FCC16413043006FD1404
:10546000A2857D1442047D461305F0044180EFD0EF
:105470000F8BE31794FE93040080130630029D45C2
:10548000294523949180EFD02FB1377601007D49D3
:105490001306862C9D451305100323942181EFD01C
:1054A000CF9B1306F0049D4513058005239491803E
:1054B000EFD08FAE377601001306C62C9545130545
:1054C000800723942181EFD04F993776010013068E
:1054D000062D914513058007EFD02F9837760100F0
:1054E0001306462D8D4513058007EFD00F973776AD
:1054F00001001306862D894513058007EFD0EF952F
:10550000377601001306C62D854513058007EFD0B9
:10551000CF94377601001306062E814513058007C8
:10552000EFD0AF93B2402394918022449244024939
:1055300041018280797122D44AD056CAC16A376942
:10554000002026D24ECE52CC5AC85EC662C406D6C1
:1055500023990192814793043006130A30061309F8
:10556000490893091007138BFA810397619B630A1B
:10557000F7220397819B6306F72213970701418364
:10558000BE8563F4E400930530069387870F860792
:10559000CA9703D54700B305BA40C2057D159317D6
:1055A0000501C183C18163F4F900130510074205A9
:1055B0005A864181EFC0BFF6839721931397070165
:1055C0004183BE8563F4E400930530069387870F1B
:1055D0008607CA9703D54700B305BA40C205C18103
:1055E00063F4A900130510075A86EFC05FF3839791
:1055F0002193139707014183BE8563F4E40093056B
:1056000030069387870F8607CA9703D54700B305EF
:10561000BA40C205050593170501C183C18163F432
:10562000F9001305100742055A864181EFC03FEF8C
:1056300083972193139707014183BE8563F4E400A8
:10564000930530069387872E8607CA9703D5C70030
:10565000B305BA40C2057D1593170501C183C18109
:1056600063F4F9001305100742057D464181EFC040
:105670001FEB83972193139707014183BE8563F442
:10568000E400930530069387872E8607CA9703D5D3
:10569000C700B305BA40C205C18163F4A900130570
:1056A00010077D46EFC0BFE783972193139707014B
:1056B0004183BE8563F4E400930530069387872E0B
:1056C0008607CA9703D5C700B305BA40C2050505CA
:1056D00093170501C183C18163F4F9001305100715
:1056E00042057D464181EFC09FE383972193139745
:1056F00007014183BE8563F4E40093053006860705
:10570000CA9703D50700B305BA40C205C18163F447
:10571000A9001305100713860A80EFC05FE0839786
:105720002193139707014183BE8563F4E400930539
:1057300030068607CA9703D50700B305BA40C205ED
:105740007D1593170501C183C18163F4F900130529
:105750001007420513860A804181EFC05FDC839702
:105760002193139707014183BE8563F4E4009305F9
:1057700030068607CA9703D50700B305BA40C205AD
:10578000050593170501C183C18163F4F900130571
:105790001007420513860A804181EFC05FD88397C6
:1057A00021938507C207C1872399F192E3DFF4DAD9
:1057B000B250225492540259F249624AD24A424BA0
:1057C000B24B224C4561828079714AD003A7819FF8
:1057D00006D622D426D24ECE52CC56CA5AC85EC65F
:1057E00062C48547630EF70E377C0020B77901004D
:1057F00005443DA883A7419F6380870883A7C19F75
:10580000638B870883A781A01386891281451305BE
:1058100060096386870AEFC05FE403968198854537
:1058200013056009EFD02F8183A7819F638A870AC0
:10583000EF40D07D930720078148130840061307E7
:1058400040069306200713064CC781450145EFD05B
:105850005F8583A7C1A0E39F87F883D7819813054D
:10586000400623A601A085072394F198EFE00F9747
:1058700083A7419FE39487F883D781981305400657
:1058800023AA019EFD172394F198EFE02F9583A79B
:10589000C19FE39987F683D781981305400623AE0D
:1058A000019EA9072394F198EFE04F9383A781A06D
:1058B00013868912814513056009E39E87F483D717
:1058C00081981305400623A401A0D9172394F198C9
:1058D000EFE0CF901386891281451305600925BF3B
:1058E000B250225423AC019E92540259F249624AAA
:1058F000D24A424BB24B224C0145456182807971BC
:105900006AC003A7819F06D622D426D24AD04ECEA3
:1059100052CC56CA5AC85EC662C466C28547630482
:10592000F714B7690020376400204169B77C002074
:10593000130444F7938489F1377C0100377B01001D
:10594000B77A010013090980EFE09FB89307200799
:105950001307400681481308400693062007814537
:10596000014513864CC7EFD0CFF3EFF05F9DEFF00A
:105970007FBC83459400034584004A86EFF04F8D39
:105980008345D4000345C4007D46EFF06F8C83C58A
:10599000140003C589F11306007EEFF06F8B834579
:1059A000B4000345A4004A86EFF08F8A8345F400D3
:1059B0000345E4007D46EFF0AF8983C5340003C59D
:1059C00024001306007EEFF0AF881306CC1B814540
:1059D00013056009EFC07FC80396819485451305C0
:1059E0006009EFC05FE513064B1C8945130560098C
:1059F000EFC0BFC60386A4008D4513056009EFC044
:105A0000DFCC13860A1D914513056009EFC0FFC462
:105A10000396C1A1954513056009EFC0DFE10306B8
:105A20000401994513056009EFC03FCA030624012C
:105A30009D4513056009EFC05FC903061401994530
:105A40001305E00BEFC07FC8030634019D45130525
:105A5000E00BEFC09FC77945EFD05FF803A7819FA8
:105A60008547E313F7EE41650115EFC01FA7B2505C
:105A7000225423AC019E92540259F249624AD24AFE
:105A8000424BB24B224C924C024D01454561828003
:105A90005D71A2C44EDE37040020B769002052DCDD
:105AA0005AD85ED686C6A6C2CAC056DA62D466D2B4
:105AB0006AD06ECE938989ED13048405FD4B83A7CC
:105AC000819F85446380971A954513859195EFF0E2
:105AD000CFF31386418581454145EFC01FB813863A
