:100000006FB0702F130000001300000013000000F9
:100010001300000013000000130000001300000094
:100020001300000013000000130000001300000084
:08003000130000007300100032
:10003800000000000000000030B6000034B60000E8
:10004800000000003CBA00000000000000000000B2
:100058003EBA000040BA00000000000000000000A6
:1000680042BA00000000000044BA0000000000008E
:1000780046BA000048BA00004ABA00004CBA00006C
:100088004EBA000050BA0000C4B20000DCB2000052
:10009800F6B2000010B300002AB300005CBA0000FA
:1000A8005EBA000060BA000062BA000064BA0000DC
:1000B80066BA000068BA00006ABA00006CBA0000AC
:1000C8006EBA000070BA000072BA000044B30000B3
:1000D80076BA00008CB400007ABA00007CBA00003E
:1000E800BAB40000D8B4000006B5000084BA000015
:1000F80086BA000088BA00008ABA00008CBA0000EC
:100108008EBA00000CB100003EB1000080B10000C2
:10011800C2B3000098BA00009ABA00009CBA000066
:10012800B6B50000A0BA0000A2BA0000A4BA000048
:10013800A6BA0000A8BA000034B50000ACBA0000A6
:10014800B2B10000E4B1000062B5000084B500005F
:10015800B6BA0000B8BA0000BABA0000BCBA0000CB
:10016800BEBA0000C0BA0000C2BA0000C4BA00009B
:10017800C6BA0000C8BA0000CABA000094CD000090
:10018800CEBA0000D0BA000094B200000AB2000053
:100198003CB2000072B20000DABA0000E4B5000018
:1001A800DEBA0000E0BA0000E2BA000012B60000B1
:1001B800E6BA0000E8BA0000EABA0000ECBA0000AB
:1001C800EEBA0000F0BA0000F2BA0000F4BA00007B
:1001D8000000000000000000000000000000000017
:1001E8000000000000000000000000000000000007
:0801F8000000000000000000FF
:10020000737504308280B76200009382820873A005
:10021000023082803D432A876373C3029377F700DD
:10022000BDEFADE5937606FF3D8ABA960CC34CC38D
:100230000CC74CC74107E36BD7FE11E28280B306BF
:10024000C3408A069702000096966780A60023079F
:10025000B700A306B7002306B700A305B700230520
:10026000B700A304B7002304B700A303B700230318
:10027000B700A302B7002302B700A301B700230110
:10028000B700A300B7002300B700828093F5F50FF5
:1002900093968500D58D93960501D58D61B793967C
:1002A00027009702000096968682E78086FA96805D
:1002B000C1171D8F3E96E374C3F8A5B739CD054726
:1002C000630DE5040947630AE5040D476307E50488
:1002D00011476304E50415476301E5041947630EFC
:1002E000E5021D47630BE50221476302E50425474C
:1002F0006305E50429476308E5042D47630BE5041E
:1003000031476300E5023547630BE5043947630E67
:10031000E5043D476301E50682808146014681454B
:100320003DA3814601468145130520040DA3814666
:10033000014681451305000219AB814601468145FE
:100340001305100229A381460146814513050004C7
:10035000FDA981460146814513051004CDA98146BA
:100360000146814513053004DDA1814601468145E2
:1003700013054004E9A9814601468145130550044F
:10038000F9A1411122C4372401404AC091460546D3
:100390002E899375F50F1305044006C626C2EFB0EB
:1003A0009021130504408545B7240140EFB0101F8C
:1003B0001384044089452285EFB0D02B65DD03A569
:1003C000C444B240224433552501420592440249B7
:1003D000418141018280797106D622D426D2F93D2D
:1003E000854513050020EFC0401501453724014025
:1003F000EFC0200013050440EFB0100CB7070E004B
:10040000130504408A853EC68547230AF10002C0D1
:1004100002C202C402C8EFB0500F13050440854564
:10042000EFB07014130504408145EFB0502513055B
:100430000440B7240140EFB03014138404402285F7
:10044000EFB030146DFD1385044037240140EFB048
:10045000D013130404402285EFB0D0136DFDB250C9
:100460002254925445618280B7F700E023A0070030
:100470008146014794C7D8C7054798C337F700E0BE
:100480001047544763E6D500E39CB6FEE37AC5FE09
:10049000828079715EC662C466C2328CAE8CB68BC5
:1004A000014693068004814506D622D426D24AD03E
:1004B0004ECE52CC56CA5AC8BE8A3A8B428AC68998
:1004C00083440103034941030344810349266685AC
:1004D00093068004014681459D2E62859306800423
:1004E00001468145AD265E8593068004014681451F
:1004F000B92E5A859306800401468145892E56857A
:10050000930680040146814599265285930680040E
:10051000014681452D2E4E85930680040146814576
:100520003D264A8593068004014681450D26268591
:100530009306800401468145192E22852254B2502B
:1005400092540259F249624AD24A424BB24B224C6F
:10055000924C93068004014681454561CDAC011162
:1005600022CC26CA2E84AA848545096506CE4AC8AF
:100570004EC63289B689EFB0707AB707055003C707
:100580000700130560058D451377F70C2380E700FE
:1005900003C70700136727042380E70003C717007A
:1005A0001377970FA380E700239237012393270146
:1005B00084C7C0C703C717001377F703A380E700FA
:1005C00003C717001377F70FA380E70003C71700CF
:1005D00013670701A380E70003C7270013674700DD
:1005E0002381E70003C7170013671700A380E70004
:1005F00003C70700136717002380E700EF30D026FA
:100600006244F240D2444249B24913056005056193
:100610006F305022B707002041119387070022C492
:10062000AA9706C683C6070055671307077993176D
:100630002500BA971307F00F80436385E6003685DF
:10064000E12209C903554402B240224442054185D2
:100650004101828003554402B24022443305A04048
:100660004205418541018280D567938707790A0554
:100670003E951C41239207028280011122CC2E84D8
:10068000914506CE26CA4AC8AA843289EF00707204
:10069000B7550100130630089385C55AEF30201571
:1006A0002685EF00F072930680040146814513759C
:1006B000F40F712A81459306800401461375F90FE2
:1006C0007922B707002093870700A6972380870029
:1006D0009355840085476388F504C5476381F50C0D
:1006E000930710026385F50C93072002638AF508CF
:1006F00093071003638CF50C930710076381F50CC7
:10070000930710086386F508930710096385F50CB5
:10071000930720096390F502370701405C4F93E788
:1007200007025CCF01A83705160085451305050CA7
:10073000EFB0D04185450545EFB030604800EFC0CF
:100740004031D567938707798A04BE948040C1679A
:10075000FD174C0022853EC402C223060100EFB003
:100760007073228593050006EFC0603522858545AC
:10077000EFC0A02FF2406244D2444249056182801A
:1007800037151A00854513050580EFB0303C5DB77D
:10079000370701405C4F93E707015CCF61BF370526
:1007A0001800854513050530EFB0503A61B737158D
:1007B0001A008545130505C0EFB05039A5BF3707AE
:1007C00001405C4F93E747005CCFADB785450565B9
:1007D000EFB0D03785B7370701405C4F93E7070488
:1007E0005CCF89BF9357550013972700D567938730
:1007F0000762BA973D89984385473395A70099C109
:1008000008CB828048CB8280135735009376C7018E
:100810005567130707623697184385473395A70036
:100820001C477D8D3335A00082809357350013F728
:10083000C701D56793870762BA9798439377F50006
:10084000054554473315F500358D48C78280930719
:10085000F00F6307F50C797122D41354550026D29A
:100860004AD04ECE52CC06D61D889374F5003689F8
:10087000B2892E8A0DC885476305F40A8947630744
:10088000F40A8D476309F40A9147630CF40A95470B
:10089000630FF40A9947631CF400854513050010A3
:1008A000EFB0B04929A085451145EFB01049054783
:1008B000B3149700C204D56793870762C1800A0406
:1008C0003E94231291009377F90F0040630FEA00E2
:1008D0004C0022853EC6EFB0A05EB2502254925426
:1008E0000259F249624A456182804209135909015D
:1008F00013598900631309000D494C0022854AC42D
:100900003EC6EFB0E05B4E86A6852285EFB0702331
:10091000B250225492540259F249624A456182808F
:10092000828085452145EFB0504151B7854541450D
:10093000EFB0B040ADBF854513050002EFB0F03F0A
:10094000BDB7854513050004EFB0303F8DB7854531
:1009500013050008EFB0703E99BFD56793874758DD
:1009600003AF070083AE470003AE870003A3C700B1
:1009700083A8070103A84701D44F9853904FDC5335
:100980001D71A6CAAE84854586CE7ACC76CE72D04D
:100990001AD246D442D636DA3ADCA2CCCAC8CEC67F
:1009A000D2C43EDE2A843759010032D8EF007040AD
:1009B0009305496313065002EF207063130660022B
:1009C0009305496333359000EF2070622285EF0074
:1009D000304013DAF40093170A01C1838507B3D4BA
:1009E000F402D5679319240093870779CE9703A95A
:1009F00007006C00231641014A85231901002317C3
:100A00000100230A01001374F40F0A042318910053
:100A1000EFB0504805464A858545EFC0A0084A8595
:100A20008545EFC080189C003E94032584FD8D45CC
:100A3000EF3080639C00BE9903A589FDEF30805F95
:100A40004A858545EFC06002F6406644D644464973
:100A5000B649264A25618280630305208547630CD9
:100A6000F52089476303F5208D47630CF520C147C6
:100A7000630FF520C5476303F522C9476307F522D5
:100A8000CD476301F524930700106304F524930711
:100A900010106306F524930720106308F5249307CC
:100AA0003010630AF524930700116307F5209307BC
:100AB00010116308F52493072011630BF5249307A5
:100AC0003011630EF524930700206301F526930788
:100AD00010206303F526930720206305F52693076E
:100AE00030206308F52693070021630BF526930752
:100AF0001021630EF526930720216301F528930743
:100B000030216304F528930700226307F528930733
:100B10001022630AF52893070030630DF528930728
:100B200010306300F52A930720306303F52A9307FA
:100B300030306304F52C930700316309F52A9307DD
:100B40001031630EF52893072031630FF52A9307C0
:100B500030316302F52C93070040630CF5169307C0
:100B60001040630EF516930720406300F5189307B5
:100B700030406302F518930700706303F51E930776
:100B800010706306F51E930720706309F51E930726
:100B90003070630CF51E93070071630DF520930709
:100BA00010716300F522930720716303F522930708
:100BB00030716300F5289307058063880712856705
:100BC000138717806309E512138727806301E528DF
:100BD000938737806306F526856713870781630F40
:100BE000E52C138717816304E52C1387278163089D
:100BF000E51E138737816300E52213870790630999
:100C0000E51C13871790630AE51E13872790630975
:100C1000E52813873790630EE52613870791630352
:100C2000E526938717916308F52485671387279135
:100C3000630CE522138737916301E522138707923E
:100C40006301E50C138717926308E5141387279255
:100C5000630BE514938737926306F51C8280930635
:100C60008031014685452145DDB693068031014638
:100C700085452945E9BE93068031014685452545D0
:100C8000F9B693068031014685452D45C9B69306D0
:100C90008031014685451305900855BE9306803185
:100CA000014685451305B0085DB6930680310146BF
:100CB00085451305D00861BE930680310146854500
:100CC0003D4571B693068031014685451305E00820
:100CD000BDBE930680310146854501458DBE930614
:100CE00080310146854505459DB693068031014614
:100CF00085450945A9BE93068031014685450D45C8
:100D0000B9B693068031014685451305300281B698
:100D100093068031014685451305A0020DBE93065A
:100D20008031014685451305B00215B69306803122
:100D300001468545194521BE93068031014685450A
:100D40001D4531B6930680310146854513050002E5
:100D5000FDBC930680310146854513051002C5BCD4
:100D6000930680310146854513056004CDB4930692
:100D700080310146854513057004D1BC930680314E
:100D80000146854513058004D9B493068031014698
:100D900085451305900465BC930680310146854561
:100DA000130540026DB49306803101468545130555
:100DB000500271BC930680310146854513056002DF
:100DC00079B493068031014685451305700241B41C
:100DD0009306803101468545130580028DBC93063C
:100DE0008031014685451305D00695B493068031C0
:100DF000014685451305C00699BC9306803101461E
:100E0000854513059002A1B49306803101468545BE
:100E10001305E0062DBC9306803101468545130578
:100E2000F00635B493068031014685451305F0047C
:100E300039BC93068031014685451305D00401BCB9
:100E400093068031014685451305400409B4930695
:100E50008031014685451145DDBA93068031014652
:100E6000854513057006E5B2930680310146854538
:100E700013055006E9BA93068031014685451305EE
:100E80003006F1B293068031014685451305100600
:100E90007DBA93068031014685451305B00445BAF5
:100EA0009306803101468545130530044DB2930603
:100EB0008031014685451305B00651BA930680314D
:100EC000014685451305900659B29357850055672D
:100ED000130707798A07BA9794431307102183D71A
:100EE000C602B385F5026302E5046364E502FD779B
:100EF0009387076FAA970D47636DF7009307803EAE
:100F00000D89B3D5F5020A053695C205C1814CD9C4
:100F10008280896793870771B3D5F5020D890A0529
:100F20003695C205C1814CD98280E1679387076AF3
:100F3000B3D5F5020D890A053695C205C1814CD994
:100F40008280397126DA9354850022DC52D42A84B7
:100F50002E8A26858D4506DE4AD84ED63289912DB9
:100F6000B75501001306900B9385456AEF203008B2
:100F70002685B92D2285CD3485450545EFB0E05B4A
:100F80009357440005476388E7044547638FE71A92
:100F9000130710026381E71E130720026382E71222
:100FA000130710036388E71E13071007638DE71C00
:100FB000130710086381E716130710096381E71E02
:100FC000130720096395E710370701405C4F93E74B
:100FD00007025CCFEDA83705160085451305050C03
:100FE000EFB0C03683A54183896993890971B3D76E
:100FF0004503C18393861700B38646031397070101
:101000004183B3D5D50293970501C1833389270363
:10101000BE85D567938707798A04BE9484409387F9
:10102000F5FF4C0026852314F1002312E10023155F
:1010300001002313010023060100EFB0A06533591E
:101040003903C167938707073EC8B70702008907BE
:10105000231A01003ECC02CE0D88231B210121C49E
:101060008547630CF40E89470C0826856304F40C4D
:10107000EFB05014A1452685EFB0502A93050040EB
:101080002685EFB0302F26858545EFB010202685C8
:101090008545EFB0901DF2506254D2544259B25976
:1010A000225A216182800C082685EFB0006C2685CB
:1010B000A145EFB0D02291452685EFB0D027E1B70A
:1010C00037151A00854513050580EFB0202883A544
:1010D000418313061021B3D74503C18393861700BC
:1010E000B3864603139707014183B3D5D50293977F
:1010F0000501C183BE85338927036305C402636785
:10110000C402FD779387076FA2978D4663E0F602CE
:101110009309803EFDBD370701405C4F93E707010F
:101120005CCF75B7E1699389096AE5B589699389E7
:101130000971C5B5EFB0007B2685A145EFB0F01C65
:1011400091452685EFB0F0213DBF37051800854554
:1011500013050530EFB0801F9DBF0C082685EFB04A
:10116000406B2685A145EFB0B01893050040268559
:10117000EFB0901D09BF37151A008545130505C04E
:10118000EFB0C01CA9B7370701405C4F93E7470099
:101190005CCF35BF85450565EFB0401B0DBF3707F8
:1011A00001405C4F93E707045CCF15B7411122C49F
:1011B00026C24AC006C6AE843284368955C5C147A8
:1011C0006302F510930700026301F5129307000311
:1011D000630AF50E93070004630DF514B75501007B
:1011E00013069002938545710145EF2040608947C1
:1011F0006386F408C9476385F40A9307200263886D
:10120000F41093072003638DF40893072004638789
:10121000F40EB7550100130600039385457101458F
:10122000EF20E05C85476305F406C5476303F408D7
:10123000930710026306F40E930710046304F4107E
:10124000930710036307F4069307F00F6315F40880
:101250002244B24092444A85024993060031014635
:10126000854541016FF0AFDE930680310546854527
:101270001545EFF0CFDD8947E39EF4F69306803104
:10128000054685451D45EFF08FDC8547E31FF4F8E3
:1012900093064030054681451945EFF04FDB4DBFC1
:1012A000930680310546854513055002EFF02FDA8D
:1012B00095BF930640300546814513054002EFF087
:1012C0000FD979B79306803105468545130530025D
:1012D000EFF0EFD729BFB7550100130680039385C0
:1012E00045710145EF20A050A5B793068031054612
:1012F00085451305D002EFF08FD5D5BD930680311B
:10130000054685451305C004EFF06FD421BF930651
:101310008031054685451305F002EFF04FD319B72C
:1013200093064030054681451305E002EFF02FD2C9
:1013300005B793068031054685451305A004EFF0F7
:101340000FD175B593064030054681451305B004AD
:10135000EFF0EFCFF5BD5D7193182500CAC02A8963
:1013600055651305457846954EDE8329050086C6EA
:10137000A2C44E85A6C252DC56DA5AD85ED63E8B3F
:10138000AE84B28B368ABA8A4284EFB08022854519
:101390000545EFB0801AC1476309FA0E93070004B0
:1013A0006316FA00930720046385FA16630B090E8F
:1013B00085476301F91889476309F916A2865A8699
:1013C000D6855285E533B70704013EC623180100D0
:1013D00085476380F40E638C04100947638AE40E2A
:1013E0008D466385D40803A4C1919307F00F33544D
:1013F00074034204418063F287041304800393075B
:1014000000206C004E85231BF1009D47231C8100AA
:10141000231EF100231D0100EFB0C01F4E8585453E
:10142000EFB02025B640264496440649F259625A48
:10143000D25A425BB25B616182809307F00763E737
:1014400087069307F00363E3870CFD4763E9870E84
:10145000BD4763E9870E9D4763E8870E8D4763E7C5
:10146000870E854763F6870E014451BF231AF100AA
:1014700003A4C1912319E1009307F00F33547403BF
:1014800042044180E3EB87F64DBFC947E390FAF28F
:10149000C547E31DFBF085450545EFA0306BE3191B
:1014A00009F085450565EFB0400909BF1304000345
:1014B000B9B703A4C19123190100231A9100335431
:1014C00074039307F00F42044180E3E887F2B5B755
:1014D00003A4C19123199100231A0100335474030A
:1014E0009307F00F42044180E3E987F0B9B703A402
:1014F000C19123190100231A010033547403930787
:10150000F00F42044180E3EA87EE05BF1304800236
:10151000FDB593071004E31BFBE837152000854554
:1015200013050510EFA0906251B585452165EFB018
:10153000A00269B585451165EFB0000241B51304FD
:10154000000275BD614465BD414455BD214445BDA2
:10155000B75501001306D008938545710145EF206A
:10156000002971BDD5670A0593874778AA979843E4
:101570002316B7008357870093F70708E5FF82809B
:10158000D5670A0593874778AA97984393D785002C
:101590002316F7008357870093F70708E5FF93F5B5
:1015A000F50F2316B7008357870093F70708E5FF69
:1015B000828093172500138541A13E951C4181E748
:1015C0000CC1054582803385B740133515008280F4
:1015D00021C10547630BE50209476308E5020D4792
:1015E000630EE5021147630FE50215476300E5044A
:1015F00019476301E5041D476303E50421476304BC
:10160000E50425476306E504828085456FA0D07414
:1016100005658545130505806FA030728545114528
:101620006FA09073854521456FA010738545414596
:101630006FA090728545130500026FA0F07185457B
:1016400009656FA0906F8545370508006FA0F06EA3
:101650008545370510006FA0506E411122C406C6A3
:101660002E8441C98947630BF516C147630BF512F8
:10167000C947630AF51A930700026305F51C93072F
:101680002002630AF51893074002630CF51C9307C8
:1016900000046302F518930720046302F520930702
:1016A00000056305F522930720056300F524937771
:1016B000D5FF130700066383E72093070007630144
:1016C000F51C93072007630EF52493074007630872
:1016D000F526930700086303F52893072008631095
:1016E000F502E146014685451305E008EFF02F9627
:1016F00039A0E146014685452545EFF04F958547E0
:101700006307F4088D476300F40CC5476300F40ECB
:10171000CD476307F40E93071002630EF41093078E
:1017200030026307F408930750026305F41293072D
:101730001004630FF40693073004630BF41493074B
:1017400010056306F416930730056309F418930730
:1017500010066304F41A930730066307F41A93071C
:1017600010076308F410930730076306F41A930711
:101770005007630FF41A93071008630AF41C9307C9
:1017800030086305F41EB240224441018280930672
:1017900080040146814529452244B24041016FF051
:1017A0000F8BE146014685450945EFF04F8A81BF21
:1017B0002244B24093068004014681451305B004DB
:1017C00041016FF0CF882244B24093068004014665
:1017D00081451305700241016FF06F87E1460146B4
:1017E000854513056002EFF08F8611BF2244B24099
:1017F00093068004014681450D4541016FF02F8518
:101800002244B240930680040146814513056006D8
:1018100041016FF0CF83E146014685451305A004E1
:10182000EFF0EF82E9BDE14601468545130550061C
:10183000EFF0EF81E9B59306800401468145130579
:10184000B00299BFE146014685451305A002EFF0BD
:101850000F8075B5930680040146814513059006F7
:1018600025BFE1460146854513058006EFE03FFEB2
:1018700079B593068004014681451305300429BFDC
:10188000E1460146854513052004EFE05FFC85BD78
:10189000930680040146814513051002F5BDE1461B
:1018A0000146854513050002EFE07FFA89BD9306E6
:1018B00080040146814513052006F9BDE146014635
:1018C000854513050004EFE09FF815BDE14601468C
:1018D00085451305C004EFE09FF715B59306800416
:1018E000014681451305900845BDE1460146854501
:1018F00013058008EFE0BFF519B593068004014693
:1019000081451305100449BD9306800401468145B5
:101910001305B00851B593068004014681451D4565
:10192000A5BDE146014685451945EFE05FF2C1BB23
:1019300093068004014681451305D008B1BDE146F8
:10194000014685451305C008EFE07FF04DBB9306C7
:10195000800401468145130550043DBDE146014622
:10196000854513054004EFE09FEE51BB93068004CC
:10197000014681451305F00805B51DC6D5670A0562
:101980009387877BAA9798432E96850583C6F5FF94
:101990008357070093F70708E5DF93970601C18394
:1019A0002312F700E393C5FE8280D5671317250045
:1019B0009387877B4111BA9726C2AA84884322C4A1
:1019C0002E862E849305505206C6EFB0A0311385A3
:1019D0008184269503450500B7E700E0AA97238098
:1019E000074019C42244B240924441016F208064F0
:1019F0002244B240924441016F206065D5670A05D8
:101A00009387877BAA9798438357070093F707022A
:101A100099E3014582808357470005452380F500FF
:101A20008280797122D44ECE2A84AE8905458545BF
:101A300006D626D24AD0B2843689EFA01030CA85A5
:101A4000268521398947638DF414C9476382F406DA
:101A5000930720026386F40A93074002638DF40A19
:101A6000930720046385F40C93072005639AF40C14
:101A700093073005630CF91821C48547630AF414F1
:101A80008947630DF4148D476300F416914763038F
:101A9000F41695476306F41699476300F4189D47BA
:101AA0006314F402854513050010EFA0F02A29A85D
:101AB000CD47E313F9FC85452145EFA0300955FCDE
:101AC00085451165EFA07027D5679387877B0A044A
:101AD0003E9400408A85B7070C0022854EC03EC464
:101AE0002316010002C2EFB0200D22858545EFB01C
:101AF000601DB250225492540259F24945618280CD
:101B000093073002E31AF9F63705140085454105BD
:101B1000EFA0D00395B793075002E31FF9F4370500
:101B20001400854513050503EFA05002B1B79307D4
:101B30003004E313F9F485450565EFA030012DBFAE
:101B400093072006639EF40093073006E316F9F22C
:101B500037150080854513050580EFA0207F29BF3C
:101B600093072007639EF40093073007E316F9F00C
:101B7000370701405C4FB7064000D58F5CCFEDBD05
:101B8000930740076396F40293075007E316F9EEB4
:101B9000370701405C4FB7068000D58F5CCFE9BDA9
:101BA0008D47E31BF9EC85451145EFA0207AE9B597
:101BB00093072008E392F4EC93073008E31EF9EA58
:101BC000370701405C4FB7060002D58F5CCF6DB57B
:101BD000854537050200EFA03018FDB5854537056E
:101BE0000400EFA07017CDB5854537050800EFA0BC
:101BF000B016D9BD854537051000EFA0F015E9B541
:101C0000854513050004EFA030157DBD3705200084
:101C100085450505EFA0807385B58545130500084A
:101C2000EFA0901355B5011122CC9385D18E1545A7
:101C300006CE26CA4AC84EC6D13305469385D18EF4
:101C40001385C1A5EF1030421384818E184085475B
:101C50006309F700F2406244D2444249B249056147
:101C600082801389C18E834509009389C1A393F5AE
:101C7000F50F9387150093F7F70F81461386818E32
:101C8000CE951385C1A52300F900EF107049834755
:101C900009000D47E370F7FC834509003755010043
:101CA0001146F115CE951305857DEF10E1315DF1FB
:101CB00089471CC045B7011122CC9385518F194526
:101CC00006CE26CA4AC84EC6153B05469385518F97
:101CD000138501A9EF1030391384018F184085470F
:101CE0006309F700F2406244D2444249B2490561B7
:101CF00082801389418F83450900938901A793F559
:101D0000F50F9387150093F7F70F81461386018F20
:101D1000CE95138501A92300F900EF107040834789
:101D200009000D47E370F7FC8345090037550100B2
:101D30001146F115CE951305857DEF10E1285DF173
:101D400089471CC045B783A7019109476388E7000D
:101D50000D476388E70011476383E70082806F10B7
:101D6000807D6F10005483A7019111476386E700BF
:101D70000D476385E70082806F1030026F10A05816
:101D800079715AC806D622D426D24AD04ECE52CC29
:101D900056CA5EC6138BA18083470B0037540100DF
:101DA000AE8A32899305047E13062005AA8933354D
:101DB000F500368A9384B180EF10702303C50400C8
:101DC0009305047E1306300533B5AA00EF103022C8
:101DD00003450B009305047E130640053335A90027
:101DE000EF10F02003C504009305047E1306500590
:101DF0003335AA00EF10B01F83A7418055679306C3
:101E00000762C04683240762F9C70547638CE71859
:101E1000414B232864019389890213098902A16B2C
:101E2000232A6401C2094209094723AA740193D9EC
:101E30000901135909019305A00205456389E710BB
:101E4000EFF04FF223A87401232864010545CE85E5
:101E5000232A6401EFF0CFF2CA850545EFF04FF277
:101E600023286401232A64019305B002054523AAAF
:101E70007401EFF02FEF93854A0323A87401232800
:101E80006401C205C1810545232A6401EFF04FEFCB
:101E900093054A03C205C1810545EFF06FEE232883
:101EA0006401232A640123AA74019305C002054535
:101EB000EFF04FEB23A8740123286401232A640167
:101EC000B250225492540259F249624AD24A424BC9
:101ED000B24B45618280414B23286401A16B232AC8
:101EE00064019305A002054523AA7401EFF08FE772
:101EF0009385490323A8740123286401C205C18185
:101F00000545232A6401EFF0AFE793054903C205B5
:101F1000C1810545EFF0CFE623286401232A64013F
:101F20009305B002054523AA7401EFF0AFE3938552
:101F30008A0223A8740123286401C205C1810545D2
:101F4000232A6401EFF0CFE393058A02A1B7EFF0F3
:101F50006FE123A87401232864010545CE85232A57
:101F60006401EFF0EFE1CA850545EFF06FE123284A
:101F70006401232A64019305B002054523AA740174
:101F8000EFF04FDE93855A0323A8740123286401E0
:101F9000C205C1810545232A6401EFF06FDE930578
:101FA0005A03CDBD414B23286401A16B232A640150
:101FB0009305A002054523AA7401EFF0AFDA9385DB
:101FC000590323A8740123286401C205C181054572
:101FD000232A6401EFF0CFDA930559030DBF79711D
:101FE00022D4375401001306B0089305047E05453A
:101FF00006D64ECE52CC26D24AD056CA5AC85EC653
:1020000062C466C26AC0EF10807E1306C0089305E2
:10201000047E0545EF10A07D03A6C1919307F00F44
:10202000130720021308F00F930600020582814572
:102030000545EFF04FB2C146014685453D45EFE00D
:102040001F81C1460146854513050006EFE03F802C
:10205000C1460146854513054006EFE04FFFC146E6
:102060000546854513056004EFE06FFE93894180C6
:1020700003A70900854763FCE7429306700813072E
:10208000000F83A7C1918964938404F4B3D79702A6
:102090001305800C5569130609624046054C8145BD
:1020A000938AB180138BA180232A84012380DA00D4
:1020B0002300EB00930C4006C14B216D3385A70232
:1020C000EFE08FBA03A5C1918145232884013355E0
:1020D000950233059503EFE02FB903290962232800
:1020E0007401232A7401930560030545232AA9017D
:1020F000EFF04FC703A5C1912328A901232874013C
:1021000033559502232A7401814533059503EFE089
:10211000AFB583A709006381073A638A873B094704
:102120006381E73A9305000A0545EFF0AFC3C14468
:1021300004C8A16944C89305A0030545232A3901B1
:10214000EFF04FC22328390104C89545054544C81E
:10215000EFF04FC104C844C89305200B0545232A5E
:102160003901EFF02FC02328390104C8B1450545D6
:1021700044C8EFF02FBFB1450545EFF0AFBE814534
:102180000545EFF02FBE930530030545EFF08FBDF9
:10219000930530030545EFF0EFBC04C844C8930530
:1021A000700B0545232A3901EFF0CFBB23283901F5
:1021B00004C893055003054544C8EFF0AFBA04C8FE
:1021C00044C89305B00B0545232A3901EFF08FB9B8
:1021D0002328390104C893057003054544C8EFF06E
:1021E0006FB804C844C89305000C0545232A39017B
:1021F000EFF04FB72328390104C89305C002054505
:1022000044C8EFF02FB604C844C89305200C054518
:10221000232A3901EFF00FB52328390104C8854579
:10222000054544C8EFF00FB404C844C89305300C0A
:102230000545232A3901EFF0EFB22328390104C8FC
:10224000C945054544C8EFF0EFB104C844C893053B
:10225000400C0545232A3901EFF0CFB0232839017E
:1022600004C893050002054544C8EFF0AFAF04C8A9
:1022700044C89305600C0545232A3901EFF08FAE61
:102280002328390104C8BD45054544C8EFF08FAD8A
:1022900004C844C89305000D0545232A3901EFF011
:1022A0006FAC2328390104C89305400A054544C88A
:1022B000EFF04FAB9305100A0545EFF0AFAA04C845
:1022C00044C89305000E0545232A3901EFF08FA974
:1022D0002328390104C89305000D054544C8EFF0D3
:1022E0006FA891450545EFF0EFA7B5450545EFF01F
:1022F0006FA7C5450545EFF0EFA6CD450545EFF0C5
:102300006FA69305B0020545EFF0CFA59305F00346
:102310000545EFF02FA5930540050545EFF08FA487
:102320009305C0040545EFF0EFA3E1450545EFF047
:102330006FA3B5450545EFF0EFA2AD450545EFF0BC
:102340006FA2FD450545EFF0EFA19305300205456D
:10235000EFF04FA104C844C89305100E0545232A89
:102360003901EFF02FA02328390104C89305000D8F
:10237000054544C8EFF00F9F91450545EFF08F9E4E
:10238000B1450545EFF00F9EC5450545EFF08F9D22
:10239000CD450545EFF00F9D9305C0020545EFF0D3
:1023A0006F9C9305F0030545EFF0CF9B9305400428
:1023B0000545EFF02F9B930510050545EFF08F9A2B
:1023C0009305F0020545EFF0EF99FD450545EFF067
:1023D0006F99FD450545EFF0EF989305000205451F
:1023E000EFF04F98930530020545EFF0AF9704C822
:1023F00044C8930510020545232A3901EFF08F9652
:102400002328390104C844C804C844C8C545054543
:10241000232A3901EFF00F9503A5C19189679387AE
:1024200007F43355F5022328390104C8814544C80F
:10243000931745003385A7400E05EFE0EF8204C8EF
:1024400044C8930590020545232A3901EFF08F9186
:1024500003460B0083C60A002328390104C8330948
:10246000D602FD167D16C206420644C8B7070020F4
:10247000C18241828145014503D4073EEFF05F9060
:10248000630909007D19A2850545EFF06F8FE31BF5
:1024900009FEB250225492540259F249624AD24A79
:1024A000424BB24B224C924C024D456182809306C6
:1024B000000F13077008F1B681450545EFF08F8ACC
:1024C000BDB1930500070545EFF0CF898DB19305A8
:1024D000000C0545EFF00F8999B9411122C403C4DE
:1024E000A18083C6B1801306F4FF42063304D402F0
:1024F000FD16C20626C2C182AA84418281450145D9
:1025000006C6EFF0FF8719C47D14A6850545EFF0D8
:102510002F877DF8B240224492444101828083C7D4
:10252000A18001114AC83759010022CC26CA4EC6E3
:10253000AE842A84B2899305097E3335F5001306EB
:10254000F01206CEEF10A02A03C5B1809305097ED4
:102550001306001333B5A400EF106029A685228569
:10256000A6862286EFF0DF816244F240D2444249DF
:10257000CE85B249054505616FF08F8083C7A18084
:1025800079714AD03759010026D256CA62C4AE8A40
:102590002A8C9305097E3335F500B28413060014A6
:1025A00006D64ECE52CC5AC85EC622D4EF10202496
:1025B00003C5B1809305097E1306101433B5AA0034
:1025C000EF10E022938704FE596792071307478FA5
:1025D0003389E700920A930B7C00B38A2A414107B2
:1025E000C20BC20A93DB0B01330BF70093DA0A012B
:1025F000370A0020B3862A01C206C1825E86B685EC
:102600006285EFF0EFF721448344090011A883D5D8
:1026100081807D141374F40FEFE09FF6858019CC50
:1026200093F714000545E5F783550A3E7D140545EB
:102630001374F40FEFE0DFF485807DF00509E31BF0
:1026400069FBB250225492540259F249624AD24A6A
:10265000424BB24B224C4561828083C7A18001115D
:1026600026CAB754010022CC4AC84EC62E89B28968
:102670009385047E1306F0152A843335F50006CEC3
:10268000EF10E01603C5B180130600169385047E93
:102690003335A900EF10A0150386090005C2814457
:1026A00085042285CA85C204D13DC180B3879900C3
:1026B000038607002104420441807DF2F240624417
:1026C000D2444249B2490561828083C7A1807971B1
:1026D00022D4375401004AD04ECE52CC32892E8AB1
:1026E000130640179305047EAA893335F50006D6F4
:1026F00026D2EF10C00F03C5B18013065017930503
:10270000047E3335AA00EF10800E634B09061306D2
:102710000002D2854E85EFF07FE62947B347E902F4
:102720009306400613848900938909024204C20972
:102730006400418093D90901B346D902B3E7E702A7
:102740002306D1003369E902A306F1002307210122
:1027500003C6040022852104130606036206420410
:10276000D28561864180EFF07FE18504E39289FEA6
:10277000B250225492540259F249624A4561828011
:10278000330920411306D002D2854E856209EFF04D
:10279000FFDE1359894151B783C7A180797126D2D1
:1027A000B754010022D44AD052CC32892A842E8ACE
:1027B0003335F5009385047E1306601906D64ECE98
:1027C000EF10E00203C5B1809385047E13067019F3
:1027D0003335AA00EF10A0012947B357E902930649
:1027E000400693098401C209640093D90901B356D4
:1027F000D902B3F7E7022306D1003379E902A30631
:10280000F1002307210103C60400228521041306D9
:10281000060362064204D28561864180EFF01FD62E
:102820008504E39289FEB250225492540259F2492F
:10283000624A4561828083C7A180797126D2B754EC
:10284000010022D44AD04ECE3289AE891306201B15
:102850009385047E2A843335F50006D652CCEF00EA
:10286000107903C5B1801306301B9385047E33B500
:10287000A900EF00D0776348090813060002CE854F
:102880002285EFF0BFCF9306803EB346D902A94719
:10289000130740060966130606712104420424004A
:1028A0004180130AD1003347E902B345F902B3E688
:1028B000F6023346C902A304D1003367F7022304AA
:1028C000C100B3E6F5022305E1003369F902A3056F
:1028D000D1002306210103C604002285210413062A
:1028E00006036206CE85618642048504EFF01FC9A7
:1028F0004180E3129AFEB250225492540259F24996
:10290000624A45618280330920411306D002CE8598
:1029100022854209EFF09FC613590941ADB783C71D
:10292000A180797126D2B754010022D44AD04ECE6C
:102930003289AE891306701D9385047E2A8433354F
:10294000F50006D652CCEF00906A03C5B18093859E
:10295000047E1306801D33B5A900EF00506993066D
:10296000803EB356D902A9471307400609661306ED
:1029700006712400130AD1003357E902B355F90256
:10298000B3F6F6023356C902A304D1003377F70237
:102990002304C100B3F6F5022305E1003379F902FF
:1029A000A305D1002306210103C6040022852104CA
:1029B000130606036206CE85618642048504EFF0A5
:1029C000FFBB4180E39244FFB2502254925402591B
:1029D000F249624A456182801D71D6C2938AA18004
:1029E00083C70A00D2C4375A0100A2CCCAC8DAC0D1
:1029F0005EDE2E892A8493050A7E3335F500B28B7C
:102A00001306701F86CEA6CACEC6138BB180B689B8
:102A1000EF00F05D03450B001306801F93050A7E4F
:102A20003335A900EF00B05CA947A94463E437013E
:102A300093F4F90F93891400B765010093F9F90F26
:102A40005E869385858563C00B0A93070002130594
:102A5000D1002306F100EF00707A05051375F50F1C
:102A6000637D35013386A4401376F60F7C0005069E
:102A7000930500023E95EFD0EFF903C50A001C183C
:102A8000BE991306F01593050A7E3335A400238EF4
:102A900009FCEF00D05503450B0013060016930503
:102AA0000A7E3335A900EF0090540306C10081442B
:102AB00005C22285CA858504EFF05FACC204C180DF
:102AC0001C18A6970386C7FD21044204418075F2B5
:102AD000F6406644D6444649B649264A964A064BCD
:102AE000F25B256182806800EF0050711375F50F6D
:102AF00085BF1D71DAC0138BA18003480B00A6CAE5
:102B0000B7540100A2CCCAC8D2C4D6C22E8A2A8425
:102B10009385047E3335050132891306102286CE53
:102B2000CEC65EDE62DCBE8B66DAB689BA8C938A6C
:102B3000B180EF00D04B03C50A0013062022938515
:102B4000047E3335AA00EF00904A9947194C63E49C
:102B5000770113FCFB0FA94793FBFC0F63F397016D
:102B6000A94B01468146CE854A85EFD0D01BB7657B
:102B700001004A86CE8693854585634D050E130573
:102B8000D100EF00B0671307A5FF1377F70F93CBC2
:102B9000FBFFBA9B050C629793FBFB0F1377F70FB4
:102BA000139C8B01931C8701135C8C4193DC8C413B
:102BB000635C0C023307774162076187E68713067F
:102BC00000021418BE968507E207238EC6FCE18733
:102BD000E399E7FEB38C7C41330C7C41E20C620C40
:102BE00093DC8C41135C8C41014681464A85CE853D
:102BF000EFD07013634A050A1C183E9C930700022D
:102C0000230EFCFC03450B001C189385047EBE9C20
:102C10001306F0153335A400238E0CFCEF00303D75
:102C200003C50A00130600169385047E3335AA00F7
:102C3000EF00F03B0306C100814405C22285D28526
:102C40008504EFF0BF93C204C1801C18A6970386C9
:102C5000C7FD21044204418075F2F6406644D64423
:102C60004649B649264A964A064BF25B625CD25CFC
:102C7000256182806800EF007058130795FF137775
:102C8000F70F93CBFBFFBA9B050C629793FBFB0FEF
:102C90001377F70F139C8B01931C8701135C8C41F6
:102CA00093DC8C41E3480CF01C183E9C9307D00247
:102CB000230EFCFC81BF03C3A180397152D4375A63
:102CC000010022DC4ED662CCAE892A8493050A7EAE
:102CD00033356500328C1306802706DE26DA4AD8A3
:102CE0005AD05ECE428B66CAB684BE8C56D26AC8B3
:102CF0006EC6BA8B4689EF00902F03C5B1801306CC
:102D0000902793050A7E33B5A900EF00502E930655
:102D1000FBFF1386FCFFCE962296C2064206C182B6
:102D20004182CE852285EFF0AF8563060B04C16931
:102D3000814A014AFD1933D46A03638A0C02814D2A
:102D4000014D3384840262946306090433D79D03E2
:102D5000CE85054522978347070063F42701814507
:102D60000545050DEFE0DF81A69DE3119DFF050AF6
:102D7000DE9AE3126AFDF2506254D2544259B259BB
:102D8000225A925A025BF24B624CD24C424DB24DE7
:102D900021618280B3D79D03050D0545A69DA297AD
:102DA00003C707009355370009839397B5001607AB
:102DB0005D8FD98DEFE0CFFCE31E9DFD4DBF797196
:102DC00052CC56CA5AC85EC6930AF5FF930BE5FF6C
:102DD000130A1500130B2500C20BC20A420A420B4C
:102DE00026D24AD04ECE06D622D462C466C26AC06B
:102DF0002A89AE89B284814793DB0B0193DA0A01F9
:102E0000135A0A01135B0B010DA08D47638DF40863
:102E10009547638BF4140504420441809317040121
:102E200013077008C1876302E4061394070105477E
:102E30004180E39CE4FC03C5A180375C010093055D
:102E40000C7E3335A9001306F012EF00501A03C5AB
:102E5000B18093050C7E130600133335A400EF00F8
:102E60001019A286A2854A864A85EFE07FF1050403
:102E7000CE8505454204EFE0AFF041809317040191
:102E800013077008C187E312E4FAB2502254925437
:102E90000259F249624AD24A424BB24B224C924CFE
:102EA000024D45618280138DA18003450D00375C82
:102EB000010093050C7E33B5AA001306F012EF0053
:102EC0001013938CB18003C50C0093050C7E130680
:102ED00000133335A400EF009011A2865686A28518
:102EE0005685EFE0FFE9CE850545EFE06FE9034544
:102EF0000D0093050C7E1306F0123335A900EF0088
:102F0000100F03C50C0093050C7E13060013333518
:102F1000A400EF00D00DA2864A86A2854A85EFE084
:102F20003FE6CE850545EFE0AFE503450D0093058F
:102F30000C7E1306F0123335AA00EF00500B03C5C8
:102F40000C0093050C7E130600133335A400EF002C
:102F5000100AA2855285A2865286EFE07FE2CE85D6
:102F60000545EFE0EFE145BD138DA18003450D0060
:102F7000375C010093050C7E33B5AB001306F012ED
:102F8000EF00F006938CB18003C50C0093050C7E16
:102F9000130600133335A400EF007005A2865E8689
:102FA000A2855E85EFE0DFDDCE850545EFE04FDDF4
:102FB00003450D0093050C7E1306F01233B5AA00ED
:102FC000EF00F00203C50C0093050C7E13060013FE
:102FD0003335A400EF00B001A2865686A28556853F
:102FE000EFE01FDACE850545EFE08FD903450D00F0
:102FF00093050C7E1306F0123335A900EF00207FF5
:1030000003C50C0093050C7E130600133335A40092
:10301000EF00E07DA2864A86A2854A85EFE05FD672
:10302000CE850545EFE0CFD503450D0093050C7E19
:103030001306F0123335AA00EF00607B03C50C00C5
:1030400093050C7E130600133335A400EF00207A9D
:10305000A2865286A2855285EFE09FD2CE85054595
:10306000EFE00FD203450D0093050C7E1306F0121E
:103070003335AB00EF00A07703C50C0093050C7E41
:10308000130600133335A400EF006076A2855A853D
:10309000A2865A86EFE0DFCECE850545EFE04FCE23
:1030A0009DBB03C3A180397152D4375A010022DC81
:1030B0004ED666CAAE892A8493050A7E33356500EA
:1030C000B28C1306403606DE26DA4AD85AD05ECED7
:1030D000428B6AC8B6843E8D56D262CC6EC6BA8B1D
:1030E0004689312703C5B1801306503693050A7E01
:1030F00033B5A900ED2D9306FBFF1306FDFFCE9619
:103100002296C2064206C1824182CE852285EFE028
:103110003FC7630A0B04C169814A014AFD1933D4D0
:103120006A03630E0D029307801C014C814D33042A
:10313000F4026694630809043357AC03CE85054551
:103140000A07229718430347070063742701814544
:103150000545850DEFE0CFC2269CE39FADFD050A36
:10316000DE9AE31E6AFBF2506254D2544259B259BD
:10317000225A925A025BF24B624CD24C424DB24DF3
:1031800021618280B357AC03850D0545269C8A07D3
:10319000A2979C4303C70700935537000983939771
:1031A000B50016075D8FD98DEFE08FBDE39CADFDB7
:1031B0007DB7397122DC26DA4ED656D25AD0930723
:1031C0000008B70900207D7B89644AD852D45ECEBE
:1031D00062CC06DE2315F1009389C900014A1384ED
:1031E0004190130B5B1A930B0008938404F4938AA9
:1031F0000190254C83D7090011466C001397870076
:10320000A183D98F11452317F10023166101EFE047
:10321000CFF6231571018347040093F7F70F91CF81
:103220000DA803A5C191814533559502EFD0CFA3D9
:103230008347040093F7F70F89EF8357A1001387A3
:10324000F7FF42074187C207C1872315E100E34A20
:10325000F0FC8357A100C207C1876355F00283C702
:103260001A0003C72A00050AA207D98F420A239130
:10327000F90023000400135A0A019109E31C8AF79C
:10328000014521A0E31D0AFC0545F2506254D254C9
:103290004259B259225A925A025BF24B624C216156
:1032A0008280411122C4138431908345040026C2D8
:1032B00093840190A695114506C6EFE02FF483474D
:1032C000040011C5850793F7F70F2300F4000547A5
:1032D000638EE7008D466396D700230004002382A7
:1032E000E190B240224492444101828003C704002D
:1032F0009307500AE307F7FE23000400B24022447C
:1033000092444101828083A6818FB707055094C7FC
:103310008546238ED18E03C70700136717002380CD
:10332000E700828039710D4506DE22DC4ED626DAB2
:103330004AD852D456D2896941241306000593060F
:103340001005938509581145EFE0AFED854511450E
:10335000EFE0AFE50145EF005052138441902300A8
:103360000400EFF01FE51306E0146312051A2300B2
:10337000040093070008B7040020231DF100938484
:10338000040323000400938A8402130A50FA9389E9
:1033900009F483D7240083D604006C0813978700B0
:1033A000A183D98F11451146230E4101A30ED100EF
:1033B000231FF100EFE06FDC03A5C191910481456B
:1033C000335535030605EFD02F8AE3949AFC8347E3
:1033D000040093F7F70FA9EB8357A1011387F7FFB9
:1033E00042074187C207C187231DE100635EF002E7
:1033F0008964938404F429A88357A1011387F7FFF4
:1034000042074187C207C187231DE100635EF000C8
:1034100003A5C191814533559502EFD0EF848347D1
:10342000040093F7F70FE9DB9384019003C71400BE
:1034300083C7240093060008231DD100F98F2300C1
:1034400004001307F00F638EE7048357A10113876D
:10345000F7FF42074187C207C187231DE10063527E
:10346000F0048969938909F4130AF00F29A8835796
:10347000A1011387F7FF42074187C207C187231DB8
:10348000E1006350F00203A5C19181453355350336
:10349000EFC09FFD83C7140003C72400F98FE39892
:1034A00047FD8357A101C207C1876350F00623007F
:1034B0000400EFF01FD02A8425EDEF00903C9147E7
:1034C0003EC495473EC299473EC0930690041306FA
:1034D0008004A945254593089002130880029307AC
:1034E00060021307B004EFC0DFFA37050020196649
:1034F000130745688546130606828145130545680E
:1035000023ACE18EEFD0AF8511A813065015B76537
:1035100001009385C5850145D92C05442285F250CB
:103520006254D2544259B259225A925A216182802D
:103530001306D015E9BF411122C41384C1908345FD
:10354000040026C293848190A695114506C6EFE03B
:10355000EFCA8347040011C5850793F7F70F2300CF
:10356000F4000547638EE7008D466396D70023007D
:103570000400A385E190B24022449244410182803C
:1035800003C704009307500AE307F7FE2300040073
:10359000B240224492444101828083A6818FB707C2
:1035A000055094C78546A382D19003C707001367CF
:1035B00017002380E700828023A8A1908280411118
:1035C00022C493858191154506C6EFE02FC39385EC
:1035D00081912244B240376500200546130545EA33
:1035E000410151A423AEA190B71702409843B706FA
:1035F000FFF841111367170098C3D84337180240EA
:10360000B7050200758FD8C39843B706F7FEFD16BD
:10361000758F98C39843B706FCFFFD16758F98C346
:10362000D843B70681FFFD16758FD8C337079F00B3
:1036300098C702C402C69843C16613060050558F4E
:1036400098C321A0A247638BC70083270800ED8F92
:103650003EC6A24785073EC4B247EDD7B717024022
:103660009C431397E7006359070085473EC63247DE
:1036700085476308F70001A002C632478547E31C6F
:10368000F7FE37366E011307F5FF13060660335752
:10369000C702B72602408C42B717024093E50501E6
:1036A0008CC203A80600B7157A009385052013780D
:1036B000C8FF23A0060103A806001D8B336707017E
:1036C00098C2D843D8C3D843D8C3D843D8C363011A
:1036D000B50AD843B706C1FFFD16758FD8C3374763
:1036E0009508130707406302E504371727071307F8
:1036F00007E06300E50A37E7B805130707806306AC
:10370000E50A37A74A0413070720630AE508377755
:10371000DC02130707C06300E50A631CC500D84339
:10372000B7060500558FD8C329A0D843C166558F69
:10373000D8C3B7160240984237060001B7170240B7
:10374000518F98C2984393166700E3DD06FED0437D
:10375000B71602402147719AD0C3D04313662600A2
:10376000D0C3DC42B18BE39EE7FE41016F009010B5
:10377000D043B71602401147719AD0C3D0431366A5
:103780001600D0C3DC42B18BE39EE7FE41016F001F
:10379000700ED843B7063900558FD8C359BFD843E8
:1037A000B7061D00558FD8C369B7D843B70629009F
:1037B000558FD8C3BDBFD843B7061100558FD8C3A6
:1037C0008DBFF1654111930610061306000693851F
:1037D0000520154506C6EFE0CFA485451545EFE069
:1037E000CF9CB24005472380E1924101828019E9D4
:1037F00083C70192411106C699E7EF0090080100C6
:103800000100F5BF8280376501001305458DEFF09B
:103810006076EF001007E5B701114EC606CE22CC48
:1038200026CA4AC8B2896358C002D56703A4C77CB8
:10383000AE843389C500930500042285EF90E04EE5
:103840007DD985048385F4FF2285C205C181EF906F
:10385000204DE39224FFF24062444E85D244424917
:10386000B249056182805C45637AF60A011126CA75
:10387000AA8422CC4AC84EC652C456C206CE2E8A4C
:103880003289EF00100083AA0401C0408840B38948
:103890008A4063F629074E86D2852295EFE03043B1
:1038A000D84094484E97D8C06366D700158FE37F01
:1038B000D7FED8C088404A94330454413A952286B2
:1038C000B3053A01EFE0B040DC409848A297DCC075
:1038D00063E6E700998FE3FFE7FEDCC0D0440145D3
:1038E0003309264123A62401492FF2406244D244E1
:1038F0004249B249224A924A0145056182804A867C
:10390000D2852295EFE0B03CDC409848CA97DCC0F5
:10391000E3E6E7FC998FE3FFE7FEC1B70945828044
:1039200001114AC85C45032905014EC6B2891042FF
:1039300022CC26CA5AC006CE52C456C2B307F9409A
:103940002A842E87368B814463F8C70023A0F900B0
:10395000032905013E868544032A8400B30A4941B0
:1039600063E7CA0211C70C403A85D295EFE03036C2
:1039700063010B04F2406244330590404249D24453
:10398000B249224A924A024B0D89056182806DD369
:103990000C4056863A85D295EFE0703303A60900B5
:1039A0000C405695529633062641EFE05032E31311
:1039B0000BFCC12D83A7090014441848B6971CC4FA
:1039C00063E6E700998FE3FFE7FE1CC45C4403A7AE
:1039D00009000145BA975CC44D2569BF01112AC68B
:1039E000B247116713070765B387E7023ECEF24778
:1039F0001387F7FF3ACEE5FF0561828035713AC93A
:103A000086DEA2DCA6DACAD8CED6D2D4D6D2DAD016
:103A1000DECEE2CCE6CAEAC8EEC632C536C73ECB39
:103A200042CD46CF8387050038013ACCB5C337670E
:103A30000100130DC101D964054AAE8A2A84032905
:103A400087038329C703814C930D5002938444EE6E
:103A5000330AAA4119A862872300F400568C050492
:103A6000850CBA8A83071C008DC7138C1A00E39457
:103A7000B7FF83871A0013073005890A9387B7FDBC
:103A800093F7F70FE360F7FE8A07A6979C438287B8
:103A9000814CF65066546685D6544659B659265A16
:103AA000965A065BF64B664CD64C464DB64D0D61AC
:103AB0008280E247984391073ECC83070700DDD31D
:103AC000B3868C402300F400050783070700050434
:103AD000B30CD400E5FB79B76247EA8625481C435E
:103AE00011073ACC3D4519A08506BA8713F7F700B0
:103AF0009375F70F138605036374E8001386750347
:103B00002380C60013D74700E360F5FE03083102A7
:103B10008348C101830521020345D10183061102B7
:103B20000346E101830701020347F1012300040179
:103B3000A300B4002301D400A301F4002302E40095
:103B4000A302C4002303A400A3031401A3011103CF
:103B5000230E01012301A102A30EB100A300C102A3
:103B6000230FD1002300E102A30FF1002104A10CD7
:103B7000D5BDE2471D46984391073ECC9377770029
:103B800093870703230EF10093563700637EE642C6
:103B90006A879D4511A0B286050713F676001306C5
:103BA0000603B307A74185072300C70093F7F70F64
:103BB00013D63600E3E1D5FE93D517003E8B95C1B1
:103BC0001387F7FF6A97EA87EA950386070083065B
:103BD000070085072300C700A38FD7FE7D17E39654
:103BE000F5FE22855A86EA85EFE0700E5A94DA9C3B
:103BF00095BD6247A9460328070011073ACC135721
:103C0000F841B3470701998F33E7D702B3C7D7020B
:103C100013070703230EE100638A073C85456A8684
:103C2000294511A0BA85B3E6A7020506138715003A
:103C30001377F70FB3C7A702938606032300D600B6
:103C4000F5F3634908283A8B93551700D9D9130720
:103C5000FBFF6A97EA87EA95038607008306070059
:103C600085072300C700A38FD7FE7D17E396F5FED7
:103C700022855A86EA85EFE090055A94DA9CDDB3F6
:103C8000E2470504850C984391073ECCA30FE4FE60
:103C9000D1BBE2466A8725489C42910636CC3D4519
:103CA00019A00507B68793F6F70013F6F60F9305EC
:103CB00006036374D8009305760333064701230097
:103CC000B70093D64700137BF60FE36CF5FC9355D2
:103CD0001B0081D91307FBFF6A97EA87EA950386E1
:103CE00007008306070085072300C700A38FD7FEC0
:103CF0007D17E396F5FE22855A86EA85EFE0207D62
:103D00005A94DA9C85B3E2479D07E19B03AB070019
:103D100083AB4700A1075A85DE853ECCEFD0604BD0
:103D20001357F541B347A700998FA94633E7D70248
:103D30002A88B3C7D70213070703230EE100638164
:103D4000072C85486A86A94511A0BA88B3E6B70250
:103D50000506138718001377F70FB3C7B7029386CA
:103D600006032300D600F5F3014681465A85DE8519
:103D700046C63AC442C2EFC0007B12482247B2484E
:103D800063460516BA889355170095C11387F8FF47
:103D90006A97EA87EA950386070083060700850786
:103DA0002300C700A38FD7FE7D17E396F5FE468656
:103DB000EA85228546C242C4EFE06071224842850E
:103DC000EFD0A0472A86AE865A85DE85EFC0904C9C
:103DD0004A86CE86EFC090009248014681462A8BE3
:103DE000AE8B4694C69CEFC08062631D0510B7374A
:103DF0003030938707033ECE8D67938707032310E8
:103E0000F1029307E0022301F10299450D451D4B94
:103E1000EA95AE876A870306070083860700FD17C9
:103E20000507A380C700A30FD7FEB386F540E3E4E0
:103E3000A6FE5A86EA852285EFE06069DA9C1DB10C
:103E4000E24729472546944391073ECCB3F7E60263
:103E500093870703230EF10033D7E6026376D61665
:103E6000EA86A945254511A032873376B702850633
:103E7000B387A641850793F7F70F13060603238040
:103E8000C6003356B702E361E5FE93D517003E8BBB
:103E9000E38905D41387F7FF6A97EA87EA950386D3
:103EA00007008306070085072300C700A38FD7FEFE
:103EB0007D17E396F5FE22855A86EA85EFE02061BC
:103EC0005A94DA9C45B6930750022300F400850CFF
:103ED000050449BE89059C003E9713FBF50F930727
:103EE000D00293551B00230EF7FC8DB39C0089086C
:103EF0003E9793F8F80F9307D00293D51800230E3E
:103F0000F7FC61B55A85DE85EFD0A02C1357F5413B
:103F1000B347A700998FA94633E7D702B3C7D702A3
:103F200013070703230EE100638E070E8546EA851B
:103F3000294511A0BA8633E6A70285051387160026
:103F40001377F70FB3C7A702130606032380C50034
:103F5000F5F3954763ECE7069C003E979305000355
:103F600093872600230EB7FC93F7F70F1946E38AD1
:103F7000C7E898003E9793873600230EB7FC93F767
:103F8000F70FE380C7E894001306000313871700B8
:103F9000BE96238EC6FC1377F70F9945E303B7E669
:103FA0009400369793862700230EC7FC13F7F60F6D
:103FB000E309B7E494003697230EC7FC0947E39260
:103FC000E7E4A300C10235BD054B21B99C00890679
:103FD0003E9713FBF60F9307E002230EF7FC1355F1
:103FE0001B00E30805E49305FBFF1DB5054BE35AF1
:103FF00008BE9307D002A30EF1008545094B81B995
:104000002AC2014681465A85DE85EFC0C05112485A
:104010008548E35E05D89307D002A30EF1008545DD
:104020008948ADB393070003A30EF100230FF100FD
:104030008D4791BF93575500054793870704331564
:10404000A7008A0737E700E0BA9788C382809357B2
:1040500055000547938707063315A7008A0737E7FA
:1040600000E0BA9788C38280B7E700E03E9523005E
:10407000B540828005456F80603711C182806FC076
:104080008F98411106C6EFC0AF97B24041016F90C3
:10409000204EB76500209968938585EF930E400503
:1040A00011689388383613086864239515012386B0
:1040B000D501238CD501B7750020376700202398E0
:1040C00005B9130707F7B76201002392019393051F
:1040D00000002322B70E83A5020613066004130E08
:1040E00020050543B76F01002310C7002300C70F49
:1040F00023220700231F670C232CB70C03A74F06AE
:10410000B7670020938787EB37650020130545F1DB
:104110002380C7002386C70323A207002396070036
:104120002397670298D7A947376F01005CC1B7771B
:104130000020238AC7B483278F06B76600209386A2
:1041400046F52300C500A380C60023A206009CCE2E
:1041500082807171B7660020138686EF26D36AC10C
:1041600006D722D54AD14ECF52CD56CB5AC95EC7BB
:1041700062C566C3EEDE9306F00F2314D60099667F
:1041800093866634B76400202316D60093874406CE
:1041900083C6419803ADC1820397471F130E1007D2
:1041A000B2D42320060023220600A3050600B6D6BB
:1041B000330EAE418349E600034AF6006348A7394F
:1041C0006346EE38130700002384073E23A6E74426
:1041D00081420397C75D6349A7356347EE3485661F
:1041E000BE96130700002388077C23AAE68202C636
:1041F0000396C75D8395471F3D483307B640137745
:10420000F70F13158701930837FD61851307B7FD75
:104210002382A69C238416A31377F70F6363E83CDD
:10422000130740052386E6A8054782C0BAC202CC20
:1042300075476353A73A13076004014F3AC8B7663E
:10424000010083AC4604B766010003A8860483A876
:10425000C604B766010042D046D203A8060583A86B
:104260004605B76601003767010042D446D603A869
:10427000860583A8C605376900200327070493062F
:104280009003130540051309494B37740020FD7B4B
:1042900042D846DA2392D4062382A7382386A7760B
:1042A00023880718239EB72A2392C76A2394D70C22
:1042B0007ADE7ADC938444066A8F130494A2854ADA
:1042C00002CE02CA1308400693076004930E40050D
:1042D0009308400513036004BD4F938BCB7C4A8C3D
:1042E0004E8D8396641F63CCE629634ADE28230043
:1042F000D49D894663FB56318346F49B638816350B
:10430000230204A32320EC00039BE45D634FEB2511
:10431000634D6E252304D4DB894663FF562D034984
:1043200074DA6305193913094005B766010083A6DD
:104330000604230604E12324DC3E839D641FB306A8
:10434000BB4193F6F60F13968601938536FD618681
:104350009386B6FD2300C4002302B40693F6F60F3D
:1043600063E1DF26E2462304D40D9305F00F638555
:10437000B62AF54663CAC622C246638E661663072E
:104380001919630C69148393240085466384DA0841
:104390000395040096D2F2D0FACEF6CCBECABAC8C3
:1043A000C2C69EC4EFC0706902569256EFC0002389
:1043B000A6432A89AE891E85EFC030682256B256C0
:1043C000EFC0C0212A86AE864A85CE85EFB0E035A3
:1043D0002A890395E4FFAE89EFC030664256D25673
:1043E000EFC0C01F2A86AE864A85CE85EFB0E03387
:1043F000EFC0305E9652065E764FE64ED647464791
:1044000036489313050193D30341130360049308C3
:104410004005BD4F130610079E86635F7616930610
:1044200010072391D40093069003918E9375F60F95
:1044300063DE0614938675FC93F6F60FB3057401DC
:104440002380D500239FB42B2393646B2395C40C46
:10445000850A930640068904110C0504E393DAE803
:1044600023955193625F63850200A6572387A701B6
:10447000B24781C7A657A3874701964789C7A65762
:1044800062472384E700864789C7A6575247A3841B
:10449000E70063060F00A65742472386E700F2575E
:1044A00063860726A6577247A385E700A6573657A7
:1044B0000545A386E70072472385E700BA502A54D2
:1044C0009A540A59FA496A4ADA4A4A4BBA4B2A4C70
:1044D0009A4C0A4DF65D4D6182808346049C638050
:1044E0006616E39216EB93836D01C20393D30341E7
:1044F0002391740059BD93F6FA0F36CE854636DE09
:1045000036DC9306400536C8E31D19E78346049C54
:10451000638A1611E39966E69303ABFEC20393D355
:1045200003412391740095B5376701000327070401
:104530008566BE96050A1306400623AAE68205474D
:10454000137AFA0F2388C77C3AC65DB1376701003A
:104550000327070485099306400693F9F90F23847E
:10456000D73E23A6E7448542ADB1050A8546137AB6
:10457000FA0F2304F4DA1309600436C67DB3050D7F
:10458000137DFD0F2300F49C85429DBB9306900391
:104590008D8E93F6F60F5DB5139606014186E352B4
:1045A00006E881460146B5BD93063006E399DADC9C
:1045B000C246E39666DC854636DE9306300636CE86
:1045C0007DBBD2462304F40CE39506DA93F6FA0F8A
:1045D00036CA8546B6C071BB13074005054F3AC8B9
:1045E000B9B9130760042386E6A80547BAC01307C4
:1045F000F00F82C23ACC2DB9230604E093060000E6
:104600002324DC3E130940050DBB230204A29306BC
:1046100000002320DC00CDB993F6FA0F36CC854696
:10462000B6C281BBB3866D0193D3F601B69393D323
:104630001340C20393D3034123917400B9B393068B
:1046400090032391D4009303900381B38346E49BAA
:10465000E39816CB8396641F0399041F96D0368582
:10466000B38626412302D4A2F2CEFACCF6CABEC843
:10467000BAC6C2C4EFD0B023AA894A85EFD030238E
:10468000AA854E85EFD0A05EE685EFC0D0782320C6
:10469000AC00BD4F26483647C647D64E9308400566
:1046A00013036004664F764E8652B9B9834664DAC6
:1046B000E39D16C70395845D96D0F2CEB30665419F
:1046C0002306D4E0FACCF6CABAC6C2C4BEC8EFD03C
:1046D000101EAA895A85EFD0901DAA854E85EFD06D
:1046E0000059B767010083A54704EFC0D0722324A7
:1046F000AC3EBD4F26483647C647D64E93084005C8
:1047000013036004664F764E865205B9A65783C7D9
:10471000B7003ECE61BBB76700201167938747F5AE
:1047200013071760B76601002390E70003A786060A
:1047300023A2070098CF8280B77700209387C7B95C
:10474000130760042384E70013070000D8C398C34D
:104750000947D8C70D4798CB116713076764239A99
:10476000E700130760F9238BE700054582804111BC
:1047700006C6EF50A07FEF50D005EF50E03DEFF0C0
:104780005F9DEF606040B24041016F60402783C78A
:10479000C199014599E303952181B777002093875B
:1047A000C7B91307500F2398A180944B2396E1803B
:1047B0002397E1800D476383E600828003C787006B
:1047C00093076004E31BF7FE011106CE22CC26CA34
:1047D0004AC84EC652C456C2EFC030262A8403953A
:1047E00001A0AE84376A0100EFD0700CEFD07025C5
:1047F000B767010003A6870F83A6C70FEFB0105E4F
:10480000B767010003A6071083A64710EFB0E06466
:10481000EF90B02DB767010003A6871083A6C710DD
:10482000EFB0D05BB767010003A6071183A647115D
:10483000EFB0A0622A89AE8903258A118325CA11A7
:104840004A86CE86EFC000252286A686EFB0105994
:10485000EFC0301803268A118326CA112398A1922B
:10486000CE854A85EFA0706C2286A686EFB01057E1
:10487000EFC03016F24062442399A192D2444249DB
:10488000B249224A924A05618280411106C622C479
:1048900026C2EF90002CB77700209387C7B9984BBA
:1048A0000DCB83C78700930660046389D702130783
:1048B00040056385E70A039761930395819322443A
:1048C0002392E1A0B24092442393A1A041016F90B2
:1048D0008069B24022449244410182809377D7FF9D
:1048E0008546638CD70091476309F700239B0192AB
:1048F000239C019201450147D9B7B787012003A541
:10490000074BB7040020EFD0006F03960193931676
:104910000501B7850120C1869385453F138584191C
:10492000EF60106BB7870120138461932310A400FC
:1049300003A5074CEFD0206C039621939316050135
:10494000B7850120C1869385C54113858419EF6021
:104950003068239CA1920317040095B7B787012004
:1049600003A5074B13846193EFD0E068931605010C
:10497000B785012037050020C18601469385453F54
:1049800013058512EF60D064B78701202310A400BF
:1049900003A5074CEFD0206693160501B7850120CB
:1049A00037050020C18601469385C5411305C5130F
:1049B000EF60106203170400239CA19209B7411114
:1049C00026C29384A19383D7040022C437740020A5
:1049D000376701001304C4B908408325071285070F
:1049E0002390F40006C6EFC0700C08C0EF80D05DC5
:1049F0001C480947FD176368F70083468400930746
:104A000060046382F6062397019201452390A1A0DA
:104A1000EF90607403970400A947B367F7029DC73E
:104A20009307703E63C7E700B240224492444101BD
:104A3000828013052008EFB05FDFB240224423904C
:104A40000400239601929244410182808397218140
:104A50002398F1922399F192EFF07FD3EFF0FFE2E8
:104A60000397040075BF5C446388E7000547E39C37
:104A7000E7F80395E19259BF83960194B785012029
:104A80003705002001469385053A13050515EF60AB
:104A9000F0652397A1929DBF828039715AD003A7F8
:104AA000C19D06DE22DC26DA4AD84ED652D456D232
:104AB0005ECE62CC66CA6AC86EC685476309F712C5
:104AC00037740020D96C596CD96B1304C4B99304A2
:104AD0004005B76A0100376D0100B76D0100A1A85C
:104AE00013864A0A814513050008EFD01FB71C48FA
:104AF0000D47638FE70805476387E7120947638E11
:104B0000E7126388071083475401638E9708138662
:104B10004A0A894513050008EFD03FB483A7419E98
:104B20000547638EE7082945EFE05FEB03A7C19DCA
:104B30008547630EF70A894513854193EF00100FEF
:104B4000930700801386CC06814541452394F1806C
:104B5000EFD0BFB013060C0885454145EFD0FFAF3D
:104B600013860B0989454145EFD03FAF8347440188
:104B70007D472394E180E39597F613060D0A81455E
:104B800013050008EFD07FAD1C480D47E395E7F60D
:104B900013868D0A854513050008EFD01FAC8347A7
:104BA0005401E39697F613060D0A8945130500088C
:104BB000EFD0BFAA83A7419E0547E396E7F603C758
:104BC000419323A2019E630BF70851C38947E31C5D
:104BD000F7F40946930500081305540109292945EE
:104BE000EFE0DFDF03A7C19D8547E316F7F4F2503E
:104BF000625423AE019CD2544259B259225A925A5D
:104C0000025BF24B624CD24C424DB24D05452161E4
:104C10008280B76701001386870C8545130500085D
:104C2000EFD0BFA3CDB5B76701001386070B85454D
:104C300013050008EFD07FA2F9B5B767010013860E
:104C4000C70B854513050008EFD03FA16DBD014698
:104C50009305000813054401592EF1B5D96705479E
:104C60009306000811469385070D13050401852D51
:104C70005DBD397122DC4AD85AD006DE26DA4ED61E
:104C800052D456D25ECE62CC66CA6AC86EC61307CC
:104C900030062E842A8B3289930730066363B7006F
:104CA000AE87930530069D8DC20593071007C1811D
:104CB0005A8563F4670113051007930DFBFF130C6E
:104CC000ABFF931B1B0042054A864181C20D420C7B
:104CD000C20BB30C6441EFD09F8493DD0D01135CD4
:104CE0000C0193DB0B01229B930A1007130A300679
:104CF0009309300633849D01931704014A86C183CA
:104D00006E8D63F4BA01130D1007420D135D0D0192
:104D10006A856374FA0013043006338489404204C0
:104D20004180A285EFD0AFFFB384BB4193970401CC
:104D3000C1834A86A28563F4FA0093041007C20473
:104D4000C1802685EFD0AFFD3304BB41931704012A
:104D5000C1834A866A856374FA001304300633847B
:104D6000894042044180A285FD1DEFD04FFBC20D5A
:104D70004A86A285268593DD0D01EFD04FFAE31B0D
:104D8000BCF7F2506254D2544259B259225A925A44
:104D9000025BF24B624CD24C424DB24D216182809B
:104DA00083A6819D411126C206C622C44AC005477A
:104DB000AA8403440500638EE60C83A6019F054781
:104DC0006384E60A03A9C19E85476305F90483A6A7
:104DD000019E6381F606FD47238084002394F180C1
:104DE000931504019D47C18163F88706E115376675
:104DF0000100C20513068639C1810145EFD0FF8548
:104E0000B2402244930700802394F18092440249E7
:104E1000410182804165011523A6019EEFD0EFEB91
:104E20001D469D451305000DEFD03F8A83A7019EC7
:104E3000639B27094165011523A0019EEFD0EFE98F
:104E40009D4501461305000DEFD03F8823800400E7
:104E5000FD472394F18081453766010013068639AA
:104E60000145EFD08FFF69BF23A8019E31C87D1493
:104E70001374F40F13198401135989414165011505
:104E8000EFD0AFE54A869D451305000DEFD0FF83B7
:104E900015BF23AC019C9D476306F40405041374FD
:104EA000F40F131984011359894141650115EFD09D
:104EB000CFE24A869D451305000DEFD01F81F5BD59
:104EC0001D491D4465BF9D47376601002380F400DE
:104ED000FD479D451306863901452394F180EFD0A7
:104EE000CFF739BF01490144C9B75D716AD003A743
:104EF000419EA2C4A6C2031405002AC61305F08170
:104F000086C6CAC04EDE52DC56DA5AD85ED662D4A5
:104F100066D26ECE85472394A1806303F706939BE8
:104F2000060193DB0B01139C2B005E9C060CB30C5B
:104F30008041C20C420C2E89B289135C0C0193DCB7
:104F40000C01854403A6019ECE854A8583A6C19E99
:104F500003A7019F83A7819D63039606638B960435
:104F6000631797005E944204418423A8019E228621
:104F7000638F9704EFD03F8C83A7419EE39497FC07
:104F8000930700802394F180B24723A2019EB6408C
:104F900023908700264496440649F259625AD25A11
:104FA000425BB25B225C925C025DF24D0545616141
:104FB000828066944204418423A6019E55B7629480
:104FC000420423A0019E4184E39C96F8DDB733049C
:104FD0007441420441842286CE854A8523AC019CDB
:104FE000EFD07F8583A7419EE39E97F451BF5D710B
:104FF0006AD086C6A2C4A6C2CAC04EDE52DC56DA49
:105000005AD85ED662D466D26ECE03A7419E834C38
:1050100005002AC69306F08185472394D180630753
:10502000F7082E8AB28A0544376C0100130B40053D
:10503000B76B010003A6019E83A7C19E03A7019F32
:1050400083A6819D6306860C638B8708630E870E9B
:105050006393861023AC019C638E6C0313060C0AC9
:10506000D6855285EFD06FDF83A7419E638F870877
:1050700003A6019E83A7C19E03A7019F83A6819DCE
:10508000630B860A638C870863018706E39886FCB6
:1050900023AC019C930C600413864B0AD685528581
:1050A000EFD0AFDB83A7419EE39687F8930700809C
:1050B0002394F180B24723A2019E054523809701E6
:1050C000B640264496440649F259625AD25A425B87
:1050D000B25B225C925C025DF24D6161828023A62C
:1050E000019E638F6C036311870423A8019EE393E1
:1050F00086FA13060C0AD685528523AC019CEFD0A4
:10510000CFD583A7419EE39587F6930C400579BFE1
:1051100023A0019E63836C03E39787FC23A6019E73
:10512000E31787FC23A8019EE39A86F223AC019C37
:10513000930C600495B723A0019EE39387FE23A6FA
:10514000019EE31387FE55B723A8019EE3816CFB04
:10515000E39686F0E1BFE3916CF509B75D716AD023
:1051600066D286C6A2C4A6C2CAC04EDE52DC56DAD9
:105170005AD85ED662D46ECE03A7419E834D0500F9
:105180002AC61305F08185472394A180630AF70A94
:105190002E8AB28A0544930BC004376B01001DA010
:1051A0006385850E6388870E6303871063807D05A2
:1051B00013064B72D6855285EFD02FCA83A7419E26
:1051C0006380870803A6019E83A5C19E83A7019FD4
:1051D00003A7819DE31686FC23A0019E63827D0FB9
:1051E000638E850263878708630E870AB7670100AD
:1051F0001386C771D6855285EFD02FC683A7419EEF
:10520000638C870C03A6019E83A6C19E83A7019F82
:1052100003A7819D630B860AE39686FC23A6019E65
:10522000638987046300870813064B72D68552850D
:10523000EFD0AFC283A7419E930D2005E39487F87A
:10524000930700802394F180B24723A2019E054575
:105250002380B701B640264496440649F259625A63
:10526000D25A425BB25B225C925C025DF24D61619C
:10527000828023A8019E63058700930D40050DBF22
:1052800023AC019C930D600425B723A6019EE39BEC
:105290007DF579B723A8019E93074005E39DFDFCAA
:1052A000E31287FE23AC019C930D400511B723AC9C
:1052B000019C93074005E387FDFC930D4005CDBDA0
:1052C000E39085F623A6019E31BF23A0019EE399BA
:1052D00086F423A6019E39B7930DC00495B73971A2
:1052E00062CC5AD05ECE06DE22DC26DA4AD84ED612
:1052F00052D456D266CA6AC803A8419E83440500A8
:105300002A8B1305F08185472394A1806308F80C4C
:105310002E84B289368ABA8A854C03A7019F83A757
:10532000819D25436303970F63979701FD1423AC79
:10533000019C93F4F40F93972400A697860763FCCF
:10534000340D938817001388270013853700938541
:105350004700138657009386670013877700138EE4
:10536000870013839700A29722982295A2952296F0
:10537000A2962297229E2293A29883CE0700034FE3
:105380000800834F050083C205008343060003C85D
:105390000600834703008346070083C808000347CD
:1053A0000E005000D6855285A306F1002302D101DC
:1053B000A30211012303E101A303F101230451001E
:1053C000A304710023050101A305D1002306E10018
:1053D000EFD0AFA883A7419EE39197F59307008094
:1053E00023A2019E2394F18023009B00F25062547B
:1053F000D2544259B259225A925A025BF24B624C31
:10540000D24C424D054521618280850423A8019E2E
:1054100093F4F40F11BF214E1D479946154691454F
:105420000D45094885488147814435BF83A6819D44
:10543000011126CA4AC806CE22CC4EC60547AA8408
:105440002E89034405006382E60E83A6019F05476B
:105450006386E60883A6C19E05476388E60A83A69D
:10546000019E05476382E604FD4723808400239460
:10547000F180931504019D47C18163F98704E1150B
:1054800037660100C20513068639C1810145EFD098
:10549000CF9CF2406244930700802394F180D24471
:1054A0004249B249056182804165011523A0019EF0
:1054B000EFD0AF829D4501461305000DEFD0EFA060
:1054C00023800400FD472394F18081453766010065
:1054D000130686390145EFD04F9865BF23A8019E7A
:1054E0003DC87D141374F40F41650115EFC0FFFE34
:1054F0001316840161869D451305000DEFD0EF9CC6
:1055000083A6C19E0547E39CE6F44165011523A6E9
:10551000019EEFC09FFC1316890161869D4513050E
:10552000000DEFD08F9A4A841DBF23AC019C630607
:10553000B40205041374F40F9319840193D98941BB
:1055400041650115EFC07FF94E869D451305000D9D
:10555000EFD0AF97DDBD4A8441BF81490144CDB74B
:10556000411126C2C16422C44AC006C601449384C4
:1055700094E1130920074204418022852686930581
:10558000F0040504EFC0BFF993170401C18313941D
:1055900007014184E39127FFC1640144938494E1AE
:1055A0001309200742044180228526869305B00313
:1055B0000504EFC0DFF693170401C18313940701BC
:1055C0004184E39127FFC1640144938494E113096A
:1055D0002007420441802285268693057002050437
:1055E000EFC0FFF393170401C183139407014184B3
:1055F000E39127FFC1640144938494E113092007D8
:105600004204418022852686CD450504EFC03FF146
:1056100093170401C183139407014184E39227FF88
:10562000C16413043006FD14A2857D1442047D4636
:10563000130530024180EFC09FEEE31794FEC16472
:1056400013043006FD14A2851306007E13058003A3
:10565000EFC0FFECA2851306007E13059003EFC098
:105660001FECA2857D1442041306007E1305A003DF
:105670004180EFC0DFEAE31894FCC16413043006F4
:10568000FD14A2857D1442047D461305F00441807B
:10569000EFC0FFE8E31794FE930400801306300286
:1056A0009D45294523949180EFD00F8F37660100E7
:1056B0007D49130606379D45130510032394218168
:1056C000EFC0BFF91306F0049D4513058005239430
:1056D0009180EFD06F8C37660100130646379545F1
:1056E0001305800723942181EFC03FF7376601003F
:1056F00013068637914513058007EFC01FF63766FE
:1057000001001306C6378D4513058007EFC0FFF46F
:105710003766010013060638894513058007EFC078
:10572000DFF3376601001306463885451305800709
:10573000EFC0BFF2376601001306863881451305B6
:105740008007EFC09FF1B24023949180224492449D
:10575000024941018280797122D44AD056CAC16A75
:105760003769002026D24ECE52CC5AC85EC662C4DB
:1057700006D623950192814793043006130A30061A
:105780001309490693091007138BFA81039781992E
:10579000630AF7220397A1996306F722139707017B
:1057A0004183BE8563F4E400930530069387870F39
:1057B0008607CA9703D54700B305BA40C2057D15D1
:1057C00093170501C183C18163F4F9001305100724
:1057D00042055A864181EFC09FD48397A1921397C7
:1057E00007014183BE8563F4E40093053006938787
:1057F000870F8607CA9703D54700B305BA40C2058D
:10580000C18163F4A900130510075A86EFC03FD188
:105810008397A192139707014183BE8563F4E40047
:10582000930530069387870F8607CA9703D54700ED
:10583000B305BA40C205050593170501C183C181AF
:1058400063F4F9001305100742055A864181EFC041
:105850001FCD8397A192139707014183BE8563F4FF
:10586000E400930530069387872E8607CA9703D5F1
:10587000C700B305BA40C2057D1593170501C18362
:10588000C18163F4F9001305100742057D4641818B
:10589000EFC0FFC88397A192139707014183BE858C
:1058A00063F4E400930530069387872E8607CA9732
:1058B00003D5C700B305BA40C205C18163F4A9008E
:1058C000130510077D46EFC09FC58397A1921397DC
:1058D00007014183BE8563F4E40093053006938796
:1058E000872E8607CA9703D5C700B305BA40C205FD
:1058F000050593170501C183C18163F4F900130500
:10590000100742057D464181EFC07FC18397A19278
:10591000139707014183BE8563F4E40093053006C5
:105920008607CA9703D50700B305BA40C205C181EF
:1059300063F4A9001305100713860A80EFC03FBE69
:105940008397A192139707014183BE8563F4E40016
:10595000930530068607CA9703D50700B305BA40FA
:10596000C2057D1593170501C183C18163F4F90058
:1059700013051007420513860A804181EFC03FBA24
:105980008397A192139707014183BE8563F4E400D6
:10599000930530068607CA9703D50700B305BA40BA
:1059A000C205050593170501C183C18163F4F900A0
:1059B00013051007420513860A804181EFC03FB6E8
:1059C0008397A1928507C207C1872395F192E3DFF0
:1059D000F4DAB250225492540259F249624AD24A3D
:1059E000424BB24B224C4561828079714AD003A769
:1059F000C19D06D622D426D24ECE52CC56CA5AC803
:105A00005EC662C48547630EF70E377C0020B76917
:105A1000010005443DA883A7819D6380870883A773
:105A2000019E638B870883A7C19E1386091D81454C
:105A3000130560096386870AEFC03FC20396019889
:105A4000854513056009EFC01FDF83A7C19D638AE9
:105A5000870AEF40A05193072007814813084006AA
:105A6000130740069306200713068CC481450145A1
:105A7000EFD02FE383A7019FE39F87F883D7019897
:105A80001305400623A8019E85072390F198EFD0C7
:105A9000FFF483A7819DE39487F883D701981305CA
:105AA000400623AC019CFD172390F198EFD01FF323
:105AB00083A7019EE39987F683D7019813054006D3
:105AC00023A0019EA9072390F198EFD03FF183A76F
:105AD000C19E1386091D814513056009E39E87F465
