:100000006FB0B034130000001300000013000000B4
:100010001300000013000000130000001300000094
:100020001300000013000000130000001300000084
:08003000130000007300100032
:1000380000000000000000006AB600006EB6000074
:100048000000000090BA000000000000000000005E
:1000580092BA000094BA00000000000000000000FE
:1000680096BA00000000000098BA000000000000E6
:100078009ABA00009CBA00009EBA0000A0BA00001C
:10008800A2BA0000A4BA0000FEB2000016B3000035
:1000980030B300004AB3000064B30000B0BA0000F7
:1000A800B2BA0000B4BA0000B6BA0000B8BA00008C
:1000B800BABA0000BCBA0000BEBA0000C0BA00005C
:1000C800C2BA0000C4BA0000C6BA00007EB300007D
:1000D800CABA0000C6B40000CEBA0000D0BA000008
:1000E800F4B4000012B5000040B50000D8BA000012
:1000F800DABA0000DCBA0000DEBA0000E0BA00009C
:10010800E2BA000046B1000078B10000BAB10000C0
:10011800FCB30000ECBA0000EEBA0000F0BA000030
:10012800F0B50000F4BA0000F6BA0000F8BA000012
:10013800FABA0000FCBA00006EB5000000BB00006F
:10014800ECB100001EB200009CB50000BEB5000076
:100158000ABB00000CBB00000EBB000010BB000077
:1001680012BB000014BB000016BB000018BB000047
:100178001ABB00001CBB00001EBB0000F6CB000031
:1001880022BB000024BB0000CEB2000044B2000035
:1001980076B20000ACB200002EBB00001EB6000014
:1001A80032BB000034BB000036BB00004CB6000078
:1001B8003ABB00003CBB00003EBB000040BB000057
:1001C80042BB000044BB000046BB000048BB000027
:1001D8000000000000000000000000000000000017
:1001E8000000000000000000000000000000000007
:0801F8000000000000000000FF
:10020000737504308280B76200009382820873A005
:10021000023082803D432A876373C3029377F700DD
:10022000BDEFADE5937606FF3D8ABA960CC34CC38D
:100230000CC74CC74107E36BD7FE11E28280B306BF
:10024000C3408A069702000096966780A60023079F
:10025000B700A306B7002306B700A305B700230520
:10026000B700A304B7002304B700A303B700230318
:10027000B700A302B7002302B700A301B700230110
:10028000B700A300B7002300B700828093F5F50FF5
:1002900093968500D58D93960501D58D61B793967C
:1002A00027009702000096968682E78086FA96805D
:1002B000C1171D8F3E96E374C3F8A5B7B7F700E0EA
:1002C00023A007008146014794C7D8C7054798C3B4
:1002D00037F700E01047544763E6D500E39CB6FECD
:1002E000E37AC5FE828079715EC662C466C2328CD2
:1002F000AE8CB68B014693068004814506D622D487
:1003000026D24AD04ECE52CC56CA5AC8BE8A3A8B52
:10031000428AC6898344010303494103034481039C
:100320003D26668593068004014681450D2662853B
:100330009306800401468145192E5E85930680044C
:100340000146814529265A85930680040146814548
:10035000FD2C56859306800401468145CD2C52859F
:100360009306800401468145DD244E859306800472
:1003700001468145E92C4A85930680040146814562
:10038000F92426859306800401468145C9242285E7
:100390002254B25092540259F249624AD24A424B14
:1003A000B24B224C924C9306800401468145456134
:1003B00079AC011122CC26CA2E84AA848545096510
:1003C00006CE4AC84EC63289B689EFB0507BB70711
:1003D000055003C70700130560058D451377F70C1B
:1003E0002380E70003C70700136727042380E70083
:1003F00003C717001377970FA380E70023923701F5
:100400002393270184C7C0C703C717001377F703D7
:10041000A380E70003C717001377F70FA380E70057
:1004200003C72700136747002381E70003C71700AE
:1004300013671700A380E70003C7070013671700BF
:100440002380E700EF3010056244F240D244424975
:10045000B2491305600505616F309000D567938739
:10046000C7680A053E951C4103D7470203D54702DA
:10047000420541858280D5679387C7680A053E9506
:100480001C41239207028280011122CC2E849145C7
:1004900006CE26CA4AC8AA843289EF00706EB755C4
:1004A00001001306D0079385854AEF201077268533
:1004B000EF00F06E93068004014681451375F40F3A
:1004C000792281459306800401461375F90F412274
:1004D0009355840085476388F504C5476381F50C0F
:1004E000930710026385F50C93072002638AF508D1
:1004F00093071003638CF50C930710076381F50CC9
:10050000930710086386F508930710096385F50CB7
:10051000930720096390F502370701405C4F93E78A
:1005200007025CCF01A83705160085451305050CA9
:10053000EFB0104985450545EFB050664800EFC063
:100540006037D5679387C7688A04BE948040C167C7
:10055000FD174C0022853EC402C223060100EFB005
:100560009079228593050006EFC0803B2285854562
:10057000EFC0C035F2406244D244424905618280F6
:1005800037151A00854513050580EFB070435DB738
:10059000370701405C4F93E707015CCF61BF370528
:1005A0001800854513050530EFB0904161B7371548
:1005B0001A008545130505C0EFB09040A5BF370769
:1005C00001405C4F93E747005CCFADB785450565BB
:1005D000EFB0103F85B7370701405C4F93E7070442
:1005E0005CCF89BF9357550013972700D567938732
:1005F000C751BA973D89984385473395A70099C15C
:1006000008CB828048CB8280135735009376C70190
:1006100055671307C7513697184385473395A70089
:100620001C477D8D3335A00082809357350013F72A
:10063000C701D5679387C751BA9798439377F50059
:10064000054554473315F500358D48C782807971CB
:1006500006D622D426D24AD04ECE52CC02C202C4F2
:1006600002C69307F00F630DF506135455001D885D
:100670009374F5003689B2892E8A0DC885476304C4
:10068000F40A89476306F40A8D476308F40A914720
:10069000630BF40A9547630EF40A9947631CF40050
:1006A000854513050010EFB0704F29A08545114511
:1006B000EFB0D04E0547B3149700C204D5679387B7
:1006C000C751C1800A043E94231291009377F90F19
:1006D0000040630FEA004C0022853EC6EFB0806503
:1006E000B250225492540259F249624A45618280C2
:1006F00042091359090113598900631309000D496F
:100700004C0022854AC43EC6EFB0C0624E86A68524
:100710002285EFB0502AB250225492540259F24925
:10072000624A4561828085452145EFB0304759B71F
:1007300085454145EFB09046B5BF8545130500029C
:10074000EFB0D04585BF854513050004EFB01045D7
:1007500095B7854513050008EFB05044A1BFD56794
:100760009387074803AF070083AE470003AE8700B7
:1007700003A3C70083A8070103A84701D44F9853D8
:10078000904FDC531D71A6CAAE84854586CE7ACCC7
:1007900076CE72D01AD246D442D636DA3ADCA2CC21
:1007A000CAC8CEC6D2C43EDE2A843759010032D828
:1007B000EF00103D9305095313065002EF20F0455A
:1007C000130660029305095333359000EF20F0447F
:1007D0002285EF00D03C13DAF40093170A01C1839D
:1007E0008507B3D4F402D567931924009387C768AB
:1007F000CE9703A907006C00231641014A852319EF
:10080000010023170100230A01001374F40F0A04E6
:1008100023189100EFB0304E05464A858545EFC05C
:10082000800E4A858545EFC0601E9C003E940325DE
:1008300084FD8D45EF3000469C00BE9903A589FDDF
:10084000EF3000424A858545EFC04008F6406644D7
:10085000D6444649B649264A25618280630305206D
:100860008547630CF52089476303F5208D47630CAA
:10087000F520C147630FF520C5476303F522C9473B
:100880006307F522CD476301F52493070010630445
:10089000F524930710106306F524930720106308CE
:1008A000F52493073010630AF524930700116307BA
:1008B000F520930710116308F52493072011630BAB
:1008C000F52493073011630EF5249307002063018C
:1008D000F526930710206303F52693072020630570
:1008E000F526930730206308F52693070021630B54
:1008F000F52693071021630EF52693072021630147
:10090000F528930730216304F52893070022630735
:10091000F52893071022630AF52893070030630D2A
:10092000F528930710306300F52A930720306303FE
:10093000F52A930730306304F52C930700316309DF
:10094000F52A93071031630EF52893072031630FC2
:10095000F52A930730316302F52C93070040630CAE
:10096000F51693071040630EF516930720406300B9
:10097000F518930730406302F5189307007063037E
:10098000F51E930710706306F51E93072070630928
:10099000F51E93073070630CF51E93070071630D0D
:1009A000F520930710716300F5229307207163030C
:1009B000F522930730716300F5289307058063885B
:1009C00007128567138717806309E512138727804D
:1009D0006301E528938737806306F52685671387CB
:1009E0000781630FE52C138717816304E52C1387B8
:1009F00027816308E51E138737816300E52213878B
:100A000007906309E51C13871790630AE51E138797
:100A100027906309E52813873790630EE52613872F
:100A200007916303E526938717916308F52485678B
:100A300013872791630CE522138737916301E52221
:100A4000138707926301E50C138717926308E51477
:100A500013872792630BE514938737926306F51C7F
:100A6000828093068031014685452145CDB69306A7
:100A70008031014685452945D9BE9306803101461E
:100A800085452545E9B693068031014685452D45C6
:100A90007DBE93068031014685451305900845BE0D
:100AA00093068031014685451305B0084DB693067F
:100AB0008031014685451305D00851BE930680312B
:100AC000014685453D4561B6930680310146854521
:100AD0001305E008ADBE930680310146854501450A
:100AE000BDB6930680310146854505458DB6930612
:100AF000803101468545094599BE930680310146FE
:100B000085450D45A9B693068031014685451305F7
:100B1000300235BE93068031014685451305A0029B
:100B20003DB693068031014685451305B00205B6F2
:100B30009306803101468545194511BE93068031E3
:100B4000014685451D4521B6930680310146854500
:100B500013050002EDBC930680310146854513055F
:100B60001002F5B4930680310146854513056004F3
:100B7000F9BC930680310146854513057004C1BC5C
:100B8000930680310146854513058004C9B4930658
:100B90008031014685451305900455BC930680318C
:100BA00001468545130540025DB493068031014638
:100BB00085451305500261BC930680310146854589
:100BC0001305600269B4930680310146854513051B
:100BD0007002B5BC9306803101468545130580023D
:100BE000BDB493068031014685451305D00685B412
:100BF00093068031014685451305C00689BC9306DE
:100C00008031014685451305900291B493068031E9
:100C1000014685451305E0061DBC9306803101465B
:100C200085451305F00625B49306803101468545B8
:100C30001305F00429BC9306803101468545130550
:100C4000D00431B493068031014685451305400434
:100C5000FDBA93068031014685451145CDBA93060C
:100C600080310146854513057006D5B29306803163
:100C70000146854513055006D9BA930680310146D1
:100C8000854513053006E1B293068031014685455E
:100C9000130510066DBA930680310146854513058C
:100CA000B00475B2930680310146854513053004C2
:100CB00079BA93068031014685451305B00641BADD
:100CC00093068031014685451305900649B2935736
:100CD000850055671307C7688A07BA979443454745
:100CE00083D7C602B385F5026302E5046364E502B7
:100CF000FD779387076FAA970D47636DF7009307FA
:100D0000803E0D89B3D5F5020A053695C205C1812D
:100D10004CD98280896793870771B3D5F5020D8915
:100D20000A053695C205C1814CD98280E167938757
:100D3000076AB3D5F5020D890A053695C205C1814A
:100D40004CD98280397126DA9354850022DC4ED644
:100D50002A84AE8926858D4506DE4AD832890D253E
:100D6000B75501001306900B9385055AEF20E06AF2
:100D7000268535252285DD3485450545EFB00062A1
:100D80009357440005476388E70445476386E7189F
:100D9000130710026388E71A130720026384E7141D
:100DA00013071003638FE71A130710076384E71A0A
:100DB000130710086380E714130710096388E71A04
:100DC000130720096390E702370701405C4F93E760
:100DD00007025CCF01A83705160085451305050CF1
:100DE000EFB0003E83A581844545B3D73503C18369
:100DF00093861700B3863603139707014183B3D553
:100E0000D502139605014182B28533092603630A90
:100E1000A40A6364A40AFD779387076FA2978D469F
:100E20009309803E63EBF608D5679387C7688A0409
:100E3000BE9484409387F5FF4C0026852314F1006F
:100E40002312E100231501002313010023060100F2
:100E5000EFB0606A33563903C167938707073EC80E
:100E6000B70702008907231A01003ECC02CE0D8885
:100E7000231BC10039C885476308F40A89470C0859
:100E800026856300F408EFB01019A1452685EFB060
:100E9000102F930500402685EFB0F0332685854559
:100EA000EFB0D02426858545EFB05022F250625431
:100EB000D2544259B2592161828009669309067160
:100EC000A5B761669309066A85B70C082685EFB059
:100ED000E06F2685A145EFB0B02691452685EFB09D
:100EE000B02B6DBF37151A00854513050580EFB08F
:100EF000202DCDBD370701405C4F93E707015CCF44
:100F0000D5B5EFB050042685A145EFB03026914508
:100F10002685EFB0302B59B73705180085451305E6
:100F20000530EFB0E0297DBD0C082685EFB0807458
:100F30002685A145EFB0F021930500402685EFB04E
:100F4000D026A9BF37151A008545130505C0EFB097
:100F5000202749BD370701405C4F93E747005CCF2E
:100F600051B585450565EFB0A025ADBD37070140FA
:100F70005C4F93E707045CCFB5B5411122C426C28C
:100F80004AC006C6AE843284368955C5C14763025D
:100F9000F510930700026301F51293070003630A3B
:100FA000F50E93070004630DF514B7550100130601
:100FB0009002938505610145EF20204689476386AD
:100FC000F408C9476385F40A930720026388F41084
:100FD00093072003638DF408930720046387F40EBE
:100FE000B755010013060003938505610145EF2005
:100FF000C04285476305F406C5476303F4089307B9
:1010000010026306F40E930710046304F4109307B0
:1010100010036307F4069307F00F6315F4082244E6
:10102000B24092444A850249930600310146854503
:1010300041016FF0CFE193068031054685451545A6
:10104000EFF0EFE08947E39EF4F693068031054622
:1010500085451D45EFF0AFDF8547E31FF4F89306A4
:101060004030054681451945EFF06FDE4DBF9306D0
:1010700080310546854513055002EFF04FDD95BFE1
:10108000930640300546814513054002EFF02FDC02
:1010900079B7930680310546854513053002EFF098
:1010A0000FDB29BFB7550100130680039385056147
:1010B0000145EF208036A5B793068031054685456A
:1010C0001305D002EFF0AFD8D5BD930680310546A9
:1010D00085451305C004EFF08FD721BF93068031FB
:1010E000054685451305F002EFF06FD619B7930654
:1010F0004030054681451305E002EFF04FD505B7B6
:1011000093068031054685451305A004EFF02FD4E2
:1011100075B593064030054681451305B004EFF0E0
:101120000FD3F5BD5D7193182500CAC02A89556596
:101130001305056846954EDE8329050086C6A2C4C0
:101140004E85A6C252DC56DA5AD85ED63E8BAE84A5
:10115000B28B368ABA8A4284EFB0C02B85450545EA
:10116000EFB0C023C1476309FA0E9307000463166A
:10117000FA00930720046385FA16630B090E85476E
:101180006301F91889476309F916A2865A86D6853C
:101190005285E533B70704013EC623180100854791
:1011A0006380F40E638C04100947638AE40E8D4655
:1011B0006385D40803A401949307F00F3354740398
:1011C0004204418063F287041304800393070020E4
:1011D0006C004E85231BF1009D47231C8100231EBC
:1011E000F100231D0100EFB000294E858545EFB0C9
:1011F000602EB640264496440649F259625AD25AA5
:10120000425BB25B616182809307F00763E7870608
:101210009307F00363E3870CFD4763E9870EBD473F
:1012200063E9870E9D4763E8870E8D4763E7870E66
:10123000854763F6870E014451BF231AF10003A4CA
:1012400001942319E1009307F00F3354740342040F
:101250004180E3EB87F64DBFC947E390FAF2C547FB
:10126000E31DFBF085450545EFA09075E31909F0F6
:1012700085450565EFB0801209BF13040003B9B7B7
:1012800003A4019423190100231A91003354740319
:101290009307F00F42044180E3E887F2B5B703A457
:1012A000019423199100231A010033547403930706
:1012B000F00F42044180E3E987F0B9B703A4019439
:1012C00023190100231A0100335474039307F00F0C
:1012D00042044180E3EA87EE05BF13048002FDB5B6
:1012E00093071004E31BFBE8371520008545130521
:1012F0000510EFA0F06C51B585452165EFB0E00B0E
:1013000069B585451165EFB0400B41B51304000286
:1013100075BD614465BD414455BD214445BDB755CA
:1013200001001306D008938505610145EF20E00E0A
:1013300071BDD5670A0593870768AA979843231656
:10134000B7008357870093F70708E5FF8280D567CA
:101350000A0593870768AA97984393D785002316B1
:10136000F7008357870093F70708E5FF93F5F50F1C
:101370002316B7008357870093F70708E5FF82809D
:10138000931725001385C1A53E951C4181E70CC12B
:10139000054582803385B74013351500828021C111
:1013A0000547630BE50209476308E5020D47630E35
:1013B000E5021147630FE50215476300E50419478D
:1013C0006301E5041D476303E50421476304E50465
:1013D00025476306E504828085456FA0107E05657C
:1013E0008545130505806FA0707B854511456FA06D
:1013F000D07C854521456FA0507C854541456FA037
:10140000D07B8545130500026FA0307B85450965BB
:101410006FA0D0788545370508006FA030788545E6
:10142000370510006FA09077411122C406C62E84A4
:1014300041C98947630BF516C147630BF512C947CC
:10144000630AF51A930700026305F51C930720024F
:10145000630AF51893074002630CF51C9307000418
:101460006302F518930720046302F5209307000533
:101470006305F522930720056300F5249377D5FFD4
:10148000130700066383E720930700076301F51C39
:1014900093072007630EF524930740076308F5269A
:1014A000930700086303F528930720086310F502EB
:1014B000E146014685451305E008EFF04F9939A054
:1014C000E146014685452545EFF06F98854763075E
:1014D000F4088D476300F40CC5476300F40ECD4754
:1014E0006307F40E93071002630EF41093073002A3
:1014F0006307F408930750026305F412930710047E
:10150000630FF40693073004630BF414930710057C
:101510006306F416930730056309F4189307100661
:101520006304F41A930730066307F41A930710074D
:101530006308F410930730076306F41A9307500703
:10154000630FF41A93071008630AF41C930730081A
:101550006305F41EB2402244410182809306800458
:101560000146814529452244B24041016FF02F8E4A
:10157000E146014685450945EFF06F8D81BF224464
:10158000B24093068004014681451305B004410131
:101590006FF0EF8B2244B2409306800401468145F0
:1015A0001305700241016FF08F8AE14601468545BF
:1015B00013056002EFF0AF8911BF2244B2409306D9
:1015C0008004014681450D4541016FF04F8822445A
:1015D000B24093068004014681451305600641012F
:1015E0006FF0EF86E146014685451305A004EFF054
:1015F0000F86E9BDE1460146854513055006EFF02B
:101600000F85E9B593068004014681451305B002B4
:1016100099BFE146014685451305A002EFF02F83EF
:1016200075B593068004014681451305900625BFD4
:10163000E1460146854513058006EFF04F8179B5F7
:1016400093068004014681451305300429BFE14615
:101650000146854513052004EFE07FFF85BD930615
:1016600080040146814513051002F5BDE14601469F
:10167000854513050002EFE09FFD89BD93068004B8
:101680000146814513052006F9BDE1460146854521
:1016900013050004EFE0BFFB15BDE146014685459B
:1016A0001305C004EFE0BFFA15B5930680040146A8
:1016B00081451305900845BDE14601468545130562
:1016C0008008EFE0DFF819B59306800401468145F4
:1016D0001305100449BD9306800401468145130596
:1016E000B00851B593068004014681451D45A5BD4E
:1016F000E146014685451945EFE07FF5C1BB9306FC
:101700008004014681451305D008B1BDE14601467C
:1017100085451305C008EFE09FF34DBB9306800499
:1017200001468145130550043DBDE146014685450E
:1017300013054004EFE0BFF151BB9306800401465E
:1017400081451305F00805B51DC6D5670A059387C1
:10175000476BAA9798432E96850583C6F5FF835756
:10176000070093F70708E5DF93970601C18323126B
:10177000F700E393C5FE8280D56713172500938792
:10178000476B4111BA9726C2AA84884322C42E8689
:101790002E849305505206C6EFB0E03A1385C185FA
:1017A000269503450500B7E700E0AA972380074088
:1017B00019C42244B240924441016F20604A22443D
:1017C000B240924441016F20404BD5670A05938790
:1017D000476BAA9798438357070093F7070299E34B
:1017E000014582808357470005452380F5008280AC
:1017F000797122D44ECE2A84AE890545854506D618
:1018000026D24AD0B2843689EFA05039CA852685BF
:1018100021398947638DF414C9476382F40693071D
:1018200020026386F40A93074002638DF40A93074B
:1018300020046385F40C93072005639AF40C930746
:101840003005630CF91821C48547630AF4148947ED
:10185000630DF4148D476300F41691476303F41687
:1018600095476306F41699476300F4189D4763147F
:10187000F402854513050010EFA0303429A8CD47A8
:10188000E313F9FC85452145EFA0901355FC8545F0
:101890001165EFA0B030D5679387476B0A043E947B
:1018A00000408A85B7070C0022854EC03EC423162F
:1018B000010002C2EFB0601622858545EFB0A02678
:1018C000B250225492540259F249456182809307E2
:1018D0003002E31AF9F63705140085454105EFA0FB
:1018E000300E95B793075002E31FF9F43705140043
:1018F000854513050503EFA0B00CB1B7930730047D
:10190000E313F9F485450565EFA0900B2DBF930710
:101910002006639EF40093073006E316F9F23715AC
:101920000080854513050580EFA0900929BF930726
:101930002007639EF40093073007E316F9F037079A
:1019400001405C4FB7064000D58F5CCFEDBD9307DB
:1019500040076396F40293075007E316F9EE370742
:1019600001405C4FB7068000D58F5CCFE9BD8D4745
:10197000E31BF9EC85451145EFA09004E9B5930709
:101980002008E392F4EC93073008E31EF9EA3707E6
:1019900001405C4FB7060002D58F5CCF6DB5854521
:1019A00037050200EFA07021FDB58545370504001D
:1019B000EFA0B020CDB5854537050800EFA0F01F9A
:1019C000D9BD854537051000EFA0301FE9B5854525
:1019D00013050004EFA0701E7DBD3705200085456E
:1019E0000505EFA0E07D85B5854513050008EFA04E
:1019F000D01C55B5011122CC93855190154506CECA
:101A000026CA4AC84EC6D1330546938551901385E0
:101A100041AAEF10102813840190184085476309EC
:101A2000F700F2406244D2444249B24905618280E3
:101A30001389419083450900938941A893F5F50FD7
:101A40009387150093F7F70F814613860190CE9583
:101A5000138541AA2300F900EF10502F8347090096
:101A60000D47E370F7FC8345090037550100114627
:101A7000F115CE951305456DEF1081485DF189474D
:101A80001CC045B7011122CC9385D190194506CED3
:101A900026CA4AC84EC6153B05469385D190138584
:101AA00081ADEF10101F13848190184085476309A2
:101AB000F700F2406244D2444249B2490561828053
:101AC0001389C19083450900938981AB93F5F50F84
:101AD0009387150093F7F70F814613868190CE9573
:101AE000138581AD2300F900EF10502683470900CC
:101AF0000D47E370F7FC8345090037550100114697
:101B0000F115CE951305456DEF10813F5DF18947C5
:101B10001CC045B783A7419309476388E7000D4779
:101B20006388E70011476383E70082806F1060637A
:101B30006F10403B83A7419311476386E7000D4731
:101B40006385E70082806F1000686F10E03F01112D
:101B50005AC006CE22CC26CA4AC84EC652C456C265
:101B6000138BA18083470B00375401002E8AB28467
:101B70009305C46D130620052A893335F500B6890F
:101B8000938AB180EF10700903C50A009305C46DF4
:101B9000130630053335AA00EF10300803450B005B
:101BA0009305C46D1306400533B5A400EF10F0068D
:101BB00003C50A009305C46D1306500533B5A9008B
:101BC000EF10B00583A74180556703248752E1CB0E
:101BD00005476380E71A930A004023285401056BE8
:101BE0001309890293848402130B0B80232A540166
:101BF0004209C2040947232A640113590901C1801B
:101C00009305A0020545638BE710EFF08FF22328C0
:101C10006401232854010545CA85232A5401EFF0A5
:101C20000FF3A6850545EFF08FF223285401232AF0
:101C300054019305B0020545232A6401EFF06FEFCC
:101C400093054A032328640123285401C205C18156
:101C50000545232A5401EFF08FEF93854903C20510
:101C6000C1810545EFF0AFEE23285401232A54012A
:101C7000232A64019305C0020545EFF08FEB23286A
:101C8000640123285401232A5401F2406244D244BF
:101C90004249B249224A924A024B05618280930A24
:101CA000004023285401056B130B0B80232A540199
:101CB0009305A0020545232A6401EFF08FE7930501
:101CC00049032328640123285401C205C181054525
:101CD000232A5401EFF0AFE793854403C205C18185
:101CE0000545EFF0CFE623285401232A540193053C
:101CF000B0020545232A6401EFF0AFE393058A02A1
:101D00002328640123285401C205C1810545232AE3
:101D10005401EFF0CFE39385890291B7EFF06FE1C3
:101D200023286401232854010545CA85232A540128
:101D3000EFF0EFE1A6850545EFF06FE123285401B0
:101D4000232A54019305B0020545232A6401EFF0CC
:101D50004FDE93055A032328640123285401C2054A
:101D6000C1810545232A5401EFF06FDE93855903A5
:101D7000FDB5930A004023285401056B130B0B801B
:101D8000232A54019305A0020545232A6401EFF09C
:101D90004FDA930559032328640123285401C2050F
:101DA000C1810545232A5401EFF06FDA938554036E
:101DB00035B7797122D4375401001306B008930562
:101DC000C46D054506D64AD04ECE26D252CC56CA50
:101DD0005AC85EC662C466C2EF1020641306C0080B
:101DE0009305C46D0545EF10406303A60194930766
:101DF000F00F130720021308F00F9306000205826C
:101E000081450545EFF00FB2C146014685451305F2
:101E1000B006EFE0DF83C146014685451305C006E5
:101E2000EFE0FF82C146014685451305A006EFE0BD
:101E30001F82C1460546854513056004EFE03F81DA
:101E40001389418003270900854763FEE742930613
:101E500070081307000F83A701948964938404F426
:101E6000B3D797021305800C556603248652856C00
:101E70008145138AB180938AA180232A940123008B
:101E8000DA002380EA00930B4006130B0040138C0A
:101E90000C803385A702EFE06FC203A50194814552
:101EA000232894013355950233057503EFE00FC1E4
:101EB00023286401232A6401930560030545232A2E
:101EC0008401EFF00FC703A5019423288401232880
:101ED000640133559502232A640181453305750356
:101EE000EFE0CFBD832709006384073A0547638C81
:101EF000E73A09476383E73A9305000A0545EFF09F
:101F00004FC39304004004C805691309098044C8FD
:101F1000232A24019305A0030545EFF08FC1232850
:101F2000240104C89545054544C8EFF08FC004C896
:101F300044C8232A24019305200B0545EFF06FBF09
:101F40002328240104C8B145054544C8EFF06FBEFD
:101F5000B1450545EFF0EFBD81450545EFF06FBD9B
:101F6000930530030545EFF0CFBC930530030545DD
:101F7000EFF02FBC04C844C8232A24019305700B3A
:101F80000545EFF00FBB2328240104C89305500337
:101F9000054544C8EFF0EFB904C844C8232A24011A
:101FA0009305B00B0545EFF0CFB82328240104C8F2
:101FB00093057003054544C8EFF0AFB704C844C8A3
:101FC000232A24019305000C0545EFF08FB6232842
:101FD000240104C89305C002054544C8EFF06FB55D
:101FE00004C844C8232A24019305200C0545EFF0BA
:101FF0004FB42328240104C88545054544C8EFF0A3
:102000004FB304C844C8232A24019305300C054566
:10201000EFF02FB22328240104C8C945054544C860
:10202000EFF02FB104C844C8232A24019305400CC3
:102030000545EFF00FB02328240104C893050002E2
:10204000054544C8EFF0EFAE04C844C8232A240174
:102050009305600C0545EFF0CFAD2328240104C89B
:10206000BD45054544C8EFF0CFAC04C844C8232A99
:1020700024019305000D0545EFF0AFAB23282401A3
:1020800004C89305400A054544C8EFF08FAA93059C
:10209000100A0545EFF0EFA904C844C8232A24011B
:1020A0009305000E0545EFF0CFA82328240104C8AE
:1020B0009305000D054544C8EFF0AFA791450545D0
:1020C000EFF02FA7B5450545EFF0AFA6C54505458F
:1020D000EFF02FA6CD450545EFF0AFA59305B00273
:1020E0000545EFF00FA59305F0030545EFF06FA44C
:1020F000930540050545EFF0CFA39305C0040545C2
:10210000EFF02FA3E1450545EFF0AFA2B54505453A
:10211000EFF02FA2AD450545EFF0AFA1FD45054518
:10212000EFF02FA1930530020545EFF08FA004C812
:1021300044C8232A24019305100E0545EFF06F9F34
:102140002328240104C89305000D054544C8EFF079
:102150004F9E91450545EFF0CF9DB1450545EFF008
:102160004F9DC5450545EFF0CF9CCD450545EFF0AA
:102170004F9C9305C0020545EFF0AF9B9305F0031C
:102180000545EFF00F9B930540040545EFF06F9A6E
:10219000930510050545EFF0CF999305F00205452D
:1021A000EFF02F99FD450545EFF0AF98FD4505454A
:1021B000EFF02F98930500020545EFF08F979305F8
:1021C00030020545EFF0EF9604C844C8232A2401E5
:1021D000930510020545EFF0CF952328240104C88C
:1021E00044C804C844C8232A2401C5450545EFF066
:1021F0004F9403A501948967938707F43355F5023B
:102200002328240104C8814544C893174500338519
:10221000A7400E05EFE08F8A04C844C8232A240192
:10222000930590020545EFF0CF9003C60A00834660
:102230000A002328240104C83309D602FD167D169E
:10224000C206420644C8B7070020C18241828145C8
:10225000014503D40755EFF09F8F630909007D19ED
:10226000A2850545EFF0AF8EE31B09FEB250225464
:1022700092540259F249624AD24A424BB24B224C22
:10228000924C456182809306000F13077008E1B6F7
:1022900081450545EFF0EF89ADB193050007054590
:1022A000EFF02F89B9B99305000C0545EFF06F8861
:1022B00089B9411122C403C4A18083C6B180130629
:1022C000F4FF42063304D402FD16C20626C2B70745
:1022D0000020AA84C18241828145014506C6239817
:1022E0009754EFF0DF8619C47D14A6850545EFF0FD
:1022F0000F867DF8B2402244924441018280130748
:10230000F00E6367A70013076008AE866373B7001B
:102310008280411122C432842A8606C6EFF03F83B0
:10232000A2852244B240054541016FF04F8283C728
:10233000A18079714AD03759010026D256CA62C4A9
:10234000AE8A2A8C9305C96D3335F500B284130625
:10235000F01306D64ECE52CC5AC85EC622D4EF1029
:10236000C00B03C5B1809305C96D1306001433B5C6
:10237000AA00EF10800A938704FE5567920713079F
:10238000077F3389E700920A930B7C00B38A2A41C6
:102390004107C20BC20A93DB0B01330BF70093DA40
:1023A0000A01370A0020B3862A01C206C1825E866E
:1023B000B6856285EFF0AFF921448344090011A886
:1023C00083D581807D141374F40FEFE05FF885806E
:1023D00019CC93F714000545E5F783550A557D148C
:1023E00005451374F40FEFE09FF685807DF0050935
:1023F000E31B69FBB250225492540259F249624ADB
:10240000D24A424BB24B224C4561828083C7A180A5
:10241000011126CAB754010022CC4AC84EC62E89E3
:10242000B2899385C46D130600162A843335F500EE
:1024300006CEEF00907E03C5B1801306101693857B
:10244000C46D3335A900EF00507D0386090005C235
:10245000814485042285CA85C204D13DC180B387E9
:102460009900038607002104420441807DF2F24076
:102470006244D2444249B2490561828083C7A18047
:10248000797122D4375401004AD04ECE52CC3289D1
:102490002E8A130650179305C46DAA893335F500AB
:1024A00006D626D2EF00707703C5B18013066017F9
:1024B0009305C46D3335AA00EF003076634A0906F0
:1024C00013060002D2854E859D352947B347E902A0
:1024D0009306400613848900938909024204C209C5
:1024E0006400418093D90901B346D902B3E7E702FA
:1024F0002306D1003369E902A306F1002307210175
:1025000003C6040022852104130606036206420462
:10251000D28561864180EFF09FE18504E39289FED8
:10252000B250225492540259F249624A4561828063
:10253000330920411306D002D2854E856209EFF09F
:102540001FDF1359894151B783C7A180797126D202
:10255000B754010022D44AD052CC32892A842E8A20
:102560003335F5009385C46D1306701906D64ECE2B
:10257000EF00B06A03C5B1809385C46D130680195E
:102580003335AA00EF0070692947B357E902930673
:10259000400693098401C209640093D90901B35626
:1025A000D902B3F7E7022306D1003379E902A30683
:1025B000F1002307210103C604002285210413062C
:1025C000060362064204D28561864180EFF03FD661
:1025D0008504E39289FEB250225492540259F24982
:1025E000624A4561828083C7A180797126D2B7543F
:1025F000010022D44AD04ECE3289AE891306301B58
:102600009385C46D2A843335F50006D652CCEF008D
:10261000D06003C5B1801306401B9385C46D33B5EC
:10262000A900EF00905F6348090813060002CE85F9
:102630002285EFF0DFCF9306803EB346D902A9474B
:10264000130740060966130606712104420424009C
:102650004180130AD1003347E902B345F902B3E6DA
:10266000F6023346C902A304D1003367F7022304FC
:10267000C100B3E6F5022305E1003369F902A305C1
:10268000D1002306210103C604002285210413067C
:1026900006036206CE85618642048504EFF03FC9D9
:1026A0004180E3129AFEB250225492540259F249E8
:1026B000624A45618280330920411306D002CE85EB
:1026C00022854209EFF0BFC613590941ADB783C750
:1026D000A180797126D2B754010022D44AD04ECEBF
:1026E0003289AE891306801D9385C46D2A843335E3
:1026F000F50006D652CCEF00505203C5B180938549
:10270000C46D1306901D33B5A900EF001051930658
:10271000803EB356D902A94713074006096613063F
:1027200006712400130AD1003357E902B355F902A8
:10273000B3F6F6023356C902A304D1003377F70289
:102740002304C100B3F6F5022305E1003379F90251
:10275000A305D1002306210103C60400228521041C
:10276000130606036206CE85618642048504EFF0F7
:102770001FBC4180E39244FFB2502254925402594C
:10278000F249624A456182801D71D6C2938AA18056
:1027900083C70A00D2C4375A0100A2CCCAC8DAC023
:1027A0005EDE2E892A849305CA6D3335F500B28B1F
:1027B0001306801F86CEA6CACEC6138BB180B689FB
:1027C000EF00B04503450B001306901F9305CA6D3B
:1027D0003335A900EF007044A947A94463E43701E9
:1027E00093F4F90F93891400B755010093F9F90F89
:1027F0005E869385457563C00B0A93070002130537
:10280000D1002306F100EF00306205051375F50FC6
:10281000637D35013386A4401376F60F7C000506F0
:10282000930500023E95EFD0FF9E03C50A001C18D9
:10283000BE99130600169305CA6D3335A400238E86
:1028400009FCEF00903D03450B001306101693059D
:10285000CA6D3335A900EF00503C0306C100814426
:1028600005C22285CA858504EFF07FACC204C18011
:102870001C18A6970386C7FD21044204418075F207
:10288000F6406644D6444649B649264A964A064B1F
:10289000F25B256182806800EF0010591375F50F17
:1028A00085BF1D71DAC0138BA18003480B00A6CA37
:1028B000B7540100A2CCCAC8D2C4D6C22E8A2A8478
:1028C0009385C46D3335050132891306202286CEE7
:1028D000CEC65EDE62DCBE8B66DAB689BA8C938ABF
:1028E000B180EF00903303C50A00130630229385B0
:1028F000C46D3335AA00EF0050329947194C63E498
:10290000770113FCFB0FA94793FBFC0F63F39701BF
:10291000A94B01468146CE854A85EFD0702AB7552E
:1029200001004A86CE8693850575634D050E130515
:10293000D100EF00704F1307A5FF1377F70F93CB6C
:10294000FBFFBA9B050C629793FBFB0F1377F70F06
:10295000139C8B01931C8701135C8C4193DC8C418D
:10296000635C0C023307774162076187E6871306D1
:1029700000021418BE968507E207238EC6FCE18785
:10298000E399E7FEB38C7C41330C7C41E20C620C92
:1029900093DC8C41135C8C41014681464A85CE858F
:1029A000EFD01022634A050A1C183E9C93070002D0
:1029B000230EFCFC03450B001C189385C46DBE9CC4
:1029C000130600163335A400238E0CFCEF00F02410
:1029D00003C50A00130610169385C46D3335AA008B
:1029E000EF00B0230306C100814405C22285D285D1
:1029F0008504EFF0DF93C204C1801C18A6970386FC
:102A0000C7FD21044204418075F2F6406644D64475
:102A10004649B649264A964A064BF25B625CD25C4E
:102A2000256182806800EF003040130795FF13771F
:102A3000F70F93CBFBFFBA9B050C629793FBFB0F41
:102A40001377F70F139C8B01931C8701135C8C4148
:102A500093DC8C41E3480CF01C183E9C9307D00299
:102A6000230EFCFC81BF03C3A180397152D4375AB5
:102A7000010022DC4ED662CCAE892A849305CA6D51
:102A800033356500328C1306902706DE26DA4AD8E5
:102A90005AD05ECE428B66CAB684BE8C56D26AC805
:102AA0006EC6BA8B4689EF00501703C5B180130676
:102AB000A0279305CA6D33B5A900EF001016930641
:102AC000FBFF1386FCFFCE962296C2064206C18209
:102AD0004182CE852285EFF08F8763060B04C169A2
:102AE000814A014AFD1933D46A03638A0C02814D7D
:102AF000014D3384840262946306090433D79D0335
:102B0000CE85054522978347070063F42701814559
:102B10000545050DEFE0BF83A69DE3119DFF050A66
:102B2000DE9AE3126AFDF2506254D2544259B2590D
:102B3000225A925A025BF24B624CD24C424DB24D39
:102B400021618280B3D79D03050D0545A69DA297FF
:102B500003C707009355370009839397B5001607FD
:102B60005D8FD98DEFE0AFFEE31E9DFD4DBF5D7122
:102B70006AD0130D25005AD85ED66ECE930BF5FFA2
:102B8000930DE5FF130B150093170D01C20DC20B3A
:102B9000420BC183A2C4A6C2CAC04EDE52DC56DAC2
:102BA00062D466D286C62A89AE89328493DD0D014D
:102BB00093DB0B01135B0B013EC60147854A0D4CAD
:102BC000954C9304F00E130A700831A8630784072C
:102BD0006303940B93071D00C207C183139707017A
:102BE0004187638D4703131D0701135D0D01E31F2B
:102BF00054FDE3E124FF4A85EA864A86EA85EFE050
:102C00001FF5CE850545EFE08FF493071D00C20741
:102C1000C183139707014187E39747FDB6402644D8
:102C200096440649F259625AD25A425BB25B225C20
:102C3000925C025DF24D6161828063EC74015E859D
:102C4000EA85EA865E86EFE09FF0CE850545EFE0F7
:102C50000FF063EC24014A85EA85EA864A86EFE0B4
:102C60001FEFCE850545EFE08FEEE3E564F75A856B
:102C7000EA865A8661B763ECB4016E85EA85EA8616
:102C80006E86EFE0DFECCE850545EFE04FEC63ECC0
:102C900074015E85EA85EA865E86EFE05FEBCE85AD
:102CA0000545EFE0CFEA63EC24014A85EA85EA8630
:102CB0004A86EFE0DFE9CE850545EFE04FE963ECBA
:102CC00064015A85EA85EA865A86EFE05FE8CE8598
:102CD0000545EFE0CFE7B247E3EEF4EE3E85EA8646
:102CE0003E8629BF03C3A180397152D4375A0100EF
:102CF00022DC4ED666CAAE892A849305CA6D333566
:102D00006500B28C1306503606DE26DA4AD85AD051
:102D10005ECE428B6AC8B6843E8D56D262CC6EC6F9
:102D2000BA8B4689DD2D03C5B18013066036930545
:102D3000CA6D33B5A900D5259306FBFF1306FDFF29
:102D4000CE962296C2064206C1824182CE85228557
:102D5000EFE0FFDF630A0B04C169814A014AFD19F4
:102D600033D46A03630E0D029307801C014C814D1E
:102D70003304F4026694630809043357AC03CE8528
:102D800005450A0722971843034707006374270184
:102D900081450545850DEFE08FDB269CE39FADFD6A
:102DA000050ADE9AE31E6AFBF2506254D25442597D
:102DB000B259225A925A025BF24B624CD24C424DAB
:102DC000B24D21618280B357AC03850D0545269C29
:102DD0008A07A2979C4303C70700935537000983CE
:102DE0009397B50016075D8FD98DEFE04FD6E39C22
:102DF000ADFD7DB7397122DC26DA4ED656D25AD0D7
:102E000093070008B70900207D7B89644AD852D413
:102E10005ECE62CC06DE2315F10093890900014ADB
:102E200013848192130B5B1A930B0008938404F4B0
:102E3000938A4192254C83D7090011466C00139761
:102E40008700A183D98F11452317F1002316610153
:102E5000EFE09F8F231571018347040093F7F70F6D
:102E600091CF0DA803A50194814533559502EFD06C
:102E7000EFC48347040093F7F70F89EF8357A1004E
:102E80001387F7FF42074187C207C1872315E10077
:102E9000E34AF0FC8357A100C207C1876355F002E3
:102EA00083C71A0003C72A00050AA207D98F420A5E
:102EB0002391F90023000400135A0A019109E31C2D
:102EC0008AF7014521A0E31D0AFC0545F250625432
:102ED000D2544259B259225A925A025BF24B624C76
:102EE00021618280411122C41384719283450400C0
:102EF00026C293844192A695114506C6EFE0FF8C49
:102F00008347040011C5850793F7F70F2300F400EA
:102F10000547638EE7008D466396D70023000400C3
:102F20002384E192B240224492444101828003C74B
:102F300004009307500AE307F7FE23000400B240A1
:102F4000224492444101828005472380E19282809D
:102F500039710D4506DE22DC4ED626DA4AD852D427
:102F600056D28969412413060005930610059385FE
:102F700009581145EFE0DF8785451145EFE0CFFFA8
:102F80000145EF0050521384819223000400EFF0BA
:102F90007FE61306E0146312051A2300040093076A
:102FA0000008B7040020231DF1009384440223008D
:102FB0000400938A8402130A50FA938909F483D790
:102FC000240083D604006C0813978700A183D98F4F
:102FD00011451146230E4101A30ED100231FF1001C
:102FE000EFE08FF603A50194910481453355350335
:102FF0000605EFD0AFACE3949AFC8347040093F747
:10300000F70FA9EB8357A1011387F7FF4207418709
:10301000C207C187231DE100635EF00289649384C7
:1030200004F429A88357A1011387F7FF42074187BA
:10303000C207C187231DE100635EF00003A5019470
:10304000814533559502EFD06FA78347040093F76E
:10305000F70FE9DB9384419203C7140083C7240070
:1030600093060008231DD100F98F230004001307E5
:10307000F00F638EE7048357A1011387F7FF420720
:103080004187C207C187231DE1006352F0048969AB
:10309000938909F4130AF00F29A88357A101138714
:1030A000F7FF42074187C207C187231DE100635034
:1030B000F00203A50194814533553503EFD00FA0ED
:1030C00083C7140003C72400F98FE39847FD835793
:1030D000A101C207C1876350F00623000400EFF08E
:1030E0007FD12A8425EDEF00903C91473EC495475F
:1030F0003EC299473EC09306900413068004A9453A
:103100002545930890021308800293076002130775
:10311000B004EFD04F9D3715002019661307858442
:1031200085461306068281451305858423AEE1900A
:10313000EFD02FA811A813065015B755010093859D
:1031400085750145D92C05442285F2506254D2542C
:103150004259B259225A925A216182801306D015DF
:10316000E9BF411122C4138401938345040026C2A0
:103170009384C192A695114506C6EFE00FE58347FB
:10318000040011C5850793F7F70F2300F4000547E6
:10319000638EE7008D466396D70023000400A38763
:1031A000E192B240224492444101828003C704006C
:1031B0009307500AE307F7FE23000400B2402244BD
:1031C00092444101828083A6C191B707055094C7FC
:1031D0008546A384D19203C7070013671700238095
:1031E000E700828023AAA1928280411122C49385A4
:1031F000C193154506C6EFE04FDD9385C193224488
:10320000B24037650020054613058506410151A4EB
:1032100023A0A194B71702409843B706FFF84111C5
:103220001367170098C3D84337180240B705020048
:10323000758FD8C39843B706F7FEFD16758F98C3F0
:103240009843B706FCFFFD16758F98C3D843B706A1
:1032500081FFFD16758FD8C337079F0098C702C43A
:1032600002C69843C16613060050558F98C321A02B
:10327000A247638BC70083270800ED8F3EC6A24795
:1032800085073EC4B247EDD7B71702409C4313975A
:10329000E7006359070085473EC632478547630804
:1032A000F70001A002C632478547E31CF7FE373618
:1032B0006E011307F5FF130606603357C702B726E2
:1032C00002408C42B717024093E505018CC203A867
:1032D0000600B7157A00938505201378C8FF23A050
:1032E000060103A806001D8B3367070198C2D84367
:1032F000D8C3D843D8C3D843D8C36301B50AD84389
:10330000B706C1FFFD16758FD8C337479508130759
:1033100007406302E50437172707130707E0630038
:10332000E50A37E7B805130707806306E50A37A7FC
:103330004A0413070720630AE5083777DC021307FE
:1033400007C06300E50A631CC500D843B706050043
:10335000558FD8C329A0D843C166558FD8C3B71697
:103360000240984237060001B7170240518F98C2B9
:10337000984393166700E3DD06FED043B71602407C
:103380002147719AD0C3D04313662600D0C3DC42D4
:10339000B18BE39EE7FE41016F009010D043B7165A
:1033A00002401147719AD0C3D04313661600D0C3B0
:1033B000DC42B18BE39EE7FE41016F00700ED84303
:1033C000B7063900558FD8C359BFD843B7061D007B
:1033D000558FD8C369B7D843B7062900558FD8C3CE
:1033E000BDBFD843B7061100558FD8C38DBFF16557
:1033F0004111930610061306000693850520154516
:1034000006C6EFE0EFBE85451545EFE0EFB6B240EA
:1034100005472382E1944101828019E983C74194E1
:10342000411106C699E7EF00900801000100F5BFC1
:103430008280375501001305057DEFF03027EF003E
:103440001007E5B701114EC606CE22CC26CA4AC8DF
:10345000B2896358C002D56703A4876CAE843389F0
:10346000C500930500042285EF9040727DD9850444
:103470008385F4FF2285C205C181EF908070E392BD
:1034800024FFF24062444E85D2444249B24905616C
:1034900082805C45637AF60A011126CAAA8422CC8E
:1034A0004AC84EC652C456C206CE2E8A3289EF0092
:1034B000100083AA0401C0408840B3898A4063F6A3
:1034C00029074E86D2852295EFE09073D840944824
:1034D0004E97D8C06366D700158FE37FD7FED8C05C
:1034E00088404A94330454413A952286B3053A0100
:1034F000EFE01071DC409848A297DCC063E6E7007B
:10350000998FE3FFE7FEDCC0D04401453309264133
:1035100023A62401492FF2406244D2444249B249D1
:10352000224A924A0145056182804A86D2852295C7
:10353000EFE0106DDC409848CA97DCC0E3E6E7FC9A
:10354000998FE3FFE7FEC1B70945828001114AC8A0
:103550005C45032905014EC6B289104222CC26CA19
:103560005AC006CE52C456C2B307F9402A842E87E9
:10357000368B814463F8C70023A0F90003290501B5
:103580003E868544032A8400B30A494163E7CA02A0
:1035900011C70C403A85D295EFE0906663010B04A9
:1035A000F2406244330590404249D244B249224A33
:1035B000924A024B0D89056182806DD30C4056867C
:1035C0003A85D295EFE0D06303A609000C405695EA
:1035D000529633062641EFE0B062E3130BFCC12D97
:1035E00083A7090014441848B6971CC463E6E70093
:1035F000998FE3FFE7FE1CC45C4403A70900014563
:10360000BA975CC44D2569BF01112AC6B24711673C
:1036100013070765B387E7023ECEF2471387F7FF2C
:103620003ACEE5FF0561828035713AC986DEA2DCBB
:10363000A6DACAD8CED6D2D4D6D2DAD0DECEE2CC72
:10364000E6CAEAC8EEC632C536C73ECB42CD46CF43
:103650008387050038013ACCB5C337670100130DE5
:10366000C101D964054AAE8A2A84032907F3832954
:1036700047F3814C930D5002938404DE330AAA4130
:1036800019A862872300F400568C0504850CBA8AB9
:1036900083071C008DC7138C1A00E394B7FF838740
:1036A0001A0013073005890A9387B7FD93F7F70FC0
:1036B000E360F7FE8A07A6979C438287814CF65009
:1036C00066546685D6544659B659265A965A065BAC
:1036D000F64B664CD64C464DB64D0D618280E247A6
:1036E000984391073ECC83070700DDD3B3868C4017
:1036F0002300F4000507830707000504B30CD4007A
:10370000E5FB79B76247EA8625481C4311073ACCA6
:103710003D4519A08506BA8713F7F7009375F70F93
:10372000138605036374E800138675032380C600BF
:1037300013D74700E360F5FE030831028348C10157
:10374000830521020345D101830611020346E101ED
:10375000830701020347F10123000401A300B40021
:103760002301D400A301F4002302E400A302C40057
:103770002303A400A3031401A3011103230E0101D9
:103780002301A102A30EB100A300C102230FD100A7
:103790002300E102A30FF1002104A10CD5BDE247F3
:1037A0001D46984391073ECC937777009387070394
:1037B000230EF10093563700637EE6426A879D45EB
:1037C00011A0B286050713F6760013060603B307A9
:1037D000A74185072300C70093F7F70F13D63600DC
:1037E000E3E1D5FE93D517003E8B95C11387F7FF14
:1037F0006A97EA87EA95038607008306070085072C
:103800002300C700A38FD7FE7D17E396F5FE228520
:103810005A86EA85EFE0D03E5A94DA9C95BD62471D
:10382000A9460328070011073ACC1357F841B347BC
:103830000701998F33E7D702B3C7D70213070703EE
:10384000230EE100638A073C85456A86294511A05D
:10385000BA85B3E6A7020506138715001377F70F9D
:10386000B3C7A702938606032300D600F5F3634986
:1038700008283A8B93551700D9D91307FBFF6A978D
:10388000EA87EA9503860700830607008507230079
:10389000C700A38FD7FE7D17E396F5FE22855A86D3
:1038A000EA85EFE0F0355A94DA9CDDB3E24705048F
:1038B000850C984391073ECCA30FE4FED1BBE246B2
:1038C0006A8725489C42910636CC3D4519A00507DC
:1038D000B68793F6F70013F6F60F930506036374A5
:1038E000D80093057603330647012300B70093D62B
:1038F0004700137BF60FE36CF5FC93551B0081D951
:103900001307FBFF6A97EA87EA9503860700830699
:10391000070085072300C700A38FD7FE7D17E39616
:10392000F5FE22855A86EA85EFE0902D5A94DA9CBE
:1039300085B3E2479D07E19B03AB070083AB4700DC
:10394000A1075A85DE853ECCEFD000761357F541AE
:10395000B347A700998FA94633E7D7022A88B3C790
:10396000D70213070703230EE1006381072C854864
:103970006A86A94511A0BA88B3E6B702050613877F
:1039800018001377F70FB3C7B70293860603230017
:10399000D600F5F3014681465A85DE8546C63AC40F
:1039A00042C2EFC0F02112482247B24863460516D2
:1039B000BA889355170095C11387F8FF6A97EA876D
:1039C000EA95038607008306070085072300C700E2
:1039D000A38FD7FE7D17E396F5FE4686EA852285FE
:1039E00046C242C4EFE0D02122484285EFD0407267
:1039F0002A86AE865A85DE85EFC070734A86CE86EB
:103A0000EFC070279248014681462A8BAE8B4694C0
:103A1000C69CEFC07009631D0510B737303093871F
:103A200007033ECE8D67938707032310F1029307A8
:103A3000E0022301F10299450D451D4BEA95AE8741
:103A40006A870306070083860700FD170507A38022
:103A5000C700A30FD7FEB386F540E3E4A6FE5A865F
:103A6000EA852285EFE0D019DA9C1DB1E2472947AB
:103A70002546944391073ECCB3F7E60293870703AC
:103A8000230EF10033D7E6026376D616EA86A945FF
:103A9000254511A032873376B7028506B387A64144
:103AA000850793F7F70F130606032380C6003356E6
:103AB000B702E361E5FE93D517003E8BE38905D499
:103AC0001387F7FF6A97EA87EA950386070083065C
:103AD000070085072300C700A38FD7FE7D17E39655
:103AE000F5FE22855A86EA85EFE090115A94DA9C19
:103AF00045B6930750022300F400850C050449BE27
:103B000089059C003E9713FBF50F9307D002935550
:103B10001B00230EF7FC8DB39C0089083E9793F899
:103B2000F80F9307D00293D51800230EF7FC61B568
:103B30005A85DE85EFD040571357F541B347A700AC
:103B4000998FA94633E7D702B3C7D70213070703F4
:103B5000230EE100638E070E8546EA85294511A0F4
:103B6000BA8633E6A7028505138716001377F70F89
:103B7000B3C7A702130606032380C500F5F39547D4
:103B800063ECE7069C003E979305000393872600AD
:103B9000230EB7FC93F7F70F1946E38AC7E898009E
:103BA0003E9793873600230EB7FC93F7F70FE38019
:103BB000C7E894001306000313871700BE96238EF0
:103BC000C6FC1377F70F9945E303B7E694003697E1
:103BD00093862700230EC7FC13F7F60FE309B7E41B
:103BE00094003697230EC7FC0947E392E7E4A3004D
:103BF000C10235BD054B21B99C0089063E9713FBD8
:103C0000F60F9307E002230EF7FC13551B00E308A1
:103C100005E49305FBFF1DB5054BE35A08BE93076A
:103C2000D002A30EF1008545094B81B92AC2014695
:103C300081465A85DE85EFC0A07812488548E35E4C
:103C400005D89307D002A30EF10085458948ADB38E
:103C500093070003A30EF100230FF1008D4791BFDE
:103C6000935755000547938707043315A7008A0724
:103C700037E700E0BA9788C382809357550005471D
:103C8000938707063315A7008A0737E700E0BA973E
:103C900088C38280B7E700E03E952300B54082806C
:103CA00005456F80E05B11C182806FC0CFD54111A7
:103CB00006C6EFC0EFD4B24041016F908071B76586
:103CC000002099689385C50B930E40051168938871
:103CD000383613086864239515012386D501238C93
:103CE000D501B795002037670020239A05311307C7
:103CF0004715B76201002394019593050000232224
:103D0000B70E83A502F413066004130E20050543C5
:103D1000B76F01002310C7002300C70F232207003D
:103D2000231F670C232CB70C03A74FF4B7670020A1
:103D30009387C707376500201305850F2380C700C9
:103D40002386C70323A20700239607002397670251
:103D500098D7A947376F01005CC1B7970020238C23
:103D6000C72C83278FF4B766002093868613230021
:103D7000C500A380C60023A206009CCE82805D7190
:103D80006AD0376D0020130DCD0B83260D028325DD
:103D9000CD0183278D0203274D020396C19A86C663
:103DA000A2C4A6C2CAC04EDE52DC56DA5AD85ED6CB
:103DB00062D466D26ECE039FE19A13086004230694
:103DC0000D012328DD021308F00F376E00208D66E9
:103DD00023140D012326BD02232CFD0223200D00F8
:103DE00023220D00232AED02232E0D0023200D0295
:103DF000937FF60F8147814E93086004130E8E2443
:103E0000938646F41308500213036004930540069A
:103E10003387D70072970307070085076344E800DC
:103E200063806818E396B7FEA306FD012397F1941B
:103E300063840E0023061D01B2876353E601FA87EF
:103E400037970020130787358346270093F7F70F2E
:103E50003AC636C4A305FD002305FD0081E683476D
:103E60007700D5C703AA0184B79200209382C29B32
:103E700093091007930720070D6CB79B0020370BA1
:103E80000040B3894941B303A040938C820C814424
:103E900001493EC2814A0144894D130C6CC1938B88
:103EA0000B370548130BEBF80397020063534701E8
:103EB00052878395823E63D3B900CE85B3067040A6
:103EC0006357B722B3878401BA978A07DE9736977C
:103ED000B3857540814E0145138F23009443D04331
:103EE00083C60600034606006388C6166304051DE4
:103EF00005079107E314B7FE6314B41B63928A1A93
:103F00008327CD0103270D02D98F638B071EB76767
:103F1000010083ABC7F30D6AB767010003AB87F3FA
:103F2000B794002093076AB5896A9384A4B437993B
:103F300000203EC00144894C130949C1F28D130C85
:103F40004006930940055E8D938AEA7683C7A43EB6
:103F500063F68C02638E370B2324A93F83C72400AA
:103F600005046385370523207901630384098504EB
:103F70001109890D83C7A43EE3EE8CFC638D3717CE
:103F8000B767010083A7C7F32324F93E83C7240042
:103F90000504E39A37FD930700002320F900C1BF11
:103FA000854E93084005E395B7E6BDBD83C7140071
:103FB000E39B37FB83C70400E39737FB896793874D
:103FC0004777EE9703950700EFE08001B3875D0127
:103FD0002A8A03950700EFE0A000AA855285EFD05A
:103FE000303CDA85EFD080502320A900E31184F91A
:103FF000B640264496440649F259625AD25A425B68
:10400000B25B225C925C025DF24D0545616182808B
:1040100083C7943EE39237F583C7843EE39E37F32C
:104020008D679387C7B5EE9703950700EFD0507B58
:1040300082472A8AEE9703950700EFD0707AAA8507
:104040005285EFD0F035B767010083A587F3EFD035
:10405000E0492324A93E19B703A3870083A8C7001A
:10406000B30FEF000343030083C80800E39068E840
:10407000A9CA638B160521CD924709456352F902FF
:10408000FD1E93D7FE010247F6978587BA97232E28
:104090002D012322FD0223202D032324FD024AC2E9
:1040A000890205099383E3F8DA94A28AE38A92E508
:1040B0002A84DDBB81E6850E05451DBDE39AC6E277
:1040C00065BFE31705E3C5BFE31405E375B7834692
:1040D000070099EA8346170081EA8346270089E6AC
:1040E00083463700E38606E07EC0054511B50145ED
:1040F000E318B4FB21B5930700002324F93E79B5FA
:10410000A24791E7B24783C77700E38207E08D6754
:10411000F297039727C28397A78393063006291740
:10412000D907232EDD002320DD022322ED022324E4
:10413000FD02F1BB37A70120130707DBB79700206B
:1041400093870732232C071A2326071A2328071AD6
:10415000130760042384E70013070000D8C398C343
:104160000947D8C70D4798CB116713076764239A8F
:10417000E700130760F9238BE700054582804111B2
:1041800006C6EF40B068EF60402FEF407023B240AA
:1041900041016F40106E011122CC0394E180B7976A
:1041A000002093870732944B2396818006CE26CA3F
:1041B0004AC84EC60D476380E60283C7019D89C782
:1041C000239A0194239B0194F2406244D2444249D1
:1041D000B2490561828003C7870093076004E31E2C
:1041E000F7FC039541A4B557635EF506239A8194C5
:1041F000EFD0105FEFD01078B767010003A687FDFE
:1042000083A6C7FDEFC020272A8903A54181AE8977
:10421000EFD050762A86AE864A85CE85EFB0902DB7
:10422000EF905076B767010003A607FE83A647FE0E
:10423000EFC06024B767010003A687FE83A6C7FE10
:10424000EFB040382A892285AE89EFC0706C2A868B
:10425000AE864A85CE85EFC00022EFC0F064239B76
:10426000A194A1BFD14763D0A708EFD07057EFD07A
:104270007070B767010003A687FD83A6C7FDEFC076
:10428000801F2A8903A54181AE89EFD0B06E2A86AE
:10429000AE864A85CE85EFB0F025EF90B06EB76759
:1042A000010003A607FE83A647FEEFC0C01CB76748
:1042B00001002A86AE8603A587FE83A5C7FEEFC050
:1042C00000672A892285AE89EFC090642A86AE866F
:1042D0004A85CE85EFC0201AEFC0105D239AA194C5
:1042E000239B8194D9BD239A8194239B8194F1B51A
:1042F000411106C622C426C2EF90406AB79700203B
:1043000093870732984B0DCB83C7870093066004D1
:104310006389D702130740056385E70A0397A195D0
:104320000395C19522442394E1A4B240924423957D
:10433000A1A441016F901029B2402244924441014E
:1043400082809377D7FF8546638CD70091476309B6
:10435000F700239D0194239E019401450147D9B79D
:10436000B7B7012003A5873EB7040020EFD0D03BAC
:104370000396419593160501B7B50120C186938533
:10438000C53213854430EF70004BB7B7012013845A
:10439000A1952310A40003A5873FEFD0F038039622
:1043A000619593160501B7B50120C1869385453502
:1043B00013854430EF702048239EA1940317040016
:1043C00095B7B7B7012003A5873E1384A195EFD019
:1043D000B03593160501B7B5012037050020C18619
:1043E00001469385C5321305C52AEF70C044B7B79F
:1043F00001202310A40003A5873FEFD0F0329316CD
:104400000501B7B5012037050020C1860146938517
:1044100045351305052CEF70004203170400239E59
:10442000A19409B7938741969843411106C622C4C7
:1044300026C24AC0634407007D1798C31384E195E0
:1044400083570400B7940020376701009384043237
:104450008840832507FF85072310F400EFC07052C2
:1044600088C0EF90401C83C7919A9DE78397E180B5
:10447000239AF194239BF194EFF0FFD1EFF05FE7E3
:10448000031704009307703E63C3E706B24022445B
:1044900092440249410182809C480947FD17636F9D
:1044A000F70283C68400930760046399F602DC4434
:1044B000638DE70405476393E7020395219513078E
:1044C000350142072392A1A441839306600263F958
:1044D000E600EF90302EA384019A49BF23990194FE
:1044E000239201A4EF90102DA384019A41B71305E4
:1044F000C002EFC08F93B2402310040022442398DF
:104500000194924402494101828083968196B7B515
:1045100001203705002001469385852D1305452D83
:10452000EF7020432399A19459BF828039715AD0EA
:1045300003A701A206DE22DC26DA4AD84ED652D4E0
:1045400056D25ECE62CC66CA6AC86EC6854763091B
:10455000F71237940020D96C596CD96B13040432CC
:1045600093044005B76A0100376D0100B76D010083
:10457000A1A813864AF8814513050008EFD01FE96A
:104580001C480D47638FE70805476387E712094713
:10459000638EE7126388071083475401638E970880
:1045A00013864AF8894513050008EFD03FE683A734
:1045B00081A20547638EE7082945EFF0EF8403A742
:1045C00001A28547630EF70A894513858195EF009F
:1045D000100F930700801386CCF481454145239446
:1045E000F180EFD0BFE213060CF685454145EFD0D0
:1045F000FFE113860BF789454145EFD03FE1834743
:1046000044017D472394E180E39597F613060DF866
:10461000814513050008EFD07FDF1C480D47E39567
:10462000E7F613868DF8854513050008EFD01FDEE9
:1046300083475401E39697F613060DF88945130551
:104640000008EFD0BFDC83A781A20547E396E7F619
:1046500003C7819523A401A2630BF70851C38947BF
:10466000E31CF7F4094693050008130554010929D2
:104670002945EFE07FF903A701A28547E316F7F488
:10468000F250625423A001A2D2544259B259225A84
:10469000925A025BF24B624CD24C424DB24D0545F0
:1046A00021618280B7670100138687FA854513056B
:1046B0000008EFD0BFD5CDB5B7670100138607F965
:1046C000854513050008EFD07FD4F9B5B767010021
:1046D0001386C7F9854513050008EFD03FD36DBD9C
:1046E00001469305000813054401592EF1B5D96719
:1046F0000547930600081146938507FB130504013F
:10470000852D5DBD397122DC4AD85AD006DE26DA05
:104710004ED652D456D25ECE62CC66CA6AC86EC637
:10472000130730062E842A8B328993073006636381
:10473000B700AE87930530069D8DC205930710071D
:10474000C1815A8563F4670113051007930DFBFFC0
:10475000130CABFF931B1B0042054A864181C20D1F
:10476000420CC20BB30C6441EFD07FB993DD0D0155
:10477000135C0C0193DB0B01229B930A1007130AB5
:1047800030069309300633849D01931704014A864D
:10479000C1836E8D63F4BA01130D1007420D135DD2
:1047A0000D016A856374FA0013043006338489406E
:1047B00042044180A285EFD09FB4B384BB4193975C
:1047C0000401C1834A86A28563F4FA0093041007AA
:1047D000C204C1802685EFD09FB23304BB4193173A
:1047E0000401C1834A866A856374FA0013043006A3
:1047F0003384894042044180A285FD1DEFD03FB043
:10480000C20D4A86A285268593DD0D01EFD03FAF0C
:10481000E31BBCF7F2506254D2544259B259225AA7
:10482000925A025BF24B624CD24C424DB24D216126
:10483000828083A6C1A1411126C206C622C44AC0F5
:104840000547AA8403440500638EE60C83A641A3B2
:1048500005476384E60A03A901A385476305F904B4
:1048600083A641A26381F606FD472380840023943A
:10487000F180931504019D47C18163F88706E11516
:1048800037660100C20513068626C1810145EFD0B7
:10489000FFB7B2402244930700802394F1809244F2
:1048A0000249410182804165011523A801A2EFD090
:1048B0005FA01D469D451305000DEFD03FBC83A7AB
:1048C00041A2639B27094165011523A201A2EFD0F4
:1048D0005F9E9D4501461305000DEFD03FBA238032
:1048E0000400FD472394F1808145376601001306DB
:1048F00086260145EFD09FB169BF23AA01A231C826
:104900007D141374F40F13198401135989414165FF
:104910000115EFD01F9A4A869D451305000DEFD073
:10492000FFB515BF23AE01A09D476306F40405043F
:104930001374F40F1319840113598941416501154A
:10494000EFD03F974A869D451305000DEFD01FB36A
:10495000F5BD1D491D4465BF9D4737660100238095
:10496000F400FD479D451306862601452394F180FA
:10497000EFD0DFA939BF01490144C9B75D716AD0E1
:1049800003A781A2A2C4A6C2031405002AC6130568
:10499000F08186C6CAC04EDE52DC56DA5AD85ED6E0
:1049A00062D466D26ECE85472394A1806303F70656
:1049B000939B060193DB0B01139C2B005E9C060C62
:1049C000B30C8041C20C420C2E89B289135C0C01DD
:1049D00093DC0C01854403A641A2CE854A8583A6BB
:1049E00001A303A741A383A7C1A163039606638B19
:1049F0009604631797005E944204418423AA01A29F
:104A00002286638F9704EFD01FBE83A781A2E39411
:104A100097FC930700802394F180B24723A401A25E
:104A2000B64023908700264496440649F259625ABC
:104A3000D25A425BB25B225C925C025DF24D05454C
:104A40006161828066944204418423A801A255B723
:104A50006294420423A201A24184E39C96F8DDB74C
:104A600033047441420441842286CE854A8523AEB4
:104A700001A0EFD05FB783A781A2E39E97F451BF57
:104A80005D716AD086C6A2C4A6C2CAC04EDE52DC20
:104A900056DA5AD85ED662D466D26ECE03A781A209
:104AA000834C05002AC69306F08185472394D18064
:104AB0006307F7082E8AB28A0544376C0100130B8E
:104AC0004005B76B010003A641A283A701A303A77A
:104AD00041A383A6C1A16306860C638B8708630E7E
:104AE000870E6393861023AE01A0638E6C031306BA
:104AF0000CF8D6855285EFD07F9183A781A2638F72
:104B0000870803A641A283A701A303A741A383A605
:104B1000C1A1630B860A638C870863018706E3984B
:104B200086FC23AE01A0930C600413864BF8D68557
:104B30005285EFD0BF8D83A781A2E39687F89307B4
:104B400000802394F180B24723A401A2054523806D
:104B50009701B640264496440649F259625AD25A01
:104B6000425BB25B225C925C025DF24D61618280CD
:104B700023A801A2638F6C036311870423AA01A2F7
:104B8000E39386FA13060CF8D685528523AE01A06E
:104B9000EFD0DF8783A781A2E39587F6930C4005CA
:104BA00079BF23A201A263836C03E39787FC23A848
:104BB00001A2E31787FC23AA01A2E39A86F223AE9F
:104BC00001A0930C600495B723A201A2E39387FE92
:104BD00023A801A2E31387FE55B723AA01A2E3810C
:104BE0006CFBE39686F0E1BFE3916CF509B75D716C
:104BF0006AD066D286C6A2C4A6C2CAC04EDE52DC45
:104C000056DA5AD85ED662D46ECE03A781A2834DFF
:104C100005002AC61305F08185472394A180630A05
:104C2000F70A2E8AB28A0544930BC004376B010041
:104C30001DA06385850E6388870E630387106380DC
:104C40007D0513064B63D6855285EFD02FFC83A7D5
:104C500081A26380870803A641A283A501A383A73D
:104C600041A303A7C1A1E31686FC23A201A263828C
:104C70007D0F638E850263878708630E870AB76797
:104C800001001386C762D6855285EFD02FF883A71F
:104C900081A2638C870C03A641A283A601A383A7EC
:104CA00041A303A7C1A1630B860AE39686FC23A850
:104CB00001A2638987046300870813064B63D685C6
:104CC0005285EFD0AFF483A781A2930D2005E39422
:104CD00087F8930700802394F180B24723A401A2B0
:104CE00005452380B701B640264496440649F2594B
:104CF000625AD25A425BB25B225C925C025DF24D18
:104D00006161828023AA01A263058700930D40059B
:104D10000DBF23AE01A0930D600425B723A801A207
:104D2000E39B7DF579B723AA01A293074005E39D94
:104D3000FDFCE31287FE23AE01A0930D400511B7E1
:104D400023AE01A093074005E387FDFC930D4005CA
:104D5000CDBDE39085F623A801A231BF23A201A215
:104D6000E39986F423A801A239B7930DC00495B73F
:104D7000397162CC5AD05ECE06DE22DC26DA4AD801
:104D80004ED652D456D266CA6AC803A881A28344BA
:104D900005002A8B1305F08185472394A1806308C1
:104DA000F80C2E84B289368ABA8A854C03A741A3AF
:104DB00083A7C1A125436303970F63979701FD1450
:104DC00023AE01A093F4F40F93972400A6978607CF
:104DD00063FC340D93881700138827001385370070
:104DE00093854700138657009386670013877700E3
:104DF000138E870013839700A29722982295A2957D
:104E00002296A2962297229E2293A29883CE0700F2
:104E1000034F0800834F050083C20500834306004B
:104E200003C80600834703008346070083C80800C1
:104E300003470E005000D6855285A306F1002302D9
:104E4000D101A30211012303E101A303F101230412
:104E50005100A304710023050101A305D10023061D
:104E6000E100EFD0AFDA83A781A2E39197F5930732
:104E7000008023A401A22394F18023009B00F25020
:104E80006254D2544259B259225A925A025BF24B9E
:104E9000624CD24C424D054521618280850423AA93
:104EA00001A293F4F40F11BF214E1D4799461546F8
:104EB00091450D45094885488147814435BF83A602
:104EC000C1A1011126CA4AC806CE22CC4EC605474A
:104ED000AA842E89034405006382E60E83A641A3BB
:104EE00005476386E60883A601A305476388E60AAB
:104EF00083A641A205476382E604FD472380840020
:104F00002394F180931504019D47C18163F98704BF
:104F1000E11537660100C20513068626C1810145E9
:104F2000EFD0CFCEF2406244930700802394F1800B
:104F3000D2444249B249056182804165011523A2EC
:104F400001A2EFD00FB79D4501461305000DEFD02C
:104F5000EFD223800400FD472394F180814537661A
:104F60000100130686260145EFD04FCA65BF23AA6C
:104F700001A23DC87D141374F40F41650115EFD0F3
:104F80004FB31316840161869D451305000DEFD0C4
:104F9000EFCE83A601A30547E39CE6F44165011526
:104FA00023A801A2EFD0EFB01316890161869D45B9
:104FB0001305000DEFD08FCC4A841DBF23AE01A096
:104FC0006306B40205041374F40F9319840193D992
:104FD000894141650115EFD0CFAD4E869D45130542
:104FE000000DEFD0AFC9DDBD4A8441BF8149014406
:104FF000CDB75D715ED603A701A286C6A2C4A6C2C4
:10500000CAC04EDE52DC56DA5AD862D466D26AD0B2
:105010006ECE8547630DF712B767010003AD4723D6
:10502000B767010083A787233EC4B767010083A742
:10503000C7231384C1AE3EC641657D15EFD06FA76F
:10504000930DF00E8544054CCDA883A7C1A103A5FF
:1050500001916396870123AE01A093C41400EFD0A1
:1050600060112A86AE8689470D4795450145EFD0E8
:105070005F8303A54191EFD0E00F2A86AE868D476E
:10508000094799450145EFD0DF8103A58191EFD014
:10509000600E2A86AE868D4709479D450145EFD0B3
:1050A0005F800395C1AEEFC0A0062A86AE86894711
:1050B0000D47954513058007EFD0AFFE031524007B
:1050C000EFC000052A86AE868D470947994513052E
:1050D0008007EFD00FFD03154400EFC060032A8660
:1050E000AE868D4709479D4513058007EFD06FFBBE
:1050F00003156400EFC0C0012A86AE8689470D47BC
:1051000081450145EFD0EFF903158400EFC0400061
:105110002A86AE868D47094785450145EFD06FF851
:105120000315A400EFB0D07E2A86AE868D470947CE
:1051300089450145EFD0EFF69DE883A741A3E396AB
:1051400087F183A701A223AA01A2E39787EFB640C4
:10515000264496440649F259625AD25A425BB25BDF
:10516000225C925C025DF24D05456161828093078D
:10517000F00E638BFD0293940D01C180850D03A594
:105180000191EA85EFC08078A245EFC02036B24594
:10519000EFB0307FEFC0505993150501C181014632
:1051A0002685EFD0CF9579BD416A1305FAFFEFD080
:1051B0004F908144130A0A80930A000F139504014B
:1051C00041818504528693053004EFD04F93E397D5
:1051D00054FF854D814465B7411126C2C16422C484
:1051E0004AC006C60144938494E11309200742048F
:1051F0004180228526869305F0040504EFD02F9088
:1052000093170401C183139407014184E39127FF9D
:10521000C1640144938494E113092007420441804E
:10522000228526869305B0030504EFD04F8D931792
:105230000401C183139407014184E39127FFC164F2
:105240000144938494E1130920074204418022859C
:105250002686930570020504EFD06F8A9317040128
:10526000C183139407014184E39127FFC164014482
:10527000938494E113092007420441802285268605
:10528000CD450504EFD0AF8793170401C183139474
:1052900007014184E39227FFC16413043006FD1423
:1052A000A2857D1442047D46130530024180EFD073
:1052B0000F85E31794FEC16413043006FD14A28524
:1052C0001306007E13058003EFD06F83A2851306BB
:1052D000007E13059003EFD08F82A2857D144204D7
:1052E0001306007E1305A0034180EFD04F81E31821
:1052F00094FCC16413043006FD14A2857D1442049D
:105300007D461305F0044180EFC07FFFE31794FE54
:1053100093040080130630029D4529452394918013
:10532000EFD08FA2376601007D49130606249D4504
:105330001305100323942181EFD04F8D1306F00441
:105340009D451305800523949180EFD0EF9F37662C
:1053500001001306462495451305800723942181F7
:10536000EFD0CF8A376601001306862491451305D6
:105370008007EFD0AF89376601001306C6248D453C
:1053800013058007EFD08F883766010013060625C6
:10539000894513058007EFD06F8737660100130634
:1053A0004625854513058007EFD04F8637660100F7
:1053B00013068625814513058007EFD02F85B2405F
:1053C0002394918022449244024941018280797160
:1053D00022D44AD04ECE52CC8569416A376900202A
:1053E00026D256CA5AC85EC662C406D6239701940E
:1053F00081471309892493043006138B893B930A50
:10540000FA8121A80347C7CE630BD7028507C207DD
:10541000C1872397F19463C3F42A0397419CE30760
:10542000F7FE0397619CE303F7FEB306F9000D67EF
:1054300036970346479093064005E315D6FC13972D
:1054400007014183BE8663F4E40093063006DA97D1
:105450008607CA9703D5470093053006958D7D15BD
:1054600013170501C205418393071007C18163F437
:10547000E70013051007420556864181EFC03FE85B
:105480008397E19493960701C1823E8763F4D40029
:1054900013073006DA978607CA9703D547009305A6
:1054A0003006998DC20593071007C18163F4A700E8
:1054B000130510075686EFC09FE48397E1949396F7
:1054C0000701C1823E8763F4D40013073006DA97E0
:1054D0008607CA9703D5470093053006998D0505C1
:1054E00013170501C205418393071007C18163F4B7
:1054F000E70013051007420556864181EFC03FE0E3
:105500008397E19493960701C1823E8763F4D400A8
:10551000130730069386895AB6978607CA9703D52C
:10552000C70093053006998D7D1513170501C20537
:10553000418393071007C18163F4E7001305100747
:1055400042057D464181EFC09FDB8397E1949396AE
:105550000701C1823E8763F4D400130730069386A7
:10556000895AB6978607CA9703D5C70093053006B0
:10557000998DC20593071007C18163F4A700130535
:1055800010077D46EFC0BFD78397E194939607013C
:10559000C1823E8763F4D400130730069386895A8C
:1055A000B6978607CA9703D5C70093053006998D2D
:1055B000050513170501C205418393071007C18133
:1055C00063F4E7001305100742057D464181EFC0F3
:1055D0001FD38397E19493960701C1823E8763F4BA
:1055E000D400130730069386092CB6978607CA970E
:1055F00003D5070093053006998DC2059307100760
:10560000C18163F4A7001305100713060A80EFC0D9
:105610001FCF8397E19493960701C1823E8763F47D
:10562000D400130730069386092CB6978607CA97CD
:1056300003D5070093053006998D7D1513170501D5
:10564000C205418393071007C18163F4E700130586
:105650001007420513060A804181EFC05FCA839795
:10566000E19493960701C1823E8763F4D400130747
:1056700030069386092CB6978607CA9703D507008C
:1056800093053006998D050513170501C205418361
:1056900093071007C18163F4E70013051007420563
:1056A00013060A804181EFC09FC58397E194850767
:1056B000C207C1872397F194E3D1F4D6B2502254A4
:1056C00092540259F249624AD24A424BB24B224C9E
:1056D00045618280397162CC03A701A25ECE06DEED
:1056E00022DC26DA4AD84ED652D456D25AD066CACE
:1056F0006AC86EC68547938BF197630EF71C416AA3
:1057000037AD01209304300613043006130A0A80D3
:10571000B7AC012085472380FB00EFE05FA683A79D
:1057200081836358F00C930D0DF88149130910071C
:1057300083A74D0003A74D00C207C183BA8563F458
:10574000F4009305300603A50D00B305B440C2056F
:105750007D1593170501C183C1816374F900130599
:105760001007420552864181EFC07FB983A74D00E3
:1057700003A74D00C207C183BA8563F4F400930503
:10578000300683A70D0003A70D00B305B440C20780
:10579000C205C183C1813A856374F90013051007FE
:1057A000420552864181EFC09FB583A74D0003A7F4
:1057B0004D00C207C183BA8563F4F4009305300637
:1057C00003A50D00B305B440C205050593170501F7
:1057D000C183C1816374F900130510074205528625
:1057E0004181EFC0DFB183A781838509A10DE3C1AA
:1057F000F9F483A7C1836358F00C938D0C2A814977
:105800001309100783A74D0003A74D00C207C183EA
:10581000BA8563F4F4009305300603A50D00B305C3
:10582000B440C2057D1593170501C183C18163741E
:10583000F9001305100742057D464181EFC03FACDA
:1058400083A74D0003A74D00C207C183BA8563F447
:10585000F4009305300683A70D0003A70D00B305E0
:10586000B440C207C205C183C1813A856374F9009F
:105870001305100742057D464181EFC05FA883A74D
:105880004D0003A74D00C207C183BA8563F4F4003D
:105890009305300603A50D00B305B440C205050508
:1058A00093170501C183C1816374F90013051007C3
:1058B00042057D464181EFC09FA483A7C18385092E
:1058C000A10DE3C1F9F42945EFD01FD403A701A22C
:1058D0008547E311F7E441650115EFC09F9DF25044
:1058E000625423800B0023A001A2D2544259B25922
:1058F000225A925A025BF24B624CD24C424DB24D4C
:1059000001452161828079716AC003A701A206D690
:1059100022D426D24AD04ECE52CC56CA5AC85EC6DF
:1059200062C466C285476304F714B7690020376410
:1059300000204169B79C0020130484139384C90B91
:10594000376C0100376B0100B76A01001309098049
:10595000EFE0FF82930720071307400681481308F2
:105960004006930620078145014513860C37EFD08A
:105970006FB7EFF07F86EFF09FA583459400034556
:1059800084004A86EFE01FD88345D4000345C40055
:105990007D46EFE03FD783C5140003C5C90B13064E
:1059A000007EEFE03FD68345B4000345A4004A865D
:1059B000EFE05FD58345F4000345E4007D46EFE06A
:1059C0007FD483C5340003C524001306007EEFE0B6
:1059D0007FD313068C12814513056009EFC01FA306
:1059E00003968196854513056009EFC0DFBF130656
:1059F0000B13894513056009EFC05FA10386A4005E
:105A00008D4513056009EFC07FA71386CA13914522
:105A100013056009EFC09F9F039641A495451305A8
:105A20006009EFC05FBC03060401994513056009D6
:105A3000EFC0DFA4030624019D4513056009EFC0F4
:105A4000FFA30306140199451305E00BEFC01FA344
:105A5000030634019D451305E00BEFC03FA27945D5
:105A6000EFD09FBA03A701A28547E313F7EE416584
:105A70000115EFC01F84B250225423A001A29254FA
:105A80000259F249624AD24A424BB24B224C924CE2
:105A9000024D0145456182805D71A2C44EDE37042E
:105AA0000020B769002052DC5AD85ED686C6A6C24E
:105AB000CAC056DA62D466D26AD06ECE9389C9075C
:105AC0001304C404FD4B83A701A285446380971A85
:105AD000954513858197EFF08FBE138641868145EA
